:020000040000FA
:0600000008EF07F01200FA
:080008009EAA02D035EF03F0BF
:020010001200DC
:08001800F2A402D09EEF04F0F7
:0C0020001200D08E9F8AF28EF28C12002B
:03002D000600B119
:100030000F00009E0200000200000077000000A2F6
:1000400002000001000000AE0F00000001000003EC
:100050000000001A0F0000000200009400000000E1
:100060000F0000000300001A0000007A0E000000DC
:0700700004000086000000FF
:010077000088
:08007800D9CFE6FFE1CFD9FF6B
:10008000FE0EDBCF01F2FD0EDBCF02F2FC0EDBCF6A
:1000900003F2FB0EDBCF04F2F90EDBCF89F2FA0E8E
:1000A000DBCF8AF204D8E552E7CFD9FF1200D6ECB5
:1000B00003F00201856B866B010E006F876B050EE6
:1000C000886F8FC28BF290C28CF291C28DF292C275
:1000D0008EF200C293F212000201856B866B010E54
:1000E000006F876B050E886F8FC28BF290C28CF207
:1000F00091C28DF292C28EF200C293F21200D9CF59
:10010000E6FFE1CFD9FF060EE126DF6A9BEC05F0A2
:1001100004C08FF205C090F206C091F207C092F2BF
:100120008B0EE96E020EEA6EEE5002018F1909E1A4
:10013000EE50901906E1EE50911903E1EE5092193C
:1001400000E113E00051935D08E1020E005D05E15E
:100150008807885102E1ABDFBED08FC28BF290C21C
:100160008CF291C28DF292C28EF20051030A01E12B
:10017000ADD0010A16E0030A02E0AEDFAAD059ECC6
:1001800004F0000901E1A7D076EC04F0DF6E020173
:100190000151DF5C05E1856B020E006F050E886F73
:1001A00098D059EC04F0000901E195D076EC04F008
:1001B000DF6E02010251DF5C74E1020EDB6A030EA6
:1001C000DB68D950030FE66E000EDA20E66E8DD89C
:1001D000E552E552E76E020EE7CFDBFFDB50020A85
:1001E00054E0030A05E0010A01E057D075DF73D03F
:1001F000020189518A1147E0D950040FE66E000EC2
:10020000DA20E66E870EE66E020EE66E070EE66EEA
:10021000020EE66E05D08AC2FAFF02018951F96E1C
:10022000FADF0B6E060EE15E0B500201866F630E65
:10023000456F862B87C246F2862BDE52020EDD6E9C
:100240008651F36E010EDBCFF4FFF350F45C1AE23B
:10025000040EDBCFE9FF050EDBCFEAFFEF50E66EC1
:10026000010EDB50EA6A450FE96E020EEA22E55202
:10027000E750EF6E040EDB2A050E01E3DB2A010EC8
:10028000DB2ADED701D028DF08D00201630E456FDC
:10029000862B87C246F2862B00D00201030E006F28
:1002A00014D08551852BEA6A050FE96E020EEA2209
:1002B000DFCFEFFF400E855D08E3630E456F862BB1
:1002C000900E466F862B030E006F03D05AD804DFC2
:1002D00000D000C293F2060EE15C02E2E16AE55250
:1002E000E16EE552E7CFD9FF1200D9CFE6FFE1CFAB
:1002F000D9FF020EE12602018505EA6A050FE96EC3
:10030000020EEA22EFCFDFFF010EDB6A630E055D0E
:1003100005E0FA0E055D02E0000E27D08505E66EC9
:10032000050EE66E020EE66E9BD8E552E552E552EA
:10033000E76E010EE7CFDBFFDB50DF5C0CE1020173
:1003400085078551EA6A050FE96E020EEA22EF6A17
:10035000010E0BD00AD0FD0EDBCFE9FFFE0EDBCF86
:10036000EAFF910EEF6E000E00D00B6E020EE15C04
:1003700002E2E16AE552E16E0B50E552E7CFD9FFA8
:100380001200D9CFE6FFE1CFD9FF020EE126DF6AE6
:10039000010EDB6A86C2E6FF450EE66E020EE66ED1
:1003A0005FD8E552E552E552DF6E03C2E6FFF0EC9E
:1003B00003F0E552010EDB6A02018651F36E010E75
:1003C000DBCFF4FFF350F45C0FE2010EDB50EA6A7E
:1003D000450FE96E020EEA22EF50E66EF0EC03F0F4
:1003E000E552010EDB2AE8D7DFCFE6FFF0EC03F0A1
:1003F000E55204C2E6FFF0EC03F0E5520CEC04F029
:100400000400020EE15C02E2E16AE552E16EE552AF
:10041000E7CFD9FF1200D9CFE6FFE1CFD9FFFD0E1C
:10042000DBCFF6FFFE0EDBCFF7FF0800F55012E042
:10043000FD0EDBCFF6FFFE0EDBCFF7FF0800F55019
:10044000E66EF0EC03F0E552FD0EDB2AFE0E01E352
:10045000DB2AE5D70CEC04F0E552E7CFD9FF120018
:10046000D9CFE6FFE1CFD9FF030EE126DF6A010E07
:10047000DB6AFC0EDB50F36E010EDBCFF4FFF350B2
:10048000F45C12E2010EDB50E76EFD0EDBCFE9FFFC
:10049000FE0EDBCFEAFFE750E926000EEA22EF501E
:1004A000DF1A010EDB2AE5D7DF500B6E030EE15C8D
:1004B00003E200D0E16AE552E16E0B50E552E7CF6E
:1004C000D9FF1200D9CFE6FFE1CFD9FF0D0EE1260B
:1004D000DF6AD950010FE96EDACFEAFFEE6AEE6A01
:1004E000EE6AEE6AEE6AEE6AEE6AEE6AEE6A0A0E8C
:1004F000DB6AD9CF0BF0DACF0CF0DBCFF3FFDB2ACE
:10050000F3500F010B24E96E000E0C20EA6EAA0EC8
:10051000EF6ED9CF0BF0DACF0CF00A0EDBCFF3FF82
:10052000DB2AF3500B24E96E000E0C20EA6EFC0E61
:10053000DBCFEFFFD9CF0BF0DACF0CF00A0EDBCF19
:10054000F3FFDB2AF3500B24E96E000E0C20EA6E59
:10055000FE0EDBCFEFFFD9CF0BF0DACF0CF00A0E97
:10056000DBCFF3FFDB2AF3500B24E96E000E0C20E7
:10057000EA6EFD0EDBCFEFFF0A0EDBCFE6FFD950B0
:10058000010FE66E000EDA20E66E6ADFE552E552F4
:10059000E552E76E0C0EE7CFDBFFDB50AA0804E064
:1005A0000C0EDB50BB0814E1010EDB2A0A0EDBCF78
:1005B000E6FFD950010FE66E000EDA20E66E50DF3E
:1005C000E552E552E552E76E0C0EE7CFDBFFE5D7CB
:1005D000D9CF0BF0DACF0CF00A0EDBCFF3FFDB2A1A
:1005E000F3500F010B24E96E000E0C20EA6E0C0E86
:1005F000DBCFEFFFD9CF0BF0DACF0CF00A0EDBCF59
:10060000F3FFDB2AF3500B24E96E000E0C20EA6E98
:10061000BB0EEF6E0B0EDB6A0A0EDB50F36E0B0E99
:10062000DBCFF4FFF350F45C14E2D9CF0BF0DACF58
:100630000CF00B0EDB500F010B24E96E000E0C20AA
:10064000EA6EEF50E66EF0EC03F0E5520B0EDB2A9B
:10065000E3D70CEC04F00D0EE15C02E2E16AE55236
:0A066000E16EE552E7CFD9FF12006A
:06066A00DACFE4FFE2CF4D
:10067000DAFFE9CFE4FFEACFE4FFF6CFE4FFF7CFFC
:10068000E4FFF5CFE4FFF3CFE4FFF4CFE4FFFACFCC
:10069000E4FF00EE00F00B0EE80403E3EECFE4FF0E
:1006A000FBD700EE0BF0020EE80403E3EECFE4FF0D
:1006B000FBD7E652D9CFE6FFE1CFD9FFE652A1EC56
:1006C00006F0DF6E04014351432BEA6A460FE96EE0
:1006D000040EEA22DFCFEFFF400E435D01E3436BE0
:1006E000452BE552E552E7CFD9FFE55200EE0CF07D
:1006F000020EE80403E3E5CFEDFFFBD700EE0AF0BE
:100700000B0EE80403E3E5CFEDFFFBD7E5CFFAFFDF
:10071000E5CFF4FFE5CFF3FFE5CFF5FFE5CFF7FF3A
:10072000E5CFF6FFE5CFEAFFE5CFE9FFE5CFDAFF5A
:100730001100DACFE4FFE2CFDAFFE9CFE4FFEACF3E
:10074000E4FFE652D9CFE6FFE1CFD9FFE65204013C
:10075000025105E1ACA2FED7829AAC9A1BD001519E
:10076000EA6A030FE96E040EEA22EFCFDFFFDF50E3
:10077000AD6E012B400E015D01E3016B000EE76ED3
:100780000219E8AE02D0023503D0E750D8800255F6
:1007900001E20207E552E552E7CFD9FFE552E5CF86
:1007A000EAFFE5CFE9FFE5CFDAFF1100D9CFE6FF99
:1007B000E1CFD9FFE6527C0EDF6E330EE66EE66ABD
:1007C000DFCFE6FF1AEC06F0E552E552E552D08E97
:1007D000AC8AAC9E9F8AE552E552E7CFD9FF120062
:1007E000D9CFE6FFE1CFD9FFACA2FED7040100517B
:1007F000002BEA6A030FE96E040EEA22FE0EDBCF3D
:10080000EFFF022B400E005D01E3006B010E00D0F4
:10081000E552E7CFD9FF1200D9CFE6FFE1CFD9FFEC
:10082000020EE126828A040EE66E31EC07F0E552F4
:10083000000E0401E76E0219E8AE02D0023503D0C3
:10084000E750D880025523E20151EA6A030FE96EAE
:10085000040EEA22010EEFCFDBFFACA2FED7010EA1
:10086000DB50AD6EACA2FED70401012B400E015D42
:1008700001E3016B000EE76E0219E8AE02D002350B
:1008800003D0E750D880025501E20207D1D7829AFF
:10089000040EE66E31EC07F0E5520B6E020EE15CE1
:1008A00002E2E16AE552E16E0B50E552E7CFD9FF73
:1008B0001200D9CFE6FFE1CFD9FFE652DF6A9D9A59
:1008C000000E0401E76E4519E8AE02D0453503D0AD
:1008D000E750D880455502E2010EDF6E9D8ADF5059
:1008E00000D0E552E552E7CFD9FF1200D9CFE6FF9D
:1008F000E1CFD9FFE6529D9A04014451442BEA6AA4
:10090000460FE96E040EEA22EFCFDFFF400E445D92
:1009100001E3446B000EE76E4519E8AE02D04535A1
:1009200003D0E750D880455501E245079D8ADF5046
:0C09300000D0E552E552E7CFD9FF1200DD
:04093C00DACFE4FF2B
:10094000E2CFDAFFE9CFE4FFEACFE4FFF6CFE4FF3E
:10095000F7CFE4FFF5CFE4FFF3CFE4FFF4CFE4FFFC
:10096000FACFE4FF00EE00F00B0EE80403E3EECF55
:10097000E4FFFBD700EE0BF0020EE80403E3EECF3A
:10098000E4FFFBD7E652F29403010E2B000E0F2377
:10099000102B1123122B13231407155B153504E2BA
:1009A00014510008000E155508E3162B000E1723EE
:1009B00018231923C80E146F156B0251031107E099
:1009C00005D003C3FAFF03010251F96EFADF00C339
:1009D000E6FF01C3E6FFC0EC06F0E552E552E55242
:1009E00000EE0CF0020EE80403E3E5CFEDFFFBD7C9
:1009F00000EE0AF00B0EE80403E3E5CFEDFFFBD7B2
:100A0000E5CFFAFFE5CFF4FFE5CFF3FFE5CFF5FF44
:100A1000E5CFF7FFE5CFF6FFE5CFEAFFE5CFE9FF4A
:060A2000E5CFDAFF110032
:0A0A2600720EE66E0A0EE66EDD0E9B
:100A3000E66ECC0EE66EBB0EE66EAA0EE66E3CECE3
:100A400000F00B6E060EE15E0B5012000101000576
:100A50000CE10151021105E180740A0E016F026B75
:100A600003D00107000E025B03D08094016B026B80
:100A70001200D9CFE6FFE1CFD9FF030EE126FD0E2C
:100A8000DBCFE9FFFE0EDBCFEAFF010EEFCFDBFF8E
:100A9000020EDB6A010EDB50A10A0FE0010A01E041
:100AA00017D00101010E006FFB0EDBCFE9FFFC0E3A
:100AB000DBCFEAFFA00EEF6E0BD00101006BFB0E47
:100AC000DBCFE9FFFC0EDBCFEAFFA10EEF6E00D01B
:100AD000020EDB500B6E030EE15C03E200D0E16A14
:0E0AE000E552E16E0B50E552E7CFD9FF120050
:020AEE00D9CF5E
:100AF000E6FFE1CFD9FF9F0EE66EDCEC06F0E55293
:100B0000FD0EDBCF00F3FE0EDBCF01F3FB0EDBCFE0
:100B100002F3FC0EDBCF03F3F194FD0EDBCFE6FF17
:100B2000FE0EDBCFE6FFC0EC06F0E552E552E552E3
:100B3000E7CFD9FF1200D9CFE6FFE1CFD9FF040EEE
:100B4000E126F29A16C3DFFF010E17C3DBFF020E88
:100B500018C3DBFF030E19C3DBFFF28ADECF04F0FC
:100B6000DECF05F0DECF06F0DDCF07F0DD52DD523F
:100B7000040EE15C03E200D0E16AE552E16EE55269
:100B8000E7CFD9FF1200F29E0301166B176B186BAB
:060B9000196BF28E120049
:0A0B96002D0EF66E000EF76E000E35
:100BA000F86E02010900F550996F0900F5509A6F2F
:100BB00003E1996701D03DD00900F550946F090019
:100BC000F550956F0900F550966F09000900F55032
:100BD000E96E0900F550EA6E090009000900F550B8
:100BE000976F0900F550986F09000900F6CF9BF246
:100BF000F7CF9CF2F8CF9DF294C2F6FF95C2F7FFB3
:100C000096C2F8FF0201975302E1985307E00900EA
:100C1000F550EE6E9707F8E29807F9D79BC2F6FFFA
:100C20009CC2F7FF9DC2F8FF02019907000E9A5B74
:040C3000BFD7120018
:0C0C3400D9CFE6FFDACFE6FFE1CFD9FF11
:100C4000E2CFDAFFAC6AAB6AFD0EDBB0AC88DBA2A8
:100C500002D0AC8CAB8CDBB4AC8EDBA602D0AB8804
:100C600001D0AB8ADBB8AC849E98DBBAAB86DBAC38
:100C700002D09D8A01D09D9A9E9ADBAE02D09D88BB
:100C800001D09D98FB0EDB50AF6EFB0EFC0EDBCF50
:100C90000CF00CC00BF00C6A0B50B06EAC8AAB8E33
:100CA000949C948EAC50100B04E0AC50800B01E18E
:0E0CB000948CE552E5CFDAFFE7CFD9FF1200B2
:020CBE00D9CF8C
:100CC000E6FFE1CFD9FFE65216EC07F024EC07F07F
:100CD000000EE66EE66AE00EE66EB10EE66E77ECAA
:100CE00005F0E552E552E552E55213EC05F011EC42
:100CF00000F00301640E0E5D000E0F5905E30301C1
:100D00000E6B0F6B27EC07F003010A0E125D000E4D
:100D1000135905E30301126B136B26EC05F0030175
:100D2000050E105D000E115905E30301106B116BE8
:100D30007FEC00F00400DDD7E552E552E7CFD9FFA4
:020D400012009F
:0E0D4200D9CFE6FFDACFE6FFE1CFD9FFE2CF4F
:100D5000DAFFE652F20E0201A017ABAC03D0A0916D
:100D6000ABB0A081ABB4A085ABB2A087AE50DF6EB4
:100D7000DF50E552E552E5CFDAFFE7CFD9FF1200A9
:100D8000D9CFE6FFDACFE6FFE1CFD9FFE2CFDAFF36
:100D9000E652E652FC0EDBCFDEFFDBCFDDFF010EBD
:100DA000DB50D76EDF50D66EE552E552E552E5CF07
:080DB000DAFFE7CFD9FF1200C2
:080DB800D9CFE6FFDACFE6FF18
:100DC000E1CFD9FFE2CFDAFFFD0EDB507F0BD56E0E
:100DD000D76AD66AF294FD0EDBAE02D0F28A01D059
:100DE000F29AD58EE552E5CFDAFFE7CFD9FF1200B0
:100DF000000EF36E00EE00F0060E01D81200EA605D
:100E000002D0EE6AFCD7F350E9601200EE6AFCD71C
:100E100010EE80F020EE80F0F86A0A9CCBEC05F032
:0C0E20003CEC07F05FEC06F0FBD7120082
:040E2C000F0EC16E76
:100E3000600ED3129B8C949A829A949C948E969076
:080E40008D9092948094120041
:080E48000201A26B120002017D
:100E5000A20503E1A26B8D9003D0010EA26F8D80DD
:020E600012007E
:0E0E6200FF0EE350E84E1200000000D000D05A
:080E700000D0E82EFAD71200B1
:020E7800120066
:060E7A0000000000000072
:100E80000000000000000000000000000000000062
:100E90000000000000000000000000000000000052
:100EA0000000000000000000000000000000000042
:100EB0000000000000000000000000000000000032
:100EC0000000000000000000000000000000000022
:100ED0000000000000000000000000000000000012
:100EE0000000000000000000000000000000000002
:100EF00000000000000000000000000000000000F2
:100F000000000000000000000000000000000000E1
:0A0F100000000000C800000000000F
:060F1A00000000000000D1
:100F200000000000000000000000000000000000C1
:100F300000000000000000000000000000000000B1
:100F400000000000000000000000000000000000A1
:100F50000000000000000000000000000000000091
:100F60000000000000000000000000000000000081
:100F70000000000000000000000000000000000071
:100F80000000000000000000000000000000000061
:100F90000000000000000000000000000000000051
:0E0FA000000000000000000000000000000043
:020FAE00000041
:010FB0000040
:020FB100FFFF40
:020000040030CA
:0100010008F6
:010002001BE2
:0100030012EA
:010005008179
:010006008178
:0100080001F6
:010009008076
:01000A000FE6
:01000B00E014
:01000C000FE4
:01000D0040B2
:00000001FF
