:020000040000FA
:060000001DEF26F01200C6
:020006002C01CB
:080008009EAA02D001EF22F0D4
:020010001200DC
:06001200A6B2FED71200A9
:08001800F2A402D07AEF21F0FE
:0C0020001200D08E9F8AF28EF28C12002B
:04002C000B007853FA
:100030000000400E0000AC00000076530000F60EF9
:10004000000002000000C34A0000FB0E0000010097
:1000500000005D510000000100001902000049503D
:1000600000000009000014010000005000008B0D8A
:10007000000049000000DE4F00001E0E00002200BC
:100080000000194E000000060000C5010000FB4DF5
:100090000000000E00001E000000F54C0000000BE8
:1000A0000000060100006A4C0000000D00008B00FB
:0200B00000004E
:0E00B200D9CFE6FFE1CFD9FF0B0EE126050EF8
:1000C000DB6A060EDB6A070EDB6A080EDB6A090EC6
:1000D000DB6A200EF36E0A0EF3CFDBFF0101036B28
:1000E000046B056B066B0101076B086B096B0A6BF0
:1000F0000601046BDE6ADD6ADECF14F0DDCF15F099
:100100000F0E145C000E155801E39ED0DECF14F0E4
:10011000DDCF15F0050ED89014361536E806FBE154
:10012000170E1426010E1522030E14C0DBFF040E59
:1001300015C0DBFF020EDB6A200EF36E020EDBCF72
:10014000F4FFF350F45C35E209EC00F00400020E19
:10015000DB50166E176A200E086E096ADECF0DF0AE
:10016000DDCF0EF0F7EC23F006501624146E075086
:100170001720156E14C0E6FF15C0E6FFC6EC24F08C
:10018000E552E552E66E020EDB50E76E030EDBCF62
:10019000E9FF040EDBCFEAFFE750E926000EEA2272
:1001A000E552E750EF6E09EC00F00400020EDB2A86
:1001B000C3D7DECFE9FFDDCFEAFF050ED890E936E1
:1001C000EA36E806FBE1170EE926010EEA221E0ECA
:1001D000E926000EEA22EF0402E10101012BDECF45
:1001E000E9FFDDCFEAFF050ED890E936EA36E806EA
:1001F000FBE1170EE926010EEA221E0EE926000E8B
:10020000EA22EF50030802E10101022BDECFE9FFF1
:10021000DDCFEAFF050ED890E936EA36E806FBE1C5
:10022000170EE926010EEA221F0EE926000EEA2229
:10023000EF0405E1010EF36E050EF3CFDBFFDF2ABD
:10024000010E01E3DB2A58D701010251000806E242
:10025000010EF36E080EF3CFDBFF0FD00101015149
:10026000000806E2010EF36E070EF3CFDBFF05D0A8
:10027000010EF36E060EF3CFDBFF050EDB0405E186
:10028000010EF36E090EF3CFDBFF0101310E0D6F8E
:100290000101300E0E6F0101300E0F6F0101330EA0
:1002A000106F0101116B0201060EF96F09EC00F0ED
:1002B00004000201010EF76FCE0EE66E210EE66E0F
:1002C000DD0EE66ECC0EE66EBB0EE66EAA0EE66E98
:1002D000ABEC1BF0146E060EE15E1450F2EC11F064
:1002E0000B0EE15C02E2E16AE552E16EE552E7CF16
:1002F000D9FF1200D9CFE6FFE1CFD9FF050EE126E5
:10030000DF6A010EDB6A020EDB6A030EDB6A0101A3
:100310000251000809E20101030E006F010EF36EA5
:10032000020EF3CFDBFF11D001010151000807E2FB
:100330000101010E006FDE52010EDD6E06D00101DB
:10034000006B010EDF6E030EDB6A040EDB6A040E27
:10035000DB50146E156AD890155004E60F0E145C2D
:10036000000E15581AE2040EDB50200DF3CFE9FF02
:10037000F4CFEAFF170EE926010EEA221F0EE92646
:10038000000EEA22EF0406E1010EF36E030EF3CF36
:10039000DBFF03D0040EDB2ADAD7030EDBCFE6FF48
:1003A000020EDBCFE6FF010EDBCFE6FFDFCFE6FF7D
:1003B00050EC0EF0E552E552E552E552050EE15CD7
:1003C00002E2E16AE552E16EE552E7CFD9FF1200A1
:1003D000D9CFE6FFE1CFD9FF050EE126DF6A010E96
:1003E000DB6A020EDB6A030EDB6A010102510008C0
:1003F00009E20101030E006F010EF36E020EF3CF4E
:10040000DBFF11D001010151000807E20101010EDB
:10041000006FDE52010EDD6E06D00101006B010E91
:10042000DF6E030EDB6A030EDBCFE6FF020EDBCFCF
:10043000E6FF010EDBCFE6FFDFCFE6FF50EC0EF06C
:10044000E552E552E552E5520201010EF76F010E49
:1004500000D0146E050EE15C02E2E16AE552E16E45
:100460001450E552E7CFD9FF1200D9CFE6FFE1CF14
:10047000D9FF050EE126DF6A010EDB6A020EDB6A98
:10048000030EDB6AFD0EDBCFE6FFFE0EDBCFE6FFE1
:10049000120EE66E010EE66E83EC22F0E552E55296
:1004A000E552E552000902E0000E1FD0030EDBCF3B
:1004B000E6FF020EDBCFE6FF010EDBCFE6FFDFCF6C
:1004C000E6FF50EC0EF0E552E552E552E552FB0E28
:1004D000DBCFE6FFFC0EDBCFE6FFF6EC0DF0E552DE
:1004E000E5520201F76B010E00D0146E050EE15CBF
:1004F00002E2E16AE552E16E1450E552E7CFD9FF1E
:100500001200D9CFE6FFE1CFD9FF090EE126010E97
:10051000F36E080EF3CFDBFF52EC23F006C007F1B9
:1005200007C008F108C009F109C00AF1030EE96E1D
:10053000010EEA6EEE50010107190CE1EE500101C7
:10054000081908E1EE500101091904E1EE5001011A
:100550000A1900E101E112D107C103F108C104F158
:1005600009C105F10AC106F1DF6ADF50146E156A90
:10057000D890155004E60F0E145C000E155801E3D8
:10058000A4D0DF50200DF3CFE9FFF4CFEAFF170E20
:10059000E926010EEA221E0EE926000EEA22EF04E9
:1005A00001E091D0DF50200DF3CFE9FFF4CFEAFF57
:1005B000170EE926010EEA221C0EE926000EEA2299
:1005C000EE06000EED5ADF50200DF3CFE9FFF4CF19
:1005D000EAFF170EE926010EEA221C0EE926000E9C
:1005E000EA22E9CF14F0EACF15F0010E14C0DBFFC8
:1005F000020E15C0DBFF010EDBCFE9FF020EDBCFE1
:10060000EAFF030EEFCFDBFF200EDF02F3501C0FDB
:10061000146E040E14C0DBFF050EDB6A060EDB6AE7
:10062000070EDB6A010EDBCFE9FF020EDBCFEAFF2C
:10063000EF50E66E200EDF02F3501C0FE66EE66A06
:1006400015EC24F0E552E552E55209EC00F0040007
:10065000010EE76E010EDBCFE9FF020EDBCFEAFFF2
:10066000E750E926000EEA22030EEFCFDBFF200E53
:10067000DF02F3501C0F010F146E040E14C0DBFFD9
:10068000050EDB6A060EDB6A070EDB6A010EE76EFB
:10069000010EDBCFE9FF020EDBCFEAFFE750E926D0
:1006A000000EEA22EF50E66E200EDF02F3501C0F20
:1006B000010FE66EE66A15EC24F0E552E552E552CC
:1006C00009EC00F00400DF2A50D7010EDF6EDF5086
:1006D000040854E3DF50040A2EE0070A1FE0010A71
:1006E00010E0030A01E047D0DF50EA6A0F0FE96E1D
:1006F000030EEA22EF50000802E2808001D08090D1
:100700003BD0DF50EA6A0F0FE96E030EEA22EF508A
:10071000000802E2808201D080922ED0DF50EA6A87
:100720000F0FE96E030EEA22EF50000802E2808408
:1007300001D0809421D0DF50EA6A0F0FE96E030EDA
:10074000EA22EF50000813E3DF28EA6A0F0FE96E90
:10075000030EEA22EF5000080AE3020EDF24EA6AE1
:100760000F0FE96E030EEA22EF50000802E28086C6
:1007700001D0809601D000D0DF2AA9D7090EE15C14
:1007800002E2E16AE552E16EE552E7CFD9FF1200DD
:10079000D9CFE6FFE1CFD9FF050EE126FD0EDBCF75
:1007A000E9FFFE0EDBCFEAFF200EE926000EEA226B
:1007B000EF28DF6E010EDB6A020EDB6ADF50146E7B
:1007C000156AD890155004E60F0E145C000E1558EB
:1007D00001E3DF6AFD0EDBCFE9FFFE0EDBCFEAFFB0
:1007E000200EE926000EEA22EF68030EDB6A030EF4
:1007F000DB50146E156AD890155004E60F0E145C89
:10080000000E155801E3FCD1DF50146E156A0F0E6F
:100810000D6E0E6A14C008F015C009F0D1EC23F07B
:1008200004C014F005C015F01450DF6EDF50200D29
:10083000F3CFE9FFF4CFEAFF170EE926010EEA2213
:100840001E0EE926000EEA22EF5010E0DF50200DC8
:10085000F3CFE9FFF4CFEAFF170EE926010EEA22F3
:100860001F0EE926000EEA22EF5001E1C5D1FD0E70
:10087000DBCFE9FFFE0EDBCFEAFFE9CF14F0EACFD2
:1008800015F0010EDBCFF3FFDB2AF3500F01142428
:10089000E96E000E1520EA6E530EEF6EFD0EDBCFF3
:1008A000E9FFFE0EDBCFEAFFE9CF14F0EACF15F047
:1008B000010EDBCFF3FFDB2AF3500F011424E96EA6
:1008C000000E1520EA6E540EEF6EFD0EDBCFE9FF31
:1008D000FE0EDBCFEAFFE9CF14F0EACF15F0010EF0
:1008E000DBCFF3FFDB2AF3500F011424E96E000E77
:1008F0001520EA6E4E0EEF6EFD0EDBCFE9FFFE0E09
:10090000DBCFEAFFE9CF14F0EACF15F0010EDBCF21
:10091000F3FFDB2AF3500F011424E96E000E1520BB
:10092000EA6E3A0EEF6EDF50200DF3CFE9FFF4CF01
:10093000EAFF170EE926010EEA22E9CF16F0EACF08
:1009400017F0020EDBCFF3FFDB2AF3500F01162462
:10095000E96E000E1720EA6EEF50E66EFD0EDBCF5B
:10096000E9FFFE0EDBCFEAFFE9CF14F0EACF15F086
:10097000010EDBCFF3FFDB2AF3500F011424E96EE5
:10098000000E1520EA6EE552E750EF6EDF50200DA5
:10099000F3CFE9FFF4CFEAFF170EE926010EEA22B2
:1009A000E9CF16F0EACF17F0020EDBCFF3FFDB2A18
:1009B000F3500F011624E96E000E1720EA6EEF5077
:1009C000E66EFD0EDBCFE9FFFE0EDBCFEAFFE9CFDF
:1009D00014F0EACF15F0010EDBCFF3FFDB2AF35062
:1009E0000F011424E96E000E1520EA6EE552E7505F
:1009F000EF6EFD0EDBCFE9FFFE0EDBCFEAFFE9CFA6
:100A000014F0EACF15F0010EDBCFF3FFDB2AF35031
:100A10000F011424E96E000E1520EA6E3B0EEF6EF6
:100A2000DF50200DF3CFE9FFF4CFEAFF170EE926E0
:100A3000010EEA22E9CF16F0EACF17F0020EDB50E2
:100A40000F011624E96E000E1720EA6EEF50D00F4A
:100A5000100DF3CF14F0F4CF15F04C0E14260E0E3B
:100A6000152214C0E6FF15C0E6FFFD0EDBCFE9FF3F
:100A7000FE0EDBCFEAFFE9CF1AF0EACF1BF0010E42
:100A8000DB5000011A24186E000E1B20196E18C0CE
:100A9000E6FF19C0E6FFA3EC22F0E552E552E5526D
:100AA000E552FD0EDBCFE9FFFE0EDBCFEAFFE9CF1B
:100AB00016F0EACF17F0010EDB5000011624146E79
:100AC000000E1720156E14C0E6FF15C0E6FFC4EC3B
:100AD00022F0E552E552040EF3CFDBFF010EDBCF2F
:100AE000E7FF040EDB50E726010EE7CFDBFFFD0E2C
:100AF000DBCFE9FFFE0EDBCFEAFFE9CF14F0EACF50
:100B000015F0010EDBCFF3FFDB2AF3500F011424A5
:100B1000E96E000E1520EA6E3A0EEF6E020EDB2A29
:100B2000DF50200DF3CFE9FFF4CFEAFF170EE926DF
:100B3000010EEA22E9CF14F0EACF15F0020EDB50E5
:100B40000F011424E96E000E1520EA6EEF5032E01A
:100B5000DF50200DF3CFE9FFF4CFEAFF170EE926AF
:100B6000010EEA22E9CF16F0EACF17F0020EDB50B1
:100B70000F011624E96E000E1720EA6EEF50E66EA4
:100B8000FD0EDBCFE9FFFE0EDBCFEAFFE9CF14F06D
:100B9000EACF15F0010EDB500F011424E96E000EB0
:100BA0001520EA6EE552E750EF6E010EDB2A020EC9
:100BB000DB2AB6D7FD0EDBCFE9FFFE0EDBCFEAFF67
:100BC000E9CF14F0EACF15F0010EDB500F01142429
:100BD000E96E000E1520EA6EEF6ADFCFF8F2FD0E27
:100BE000DBCFE9FFFE0EDBCFEAFF200EE926000E89
:100BF000EA22F8C2EFFF04D0030EDB2ADF2AF7D582
:100C0000050EE15C02E2E16AE552E16EE552E7CFF2
:100C1000D9FF1200D9CFE6FFE1CFD9FF050EE126BB
:100C2000FD0EDBCFE9FFFE0EDBCFEAFF200EE9264B
:100C3000000EEA22EF28DF6E010EDB6A020EDB6A8D
:100C4000DF50146E156AD890155004E60F0E145C30
:100C5000000E155801E3DF6AFD0EDBCFE9FFFE0E43
:100C6000DBCFEAFF200EE926000EEA22EF68030E32
:100C7000DB6A030EDB50146E156AD890155004E63B
:100C80000F0E145C000E155801E3FCD1DF50146EFA
:100C9000156A0F0E0D6E0E6A14C008F015C009F02B
:100CA000D1EC23F004C014F005C015F01450DF6E31
:100CB000DF50200DF3CFE9FFF4CFEAFF170EE9264E
:100CC000010EEA221E0EE926000EEA22EF5010E085
:100CD000DF50200DF3CFE9FFF4CFEAFF170EE9262E
:100CE000010EEA221F0EE926000EEA22EF0401E1BE
:100CF000C5D1FD0EDBCFE9FFFE0EDBCFEAFFE9CF6A
:100D000014F0EACF15F0010EDBCFF3FFDB2AF3502E
:100D10000F011424E96E000E1520EA6E530EEF6EDB
:100D2000FD0EDBCFE9FFFE0EDBCFEAFFE9CF14F0CB
:100D3000EACF15F0010EDBCFF3FFDB2AF3500F01F2
:100D40001424E96E000E1520EA6E540EEF6EFD0EAF
:100D5000DBCFE9FFFE0EDBCFEAFFE9CF14F0EACFED
:100D600015F0010EDBCFF3FFDB2AF3500F01142443
:100D7000E96E000E1520EA6E4E0EEF6EFD0EDBCF13
:100D8000E9FFFE0EDBCFEAFFE9CF14F0EACF15F062
:100D9000010EDBCFF3FFDB2AF3500F011424E96EC1
:100DA000000E1520EA6E3A0EEF6EDF50200DF3CFE5
:100DB000E9FFF4CFEAFF170EE926010EEA22E9CF98
:100DC00016F0EACF17F0020EDBCFF3FFDB2AF35069
:100DD0000F011624E96E000E1720EA6EEF50E66E42
:100DE000FD0EDBCFE9FFFE0EDBCFEAFFE9CF14F00B
:100DF000EACF15F0010EDBCFF3FFDB2AF3500F0132
:100E00001424E96E000E1520EA6EE552E750EF6EED
:100E1000DF50200DF3CFE9FFF4CFEAFF170EE926EC
:100E2000010EEA22E9CF16F0EACF17F0020EDBCF6F
:100E3000F3FFDB2AF3500F011624E96E000E172092
:100E4000EA6EEF50E66EFD0EDBCFE9FFFE0EDBCF64
:100E5000EAFFE9CF14F0EACF15F0010EDBCFF3FF84
:100E6000DB2AF3500F011424E96E000E1520EA6E00
:100E7000E552E750EF6EFD0EDBCFE9FFFE0EDBCF54
:100E8000EAFFE9CF14F0EACF15F0010EDBCFF3FF54
:100E9000DB2AF3500F011424E96E000E1520EA6ED0
:100EA0003B0EEF6EDF50200DF3CFE9FFF4CFEAFFEA
:100EB000170EE926010EEA22E9CF16F0EACF17F065
:100EC000020EDB500F011624E96E000E1720EA6EA9
:100ED000EF50D00F100DF3CF14F0F4CF15F04C0EEF
:100EE00014260E0E152214C0E6FF15C0E6FFFD0EF7
:100EF000DBCFE9FFFE0EDBCFEAFFE9CF1AF0EACF46
:100F00001BF0010EDB5000011A24186E000E1B208E
:100F1000196E18C0E6FF19C0E6FFA3EC22F0E552F7
:100F2000E552E552E552FD0EDBCFE9FFFE0EDBCFC9
:100F3000EAFFE9CF16F0EACF17F0010EDB5000010F
:100F40001624146E000E1720156E14C0E6FF15C08F
:100F5000E6FFC4EC22F0E552E552040EF3CFDBFFCE
:100F6000010EDBCFE7FF040EDB50E726010EE7CFD3
:100F7000DBFFFD0EDBCFE9FFFE0EDBCFEAFFE9CFA3
:100F800014F0EACF15F0010EDBCFF3FFDB2AF350AC
:100F90000F011424E96E000E1520EA6E3A0EEF6E72
:100FA000020EDB2ADF50200DF3CFE9FFF4CFEAFF7A
:100FB000170EE926010EEA22E9CF14F0EACF15F068
:100FC000020EDB500F011424E96E000E1520EA6EAC
:100FD000EF5032E0DF50200DF3CFE9FFF4CFEAFF0E
:100FE000170EE926010EEA22E9CF16F0EACF17F034
:100FF000020EDB500F011624E96E000E1720EA6E78
:10100000EF50E66EFD0EDBCFE9FFFE0EDBCFEAFF11
:10101000E9CF14F0EACF15F0010EDB500F011424D4
:10102000E96E000E1520EA6EE552E750EF6E010EF4
:10103000DB2A020EDB2AB6D7FD0EDBCFE9FFFE0E60
:10104000DBCFEAFFE9CF14F0EACF15F0010EDB5059
:101050000F011424E96E000E1520EA6EEF6ADFCF4F
:10106000F8F2FD0EDBCFE9FFFE0EDBCFEAFF200E2C
:10107000E926000EEA22F8C2EFFF04D0030EDB2AB5
:10108000DF2AF7D5050EE15C02E2E16AE552E16E86
:10109000E552E7CFD9FF1200D9CFE6FFE1CFD9FF64
:1010A000080EE126FE0EDB50200DF3CFE9FFF4CF52
:1010B000EAFF170EE926010EEA221E0EE926000EAF
:1010C000EA22EF5033E0FE0EDB50200DF3CFE9FFB4
:1010D000F4CFEAFF170EE926010EEA22E9CF14F059
:1010E000EACF15F014C0E6FF15C0E6FF050EDBCF12
:1010F000E6FF060EDBCFE6FF83EC22F0E552E55279
:10110000E552E552000912E1FE0EDB50200DF3CF4F
:10111000E9FFF4CFEAFF170EE926010EEA221F0EBF
:10112000E926000EEA22EF0401E16AD1FE0EDB504F
:10113000200DF3CFE9FFF4CFEAFF170EE926010EE9
:10114000EA22E9CF14F0EACF15F0050E14C0DBFF58
:10115000060E15C0DBFFFE0EDB50200DF3CFE9FFBE
:10116000F4CFEAFF170EE926010EEA22020EE92665
:10117000000EEA22070EEFCFDBFF070EDB50D00F89
:10118000EA6A0F0FE96E030EEA22EF06C0EC11F0D7
:1011900001010051030A01E184D0020A01E00FD1EC
:1011A000050EDBCFE6FF060EDBCFE6FF70EC0EF0A0
:1011B000E552E552E76E020EE7CFDBFF020EDB5091
:1011C000FF086EE0050EDBCFE6FF060EDBCFE6FF85
:1011D000F6EC0DF0E552E5521C0EE66EE66AE66AA4
:1011E000020EDB50200DF3CFE9FFF4CFEAFF170E1C
:1011F000E926010EEA22E9CF14F0EACF15F014C077
:10120000E6FF15C0E6FF69EC22F0166E050EE15E02
:1012100016500400020EDB50200DF3CF14F0F4CF73
:1012200015F0170E1426010E1522030E14C0DBFF55
:10123000040E15C0DBFF010EDB6A200EF36E010EFB
:10124000DBCFF4FFF350F45C25E2010EDB50E76ED8
:10125000030EDBCFE9FF040EDBCFEAFFE750E92600
:10126000000EEA22EF50E66E010EDBCFE6FF020E23
:10127000DB50200DF350E552E724E66EE66A15ECEC
:1012800024F0E552E552E55209EC00F00400010EAD
:10129000DB2AD3D70101015102E10101006BB0D07B
:1012A0008FD0050EDBCFE6FF060EDBCFE6FF70EC3E
:1012B0000EF0E552E552E76E020EE7CFDBFF020EBD
:1012C000DB50FF0801E17AD0050EDBCFE6FF060E0A
:1012D000DBCFE6FFF6EC0DF0E552E5521C0EE66EB4
:1012E000E66AE66A020EDB50200DF3CFE9FFF4CF89
:1012F000EAFF170EE926010EEA22E9CF14F0EACF41
:1013000015F014C0E6FF15C0E6FF69EC22F0166E7A
:10131000050EE15E16500400020EDB50200DF3CFE7
:1013200014F0F4CF15F0170E1426010E1522030E3B
:1013300014C0DBFF040E15C0DBFF010EDB6A200EBC
:10134000F36E010EDBCFF4FFF350F45C25E2010EE7
:10135000DB50E76E030EDBCFE9FF040EDBCFEAFFC5
:10136000E750E926000EEA22EF50E66E010EDBCFD1
:10137000E6FF020EDB50200DF350E552E724E66E47
:10138000E66A15EC24F0E552E552E55209EC00F06E
:101390000400010EDB2AD3D7010102510AE1010149
:1013A000015103E10101006B03D00101010E006F47
:1013B00004D00101015101E100D022D001D000D0C0
:1013C000DF6ADF50146E156AD890155004E60F0ED0
:1013D000145C000E155814E2DF50200DF3CFE9FF26
:1013E000F4CFEAFF170EE926010EEA221F0EE926C6
:1013F000000EEA22EF0402E1808802D0DF2AE1D762
:10140000080EE15C02E2E16AE552E16EE552E7CFE7
:10141000D9FF1200D9CFE6FFE1CFD9FF060EE126B2
:10142000DF6ADF50146E156AD890155004E60F0E6F
:10143000145C000E155833E2DF50200DF3CFE9FFA6
:10144000F4CFEAFF170EE926010EEA221E0EE92666
:10145000000EEA22EF5021E0DF50200DF3CFE9FF2C
:10146000F4CFEAFF170EE926010EEA22E9CF14F0C5
:10147000EACF15F014C0E6FF15C0E6FFFD0EDBCF86
:10148000E6FFFE0EDBCFE6FF83EC22F0E552E552ED
:10149000E552E552000901E1ECD0DF2AC2D7DF6A4C
:1014A000DF50146E156AD890155004E60F0E145CC8
:1014B000000E155801E3D7D0DF50200DF3CFE9FF20
:1014C000F4CFEAFF170EE926010EEA221E0EE926E6
:1014D000000EEA22EF5001E0C4D0DF50200DF3CF20
:1014E000E9FFF4CFEAFF170EE926010EEA221E0EED
:1014F000E926000EEA22010EEF6E060EF66E000ED1
:10150000F76E0900F5CF14F00800F5CF15F0DF50A5
:10151000200DF3CFE9FFF4CFEAFF170EE926010E05
:10152000EA221C0EE926000EEA2214C0EEFF15C0C6
:10153000EDFFDF50200DF3CFE9FFF4CFEAFF170EE8
:10154000E926010EEA221F0EE926000EEA22010E0C
:10155000EF6EFD0EDBCFE6FFFE0EDBCFE6FFDF50CA
:10156000200DF3CFE9FFF4CFEAFF170EE926010EB5
:10157000EA22E9CF14F0EACF15F014C0E6FF15C057
:10158000E6FFA3EC22F0E552E552E552E552DF50CA
:10159000200DF3CF14F0F4CF15F0170E1426010E22
:1015A0001522030E14C0DBFF040E15C0DBFF010E75
:1015B000DB6A200EF36E010EDBCFF4FFF350F45C18
:1015C00024E2010EDB50E76E030EDBCFE9FF040ED1
:1015D000DBCFEAFFE750E926000EEA22EF50E66E85
:1015E000010EDBCFE6FF200EDF02F350E552E724C9
:1015F000E66EE66A15EC24F0E552E552E55209EC98
:1016000000F00400010EDB2AD4D70101012BDF50CA
:10161000200DF3CFE9FFF4CFEAFF170EE926010E04
:10162000EA22020EE926000EEA22050EEFCFDBFFCA
:10163000050EDB50D00FEA6A0F0FE96E030EEA22A7
:10164000EF2AC0EC11F00101025101E100D0FD0EC2
:10165000DBCFE6FFFE0EDBCFE6FFC8DAE552E55250
:1016600002D0DF2A1DD70101025103E10101010E61
:10167000006F060EE15C02E2E16AE552E16EE552BE
:10168000E7CFD9FF1200D9CFE6FFE1CFD9FF050E92
:10169000E126020EE76EFD0EDBCFE9FFFE0EDBCF8B
:1016A000EAFFE750E926000EEA22EF5030080AE18F
:1016B000FD0EDBCFE6FFFE0EDBCFE6FF97DAE5524D
:1016C000E552A2D1DF6ADF50146E156AD89015502A
:1016D00004E60F0E145C000E155843E2DF50200D97
:1016E000F3CFE9FFF4CFEAFF170EE926010EEA2255
:1016F0001E0EE926000EEA22EF5031E0DF50200DE9
:10170000F3CFE9FFF4CFEAFF170EE926010EEA2234
:10171000E9CF14F0EACF15F014C0E6FF15C0E6FFDC
:10172000FD0EDBCFE6FFFE0EDBCFE6FF83EC22F003
:10173000E552E552E552E552000911E1DF50200D76
:10174000F3CFE9FFF4CFEAFF170EE926010EEA22F4
:101750001F0EE926000EEA22EF0401E155D1DF2A2F
:10176000B2D701010051030A01E192D0020A01E05F
:101770004AD1DF6ADF50146E156AD890155004E61E
:101780000F0E145C000E155801E381D0FD0EDBCF67
:10179000E6FFFE0EDBCFE6FFA3DAE552E552E76E89
:1017A000020EE7CFDBFF020EDB50FF086EE01C0EDF
:1017B000E66EE66AE66A020EDB50200DF3CFE9FF23
:1017C000F4CFEAFF170EE926010EEA22E9CF14F062
:1017D000EACF15F014C0E6FF15C0E6FF69EC22F071
:1017E000166E050EE15E16500400020EDB50200D51
:1017F000F3CF14F0F4CF15F0170E1426010E1522B6
:10180000030E14C0DBFF040E15C0DBFF010EDB6A04
:10181000200EF36E010EDBCFF4FFF350F45C25E2F3
:10182000010EDB50E76E030EDBCFE9FF040EDBCFCA
:10183000EAFFE750E926000EEA22EF50E66E010EBD
:10184000DBCFE6FF020EDB50200DF350E552E7241C
:10185000E66EE66A15EC24F0E552E552E55209EC35
:1018600000F00400010EDB2AD3D7010101510CE185
:101870000101006BE66AE66AE66A010EE66E10DABE
:10188000E552E552E552E552BFD0DF2A73D7BCD00E
:10189000DF6ADF50146E156AD890155004E60F0EFB
:1018A000145C000E155801E3ADD0FD0EDBCFE6FF52
:1018B000FE0EDBCFE6FF14DAE552E552E76E020ECC
:1018C000E7CFDBFF020EDB50FF0801E199D01C0ED1
:1018D000E66EE66AE66A020EDB50200DF3CFE9FF02
:1018E000F4CFEAFF170EE926010EEA22E9CF14F041
:1018F000EACF15F014C0E6FF15C0E6FF69EC22F050
:10190000166E050EE15E16500400020EDB50200D2F
:10191000F3CF14F0F4CF15F0170E1426010E152294
:10192000030E14C0DBFF040E15C0DBFF010EDB6AE3
:10193000200EF36E010EDBCFF4FFF350F45C25E2D2
:10194000010EDB50E76E030EDBCFE9FF040EDBCFA9
:10195000EAFFE750E926000EEA22EF50E66E010E9C
:10196000DBCFE6FF020EDB50200DF350E552E724FB
:10197000E66EE66A15EC24F0E552E552E55209EC14
:1019800000F00400010EDB2AD3D7010102511EE151
:10199000010101510DE10101006BE66AE66AE66AA8
:1019A000010EE66E7DD9E552E552E552E5520DD0C5
:1019B0000101010E006FE66AE66A010EE66EE66A54
:1019C0006FD9E552E552E552E55219D001010151B6
:1019D0000BE1E66A010EE66EE66AE66A61D9E55257
:1019E000E552E552E5520BD0E66A010EE66E010EB5
:1019F000E66EE66A55D9E552E552E552E55204D065
:101A0000DF2A47D701D000D0050EE15C02E2E16A8F
:101A1000E552E16EE552E7CFD9FF1200D9CFE6FFDC
:101A2000E1CFD9FF020EE126060104510601035D54
:101A30000BE1FD0EDBCFE9FFFE0EDBCFEAFFEE6A26
:101A4000ED6A010EDB6A3BD0060103511C0DF3CF9A
:101A500014F0F4CF15F0050E1426060E1522FD0E17
:101A6000DBCFE9FFFE0EDBCFEAFF14C0EEFF15C0AF
:101A7000EDFF060103511C0DF3CF14F0F4CF15F068
:101A8000050E1426060E152214C0E6FF15C0E6FF4B
:101A9000C4EC22F0E552E552010EF3CFDBFF060164
:101AA000032B06010351146E156AD890155004E6F5
:101AB000100E145C000E155802E30601036B010EB4
:101AC000DB5000D0146E020EE15C02E2E16AE552E6
:101AD000E16E1450E552E7CFD9FF1200D9CFE6FFEF
:101AE000E1CFD9FF0601000502E1000E0BD006018F
:101AF000010E006FFE0EDBCF02F6FD0EDBCF01F60E
:101B0000010E00D0E552E7CFD9FF1200D9CFE6FF92
:101B1000E1CFD9FFE652FE0EDB50200DF3CFE9FFF7
:101B2000F4CFEAFF170EE926010EEA221F0EE9267E
:101B3000000EEA22EF6AFE0EDB50200DF3CFE9FF24
:101B4000F4CFEAFF170EE926010EEA22E9CF14F0DE
:101B5000EACF15F014C0E6FF15C0E6FF47D8E552FE
:101B6000E552FE0EDB50200DF3CFE9FFF4CFEAFF84
:101B7000170EE926010EEA221F0EE926000EEA22C0
:101B8000EF50E66EFE0EDB50200DF3501F0FE66E99
:101B9000E66A15EC24F0E552E552E55209EC00F056
:101BA0000400DF6ADF50146E156AD890155004E601
:101BB0000F0E145C000E155813E2DF50200DF3CF0A
:101BC000E9FFF4CFEAFF170EE926010EEA221F0E05
:101BD000E926000EEA22EF0401E103D0DF2AE2D772
:101BE0008098E552E552E7CFD9FF1200D9CFE6FF42
:101BF000E1CFD9FFE652DF6AFD0EDBCFE9FFFE0E33
:101C0000DBCFEAFFEF5024E0FD0EDBCFE9FFFE0E55
:101C1000DBCFEAFFEF50E66E060104511C0DF3CF57
:101C200014F0F4CF15F0050E1426060E1522DF5021
:101C30000F011424E96E000E1520EA6EE552E750FC
:101C4000EF6EDF2AFD0EDB2AFE0E01E3DB2AD4D77E
:101C5000060104511C0DF3CF14F0F4CF15F0050E5E
:101C60001426060E1522DF500F011424E96E000E13
:101C70001520EA6EEF6A0601042B06010451146E6A
:101C8000156AD890155004E6100E145C000E155815
:101C900002E30601046BE552E552E7CFD9FF1200DB
:101CA000D9CFE6FFE1CFD9FFFE0EDB50E8B0808050
:101CB000E8A08090FD0EDB50E8B08082E8A0809222
:101CC000FC0EDB50E8B08084E8A08094FB0EDB5073
:101CD000E8B08088E8A08098E552E7CFD9FF1200ED
:101CE000D9CFE6FFE1CFD9FF040EE126DF6ADF504E
:101CF000146E156AD890155004E60F0E145C000E91
:101D0000155801E399D0DF50200DF3CFE9FFF4CF50
:101D1000EAFF170EE926010EEA221E0EE926000E42
:101D2000EA22EF5001E186D0DF50200DF3CFE9FF2A
:101D3000F4CFEAFF170EE926010EEA221F0EE9266C
:101D4000000EEA22EF0476E0DF50200DF3CFE9FF2A
:101D5000F4CFEAFF170EE926010EEA22E9CF14F0CC
:101D6000EACF15F014C0E6FF15C0E6FFFD0EDBCF8D
:101D7000E6FFFE0EDBCFE6FF83EC22F0E552E552F4
:101D8000E552E552000956E1DF50200DF3CFE9FF9F
:101D9000F4CFEAFF170EE926010EEA221E0EE9260D
:101DA000000EEA22EF0403E10101010713D0DF5026
:101DB000200DF3CFE9FFF4CFEAFF170EE926010E5D
:101DC000EA221E0EE926000EEA22EF50030802E185
:101DD00001010207DF50200DF3CFE9FFF4CFEAFF46
:101DE000170EE926010EEA221E0EE926000EEA224F
:101DF000EF6ADF50200DF3CFE9FFF4CFEAFF170EB3
:101E0000E926010EEA221C0EE926000EEA22EE6AFD
:101E1000ED6ADF50200DF3CFE9FFF4CFEAFF170E94
:101E2000E926010EEA221F0EE926000EEA22EF6AD9
:101E3000DF5004D0DF2A5BD7FF0E00D0146E040EF3
:101E4000E15C02E2E16AE552E16E1450E552E7CF4F
:101E5000D9FF1200D9CFE6FFE1CFD9FF020EE1266C
:101E6000010EDB6ADF6ADF50146E156AD8901550D8
:101E700004E60F0E145C000E15585BE2DF50200DD7
:101E8000F3CFE9FFF4CFEAFF170EE926010EEA22AD
:101E90001E0EE926000EEA22EF0449E1DF50200D74
:101EA000F3CFE9FFF4CFEAFF170EE926010EEA228D
:101EB0001C0EE926000EEA22EE50ED1038E1010179
:101EC000022B01010107DF50200DF3CFE9FFF4CF12
:101ED000EAFF170EE926010EEA221E0EE926000E81
:101EE000EA22030EEF6EDF50200DF3CFE9FFF4CFAF
:101EF000EAFF170EE926010EEA221E0EE926000E61
:101F0000EA22EF50E66E200EDF02F3501E0FE66E5F
:101F1000E66A15EC24F0E552E552E55209EC00F0D2
:101F200004000101030E006FDE52010EDD6EDF2A98
:101F30009AD7010EDB5000D0146E020EE15C02E273
:101F4000E16AE552E16E1450E552E7CFD9FF120085
:101F5000D9CFE6FFE1CFD9FFE652DF6ADF50146E3A
:101F6000156AD890155004E60F0E145C000E155833
:101F700041E2DF50200DF3CFE9FFF4CFEAFF170E67
:101F8000E926010EEA221E0EE926000EEA22EF5093
:101F90002FE0DF50200DF3CFE9FFF4CFEAFF170E5B
:101FA000E926010EEA22E9CF14F0EACF15F014C0B9
:101FB000E6FF15C0E6FFFD0EDBCFE6FFFE0EDBCF32
:101FC000E6FF83EC22F0E552E552E552E5520009C6
:101FD0000FE1DF50200DF3CFE9FFF4CFEAFF170E3A
:101FE000E926010EEA221F0EE926000EEA22EF6A18
:101FF000DF2AB4D7E552E552E7CFD9FF1200D9CF97
:10200000E6FFE1CFD9FFFD0EDBCFE6FFFE0EDBCF13
:10201000E6FF0D0EE66E010EE66E83EC22F0E55251
:10202000E552E552E552000902E0000E02D0010E31
:1020300000D0E552E7CFD9FF1200D9CFE6FFE1CFBC
:10204000D9FF020EE1260101006B0101016B0101C4
:10205000026B0101036B046B056B066B0101076BDF
:10206000086B096B0A6B0201F86B0601046B060131
:10207000036BDE6ADD6ADECF14F0DDCF15F00F0EE4
:10208000145C000E155860E2DECFE9FFDDCFEAFFF9
:10209000050ED890E936EA36E806FBE1170EE92688
:1020A000010EEA221E0EE926000EEA22EF6ADECFBA
:1020B000E9FFDDCFEAFF050ED890E936EA36E806FB
:1020C000FBE1170EE926010EEA221C0EE926000E9E
:1020D000EA22EE6AED6ADECFE9FFDDCFEAFF050E08
:1020E000D890E936EA36E806FBE1170EE926010E3C
:1020F000EA221F0EE926000EEA22EF6A1C0EE66EA7
:10210000E66AE66ADECFE9FFDDCFEAFF050ED8908A
:10211000E936EA36E806FBE1170EE926010EEA2267
:10212000E9CF14F0EACF15F014C0E6FF15C0E6FFC2
:1021300069EC22F0166E050EE15E16500400DF2AEF
:10214000010E01E3DB2A97D7DE6ADD6ADECF14F0E9
:10215000DDCF15F0E00E145C010E155812E2E66AB0
:10216000DECFE6FFDDCFE6FF15EC24F0E552E552C9
:10217000E55209EC00F00400DF2A010E01E3DB2A3E
:10218000E5D7010EDE6EDD6AD9CFE9FFDACFEAFFCF
:10219000090ED880EE54000EED540EE3DECFE9FFB9
:1021A000DDCFEAFF0F0EE926030EEA22EF6ADF2AEF
:1021B000010E01E3DB2AE8D7E3D8020EE15C02E27C
:1021C000E16AE552E16EE552E7CFD9FF1200D9CFBF
:1021D000E6FFE1CFD9FF030EE126FD0EDBCFE9FFDD
:1021E000FE0EDBCFEAFF010EEFCFDBFF020EDB6A54
:1021F000010EDB50A30A69E0030A5CE0010A4EE02D
:10220000030A1AE0220A01E0A1D0F90EDBCFE6FFB3
:10221000FA0EDBCFE6FF0EEC0DF0E552E552E76E6D
:10222000020EE7CFDBFFFB0EDBCFE9FFFC0EDBCFBF
:10223000EAFF800EEF6E95D0010EE76EFD0EDBCF4C
:1022400014F0FE0EDBCF15F0E7501426000E152219
:1022500014C0E6FF15C0E6FF7BDEE552E552010E35
:10226000E76EFD0EDBCF14F0FE0EDBCF15F0E7506E
:102270001426000E152214C0E6FF15C0E6FF43EC3D
:102280000BF0E552E552FB0EDBCFE9FFFC0EDBCF96
:10229000EAFFA20EEF6E020EDB6A63D0CEDEFB0E0B
:1022A000DBCFE9FFFC0EDBCFEAFFA10EEF6E020EE3
:1022B000DB6A57D0020EDB6AFB0EDBCFE9FFFC0EB8
:1022C000DBCFEAFFA00EEF6E4CD0DF50E76EFD0EC5
:1022D000DBCFE9FFFE0EDBCFEAFFE750E926000E79
:1022E000EA22EF5019E0DF28E76EFD0EDBCFE9FFB1
:1022F000FE0EDBCFEAFFE750E926000EEA22EF50A0
:10230000E66EDF50EA6AFA0FE96E020EEA22E55243
:10231000E750EF6EDF2AD9D7DF50EA6AFA0FE96E8D
:10232000020EEA22EF6AFA0EE66E020EE66EEFEC9D
:1023300017F0E552E552020EDB6AFB0EDBCFE9FF38
:10234000FC0EDBCFEAFFA30EEF6E0BD0020EDB6AB2
:10235000FB0EDBCFE9FFFC0EDBCFEAFF920EEF6E48
:1023600000D0020EDB5000D0146E030EE15C02E2DE
:10237000E16AE552E16E1450E552E7CFD9FF120051
:10238000D9CFE6FFE1CFD9FFE652DF6ADF50146E06
:10239000156AD890155004E6090E145C000E155805
:1023A0001CE2DF28EA6A0F0FE96E030EEA22EF5003
:1023B000E66EDF50156AF00F146E030E152214C07E
:1023C000E6FF15C0E6FF15EC24F0E552E552E552B4
:1023D00009EC00F00400DF2AD9D7E552E552E7CF37
:1023E000D9FF1200D9CFE6FFE1CFD9FFE652DF6A6D
:1023F000DF50146E156A153404E214500908000EFB
:1024000015541DE3DF50156AF00F146E030E1522EC
:1024100014C0E6FF15C0E6FFC6EC24F0E552E55215
:10242000E66EDF28EA6A0F0FE96E030EEA22E55234
:10243000E750EF6E09EC00F00400DF2AD9D7E5522F
:08244000E552E7CFD9FF1200BD
:08244800D9CFE6FFE1CFD9FF77
:10245000040EE1260D01300E486F080EE66E5FECAB
:102460001FF0E552E66A22EC17F0E552CEEC16F0CA
:10247000E3EC16F0DF6ADF50146E156A153404E2DF
:1024800014500908000E155471E3100EDF02F350CA
:10249000156A000F146E030E152214C0E6FF15C056
:1024A000E6FFC6EC24F0E552E552E76E020EE7CFF8
:1024B000DBFF09EC00F0020EDB5056E0010EDB6A98
:1024C000020EDB50E76E030EE7CFDBFF030EDB509F
:1024D00036E0DF28100DF3CF14F0F4CF15F04C0EDA
:1024E00014260E0E1522010EDB500F011424E96E86
:1024F000000E1520EA6E030EDBCFEFFF010EDB2A84
:10250000100EDF02F350176A000F166E030E17222B
:10251000010EDB5000011624146E000E1720156EFC
:1025200014C0E6FF15C0E6FFC6EC24F0E552E55204
:10253000E76E030EE7CFDBFF09EC00F0C7D7DF281B
:10254000100DF3CF14F0F4CF15F04C0E14260E0E30
:102550001522010EDB500F011424E96E000E152028
:10256000EA6EEF6A0D01482BDF2A85D7040EE15C85
:1025700002E2E16AE552E16EE552E7CFD9FF1200CF
:10258000D9CFE6FFE1CFD9FF060EE126DF68D950AB
:10259000020FE66E000EDA20E66ED950030FE66EEB
:1025A000000EDA20E66E86EC20F0E552E552E552A8
:1025B000E552000901E134D2020EDBCFE6FF030E43
:1025C000DBCFE6FF37DAE552E552DF6EFF0EDF5C68
:1025D00001E126D20D010051060A01E108D2030AE9
:1025E00001E1BBD1010A01E1A1D10C0A01E16AD1EB
:1025F0000B0A01E133D1010A01E1DFD0030A01E155
:1026000088D0010A01E00BD2080EDF5C12E10D0157
:10261000235100080DE2DFCFE6FF71EC1FF0E55219
:102620000D0123070D014751000802E20D01470784
:102630006FD00A0EDF5C11E10D01235100080CE29E
:1026400023DB010EE66E22EC17F0E552A7DB0D014D
:10265000236B0D01010E006F5BD0130EDF5C09E1EF
:10266000030EE66EEFDBE55299DB0D01050E006F00
:102670004FD00C0EDF5C19E16A0EE66E0D0EE66EB1
:102680000AEC06F0E552E552FF0E0D018A5D0CE002
:102690006A0EE66E0D0EE66EA7DBE552E5527EDBB6
:1026A00092DB0D01080E006F33D00B0EDF5C19E1D9
:1026B000490EE66E0D0EE66EC8EC03F0E552E552EB
:1026C000FF0E0D01695D0CE0490EE66E0D0EE66E23
:1026D0008BDBE552E55262DB76DB0D01030E006F0A
:1026E00017D00D012351EA6A020FE96E0D0EEA229E
:1026F000DFCFEFFF0D012351EA6A020FE96E0D0EE5
:10270000EA22EF50E66E71EC1FF0E5520D01232B2B
:1027100087D1080EDF5C1AE10D01235100080EE29B
:10272000010EE66E8FDBE5520D01020E476F36DBC0
:102730000D01236B0D01010E006F07D0E66A82DBED
:10274000E55241DB2BDB0D01006B36D00A0EDF5C5E
:1027500009E1020EE66E76DBE55220DB0D01020E8A
:10276000006F2AD0010EDB6A010EDB50146E156A71
:10277000D890155004E6090E145C000E15581CE2A2
:10278000010EDB50300F146EDF50145C12E1010EAD
:10279000DBCFE6FFE1DBE5520D014751EA6A260F88
:1027A000E96E0D0EEA22DFCFEFFF0D01472B0D0181
:1027B000232B010EDB2AD8D733D1080EDF5C1EE1B4
:1027C0000D01235100080EE2DFCFE6FF71EC1FF090
:1027D000E5520D0123070D014751000802E20D01EA
:1027E00047070BD0010EE66E2DDBE5520D01020E00
:1027F000476FD4DA0D01010E006F2FD00A0EDF5C97
:1028000015E10D012351000810E293DA260EE66E61
:102810000D0EE66E0AEC0AF0E552E552E66A12DBAE
:10282000E552BCDAD0DA0D01006B17D00D0123514F
:10283000EA6A020FE96E0D0EEA22DFCFEFFF0D010B
:102840002351EA6A020FE96E0D0EEA22EF50E66E9E
:1028500071EC1FF0E5520D01232BE2D0080EDF5C76
:1028600008E1E66AEFDAE55299DAADDA0D01006BBC
:1028700028D00B0EDF5C14E1490EE66E0D0EE66EFD
:10288000C8EC03F0E552E552FF0E0D01695D07E06B
:10289000490EE66E0D0EE66EA7DAE552E55211D04E
:1028A0000A0EDF5C0EE169CDE6FF86EC0DF0E55225
:1028B0000D016969E66AC6DAE55270DA84DA0D015B
:1028C000006BAED0080EDF5C08E1E66ABBDAE552C9
:1028D00065DA79DA0D01006B28D00C0EDF5C14E1AB
:1028E0006A0EE66E0D0EE66E0AEC06F0E552E55253
:1028F000FF0E0D018A5D07E06A0EE66E0D0EE66EB4
:1029000073DAE552E55211D00A0EDF5C0EE18ACD92
:10291000E6FF4CEC08F0E5520D018A69E66A92DAAE
:10292000E5523CDA50DA0D01006B7AD0080EDF5C1C
:1029300007E1E66A87DAE55231DA0D01006B0CD067
:102940000A0EDF5C09E11DEC10F028DA3CDAE66AD9
:1029500079DAE5520D01006B63D0080EDF5C08E107
:10296000E66A70DAE5521ADA2EDA0D01006B3ED013
:102970000A0EDF5C2BE1050EDB6A0D012351EA6ACA
:10298000020FE96E0D0EEA22EF6A020EE66E0D0EE0
:10299000E66EFFEC0FF0E552E552E76E050EE7CF6D
:1029A000DBFF050EDB040AE1040EE66E4BDAE552AE
:1029B000F5D909DA0D01060E006F07D0E66A42DA92
:1029C000E552ECD900DA0D01006B10D00D01235156
:1029D000EA6A020FE96E0D0EEA22DFCFEFFF2A0E40
:1029E000E66E71EC1FF0E5520D01232B19D0080E95
:1029F000DF5C08E1E66A26DAE552D0D9E4D90D01B8
:102A0000006B0CD0300EDF5C09E1050EE66E1ADAC1
:102A1000E552C4D9D8D90D01040E006F01D000D001
:102A2000060EE15C02E2E16AE552E16EE552E7CFB3
:102A3000D9FF1200D9CFE6FFE1CFD9FFE652DF6818
:102A40000D010051060A01E1F6D0020A01E1DDD0D4
:102A5000010A01E1CBD00D0A01E1AFD00B0A01E17F
:102A600093D0010A66E0030A37E0010A01E0FCD0D6
:102A7000FE0EDB50050DF3CFF6FFF4CFF7FFE80EA7
:102A8000F626490EF7220800F550DF6E020E0D0102
:102A9000235D08E3080EDF5C04E00A0EDF5C01E062
:102AA000DF6819D00D012351000811E20D012351F7
:102AB0000EE02A0EDF5C09E00B0EDF5C06E00C0E78
:102AC000DF5C03E0130EDF5C01E1DF6804D02A0E57
:102AD000DF5C01E1DF68C9D0FE0EDB50050DF3CFEE
:102AE000F6FFF4CFF7FFE80EF626490EF7220800AE
:102AF000F550DF6E010E0D01235D08E3080EDF5C6B
:102B000004E00A0EDF5C01E0DF6812D02A0EDF5C11
:102B10000EE00D014851D880DF5409E30B0EDF5C55
:102B200006E00C0EDF5C03E0130EDF5C01E1DF6802
:102B30009CD0FE0EDB50050DF3CFF6FFF4CFF7FF70
:102B4000E80EF626490EF7220800F550DF6E030E58
:102B50000D01235D08E3080EDF5C04E00A0EDF5C74
:102B600001E0DF6810D00B0EDF5C0CE00C0EDF5CC8
:102B700009E0130EDF5C06E02A0EDF5C03E00A0EBC
:102B8000DF5C01E1DF6871D0FE0EDB50050DF3CF95
:102B9000F6FFF4CFF7FFE80EF626490EF7220800FD
:102BA000F550DF6E0A0EDF5C07E0080EDF5C04E024
:102BB0000B0EDF5C01E0DF6858D0FE0EDB50050D28
:102BC000F3CFF6FFF4CFF7FFE80EF626490EF72213
:102BD0000800F550DF6E0A0EDF5C07E0080EDF5CD0
:102BE00004E00C0EDF5C01E0DF683FD0FE0EDB503E
:102BF000050DF3CFF6FFF4CFF7FFE80EF626490EEA
:102C0000F7220800F550DF6E30D0FE0EDB50050DC8
:102C1000F3CFF6FFF4CFF7FFE80EF626490EF722C2
:102C20000800F550DF6E0A0EDF5C04E0080EDF5C82
:102C300001E0DF681AD0FE0EDB50050DF3CFF6FF82
:102C4000F4CFF7FFE80EF626490EF7220800F550FC
:102C5000DF6E300EDF5C07E0080EDF5C04E00A0E7A
:102C6000DF5C01E0DF6801D000D0DF5000D0E5522A
:102C7000E552E7CFD9FF1200D9CFE6FFE1CFD9FF68
:102C8000E552E7CFD9FF1200D9CFE6FFE1CFD9FF58
:102C9000020EE126010EDB6A0D01230517E10D018D
:102CA0004751EA6A260FE96E0D0EEA22300EEF6EEA
:102CB0000D01472B0D014751EA6A260FE96E0D0EF3
:102CC000EA2202CDEFFF0D01472B16D00D0147512F
:102CD000EA6A260FE96E0D0EEA2202CDEFFF0D0122
:102CE000472B0D014751EA6A260FE96E0D0EEA22C5
:102CF00003CDEFFF0D01472B300E0D01275D146E44
:102D0000300E0D01265D0A0DF3501424E76E010EFE
:102D1000E7CFDBFF010EDB5000D0146E020EE15C4A
:102D200002E2E16AE552E16E1450E552E7CFD9FFC5
:102D30001200D9CFE6FFE1CFD9FFE652DF6A0D01DD
:102D40002351DF5C16E2DF50EA6A020FE96E0D0ED6
:102D5000EA22EF50E66E0D014751EA6A260FE96E4E
:102D60000D0EEA22E552E750EF6E0D01472BDF2AE8
:102D7000E6D70D014751EA6A260FE96E0D0EEA22E9
:102D8000EF6A0D01472B200E0D01475D02E30D0197
:102D9000476BE552E552E7CFD9FF1200200EE66EF1
:102DA000E66AE66A020EE66E0D0EE66E69EC22F049
:102DB000146E050EE15E14500D01236B0D01256BA1
:102DC0000D0124691200200EE66EE66AE66A260E00
:102DD000E66E0D0EE66E69EC22F0146E050EE15EF5
:102DE00014500D01476B1200D9CFE6FFE1CFD9FF98
:102DF000E6526AEC1FF0DF6ADF50E76EFD0EDBCFB4
:102E0000E9FFFE0EDBCFEAFFE750E926000EEA22DB
:102E1000EF5013E0DF50E76EFD0EDBCFE9FFFE0E53
:102E2000DBCFEAFFE750E926000EEA22EF50E66E1C
:102E300071EC1FF0E552DF2ADFD7E552E552E7CF0C
:102E4000D9FF1200D9CFE6FFE1CFD9FF030EE1266B
:102E5000FE0EEA6ADB34FE0BEA36E96E400EE92626
:102E60000E0EEA22010EEECFDBFF020EEDCFDBFFEE
:102E70006AEC1FF0DF6ADF50E76E010EDBCFF6FF72
:102E8000020EDBCFF7FFE750F626000EF722080010
:102E9000F55014E0DF50E76E010EDBCFF6FF020EB7
:102EA000DBCFF7FFE750F626000EF7220800F550BB
:102EB000E66E71EC1FF0E552DF2ADDD7030EE15C10
:102EC00002E2E16AE552E16EE552E7CFD9FF120076
:102ED000D9CFE6FFE1CFD9FF030EE126FE0EEA6A65
:102EE000DB34FE0BEA36E96E400EE9260E0EEA22CE
:102EF000010EEECFDBFF020EEDCFDBFFDF6ADF500E
:102F0000E76E010EDBCFF6FF020EDBCFF7FFE750D7
:102F1000F626000EF7220800F55014E0DF50E76EA9
:102F2000010EDBCFF6FF020EDBCFF7FFE750F626F0
:102F3000000EF7220800F550E66E71EC1FF0E55226
:102F4000DF2ADDD7030EE15C02E2E16AE552E16EC1
:102F5000E552E7CFD9FF1200D9CFE6FFE1CFD9FF85
:102F6000030EE126FE0EDB50100DF3CF14F0F4CF6C
:102F700015F04C0E14260E0E1522010E14C0DBFFA8
:102F8000020E15C0DBFFDF6ADF50E76E010EDBCFFC
:102F9000E9FF020EDBCFEAFFE750E926000EEA2246
:102FA000EF5013E0DF50E76E010EDBCFE9FF020EBA
:102FB000DBCFEAFFE750E926000EEA22EF50E66E8B
:102FC00071EC1FF0E552DF2ADFD7030EE15C02E26D
:102FD000E16AE552E16EE552E7CFD9FF1200D9CFA1
:102FE000E6FFE1CFD9FF040EE126FD0EDBCFE9FFBE
:102FF000FE0EDBCFEAFFEF50D00FFF0FE76E030EA0
:10300000E7CFDBFF010EDB6A000EDF6EDF28E76E25
:10301000FD0EDBCFE9FFFE0EDBCFEAFFE750E9262E
:10302000000EEA22EF502BE0DF28E76EFD0EDBCF2B
:10303000E9FFFE0EDBCFEAFFE750E926000EEA22A9
:10304000EF50E66E030EDB50100DF350176A000FC1
:10305000166E030E1722DF5000011624146E000EA8
:103060001720156E14C0E6FF15C0E6FF15EC24F01E
:10307000E552E552E55209EC00F0DF2AC7D7E66ACF
:10308000030EDB50100DF350176A000F166E030E7F
:103090001722DF5000011624146E000E1720156E43
:1030A00014C0E6FF15C0E6FF15EC24F0E552E5522A
:1030B000E55209EC00F0030EDB50100DF350156AD9
:1030C000000F146E030E152214C0E6FF15C0E6FFB4
:1030D000C6EC24F0E552E552E76E020EE7CFDBFFC7
:1030E00009EC00F0020EDB5038E0030EDB28100D77
:1030F000F3CF14F0F4CF15F04C0E14260E0E15225B
:10310000010EDB500F011424E96E000E1520EA6E4B
:10311000020EDBCFEFFF010EDB2A030EDB50100D9A
:10312000F350176A000F166E030E1722010EDB50C4
:1031300000011624146E000E1720156E14C0E6FF51
:1031400015C0E6FFC6EC24F0E552E552E76E020E2C
:10315000E7CFDBFF09EC00F0C5D7030EDB28100D2D
:10316000F3CF14F0F4CF15F04C0E14260E0E1522EA
:10317000010EDB500F011424E96E000E1520EA6EDB
:10318000EF6A040EE15C02E2E16AE552E16EE552AB
:06319000E7CFD9FF120099
:0A319600DACFE4FFE2CFDAFFE9CF61
:1031A000E4FFEACFE4FFF6CFE4FFF7CFE4FFF5CF8B
:1031B000E4FFF3CFE4FFF4CFE4FFFACFE4FF00EE47
:1031C00000F0140EE80403E3EECFE4FFFBD700EEBB
:1031D00014F0080EE80403E3EECFE4FFFBD7E65259
:1031E000D9CFE6FFE1CFD9FFE65262EC25F0DF6EE2
:1031F0000C018951892BEA6A8C0FE96E0C0EEA22C8
:10320000DFCFEFFF800E0C01895D02E30C01896BBB
:103210000C018B2BA49AE552E552E7CFD9FFE5527A
:1032200000EE1BF0080EE80403E3E5CFEDFFFBD74B
:1032300000EE13F0140EE80403E3E5CFEDFFFBD737
:10324000E5CFFAFFE5CFF4FFE5CFF3FFE5CFF5FFDC
:10325000E5CFF7FFE5CFF6FFE5CFEAFFE5CFE9FFE2
:10326000E5CFDAFF1100DACFE4FFE2CFDAFFE9CFF2
:10327000E4FFEACFE4FFE652D9CFE6FFE1CFD9FF82
:10328000E6520B01025104E1ACA2FED7AC9A21D068
:103290000B010151EA6A030FE96E0B0EEA22EFCF30
:1032A000DFFFDF50AD6E0B01012B800E0B01015DC6
:1032B00002E30B01016B000E0B01E76E0219E8AE91
:1032C00002D0023503D0E750D880025502E20B014C
:1032D0000207E552E552E7CFD9FFE552E5CFEAFF15
:1032E000E5CFE9FFE5CFDAFF1100DACFE4FFE2CF67
:1032F000DAFFE9CFE4FFEACFE4FFE652D9CFE6FFF9
:10330000E1CFD9FFE6520C01085104E172A2FED7C9
:10331000729A21D00C010751EA6A090FE96E0C0E6E
:10332000EA22EFCFDFFFDF50736E0C01072B800E18
:103330000C01075D02E30C01076B000E0C01E76E48
:103340000819E8AE02D0083503D0E750D8800855F8
:1033500002E20C010807E552E552E7CFD9FFE5523A
:10336000E5CFEAFFE5CFE9FFE5CFDAFF1100D9CFDE
:10337000E6FFE1CFD9FFE6527C0EDF6E0F0EE66E60
:10338000E66ADFCFE6FF8DEC24F0E552E552E55228
:10339000AC8AAC9EE552E552E7CFD9FF1200D9CFF7
:1033A000E6FFE1CFD9FFE6527C0EDF6E670EE66ED8
:1033B000E66ADFCFE6FF51EC24F0E552E552E55234
:1033C000D08E718E728A729EA38AA58AE552E552CA
:1033D000E7CFD9FF1200D9CFE6FFE1CFD9FFACA2EA
:1033E000FED70B010051002BEA6A030FE96E0B0EAA
:1033F000EA22FE0EDBCFEFFF0B01022B800E0B014A
:10340000005D02E30B01006B010E00D0E552E7CF37
:10341000D9FF1200D9CFE6FFE1CFD9FF72A2FED7C4
:103420000C010651062BEA6A090FE96E0C0EEA221E
:10343000FE0EDBCFEFFF0C01082B800E0C01065DAA
:1034400002E30C01066B010E00D0E552E7CFD9FF75
:103450001200D9CFE6FFE1CFD9FF060EE126010E1B
:10346000F36E020EF3CFDBFF030EDB6A020EDBCF3F
:1034700014F0DB06030EDBCF15F001E2DB0614507F
:10348000151006E0040EE66EEEEC25F0E552EED7E0
:10349000000E0B01E76E0219E8AE02D0023503D030
:1034A000E750D880025528E20B010151EA6A030F68
:1034B000E96E0B0EEA22010EEFCFDBFFACA2FED7C6
:1034C000010EDB50AD6EACA2FED70B01012B800EBE
:1034D0000B01015D02E30B01016B000E0B01E76EB6
:1034E0000219E8AE02D0023503D0E750D880025569
:1034F00002E20B010207CCD7010EF36E040EF3CFEC
:10350000DBFF050EDB6A040EDBCF14F0DB06050ED5
:10351000DBCF15F001E2DB061450151006E0040EB7
:10352000E66EEEEC25F0E552EED7146E060EE15C89
:1035300002E2E16AE552E16E1450E552E7CFD9FFAD
:103540001200D9CFE6FFE1CFD9FF060EE126010E2A
:10355000F36E020EF3CFDBFF030EDB6A020EDBCF4E
:1035600014F0DB06030EDBCF15F001E2DB0614508E
:10357000151006E0040EE66EEEEC25F0E552EED7EF
:10358000000E0C01E76E0819E8AE02D0083503D032
:10359000E750D880085528E20C010751EA6A090F64
:1035A000E96E0C0EEA22010EEFCFDBFF72A2FED70E
:1035B000010EDB50736E72A2FED70C01072B800E3A
:1035C0000C01075D02E30C01076B000E0C01E76EB6
:1035D0000819E8AE02D0083503D0E750D880085566
:1035E00002E20C010807CCD7010EF36E040EF3CFF4
:1035F000DBFF050EDB6A040EDBCF14F0DB06050EE5
:10360000DBCF15F001E2DB061450151006E0040EC6
:10361000E66EEEEC25F0E552EED7146E060EE15C98
:1036200002E2E16AE552E16E1450E552E7CFD9FFBC
:103630001200D9CFE6FFE1CFD9FFE652DF6AA39AA5
:10364000000E0C01E76E8B19E8AE02D08B3503D06B
:10365000E750D8808B5502E2010EDF6EA38ADF505F
:1036600000D0E552E552E7CFD9FF1200D9CFE6FFEF
:10367000E1CFD9FFE652DF6A9D9A000E0B01E76E9B
:103680008519E8AE02D0853503D0E750D88085553E
:1036900002E2010EDF6E9D8ADF5000D0E552E55256
:1036A000E7CFD9FF1200D9CFE6FFE1CFD9FFE6522D
:1036B0009D9A0B018451842BEA6A860FE96E0B0EEA
:1036C000EA22EFCFDFFF800E0B01845D02E30B01E6
:1036D000846B000E0B01E76E8519E8AE02D08535CC
:1036E00003D0E750D880855502E20B0185079D8AFB
:1036F000DF5000D0E552E552E7CFD9FF1200D9CF15
:10370000E6FFE1CFD9FFE652A39A0C018A518A2B3A
:10371000EA6A8C0FE96E0C0EEA22EFCFDFFF800E13
:103720000C018A5D02E30C018A6B000E0C01E76E4E
:103730008B19E8AE02D08B3503D0E750D8808B557B
:1037400002E20C018B079D8ADF5000D0E552E55262
:06375000E7CFD9FF1200D3
:0A375600D9CFE6FFE1CFD9FFFE0E48
:10376000DBCF01F9FD0EDBCF02F9FC0EDBCF03F955
:10377000FB0EDBCF04F9F90EDBCF09FAFA0EDBCF33
:103780000AFA04D8E552E7CFD9FF1200B7EC19F0D6
:103790000A01056B0A01066B0901010E006F0A019F
:1037A000076B0A01050E086F0FCA0BFA10CA0CFA54
:1037B00011CA0DFA12CA0EFA00C913FA12000A0150
:1037C000056B0A01066B0901010E006F0A01076B08
:1037D0000A01050E086F0FCA0BFA10CA0CFA11CABB
:1037E0000DFA12CA0EFA00C913FA1200D9CFE6FF79
:1037F000E1CFD9FF060EE126DF6A52EC23F006C0C6
:103800000FFA07C010FA08C011FA09C012FA0B0E1D
:10381000E96E0A0EEA6EEE500A010F190CE1EE5045
:103820000A01101908E1EE500A01111904E1EE50E5
:103830000A01121900E118E0090100510A01135DA3
:103840000BE1020E0901005D07E10A0108070A0108
:10385000085102E19BDFD3D00FCA0BFA10CA0CFA51
:1038600011CA0DFA12CA0EFA09010051030A01E148
:10387000BFD0010A18E0030A01E0BDD036EC1BF00E
:10388000000901E1BCD053EC1BF0DF6E09010151CE
:10389000DF5C08E10A01056B0901020E006F0A01F5
:1038A000050E086FAAD036EC1BF0000901E1A7D085
:1038B00053EC1BF0DF6E09010251DF5C01E07CD0AC
:1038C000020EDB6A030EDB68D950030FE66E000EB2
:1038D000DA20E66E9ED8E552E552E76E020EE7CF9B
:1038E000DBFF020EDB50020A58E0030A05E0010A82
:1038F00001E05DD064DF83D00A0109510A114BE079
:10390000D950040FE66E000EDA20E66E070EE66E62
:103910000A0EE66E070EE66E090EE66E05D00ACABE
:10392000FAFF0A010951F96EFADF146E060EE15E24
:1039300014500A01066F0901FA0E856F0A01062B61
:1039400007CA86F90A01062BDE52020EDD6E0A0155
:103950000651F36E010EDBCFF4FFF350F45C1AE274
:10396000040EDBCFE9FF050EDBCFEAFFEF50E66E7A
:10397000010EDB50EA6A850FE96E090EEA22E55274
:10398000E750EF6E040EDB2A050E01E3DB2A010E81
:10399000DB2ADDD701D013DF0BD00901FA0E856FCA
:1039A0000A01062B07CA86F90A01062B01D000D0AE
:1039B0000901030E006F1BD00A010551052BEA6AAD
:1039C000050FE96E090EEA22DFCFEFFF800E0A0134
:1039D000055D0DE30901FA0E856F0A01062B090149
:1039E000900E866F0A01062B0901030E006F05D0A9
:1039F00061D8E5DE02D0E3DE00D000C913FA060E7E
:103A0000E15C02E2E16AE552E16EE552E7CFD9FFFF
:103A10001200D9CFE6FFE1CFD9FF020EE1260A015D
:103A20000505EA6A050FE96E090EEA22EFCFDFFF0E
:103A3000010EDB6AFA0E0901055D06E0FA0E0901C6
:103A4000055D02E0000E2AD00A010505E66E050EAE
:103A5000E66E090EE66E9CD8E552E552E552E76E39
:103A6000010EE7CFDBFF010EDB50DF5C0DE10A0149
:103A700005070A010551EA6A050FE96E090EEA22F7
:103A8000EF6A010E0BD00AD0FD0EDBCFE9FFFE0E70
:103A9000DBCFEAFF910EEF6E000E00D0146E020E27
:103AA000E15C02E2E16AE552E16E1450E552E7CFD3
:103AB000D9FF1200D9CFE6FFE1CFD9FF020EE126F0
:103AC000DF6A010EDB6A06CAE6FF850EE66E090EA6
:103AD000E66E5ED8E552E552E552DF6E03C9E6FFB9
:103AE000EBEC19F0E552010EDB6A0A010651F36EA8
:103AF000010EDBCFF4FFF350F45C0FE2010EDB505C
:103B0000EA6A850FE96E090EEA22EF50E66EEBECE9
:103B100019F0E552010EDB2AE8D7DFCFE6FFEBEC28
:103B200019F0E55204C9E6FFEBEC19F0E55229EC77
:103B30001AF0020EE15C02E2E16AE552E16EE55242
:103B4000E7CFD9FF1200D9CFE6FFE1CFD9FFFD0EB5
:103B5000DBCFF6FFFE0EDBCFF7FF0800F55012E0DB
:103B6000FD0EDBCFF6FFFE0EDBCFF7FF0800F550B2
:103B7000E66EEBEC19F0E552FD0EDB2AFE0E01E3DA
:103B8000DB2AE5D729EC1AF0E552E7CFD9FF12007E
:103B9000D9CFE6FFE1CFD9FF030EE126DF6A010EA0
:103BA000DB6AFC0EDB50F36E010EDBCFF4FFF3504B
:103BB000F45C12E2010EDB50E76EFD0EDBCFE9FF95
:103BC000FE0EDBCFEAFFE750E926000EEA22EF50B7
:103BD000DF1A010EDB2AE5D7DF5000D0146E030E8A
:103BE000E15C02E2E16AE552E16E1450E552E7CF92
:043BF000D9FF1200E7
:0C3BF400D9CFE6FFE1CFD9FF030EE12698
:103C0000300EF36E010EF3CFDBFF750EF36E020E76
:103C1000F3CFDBFF010EDF6EDF0425E10ADA0000DF
:103C2000000083928384000000008386000000006F
:103C30008350800B01E0010EDF6E839683860000C7
:103C400000008396010EDB06020E01E2DB06D9506E
:103C5000010FE96EDACFEAFFEE50ED1003E1F1D982
:103C6000FF0E04D0D9D7EDD9000E00D0146E030E8C
:103C7000E15C02E2E16AE552E16E1450E552E7CF01
:103C8000D9FF1200D9CFE6FFE1CFD9FF8392839409
:103C90000000FE0EDB50F00B146E0F0E8C1414108F
:103CA0008C6E00008386000000008396E552E7CF0B
:103CB000D9FF1200D9CFE6FFE1CFD9FF9BDF839276
:103CC00083940000FE0EDB50F00B146E0F0E8C146C
:103CD00014108C6E00008386000000008396FE0E98
:103CE000DB38F00BF00B146E0F0E8C1414108C6E6E
:103CF00000008386000000008396E552E7CFD9FFDD
:103D00001200D9CFE6FFE1CFD9FF74DF838283941D
:103D10000000FE0EDB50F00B146E0F0E8C1414100E
:103D20008C6E00008386000000008396FE0EDB3858
:103D3000F00BF00B146E0F0E8C1414108C6E000030
:103D40008386000000008396E552E7CFD9FF12007A
:103D5000D9CFE6FFE1CFD9FF0B0EE12672D9280EAD
:103D6000F36E010EF3CFDBFF020EDB6A010EDBCF39
:103D700014F0DB06020EDBCF15F001E2DB06145077
:103D8000151006E0040EE66EEEEC25F0E552EED7D7
:103D9000300EE66E77DFE5520A0EF36E030EF3CFB8
:103DA000DBFF040EDB6A030EDBCF14F0DB06040E30
:103DB000DBCF15F001E2DB061450151006E0040E0F
:103DC000E66EEEEC25F0E552EED7300EE66E5ADFE9
:103DD000E5520A0EF36E050EF3CFDBFF060EDB6A2B
:103DE000050EDBCF14F0DB06060EDBCF15F001E28B
:103DF000DB061450151006E0040EE66EEEEC25F01E
:103E0000E552EED7300EE66E3DDFE5520A0EF36E58
:103E1000070EF3CFDBFF080EDB6A070EDBCF14F0D3
:103E2000DB06080EDBCF15F001E2DB06145015109F
:103E300006E0040EE66EEEEC25F0E552EED7200E1D
:103E4000E66E20DFE5520A0EF36E090EF3CFDBFFBC
:103E50000A0EDB6A090EDBCF14F0DB060A0EDBCF9D
:103E600015F001E2DB061450151006E0040EE66EB4
:103E7000EEEC25F0E552EED7280EE66E1BDFE5529C
:103E8000B9DEDF6EDF5010E10F0EE66E13DFE55294
:103E9000010EE66E0FDFE552040EE66E0BDFE55213
:103EA000060EE66E07DFE55200D00B0EE15C02E283
:103EB000E16AE552E16EE552E7CFD9FF1200D9CFB2
:103EC000E6FFE1CFD9FFFE0EDBCF1FFEE552E7CFC5
:103ED000D9FF1200010EE66EEDDEE5520E011E6BFB
:103EE0001200D9CFE6FFE1CFD9FFE652FE0EDB503C
:103EF0000E011F5D25E10E011E5101E13BD0100EA8
:103F00000E011E5D0EE1800EE66ED4DEE552DF6A24
:103F1000100EDF5C06E2140EE66ECCDEE552DF2A00
:103F2000F7D7100EE66EC6DEE552200EE66EE9DE2D
:103F3000E552100EE66EBEDEE5520E011E071AD0E7
:103F4000100E0E011E5D05E1C00EE66EB3DEE552F9
:103F50000AD0200E0E011E5D06E30E011E6B020E3E
:103F6000E66EA8DEE552FE0EDBCFE6FFCADEE552C6
:103F70000E011E2BE552E552E7CFD9FF1200E8DE15
:103F8000010EE66E97DEE5520E011E6B1200D9CFD0
:103F9000E6FFE1CFD9FFE652010EE66E8BDEE55279
:103FA000DF6A100EDF5C1CE2FD0EDBCFE9FFFE0EC8
:103FB000DBCFEAFFEF50E66EDF50EA6A200FE96ED2
:103FC0000E0EEA22E552E750EF6EFD0EDBCFE9FF61
:103FD000DB2AFE0EDBCFEAFF01E3DB2ADF2AE1D793
:103FE000C00EE66E67DEE552DF6A100EDF5C1CE293
:103FF000FD0EDBCFE9FFFE0EDBCFEAFFEF50E66EF2
:10400000DF50EA6A200FE96E0E0EEA22E552E75011
:10401000EF6EFD0EDBCFE9FFDB2AFE0EDBCFEAFF02
:1040200001E3DB2ADF2AE1D7E552E552E7CFD9FFEA
:104030001200958E958C958A958895969594959273
:104040001200959E959C959A959895969594959223
:0240500012005C
:0E4052000D01CE6B0D01CF6B0D019F6B0D01AB
:10406000A06B0D01A16B0D01A2690D01A36B1200E4
:10407000D9CFE6FFE1CFD9FF020EE1260D01D12B0A
:10408000000ED223D9CFE6FFDACFE6FF8FD8E55274
:10409000E552000901E130D00D01CE510D01CF5D97
:1040A00004E10D01CF6B0D01CE6B0D01CF51E96E17
:1040B000EA6AD890E936EA36A40EE9260D0EEA221D
:1040C000DFCFEFFF0D01CF51E96EEA6AD890E936F4
:1040D000EA36A40EE9260D0EEA22010EE926000EAC
:1040E000EA22D1CDEFFF140E0D01CF5D02E20D01EA
:1040F000CF2B0D01D16BD26B020EE15C02E2E16AC3
:10410000E552E16EE552E7CFD9FF1200D9CFE6FFC5
:10411000E1CFD9FF0D01CF510D01CE5D34E20D018C
:10412000CE51E96EEA6AD890E936EA36A40EE9265D
:104130000D0EEA22EF50E66EFD0EDBCFE9FFFE0E1C
:10414000DBCFEAFFE552E750EF6E0D01CE51E96E8D
:10415000EA6AD890E936EA36A40EE9260D0EEA227C
:10416000010EE926000EEA22EF50E66EFB0EDBCFD1
:10417000E9FFFC0EDBCFEAFFE552E750EF6E0D01E1
:10418000CE2B010E02D0000E00D0E552E7CFD9FFB2
:1041900012000D01CF6B0D01CE6B0D019F6B0D0158
:1041A000A06B0D01A16B0D01A2691200D9CFE6FF32
:1041B000E1CFD9FFE652DF68010E146E8150800B0B
:1041C00001E0010E145C70E18150200B01E0010E52
:1041D000166E8150040B01E0010EE824156E81502B
:1041E000100B01E0010E040DF3CF14F08150080B09
:1041F00001E0010E080DF3501410151016100F0BEE
:10420000DF6EDF500F0A4BE0010A46E0030A41E08F
:10421000010A3CE0070A37E0010A32E0030A2EE017
:10422000010A29E00F0A24E0010A1FE0030A1AE04C
:10423000010A15E0070A10E0010A0BE0030A06E094
:10424000010A01E02FD0050EDF6E2ED0060EDF6EC4
:104250002BD0090EDF6E28D00A0EDF6E25D0020E9D
:10426000DF6E22D0010EDF6E1FD0030EDF6E1CD07A
:10427000070EDF6E19D0040EDF6E16D0DF6A14D081
:104280000B0EDF6E11D00F0EDF6E0ED00C0EDF6E38
:104290000BD0080EDF6E08D00E0EDF6E05D00D0EAF
:1042A000DF6E02D0DF6800D0FF0EDF5C06E10D019B
:1042B000D3690D01D069000E18D00D01D351DF5C18
:1042C00010E10D01D051DF5C0CE0FD0EDBCFE9FF0A
:1042D000FE0EDBCFEAFFDFCFEFFFDFCFD0FD010E19
:1042E00004D0DFCFD3FD000E00D0E552E552E7CF7A
:0442F000D9FF1200E0
:0C42F400DACFE4FFE2CFDAFFE9CFE4FF0D
:10430000EACFE4FFF6CFE4FFF7CFE4FFF5CFE4FF19
:10431000F3CFE4FFF4CFE4FFFACFE4FF00EE00F0C8
:10432000140EE80403E3EECFE4FFFBD700EE14F035
:10433000080EE80403E3EECFE4FFFBD7E652F29465
:104340000E010E2B000E0F230E01102B000E112359
:104350000E01122B000E13230E01142B000E152339
:104360000E01162B000E17230E011807000E195B05
:104370000E01193504E218510008000E19550AE320
:104380000E011A2B000E1B231C231D23C80E0E0129
:10439000186F196B0E010251031107E005D003CE0F
:1043A000FAFF0E010251F96EFADF00CEE6FF01CEF0
:1043B000E6FFA0EC25F0E552E552E55200EE1BF0D9
:1043C000080EE80403E3E5CFEDFFFBD700EE13F0A2
:1043D000140EE80403E3E5CFEDFFFBD7E5CFFAFFCA
:1043E000E5CFF4FFE5CFF3FFE5CFF5FFE5CFF7FF2E
:1043F000E5CFF6FFE5CFEAFFE5CFE9FFE5CFDAFF4E
:104400001100DACFE4FFE2CFDAFFE9CFE4FFEACF31
:10441000E4FFF6CFE4FFF7CFE4FFF5CFE4FFF3CFFF
:10442000E4FFF4CFE4FFFACFE4FF00EE00F0140E57
:10443000E80403E3EECFE4FFFBD700EE14F0080E30
:10444000E80403E3EECFE4FFFBD7E652D9CFE6FF63
:10445000E1CFD9FFE65281EC25F0DF6E0B018351ED
:10446000832BEA6A860FE96E0B0EEA22DFCFEFFF9D
:10447000800E0B01835D02E30B01836B0B01852B27
:104480009E9AE552E552E7CFD9FFE55200EE1BF0C8
:10449000080EE80403E3E5CFEDFFFBD700EE13F0D1
:1044A000140EE80403E3E5CFEDFFFBD7E5CFFAFFF9
:1044B000E5CFF4FFE5CFF3FFE5CFF5FFE5CFF7FF5D
:1044C000E5CFF6FFE5CFEAFFE5CFE9FFE5CFDAFF7D
:0244D0001100D9
:0E44D200FE0EE3CFE9FFFF0EE3CFEAFFE9CFD6
:1044E000F3FFEACFF4FFFB0EE35003E1FC0EE350D1
:1044F00009E0FB0EE30602E2FC0EE306FD0EE350CC
:10450000EE6EF1D71200D9CFE6FFDACFE6FFFA0E52
:10451000E3CFD9FFFB0EE3CFDAFFFC0EE3CFE9FFD9
:10452000FD0EE3CFEAFFDE50EF5C02E1EE66FBD763
:10453000F36EFF0EE3CFDAFFE552FF0EE3CFD9FFB4
:10454000E552F3501200D9CFE6FFDACFE6FFFA0EBC
:10455000E3CFD9FFFB0EE3CFDAFFFC0EE3CFE9FF99
:10456000FD0EE3CFEAFFE9CFF3FFEACFF4FFDECFA2
:10457000EFFFEE66FCD7FF0EE3CFDAFFE552FF0E4A
:10458000E3CFD9FFE5521200FE0EE3CFE9FFFF0EA5
:10459000E3CFEAFFF36AF46AEE5203E0F34AF42A47
:0445A000FBD7120033
:0C45A400D9CFE6FFE1CFD9FFE6521CECB6
:1045B00025F0000EE66EE66AE00EE66EB10EE66EDF
:1045C0002EEC23F0E552E552E552E552BFEC1FF028
:1045D00029EC20F024EC12F059EC00F011EC00F082
:1045E0000E01640E0E5D000E0F5905E311EC26F06E
:1045F0000E010E6B0F6B0E01080E105D000E1159AF
:1046000005E338EC20F00E01106B116B0E01020E69
:10461000125D000E135905E3F6EC1BF00E01126B50
:10462000136B0E01FA0E145D000E155905E381ECB3
:1046300002F00E01146B156B0E01280E165D000EB4
:10464000175905E3C0EC12F00E01166B176B04004E
:0C465000C7D7E552E552E7CFD9FF1200B2
:04465C00D9CFE6FFCD
:10466000E1CFD9FF9F0EE66EBCEC25F0E552FD0EC2
:10467000DBCF00FEFE0EDBCF01FEFB0EDBCF02FE2A
:10468000FC0EDBCF03FEF194FD0EDBCFE6FFFE0E4A
:10469000DBCFE6FFA0EC25F0E552E552E552E7CF8F
:1046A000D9FF1200D9CFE6FFE1CFD9FF040EE126F2
:1046B000F29A1ACEDFFF010E1BCEDBFF020E1CCEDC
:1046C000DBFF030E1DCEDBFFF28ADECF06F0DECF6E
:1046D00007F0DECF08F0DDCF09F0DD52DD5200D06B
:1046E000040EE15C02E2E16AE552E16EE552E7CFD9
:1046F000D9FF1200F29E0E011A6B1B6B1C6B1D6B17
:04470000F28E120023
:0C4704002C0EF66E000EF76E000EF86E24
:104710000E010900F550F16F0900F550F26F03E149
:10472000F16701D03DD00900F550EC6F0900F5505C
:10473000ED6F0900F550EE6F09000900F550E96EC4
:104740000900F550EA6E090009000900F550EF6F05
:104750000900F550F06F09000900F6CFF3FEF7CF1E
:10476000F4FEF8CFF5FEECCEF6FFEDCEF7FFEECE81
:10477000F8FF0E01EF5302E1F05307E00900F55096
:10478000EE6EEF07F8E2F007F9D7F3CEF6FFF4CEBE
:10479000F7FFF5CEF8FF0E01F107000EF25BBFD771
:0247A000120005
:0E47A200006A0EAEDAEF23F00D6C0E1EE86A10
:1047B0000E22001E09AEE2EF23F0086C091EE86A23
:1047C0000922001ED8EC25F009BEF2EF23F000AE5E
:1047D000000C086C091EE86A0922046C051EE86AD0
:1047E0000522000C00BEE9EF23F00188FF0C08C091
:1047F00012F008500D02F4CF07F0F3CF06F0095085
:104800000E02F4CF09F0F3CF08F00D02F3500726A3
:10481000F4500822E86A092212500E02F3500726CB
:0A482000F4500822E86A0922000C97
:06482A00D9CFE6FFDACF52
:10483000E6FFE1CFD9FFE2CFDAFFE652DF6AFD0EF5
:10484000DBCF15F015C014F0030E1514AA6EFF0E81
:10485000E76EFC0EDBCF14F0E7501416156A145007
:10486000A96EFB0EDB50A86EA69EA69CA684F250F5
:10487000800B01E0010EDF6EF29E550EA76EAA0EB0
:10488000A76EA682A6B2FED7DF50E8B0F28EE8A0EF
:10489000F29EA694E552E552E5CFDAFFE7CFD9FFC5
:0248A000120004
:0E48A200D9CFE6FFDACFE6FFE1CFD9FFE2CFB4
:1048B000DAFF726A716AFD0EDBB07288DBA202D089
:1048C000728C718CDBB4728EDBA602D0718801D041
:1048D000718ADBA802D0728401D07294DBBA71862F
:1048E000DBAC02D0A38A01D0A39ADBAE02D0A388AE
:1048F00001D0A398FB0EDB50756EFC0EDBCF15F0DC
:1049000015C014F0156A1450766E728A718EE552D5
:0A491000E5CFDAFFE7CFD9FF120070
:06491A00D9CFE6FFDACF61
:10492000E6FFE1CFD9FFE2CFDAFFAC6AAB6AFD0E5A
:10493000DBB0AC88DBA202D0AC8CAB8CDBB4AC8E31
:10494000DBA602D0AB8801D0AB8ADBB8AC84DBBA83
:10495000AB86DBAC02D09D8A01D09D9ADBAE02D043
:104960009D8801D09D98FB0EDB50AF6EFC0EDBCF17
:1049700015F015C014F0156A1450B06EAC8AAB8EE9
:0C498000E552E5CFDAFFE7CFD9FF1200C7
:04498C00D9CFE6FF9A
:10499000DACFE6FFE1CFD9FFE2CFDAFFFC0EDBCFC3
:1049A00014F0FD0EDBCF15F015C014F0156A030EE0
:1049B0001414AA6EFF0EE76EFC0EDBCF14F0FD0E92
:1049C000DBCF15F0E7501416156A1450A96EA69C9B
:1049D000A69EA68000000000A85000D0E552E5CFBA
:0849E000DAFFE7CFD9FF120056
:0849E800312D312D3132414225
:1049F000433233444546330B0B0B0B0B34474849CA
:104A000034354A4B4C35364D4E4F360C0C0C0C0C95
:104A100037505152533854555638395758595A0807
:104A2000080808082A2A2A2A2A302030203013139E
:084A30001313130A0A0A0A0A13
:084A3800C26A0F01386B0F0187
:104A4000396B0F013A6B0F013B6B0F013C6B700E22
:104A5000D36E96908490949C948E959E959C959AF6
:104A60009598959695949592816892988098929051
:104A70008090929480949292809292968096120066
:104A8000434C454152204953535545530041444DF1
:104A9000494E2041435449564954593A00504153D4
:104AA00053574F52443A0049535355453A004445F1
:104AB000504152544D454E543A0053544154494F7D
:034AC0004E3A006B
:014AC30000F2
:0C4AC400D9CFE6FFDACFE6FFE1CFD9FF43
:104AD000E2CFDAFFE652F20E0E01F81771AC03D006
:104AE000F89171B0F88171B4F88571B2F88774509B
:104AF000DF6EDF50E552E552E5CFDAFFE7CFD9FFB1
:024B00001200A1
:0E4B0200D9CFE6FFDACFE6FFE1CFD9FFE2CF51
:104B1000DAFFE652F20E0E01F917ABAC03D0F991B1
:104B2000ABB0F981ABB4F985ABB2F987AE50DF6EAB
:104B3000DF50E552E552E5CFDAFFE7CFD9FF1200AB
:104B4000D9CFE6FFDACFE6FFE1CFD9FFE2CFDAFF38
:104B5000E652E652FC0EDBCFDEFFDBCFDDFF010EBF
:104B6000DB50D76EDF50D66EE552E552E552E5CF09
:084B7000DAFFE7CFD9FF1200C4
:084B7800D9CFE6FFDACFE6FF1A
:104B8000E1CFD9FFE2CFDAFFFD0EDB507F0BD56E10
:104B9000D76AD66AF294FD0EDBAE02D0F28A01D05B
:104BA000F29AD58EE552E5CFDAFFE7CFD9FF1200B2
:104BB000056A046A100EE76ED89008360936043686
:104BC00005360D50045C0E50055805E30D50045E8B
:0C4BD0000E50055A082AE72EF0D71200FC
:044BDC00FF0EE35095
:104BE0001C6E480E01D04C0EE76EE72EFED7E76A2A
:0C4BF000E72EFED71C2EF7D700001200A5
:044BFC00380EF36E0E
:104C000000EE00F00F0E01D81200EA6002D0EE6A4A
:0C4C1000FCD7F350E9601200EE6AFCD7FC
:044C1C000E01FB6B1F
:104C200012000E01FB0504E10E01FB6B849004D021
:0A4C30000E01010EFB6F84801200DC
:064C3A0010EE60F020EE18
:104C400060F0F86A019C82EC23F034EC26F0D2ECA0
:064C500022F0FBD7120068
:0A4C56002020202020202020202014
:074C6000202020202020008D
:024C6800120038
:064C6A0000000000000044
:104C70000000000000000000000000000000000034
:104C80000000000000000000000000000000FF0025
:104C90000000000000000000000000000000000014
:104CA0000000000000000000000000000000000004
:104CB00000000000000000000000000000000000F4
:104CC00000000000000000000000000000000000E4
:104CD000000000FF000000000000000000000000D5
:104CE00000000000000000000000000000000000C4
:054CF00000000000FFC0
:0B4CF5000000000000000000000000B4
:104D000000000000000000000000000000000000A3
:104D10000000000000000000000000000000000093
:104D20000000000000000000000000000000000083
:104D30000000000000000000000000000000000073
:104D40000000000000000000000000000000000063
:104D50000000000000000000000000000000000053
:104D60000000000000000000000000000000000043
:104D70000000000000000000000000000000000033
:104D80000000000000000000000000000000000023
:104D90000000000000000000000000000000000013
:104DA0000000000000000000000000000000000003
:104DB00000000000000000000000000000000000F3
:104DC00000000000000000000000000000000000E3
:104DD00000000000000000000000000000000000D3
:104DE00000000000000000000000000000000000C3
:0B4DF0000000000000000000000000B8
:054DFB000000000000B3
:104E000000000000000000000000000000000000A2
:094E1000000000C80000000000D1
:074E19000000000000000092
:104E20000000000000000000000000000000000082
:104E30000000000000000000000000000000000072
:104E40000000000000000000000000000000000062
:104E50000000000000000000000000000000000052
:104E60000000000000000000000000000000000042
:104E70000000000000000000000000000000000032
:104E80000000000000000000000000000000000022
:104E90000000000000000000000000000000000012
:104EA0000000000000000000000000000000000002
:104EB00000000000000000000000000000000000F2
:104EC00000000000000000000000000000000000E2
:104ED00000000000000000000000000000000000D2
:104EE00000000000000000000000000000000000C2
:104EF00000000000000000000000000000000000B2
:104F000000000000000000000000000000000000A1
:104F10000000000000000000000000000000000091
:104F20000000000000000000000000000000000081
:104F30000000000000000000000000000000000071
:104F40000000000000000000000000000000000061
:104F50000000000000000000000000000000000051
:104F60000000000000000000000000000000000041
:104F70000000000000000000000000000000000031
:104F80000000000000000000000000000000000021
:104F90000000000000000000000000000000000011
:104FA0000000000000000000000000000000000001
:104FB00000000000000000000000000000000000F1
:104FC00000000000000000000000000000000000E1
:0E4FD0000000000000000000000000000000D3
:024FDE000000D1
:104FE00000000000000000000000000000000000C1
:104FF00000000000000000000000000000000000B1
:1050000000000000000000000000000000000000A0
:105010000000000000000000000000000000000090
:105020000000000000000000000000000000000080
:105030000000000000000000000000000000000070
:095040000000000000FF0000FF69
:075049000000000000000060
:105050000000000000000000000000000000000050
:105060000000000000000000000000000000000040
:105070000000000000000000000000000000000030
:105080000000000000000000000000000000000020
:105090000000000000000000000000000000000010
:1050A0000000000000000000000000000000000000
:1050B00000000000000000000000000000000000F0
:1050C00000000000000000000000000000000000E0
:1050D00000000000000000000000000000000000D0
:1050E00000000000000000000000000000000000C0
:1050F00000000000000000000000000000000000B0
:10510000000000000000000000000000000000009F
:10511000000000000000000000000000000000008F
:10512000000000000000000000000000000000007F
:10513000000000000000000000000000000000006F
:10514000000000000000000000000000000000005F
:0D5150000000000000000000000000000052
:03515D000000004F
:10516000000000000000000000000000000000003F
:10517000000000000000000000000000000000002F
:10518000000000000000000000000000000000001F
:10519000000000000000000000000000000000000F
:0653700000000000000037
:02537600FFFF37
:08537800BA4AAE4AA74A9D4A59
:105380008D4A804A0000000000000000000000007C
:10539000000000000000000000000000000000000D
:1053A00000000000000000000000000000000000FD
:1053B00000000000000000000000000000000000ED
:1053C00000000000000000000000000000000000DD
:1053D00000000000000000000000000000000000CD
:1053E00000000000000000000000000000000000BD
:1053F00000000000000000000000000000000000AD
:10540000000000000000000000000000000000009C
:10541000000000000000000000000000000000008C
:045420000000000088
:020000040030CA
:0100010008F6
:0100020001FC
:0100030024D8
:01000500BD3D
:010006008079
:010008000FE8
:01000900C036
:01000A000FE6
:01000B00E014
:01000C000FE4
:01000D0040B2
:00000001FF
