:020000040000FA
:0600000042EF29F012009E
:020006002300D5
:080008009EAA02D051EF25F081
:020010001200DC
:06001200A6B2FED71200A9
:08001800F2A402D0CAEF24F0AB
:0C0020001200D08E9F8AF28EF28C12002B
:04002C000B00985DD0
:100030000000000F000016000000965D0000200F79
:10004000000002000000C7520000250F0000010060
:1000500000007C590000000100001A0400006858EC
:100060000000000A0000140100001F5800003805BD
:10007000000049000000FD5700008105000022003B
:1000800000007854000000060000850300005A5468
:1000900000001A0500001E00000054530000000C70
:1000A000000006010000CA520000140B00008A0084
:0200B00000004E
:0E00B200D9CFE6FFE1CFD9FF0A0EE126050EF9
:1000C000DB6A060EDB6A070EDB6A080EDB6A090EC6
:1000D000DB6A0101036B046B056B066B0101076BA7
:1000E000086B096B0A6B0601046BDE6ADD6ADECF02
:1000F00014F0DDCF15F0200E145C000E155801E34E
:100100009ED0DECF14F0DDCF15F0050ED89014365A
:100110001536E806FBE1170E1426010E1522030E14
:1001200014C0DBFF040E15C0DBFF020EDB6A200EDD
:10013000F36E020EDBCFF4FFF350F45C35E209EC12
:1001400000F00400020EDB50166E176A200E086ED7
:10015000096ADECF0DF0DDCF0EF0BDEC28F00650C1
:100160001624146E07501720156E14C0E6FF15C034
:10017000E6FF07EC28F0E552E552E66E020EDB5092
:10018000E76E030EDBCFE9FF040EDBCFEAFFE7509B
:10019000E926000EEA22E552E750EF6E09EC00F086
:1001A0000400020EDB2AC3D7DECFE9FFDDCFEAFF72
:1001B000050ED890E936EA36E806FBE1170EE92687
:1001C000010EEA221E0EE926000EEA22EF0402E1E9
:1001D0000101012BDECFE9FFDDCFEAFF050ED8904C
:1001E000E936EA36E806FBE1170EE926010EEA22B7
:1001F0001E0EE926000EEA22EF50030802E101017B
:10020000022BDECFE9FFDDCFEAFF050ED890E936FD
:10021000EA36E806FBE1170EE926010EEA221F0E78
:10022000E926000EEA22EF0405E1010EF36E050E49
:10023000F3CFDBFFDF2A010E01E3DB2A58D70101F0
:100240000251000806E2010EF36E080EF3CFDBFF49
:100250000FD001010151000806E2010EF36E070EF6
:10026000F3CFDBFF05D0010EF36E060EF3CFDBFFFD
:10027000050EDB0405E1010EF36E090EF3CFDBFF83
:100280000101310E0D6F0101300E0E6F0101300EB4
:100290000F6F0101330E106F0101116B0501060E86
:1002A000196F09EC00F00400E66AE66AE66AE66A9D
:1002B000F2EC12F0E552E552E552E55231D8050173
:1002C000010E176F090EDBCFE6FF080EDBCFE6FF4E
:1002D000070EDBCFE6FF060EDBCFE6FFF2EC12F0F7
:1002E000E552E552E552E552D80EE66E2A0EE66E6C
:1002F000DD0EE66ECC0EE66EBB0EE66EAA0EE66E68
:10030000F2EC1EF0146E060EE15E14500A0EE15C73
:1003100002E2E16AE552E16EE552E7CFD9FF120051
:10032000D9CFE6FFE1CFD9FF050EE126DF6A010E46
:10033000DB6A020EDB6A030EDB6A01010251000870
:1003400009E20101030E006F010EF36E020EF3CFFE
:10035000DBFF11D001010151000807E20101010E8C
:10036000006FDE52010EDD6E06D00101006B010E42
:10037000DF6E030EDB6A040EDB6A200EF36E040EE2
:10038000DBCFF4FFF350F45C1AE2040EDB50200DD7
:10039000F3CFE9FFF4CFEAFF170EE926010EEA22B8
:1003A0001F0EE926000EEA22EF0406E1010EF36EAD
:1003B000030EF3CFDBFF03D0040EDB2ADED7030EE0
:1003C000DBCFE6FF020EDBCFE6FF010EDBCFE6FF61
:1003D000DFCFE6FFF2EC12F0E552E552E552E552CE
:1003E000050EE15C02E2E16AE552E16EE552E7CF1B
:1003F000D9FF1200D9CFE6FFE1CFD9FF050EE126E4
:10040000DF6A010EDB6A020EDB6A030EDB6A0101A2
:100410000251000809E20101030E006F010EF36EA4
:10042000020EF3CFDBFF11D001010151000807E2FA
:100430000101010E006FDE52010EDD6E06D00101DA
:10044000006B010EDF6E030EDB6A030EDBCFE6FFEF
:10045000020EDBCFE6FF010EDBCFE6FFDFCFE6FFCC
:10046000F2EC12F0E552E552E552E5520501010EBB
:10047000176F010E00D0146E050EE15C02E2E16A16
:10048000E552E16E1450E552E7CFD9FF1200D9CF03
:10049000E6FFE1CFD9FF050EE126DF6A010EDB6A38
:1004A000020EDB6A030EDB6AFD0EDBCFE6FFFE0EFB
:1004B000DBCFE6FF120EE66E010EE66ED3EC25F002
:1004C000E552E552E552E552000902E0000E1FD068
:1004D000030EDBCFE6FF020EDBCFE6FF010EDBCF24
:1004E000E6FFDFCFE6FFF2EC12F0E552E552E5520F
:1004F000E552FB0EDBCFE6FFFC0EDBCFE6FFA0EC08
:1005000012F0E552E5520501176B010E00D0146E92
:10051000050EE15C02E2E16AE552E16E1450E5523B
:10052000E7CFD9FF1200D9CFE6FFE1CFD9FF090EFF
:10053000E126010EF36E080EF3CFDBFFA2EC26F0EE
:1005400006C007F107C008F108C009F109C00AF1A7
:10055000030EE96E010EEA6EEE50010107190CE17F
:10056000EE500101081908E1EE500101091904E1FA
:10057000EE5001010A1900E101E1BBD007C103F10E
:1005800008C104F109C105F10AC106F1DF6A200EB4
:10059000DF5C01E3A4D0DF50200DF3CFE9FFF4CFFF
:1005A000EAFF170EE926010EEA221E0EE926000ECA
:1005B000EA22EF0401E091D0DF50200DF3CFE9FFF4
:1005C000F4CFEAFF170EE926010EEA221C0EE926F7
:1005D000000EEA22EE06000EED5ADF50200DF3CF9A
:1005E000E9FFF4CFEAFF170EE926010EEA221C0EFE
:1005F000E926000EEA22E9CF14F0EACF15F0010E49
:1006000014C0DBFF020E15C0DBFF010EDBCFE9FFDC
:10061000020EDBCFEAFF030EEFCFDBFF200EDF027F
:10062000F3501C0F146E040E14C0DBFF050EDB6AC2
:10063000060EDB6A070EDB6A010EDBCFE9FF020E56
:10064000DBCFEAFFEF50E66E200EDF02F3501C0F07
:10065000E66EE66A21EC27F0E552E552E55209EC38
:1006600000F00400010EE76E010EDBCFE9FF020E81
:10067000DBCFEAFFE750E926000EEA22030EEFCFB8
:10068000DBFF200EDF02F3501C0F010F146E040E6F
:1006900014C0DBFF050EDB6A060EDB6A070EDB6AA1
:1006A000010EE76E010EDBCFE9FF020EDBCFEAFFA2
:1006B000E750E926000EEA22EF50E66E200EDF0238
:1006C000F3501C0F010FE66EE66A21EC27F0E552AD
:1006D000E552E55209EC00F00400DF2A58D7C4ECDB
:1006E00013F0010806E180840101015102E18092CA
:1006F0008090090EE15C02E2E16AE552E16EE552AA
:10070000E7CFD9FF1200D9CFE6FFE1CFD9FF040E22
:10071000E126FD0EDBCFE9FFFE0EDBCFEAFF200E68
:10072000E926000EEA22EF28DF6E010EDB6A020ED8
:10073000DB6A200EDF5C01E3DF6AFD0EDBCFE9FF41
:10074000FE0EDBCFEAFF200EE926000EEA22EF685C
:10075000030EDB6A200EF36E030EDBCFF4FFF350C3
:10076000F45C02E347EF08F0DF501F0BDF6EDF5051
:10077000200DF3CFE9FFF4CFEAFF170EE926010EB3
:10078000EA221E0EE926000EEA22EF5010E0DF50AA
:10079000200DF3CFE9FFF4CFEAFF170EE926010E93
:1007A000EA221F0EE926000EEA22EF5002E142EF94
:1007B00008F0FD0EDBCFE9FFFE0EDBCFEAFFE9CF4D
:1007C00014F0EACF15F0010EDBCFF3FFDB2AF35074
:1007D0000F011424E96E000E1520EA6E530EEF6E21
:1007E000FD0EDBCFE9FFFE0EDBCFEAFFE9CF14F011
:1007F000EACF15F0010EDBCFF3FFDB2AF3500F0138
:100800001424E96E000E1520EA6E540EEF6EFD0EF4
:10081000DBCFE9FFFE0EDBCFEAFFE9CF14F0EACF32
:1008200015F0010EDBCFF3FFDB2AF3500F01142488
:10083000E96E000E1520EA6E4E0EEF6EFD0EDBCF58
:10084000E9FFFE0EDBCFEAFFE9CF14F0EACF15F0A7
:10085000010EDBCFF3FFDB2AF3500F011424E96E06
:10086000000E1520EA6E3A0EEF6EDF50200DF3CF2A
:10087000E9FFF4CFEAFF170EE926010EEA22E9CFDD
:1008800016F0EACF17F0020EDBCFF3FFDB2AF350AE
:100890000F011624E96E000E1720EA6EEF50E66E87
:1008A000FD0EDBCFE9FFFE0EDBCFEAFFE9CF14F050
:1008B000EACF15F0010EDBCFF3FFDB2AF3500F0177
:1008C0001424E96E000E1520EA6EE552E750EF6E33
:1008D000DF50200DF3CFE9FFF4CFEAFF170EE92632
:1008E000010EEA22E9CF16F0EACF17F0020EDBCFB5
:1008F000F3FFDB2AF3500F011624E96E000E1720D8
:10090000EA6EEF50E66EFD0EDBCFE9FFFE0EDBCFA9
:10091000EAFFE9CF14F0EACF15F0010EDBCFF3FFC9
:10092000DB2AF3500F011424E96E000E1520EA6E45
:10093000E552E750EF6EFD0EDBCFE9FFFE0EDBCF99
:10094000EAFFE9CF14F0EACF15F0010EDBCFF3FF99
:10095000DB2AF3500F011424E96E000E1520EA6E15
:100960003B0EEF6EDF50200DF3CFE9FFF4CFEAFF2F
:10097000170EE926010EEA22E9CF14F0EACF15F0AE
:10098000020EDB500F011424E96E000E1520EA6EF2
:10099000EF50350A01E166D2010A01E1C1D1070A2F
:1009A00001E1A6D1010A01E1EAD0030A01E0FCD28B
:1009B000FD0EDBCFE9FFFE0EDBCFEAFFE9CF14F03F
:1009C000EACF15F0010EDBCFF3FFDB2AF3500F0166
:1009D0001424E96E000E1520EA6E420EEF6EFD0E35
:1009E000DBCFE9FFFE0EDBCFEAFFE9CF14F0EACF61
:1009F00015F0010EDBCFF3FFDB2AF3500F011424B7
:100A0000E96E000E1520EA6E520EEF6EFD0EDBCF82
:100A1000E9FFFE0EDBCFEAFFE9CF14F0EACF15F0D5
:100A2000010EDBCFF3FFDB2AF3500F011424E96E34
:100A3000000E1520EA6E450EEF6EFD0EDBCFE9FFCE
:100A4000FE0EDBCFEAFFE9CF14F0EACF15F0010E7E
:100A5000DBCFF3FFDB2AF3500F011424E96E000E05
:100A60001520EA6E410EEF6EFD0EDBCFE9FFFE0EA4
:100A7000DBCFEAFFE9CF14F0EACF15F0010EDBCFB0
:100A8000F3FFDB2AF3500F011424E96E000E15204A
:100A9000EA6E4B0EEF6EFD0EDBCFE9FFFE0EDBCFF5
:100AA000EAFFE9CF14F0EACF15F0010EDBCFF3FF38
:100AB000DB2AF3500F011424E96E000E1520EA6EB4
:100AC000440EEF6EFD0EDBCFE9FFFE0EDBCFEAFF3B
:100AD000E9CF14F0EACF15F0010EDBCFF3FFDB2AEC
:100AE000F3500F011424E96E000E1520EA6E4F0E2C
:100AF000EF6EFD0EDBCFE9FFFE0EDBCFEAFFE9CFA5
:100B000014F0EACF15F0010EDBCFF3FFDB2AF35030
:100B10000F011424E96E000E1520EA6E570EEF6ED9
:100B2000FD0EDBCFE9FFFE0EDBCFEAFFE9CF14F0CD
:100B3000EACF15F0010EDBCFF3FFDB2AF3500F01F4
:100B40001424E96E000E1520EA6E4E0EEF6EFD0EB7
:100B5000DBCFE9FFFE0EDBCFEAFFE9CF14F0EACFEF
:100B600015F0010EDBCFF3FFDB2AF3500F01142445
:100B7000E96E000E1520EA6E3B0EEF6E15D2FD0EEB
:100B8000DBCFE9FFFE0EDBCFEAFFE9CF14F0EACFBF
:100B900015F0010EDBCFF3FFDB2AF3500F01142415
:100BA000E96E000E1520EA6E510EEF6EFD0EDBCFE2
:100BB000E9FFFE0EDBCFEAFFE9CF14F0EACF15F034
:100BC000010EDBCFF3FFDB2AF3500F011424E96E93
:100BD000000E1520EA6E550EEF6EFD0EDBCFE9FF1D
:100BE000FE0EDBCFEAFFE9CF14F0EACF15F0010EDD
:100BF000DBCFF3FFDB2AF3500F011424E96E000E64
:100C00001520EA6E410EEF6EFD0EDBCFE9FFFE0E02
:100C1000DBCFEAFFE9CF14F0EACF15F0010EDBCF0E
:100C2000F3FFDB2AF3500F011424E96E000E1520A8
:100C3000EA6E4C0EEF6EFD0EDBCFE9FFFE0EDBCF52
:100C4000EAFFE9CF14F0EACF15F0010EDBCFF3FF96
:100C5000DB2AF3500F011424E96E000E1520EA6E12
:100C6000490EEF6EFD0EDBCFE9FFFE0EDBCFEAFF94
:100C7000E9CF14F0EACF15F0010EDBCFF3FFDB2A4A
:100C8000F3500F011424E96E000E1520EA6E540E85
:100C9000EF6EFD0EDBCFE9FFFE0EDBCFEAFFE9CF03
:100CA00014F0EACF15F0010EDBCFF3FFDB2AF3508F
:100CB0000F011424E96E000E1520EA6E590EEF6E36
:100CC000FD0EDBCFE9FFFE0EDBCFEAFFE9CF14F02C
:100CD000EACF15F0010EDBCFF3FFDB2AF3500F0153
:100CE0001424E96E000E1520EA6E3B0EEF6E5CD107
:100CF000FD0EDBCFE9FFFE0EDBCFEAFFE9CF14F0FC
:100D0000EACF15F0010EDBCFF3FFDB2AF3500F0122
:100D10001424E96E000E1520EA6E230EEF6E44D106
:100D2000FD0EDBCFE9FFFE0EDBCFEAFFE9CF14F0CB
:100D3000EACF15F0010EDBCFF3FFDB2AF3500F01F2
:100D40001424E96E000E1520EA6E4F0EEF6EFD0EB4
:100D5000DBCFE9FFFE0EDBCFEAFFE9CF14F0EACFED
:100D600015F0010EDBCFF3FFDB2AF3500F01142443
:100D7000E96E000E1520EA6E540EEF6EFD0EDBCF0D
:100D8000E9FFFE0EDBCFEAFFE9CF14F0EACF15F062
:100D9000010EDBCFF3FFDB2AF3500F011424E96EC1
:100DA000000E1520EA6E480EEF6EFD0EDBCFE9FF58
:100DB000FE0EDBCFEAFFE9CF14F0EACF15F0010E0B
:100DC000DBCFF3FFDB2AF3500F011424E96E000E92
:100DD0001520EA6E450EEF6EFD0EDBCFE9FFFE0E2D
:100DE000DBCFEAFFE9CF14F0EACF15F0010EDBCF3D
:100DF000F3FFDB2AF3500F011424E96E000E1520D7
:100E0000EA6E520EEF6EFD0EDBCFE9FFFE0EDBCF7A
:100E1000EAFFE9CF14F0EACF15F0010EDBCFF3FFC4
:100E2000DB2AF3500F011424E96E000E1520EA6E40
:100E3000530EEF6EFD0EDBCFE9FFFE0EDBCFEAFFB8
:100E4000E9CF14F0EACF15F0010EDBCFF3FFDB2A78
:100E5000F3500F011424E96E000E1520EA6E3B0ECC
:100E6000EF6EA2D0FD0EDBCFE9FFFE0EDBCFEAFF77
:100E7000E9CF14F0EACF15F0010EDBCFF3FFDB2A48
:100E8000F3500F011424E96E000E1520EA6E530E84
:100E9000EF6EFD0EDBCFE9FFFE0EDBCFEAFFE9CF01
:100EA00014F0EACF15F0010EDBCFF3FFDB2AF3508D
:100EB0000F011424E96E000E1520EA6E410EEF6E4C
:100EC000FD0EDBCFE9FFFE0EDBCFEAFFE9CF14F02A
:100ED000EACF15F0010EDBCFF3FFDB2AF3500F0151
:100EE0001424E96E000E1520EA6E460EEF6EFD0E1C
:100EF000DBCFE9FFFE0EDBCFEAFFE9CF14F0EACF4C
:100F000015F0010EDBCFF3FFDB2AF3500F011424A1
:100F1000E96E000E1520EA6E450EEF6EFD0EDBCF7A
:100F2000E9FFFE0EDBCFEAFFE9CF14F0EACF15F0C0
:100F3000010EDBCFF3FFDB2AF3500F011424E96E1F
:100F4000000E1520EA6E540EEF6EFD0EDBCFE9FFAA
:100F5000FE0EDBCFEAFFE9CF14F0EACF15F0010E69
:100F6000DBCFF3FFDB2AF3500F011424E96E000EF0
:100F70001520EA6E590EEF6EFD0EDBCFE9FFFE0E77
:100F8000DBCFEAFFE9CF14F0EACF15F0010EDBCF9B
:100F9000F3FFDB2AF3500F011424E96E000E152035
:100FA000EA6E3B0EEF6E00D0020EDB2ADF50200D02
:100FB000F3CFE9FFF4CFEAFF170EE926010EEA228C
:100FC000E9CF14F0EACF15F0020EDB500F01142424
:100FD000E96E000E1520EA6EEF5032E0DF50200D72
:100FE000F3CFE9FFF4CFEAFF170EE926010EEA225C
:100FF000E9CF16F0EACF17F0020EDB500F011624EE
:10100000E96E000E1720EA6EEF50E66EFD0EDBCFA4
:10101000E9FFFE0EDBCFEAFFE9CF14F0EACF15F0CF
:10102000010EDB500F011424E96E000E1520EA6E4C
:10103000E552E750EF6E010EDB2A020EDB2AB6D72F
:10104000FD0EDBCFE9FFFE0EDBCFEAFFE9CF14F0A8
:10105000EACF15F0010EDB500F011424E96E000EEB
:101060001520EA6EEF6ADFCF18F5FD0EDBCFE9FF42
:10107000FE0EDBCFEAFF200EE926000EEA2218C59D
:10108000EFFF05D0030EDB2ADF2AAAEF03F0040EE0
:10109000E15C02E2E16AE552E16EE552E7CFD9FF99
:1010A0001200D9CFE6FFE1CFD9FF040EE126FD0EF5
:1010B000DBCFE9FFFE0EDBCFEAFF200EE926000EB4
:1010C000EA22EF28DF6E010EDB6A020EDB6A200ED9
:1010D000DF5C01E3DF6AFD0EDBCFE9FFFE0EDBCF55
:1010E000EAFF200EE926000EEA22EF68030EDB6A13
:1010F000200EF36E030EDBCFF4FFF350F45C02E33B
:1011000015EF0DF0DF501F0BDF6EDF50200DF3CF1A
:10111000E9FFF4CFEAFF170EE926010EEA221E0EC0
:10112000E926000EEA22EF5010E0DF50200DF3CF49
:10113000E9FFF4CFEAFF170EE926010EEA221F0E9F
:10114000E926000EEA22EF0402E110EF0DF0FD0E99
:10115000DBCFE9FFFE0EDBCFEAFFE9CF14F0EACFE9
:1011600015F0010EDBCFF3FFDB2AF3500F0114243F
:10117000E96E000E1520EA6E530EEF6EFD0EDBCF0A
:10118000E9FFFE0EDBCFEAFFE9CF14F0EACF15F05E
:10119000010EDBCFF3FFDB2AF3500F011424E96EBD
:1011A000000E1520EA6E540EEF6EFD0EDBCFE9FF48
:1011B000FE0EDBCFEAFFE9CF14F0EACF15F0010E07
:1011C000DBCFF3FFDB2AF3500F011424E96E000E8E
:1011D0001520EA6E4E0EEF6EFD0EDBCFE9FFFE0E20
:1011E000DBCFEAFFE9CF14F0EACF15F0010EDBCF39
:1011F000F3FFDB2AF3500F011424E96E000E1520D3
:10120000EA6E3A0EEF6EDF50200DF3CFE9FFF4CF18
:10121000EAFF170EE926010EEA22E9CF16F0EACF1F
:1012200017F0020EDBCFF3FFDB2AF3500F01162479
:10123000E96E000E1720EA6EEF50E66EFD0EDBCF72
:10124000E9FFFE0EDBCFEAFFE9CF14F0EACF15F09D
:10125000010EDBCFF3FFDB2AF3500F011424E96EFC
:10126000000E1520EA6EE552E750EF6EDF50200DBC
:10127000F3CFE9FFF4CFEAFF170EE926010EEA22C9
:10128000E9CF16F0EACF17F0020EDBCFF3FFDB2A2F
:10129000F3500F011624E96E000E1720EA6EEF508E
:1012A000E66EFD0EDBCFE9FFFE0EDBCFEAFFE9CFF6
:1012B00014F0EACF15F0010EDBCFF3FFDB2AF35079
:1012C0000F011424E96E000E1520EA6EE552E75076
:1012D000EF6EFD0EDBCFE9FFFE0EDBCFEAFFE9CFBD
:1012E00014F0EACF15F0010EDBCFF3FFDB2AF35049
:1012F0000F011424E96E000E1520EA6E3B0EEF6E0E
:10130000DF50200DF3CFE9FFF4CFEAFF170EE926F7
:10131000010EEA22E9CF14F0EACF15F0020EDB50FD
:101320000F011424E96E000E1520EA6EEF50350A05
:1013300001E166D2010A01E1C1D1070A01E1A6D1AA
:10134000010A01E1EAD0030A01E0FCD2FD0EDBCF85
:10135000E9FFFE0EDBCFEAFFE9CF14F0EACF15F08C
:10136000010EDBCFF3FFDB2AF3500F011424E96EEB
:10137000000E1520EA6E420EEF6EFD0EDBCFE9FF88
:10138000FE0EDBCFEAFFE9CF14F0EACF15F0010E35
:10139000DBCFF3FFDB2AF3500F011424E96E000EBC
:1013A0001520EA6E520EEF6EFD0EDBCFE9FFFE0E4A
:1013B000DBCFEAFFE9CF14F0EACF15F0010EDBCF67
:1013C000F3FFDB2AF3500F011424E96E000E152001
:1013D000EA6E450EEF6EFD0EDBCFE9FFFE0EDBCFB2
:1013E000EAFFE9CF14F0EACF15F0010EDBCFF3FFEF
:1013F000DB2AF3500F011424E96E000E1520EA6E6B
:10140000410EEF6EFD0EDBCFE9FFFE0EDBCFEAFFF4
:10141000E9CF14F0EACF15F0010EDBCFF3FFDB2AA2
:10142000F3500F011424E96E000E1520EA6E4B0EE6
:10143000EF6EFD0EDBCFE9FFFE0EDBCFEAFFE9CF5B
:1014400014F0EACF15F0010EDBCFF3FFDB2AF350E7
:101450000F011424E96E000E1520EA6E440EEF6EA3
:10146000FD0EDBCFE9FFFE0EDBCFEAFFE9CF14F084
:10147000EACF15F0010EDBCFF3FFDB2AF3500F01AB
:101480001424E96E000E1520EA6E4F0EEF6EFD0E6D
:10149000DBCFE9FFFE0EDBCFEAFFE9CF14F0EACFA6
:1014A00015F0010EDBCFF3FFDB2AF3500F011424FC
:1014B000E96E000E1520EA6E570EEF6EFD0EDBCFC3
:1014C000E9FFFE0EDBCFEAFFE9CF14F0EACF15F01B
:1014D000010EDBCFF3FFDB2AF3500F011424E96E7A
:1014E000000E1520EA6E4E0EEF6EFD0EDBCFE9FF0B
:1014F000FE0EDBCFEAFFE9CF14F0EACF15F0010EC4
:10150000DBCFF3FFDB2AF3500F011424E96E000E4A
:101510001520EA6E3B0EEF6E15D2FD0EDBCFE9FF14
:10152000FE0EDBCFEAFFE9CF14F0EACF15F0010E93
:10153000DBCFF3FFDB2AF3500F011424E96E000E1A
:101540001520EA6E510EEF6EFD0EDBCFE9FFFE0EA9
:10155000DBCFEAFFE9CF14F0EACF15F0010EDBCFC5
:10156000F3FFDB2AF3500F011424E96E000E15205F
:10157000EA6E550EEF6EFD0EDBCFE9FFFE0EDBCF00
:10158000EAFFE9CF14F0EACF15F0010EDBCFF3FF4D
:10159000DB2AF3500F011424E96E000E1520EA6EC9
:1015A000410EEF6EFD0EDBCFE9FFFE0EDBCFEAFF53
:1015B000E9CF14F0EACF15F0010EDBCFF3FFDB2A01
:1015C000F3500F011424E96E000E1520EA6E4C0E44
:1015D000EF6EFD0EDBCFE9FFFE0EDBCFEAFFE9CFBA
:1015E00014F0EACF15F0010EDBCFF3FFDB2AF35046
:1015F0000F011424E96E000E1520EA6E490EEF6EFD
:10160000FD0EDBCFE9FFFE0EDBCFEAFFE9CF14F0E2
:10161000EACF15F0010EDBCFF3FFDB2AF3500F0109
:101620001424E96E000E1520EA6E540EEF6EFD0EC6
:10163000DBCFE9FFFE0EDBCFEAFFE9CF14F0EACF04
:1016400015F0010EDBCFF3FFDB2AF3500F0114245A
:10165000E96E000E1520EA6E590EEF6EFD0EDBCF1F
:10166000E9FFFE0EDBCFEAFFE9CF14F0EACF15F079
:10167000010EDBCFF3FFDB2AF3500F011424E96ED8
:10168000000E1520EA6E3B0EEF6E5CD1FD0EDBCF37
:10169000E9FFFE0EDBCFEAFFE9CF14F0EACF15F049
:1016A000010EDBCFF3FFDB2AF3500F011424E96EA8
:1016B000000E1520EA6E230EEF6E44D1FD0EDBCF37
:1016C000E9FFFE0EDBCFEAFFE9CF14F0EACF15F019
:1016D000010EDBCFF3FFDB2AF3500F011424E96E78
:1016E000000E1520EA6E4F0EEF6EFD0EDBCFE9FF08
:1016F000FE0EDBCFEAFFE9CF14F0EACF15F0010EC2
:10170000DBCFF3FFDB2AF3500F011424E96E000E48
:101710001520EA6E540EEF6EFD0EDBCFE9FFFE0ED4
:10172000DBCFEAFFE9CF14F0EACF15F0010EDBCFF3
:10173000F3FFDB2AF3500F011424E96E000E15208D
:10174000EA6E480EEF6EFD0EDBCFE9FFFE0EDBCF3B
:10175000EAFFE9CF14F0EACF15F0010EDBCFF3FF7B
:10176000DB2AF3500F011424E96E000E1520EA6EF7
:10177000450EEF6EFD0EDBCFE9FFFE0EDBCFEAFF7D
:10178000E9CF14F0EACF15F0010EDBCFF3FFDB2A2F
:10179000F3500F011424E96E000E1520EA6E520E6C
:1017A000EF6EFD0EDBCFE9FFFE0EDBCFEAFFE9CFE8
:1017B00014F0EACF15F0010EDBCFF3FFDB2AF35074
:1017C0000F011424E96E000E1520EA6E530EEF6E21
:1017D000FD0EDBCFE9FFFE0EDBCFEAFFE9CF14F011
:1017E000EACF15F0010EDBCFF3FFDB2AF3500F0138
:1017F0001424E96E000E1520EA6E3B0EEF6EA2D0A7
:10180000FD0EDBCFE9FFFE0EDBCFEAFFE9CF14F0E0
:10181000EACF15F0010EDBCFF3FFDB2AF3500F0107
:101820001424E96E000E1520EA6E530EEF6EFD0EC5
:10183000DBCFE9FFFE0EDBCFEAFFE9CF14F0EACF02
:1018400015F0010EDBCFF3FFDB2AF3500F01142458
:10185000E96E000E1520EA6E410EEF6EFD0EDBCF35
:10186000E9FFFE0EDBCFEAFFE9CF14F0EACF15F077
:10187000010EDBCFF3FFDB2AF3500F011424E96ED6
:10188000000E1520EA6E460EEF6EFD0EDBCFE9FF6F
:10189000FE0EDBCFEAFFE9CF14F0EACF15F0010E20
:1018A000DBCFF3FFDB2AF3500F011424E96E000EA7
:1018B0001520EA6E450EEF6EFD0EDBCFE9FFFE0E42
:1018C000DBCFEAFFE9CF14F0EACF15F0010EDBCF52
:1018D000F3FFDB2AF3500F011424E96E000E1520EC
:1018E000EA6E540EEF6EFD0EDBCFE9FFFE0EDBCF8E
:1018F000EAFFE9CF14F0EACF15F0010EDBCFF3FFDA
:10190000DB2AF3500F011424E96E000E1520EA6E55
:10191000590EEF6EFD0EDBCFE9FFFE0EDBCFEAFFC7
:10192000E9CF14F0EACF15F0010EDBCFF3FFDB2A8D
:10193000F3500F011424E96E000E1520EA6E3B0EE1
:10194000EF6E00D0020EDB2ADF50200DF3CFE9FF4F
:10195000F4CFEAFF170EE926010EEA22E9CF14F0D0
:10196000EACF15F0020EDB500F011424E96E000ED1
:101970001520EA6EEF5032E0DF50200DF3CFE9FF83
:10198000F4CFEAFF170EE926010EEA22E9CF16F09E
:10199000EACF17F0020EDB500F011624E96E000E9D
:1019A0001720EA6EEF50E66EFD0EDBCFE9FFFE0E6C
:1019B000DBCFEAFFE9CF14F0EACF15F0010EDB50E0
:1019C0000F011424E96E000E1520EA6EE552E7506F
:1019D000EF6E010EDB2A020EDB2AB6D7FD0EDBCF3F
:1019E000E9FFFE0EDBCFEAFFE9CF14F0EACF15F0F6
:1019F000010EDB500F011424E96E000E1520EA6E73
:101A0000EF6ADFCF18F5FD0EDBCFE9FFFE0EDBCF6F
:101A1000EAFF200EE926000EEA2218C5EFFF05D0E6
:101A2000030EDB2ADF2A78EF08F0040EE15C02E205
:101A3000E16AE552E16EE552E7CFD9FF1200D9CF56
:101A4000E6FFE1CFD9FF070EE126FE0EDB50200DA9
:101A5000F3CFE9FFF4CFEAFF170EE926010EEA22E1
:101A60001E0EE926000EEA22EF5033E0FE0EDB5098
:101A7000200DF3CFE9FFF4CFEAFF170EE926010EA0
:101A8000EA22E9CF14F0EACF15F014C0E6FF15C042
:101A9000E6FF050EDBCFE6FF060EDBCFE6FFD3EC5D
:101AA00025F0E552E552E552E552000912E1FE0E3D
:101AB000DB50200DF3CFE9FFF4CFEAFF170EE92644
:101AC000010EEA221F0EE926000EEA22EF0401E1D0
:101AD0007ED1FE0EDB50200DF3CFE9FFF4CFEAFFFD
:101AE000170EE926010EEA22E9CF14F0EACF15F02D
:101AF000050E14C0DBFF060E15C0DBFF010100510F
:101B0000030A01E190D0020A01E048D1050EDBCFC3
:101B1000E6FF060EDBCFE6FF12EC13F0E552E552CE
:101B2000E76E020EE7CFDBFF020EDB50FF0801E19C
:101B300079D0050EDBCFE6FF060EDBCFE6FFA0EC8B
:101B400012F0E552E5521C0EE66EE66AE66A020EF7
:101B5000DB50200DF3CFE9FFF4CFEAFF170EE926A3
:101B6000010EEA22E9CF14F0EACF15F014C0E6FF27
:101B700015C0E6FFB9EC25F0166E050EE15E1650B5
:101B80000400020EDB50200DF3CF14F0F4CF15F05B
:101B9000170E1426010E1522030E14C0DBFF040ECF
:101BA00015C0DBFF010EDB6A200EF36E010EDBCFEA
:101BB000F4FFF350F45C25E2010EDB50E76E030EF8
:101BC000DBCFE9FF040EDBCFEAFFE750E926000E8A
:101BD000EA22EF50E66E010EDBCFE6FF020EDB508D
:101BE000200DF350E552E724E66EE66A21EC27F07B
:101BF000E552E552E55209EC00F00400010EDB2A43
:101C0000D3D7010101510DE10101006BE66AE66ADB
:101C1000E66A010EE66EF2EC12F0E552E552E5528C
:101C2000E552D5D0BCD0050EDBCFE6FF060EDBCFEC
:101C3000E6FF12EC13F0E552E552E76E020EE7CF35
:101C4000DBFF020EDB50FF0801E1A7D0050EDBCF62
:101C5000E6FF060EDBCFE6FFA0EC12F0E552E55200
:101C60001C0EE66EE66AE66A020EDB50200DF3CF2C
:101C7000E9FFF4CFEAFF170EE926010EEA22E9CFC9
:101C800014F0EACF15F014C0E6FF15C0E6FFB9EC7A
:101C900025F0166E050EE15E16500400020EDB50B4
:101CA000200DF3CF14F0F4CF15F0170E1426010E0B
:101CB0001522030E14C0DBFF040E15C0DBFF010E5E
:101CC000DB6A200EF36E010EDBCFF4FFF350F45C01
:101CD00025E2010EDB50E76E030EDBCFE9FF040EB9
:101CE000DBCFEAFFE750E926000EEA22EF50E66E6E
:101CF000010EDBCFE6FF020EDB50200DF350E55264
:101D0000E724E66EE66A21EC27F0E552E552E5525B
:101D100009EC00F00400010EDB2AD3D701010251C7
:101D200020E1010101510EE10101006BE66AE66A62
:101D3000E66A010EE66EF2EC12F0E552E552E5526B
:101D4000E5520ED00101010E006FE66AE66A010E4F
:101D5000E66EE66AF2EC12F0E552E552E552E55223
:101D60001BD0010101510CE1E66A010EE66EE66A44
:101D7000E66AF2EC12F0E552E552E552E5520CD07B
:101D8000E66A010EE66E010EE66EE66AF2EC12F00D
:101D9000E552E552E552E5521AD001D000D0DF6A93
:101DA000200EDF5C14E2DF50200DF3CFE9FFF4CF0B
:101DB000EAFF170EE926010EEA221F0EE926000EA1
:101DC000EA22EF0402E1808602D0DF2AE9D7070E7B
:101DD000E15C02E2E16AE552E16EE552E7CFD9FF4C
:101DE0001200D9CFE6FFE1CFD9FF050EE126DF6A69
:101DF000200EDF5C33E2DF50200DF3CFE9FFF4CF9C
:101E0000EAFF170EE926010EEA221E0EE926000E51
:101E1000EA22EF5021E0DF50200DF3CFE9FFF4CFAD
:101E2000EAFF170EE926010EEA22E9CF14F0EACF05
:101E300015F014C0E6FF15C0E6FFFD0EDBCFE6FF90
:101E4000FE0EDBCFE6FFD3EC25F0E552E552E5527E
:101E5000E552000901E1DFD0DF2ACAD7DF6A200E90
:101E6000DF5C01E3D2D0DF50200DF3CFE9FFF4CFE8
:101E7000EAFF170EE926010EEA221E0EE926000EE1
:101E8000EA22EF5001E0BFD0DF50200DF3CFE9FF91
:101E9000F4CFEAFF170EE926010EEA221E0EE9260C
:101EA000000EEA22010EEF6E060EF66E000EF76EC1
:101EB0000900F5CF14F00800F5CF15F0DF50200D24
:101EC000F3CFE9FFF4CFEAFF170EE926010EEA226D
:101ED0001C0EE926000EEA2214C0EEFF15C0EDFF2D
:101EE000DF50200DF3CFE9FFF4CFEAFF170EE9260C
:101EF000010EEA221F0EE926000EEA22010EEF6E05
:101F0000FD0EDBCFE6FFFE0EDBCFE6FFDF50200D40
:101F1000F3CFE9FFF4CFEAFF170EE926010EEA221C
:101F2000E9CF14F0EACF15F014C0E6FF15C0E6FFC4
:101F3000F3EC25F0E552E552E552E552DF50200D75
:101F4000F3CF14F0F4CF15F0170E1426010E15225E
:101F5000030E14C0DBFF040E15C0DBFF010EDB6AAD
:101F6000200EF36E010EDBCFF4FFF350F45C24E29D
:101F7000010EDB50E76E030EDBCFE9FF040EDBCF73
:101F8000EAFFE750E926000EEA22EF50E66E010E66
:101F9000DBCFE6FF200EDF02F350E552E724E66ECA
:101FA000E66A21EC27F0E552E552E55209EC00F033
:101FB0000400010EDB2AD4D70101012B01010251DB
:101FC0000CE1010EE66EE66A010EE66EE66A0ADBD9
:101FD000E552E552E552E5520CD0010EE66E010ED7
:101FE000E66E010EE66EE66AFDDAE552E552E5526E
:101FF000E552FD0EDBCFE6FFFE0EDBCFE6FFA0DAFB
:10200000E552E55202D0DF2A2AD70101025103E14D
:102010000101010E006F050EE15C02E2E16AE5528A
:10202000E16EE552E7CFD9FF1200D9CFE6FFE1CF4D
:10203000D9FF050EE126020EE76EFD0EDBCFE9FFAC
:10204000FE0EDBCFEAFFE750E926000EEA22EF5052
:1020500030080AE1FD0EDBCFE6FFFE0EDBCFE6FF28
:102060006FDAE552E5528AD1DF6A200EDF5C43E287
:10207000DF50200DF3CFE9FFF4CFEAFF170EE9267A
:10208000010EEA221E0EE926000EEA22EF5031E090
:10209000DF50200DF3CFE9FFF4CFEAFF170EE9265A
:1020A000010EEA22E9CF14F0EACF15F014C0E6FFE2
:1020B00015C0E6FFFD0EDBCFE6FFFE0EDBCFE6FF31
:1020C000D3EC25F0E552E552E552E552000911E165
:1020D000DF50200DF3CFE9FFF4CFEAFF170EE9261A
:1020E000010EEA221F0EE926000EEA22EF0401E1AA
:1020F00045D1DF2ABAD701010051030A01E18AD094
:10210000020A01E03AD1DF6A200EDF5C01E381D0F0
:10211000FD0EDBCFE6FFFE0EDBCFE6FF83DAE552F6
:10212000E552E76E020EE7CFDBFF020EDB50FF0841
:102130006EE01C0EE66EE66AE66A020EDB50200DCB
:10214000F3CFE9FFF4CFEAFF170EE926010EEA22EA
:10215000E9CF14F0EACF15F014C0E6FF15C0E6FF92
:10216000B9EC25F0166E050EE15E16500400020E65
:10217000DB50200DF3CF14F0F4CF15F0170E14261A
:10218000010E1522030E14C0DBFF040E15C0DBFF89
:10219000010EDB6A200EF36E010EDBCFF4FFF3506D
:1021A000F45C25E2010EDB50E76E030EDBCFE9FFA6
:1021B000040EDBCFEAFFE750E926000EEA22EF50DB
:1021C000E66E010EDBCFE6FF020EDB50200DF35072
:1021D000E552E724E66EE66A21EC27F0E552E55287
:1021E000E55209EC00F00400010EDB2AD3D701010F
:1021F00001510CE10101006BE66AE66AE66A010E34
:10220000E66EF0D9E552E552E552E552B7D0DF2A45
:102210007BD7B4D0DF6A200EDF5C01E3ADD0FD0ECA
:10222000DBCFE6FFFE0EDBCFE6FFFCD9E552E55241
:10223000E76E020EE7CFDBFF020EDB50FF0801E185
:1022400099D01C0EE66EE66AE66A020EDB50200D9F
:10225000F3CFE9FFF4CFEAFF170EE926010EEA22D9
:10226000E9CF14F0EACF15F014C0E6FF15C0E6FF81
:10227000B9EC25F0166E050EE15E16500400020E54
:10228000DB50200DF3CF14F0F4CF15F0170E142609
:10229000010E1522030E14C0DBFF040E15C0DBFF78
:1022A000010EDB6A200EF36E010EDBCFF4FFF3505C
:1022B000F45C25E2010EDB50E76E030EDBCFE9FF95
:1022C000040EDBCFEAFFE750E926000EEA22EF50CA
:1022D000E66E010EDBCFE6FF020EDB50200DF35061
:1022E000E552E724E66EE66A21EC27F0E552E55276
:1022F000E55209EC00F00400010EDB2AD3D70101FE
:1023000002511EE1010101510DE10101006BE66A7C
:10231000E66AE66A010EE66E65D9E552E552E552D7
:10232000E5520DD00101010E006FE66AE66A010E6A
:10233000E66EE66A57D9E552E552E552E55219D004
:10234000010101510BE1E66A010EE66EE66AE66AFA
:1023500049D9E552E552E552E5520BD0E66A010E45
:10236000E66E010EE66EE66A3DD9E552E552E552AB
:10237000E55204D0DF2A4FD701D000D0050EE15C32
:1023800002E2E16AE552E16EE552E7CFD9FF1200C1
:10239000D9CFE6FFE1CFD9FF020EE12606010451B5
:1023A0000601035D0BE1FD0EDBCFE9FFFE0EDBCF87
:1023B000EAFFEE6AED6A010EDB6A33D006010351D3
:1023C0001C0DF3CF14F0F4CF15F0050E1426060EF5
:1023D0001522FD0EDBCFE9FFFE0EDBCFEAFF14C0B6
:1023E000EEFF15C0EDFF060103511C0DF3CF14F0F5
:1023F000F4CF15F0050E1426060E152214C0E6FFC4
:1024000015C0E6FF14EC26F0E552E552010EF3CFBD
:10241000DBFF0601032B200E0601035D02E306012C
:10242000036B010EDB5000D0146E020EE15C02E281
:10243000E16AE552E16E1450E552E7CFD9FF120090
:10244000D9CFE6FFE1CFD9FF0601000502E1000E7A
:102450000BD00601010E006FFE0EDBCF02F6FD0E63
:10246000DBCF01F6010E00D0E552E7CFD9FF120015
:10247000D9CFE6FFE1CFD9FFE652FE0EDB50200DAB
:10248000F3CFE9FFF4CFEAFF170EE926010EEA22A7
:102490001F0EE926000EEA22EF6AFE0EDB50200D29
:1024A000F3CFE9FFF4CFEAFF170EE926010EEA2287
:1024B000E9CF14F0EACF15F014C0E6FF15C0E6FF2F
:1024C0003FD8E552E552FE0EDB50200DF3CFE9FF79
:1024D000F4CFEAFF170EE926010EEA221F0EE926C5
:1024E000000EEA22EF50E66EFE0EDB50200DF35098
:1024F0001F0FE66EE66A21EC27F0E552E552E55241
:1025000009EC00F00400DF6A200EDF5C13E2DF500C
:10251000200DF3CFE9FFF4CFEAFF170EE926010EF5
:10252000EA221F0EE926000EEA22EF0401E103D0A1
:10253000DF2AEAD78096E552E552E7CFD9FF1200AD
:10254000D9CFE6FFE1CFD9FFE652DF6AFD0EDBCF40
:10255000E9FFFE0EDBCFEAFFEF5024E0FD0EDBCFFC
:10256000E9FFFE0EDBCFEAFFEF50E66E06010451F5
:102570001C0DF3CF14F0F4CF15F0050E1426060E43
:102580001522DF500F011424E96E000E1520EA6EAB
:10259000E552E750EF6EDF2AFD0EDB2AFE0E01E367
:1025A000DB2AD4D7060104511C0DF3CF14F0F4CF6D
:1025B00015F0050E1426060E1522DF500F01142407
:1025C000E96E000E1520EA6EEF6A0601042B200E5C
:1025D0000601045D02E30601046BE552E552E7CF14
:1025E000D9FF1200D9CFE6FFE1CFD9FFFE0EDB50B5
:1025F000E8B08080E8A08090FD0EDB50E8B08082DB
:10260000E8A08092FC0EDB50E8B08084E8A08094C3
:10261000FB0EDB50E8B08086E8A08096E552E7CF5D
:10262000D9FF1200D9CFE6FFE1CFD9FF040EE12692
:10263000DF6A200EDF5C01E399D0DF50200DF3CF7D
:10264000E9FFF4CFEAFF170EE926010EEA221E0E7B
:10265000E926000EEA22EF5001E186D0DF50200D7E
:10266000F3CFE9FFF4CFEAFF170EE926010EEA22C5
:102670001F0EE926000EEA22EF0476E0DF50200D5F
:10268000F3CFE9FFF4CFEAFF170EE926010EEA22A5
:10269000E9CF14F0EACF15F014C0E6FF15C0E6FF4D
:1026A000FD0EDBCFE6FFFE0EDBCFE6FFD3EC25F021
:1026B000E552E552E552E552000956E1DF50200DA2
:1026C000F3CFE9FFF4CFEAFF170EE926010EEA2265
:1026D0001E0EE926000EEA22EF0403E101010107C4
:1026E00013D0DF50200DF3CFE9FFF4CFEAFF170E30
:1026F000E926010EEA221E0EE926000EEA22EF501C
:10270000030802E101010207DF50200DF3CFE9FFCA
:10271000F4CFEAFF170EE926010EEA221E0EE92683
:10272000000EEA22EF6ADF50200DF3CFE9FFF4CF6D
:10273000EAFF170EE926010EEA221C0EE926000E1A
:10274000EA22EE6AED6ADF50200DF3CFE9FFF4CF05
:10275000EAFF170EE926010EEA221F0EE926000EF7
:10276000EA22EF6ADF5004D0DF2A63D7FF0E00D0E1
:10277000146E040EE15C02E2E16AE552E16E14506F
:10278000E552E7CFD9FF1200D9CFE6FFE1CFD9FF5D
:10279000020EE126010EDB6ADF6A200EDF5C5BE2DF
:1027A000DF50200DF3CFE9FFF4CFEAFF170EE92643
:1027B000010EEA221E0EE926000EEA22EF0449E18C
:1027C000DF50200DF3CFE9FFF4CFEAFF170EE92623
:1027D000010EEA221C0EE926000EEA22EE50ED1050
:1027E00038E10101022B01010107DF50200DF3CF79
:1027F000E9FFF4CFEAFF170EE926010EEA221E0ECA
:10280000E926000EEA22030EEF6EDF50200DF3CF13
:10281000E9FFF4CFEAFF170EE926010EEA221E0EA9
:10282000E926000EEA22EF50E66E200EDF02F3509A
:102830001E0FE66EE66A21EC27F0E552E552E552FE
:1028400009EC00F004000101030E006FDE52010EDE
:10285000DD6EDF2AA2D7010EDB5000D0146E020E0F
:10286000E15C02E2E16AE552E16E1450E552E7CF25
:10287000D9FF1200D9CFE6FFE1CFD9FFE652DF6AD8
:10288000200EDF5C41E2DF50200DF3CFE9FFF4CFF3
:10289000EAFF170EE926010EEA221E0EE926000EB7
:1028A000EA22EF502FE0DF50200DF3CFE9FFF4CF05
:1028B000EAFF170EE926010EEA22E9CF14F0EACF6B
:1028C00015F014C0E6FF15C0E6FFFD0EDBCFE6FFF6
:1028D000FE0EDBCFE6FFD3EC25F0E552E552E552E4
:1028E000E55200090FE1DF50200DF3CFE9FFF4CFEF
:1028F000EAFF170EE926010EEA221F0EE926000E56
:10290000EA22EF6ADF2ABCD7E552E552E7CFD9FFCA
:102910001200D9CFE6FFE1CFD9FFFD0EDBCFE6FFF6
:10292000FE0EDBCFE6FF0D0EE66E010EE66ED3EC7B
:1029300025F0E552E552E552E552000902E0000EAD
:1029400002D0010E00D0E552E7CFD9FF1200D9CF57
:10295000E6FFE1CFD9FF020EE1260101006B010184
:10296000016B0101026B0101036B046B056B066BCC
:102970000101076B086B096B0A6B0501186B0601F7
:10298000046B0601036BDE6ADD6ADECF14F0DDCF77
:1029900015F0200E145C000E155860E2DECFE9FF42
:1029A000DDCFEAFF050ED890E936EA36E806FBE10E
:1029B000170EE926010EEA221E0EE926000EEA2273
:1029C000EF6ADECFE9FFDDCFEAFF050ED890E936EA
:1029D000EA36E806FBE1170EE926010EEA221C0E94
:1029E000E926000EEA22EE6AED6ADECFE9FFDDCFCE
:1029F000EAFF050ED890E936EA36E806FBE1170E45
:102A0000E926010EEA221F0EE926000EEA22EF6AED
:102A10001C0EE66EE66AE66ADECFE9FFDDCFEAFF6E
:102A2000050ED890E936EA36E806FBE1170EE926EE
:102A3000010EEA22E9CF14F0EACF15F014C0E6FF48
:102A400015C0E6FFB9EC25F0166E050EE15E1650D6
:102A50000400DF2A010E01E3DB2A97D7DE6ADD6A74
:102A6000DECF14F0DDCF15F0000E145C000E15580B
:102A700012E2E66ADECFE6FFDDCFE6FF21EC27F0CB
:102A8000E552E552E55209EC00F00400DF2A010EA0
:102A900001E3DB2AE5D7050117050BE1E66AE66AE3
:102AA000E66A010EE66E9EDDE552E552E552E5521C
:102AB00009D0E66AE66AE66AE66A94DDE552E5521E
:102AC000E552E552020EE15C02E2E16AE552E16E96
:102AD000E552E7CFD9FF1200D9CFE6FFE1CFD9FF0A
:102AE000030EE126FD0EDBCFE9FFFE0EDBCFEAFF92
:102AF000010EEFCFDBFF020EDB6A010EDB50A00AF6
:102B00005BE0010A4DE0030A19E0220A01E05FD010
:102B1000F90EDBCFE6FFFA0EDBCFE6FF39DCE5523C
:102B2000E552E76E020EE7CFDBFFFB0EDBCFE9FFDE
:102B3000FC0EDBCFEAFF800EEF6E54D0010EE76E85
:102B4000FD0EDBCF14F0FE0EDBCF15F0E7501426A0
:102B5000000E152214C0E6FF15C0E6FF8BDEE5521D
:102B6000E552010EE76EFD0EDBCF14F0FE0EDBCF5B
:102B700015F0E7501426000E152214C0E6FF15C00C
:102B8000E6FF15EC10F0E552E552FB0EDBCFE9FF56
:102B9000FC0EDBCFEAFFA20EEF6E020EDB6A22D044
:102BA000D6DEFB0EDBCFE9FFFC0EDBCFEAFFA10E8A
:102BB000EF6E020EDB6A16D0020EDB6AFB0EDBCF75
:102BC000E9FFFC0EDBCFEAFFA00EEF6E0BD0020E8A
:102BD000DB6AFB0EDBCFE9FFFC0EDBCFEAFF920ED8
:102BE000EF6E00D0020EDB5000D0146E030EE15CDD
:102BF00002E2E16AE552E16E1450E552E7CFD9FFF7
:022C00001200C0
:0E2C0200080EE66EAFEC22F0E552E66A88ECB2
:102C10001BF0E55234EC1BF049EC1BF01200D9CF4D
:102C2000E6FFE1CFD9FF060EE126DF68D950020F9B
:102C3000E66E000EDA20E66ED950030FE66E000E47
:102C4000DA20E66ED6EC23F0E552E552E552E55285
:102C5000000901E1FED2020EDBCFE6FF030EDBCF5F
:102C6000E6FF01DBE552E552DF6EFF0EDF5C01E1BE
:102C7000F0D20B011451060A01E1D2D2030A01E19C
:102C800085D2010A01E16BD20C0A01E134D20B0AB0
:102C900001E1FDD1040A01E1C4D1050A01E11FD11E
:102CA000030A01E190D0010A01E0D2D2080EDF5CF4
:102CB00012E10B01375100080DE2DFCFE6FFC1EC56
:102CC00022F0E5520B0137070B015B51000802E2CD
:102CD0000B015B0777D00A0EDF5C11E10B01375166
:102CE00000080CE2AAEC1AF0010EE66E88EC1BF06C
:102CF000E55234EC1BF00B01010E146F63D0130E80
:102D0000DF5C0BE1080EE66E88EC1BF0E55234EC5C
:102D10001BF00B01050E146F55D00C0EDF5C1CE18F
:102D20007D0EE66E0B0EE66E51EC08F0E552E552B4
:102D3000FF0E0B019D5D0FE07D0EE66E0B0EE66E45
:102D40005AEC1BF0E552E55234EC1BF049EC1BF059
:102D50000B01080E146F36D00B0EDF5C1CE15C0E0D
:102D6000E66E0B0EE66E83EC03F0E552E552FF0EC5
:102D70000B017C5D0FE05C0EE66E0B0EE66E5AEC0E
:102D80001BF0E552E55234EC1BF049EC1BF00B0153
:102D9000030E146F17D00B013751EA6A160FE96E54
:102DA0000B0EEA22DFCFEFFF0B013751EA6A160F55
:102DB000E96E0B0EEA22EF50E66EC1EC22F0E5520E
:102DC0000B01372B46D2080EDF5C17E10B013751A0
:102DD000000808E2DFCFE6FFC1EC22F0E5520B016C
:102DE00037070AD0E66A88EC1BF0E55234EC1BF09A
:102DF00049EC1BF00B01146B71D0DF50350A59E020
:102E0000010A43E0070A2DE0010A17E0030A01E086
:102E100064D0020EE66ECEEC1BF0E5520B015B5166
:102E2000EA6A3A0FE96E0B0EEA22310EEF6E0B01E1
:102E30005B2B0B01070E146F51D0030EE66ECEEC28
:102E40001BF0E5520B015B51EA6A3A0FE96E0B0E7B
:102E5000EA22320EEF6E0B015B2B0B01070E146F93
:102E60003DD0040EE66ECEEC1BF0E5520B015B513B
:102E7000EA6A3A0FE96E0B0EEA22330EEF6E0B018F
:102E80005B2B0B01070E146F29D0050EE66ECEECFE
:102E90001BF0E5520B015B51EA6A3A0FE96E0B0E2B
:102EA000EA22340EEF6E0B015B2B0B01070E146F41
:102EB00015D0060EE66ECEEC1BF0E5520B015B5111
:102EC000EA6A3A0FE96E0B0EEA22350EEF6E0B013D
:102ED0005B2B0B01070E146F01D000D0BAD1080E86
:102EE000DF5C1DE10B013751000808E2DFCFE6FF90
:102EF000C1EC22F0E5520B0137070CD0010EE66E53
:102F000088EC1BF0E552B0DB0B01020E5B6F0B018E
:102F1000010E146F0B0138690B01396B81D00A0E59
:102F2000DF5C19E10B013751000810E268DB3A0E53
:102F3000E66E0B0EE66EF1EC0EF0E552E552E66A37
:102F4000E7DBE55291DBA5DB0B01146B0B01386964
:102F50000B01396B65D0030EDB500B01385D43E18B
:102F6000140EF36E020EDBCFF4FFF350F45C1FE29D
:102F70000B0137070B013751EA6A160FE96E0B0E8A
:102F8000EA22DFCFEFFF080EE66EC1EC22F0E55239
:102F90000B013751EA6A160FE96E0B0EEA22EF5069
:102FA000E66EC1EC22F0E5520B01372B1BD00B0172
:102FB0003751EA6A160FE96E0B0EEA22DFCFEFFFF8
:102FC0000B013751EA6A160FE96E0B0EEA22EF5039
:102FD000E66EC1EC22F0E5520B01372B0B0138698C
:102FE0000B01396B1AD00B013751EA6A160FE96EE3
:102FF0000B0EEA22DFCFEFFF0B013751EA6A160F03
:10300000E96E0B0EEA22EF50E66EC1EC22F0E552BB
:103010000B01372B030EDBCF38FB030EDBCF38FB66
:1030200018D1080EDF5C0CE1010EE66E71DBE55293
:103030001BDB0B01020E5B6F0B01010E146F26D020
:103040000A0EDF5C23E10B015B05EA6A3A0FE96EC9
:103050000B0EEA22EF50330809E1070EE66E58DB4B
:10306000E55202DB0B01020E146F10D0C8DA3A0EE3
:10307000E66E0B0EE66EF1EC0EF0E552E552E66AF6
:1030800047DBE552F1DA05DB0B01146BE2D0080EE9
:10309000DF5C08E1E66A3CDBE552E6DAFADA0B01CE
:1030A000146B28D00B0EDF5C14E15C0EE66E0B0E89
:1030B000E66E83EC03F0E552E552FF0E0B017C5DFA
:1030C00007E05C0EE66E0B0EE66EF4DAE552E552B2
:1030D00011D00A0EDF5C0EE17CCBE6FF38EC12F07B
:1030E000E5520B017C69E66A13DBE552BDDAD1DA01
:1030F0000B01146BAED0080EDF5C08E1E66A08DB5A
:10310000E552B2DAC6DA0B01146B28D00C0EDF5C84
:1031100014E17D0EE66E0B0EE66E51EC08F0E55202
:10312000E552FF0E0B019D5D07E07D0EE66E0B0E76
:10313000E66EC0DAE552E55211D00A0EDF5C0EE110
:103140009DCBE6FF1FEC0DF0E5520B019D69E66A91
:10315000DFDAE55289DA9DDA0B01146B7AD0080EBA
:10316000DF5C07E1E66AD4DAE5527EDA0B01146B24
:103170000CD00A0EDF5C09E1A7EC14F075DA89DAED
:10318000E66AC6DAE5520B01146B63D0080EDF5C09
:1031900008E1E66ABDDAE55267DA7BDA0B01146B07
:1031A0003ED00A0EDF5C2BE1050EDB6A0B013751C6
:1031B000EA6A160FE96E0B0EEA22EF6A160EE66E49
:1031C0000B0EE66E89EC14F0E552E552E76E050E43
:1031D000E7CFDBFF050EDB040AE1090EE66E98DAA5
:1031E000E55242DA56DA0B01060E146F07D0E66A92
:1031F0008FDAE55239DA4DDA0B01146B10D00B017E
:103200003751EA6A160FE96E0B0EEA22DFCFEFFFA5
:103210002A0EE66EC1EC22F0E5520B01372B19D0D5
:10322000080EDF5C08E1E66A73DAE5521DDA31DA8E
:103230000B01146B0CD0300EDF5C09E10A0EE66E58
:1032400067DAE55211DA25DA0B01040E146F01D0AA
:1032500000D0060EE15C02E2E16AE552E16EE55261
:10326000E7CFD9FF1200D9CFE6FFE1CFD9FFE65271
:10327000DF680B011451060A01E11DD1020A01E1C8
:1032800004D1010A01E1F2D00D0A01E1D6D00B0A06
:1032900001E1BAD0010A76E0050A5EE0060A37E0ED
:1032A000010A01E021D1FE0EDB50050DF3CFF6FF40
:1032B000F4CFF7FF6A0EF626500EF7220800F550FD
:1032C000DF6E020E0B01375D08E3080EDF5C04E0E1
:1032D0000A0EDF5C01E0DF6819D00B0137510008EE
:1032E00011E20B0137510EE02A0EDF5C09E00B0EF4
:1032F000DF5C06E00C0EDF5C03E0130EDF5C01E137
:10330000DF6804D02A0EDF5C01E1DF68EED0FE0E3C
:10331000DB50050DF3CFF6FFF4CFF7FF6A0EF6266C
:10332000500EF7220800F550DF6E310EDF5C13E01F
:10333000320EDF5C10E0330EDF5C0DE0340EDF5C3C
:103340000AE0350EDF5C07E0080EDF5C04E00A0EE1
:10335000DF5C01E0DF68C9D0FE0EDB50050DF3CF66
:10336000F6FFF4CFF7FF6A0EF626500EF72208009C
:10337000F550DF6E0A0EDF5C04E0080EDF5C01E052
:10338000DF68B3D0FE0EDB500B01385D14E1140E84
:10339000F36EFD0EDBCFF4FFF350F45C09E20B019A
:1033A000392B050E0B01395D02E30B01396B02D09D
:1033B0000B01396B02D00B01396BFE0EDB50050D92
:1033C000F3CF14F0F4CF15F06A0E1426500E152228
:1033D0000B0139510F011424F66E000E1520F76E03
:1033E0000800F550DF6E0C0EDF5C03E00B0EDF5CB7
:1033F00002E1DF6808D00A0EDF5C03E0080EDF5C44
:1034000002E10B01396B71D0FE0EDB50050DF3CFDD
:10341000F6FFF4CFF7FF6A0EF626500EF7220800EB
:10342000F550DF6E0A0EDF5C07E0080EDF5C04E09B
:103430000B0EDF5C01E0DF6858D0FE0EDB50050D9F
:10344000F3CFF6FFF4CFF7FF6A0EF626500EF72201
:103450000800F550DF6E0A0EDF5C07E0080EDF5C47
:1034600004E00C0EDF5C01E0DF683FD0FE0EDB50B5
:10347000050DF3CFF6FFF4CFF7FF6A0EF626500ED8
:10348000F7220800F550DF6E30D0FE0EDB50050D40
:10349000F3CFF6FFF4CFF7FF6A0EF626500EF722B1
:1034A0000800F550DF6E0A0EDF5C04E0080EDF5CFA
:1034B00001E0DF681AD0FE0EDB50050DF3CFF6FFFA
:1034C000F4CFF7FF6A0EF626500EF7220800F550EB
:1034D000DF6E300EDF5C07E0080EDF5C04E00A0EF2
:1034E000DF5C01E0DF6801D000D0DF5000D0E552A2
:1034F000E552E7CFD9FF1200D9CFE6FFE1CFD9FFE0
:10350000FE0EDB50010A17E0030A0BE0020A01E09D
:103510001CD0E66AFDD8E552A7D8BBD80B01146BC6
:1035200015D0070EE66EF4D8E5529ED8B2D80B013E
:10353000020E146F0BD0010EE66EEAD8E55294D855
:10354000A8D80B01010E146F01D000D0E552E7CFCF
:10355000D9FF1200D9CFE6FFE1CFD9FF020EE12655
:10356000010EDB6A0B01370517E10B015B51EA6ABB
:103570003A0FE96E0B0EEA22300EEF6E0B015B2B59
:103580000B015B51EA6A3A0FE96E0B0EEA2216CB89
:10359000EFFF0B015B2B16D00B015B51EA6A3A0F70
:1035A000E96E0B0EEA2216CBEFFF0B015B2B0B0132
:1035B0005B51EA6A3A0FE96E0B0EEA2217CBEFFF76
:1035C0000B015B2B300E0B013B5D146E300E0B01BB
:1035D0003A5D0A0DF3501424E76E010EE7CFDBFFCE
:1035E000010EDB5000D0146E020EE15C02E2E16AD3
:1035F000E552E16E1450E552E7CFD9FF1200D9CF62
:10360000E6FFE1CFD9FFE652DF6A0B013751DF5CFD
:1036100016E2DF50EA6A160FE96E0B0EEA22EF504F
:10362000E66E0B015B51EA6A3A0FE96E0B0EEA2275
:10363000E552E750EF6E0B015B2BDF2AE6D70B015B
:103640005B51EA6A3A0FE96E0B0EEA22EF6A0B0150
:103650005B2B200E0B015B5D02E30B015B6BE55204
:10366000E552E7CFD9FF1200200EE66EE66AE66A61
:10367000160EE66E0B0EE66EB9EC25F0146E050E16
:10368000E15E14500B01376B0B01396B0B0138698C
:103690001200200EE66EE66AE66A3A0EE66E0B0E41
:1036A000E66EB9EC25F0146E050EE15E14500B01C8
:1036B0005B6B1200D9CFE6FFE1CFD9FFE652BAEC3F
:1036C00022F0DF6ADF50E76EFD0EDBCFE9FFFE0E72
:1036D000DBCFEAFFE750E926000EEA22EF5013E0C5
:1036E000DF50E76EFD0EDBCFE9FFFE0EDBCFEAFF1A
:1036F000E750E926000EEA22EF50E66EC1EC22F018
:10370000E552DF2ADFD7E552E552E7CFD9FF1200B5
:10371000D9CFE6FFE1CFD9FF030EE126FE0EEA6A1C
:10372000DB34FE0BEA36E96E000EE9260F0EEA22C4
:10373000010EEECFDBFF020EEDCFDBFFBAEC22F085
:10374000DF6ADF50E76E010EDBCFF6FF020EDBCF44
:10375000F7FFE750F626000EF7220800F55014E0B8
:10376000DF50E76E010EDBCFF6FF020EDBCFF7FF77
:10377000E750F626000EF7220800F550E66EC1EC81
:1037800022F0E552DF2ADDD7030EE15C02E2E16AB6
:10379000E552E16EE552E7CFD9FF1200D9CFE6FF3F
:1037A000E1CFD9FF030EE126FE0EEA6ADB34FE0B01
:1037B000EA36E96E000EE9260F0EEA22010EEECF80
:1037C000DBFF020EEDCFDBFFDF6ADF50E76E010E9D
:1037D000DBCFF6FF020EDBCFF7FFE750F626000E39
:1037E000F7220800F55014E0DF50E76E010EDBCF42
:1037F000F6FF020EDBCFF7FFE750F626000EF722AA
:103800000800F550E66EC1EC22F0E552DF2ADDD764
:10381000030EE15C02E2E16AE552E16EE552E7CFB8
:04382000D9FF1200BA
:0C382400DACFE4FFE2CFDAFFE9CFE4FFE7
:10383000EACFE4FFF6CFE4FFF7CFE4FFF5CFE4FFF4
:10384000F3CFE4FFF4CFE4FFFACFE4FF00EE00F0A3
:10385000140EE80403E3EECFE4FFFBD700EE14F010
:10386000040EE80403E3EECFE4FFFBD7E652D9CF22
:10387000E6FFE1CFD9FFE6527FEC28F0DF6E0D01C5
:103880008951892BEA6A8C0FE96E0D0EEA22DFCF8F
:10389000EFFF800E0D01895D02E30D01896B0D01C3
:1038A0008B2BA49AE552E552E7CFD9FFE55200EE03
:1038B00017F0040EE80403E3E5CFEDFFFBD700EEBD
:1038C00013F0140EE80403E3E5CFEDFFFBD7E5CFDB
:1038D000FAFFE5CFF4FFE5CFF3FFE5CFF5FFE5CF46
:1038E000F7FFE5CFF6FFE5CFEAFFE5CFE9FFE5CF4C
:1038F000DAFF1100DACFE4FFE2CFDAFFE9CFE4FF2D
:10390000EACFE4FFE652D9CFE6FFE1CFD9FFE65296
:103910000C01025104E1ACA2FED7AC9A21D00C01FB
:103920000151EA6A030FE96E0C0EEA22EFCFDFFFC6
:10393000DF50AD6E0C01012B800E0C01015D02E326
:103940000C01016B000E0C01E76E0219E8AE02D00B
:10395000023503D0E750D880025502E20C0102077D
:10396000E552E552E7CFD9FFE552E5CFEAFFE5CFD3
:10397000E9FFE5CFDAFF1100DACFE4FFE2CFDAFFAB
:10398000E9CFE4FFEACFE4FFE652D9CFE6FFE1CF8B
:10399000D9FFE6520D01085104E172A2FED7729AD6
:1039A00021D00D010751EA6A090FE96E0D0EEA22D6
:1039B000EFCFDFFFDF50736E0D01072B800E0D017F
:1039C000075D02E30D01076B000E0D01E76E08199C
:1039D000E8AE02D0083503D0E750D880085502E29F
:1039E0000D010807E552E552E7CFD9FFE552E5CFD3
:1039F000EAFFE5CFE9FFE5CFDAFF1100D9CFE6FF17
:103A0000E1CFD9FFE6527C0EDF6E0F0EE66EE66A5E
:103A1000DFCFE6FF99EC27F0E552E552E552AC8A9C
:103A2000AC9EE552E552E7CFD9FF1200D9CFE6FFB1
:103A3000E1CFD9FFE6527C0EDF6E670EE66EE66AD6
:103A4000DFCFE6FF5DEC27F0E552E552E552D08E80
:103A5000718E728A729EA38AA58AE552E552E7CFDB
:103A6000D9FF1200D9CFE6FFE1CFD9FFACA2FED734
:103A70000C010051002BEA6A030FE96E0C0EEA22DA
:103A8000FE0EDBCFEFFF0C01022B800E0C01005D60
:103A900002E30C01006B010E00D0E552E7CFD9FF25
:103AA0001200D9CFE6FFE1CFD9FF72A2FED70D01F8
:103AB0000651062BEA6A090FE96E0D0EEA22FE0E88
:103AC000DBCFEFFF0D01082B800E0D01065D02E339
:103AD0000D01066B010E00D0E552E7CFD9FF1200B1
:103AE000D9CFE6FFE1CFD9FF060EE126010EF36E36
:103AF000020EF3CFDBFF030EDB6A020EDBCF14F006
:103B0000DB06030EDBCF15F001E2DB0614501510C7
:103B100006E0040EE66E13EC29F0E552EED7000E37
:103B20000C01E76E0219E8AE02D0023503D0E7506F
:103B3000D880025528E20C010151EA6A030FE96EB0
:103B40000C0EEA22010EEFCFDBFFACA2FED7010E76
:103B5000DB50AD6EACA2FED70C01012B800E0C0128
:103B6000015D02E30C01016B000E0C01E76E02190E
:103B7000E8AE02D0023503D0E750D880025502E209
:103B80000C010207CCD7010EF36E040EF3CFDBFF5E
:103B9000050EDB6A040EDBCF14F0DB06050EDBCF6F
:103BA00015F001E2DB061450151006E0040EE66E77
:103BB00013EC29F0E552EED7146E060EE15C02E23A
:103BC000E16AE552E16E1450E552E7CFD9FF1200E9
:103BD000D9CFE6FFE1CFD9FF060EE126010EF36E45
:103BE000020EF3CFDBFF030EDB6A020EDBCF14F015
:103BF000DB06030EDBCF15F001E2DB0614501510D7
:103C000006E0040EE66E13EC29F0E552EED7000E46
:103C10000D01E76E0819E8AE02D0083503D0E75071
:103C2000D880085528E20D010751EA6A090FE96EAC
:103C30000D0EEA22010EEFCFDBFF72A2FED7010EBE
:103C4000DB50736E72A2FED70D01072B800E0D01A3
:103C5000075D02E30D01076B000E0D01E76E081909
:103C6000E8AE02D0083503D0E750D880085502E20C
:103C70000D010807CCD7010EF36E040EF3CFDBFF66
:103C8000050EDB6A040EDBCF14F0DB06050EDBCF7E
:103C900015F001E2DB061450151006E0040EE66E86
:103CA00013EC29F0E552EED7146E060EE15C02E249
:103CB000E16AE552E16E1450E552E7CFD9FF1200F8
:103CC000D9CFE6FFE1CFD9FFE652DF6AA39A000E13
:103CD0000D01E76E8B19E8AE02D08B3503D0E750AB
:103CE000D8808B5502E2010EDF6EA38ADF5000D030
:103CF000E552E552E7CFD9FF1200D9CFE6FFE1CF79
:103D0000D9FFE652DF6A9D9A000E0C01E76E851915
:103D1000E8AE02D0853503D0E750D880855502E261
:103D2000010EDF6E9D8ADF5000D0E552E552E7CFED
:103D3000D9FF1200D9CFE6FFE1CFD9FFE6529D9A15
:103D40000C018451842BEA6A860FE96E0C0EEA227C
:103D5000EFCFDFFF800E0C01845D02E30C01846B6A
:103D6000000E0C01E76E8519E8AE02D0853503D050
:103D7000E750D880855502E20C0185079D8ADF5007
:103D800000D0E552E552E7CFD9FF1200D9CFE6FFC8
:103D9000E1CFD9FFE652A39A0D018A518A2BEA6A34
:103DA0008C0FE96E0D0EEA22EFCFDFFF800E0D01C2
:103DB0008A5D02E30D018A6B000E0D01E76E8B191F
:103DC000E8AE02D08B3503D0E750D8808B5502E2A5
:103DD0000D018B079D8ADF5000D0E552E552E7CFF9
:043DE000D9FF1200F5
:0C3DE400D9CFE6FFE1CFD9FFFE0EDBCF08
:103DF00001FAFD0EDBCF02FAFC0EDBCF03FAFB0E5D
:103E0000DBCF04FAF90EDBCF09FBFA0EDBCF0AFB9E
:103E100004D8E552E7CFD9FF1200FEEC1CF00B01ED
:103E2000056B0B01066B0A01010E006F0B01076B9E
:103E30000B01FA0E086F0FCB0BFB10CB0CFB11CB59
:103E40000DFB12CB0EFB00CA13FB12000B01056B1E
:103E50000B01066B0A01010E006F0B01076B0B01D2
:103E6000FA0E086F0FCB0BFB10CB0CFB11CB0DFB2D
:103E700012CB0EFB00CA13FB1200D9CFE6FFE1CF35
:103E8000D9FF060EE126DF6AA2EC26F006C00FFB82
:103E900007C010FB08C011FB09C012FBABA207D082
:103EA000AB98040EE66E50EC29F0E552AB880B0E91
:103EB000E96E0B0EEA6EEE500B010F190CE1EE509D
:103EC0000B01101908E1EE500B01111904E1EE503D
:103ED0000B01121900E118E00A0100510B01135DFA
:103EE0000BE1020E0A01005D07E10B0108070B015F
:103EF000085102E192DFD3D00FCB0BFB10CB0CFBB0
:103F000011CB0DFB12CB0EFB0A010051030A01E19C
:103F1000BFD0010A18E0030A01E0BDD07DEC1EF01D
:103F2000000901E1BCD09AEC1EF0DF6E0A010151DC
:103F3000DF5C08E10B01056B0A01020E006F0B014B
:103F4000FA0E086FAAD07DEC1EF0000901E1A7D09F
:103F50009AEC1EF0DF6E0A010251DF5C01E07CD0BA
:103F6000020EDB6A030EDB68D950030FE66E000E0B
:103F7000DA20E66E9ED8E552E552E76E020EE7CFF4
:103F8000DBFF020EDB50020A58E0030A05E0010ADB
:103F900001E05DD05BDF83D00B0109510A114BE0DA
:103FA000D950040FE66E000EDA20E66E070EE66EBC
:103FB0000B0EE66E070EE66E0A0EE66E05D00ACB15
:103FC000FAFF0B010951F96EFADF146E060EE15E7D
:103FD00014500B01066F0A01FA0E856F0B01062BB8
:103FE00007CB86FA0B01062BDE52020EDD6E0B01AB
:103FF0000651F36E010EDBCFF4FFF350F45C1AE2CE
:10400000040EDBCFE9FF050EDBCFEAFFEF50E66ED3
:10401000010EDB50EA6A850FE96E0A0EEA22E552CC
:10402000E750EF6E040EDB2A050E01E3DB2A010EDA
:10403000DB2ADDD701D00ADF0BD00A01FA0E856F2B
:104040000B01062B07CB86FA0B01062B01D000D003
:104050000A01030E006F1BD00B010551052BEA6A04
:10406000050FE96E0A0EEA22DFCFEFFF800E0B018B
:10407000055D0DE30A01FA0E856F0B01062B0A019F
:10408000900E866F0B01062B0A01030E006F05D000
:1040900061D8DCDE02D0DADE00D000CA13FB060EE7
:1040A000E15C02E2E16AE552E16EE552E7CFD9FF59
:1040B0001200D9CFE6FFE1CFD9FF020EE1260B01B6
:1040C0000505EA6A050FE96E0A0EEA22EFCFDFFF67
:1040D000010EDB6AFA0E0A01055D06E0FA0E0A011E
:1040E000055D02E0000E2AD00B010505E66E050E07
:1040F000E66E0A0EE66E9CD8E552E552E552E76E92
:10410000010EE7CFDBFF010EDB50DF5C0DE10B01A1
:1041100005070B010551EA6A050FE96E0A0EEA224E
:10412000EF6A010E0BD00AD0FD0EDBCFE9FFFE0EC9
:10413000DBCFEAFF910EEF6E000E00D0146E020E80
:10414000E15C02E2E16AE552E16E1450E552E7CF2C
:10415000D9FF1200D9CFE6FFE1CFD9FF020EE12649
:10416000DF6A010EDB6A06CBE6FF850EE66E0A0EFD
:10417000E66E5ED8E552E552E552DF6E03CAE6FF11
:1041800032EC1DF0E552010EDB6A0B010651F36EB5
:10419000010EDBCFF4FFF350F45C0FE2010EDB50B5
:1041A000EA6A850FE96E0A0EEA22EF50E66E32ECFB
:1041B0001DF0E552010EDB2AE8D7DFCFE6FF32EC37
:1041C0001DF0E55204CAE6FF32EC1DF0E55270EC3A
:1041D0001DF0020EE15C02E2E16AE552E16EE55299
:1041E000E7CFD9FF1200D9CFE6FFE1CFD9FFFD0E0F
:1041F000DBCFF6FFFE0EDBCFF7FF0800F55012E035
:10420000FD0EDBCFF6FFFE0EDBCFF7FF0800F5500B
:10421000E66E32EC1DF0E552FD0EDB2AFE0E01E3E8
:10422000DB2AE5D770EC1DF0E552E7CFD9FF12008D
:10423000D9CFE6FFE1CFD9FF030EE126DF6A010EF9
:10424000DB6AFC0EDB50F36E010EDBCFF4FFF350A4
:10425000F45C12E2010EDB50E76EFD0EDBCFE9FFEE
:10426000FE0EDBCFEAFFE750E926000EEA22EF5010
:10427000DF1A010EDB2AE5D7DF5000D0146E030EE3
:10428000E15C02E2E16AE552E16E1450E552E7CFEB
:04429000D9FF120040
:0C429400D9CFE6FFE1CFD9FF030EE126F1
:1042A000300EF36E010EF3CFDBFF750EF36E020ED0
:1042B000F3CFDBFF010EDF6EDF0425E10ADA000039
:1042C00000008392838400000000838600000000C9
:1042D0008350800B01E0010EDF6E83968386000021
:1042E00000008396010EDB06020E01E2DB06D950C8
:1042F000010FE96EDACFEAFFEE50ED1003E1F1D9DC
:10430000FF0E04D0D9D7EDD9000E00D0146E030EE5
:10431000E15C02E2E16AE552E16E1450E552E7CF5A
:10432000D9FF1200D9CFE6FFE1CFD9FF8392839462
:104330000000FE0EDB50F00B146E0F0E8C141410E8
:104340008C6E00008386000000008396E552E7CF64
:10435000D9FF1200D9CFE6FFE1CFD9FF9BDF8392CF
:1043600083940000FE0EDB50F00B146E0F0E8C14C5
:1043700014108C6E00008386000000008396FE0EF1
:10438000DB38F00BF00B146E0F0E8C1414108C6EC7
:1043900000008386000000008396E552E7CFD9FF36
:1043A0001200D9CFE6FFE1CFD9FF74DF8382839477
:1043B0000000FE0EDB50F00B146E0F0E8C14141068
:1043C0008C6E00008386000000008396FE0EDB38B2
:1043D000F00BF00B146E0F0E8C1414108C6E00008A
:1043E0008386000000008396E552E7CFD9FF1200D4
:1043F000D9CFE6FFE1CFD9FF0B0EE12672D9280E07
:10440000F36E010EF3CFDBFF020EDB6A010EDBCF92
:1044100014F0DB06020EDBCF15F001E2DB061450D0
:10442000151006E0040EE66E13EC29F0E552EED707
:10443000300EE66E77DFE5520A0EF36E030EF3CF11
:10444000DBFF040EDB6A030EDBCF14F0DB06040E89
:10445000DBCF15F001E2DB061450151006E0040E68
:10446000E66E13EC29F0E552EED7300EE66E5ADF19
:10447000E5520A0EF36E050EF3CFDBFF060EDB6A84
:10448000050EDBCF14F0DB06060EDBCF15F001E2E4
:10449000DB061450151006E0040EE66E13EC29F04E
:1044A000E552EED7300EE66E3DDFE5520A0EF36EB2
:1044B000070EF3CFDBFF080EDB6A070EDBCF14F02D
:1044C000DB06080EDBCF15F001E2DB0614501510F9
:1044D00006E0040EE66E13EC29F0E552EED7200E4E
:1044E000E66E20DFE5520A0EF36E090EF3CFDBFF16
:1044F0000A0EDB6A090EDBCF14F0DB060A0EDBCFF7
:1045000015F001E2DB061450151006E0040EE66E0D
:1045100013EC29F0E552EED7280EE66E1BDFE552CC
:10452000B9DEDF6EDF5010E10F0EE66E13DFE552ED
:10453000010EE66E0FDFE552040EE66E0BDFE5526C
:10454000060EE66E07DFE55200D00B0EE15C02E2DC
:10455000E16AE552E16EE552E7CFD9FF1200D9CF0B
:10456000E6FFE1CFD9FFFE0EDBCF82F5E552E7CFC4
:10457000D9FF1200010EE66EEDDEE5520501816BFA
:104580001200D9CFE6FFE1CFD9FFE652FE0EDB5095
:104590000501825D25E10501815101E13BD0100E4D
:1045A0000501815D0EE1800EE66ED4DEE552DF6A24
:1045B000100EDF5C06E2140EE66ECCDEE552DF2A5A
:1045C000F7D7100EE66EC6DEE552200EE66EE9DE87
:1045D000E552100EE66EBEDEE552050181071AD0E7
:1045E000100E0501815D05E1C00EE66EB3DEE552F9
:1045F0000AD0200E0501815D06E30501816B020EE4
:10460000E66EA8DEE552FE0EDBCFE6FFCADEE5521F
:104610000501812BE552E552E7CFD9FF1200E8DE14
:10462000010EE66E97DEE5520501816B1200D9CFCF
:10463000E6FFE1CFD9FFE652010EE66E8BDEE552D2
:10464000DF6A100EDF5C1CE2FD0EDBCFE9FFFE0E21
:10465000DBCFEAFFEF50E66EDF50EA6A830FE96EC8
:10466000050EEA22E552E750EF6EFD0EDBCFE9FFC3
:10467000DB2AFE0EDBCFEAFF01E3DB2ADF2AE1D7EC
:10468000C00EE66E67DEE552DF6A100EDF5C1CE2EC
:10469000FD0EDBCFE9FFFE0EDBCFEAFFEF50E66E4B
:1046A000DF50EA6A830FE96E050EEA22E552E75011
:1046B000EF6EFD0EDBCFE9FFDB2AFE0EDBCFEAFF5C
:1046C00001E3DB2ADF2AE1D7E552E552E7CFD9FF44
:1046D0001200958E958C958A9588959695949592CD
:1046E0001200959E959C959A95989596959495927D
:0246F0001200B6
:0E46F20005017B6B05017C6B05014C6B05011E
:104700004D6B05014E6B05014F690501506B1200A1
:10471000D9CFE6FFE1CFD9FF020EE12605017E2BBE
:10472000000E7F23D9CFE6FFDACFE6FF8FD8E55220
:10473000E552000901E130D005017B5105017C5DA6
:1047400004E105017C6B05017B6B05017C51E96E81
:10475000EA6AD890E936EA36510EE926050EEA22D1
:10476000DFCFEFFF05017C51E96EEA6AD890E936A8
:10477000EA36510EE926050EEA22010EE926000E60
:10478000EA227EC5EFFF140E05017C5D02E2050101
:104790007C2B05017E6B7F6B020EE15C02E2E16A1D
:1047A000E552E16EE552E7CFD9FF1200D9CFE6FF1F
:1047B000E1CFD9FF05017C5105017B5D34E20501A4
:1047C0007B51E96EEA6AD890E936EA36510EE9265D
:1047D000050EEA22EF50E66EFD0EDBCFE9FFFE0E7E
:1047E000DBCFEAFFE552E750EF6E05017B51E96E42
:1047F000EA6AD890E936EA36510EE926050EEA2231
:10480000010EE926000EEA22EF50E66EFB0EDBCF2A
:10481000E9FFFC0EDBCFEAFFE552E750EF6E050142
:104820007B2B010E02D0000E00D0E552E7CFD9FF5E
:10483000120005017C6B05017B6B05014C6B0501CA
:104840004D6B05014E6B05014F691200D9CFE6FF94
:10485000E1CFD9FFE652DF68010E146E8150800B64
:1048600001E0010E145C70E18150200B01E0010EAB
:10487000166E8150040B01E0010EE824156E815084
:10488000100B01E0010E040DF3CF14F08150080B62
:1048900001E0010E080DF3501410151016100F0B47
:1048A000DF6EDF500F0A4BE0010A46E0030A41E0E9
:1048B000010A3CE0070A37E0010A32E0030A2EE071
:1048C000010A29E00F0A24E0010A1FE0030A1AE0A6
:1048D000010A15E0070A10E0010A0BE0030A06E0EE
:1048E000010A01E02FD0050EDF6E2ED0060EDF6E1E
:1048F0002BD0090EDF6E28D00A0EDF6E25D0020EF7
:10490000DF6E22D0010EDF6E1FD0030EDF6E1CD0D3
:10491000070EDF6E19D0040EDF6E16D0DF6A14D0DA
:104920000B0EDF6E11D00F0EDF6E0ED00C0EDF6E91
:104930000BD0080EDF6E08D00E0EDF6E05D00D0E08
:10494000DF6E02D0DF6800D0FF0EDF5C06E10501FC
:10495000806905017D69000E18D005018051DF5C7A
:1049600010E105017D51DF5C0CE0FD0EDBCFE9FFBE
:10497000FE0EDBCFEAFFDFCFEFFFDFCF7DF5010ECD
:1049800004D0DFCF80F5000E00D0E552E552E7CF2E
:04499000D9FF120039
:0C499400DACFE4FFE2CFDAFFE9CFE4FF66
:1049A000EACFE4FFF6CFE4FFF7CFE4FFF5CFE4FF73
:1049B000F3CFE4FFF4CFE4FFFACFE4FF00EE00F022
:1049C000140EE80403E3EECFE4FFFBD700EE14F08F
:1049D000040EE80403E3EECFE4FFFBD7E652F294C3
:1049E0000501282B000E292305012A2B000E2B235D
:1049F00005012C2B000E2D2305012E2B000E2F233D
:104A00000501302B000E312305013207000E335B08
:104A10000501333504E232510008000E33550AE334
:104A20000501342B000E352336233723C80E05012C
:104A3000326F336B05011C511D1107E005D01DC5F8
:104A4000FAFF05011C51F96EFADF1AC5E6FF1BC516
:104A5000E6FFDBEC28F0E552E552E55200EE17F0F8
:104A6000040EE80403E3E5CFEDFFFBD700EE13F0FF
:104A7000140EE80403E3E5CFEDFFFBD7E5CFFAFF23
:104A8000E5CFF4FFE5CFF3FFE5CFF5FFE5CFF7FF87
:104A9000E5CFF6FFE5CFEAFFE5CFE9FFE5CFDAFFA7
:104AA0001100DACFE4FFE2CFDAFFE9CFE4FFEACF8B
:104AB000E4FFF6CFE4FFF7CFE4FFF5CFE4FFF3CF59
:104AC000E4FFF4CFE4FFFACFE4FF00EE00F0140EB1
:104AD000E80403E3EECFE4FFFBD700EE14F0040E8E
:104AE000E80403E3EECFE4FFFBD7E652D9CFE6FFBD
:104AF000E1CFD9FFE6529EEC28F0DF6E0C01835126
:104B0000832BEA6A860FE96E0C0EEA22DFCFEFFFF5
:104B1000800E0C01835D02E30C01836B0C01852B7D
:104B20009E9AE552E552E7CFD9FFE55200EE17F025
:104B3000040EE80403E3E5CFEDFFFBD700EE13F02E
:104B4000140EE80403E3E5CFEDFFFBD7E5CFFAFF52
:104B5000E5CFF4FFE5CFF3FFE5CFF5FFE5CFF7FFB6
:104B6000E5CFF6FFE5CFEAFFE5CFE9FFE5CFDAFFD6
:024B7000110032
:0E4B7200FE0EE3CFE9FFFF0EE3CFEAFFE9CF2F
:104B8000F3FFEACFF4FFFB0EE35003E1FC0EE3502A
:104B900009E0FB0EE30602E2FC0EE306FD0EE35025
:104BA000EE6EF1D71200D9CFE6FFDACFE6FFFA0EAC
:104BB000E3CFD9FFFB0EE3CFDAFFFC0EE3CFE9FF33
:104BC000FD0EE3CFEAFFDE50EF5C02E1EE66FBD7BD
:104BD000F36EFF0EE3CFDAFFE552FF0EE3CFD9FF0E
:104BE000E552F3501200D9CFE6FFDACFE6FFFA0E16
:104BF000E3CFD9FFFB0EE3CFDAFFFC0EE3CFE9FFF3
:104C0000FD0EE3CFEAFFE9CFF3FFEACFF4FFDECFFB
:104C1000EFFFEE66FCD7FF0EE3CFDAFFE552FF0EA3
:104C2000E3CFD9FFE5521200FE0EE3CFE9FFFF0EFE
:104C3000E3CFEAFFF36AF46AEE5203E0F34AF42AA0
:044C4000FBD712008C
:0C4C4400D9CFE6FFE1CFD9FFE6525DECCE
:104C500028F0000EE66EE66AE00EE66EB10EE66E35
:104C60007EEC26F0E552E552E552E5520FEC23F0DA
:104C700079EC23F001EC16F059EC00F011EC00F0A7
:104C80000501640E285D000E295905E336EC29F074
:104C90000501286B296B0501080E2A5D000E2B59B2
:104CA00005E388EC23F005012A6B2B6B0501020E4E
:104CB0002C5D000E2D5905E33DEC1FF005012C6B1A
:104CC0002D6B0501F40E2E5D010E2F5905E393ECBB
:104CD00002F005012E6B2F6B0501280E305D000ED2
:104CE000315905E30FEC16F00501306B316B040010
:0C4CF000C7D7E552E552E7CFD9FF12000C
:044CFC00D9CFE6FF27
:104D0000E1CFD9FF9F0EE66EF7EC28F0E552FD0EDD
:104D1000DBCF1AF5FE0EDBCF1BF5FB0EDBCF1CF550
:104D2000FC0EDBCF1DF5F194FD0EDBCFE6FFFE0E92
:104D3000DBCFE6FFDBEC28F0E552E552E552E7CFAA
:104D4000D9FF1200D9CFE6FFE1CFD9FF040EE1264B
:104D5000F29A34C5DFFF010E35C5DBFF020E36C502
:104D6000DBFF030E37C5DBFFF28ADECF06F0DECFB6
:104D700007F0DECF08F0DDCF09F0DD52DD5200D0C4
:104D8000040EE15C02E2E16AE552E16EE552E7CF32
:104D9000D9FF1200F29E0501346B356B366B376B11
:044DA000F28E12007D
:0C4DA4002C0EF66E000EF76E000EF86E7E
:104DB0000F010900F5501B6F0900F5501C6F03E14E
:104DC0001B6701D03DD00900F550166F0900F55062
:104DD000176F0900F550186F09000900F550E96ECA
:104DE0000900F550EA6E090009000900F550196F35
:104DF0000900F5501A6F09000900F6CF1DFFF7CF23
:104E00001EFFF8CF1FFF16CFF6FF17CFF7FF18CF03
:104E1000F8FF0F01195302E11A5307E00900F5509A
:104E2000EE6E1907F8E21A07F9D71DCFF6FF1ECF6D
:104E3000F7FF1FCFF8FF0F011B07000E1C5BBFD74A
:024E400012005E
:0E4E4200D9CFE6FFDACFE6FFE1CFD9FFE2CF0E
:104E5000DAFFE652DF6AFD0EDBCF15F015C014F065
:104E6000030E1514AA6EFF0EE76EFC0EDBCF14F0D6
:104E7000E7501416156A1450A96EFB0EDB50A86E8D
:104E8000A69EA69CA684F250800B01E0010EDF6E68
:104E9000F29E550EA76EAA0EA76EA682A6B2FED7E8
:104EA000DF50E8B0F28EE8A0F29EA694E552E552FB
:0A4EB000E5CFDAFFE7CFD9FF1200CB
:064EBA00D9CFE6FFDACFBC
:104EC000E6FFE1CFD9FFE2CFDAFF726A716AFD0E29
:104ED000DBB07288DBA202D0728C718CDBB4728E74
:104EE000DBA602D0718801D0718ADBA802D072845F
:104EF00001D07294DBBA7186DBAC02D0A38A01D0F8
:104F0000A39ADBAE02D0A38801D0A398FB0EDB509E
:104F1000756EFC0EDBCF15F015C014F0156A145039
:104F2000766E728A718EE552E5CFDAFFE7CFD9FF50
:024F300012006D
:0E4F3200D9CFE6FFDACFE6FFE1CFD9FFE2CF1D
:104F4000DAFFAC6AAB6AFD0EDBB0AC88DBA202D044
:104F5000AC8CAB8CDBB4AC8EDBA602D0AB8801D0C2
:104F6000AB8ADBB8AC84DBBAAB86DBAC02D09D8A03
:104F700001D09D9ADBAE02D09D8801D09D98FB0E9A
:104F8000DB50AF6EFC0EDBCF15F015C014F0156AC8
:104F90001450B06EAC8AAB8EE552E5CFDAFFE7CFA6
:044FA000D9FF120023
:0C4FA400434C454152204953535545539E
:104FB0000041444D494E2041435449564954593AC1
:104FC0000050415353574F52443A005041525420DD
:104FD0004E4F3A00534146455459004F54484552AC
:104FE00053004D4154455249414C005155414C49A3
:104FF000545900425245414B444F574E0049535378
:0D50000055453A0053544154494F4E3A0073
:02500E00D9CFF8
:10501000E6FFDACFE6FFE1CFD9FFE2CFDAFFFC0E01
:10502000DBCF14F0FD0EDBCF15F015C014F0156AC0
:10503000030E1414AA6EFF0EE76EFC0EDBCF14F005
:10504000FD0EDBCF15F0E7501416156A1450A96E4B
:10505000A69CA69EA68000000000A85000D0E552A5
:0A506000E5CFDAFFE7CFD9FF120019
:06506A00312D312D313221
:105070004142433233444546330B0B0B0B0B344751
:10508000484934354A4B4C35364D4E4F360C0C0C96
:105090000C0C3750515253385455563839575859CB
:1050A0005A08080808082A2A2A2A2A3020302030DC
:0A50B00013131313130A0A0A0A0A65
:0650BA00C26A0F01386B11
:1050C0000F01396B0F013A6B0F013B6B0F013C6B0A
:1050D000700ED36E96908490949C948E959E959C21
:1050E000959A9598959695949592816892968096C2
:0E50F0009290809092948094929280921200FE
:0250FE00D9CF08
:10510000E6FFDACFE6FFE1CFD9FFE2CFDAFFE652E2
:10511000F20E0F01221771AC03D0229171B02281DF
:1051200071B4228571B222877450DF6EDF50E55270
:0C513000E552E5CFDAFFE7CFD9FF12000F
:04513C00D9CFE6FFE2
:10514000DACFE6FFE1CFD9FFE2CFDAFFE652F20E87
:105150000F012317ABAC03D02391ABB02381ABB4C9
:105160002385ABB22387AE50DF6EDF50E552E552A8
:0A517000E5CFDAFFE7CFD9FF120008
:06517A0008C012F008500D
:105180000D02F4CF07F0F3CF06F009500E02F4CF72
:1051900009F0F3CF08F00D02F3500726F45008226F
:1051A000E86A092212500E02F3500726F450082232
:0651B000E86A0922000C70
:0A51B600D9CFE6FFDACFE6FFE1CF24
:1051C000D9FFE2CFDAFFE652E652FC0EDBCFDEFF7C
:1051D000DBCFDDFF010EDB50D76EDF50D66EE55220
:0E51E000E552E552E5CFDAFFE7CFD9FF120026
:0251EE00D9CF17
:1051F000E6FFDACFE6FFE1CFD9FFE2CFDAFFFD0E1F
:10520000DB507F0BD56ED76AD66AF294FD0EDBAE0B
:1052100002D0F28A01D0F29AD58EE552E5CFDAFFBC
:06522000E7CFD9FF1200E8
:0A522600FF0EE350186E480E01D091
:105230004C0EE76EE72EFED7E76AE72EFED7182E54
:06524000F7D70000120088
:0A524600380EF36E00EE00F00F0EBC
:1052500001D81200EA6002D0EE6AFCD7F350E96090
:065260001200EE6AFCD70B
:0A5266000F01256B12000F01250552
:1052700004E10F01256B849004D00F01010E256F0E
:045280008480120014
:0C52840010EE60F020EE60F0F86A019C73
:10529000D2EC26F064EC29F022EC26F0FBD71200C9
:1052A000FF0EE350E84E1200000000D000D000D006
:0652B000E82EFAD71200FF
:0A52B60020202020202020202020AE
:0752C0002020202020200027
:0152C70000E6
:0252C8001200D2
:0652CA00000000000000DE
:1052D00000000000000000000000000000000000CE
:1052E0000000000000000000000000000000FF00BF
:1052F00000000000000000000000000000000000AE
:10530000000000000000000000000000000000009D
:10531000000000000000000000000000000000008D
:10532000000000000000000000000000000000007D
:105330000000FF000000000000000000000000006E
:10534000000000000000000000000000000000005D
:04535000000000FF5A
:0C5354000000000000000000000000004D
:10536000000000000000000000000000000000003D
:10537000000000000000000000000000000000002D
:10538000000000000000000000000000000000001D
:10539000000000000000000000000000000000000D
:1053A00000000000000000000000000000000000FD
:1053B00000000000000000000000000000000000ED
:1053C00000000000000000000000000000000000DD
:1053D00000000000000000000000000000000000CD
:1053E00000000000000000000000000000000000BD
:1053F00000000000000000000000000000000000AD
:10540000000000000000000000000000000000009C
:10541000000000000000000000000000000000008C
:10542000000000000000000000000000000000007C
:10543000000000000000000000000000000000006C
:10544000000000000000000000000000000000005C
:0A5450000000000000000000000052
:06545A000000000000004C
:10546000000000000000000000000000000000003C
:085470000000C800000000006C
:0854780000000000000000002C
:10548000000000000000000000000000000000001C
:10549000000000000000000000000000000000000C
:1054A00000000000000000000000000000000000FC
:0357FD00000000A9
:105800000000000000000000000000000000000098
:0F58100000000000000000000000000000000089
:01581F000088
:105820000000000000000000000000000000000078
:105830000000000000000000000000000000000068
:105840000000000000000000000000000000000058
:105850000000000000000000000000000000000048
:0858600000000000FF0000FF42
:08586800000000000000000038
:105870000000000000000000000000000000000028
:105880000000000000000000000000000000000018
:105890000000000000000000000000000000000008
:1058A00000000000000000000000000000000000F8
:1058B00000000000000000000000000000000000E8
:1058C00000000000000000000000000000000000D8
:1058D00000000000000000000000000000000000C8
:1058E00000000000000000000000000000000000B8
:1058F00000000000000000000000000000000000A8
:105900000000000000000000000000000000000097
:105910000000000000000000000000000000000087
:105920000000000000000000000000000000000077
:105930000000000000000000000000000000000067
:105940000000000000000000000000000000000057
:105950000000000000000000000000000000000047
:105960000000000000000000000000000000000037
:0C5970000000000000000000000000002B
:04597C000000000027
:105980000000000000000000000000000000000017
:105990000000000000000000000000000000000007
:1059A00000000000000000000000000000000000F7
:1059B00000000000000000000000000000000000E7
:065D90000000000000000D
:025D9600FFFF0D
:085D98000450FD4FF34FEB4FE7
:0E5DA000E24FDB4FD44FCB4FC14FB14FA44F5A
:020000040030CA
:0100010008F6
:0100020001FC
:0100030024D8
:01000500BD3D
:010006008079
:010008000FE8
:01000900C036
:01000A000FE6
:01000B00E014
:01000C000FE4
:01000D0040B2
:00000001FF
