:020000040000FA
:060000008FEF2BF012004F
:020006002C01CB
:080008009EAA02D040EF27F090
:020010001200DC
:06001200A6B2FED71200A9
:08001800F2A402D0B9EF26F0BA
:0C0020001200D08E9F8AF28EF28C12002B
:04002C000B001C5F4A
:100030000000400E0000B80000001A5F0000F80E3B
:1000400000000200000061570000FD0E00000100EA
:100050000000575C000000010000C3020000435B89
:1000600000000009000014010000FA5A00008B0D86
:10007000000049000000D85A00001E0E00002200B7
:1000800000001359000000060000C5010000F558EB
:100090000000000E00001E000000EF570000000BE3
:1000A00000000601000064570000000D00008B00F6
:0200B00000004E
:0E00B200D9CFE6FFE1CFD9FF0A0EE126050EF9
:1000C000DB6A060EDB6A070EDB6A080EDB6A090EC6
:1000D000DB6A0101036B046B056B066B0101076BA7
:1000E000086B096B0A6B0601046BDE6ADD6ADECF02
:1000F00014F0DDCF15F0140E145C000E155801E35A
:10010000AED0DECF14F0DDCF15F0210E1502F3CF07
:1001100015F0210E1402F3CF14F0F4501526170E2B
:100120001426010E1522030E14C0DBFF040E15C0A9
:10013000DBFF020EDB6A210EF36E020EDBCFF4FF53
:10014000F350F45C35E209EC00F00400020EDB50E1
:10015000166E176A210E086E096ADECF0DF0DDCF2C
:100160000EF04FEC29F006501624146E075017209D
:10017000156E14C0E6FF15C0E6FF5CEC2AF0E552F0
:10018000E552E66E020EDB50E76E030EDBCFE9FFB1
:10019000040EDBCFEAFFE750E926000EEA22E55223
:1001A000E750EF6E09EC00F00400020EDB2AC3D723
:1001B000DECFE9FFDDCFEAFF210EEA02F3CFEAFF4F
:1001C000210EE902F3CFE9FFF450EA26170EE926E3
:1001D000010EEA221E0EE926000EEA22EF0402E1D9
:1001E0000101012BDECFE9FFDDCFEAFF210EEA029C
:1001F000F3CFEAFF210EE902F3CFE9FFF450EA263C
:10020000170EE926010EEA221E0EE926000EEA224A
:10021000EF50030802E10101022BDECFE9FFDDCF41
:10022000EAFF210EEA02F3CFEAFF210EE902F3CF43
:10023000E9FFF450EA26170EE926010EEA221F0E06
:10024000E926000EEA22EF0405E1010EF36E050E29
:10025000F3CFDBFFDF2A010E01E3DB2A48D70101E0
:100260000251000806E2010EF36E080EF3CFDBFF29
:100270000FD001010151000806E2010EF36E070ED6
:10028000F3CFDBFF05D0010EF36E060EF3CFDBFFDD
:10029000050EDB0405E1010EF36E090EF3CFDBFF63
:1002A0000101310E0D6F0101300E0E6F0101300E94
:1002B0000F6F0101330E106F0101116B0301060E68
:1002C000AD6F09EC00F00400E66AE66AE66AE66AE9
:1002D000A0EC11F0E552E552E552E55231D80301A8
:1002E000010EAB6F090EDBCFE6FF080EDBCFE6FF9A
:1002F000070EDBCFE6FF060EDBCFE6FFA0EC11F02A
:10030000E552E552E552E552840EE66E280EE66EA1
:10031000DD0EE66ECC0EE66EBB0EE66EAA0EE66E47
:10032000E1EC20F0146E060EE15E14500A0EE15C62
:1003300002E2E16AE552E16EE552E7CFD9FF120031
:10034000D9CFE6FFE1CFD9FF050EE126DF6A010E26
:10035000DB6A020EDB6A030EDB6A01010251000850
:1003600009E20101030E006F010EF36E020EF3CFDE
:10037000DBFF11D001010151000807E20101010E6C
:10038000006FDE52010EDD6E06D00101006B010E22
:10039000DF6E030EDB6A040EDB6A040EDB50146EA4
:1003A000156AD890155004E6140E145C000E15580A
:1003B0001AE2040EDB50210DF3CFE9FFF4CFEAFF80
:1003C000170EE926010EEA221F0EE926000EEA2288
:1003D000EF0406E1010EF36E030EF3CFDBFF03D053
:1003E000040EDB2ADAD7030EDBCFE6FF020EDBCFEB
:1003F000E6FF010EDBCFE6FFDFCFE6FFA0EC11F05A
:10040000E552E552E552E552050EE15C02E2E16A91
:10041000E552E16EE552E7CFD9FF1200D9CFE6FFF2
:10042000E1CFD9FF050EE126DF6A010EDB6A020E7D
:10043000DB6A030EDB6A01010251000809E20101D7
:10044000030E006F010EF36E020EF3CFDBFF11D02F
:1004500001010151000807E20101010E006FDE52A7
:10046000010EDD6E06D00101006B010EDF6E030E82
:10047000DB6A030EDBCFE6FF020EDBCFE6FF010EE9
:10048000DBCFE6FFDFCFE6FFA0EC11F0E552E5524F
:10049000E552E5520301010EAB6F010E00D0146E60
:1004A000050EE15C02E2E16AE552E16E1450E552AC
:1004B000E7CFD9FF1200D9CFE6FFE1CFD9FF050E74
:1004C000E126DF6A010EDB6A020EDB6A030EDB6ADD
:1004D000FD0EDBCFE6FFFE0EDBCFE6FF120EE66E73
:1004E000010EE66EC2EC27F0E552E552E552E55208
:1004F000000902E0000E1FD0030EDBCFE6FF020E64
:10050000DBCFE6FF010EDBCFE6FFDFCFE6FFA0EC9F
:1005100011F0E552E552E552E552FB0EDBCFE6FF66
:10052000FC0EDBCFE6FF46EC11F0E552E55203018D
:10053000AB6B010E00D0146E050EE15C02E2E16AC5
:10054000E552E16E1450E552E7CFD9FF1200D9CF42
:10055000E6FFE1CFD9FF090EE126010EF36E080E8A
:10056000F3CFDBFFAAEC28F006C007F107C008F1C3
:1005700008C009F109C00AF1030EE96E010EEA6E26
:10058000EE50010107190CE1EE500101081908E1D4
:10059000EE500101091904E1EE5001010A1900E1D0
:1005A00001E1C3D007C103F108C104F109C105F19C
:1005B0000AC106F1DF6ADF50146E156AD890155033
:1005C00004E6140E145C000E155801E3A4D0DF50AD
:1005D000210DF3CFE9FFF4CFEAFF170EE926010E54
:1005E000EA221E0EE926000EEA22EF0401E091D075
:1005F000DF50210DF3CFE9FFF4CFEAFF170EE92614
:10060000010EEA221C0EE926000EEA22EE06000E7A
:10061000ED5ADF50210DF3CFE9FFF4CFEAFF170EBB
:10062000E926010EEA221C0EE926000EEA22E9CF95
:1006300014F0EACF15F0010E14C0DBFF020E15C056
:10064000DBFF010EDBCFE9FF020EDBCFEAFF030E7B
:10065000EFCFDBFF210EDF02F3501C0F146E040EF0
:1006600014C0DBFF050EDB6A060EDB6A070EDB6AD1
:10067000010EDBCFE9FF020EDBCFEAFFEF50E66EA3
:10068000210EDF02F3501C0FE66EE66AABEC29F098
:10069000E552E552E55209EC00F00400010EE76E68
:1006A000010EDBCFE9FF020EDBCFEAFFE750E926C0
:1006B000000EEA22030EEFCFDBFF210EDF02F35024
:1006C0001C0F010F146E040E14C0DBFF050EDB6A55
:1006D000060EDB6A070EDB6A010EE76E010EDBCF4A
:1006E000E9FF020EDBCFEAFFE750E926000EEA221F
:1006F000EF50E66E210EDF02F3501C0F010FE66E85
:10070000E66AABEC29F0E552E552E55209EC00F05F
:100710000400DF2A50D77AEC12F0010806E1808449
:100720000101015102E180928090090EE15C02E238
:10073000E16AE552E16EE552E7CFD9FF1200D9CF69
:10074000E6FFE1CFD9FF050EE126FD0EDBCFE9FF85
:10075000FE0EDBCFEAFF200EE926000EEA22EF288C
:10076000DF6E010EDB6A020EDB6ADF50146E156A63
:10077000D890155004E6140E145C000E155801E3D1
:10078000DF6AFD0EDBCFE9FFFE0EDBCFEAFF200EB6
:10079000E926000EEA22EF68030EDB6A030EDB5047
:1007A000146E156AD890155004E6140E145C000EF1
:1007B000155801E331D3DF50146E156A140E0D6E17
:1007C0000E6A14C008F015C009F029EC29F004C025
:1007D00014F005C015F01450DF6EDF50210DF3CF7B
:1007E000E9FFF4CFEAFF170EE926010EEA221E0EFA
:1007F000E926000EEA22EF5010E0DF50210DF3CF82
:10080000E9FFF4CFEAFF170EE926010EEA221F0ED8
:10081000E926000EEA22EF5001E1FAD2FD0EDBCF0D
:10082000E9FFFE0EDBCFEAFFE9CF14F0EACF15F0C7
:10083000010EDBCFF3FFDB2AF3500F011424E96E26
:10084000000E1520EA6E530EEF6EFD0EDBCFE9FFB2
:10085000FE0EDBCFEAFFE9CF14F0EACF15F0010E70
:10086000DBCFF3FFDB2AF3500F011424E96E000EF7
:100870001520EA6E540EEF6EFD0EDBCFE9FFFE0E83
:10088000DBCFEAFFE9CF14F0EACF15F0010EDBCFA2
:10089000F3FFDB2AF3500F011424E96E000E15203C
:1008A000EA6E4E0EEF6EFD0EDBCFE9FFFE0EDBCFE4
:1008B000EAFFE9CF14F0EACF15F0010EDBCFF3FF2A
:1008C000DB2AF3500F011424E96E000E1520EA6EA6
:1008D0003A0EEF6EDF50210DF3CFE9FFF4CFEAFFC0
:1008E000170EE926010EEA22E9CF16F0EACF17F03B
:1008F000020EDBCFF3FFDB2AF3500F011624E96E63
:10090000000E1720EA6EEF50E66EFD0EDBCFE9FF1A
:10091000FE0EDBCFEAFFE9CF14F0EACF15F0010EAF
:10092000DBCFF3FFDB2AF3500F011424E96E000E36
:100930001520EA6EE552E750EF6EDF50210DF3CF40
:10094000E9FFF4CFEAFF170EE926010EEA22E9CF0C
:1009500016F0EACF17F0020EDBCFF3FFDB2AF350DD
:100960000F011624E96E000E1720EA6EEF50E66EB6
:10097000FD0EDBCFE9FFFE0EDBCFEAFFE9CF14F07F
:10098000EACF15F0010EDBCFF3FFDB2AF3500F01A6
:100990001424E96E000E1520EA6EE552E750EF6E62
:1009A000FD0EDBCFE9FFFE0EDBCFEAFFE9CF14F04F
:1009B000EACF15F0010EDBCFF3FFDB2AF3500F0176
:1009C0001424E96E000E1520EA6E3B0EEF6EDF5028
:1009D000210DF3CFE9FFF4CFEAFF170EE926010E50
:1009E000EA22200EE926000EEA22EF0464E1FD0E61
:1009F000DBCFE9FFFE0EDBCFEAFFE9CF14F0EACF51
:100A000015F0010EDBCFF3FFDB2AF3500F011424A6
:100A1000E96E000E1520EA6E230EEF6E020EDB2A41
:100A2000DF50210DF3CFE9FFF4CFEAFF170EE926DF
:100A3000010EEA22E9CF14F0EACF15F0020EDB50E6
:100A40000F011424E96E000E1520EA6EEF5032E01B
:100A5000DF50210DF3CFE9FFF4CFEAFF170EE926AF
:100A6000010EEA22E9CF16F0EACF17F0020EDB50B2
:100A70000F011624E96E000E1720EA6EEF50E66EA5
:100A8000FD0EDBCFE9FFFE0EDBCFEAFFE9CF14F06E
:100A9000EACF15F0010EDB500F011424E96E000EB1
:100AA0001520EA6EE552E750EF6E010EDB2A020ECA
:100AB000DB2AB6D78BD1DF50210DF3CFE9FFF4CF7E
:100AC000EAFF170EE926010EEA22200EE926000EA3
:100AD000EA22EF50020801E012D1020EDB2AFD0EDD
:100AE000DBCFE9FFFE0EDBCFEAFFE9CF14F0EACF60
:100AF00015F0010EDBCFF3FFDB2AF3500F011424B6
:100B0000E96E000E1520EA6E530EEF6EFD0EDBCF80
:100B1000E9FFFE0EDBCFEAFFE9CF14F0EACF15F0D4
:100B2000010EDBCFF3FFDB2AF3500F011424E96E33
:100B3000000E1520EA6E410EEF6EFD0EDBCFE9FFD1
:100B4000FE0EDBCFEAFFE9CF14F0EACF15F0010E7D
:100B5000DBCFF3FFDB2AF3500F011424E96E000E04
:100B60001520EA6E460EEF6EFD0EDBCFE9FFFE0E9E
:100B7000DBCFEAFFE9CF14F0EACF15F0010EDBCFAF
:100B8000F3FFDB2AF3500F011424E96E000E152049
:100B9000EA6E450EEF6EFD0EDBCFE9FFFE0EDBCFFA
:100BA000EAFFE9CF14F0EACF15F0010EDBCFF3FF37
:100BB000DB2AF3500F011424E96E000E1520EA6EB3
:100BC000540EEF6EFD0EDBCFE9FFFE0EDBCFEAFF2A
:100BD000E9CF14F0EACF15F0010EDBCFF3FFDB2AEB
:100BE000F3500F011424E96E000E1520EA6E590E21
:100BF000EF6EFD0EDBCFE9FFFE0EDBCFEAFFE9CFA4
:100C000014F0EACF15F0010EDBCFF3FFDB2AF3502F
:100C10000F011424E96E000E1520EA6E3A0EEF6EF5
:100C2000DF50210DF3CFE9FFF4CFEAFF170EE926DD
:100C3000010EEA22E9CF17F0EACF18F0020EDB50DE
:100C40000F011724E96E000E1820EA6EEF50D00F46
:100C5000E96EEA6AD890E936EA364E0EE9260E0EBB
:100C6000EA22EECF14F0EFCF15F0166A14C0E6FFBB
:100C700015C0E6FF16C0E6FFFD0EDBCFE9FFFE0E56
:100C8000DBCFEAFFE9CF1BF0EACF1CF0010EDB500F
:100C900000011B24196E000E1C201A6E19C0E6FFFD
:100CA0001AC0E6FF03EC28F01D6E050EE15E1D5034
:100CB000FD0EDBCFE9FFFE0EDBCFEAFFE9CF16F03A
:100CC000EACF17F0010EDB5000011624146E000E5F
:100CD0001720156E14C0E6FF15C0E6FF1CEC28F0C7
:100CE000E552E552040EF3CFDBFF010EDBCFE7FF49
:100CF000040EDB50E726010EE7CFDBFF67D0DF50A5
:100D0000210DF3CFE9FFF4CFEAFF170EE926010E1C
:100D1000EA22E9CF16F0EACF17F0020EDB500F01FE
:100D20001624E96E000E1720EA6EEF50D00F100D5A
:100D3000F3CF14F0F4CF15F0580E14260E0E152232
:100D400014C0E6FF15C0E6FFFD0EDBCFE9FFFE0E87
:100D5000DBCFEAFFE9CF1AF0EACF1BF0010EDB5040
:100D600000011A24186E000E1B20196E18C0E6FF31
:100D700019C0E6FFE2EC27F0E552E552E552E552F4
:100D8000FD0EDBCFE9FFFE0EDBCFEAFFE9CF16F069
:100D9000EACF17F0010EDB5000011624146E000E8E
:100DA0001720156E14C0E6FF15C0E6FF1CEC28F0F6
:100DB000E552E552040EF3CFDBFF010EDBCFE7FF78
:100DC000040EDB50E726010EE7CFDBFFFD0EDBCF85
:100DD000E9FFFE0EDBCFEAFFE9CF14F0EACF15F012
:100DE000010EDB500F011424E96E000E1520EA6E8F
:100DF000EF6ADFCFACF3FD0EDBCFE9FFFE0EDBCFFA
:100E0000EAFF200EE926000EEA22ACC3EFFF04D071
:100E1000030EDB2ADF2AC2D4050EE15C02E2E16A9E
:100E2000E552E16EE552E7CFD9FF1200D9CFE6FFD8
:100E3000E1CFD9FF0F0EE126FD0EDBCFE9FFFE0E5D
:100E4000DBCFEAFF200EE926000EEA22EF28DF6E54
:100E5000010EDB6A020EDB6AD950060FE96EDACFAB
:100E6000EAFF4D0EEE6E410EEE6E540EEE6E450E26
:100E7000EE6E520EEE6E490EEE6E410EEE6E4C0EA2
:100E8000EE6EEE6ADF50146E156AD890155004E6C7
:100E9000140E145C000E155801E3DF6AFD0EDBCF63
:100EA000E9FFFE0EDBCFEAFF200EE926000EEA2264
:100EB000EF68030EDB6A030EDB50146E156AD890E0
:100EC000155004E6140E145C000E155801E331D3DE
:100ED000DF50146E156A140E0D6E0E6A14C008F001
:100EE00015C009F029EC29F004C014F005C015F074
:100EF0001450DF6EDF50210DF3CFE9FFF4CFEAFF8E
:100F0000170EE926010EEA221E0EE926000EEA223D
:100F1000EF5010E0DF50210DF3CFE9FFF4CFEAFFEF
:100F2000170EE926010EEA221F0EE926000EEA221C
:100F3000EF0401E1FAD2FD0EDBCFE9FFFE0EDBCFBD
:100F4000EAFFE9CF14F0EACF15F0010EDBCFF3FF93
:100F5000DB2AF3500F011424E96E000E1520EA6E0F
:100F6000530EEF6EFD0EDBCFE9FFFE0EDBCFEAFF87
:100F7000E9CF14F0EACF15F0010EDBCFF3FFDB2A47
:100F8000F3500F011424E96E000E1520EA6E540E82
:100F9000EF6EFD0EDBCFE9FFFE0EDBCFEAFFE9CF00
:100FA00014F0EACF15F0010EDBCFF3FFDB2AF3508C
:100FB0000F011424E96E000E1520EA6E4E0EEF6E3E
:100FC000FD0EDBCFE9FFFE0EDBCFEAFFE9CF14F029
:100FD000EACF15F0010EDBCFF3FFDB2AF3500F0150
:100FE0001424E96E000E1520EA6E3A0EEF6EDF5003
:100FF000210DF3CFE9FFF4CFEAFF170EE926010E2A
:10100000EA22E9CF16F0EACF17F0020EDBCFF3FFAA
:10101000DB2AF3500F011624E96E000E1720EA6E4A
:10102000EF50E66EFD0EDBCFE9FFFE0EDBCFEAFFF1
:10103000E9CF14F0EACF15F0010EDBCFF3FFDB2A86
:10104000F3500F011424E96E000E1520EA6EE552EC
:10105000E750EF6EDF50210DF3CFE9FFF4CFEAFF49
:10106000170EE926010EEA22E9CF16F0EACF17F0B3
:10107000020EDBCFF3FFDB2AF3500F011624E96EDB
:10108000000E1720EA6EEF50E66EFD0EDBCFE9FF93
:10109000FE0EDBCFEAFFE9CF14F0EACF15F0010E28
:1010A000DBCFF3FFDB2AF3500F011424E96E000EAF
:1010B0001520EA6EE552E750EF6EFD0EDBCFE9FF3B
:1010C000FE0EDBCFEAFFE9CF14F0EACF15F0010EF8
:1010D000DBCFF3FFDB2AF3500F011424E96E000E7F
:1010E0001520EA6E3B0EEF6EDF50210DF3CFE9FFC6
:1010F000F4CFEAFF170EE926010EEA22200EE926B8
:10110000000EEA22EF0464E1FD0EDBCFE9FFFE0EE4
:10111000DBCFEAFFE9CF14F0EACF15F0010EDBCF09
:10112000F3FFDB2AF3500F011424E96E000E1520A3
:10113000EA6E230EEF6E020EDB2ADF50210DF3CF95
:10114000E9FFF4CFEAFF170EE926010EEA22E9CF04
:1011500014F0EACF15F0020EDB500F011424E96EF3
:10116000000E1520EA6EEF5032E0DF50210DF3CF74
:10117000E9FFF4CFEAFF170EE926010EEA22E9CFD4
:1011800016F0EACF17F0020EDB500F011624E96EBD
:10119000000E1720EA6EEF50E66EFD0EDBCFE9FF82
:1011A000FE0EDBCFEAFFE9CF14F0EACF15F0010E17
:1011B000DB500F011424E96E000E1520EA6EE55293
:1011C000E750EF6E010EDB2A020EDB2AB6D78BD179
:1011D000DF50210DF3CFE9FFF4CFEAFF170EE92628
:1011E000010EEA22200EE926000EEA22EF50020844
:1011F00001E012D1020EDB2AFD0EDBCFE9FFFE0E6D
:10120000DBCFEAFFE9CF14F0EACF15F0010EDBCF18
:10121000F3FFDB2AF3500F011424E96E000E1520B2
:10122000EA6E530EEF6EFD0EDBCFE9FFFE0EDBCF55
:10123000EAFFE9CF14F0EACF15F0010EDBCFF3FFA0
:10124000DB2AF3500F011424E96E000E1520EA6E1C
:10125000410EEF6EFD0EDBCFE9FFFE0EDBCFEAFFA6
:10126000E9CF14F0EACF15F0010EDBCFF3FFDB2A54
:10127000F3500F011424E96E000E1520EA6E460E9D
:10128000EF6EFD0EDBCFE9FFFE0EDBCFEAFFE9CF0D
:1012900014F0EACF15F0010EDBCFF3FFDB2AF35099
:1012A0000F011424E96E000E1520EA6E450EEF6E54
:1012B000FD0EDBCFE9FFFE0EDBCFEAFFE9CF14F036
:1012C000EACF15F0010EDBCFF3FFDB2AF3500F015D
:1012D0001424E96E000E1520EA6E540EEF6EFD0E1A
:1012E000DBCFE9FFFE0EDBCFEAFFE9CF14F0EACF58
:1012F00015F0010EDBCFF3FFDB2AF3500F011424AE
:10130000E96E000E1520EA6E590EEF6EFD0EDBCF72
:10131000E9FFFE0EDBCFEAFFE9CF14F0EACF15F0CC
:10132000010EDBCFF3FFDB2AF3500F011424E96E2B
:10133000000E1520EA6E3A0EEF6EDF50210DF3CF4E
:10134000E9FFF4CFEAFF170EE926010EEA22E9CF02
:1013500017F0EACF18F0020EDB500F011724E96EE8
:10136000000E1820EA6EEF50D00FE96EEA6AD890AE
:10137000E936EA364E0EE9260E0EEA22EECF14F0DA
:10138000EFCF15F0166A14C0E6FF15C0E6FF16C0D1
:10139000E6FFFD0EDBCFE9FFFE0EDBCFEAFFE9CF74
:1013A0001BF0EACF1CF0010EDB5000011B24196E6C
:1013B000000E1C201A6E19C0E6FF1AC0E6FF03ECEF
:1013C00028F01D6E050EE15E1D50FD0EDBCFE9FF1E
:1013D000FE0EDBCFEAFFE9CF16F0EACF17F0010EE1
:1013E000DB5000011624146E000E1720156E14C079
:1013F000E6FF15C0E6FF1CEC28F0E552E552050EAD
:10140000F3CFDBFF010EDBCFE7FF050EDB50E72656
:10141000010EE7CFDBFF67D0DF50210DF3CFE9FFEF
:10142000F4CFEAFF170EE926010EEA22E9CF16F003
:10143000EACF17F0020EDB500F011624E96E000E02
:101440001720EA6EEF50D00F100DF3CF14F0F4CF49
:1014500015F0580E14260E0E152214C0E6FF15C006
:10146000E6FFFD0EDBCFE9FFFE0EDBCFEAFFE9CFA3
:101470001AF0EACF1BF0010EDB5000011A24186E9F
:10148000000E1B20196E18C0E6FF19C0E6FFE2EC43
:1014900027F0E552E552E552E552FD0EDBCFE9FFBC
:1014A000FE0EDBCFEAFFE9CF16F0EACF17F0010E10
:1014B000DB5000011624146E000E1720156E14C0A8
:1014C000E6FF15C0E6FF1CEC28F0E552E552050EDC
:1014D000F3CFDBFF010EDBCFE7FF050EDB50E72686
:1014E000010EE7CFDBFFFD0EDBCFE9FFFE0EDBCF0A
:1014F000EAFFE9CF14F0EACF15F0010EDB500F013F
:101500001424E96E000E1520EA6EEF6ADFCFACF30B
:10151000FD0EDBCFE9FFFE0EDBCFEAFF200EE92652
:10152000000EEA22ACC3EFFF04D0030EDB2ADF2A51
:10153000C2D40F0EE15C02E2E16AE552E16EE552CF
:10154000E7CFD9FF1200D9CFE6FFE1CFD9FF070ED1
:10155000E126FE0EDB50210DF3CFE9FFF4CFEAFFC9
:10156000170EE926010EEA221E0EE926000EEA22D7
:10157000EF5033E0FE0EDB50210DF3CFE9FFF4CF47
:10158000EAFF170EE926010EEA22E9CF14F0EACFAE
:1015900015F014C0E6FF15C0E6FF050EDBCFE6FF31
:1015A000060EDBCFE6FFC2EC27F0E552E552E5522E
:1015B000E552000912E1FE0EDB50210DF3CFE9FFE9
:1015C000F4CFEAFF170EE926010EEA221F0EE926E4
:1015D000000EEA22EF0401E186D1FE0EDB50210D60
:1015E000F3CFE9FFF4CFEAFF170EE926010EEA2256
:1015F000E9CF14F0EACF15F0050E14C0DBFF060E9C
:1016000015C0DBFF01010051030A01E190D0020A7D
:1016100001E048D1050EDBCFE6FF060EDBCFE6FF8B
:10162000C0EC11F0E552E552E76E020EE7CFDBFFAA
:10163000020EDB50FF0801E179D0050EDBCFE6FF9B
:10164000060EDBCFE6FF46EC11F0E552E5521C0E2C
:10165000E66EE66AE66A020EDB50210DF3CFE9FF83
:10166000F4CFEAFF170EE926010EEA22E9CF14F0C3
:10167000EACF15F014C0E6FF15C0E6FFA8EC27F08E
:10168000166E050EE15E16500400020EDB50210DB1
:10169000F3CF14F0F4CF15F0170E1426010E152217
:1016A000030E14C0DBFF040E15C0DBFF010EDB6A66
:1016B000210EF36E010EDBCFF4FFF350F45C25E254
:1016C000010EDB50E76E030EDBCFE9FF040EDBCF2C
:1016D000EAFFE750E926000EEA22EF50E66E010E1F
:1016E000DBCFE6FF020EDB50210DF350E552E7247D
:1016F000E66EE66AABEC29F0E552E552E55209ECFC
:1017000000F00400010EDB2AD3D7010101510DE1E5
:101710000101006BE66AE66AE66A010EE66EA0EC7D
:1017200011F0E552E552E552E552DDD0BCD0050E90
:10173000DBCFE6FF060EDBCFE6FFC0EC11F0E55293
:10174000E552E76E020EE7CFDBFF020EDB50FF082B
:1017500001E1A7D0050EDBCFE6FF060EDBCFE6FFEB
:1017600046EC11F0E552E5521C0EE66EE66AE66ABA
:10177000020EDB50210DF3CFE9FFF4CFEAFF170E85
:10178000E926010EEA22E9CF14F0EACF15F014C0E1
:10179000E6FF15C0E6FFA8EC27F0166E050EE15E29
:1017A00016500400020EDB50210DF3CF14F0F4CFDD
:1017B00015F0170E1426010E1522030E14C0DBFFC0
:1017C000040E15C0DBFF010EDB6A210EF36E010E65
:1017D000DBCFF4FFF350F45C25E2010EDB50E76E43
:1017E000030EDBCFE9FF040EDBCFEAFFE750E9266B
:1017F000000EEA22EF50E66E010EDBCFE6FF020E8E
:10180000DB50210DF350E552E724E66EE66AABECBF
:1018100029F0E552E552E55209EC00F00400010E12
:10182000DB2AD3D70101025120E1010101510EE170
:101830000101006BE66AE66AE66A010EE66EA0EC5C
:1018400011F0E552E552E552E5520ED00101010ECC
:10185000006FE66AE66A010EE66EE66AA0EC11F039
:10186000E552E552E552E5521BD0010101510CE170
:10187000E66A010EE66EE66AE66AA0EC11F0E55251
:10188000E552E552E5520CD0E66A010EE66E010E15
:10189000E66EE66AA0EC11F0E552E552E552E5523B
:1018A00022D001D000D0DF6ADF50146E156AD890C4
:1018B000155004E6140E145C000E155814E2DF50A7
:1018C000210DF3CFE9FFF4CFEAFF170EE926010E51
:1018D000EA221F0EE926000EEA22EF0402E18086CA
:1018E00002D0DF2AE1D7070EE15C02E2E16AE552AD
:1018F000E16EE552E7CFD9FF1200D9CFE6FFE1CF85
:10190000D9FF220EE126050EDB6AD950060FE96EDB
:10191000DACFEAFFEE6AEE6AEE6AEE6AEE6AEE6A25
:10192000EE6AEE6AEE6AEE6AEE6AEE6AEE6AEE6AF7
:10193000EE6AEE6AEE6AEE6AEE6AEE6AEE6AEE6AE7
:10194000EE6AEE6AEE6AEE6AEE6ADF6ADF50146EE5
:10195000156AD890155004E6140E145C000E155844
:1019600033E2DF50210DF3CFE9FFF4CFEAFF170E8A
:10197000E926010EEA221E0EE926000EEA22EF50A9
:1019800021E0DF50210DF3CFE9FFF4CFEAFF170E7E
:10199000E926010EEA22E9CF14F0EACF15F014C0CF
:1019A000E6FF15C0E6FFFD0EDBCFE6FFFE0EDBCF48
:1019B000E6FFC2EC27F0E552E552E552E552000998
:1019C00001E1A7D1DF2AC2D7DF6ADF50146E156AA2
:1019D000D890155004E6140E145C000E155801E35F
:1019E00092D1DF50210DF3CFE9FFF4CFEAFF170EBC
:1019F000E926010EEA221E0EE926000EEA22EF5029
:101A000001E07FD1DF50210DF3CFE9FFF4CFEAFFF2
:101A1000170EE926010EEA221E0EE926000EEA2222
:101A2000010EEF6E060EF66E000EF76E0900F5CF92
:101A300014F00800F5CF15F0DF50210DF3CFE9FFCA
:101A4000F4CFEAFF170EE926010EEA221C0EE92662
:101A5000000EEA2214C0EEFF15C0EDFFDF50210D8D
:101A6000F3CFE9FFF4CFEAFF170EE926010EEA22D1
:101A70001F0EE926000EEA22010EEF6EDF50210D47
:101A8000F3CFE9FFF4CFEAFF170EE926010EEA22B1
:101A9000200EE926000EEA22FC0EDBCFEFFFFD0E42
:101AA000DBCFE6FFFE0EDBCFE6FFDF50210DF3CFED
:101AB000E9FFF4CFEAFF170EE926010EEA22E9CF8B
:101AC00014F0EACF15F014C0E6FF15C0E6FFE2EC13
:101AD00027F0E552E552E552E552DF50210DF3CFF4
:101AE00014F0F4CF15F0170E1426010E1522030E74
:101AF00014C0DBFF040E15C0DBFF010EDB6A210EF4
:101B0000F36E010EDBCFF4FFF350F45C24E2010E20
:101B1000DB50E76E030EDBCFE9FF040EDBCFEAFFFD
:101B2000E750E926000EEA22EF50E66E010EDBCF09
:101B3000E6FF210EDF02F350E552E724E66EE66A87
:101B4000ABEC29F0E552E552E55209EC00F0040057
:101B5000010EDB2AD4D70101012B010102510CE156
:101B6000010EE66EE66A010EE66EE66AE9DBE55214
:101B7000E552E552E5520CD0010EE66E010EE66E1E
:101B8000010EE66EE66ADCDBE552E552E552E5520F
:101B9000DF50210DF3CFE9FFF4CFEAFF170EE9265E
:101BA000010EEA22200EE926000EEA22EF5001E0A3
:101BB0009ED0210EDB6ADF50210DF3CFE9FFF4CF79
:101BC000EAFF170EE926010EEA22E9CF14F0EACF68
:101BD00015F0210EDB500F011424E96E000E1520C4
:101BE000EA6EEF502BE0DF50210DF3CFE9FFF4CF89
:101BF000EAFF170EE926010EEA22E9CF16F0EACF36
:101C000017F0210EDB500F011624E96E000E17208D
:101C1000EA6EEF50E66ED950050F146EDACF15F06C
:101C2000210EDB500F011424E96E000E1520EA6E20
:101C3000E552E750EF6E210EDB2ABDD7D950050FD4
:101C4000166EDACF17F0210EDB500F011624E96E65
:101C5000000E1720EA6E300EEF6EDF50210DF3CF2D
:101C6000E9FFF4CFEAFF170EE926010EEA22E9CFD9
:101C700014F0EACF15F0210EDB500F011424E96EA9
:101C8000000E1520EA6E300EEF6E210EDB2AD950C1
:101C9000050F166EDACF17F0210EDB500F01162458
:101CA000E96E000E1720EA6EEF6ADF50210DF3CFC8
:101CB000E9FFF4CFEAFF170EE926010EEA22E9CF89
:101CC00014F0EACF15F0210EDB500F011424E96E59
:101CD000000E1520EA6E000EEF6ED950050FE66E6D
:101CE000000EDA20E66ED2DAE552E55209D0FD0E9A
:101CF000DBCFE6FFFE0EDBCFE6FFC8DAE552E552AA
:101D000002D0DF2A62D60101025103E10101010E76
:101D1000006F220EE15C02E2E16AE552E16EE552FB
:101D2000E7CFD9FF1200D9CFE6FFE1CFD9FF050EEB
:101D3000E126020EE76EFD0EDBCFE9FFFE0EDBCFE4
:101D4000EAFFE750E926000EEA22EF5030080AE1E8
:101D5000FD0EDBCFE6FFFE0EDBCFE6FF97DAE552A6
:101D6000E552A2D1DF6ADF50146E156AD890155083
:101D700004E6140E145C000E155843E2DF50210DEA
:101D8000F3CFE9FFF4CFEAFF170EE926010EEA22AE
:101D90001E0EE926000EEA22EF5031E0DF50210D41
:101DA000F3CFE9FFF4CFEAFF170EE926010EEA228E
:101DB000E9CF14F0EACF15F014C0E6FF15C0E6FF36
:101DC000FD0EDBCFE6FFFE0EDBCFE6FFC2EC27F019
:101DD000E552E552E552E552000911E1DF50210DCF
:101DE000F3CFE9FFF4CFEAFF170EE926010EEA224E
:101DF0001F0EE926000EEA22EF0401E155D1DF2A89
:101E0000B2D701010051030A01E192D0020A01E0B8
:101E10004AD1DF6ADF50146E156AD890155004E677
:101E2000140E145C000E155801E381D0FD0EDBCFBB
:101E3000E6FFFE0EDBCFE6FFA3DAE552E552E76EE2
:101E4000020EE7CFDBFF020EDB50FF086EE01C0E38
:101E5000E66EE66AE66A020EDB50210DF3CFE9FF7B
:101E6000F4CFEAFF170EE926010EEA22E9CF14F0BB
:101E7000EACF15F014C0E6FF15C0E6FFA8EC27F086
:101E8000166E050EE15E16500400020EDB50210DA9
:101E9000F3CF14F0F4CF15F0170E1426010E15220F
:101EA000030E14C0DBFF040E15C0DBFF010EDB6A5E
:101EB000210EF36E010EDBCFF4FFF350F45C25E24C
:101EC000010EDB50E76E030EDBCFE9FF040EDBCF24
:101ED000EAFFE750E926000EEA22EF50E66E010E17
:101EE000DBCFE6FF020EDB50210DF350E552E72475
:101EF000E66EE66AABEC29F0E552E552E55209ECF4
:101F000000F00400010EDB2AD3D7010101510CE1DE
:101F10000101006BE66AE66AE66A010EE66E10DA17
:101F2000E552E552E552E552BFD0DF2A73D7BCD067
:101F3000DF6ADF50146E156AD890155004E6140E4F
:101F4000145C000E155801E3ADD0FD0EDBCFE6FFAB
:101F5000FE0EDBCFE6FF14DAE552E552E76E020E25
:101F6000E7CFDBFF020EDB50FF0801E199D01C0E2A
:101F7000E66EE66AE66A020EDB50210DF3CFE9FF5A
:101F8000F4CFEAFF170EE926010EEA22E9CF14F09A
:101F9000EACF15F014C0E6FF15C0E6FFA8EC27F065
:101FA000166E050EE15E16500400020EDB50210D88
:101FB000F3CF14F0F4CF15F0170E1426010E1522EE
:101FC000030E14C0DBFF040E15C0DBFF010EDB6A3D
:101FD000210EF36E010EDBCFF4FFF350F45C25E22B
:101FE000010EDB50E76E030EDBCFE9FF040EDBCF03
:101FF000EAFFE750E926000EEA22EF50E66E010EF6
:10200000DBCFE6FF020EDB50210DF350E552E72453
:10201000E66EE66AABEC29F0E552E552E55209ECD2
:1020200000F00400010EDB2AD3D7010102511EE1AA
:10203000010101510DE10101006BE66AE66AE66A01
:10204000010EE66E7DD9E552E552E552E5520DD01E
:102050000101010E006FE66AE66A010EE66EE66AAD
:102060006FD9E552E552E552E55219D0010101510F
:102070000BE1E66A010EE66EE66AE66A61D9E552B0
:10208000E552E552E5520BD0E66A010EE66E010E0E
:10209000E66EE66A55D9E552E552E552E55204D0BE
:1020A000DF2A47D701D000D0050EE15C02E2E16AE9
:1020B000E552E16EE552E7CFD9FF1200D9CFE6FF36
:1020C000E1CFD9FF020EE126060104510601035DAE
:1020D0000BE1FD0EDBCFE9FFFE0EDBCFEAFFEE6A80
:1020E000ED6A010EDB6A3BD0060103511C0DF3CFF4
:1020F00014F0F4CF15F0050E1426060E1522FD0E71
:10210000DBCFE9FFFE0EDBCFEAFF14C0EEFF15C008
:10211000EDFF060103511C0DF3CF14F0F4CF15F0C1
:10212000050E1426060E152214C0E6FF15C0E6FFA4
:102130001CEC28F0E552E552010EF3CFDBFF06015F
:10214000032B06010351146E156AD890155004E64E
:10215000100E145C000E155802E30601036B010E0D
:10216000DB5000D0146E020EE15C02E2E16AE5523F
:10217000E16E1450E552E7CFD9FF1200D9CFE6FF48
:10218000E1CFD9FF0601000502E1000E0BD00601E8
:10219000010E006FFE0EDBCF02F6FD0EDBCF01F667
:1021A000010E00D0E552E7CFD9FF1200D9CFE6FFEC
:1021B000E1CFD9FFE652FE0EDB50210DF3CFE9FF50
:1021C000F4CFEAFF170EE926010EEA221F0EE926D8
:1021D000000EEA22EF6AFE0EDB50210DF3CFE9FF7D
:1021E000F4CFEAFF170EE926010EEA22E9CF14F038
:1021F000EACF15F014C0E6FF15C0E6FF47D8E55258
:10220000E552FE0EDB50210DF3CFE9FFF4CFEAFFDC
:10221000170EE926010EEA221F0EE926000EEA2219
:10222000EF50E66EFE0EDB50210DF3501F0FE66EF1
:10223000E66AABEC29F0E552E552E55209EC00F014
:102240000400DF6ADF50146E156AD890155004E65A
:10225000140E145C000E155813E2DF50210DF3CF5D
:10226000E9FFF4CFEAFF170EE926010EEA221F0E5E
:10227000E926000EEA22EF0401E103D0DF2AE2D7CB
:102280008096E552E552E7CFD9FF1200D9CFE6FF9D
:10229000E1CFD9FFE652DF6AFD0EDBCFE9FFFE0E8C
:1022A000DBCFEAFFEF5024E0FD0EDBCFE9FFFE0EAF
:1022B000DBCFEAFFEF50E66E060104511C0DF3CFB1
:1022C00014F0F4CF15F0050E1426060E1522DF507B
:1022D0000F011424E96E000E1520EA6EE552E75056
:1022E000EF6EDF2AFD0EDB2AFE0E01E3DB2AD4D7D8
:1022F000060104511C0DF3CF14F0F4CF15F0050EB8
:102300001426060E1522DF500F011424E96E000E6C
:102310001520EA6EEF6A0601042B06010451146EC3
:10232000156AD890155004E6100E145C000E15586E
:1023300002E30601046BE552E552E7CFD9FF120034
:10234000D9CFE6FFE1CFD9FFFE0EDB50E8B08080A9
:10235000E8A08090FD0EDB50E8B08082E8A080927B
:10236000FC0EDB50E8B08084E8A08094FB0EDB50CC
:10237000E8B08086E8A08096E552E7CFD9FF12004A
:10238000D9CFE6FFE1CFD9FF040EE126DF6ADF50A7
:10239000146E156AD890155004E6140E145C000EE5
:1023A000155801E399D0DF50210DF3CFE9FFF4CFA9
:1023B000EAFF170EE926010EEA221E0EE926000E9C
:1023C000EA22EF5001E186D0DF50210DF3CFE9FF83
:1023D000F4CFEAFF170EE926010EEA221F0EE926C6
:1023E000000EEA22EF0476E0DF50210DF3CFE9FF83
:1023F000F4CFEAFF170EE926010EEA22E9CF14F026
:10240000EACF15F014C0E6FF15C0E6FFFD0EDBCFE6
:10241000E6FFFE0EDBCFE6FFC2EC27F0E552E55209
:10242000E552E552000956E1DF50210DF3CFE9FFF7
:10243000F4CFEAFF170EE926010EEA221E0EE92666
:10244000000EEA22EF0403E10101010713D0DF507F
:10245000210DF3CFE9FFF4CFEAFF170EE926010EB5
:10246000EA221E0EE926000EEA22EF50030802E1DE
:1024700001010207DF50210DF3CFE9FFF4CFEAFF9E
:10248000170EE926010EEA221E0EE926000EEA22A8
:10249000EF6ADF50210DF3CFE9FFF4CFEAFF170E0B
:1024A000E926010EEA221C0EE926000EEA22EE6A57
:1024B000ED6ADF50210DF3CFE9FFF4CFEAFF170EED
:1024C000E926010EEA221F0EE926000EEA22EF6A33
:1024D000DF5004D0DF2A5BD7FF0E00D0146E040E4D
:1024E000E15C02E2E16AE552E16E1450E552E7CFA9
:1024F000D9FF1200D9CFE6FFE1CFD9FF020EE126C6
:10250000010EDB6ADF6ADF50146E156AD890155031
:1025100004E6140E145C000E15585BE2DF50210D2A
:10252000F3CFE9FFF4CFEAFF170EE926010EEA2206
:102530001E0EE926000EEA22EF0449E1DF50210DCC
:10254000F3CFE9FFF4CFEAFF170EE926010EEA22E6
:102550001C0EE926000EEA22EE50ED1038E10101D2
:10256000022B01010107DF50210DF3CFE9FFF4CF6A
:10257000EAFF170EE926010EEA221E0EE926000EDA
:10258000EA22030EEF6EDF50210DF3CFE9FFF4CF07
:10259000EAFF170EE926010EEA221E0EE926000EBA
:1025A000EA22EF50E66E210EDF02F3501E0FE66EB8
:1025B000E66AABEC29F0E552E552E55209EC00F091
:1025C00004000101030E006FDE52010EDD6EDF2AF2
:1025D0009AD7010EDB5000D0146E020EE15C02E2CD
:1025E000E16AE552E16E1450E552E7CFD9FF1200DF
:1025F000D9CFE6FFE1CFD9FFE652DF6ADF50146E94
:10260000156AD890155004E6140E145C000E155887
:1026100041E2DF50210DF3CFE9FFF4CFEAFF170EBF
:10262000E926010EEA221E0EE926000EEA22EF50EC
:102630002FE0DF50210DF3CFE9FFF4CFEAFF170EB3
:10264000E926010EEA22E9CF14F0EACF15F014C012
:10265000E6FF15C0E6FFFD0EDBCFE6FFFE0EDBCF8B
:10266000E6FFC2EC27F0E552E552E552E5520009DB
:102670000FE1DF50210DF3CFE9FFF4CFEAFF170E92
:10268000E926010EEA221F0EE926000EEA22EF6A71
:10269000DF2AB4D7E552E552E7CFD9FF1200D9CFF0
:1026A000E6FFE1CFD9FFFD0EDBCFE6FFFE0EDBCF6D
:1026B000E6FF0D0EE66E010EE66EC2EC27F0E55267
:1026C000E552E552E552000902E0000E02D0010E8B
:1026D00000D0E552E7CFD9FF1200D9CFE6FFE1CF16
:1026E000D9FF020EE1260101006B0101016B01011E
:1026F000026B0101036B046B056B066B0101076B39
:10270000086B096B0A6B0301AC6B0601046B0601D5
:10271000036BDE6ADD6ADECF14F0DDCF15F0140E38
:10272000145C000E155870E2DECFE9FFDDCFEAFF42
:10273000210EEA02F3CFEAFF210EE902F3CFE9FF0F
:10274000F450EA26170EE926010EEA221E0EE926AB
:10275000000EEA22EF6ADECFE9FFDDCFEAFF210EAD
:10276000EA02F3CFEAFF210EE902F3CFE9FFF450CA
:10277000EA26170EE926010EEA221C0EE926000EB3
:10278000EA22EE6AED6ADECFE9FFDDCFEAFF210E35
:10279000EA02F3CFEAFF210EE902F3CFE9FFF4509A
:1027A000EA26170EE926010EEA221F0EE926000E80
:1027B000EA22EF6A1C0EE66EE66AE66ADECFE9FF01
:1027C000DDCFEAFF210EEA02F3CFEAFF210EE90294
:1027D000F3CFE9FFF450EA26170EE926010EEA22AC
:1027E000E9CF14F0EACF15F014C0E6FF15C0E6FFFC
:1027F000A8EC27F0166E050EE15E16500400DF2AE5
:10280000010E01E3DB2A87D7DE6ADD6ADECF14F032
:10281000DDCF15F0940E145C020E155812E2E66A34
:10282000DECFE6FFDDCFE6FFABEC29F0E552E55267
:10283000E55209EC00F00400DF2A010E01E3DB2A77
:10284000E5D70301AB050BE1E66AE66AE66A010E2D
:10285000E66E76DDE552E552E552E55209D0E66ACC
:10286000E66AE66AE66A6CDDE552E552E552E55253
:10287000020EE15C02E2E16AE552E16EE552E7CF69
:10288000D9FF1200D9CFE6FFE1CFD9FF030EE12631
:10289000DF6AFD0EDBCFE9FFFE0EDBCFEAFF010EA4
:1028A000EFCFDBFF020EDB6A010EDB50A30A69E00B
:1028B000030A5CE0010A4EE0030A1AE0220A01E082
:1028C000A1D0F90EDBCFE6FFFA0EDBCFE6FF5EEC20
:1028D00010F0E552E552E76E020EE7CFDBFFFB0E8C
:1028E000DBCFE9FFFC0EDBCFEAFF800EEF6E95D069
:1028F000010EE76EFD0EDBCF14F0FE0EDBCF15F000
:10290000E7501426000E152214C0E6FF15C0E6FF9E
:102910006FDEE552E552010EE76EFD0EDBCF14F0DF
:10292000FE0EDBCF15F0E7501426000E152214C062
:10293000E6FF15C0E6FF93EC0EF0E552E552FB0E04
:10294000DBCFE9FFFC0EDBCFEAFFA20EEF6E020E3B
:10295000DB6A63D0C2DEFB0EDBCFE9FFFC0EDBCF10
:10296000EAFFA10EEF6E020EDB6A57D0020EDB6AA1
:10297000FB0EDBCFE9FFFC0EDBCFEAFFA00EEF6E14
:102980004CD0DF50E76EFD0EDBCFE9FFFE0EDBCF54
:10299000EAFFE750E926000EEA22EF5019E0DF28AF
:1029A000E76EFD0EDBCFE9FFFE0EDBCFEAFFE7505F
:1029B000E926000EEA22EF50E66EDF50EA6AAE0F1B
:1029C000E96E030EEA22E552E750EF6EDF2AD9D70F
:1029D000DF50EA6AAE0FE96E030EEA22EF6AAE0E2E
:1029E000E66E030EE66E25EC1DF0E552E552020E92
:1029F000DB6AFB0EDBCFE9FFFC0EDBCFEAFFA30EA9
:102A0000EF6E0BD0020EDB6AFB0EDBCFE9FFFC0E94
:102A1000DBCFEAFF920EEF6E00D0020EDB5000D04B
:102A2000146E030EE15C02E2E16AE552E16E1450BD
:082A3000E552E7CFD9FF1200C7
:082A3800D9CFE6FFE1CFD9FF81
:102A4000040EE1260D01300E486F080EE66E9EEC76
:102A500024F0E552E66A14EC1CF0E552C0EC1BF0E1
:102A6000D5EC1BF0DF6ADF50146E156A153404E2F2
:102A700014500908000E155471E3100EDF02F350D4
:102A8000156A000F146E030E152214C0E6FF15C060
:102A9000E6FF5CEC2AF0E552E552E76E020EE7CF66
:102AA000DBFF09EC00F0020EDB5056E0010EDB6AA2
:102AB000020EDB50E76E030EE7CFDBFF030EDB50A9
:102AC00036E0DF28100DF3CF14F0F4CF15F0580ED8
:102AD00014260E0E1522010EDB500F011424E96E90
:102AE000000E1520EA6E030EDBCFEFFF010EDB2A8E
:102AF000100EDF02F350176A000F166E030E172236
:102B0000010EDB5000011624146E000E1720156E06
:102B100014C0E6FF15C0E6FF5CEC2AF0E552E55272
:102B2000E76E030EE7CFDBFF09EC00F0C7D7DF2825
:102B3000100DF3CF14F0F4CF15F0580E14260E0E2E
:102B40001522010EDB500F011424E96E000E152032
:102B5000EA6EEF6A0D01482BDF2A85D7040EE15C8F
:102B600002E2E16AE552E16EE552E7CFD9FF1200D9
:102B7000D9CFE6FFE1CFD9FF160EE126DF68D950A5
:102B8000050FE96EDACFEAFF4D0EEE6E410EEE6EE6
:102B9000540EEE6E450EEE6E520EEE6E490EEE6E59
:102BA000410EEE6E4C0EEE6EEE6AD9500E0FE96ECF
:102BB000DACFEAFF530EEE6E410EEE6E460EEE6E6B
:102BC000450EEE6E540EEE6E590EEE6EEE6AD95054
:102BD000020FE66E000EDA20E66ED950030FE66EA5
:102BE000000EDA20E66EC5EC25F0E552E552E5521E
:102BF000E552000901E192D3020EDBCFE6FF030E9E
:102C0000DBCFE6FF95DBE552E552DF6EFF0EDF5CC2
:102C100001E184D30D010051070A01E166D3010AE5
:102C200001E119D3030A01E1FFD20C0A01E1C8D284
:102C30000D0A01E191D2060A01E1E9D1010A01E19F
:102C400060D10B0A01E1D4D0090A01E190D0010A58
:102C500001E063D3080EDF5C12E10D01235100088F
:102C60000DE2DFCFE6FFB0EC24F0E5520D012307C3
:102C70000D014751000802E20D01470777D00A0E07
:102C8000DF5C11E10D01235100080CE236EC1BF072
:102C9000010EE66E14EC1CF0E552C0EC1BF00D01C9
:102CA000010E006F63D0130EDF5C0BE1040EE66EC5
:102CB00014EC1CF0E552C0EC1BF00D01060E006F89
:102CC00055D00C0EDF5C1CE16A0EE66E0D0EE66E52
:102CD00016EC07F0E552E552FF0E0D018A5D0FE09C
:102CE0006A0EE66E0D0EE66EE6EC1BF0E552E5525E
:102CF000C0EC1BF0D5EC1BF00D01090E006F36D0B7
:102D00000B0EDF5C1CE1490EE66E0D0EE66E9FECCD
:102D100003F0E552E552FF0E0D01695D0FE0490E2B
:102D2000E66E0D0EE66EE6EC1BF0E552E552C0ECE9
:102D30001BF0D5EC1BF00D01040E006F17D00D0138
:102D40002351EA6A020FE96E0D0EEA22DFCFEFFF90
:102D50000D012351EA6A020FE96E0D0EEA22EF50CF
:102D6000E66EB0EC24F0E5520D01232BD7D2080E0D
:102D7000DF5C0BE1E66A14EC1CF0E552C0EC1BF0E2
:102D8000D5EC1BF00D01006B32D0DE52010EDD6E72
:102D9000010EDB50146E156A153404E21450090854
:102DA000000E155424E3010EDB50300F146EDF507B
:102DB000145C1AE1010EDBCFE6FF9EEC1CF0E5523D
:102DC000010EDB50300FE66E0D014751EA6A260F07
:102DD000E96E0D0EEA22E552E750EF6E0D01472B2A
:102DE0000D01080E006F03D0010EDB2AD1D796D259
:102DF000080EDF5C0EE1010EE66E14EC1CF0E552ED
:102E0000C0EC1BF00D01020E476F0D01010E006FAB
:102E100077D00A0EDF5C74E1D950050FE66E000E24
:102E2000DA20E66E0D014705EA6A260FE96E0D0EFF
:102E3000EA22EF50D00F100DF3CF14F0F4CF15F0BD
:102E4000580E14260E0E152214C0E6FF15C0E6FF1C
:102E5000C2EC27F0E552E552E552E55200090BE1DC
:102E6000020EE66E14EC1CF0E552C0EC1BF00D01F6
:102E7000020E006F45D0D9500E0FE66E000EDA201C
:102E8000E66E0D014705EA6A260FE96E0D0EEA228D
:102E9000EF50D00F100DF3CF14F0F4CF15F0580E03
:102EA00014260E0E152214C0E6FF15C0E6FFC2EC74
:102EB00027F0E552E552E552E55200090BE1030E19
:102EC000E66E14EC1CF0E552C0EC1BF00D01030E95
:102ED000006F16D08BEC1BF0E66A260EE66E0D0E28
:102EE000E66E7DEC0CF0E552E552E552E66A14EC34
:102EF0001CF0E552C0EC1BF0D5EC1BF00D01006B93
:102F00000DD2080EDF5C0EE1010EE66E14EC1CF033
:102F1000E552C0EC1BF00D01020E476F0D01010ED2
:102F2000006F74D00A0EDF5C1BE10D012351000815
:102F300016E2F1DB020EE66E260EE66E0D0EE66E72
:102F40007DEC0CF0E552E552E552E66A14EC1CF01B
:102F5000E552C0EC1BF0D5EC1BF00D01006B56D018
:102F6000DF50340A40E0070A2BE0010A16E0030AAA
:102F700001E04CD0010EE66EE1EC1CF0E5520D01D3
:102F80004751EA6A260FE96E0D0EEA22310EEF6E06
:102F90000D01472B0D01232B39D0020EE66EE1EC1B
:102FA0001CF0E5520D014751EA6A260FE96E0D0E3D
:102FB000EA22320EEF6E0D01472B0D01232B26D096
:102FC000030EE66EE1EC1CF0E5520D014751EA6A92
:102FD000260FE96E0D0EEA22330EEF6E0D01472B20
:102FE0000D01232B13D0040EE66EE1EC1CF0E5522C
:102FF0000D014751EA6A260FE96E0D0EEA22340EE2
:10300000EF6E0D01472B0D01232B00D087D1080E49
:10301000DF5C1DE10D012351000808E2DFCFE6FF70
:10302000B0EC24F0E5520D0123070CD0010EE66E42
:1030300014EC1CF0E552A4DB0D01020E476F0D01EC
:10304000010E006F0D0124690D01256B84D00A0E5D
:10305000DF5C1CE10D012351000813E25CDB010E73
:10306000E66E260EE66E0D0EE66E7DEC0CF0E55279
:10307000E552E552E66AD8DBE55282DB96DB0D01CC
:10308000006B0D0124690D01256B65D0030EDB502B
:103090000D01245D43E1140EF36E020EDBCFF4FF4D
:1030A000F350F45C1FE20D0123070D012351EA6A7E
:1030B000020FE96E0D0EEA22DFCFEFFF080EE66E7B
:1030C000B0EC24F0E5520D012351EA6A020FE96EDB
:1030D0000D0EEA22EF50E66EB0EC24F0E5520D0141
:1030E000232B1BD00D012351EA6A020FE96E0D0E4E
:1030F000EA22DFCFEFFF0D012351EA6A020FE96EEA
:103100000D0EEA22EF50E66EB0EC24F0E5520D0110
:10311000232B0D0124690D01256B1AD00D012351BC
:10312000EA6A020FE96E0D0EEA22DFCFEFFF0D0112
:103130002351EA6A020FE96E0D0EEA22EF50E66EA5
:10314000B0EC24F0E5520D01232B030EDBCF24FD60
:10315000030EDBCF24FDE2D0080EDF5C08E1E66A57
:1031600063DBE5520DDB21DB0D01006B28D00B0E7C
:10317000DF5C14E1490EE66E0D0EE66E9FEC03F087
:10318000E552E552FF0E0D01695D07E0490EE66E5E
:103190000D0EE66E1BDBE552E55211D00A0EDF5C28
:1031A0000EE169CDE6FFD6EC10F0E5520D0169693C
:1031B000E66A3ADBE552E4DAF8DA0D01006BAED0EC
:1031C000080EDF5C08E1E66A2FDBE552D9DAEDDABA
:1031D0000D01006B28D00C0EDF5C14E16A0EE66E68
:1031E0000D0EE66E16EC07F0E552E552FF0E0D01EE
:1031F0008A5D07E06A0EE66E0D0EE66EE7DAE552CE
:10320000E55211D00A0EDF5C0EE18ACDE6FFA3EC99
:103210000AF0E5520D018A69E66A06DBE552B0DA8A
:10322000C4DA0D01006B7AD0080EDF5C07E1E66AB4
:10323000FBDAE552A5DA0D01006B0CD00A0EDF5C5B
:1032400009E16DEC13F09CDAB0DAE66AEDDAE552EA
:103250000D01006B63D0080EDF5C08E1E66AE4DA7A
:10326000E5528EDAA2DA0D01006B3ED00A0EDF5C69
:103270002BE1150EDB6A0D012351EA6A020FE96E9C
:103280000D0EEA22EF6A020EE66E0D0EE66E4FECB0
:1032900013F0E552E552E76E150EE7CFDBFF150E92
:1032A000DB040AE1050EE66EBFDAE55269DA7DDA83
:1032B0000D01070E006F07D0E66AB6DAE55260DA54
:1032C00074DA0D01006B10D00D012351EA6A020F70
:1032D000E96E0D0EEA22DFCFEFFF2A0EE66EB0ECAC
:1032E00024F0E5520D01232B19D0080EDF5C08E114
:1032F000E66A9ADAE55244DA58DA0D01006B0CD02E
:10330000300EDF5C09E1060EE66E8EDAE55238DA41
:103310004CDA0D01050E006F01D000D0160EE15CF5
:1033200002E2E16AE552E16EE552E7CFD9FF120011
:10333000D9CFE6FFE1CFD9FFE652DF680D0100519A
:10334000070A01E144D1020A01E12BD1030A01E19C
:1033500019D10F0A01E1FDD00D0A01E1E1D0060A01
:1033600001E19CD0010A6CE00B0A54E0090A37E045
:10337000010A01E045D1FE0EDB50050DF3CFF6FF4B
:10338000F4CFF7FF140EF626550EF7220800F5507D
:10339000DF6E020E0D01235D08E3080EDF5C04E022
:1033A0000A0EDF5C01E0DF6819D00D01235100082F
:1033B00011E20D0123510EE02A0EDF5C09E00B0E35
:1033C000DF5C06E00C0EDF5C03E0130EDF5C01E166
:1033D000DF6804D02A0EDF5C01E1DF6812D1FE0E47
:1033E000DB50050DF3CFF6FFF4CFF7FF140EF626F2
:1033F000550EF7220800F550DF6E0D014851D880B8
:10340000DF5407E2080EDF5C04E00A0EDF5C01E037
:10341000DF68F7D0FE0EDB50050DF3CFF6FFF4CFDB
:10342000F7FF140EF626550EF7220800F550DF6E52
:103430000A0EDF5C04E0080EDF5C01E0DF68E1D02B
:10344000FE0EDB50050DF3CFF6FFF4CFF7FF140EA1
:10345000F626550EF7220800F550DF6E010E0D011D
:10346000235D08E3080EDF5C04E00A0EDF5C01E088
:10347000DF6813D0080EDF5C10E00A0EDF5C0DE0A1
:10348000310EDF5C0AE0320EDF5C07E0330EDF5CFA
:1034900004E0340EDF5C01E0DF68B3D0FE0EDB50E9
:1034A0000D01245D14E1140EF36EFD0EDBCFF4FF6D
:1034B000F350F45C09E20D01252B050E0D01255D8D
:1034C00002E30D01256B02D00D01256B02D00D0129
:1034D000256BFE0EDB50050DF3CF14F0F4CF15F085
:1034E000140E1426550E15220D0125510F0114241A
:1034F000F66E000E1520F76E0800F550DF6E0C0E0C
:10350000DF5C03E00B0EDF5C02E1DF6808D00A0E2F
:10351000DF5C03E0080EDF5C02E10D01256B71D07A
:10352000FE0EDB50050DF3CFF6FFF4CFF7FF140EC0
:10353000F626550EF7220800F550DF6E0A0EDF5C06
:1035400007E0080EDF5C04E00B0EDF5C01E0DF68E3
:1035500058D0FE0EDB50050DF3CFF6FFF4CFF7FF8A
:10356000140EF626550EF7220800F550DF6E0A0EEF
:10357000DF5C07E0080EDF5C04E00C0EDF5C01E0BE
:10358000DF683FD0FE0EDB50050DF3CFF6FFF4CF22
:10359000F7FF140EF626550EF7220800F550DF6EE1
:1035A00030D0FE0EDB50050DF3CFF6FFF4CFF7FF62
:1035B000140EF626550EF7220800F550DF6E0A0E9F
:1035C000DF5C04E0080EDF5C01E0DF681AD0FE0E6D
:1035D000DB50050DF3CFF6FFF4CFF7FF140EF62600
:1035E000550EF7220800F550DF6E300EDF5C07E065
:1035F000080EDF5C04E00A0EDF5C01E0DF6801D04A
:1036000000D0DF5000D0E552E552E7CFD9FF1200DD
:10361000D9CFE6FFE1CFD9FFFE0EDB50010A17E05C
:10362000030A0BE0020A01E01CD0E66AFDD8E5526D
:10363000A7D8BBD80D01006B15D0020EE66EF4D8EA
:10364000E5529ED8B2D80D01020E006F0BD0010ECC
:10365000E66EEAD8E55294D8A8D80D01010E006FA5
:1036600001D000D0E552E7CFD9FF1200D9CFE6FF55
:10367000E1CFD9FF020EE126010EDB6A0D01230521
:1036800017E10D014751EA6A260FE96E0D0EEA2295
:10369000300EEF6E0D01472B0D014751EA6A260FE0
:1036A000E96E0D0EEA2202CDEFFF0D01472B16D079
:1036B0000D014751EA6A260FE96E0D0EEA2202CD8E
:1036C000EFFF0D01472B0D014751EA6A260FE96E06
:1036D0000D0EEA2203CDEFFF0D01472B300E0D0139
:1036E000275D146E300E0D01265D0A0DF350142473
:1036F000E76E010EE7CFDBFF010EDB5000D0146E4A
:10370000020EE15C02E2E16AE552E16E1450E5521C
:10371000E7CFD9FF1200D9CFE6FFE1CFD9FFE652BC
:10372000DF6A0D012351DF5C16E2DF50EA6A020F07
:10373000E96E0D0EEA22EF50E66E0D014751EA6A7E
:10374000260FE96E0D0EEA22E552E750EF6E0D01ED
:10375000472BDF2AE6D70D014751EA6A260FE96EAB
:103760000D0EEA22EF6A0D01472B200E0D01475D79
:1037700002E30D01476BE552E552E7CFD9FF120096
:10378000200EE66EE66AE66A020EE66E0D0EE66E44
:10379000A8EC27F0146E050EE15E14500D01236BAA
:1037A0000D01256B0D0124691200200EE66EE66AFC
:1037B000E66A260EE66E0D0EE66EA8EC27F0146E95
:1037C000050EE15E14500D01476B1200D9CFE6FFE4
:1037D000E1CFD9FFE652A9EC24F0DF6ADF50E76EB3
:1037E000FD0EDBCFE9FFFE0EDBCFEAFFE750E92657
:1037F000000EEA22EF5013E0DF50E76EFD0EDBCF44
:10380000E9FFFE0EDBCFEAFFE750E926000EEA22D1
:10381000EF50E66EB0EC24F0E552DF2ADFD7E55238
:10382000E552E7CFD9FF1200D9CFE6FFE1CFD9FFAC
:10383000030EE126FE0EEA6ADB34FE0BEA36E96E81
:10384000400EE9260E0EEA22010EEECFDBFF020E3D
:10385000EDCFDBFFA9EC24F0DF6ADF50E76E010E4D
:10386000DBCFF6FF020EDBCFF7FFE750F626000EA8
:10387000F7220800F55014E0DF50E76E010EDBCFB1
:10388000F6FF020EDBCFF7FFE750F626000EF72219
:103890000800F550E66EB0EC24F0E552DF2ADDD7E3
:1038A000030EE15C02E2E16AE552E16EE552E7CF28
:1038B000D9FF1200D9CFE6FFE1CFD9FF030EE126F1
:1038C000FE0EEA6ADB34FE0BEA36E96E400EE926AC
:1038D0000E0EEA22010EEECFDBFF020EEDCFDBFF74
:1038E000DF6ADF50E76E010EDBCFF6FF020EDBCFA3
:1038F000F7FFE750F626000EF7220800F55014E017
:10390000DF50E76E010EDBCFF6FF020EDBCFF7FFD5
:10391000E750F626000EF7220800F550E66EB0ECF0
:1039200024F0E552DF2ADDD7030EE15C02E2E16A12
:10393000E552E16EE552E7CFD9FF1200D9CFE6FF9D
:10394000E1CFD9FF030EE126FE0EDB50100DF3CFC1
:1039500014F0F4CF15F0580E14260E0E1522010E99
:1039600014C0DBFF020E15C0DBFFDF6ADF50E76E1D
:10397000010EDBCFE9FF020EDBCFEAFFE750E926BD
:10398000000EEA22EF5013E0DF50E76E010EDBCFAE
:10399000E9FF020EDBCFEAFFE750E926000EEA223C
:1039A000EF50E66EB0EC24F0E552DF2ADFD7030ECD
:1039B000E15C02E2E16AE552E16EE552E7CFD9FF50
:1039C0001200D9CFE6FFE1CFD9FF030EE126FE0EAC
:1039D000EA6ADB34FE0BEA36E96E4E0EE9260E0E7D
:1039E000EA22010EEECFDBFF020EEDCFDBFFDF6A36
:1039F000DF50E76E010EDBCFF6FF020EDBCFF7FFE5
:103A0000E750F626000EF7220800F55014E0DF50CC
:103A1000E76E010EDBCFF6FF020EDBCFF7FFE750BC
:103A2000F626000EF7220800F550E66EB0EC24F002
:103A3000E552DF2ADDD7030EE15C02E2E16AE552DE
:103A4000E16EE552E7CFD9FF1200D9CFE6FFE1CF13
:103A5000D9FF040EE126FD0EDBCFE9FFFE0EDBCF22
:103A6000EAFFEF50D00FFF0FE76E030EE7CFDBFF4B
:103A7000010EDB6A000EDF6EDF28E76EFD0EDBCF86
:103A8000E9FFFE0EDBCFEAFFE750E926000EEA224F
:103A9000EF502BE0DF28E76EFD0EDBCFE9FFFE0ED7
:103AA000DBCFEAFFE750E926000EEA22EF50E66E90
:103AB000030EDB50100DF350176A000F166E030E45
:103AC0001722DF5000011624146E000E1720156E09
:103AD00014C0E6FF15C0E6FFABEC29F0E552E55255
:103AE000E55209EC00F0DF2AC7D7E66A030EDB5087
:103AF000100DF350176A000F166E030E1722DF50D9
:103B000000011624146E000E1720156E14C0E6FF77
:103B100015C0E6FFABEC29F0E552E552E55209ECA1
:103B200000F0030EDB50100DF350156A000F146EF9
:103B3000030E152214C0E6FF15C0E6FF5CEC2AF068
:103B4000E552E552E76E020EE7CFDBFF09EC00F02D
:103B5000020EDB5038E0030EDB28100DF3CF14F01B
:103B6000F4CF15F0580E14260E0E1522010EDB5060
:103B70000F011424E96E000E1520EA6E020EDBCF51
:103B8000EFFF010EDB2A030EDB50100DF350176A16
:103B9000000F166E030E1722010EDB5000011624D3
:103BA000146E000E1720156E14C0E6FF15C0E6FF58
:103BB0005CEC2AF0E552E552E76E020EE7CFDBFF40
:103BC00009EC00F0C5D7030EDB28100DF3CF14F07D
:103BD000F4CF15F0580E14260E0E1522010EDB50F0
:103BE0000F011424E96E000E1520EA6EEF6A040E30
:103BF000E15C02E2E16AE552E16EE552E7CFD9FF0E
:023C00001200B0
:0E3C0200DACFE4FFE2CFDAFFE9CFE4FFEACF4A
:103C1000E4FFF6CFE4FFF7CFE4FFF5CFE4FFF3CF07
:103C2000E4FFF4CFE4FFFACFE4FF00EE00F0140E5F
:103C3000E80403E3EECFE4FFFBD700EE14F00A0E36
:103C4000E80403E3EECFE4FFFBD7E652D9CFE6FF6B
:103C5000E1CFD9FFE652D4EC2AF0DF6E0C01895196
:103C6000892BEA6A8C0FE96E0C0EEA22DFCFEFFF98
:103C7000800E0C01895D02E30C01896B0C018B2B1A
:103C8000A49AE552E552E7CFD9FFE55200EE1DF0C8
:103C90000A0EE80403E3E5CFEDFFFBD700EE13F0D7
:103CA000140EE80403E3E5CFEDFFFBD7E5CFFAFF01
:103CB000E5CFF4FFE5CFF3FFE5CFF5FFE5CFF7FF65
:103CC000E5CFF6FFE5CFEAFFE5CFE9FFE5CFDAFF85
:103CD0001100DACFE4FFE2CFDAFFE9CFE4FFEACF69
:103CE000E4FFE652D9CFE6FFE1CFD9FFE6520B0160
:103CF000025104E1ACA2FED7AC9A21D00B010151D4
:103D0000EA6A030FE96E0B0EEA22EFCFDFFFDF5006
:103D1000AD6E0B01012B800E0B01015D02E30B0167
:103D2000016B000E0B01E76E0219E8AE02D00235FE
:103D300003D0E750D880025502E20B010207E5529A
:103D4000E552E7CFD9FFE552E5CFEAFFE5CFE9FF3E
:103D5000E5CFDAFF1100DACFE4FFE2CFDAFFE9CFF7
:103D6000E4FFEACFE4FFE652D9CFE6FFE1CFD9FF87
:103D7000E6520C01085104E172A2FED7729A21D0DA
:103D80000C010751EA6A090FE96E0C0EEA22EFCF27
:103D9000DFFFDF50736E0C01072B800E0C01075DF7
:103DA00002E30C01076B000E0C01E76E0819E8AE88
:103DB00002D0083503D0E750D880085502E20C0144
:103DC0000807E552E552E7CFD9FFE552E5CFEAFF14
:103DD000E5CFE9FFE5CFDAFF1100D9CFE6FFE1CF6C
:103DE000D9FFE6527C0EDF6E0F0EE66EE66ADFCF7D
:103DF000E6FF23EC2AF0E552E552E552AC8AAC9E90
:103E0000E552E552E7CFD9FF1200D9CFE6FFE1CF67
:103E1000D9FFE6527C0EDF6E670EE66EE66ADFCFF4
:103E2000E6FFE7EC29F0E552E552E552D08E718EBF
:103E3000728A729EA38AA58AE552E552E7CFD9FF1E
:103E40001200D9CFE6FFE1CFD9FFACA2FED70B011C
:103E50000051002BEA6A030FE96E0B0EEA22FE0EF8
:103E6000DBCFEFFF0B01022B800E0B01005D02E3A5
:103E70000B01006B010E00D0E552E7CFD9FF120015
:103E8000D9CFE6FFE1CFD9FF72A2FED70C010651D0
:103E9000062BEA6A090FE96E0C0EEA22FE0EDBCF52
:103EA000EFFF0C01082B800E0C01065D02E30C01F4
:103EB000066B010E00D0E552E7CFD9FF1200D9CF33
:103EC000E6FFE1CFD9FF060EE126010EF36E020EEA
:103ED000F3CFDBFF030EDB6A020EDBCF14F0DB0651
:103EE000030EDBCF15F001E2DB061450151006E0DF
:103EF000040EE66E60EC2BF0E552EED7000E0B01DF
:103F0000E76E0219E8AE02D0023503D0E750D88040
:103F1000025528E20B010151EA6A030FE96E0B0E0C
:103F2000EA22010EEFCFDBFFACA2FED7010EDB5081
:103F3000AD6EACA2FED70B01012B800E0B01015D13
:103F400002E30B01016B000E0B01E76E0219E8AEF4
:103F500002D0023503D0E750D880025502E20B01AF
:103F60000207CCD7010EF36E040EF3CFDBFF050E74
:103F7000DB6A040EDBCF14F0DB06050EDBCF15F099
:103F800001E2DB061450151006E0040EE66E60EC4C
:103F90002BF0E552EED7146E060EE15C02E2E16A08
:103FA000E552E16E1450E552E7CFD9FF1200D9CFA8
:103FB000E6FFE1CFD9FF060EE126010EF36E020EF9
:103FC000F3CFDBFF030EDB6A020EDBCF14F0DB0660
:103FD000030EDBCF15F001E2DB061450151006E0EE
:103FE000040EE66E60EC2BF0E552EED7000E0C01ED
:103FF000E76E0819E8AE02D0083503D0E750D88044
:10400000085528E20C010751EA6A090FE96E0C0E07
:10401000EA22010EEFCFDBFF72A2FED7010EDB50CA
:10402000736E72A2FED70C01072B800E0C01075D88
:1040300002E30C01076B000E0C01E76E0819E8AEF5
:1040400002D0083503D0E750D880085502E20C01B1
:104050000807CCD7010EF36E040EF3CFDBFF050E7D
:10406000DB6A040EDBCF14F0DB06050EDBCF15F0A8
:1040700001E2DB061450151006E0040EE66E60EC5B
:104080002BF0E552EED7146E060EE15C02E2E16A17
:10409000E552E16E1450E552E7CFD9FF1200D9CFB7
:1040A000E6FFE1CFD9FFE652DF6AA39A000E0C01CA
:1040B000E76E8B19E8AE02D08B3503D0E750D8807D
:1040C0008B5502E2010EDF6EA38ADF5000D0E5526D
:1040D000E552E7CFD9FF1200D9CFE6FFE1CFD9FFF4
:1040E000E652DF6A9D9A000E0B01E76E8519E8AE75
:1040F00002D0853503D0E750D880855502E2010E05
:10410000DF6E9D8ADF5000D0E552E552E7CFD9FF40
:104110001200D9CFE6FFE1CFD9FFE6529D9A0B01FD
:104120008451842BEA6A860FE96E0B0EEA22EFCFE8
:10413000DFFF800E0B01845D02E30B01846B000E38
:104140000B01E76E8519E8AE02D0853503D0E75044
:10415000D880855502E20B0185079D8ADF5000D08B
:10416000E552E552E7CFD9FF1200D9CFE6FFE1CF04
:10417000D9FFE652A39A0C018A518A2BEA6A8C0F66
:10418000E96E0C0EEA22EFCFDFFF800E0C018A5D94
:1041900002E30C018A6B000E0C01E76E8B19E8AE8E
:1041A00002D08B3503D0E750D8808B5502E20C014A
:1041B0008B079D8ADF5000D0E552E552E7CFD9FF4B
:0241C0001200EB
:0E41C200D9CFE6FFE1CFD9FFFE0EDBCF01F92A
:1041D000FD0EDBCF02F9FC0EDBCF03F9FB0EDBCFCC
:1041E00004F9F90EDBCF09FAFA0EDBCF0AFA04D88C
:1041F000E552E7CFD9FF1200EDEC1EF00A01056B86
:104200000A01066B0901010E006F0A01076B0A0122
:10421000050E086F0FCA0BFA10CA0CFA11CA0DFA74
:1042200012CA0EFA00C913FA12000A01056B0A013C
:10423000066B0901010E006F0A01076B0A01050EEA
:10424000086F0FCA0BFA10CA0CFA11CA0DFA12CA7B
:104250000EFA00C913FA1200D9CFE6FFE1CFD9FF59
:10426000060EE126DF6AAAEC28F006C00FFA07C0A6
:1042700010FA08C011FA09C012FAABA207D0AB9825
:10428000040EE66E9DEC2BF0E552AB880B0EE96E4A
:104290000A0EEA6EEE500A010F190CE1EE500A0107
:1042A000101908E1EE500A01111904E1EE500A015B
:1042B000121900E118E0090100510A01135D0BE138
:1042C000020E0901005D07E10A0108070A01085111
:1042D00002E192DFD3D00FCA0BFA10CA0CFA11CA4E
:1042E0000DFA12CA0EFA09010051030A01E1BFD00A
:1042F000010A18E0030A01E0BDD06CEC20F00009CF
:1043000001E1BCD089EC20F0DF6E09010151DF5CD6
:1043100008E10A01056B0901020E006F0A01050E92
:10432000086FAAD06CEC20F0000901E1A7D089EC5D
:1043300020F0DF6E09010251DF5C01E07CD0020E4B
:10434000DB6A030EDB68D950030FE66E000EDA203D
:10435000E66E9ED8E552E552E76E020EE7CFDBFF30
:10436000020EDB50020A58E0030A05E0010A01E0F0
:104370005DD05BDF83D00A0109510A114BE0D950AF
:10438000040FE66E000EDA20E66E070EE66E0A0EE9
:10439000E66E070EE66E090EE66E05D00ACAFAFF53
:1043A0000A010951F96EFADF146E060EE15E14502F
:1043B0000A01066F0901110E856F0A01062B07CA53
:1043C00086F90A01062BDE52020EDD6E0A01065145
:1043D000F36E010EDBCFF4FFF350F45C1AE2040E2F
:1043E000DBCFE9FF050EDBCFEAFFEF50E66E010EF3
:1043F000DB50EA6A850FE96E090EEA22E552E750C2
:10440000EF6E040EDB2A050E01E3DB2A010EDB2A28
:10441000DDD701D00ADF0BD00901110E856F0A012B
:10442000062B07CA86F90A01062B01D000D0090124
:10443000030E006F1BD00A010551052BEA6A050F18
:10444000E96E090EEA22DFCFEFFF800E0A01055D5B
:104450000DE30901110E856F0A01062B0901900E6B
:10446000866F0A01062B0901030E006F05D061D883
:10447000DCDE02D0DADE00D000C913FA060EE15C01
:1044800002E2E16AE552E16EE552E7CFD9FF1200A0
:10449000D9CFE6FFE1CFD9FF020EE1260A010505DB
:1044A000EA6A050FE96E090EEA22EFCFDFFF010E7F
:1044B000DB6A110E0901055D06E0FA0E0901055DD2
:1044C00002E0000E2AD00A010505E66E050EE66E32
:1044D000090EE66E9CD8E552E552E552E76E010EF4
:1044E000E7CFDBFF010EDB50DF5C0DE10A010507C2
:1044F0000A010551EA6A050FE96E090EEA22EF6A20
:10450000010E0BD00AD0FD0EDBCFE9FFFE0EDBCF94
:10451000EAFF910EEF6E000E00D0146E020EE15C09
:1045200002E2E16AE552E16E1450E552E7CFD9FFAD
:104530001200D9CFE6FFE1CFD9FF020EE126DF6AF4
:10454000010EDB6A06CAE6FF850EE66E090EE66E10
:104550005ED8E552E552E552DF6E03C9E6FF21EC75
:104560001FF0E552010EDB6A0A010651F36E010EDF
:10457000DBCFF4FFF350F45C0FE2010EDB50EA6A8C
:10458000850FE96E090EEA22EF50E66E21EC1FF06E
:10459000E552010EDB2AE8D7DFCFE6FF21EC1FF062
:1045A000E55204C9E6FF21EC1FF0E5525FEC1FF075
:1045B000020EE15C02E2E16AE552E16EE552E7CF0C
:1045C000D9FF1200D9CFE6FFE1CFD9FFFD0EDBCF37
:1045D000F6FFFE0EDBCFF7FF0800F55012E0FD0EF0
:1045E000DBCFF6FFFE0EDBCFF7FF0800F550E66EDF
:1045F00021EC1FF0E552FD0EDB2AFE0E01E3DB2A63
:10460000E5D75FEC1FF0E552E7CFD9FF1200D9CF15
:10461000E6FFE1CFD9FF030EE126DF6A010EDB6A78
:10462000FC0EDB50F36E010EDBCFF4FFF350F45CB5
:1046300012E2010EDB50E76EFD0EDBCFE9FFFE0E4E
:10464000DBCFEAFFE750E926000EEA22EF50DF1A3F
:10465000010EDB2AE5D7DF5000D0146E030EE15CBB
:1046600002E2E16AE552E16E1450E552E7CFD9FF6C
:02467000120036
:0E467200D9CFE6FFE1CFD9FF030EE126300ECF
:10468000F36E010EF3CFDBFF750EF36E020EF3CF68
:10469000DBFF010EDF6EDF0425E10ADA0000000017
:1046A0008392838400000000838600000000835012
:1046B000800B01E0010EDF6E839683860000000010
:1046C0008396010EDB06020E01E2DB06D950010FD4
:1046D000E96EDACFEAFFEE50ED1003E1F1D9FF0EFB
:1046E00004D0D9D7EDD9000E00D0146E030EE15CD2
:1046F00002E2E16AE552E16E1450E552E7CFD9FFDC
:104700001200D9CFE6FFE1CFD9FF83928394000056
:10471000FE0EDB50F00B146E0F0E8C1414108C6E0A
:1047200000008386000000008396E552E7CFD9FFA2
:104730001200D9CFE6FFE1CFD9FF9BDF83928394AC
:104740000000FE0EDB50F00B146E0F0E8C141410D4
:104750008C6E00008386000000008396FE0EDB381E
:10476000F00BF00B146E0F0E8C1414108C6E0000F6
:104770008386000000008396E552E7CFD9FF120040
:10478000D9CFE6FFE1CFD9FF74DF838283940000A5
:10479000FE0EDB50F00B146E0F0E8C1414108C6E8A
:1047A00000008386000000008396FE0EDB38F00BCD
:1047B000F00B146E0F0E8C1414108C6E0000838698
:1047C000000000008396E552E7CFD9FF1200D9CF51
:1047D000E6FFE1CFD9FF0B0EE12672D9280EF36E6A
:1047E000010EF3CFDBFF020EDB6A010EDBCF14F00C
:1047F000DB06020EDBCF15F001E2DB0614501510CC
:1048000006E0040EE66E60EC2BF0E552EED7300EBB
:10481000E66E77DFE5520A0EF36E030EF3CFDBFF91
:10482000040EDB6A030EDBCF14F0DB06040EDBCFD5
:1048300015F001E2DB061450151006E0040EE66EDA
:1048400060EC2BF0E552EED7300EE66E5ADFE55203
:104850000A0EF36E050EF3CFDBFF060EDB6A050EC4
:10486000DBCF14F0DB06060EDBCF15F001E2DB0632
:104870001450151006E0040EE66E60EC2BF0E552C5
:10488000EED7300EE66E3DDFE5520A0EF36E070EF0
:10489000F3CFDBFF080EDB6A070EDBCF14F0DB067D
:1048A000080EDBCF15F001E2DB061450151006E010
:1048B000040EE66E60EC2BF0E552EED7200EE66EAD
:1048C00020DFE5520A0EF36E090EF3CFDBFF0A0E6E
:1048D000DB6A090EDBCF14F0DB060A0EDBCF15F026
:1048E00001E2DB061450151006E0040EE66E60ECE3
:1048F0002BF0E552EED7280EE66E1BDFE552B9DE4F
:10490000DF6EDF5010E10F0EE66E13DFE552010E91
:10491000E66E0FDFE552040EE66E0BDFE552060E83
:10492000E66E07DFE55200D00B0EE15C02E2E16AC1
:10493000E552E16EE552E7CFD9FF1200D9CFE6FF8D
:10494000E1CFD9FFFE0EDBCF1FFEE552E7CFD9FF47
:104950001200010EE66EEDDEE5520E011E6B120036
:10496000D9CFE6FFE1CFD9FFE652FE0EDB500E01B4
:104970001F5D25E10E011E5101E13BD0100E0E011D
:104980001E5D0EE1800EE66ED4DEE552DF6A100E8B
:10499000DF5C06E2140EE66ECCDEE552DF2AF7D7C6
:1049A000100EE66EC6DEE552200EE66EE9DEE5523A
:1049B000100EE66EBEDEE5520E011E071AD0100E76
:1049C0000E011E5D05E1C00EE66EB3DEE5520AD0B3
:1049D000200E0E011E5D06E30E011E6B020EE66E3A
:1049E000A8DEE552FE0EDBCFE6FFCADEE5520E0181
:1049F0001E2BE552E552E7CFD9FF1200E8DE010E8B
:104A0000E66E97DEE5520E011E6B1200D9CFE6FF6F
:104A1000E1CFD9FFE652010EE66E8BDEE552DF6A8A
:104A2000100EDF5C1CE2FD0EDBCFE9FFFE0EDBCFDC
:104A3000EAFFEF50E66EDF50EA6A200FE96E0E0ED5
:104A4000EA22E552E750EF6EFD0EDBCFE9FFDB2AED
:104A5000FE0EDBCFEAFF01E3DB2ADF2AE1D7C00E3F
:104A6000E66E67DEE552DF6A100EDF5C1CE2FD0ECB
:104A7000DBCFE9FFFE0EDBCFEAFFEF50E66EDF5043
:104A8000EA6A200FE96E0E0EEA22E552E750EF6E59
:104A9000FD0EDBCFE9FFDB2AFE0EDBCFEAFF01E3F1
:104AA000DB2ADF2AE1D7E552E552E7CFD9FF120032
:104AB000958E958C958A95889596959495921200E9
:104AC000959E959C959A9598959695949592120099
:104AD0000D01CE6B0D01CF6B0D019F6B0D01A06B16
:104AE0000D01A16B0D01A2690D01A36B1200D9CFBD
:104AF000E6FFE1CFD9FF020EE1260D01D12B000E1A
:104B0000D223D9CFE6FFDACFE6FF8FD8E552E552C0
:104B1000000901E130D00D01CE510D01CF5D04E15E
:104B20000D01CF6B0D01CE6B0D01CF51E96EEA6A1D
:104B3000D890E936EA36A40EE9260D0EEA22DFCF38
:104B4000EFFF0D01CF51E96EEA6AD890E936EA36F7
:104B5000A40EE9260D0EEA22010EE926000EEA2235
:104B6000D1CDEFFF140E0D01CF5D02E20D01CF2B71
:104B70000D01D16BD26B020EE15C02E2E16AE552FB
:104B8000E16EE552E7CFD9FF1200D9CFE6FFE1CFC2
:104B9000D9FF0D01CF510D01CE5D34E20D01CE5193
:104BA000E96EEA6AD890E936EA36A40EE9260D0ED7
:104BB000EA22EF50E66EFD0EDBCFE9FFFE0EDBCF03
:104BC000EAFFE552E750EF6E0D01CE51E96EEA6A59
:104BD000D890E936EA36A40EE9260D0EEA22010E37
:104BE000E926000EEA22EF50E66EFB0EDBCFE9FF6E
:104BF000FC0EDBCFEAFFE552E750EF6E0D01CE2B46
:104C0000010E02D0000E00D0E552E7CFD9FF12000E
:104C10000D01CF6B0D01CE6B0D019F6B0D01A06BD4
:104C20000D01A16B0D01A2691200D9CFE6FFE1CF02
:104C3000D9FFE652DF68010E146E8150800B01E04F
:104C4000010E145C70E18150200B01E0010E166E24
:104C50008150040B01E0010EE824156E8150100B09
:104C600001E0010E040DF3CF14F08150080B01E0B8
:104C7000010E080DF3501410151016100F0BDF6EF7
:104C8000DF500F0A4BE0010A46E0030A41E0010A47
:104C90003CE0070A37E0010A32E0030A2EE0010A8D
:104CA00029E00F0A24E0010A1FE0030A1AE0010AC2
:104CB00015E0070A10E0010A0BE0030A06E0010A0A
:104CC00001E02FD0050EDF6E2ED0060EDF6E2BD04A
:104CD000090EDF6E28D00A0EDF6E25D0020EDF6EC1
:104CE00022D0010EDF6E1FD0030EDF6E1CD0070E28
:104CF000DF6E19D0040EDF6E16D0DF6A14D00B0EF3
:104D0000DF6E11D00F0EDF6E0ED00C0EDF6E0BD0EB
:104D1000080EDF6E08D00E0EDF6E05D00D0EDF6EB2
:104D200002D0DF6800D0FF0EDF5C06E10D01D36921
:104D30000D01D069000E18D00D01D351DF5C10E1D8
:104D40000D01D051DF5C0CE0FD0EDBCFE9FFFE0E64
:104D5000DBCFEAFFDFCFEFFFDFCFD0FD010E04D0C6
:104D6000DFCFD3FD000E00D0E552E552E7CFD9FFEB
:024D700012002F
:0E4D7200DACFE4FFE2CFDAFFE9CFE4FFEACFC9
:104D8000E4FFF6CFE4FFF7CFE4FFF5CFE4FFF3CF86
:104D9000E4FFF4CFE4FFFACFE4FF00EE00F0140EDE
:104DA000E80403E3EECFE4FFFBD700EE14F00A0EB5
:104DB000E80403E3EECFE4FFFBD7E652F2940E01E2
:104DC0000E2B000E0F230E01102B000E11230E01CF
:104DD000122B000E13230E01142B000E15230E01AF
:104DE000162B000E17230E011807000E195B0E017B
:104DF000193504E218510008000E19550AE30E0196
:104E00001A2B000E1B231C231D23C80E0E01186F26
:104E1000196B0E010251031107E005D003CEFAFF12
:104E20000E010251F96EFADF00CEE6FF01CEE6FF79
:104E300012EC2BF0E552E552E55200EE1DF00A0EA1
:104E4000E80403E3E5CFEDFFFBD700EE13F0140E0B
:104E5000E80403E3E5CFEDFFFBD7E5CFFAFFE5CFAD
:104E6000F4FFE5CFF3FFE5CFF5FFE5CFF7FFE5CFA3
:104E7000F6FFE5CFEAFFE5CFE9FFE5CFDAFF110066
:104E8000DACFE4FFE2CFDAFFE9CFE4FFEACFE4FFD5
:104E9000F6CFE4FFF7CFE4FFF5CFE4FFF3CFE4FF75
:104EA000F4CFE4FFFACFE4FF00EE00F0140EE804C4
:104EB00003E3EECFE4FFFBD700EE14F00A0EE804A4
:104EC00003E3EECFE4FFFBD7E652D9CFE6FFE1CF15
:104ED000D9FFE652F3EC2AF0DF6E0B018351832BEE
:104EE000EA6A860FE96E0B0EEA22DFCFEFFF800E33
:104EF0000B01835D02E30B01836B0B01852B9E9AF3
:104F0000E552E552E7CFD9FFE55200EE1DF00A0E5B
:104F1000E80403E3E5CFEDFFFBD700EE13F0140E3A
:104F2000E80403E3E5CFEDFFFBD7E5CFFAFFE5CFDC
:104F3000F4FFE5CFF3FFE5CFF5FFE5CFF7FFE5CFD2
:104F4000F6FFE5CFEAFFE5CFE9FFE5CFDAFF110095
:104F5000FE0EE3CFE9FFFF0EE3CFEAFFE9CFF3FF59
:104F6000EACFF4FFFB0EE35003E1FC0EE35009E04F
:104F7000FB0EE30602E2FC0EE306FD0EE350EE6ECE
:104F8000F1D71200D9CFE6FFDACFE6FFFA0EE3CF72
:104F9000D9FFFB0EE3CFDAFFFC0EE3CFE9FFFD0EF6
:104FA000E3CFEAFFDE50EF5C02E1EE66FBD7F36E83
:104FB000FF0EE3CFDAFFE552FF0EE3CFD9FFE55254
:104FC000F3501200D9CFE6FFDACFE6FFFA0EE3CFB7
:104FD000D9FFFB0EE3CFDAFFFC0EE3CFE9FFFD0EB6
:104FE000E3CFEAFFE9CFF3FFEACFF4FFDECFEFFF35
:104FF000EE66FCD7FF0EE3CFDAFFE552FF0EE3CFFC
:10500000D9FFE5521200FB0EE3CFF6FFFC0EE3CF13
:10501000F7FFFD0EE3CFF8FFFE0EE3CFE9FFFF0E33
:10502000E3CFEAFFE9CFF3FFEACFF4FF0900F5CFC2
:10503000EFFFEE66FBD71200FE0EE3CFE9FFFF0E97
:10504000E3CFEAFFF36AF46AEE5203E0F34AF42A8C
:04505000FBD7120078
:0C505400D9CFE6FFE1CFD9FFE652B2EC65
:105060002AF0000EE66EE66AE00EE66EB10EE66E1F
:1050700086EC28F0E552E552E552E552FEEC24F0CC
:1050800068EC25F01CEC15F059EC00F011EC00F088
:105090000E01640E0E5D000E0F5905E383EC2BF03C
:1050A0000E010E6B0F6B0E01080E105D000E1159F4
:1050B00005E377EC25F00E01106B116B0E01020E6B
:1050C000125D000E135905E32CEC21F00E01126B5A
:1050D000136B0E01F40E145D010E155905E3A7ECD8
:1050E00002F00E01146B156B0E01280E165D000EFA
:1050F000175905E3B8EC15F00E01166B176B040099
:0C510000C7D7E552E552E7CFD9FF1200F7
:04510C00D9CFE6FF12
:10511000E1CFD9FF9F0EE66E2EEC2BF0E552FD0E8F
:10512000DBCF00FEFE0EDBCF01FEFB0EDBCF02FE6F
:10513000FC0EDBCF03FEF194FD0EDBCFE6FFFE0E8F
:10514000DBCFE6FF12EC2BF0E552E552E552E7CF5C
:10515000D9FF1200D9CFE6FFE1CFD9FF040EE12637
:10516000F29A1ACEDFFF010E1BCEDBFF020E1CCE21
:10517000DBFF030E1DCEDBFFF28ADECF06F0DECFB3
:1051800007F0DECF08F0DDCF09F0DD52DD5200D0B0
:10519000040EE15C02E2E16AE552E16EE552E7CF1E
:1051A000D9FF1200F29E0E011A6B1B6B1C6B1D6B5C
:0451B000F28E120069
:0C51B4002C0EF66E000EF76E000EF86E6A
:1051C0000D010900F550D96F0900F550DA6F03E1C0
:1051D000D96701D03DD00900F550D46F0900F550D2
:1051E000D56F0900F550D66F09000900F550E96E3A
:1051F0000900F550EA6E090009000900F550D76F63
:105200000900F550D86F09000900F6CFDBFDF7CF94
:10521000DCFDF8CFDDFDD4CDF6FFD5CDF7FFD6CD43
:10522000F8FF0D01D75302E1D85307E00900F5500C
:10523000EE6ED707F8E2D807F9D7DBCDF6FFDCCD65
:10524000F7FFDDCDF8FF0D01D907000EDA5BBFD700
:0252500012004A
:0E525200006A0EAE32EF29F00D6C0E1EE86AF7
:105260000E22001E09AE3AEF29F0086C091EE86A0A
:105270000922001E4AEC2BF009BE4AEF29F000AECD
:10528000000C086C091EE86A0922046C051EE86A15
:105290000522000C00BE41EF29F00188FF0C08C078
:1052A00012F008500D02F4CF07F0F3CF06F00950CA
:1052B0000E02F4CF09F0F3CF08F00D02F3500726E9
:1052C000F4500822E86A092212500E02F350072611
:0A52D000F4500822E86A0922000CDD
:0652DA004E454152204D3B
:1052E0004953530050524F50455254592044414D58
:1052F000414745004D494E4F5220494E4A5552595B
:10530000004D414A4F5220494E4A555259000043E0
:105310004C454152204953535545530041444D4952
:105320004E2041435449564954593A005041535331
:10533000574F52443A00434C4153533A0050415264
:1053400054204E4F3A0049535355453A0053544167
:0653500054494F4E3A00E3
:0A535600D9CFE6FFDACFE6FFE1CF82
:10536000D9FFE2CFDAFFE652DF6AFD0EDBCF15F0A0
:1053700015C014F0030E1514AA6EFF0EE76EFC0E96
:10538000DBCF14F0E7501416156A1450A96EFB0E0B
:10539000DB50A86EA69EA69CA684F250800B01E06E
:1053A000010EDF6EF29E550EA76EAA0EA76EA682A4
:1053B000A6B2FED7DF50E8B0F28EE8A0F29EA69427
:0E53C000E552E552E5CFDAFFE7CFD9FF120044
:0253CE00D9CF35
:1053D000E6FFDACFE6FFE1CFD9FFE2CFDAFF726A6C
:1053E000716AFD0EDBB07288DBA202D0728C718C08
:1053F000DBB4728EDBA602D0718801D0718ADBA883
:1054000002D0728401D07294DBBA7186DBAC02D018
:10541000A38A01D0A39ADBAE02D0A38801D0A398BF
:10542000FB0EDB50756EFC0EDBCF15F015C014F0D3
:10543000156A1450766E728A718EE552E5CFDAFFE6
:06544000E7CFD9FF1200C6
:0A544600D9CFE6FFDACFE6FFE1CF91
:10545000D9FFE2CFDAFFAC6AAB6AFD0EDBB0AC88F5
:10546000DBA202D0AC8CAB8CDBB4AC8EDBA602D062
:10547000AB8801D0AB8ADBB8AC84DBBAAB86DBACE3
:1054800002D09D8A01D09D9ADBAE02D09D8801D0CA
:105490009D98FB0EDB50AF6EFC0EDBCF15F015C0F8
:1054A00014F0156A1450B06EAC8AAB8EE552E5CF9D
:0854B000DAFFE7CFD9FF12007B
:0854B800D9CFE6FFDACFE6FFD1
:1054C000E1CFD9FFE2CFDAFFFC0EDBCF14F0FD0E07
:1054D000DBCF15F015C014F0156A030E1414AA6E74
:1054E000FF0EE76EFC0EDBCF14F0FD0EDBCF15F0E8
:1054F000E7501416156A1450A96EA69CA69EA680A5
:1055000000000000A85000D0E552E5CFDAFFE7CF59
:04551000D9FF1200AD
:0C551400312D312D3132414243323344FD
:105520004546330B0B0B0B0B3447484934354A4B7C
:105530004C35364D4E4F360C0C0C0C0C375051522E
:10554000533854555638395758595A0808080808D6
:105550002A2A2A2A2A302030203013131313130A40
:045560000A0A0A0A1F
:0C556400C26A0F01386B0F01396B0F0198
:105570003A6B0F013B6B0F013C6B700ED36E969034
:105580008490949C948E959E959C959A95989596CA
:10559000959495928168929680969290809092943C
:0855A0008094929280921200A7
:0855A800D9CFE6FFDACFE6FFE0
:1055B000E1CFD9FFE2CFDAFFE652F20E0E01FA1781
:1055C00071AC03D0FA9171B0FA8171B4FA8571B2FD
:1055D000FA877450DF6EDF50E552E552E5CFDAFF0F
:0655E000E7CFD9FF120025
:0A55E600D9CFE6FFDACFE6FFE1CFF0
:1055F000D9FFE2CFDAFFE652F20E0E01FB17ABAC99
:1056000003D0FB91ABB0FB81ABB4FB85ABB2FB87A6
:10561000AE50DF6EDF50E552E552E5CFDAFFE7CF5F
:04562000D9FF12009C
:0C562400D9CFE6FFDACFE6FFE1CFD9FFD7
:10563000E2CFDAFFE652E652FC0EDBCFDEFFDBCF35
:10564000DDFF010EDB50D76EDF50D66EE552E5521E
:0C565000E552E5CFDAFFE7CFD9FF1200EA
:04565C00D9CFE6FFBD
:10566000DACFE6FFE1CFD9FFE2CFDAFFFD0EDB5064
:105670007F0BD56ED76AD66AF294FD0EDBAE02D0F0
:10568000F28A01D0F29AD58EE552E5CFDAFFE7CF64
:04569000D9FF12002C
:0C569400056A046A100EE76ED890083614
:1056A0000936043605360D50045C0E50055805E3E6
:1056B0000D50045E0E50055A082AE72EF0D712004E
:1056C000FF0EE3501E6E480E01D04C0EE76EE72E23
:1056D000FED7E76AE72EFED71E2EF7D7000012008E
:1056E000380EF36E00EE00F00F0E01D81200EA60E3
:1056F00002D0EE6AFCD7F350E9601200EE6AFCD7E4
:105700000E01FD6B12000E01FD0504E10E01FD6BA3
:0E571000849004D00E01010EFD6F8480120003
:02571E0010EE8B
:1057200060F020EE60F0F86A019CDAEC28F0B1EC51
:0A5730002BF02AEC28F0FBD7120042
:06573A00FF0EE350E84EF3
:105740001200000000D000D000D0E82EFAD71200DE
:105750002020202020202020202020202020202049
:015760000048
:015761000047
:02576200120033
:0C57640000000000000000000000000039
:105770000000000000000000000000000000000029
:105780000000000000000000FF000000000000001A
:105790000000000000000000000000000000000009
:1057A00000000000000000000000000000000000F9
:1057B00000000000000000000000000000000000E9
:1057C00000000000000000000000000000FF0000DA
:1057D00000000000000000000000000000000000C9
:0F57E0000000000000000000000000000000FFBB
:0157EF0000B9
:1057F00000000000000000000000000000000000A9
:105800000000000000000000000000000000000098
:105810000000000000000000000000000000000088
:105820000000000000000000000000000000000078
:105830000000000000000000000000000000000068
:105840000000000000000000000000000000000058
:105850000000000000000000000000000000000048
:105860000000000000000000000000000000000038
:105870000000000000000000000000000000000028
:105880000000000000000000000000000000000018
:105890000000000000000000000000000000000008
:1058A00000000000000000000000000000000000F8
:1058B00000000000000000000000000000000000E8
:1058C00000000000000000000000000000000000D8
:1058D00000000000000000000000000000000000C8
:1058E00000000000000000000000000000000000B8
:0558F0000000000000B3
:0B58F5000000000000000000000000A8
:1059000000000000000000000000000000C80000CF
:0359100000000094
:0D5913000000000000000000000000000087
:105920000000000000000000000000000000000077
:105930000000000000000000000000000000000067
:105940000000000000000000000000000000000057
:105950000000000000000000000000000000000047
:105960000000000000000000000000000000000037
:105970000000000000000000000000000000000027
:105980000000000000000000000000000000000017
:105990000000000000000000000000000000000007
:1059A00000000000000000000000000000000000F7
:1059B00000000000000000000000000000000000E7
:1059C00000000000000000000000000000000000D7
:1059D00000000000000000000000000000000000C7
:1059E00000000000000000000000000000000000B7
:1059F00000000000000000000000000000000000A7
:105A00000000000000000000000000000000000096
:105A10000000000000000000000000000000000086
:105A20000000000000000000000000000000000076
:105A30000000000000000000000000000000000066
