:020000040000FA
:06000000A5EF28F012003C
:02000600780080
:080008009EAA02D05CEF24F077
:020010001200DC
:06001200A6B2FED71200A9
:08001800F2A402D0D1EF23F0A5
:0C0020001200D08E9F8AF28EF28C12002B
:04002C000B008A5AE1
:100030000000D30D00001C000000885A0000F90DDC
:1000400000000200000077510000FE0D00000100DA
:1000500000006C560000000100001C040000585510
:10006000000000090000140100000F5500008A0D77
:10007000000049000000ED5400001E0E00002200A8
:1000800000002853000000060000C50100000A53CC
:100090000000000E00001E00000004520000000BD3
:1000A0000000060100007A510000000D00008A00E7
:0200B00000004E
:0E00B200D9CFE6FFE1CFD9FF0A0EE126050EF9
:1000C000DB6A060EDB6A070EDB6A080EDB6A090EC6
:1000D000DB6A0101036B046B056B066B0101076BA7
:1000E000086B096B0A6B0601046BDE6ADD6ADECF02
:1000F00014F0DDCF15F0200E145C000E155801E34E
:100100009ED0DECF14F0DDCF15F0050ED89014365A
:100110001536E806FBE1170E1426010E1522030E14
:1001200014C0DBFF040E15C0DBFF020EDB6A200EDD
:10013000F36E020EDBCFF4FFF350F45C35E209EC12
:1001400000F00400020EDB50166E176A200E086ED7
:10015000096ADECF0DF0DDCF0EF020EC28F006505E
:100160001624146E07501720156E14C0E6FF15C034
:10017000E6FF65EC27F0E552E552E66E020EDB5035
:10018000E76E030EDBCFE9FF040EDBCFEAFFE7509B
:10019000E926000EEA22E552E750EF6E09EC00F086
:1001A0000400020EDB2AC3D7DECFE9FFDDCFEAFF72
:1001B000050ED890E936EA36E806FBE1170EE92687
:1001C000010EEA221E0EE926000EEA22EF0402E1E9
:1001D0000101012BDECFE9FFDDCFEAFF050ED8904C
:1001E000E936EA36E806FBE1170EE926010EEA22B7
:1001F0001E0EE926000EEA22EF50030802E101017B
:10020000022BDECFE9FFDDCFEAFF050ED890E936FD
:10021000EA36E806FBE1170EE926010EEA221F0E78
:10022000E926000EEA22EF0405E1010EF36E050E49
:10023000F3CFDBFFDF2A010E01E3DB2A58D70101F0
:100240000251000806E2010EF36E080EF3CFDBFF49
:100250000FD001010151000806E2010EF36E070EF6
:10026000F3CFDBFF05D0010EF36E060EF3CFDBFFFD
:10027000050EDB0405E1010EF36E090EF3CFDBFF83
:100280000101310E0D6F0101300E0E6F0101300EB4
:100290000F6F0101330E106F0101116B0501060E86
:1002A000196F09EC00F00400E66AE66AE66AE66A9D
:1002B000A4EC12F0E552E552E552E55231D80501C1
:1002C000010E176F090EDBCFE6FF080EDBCFE6FF4E
:1002D000070EDBCFE6FF060EDBCFE6FFA4EC12F045
:1002E000E552E552E552E552A60EE66E2A0EE66E9E
:1002F000DD0EE66ECC0EE66EBB0EE66EAA0EE66E68
:1003000004EC1EF0146E060EE15E14500A0EE15C61
:1003100002E2E16AE552E16EE552E7CFD9FF120051
:10032000D9CFE6FFE1CFD9FF050EE126DF6A010E46
:10033000DB6A020EDB6A030EDB6A01010251000870
:1003400009E20101030E006F010EF36E020EF3CFFE
:10035000DBFF11D001010151000807E20101010E8C
:10036000006FDE52010EDD6E06D00101006B010E42
:10037000DF6E030EDB6A040EDB6A200EF36E040EE2
:10038000DBCFF4FFF350F45C1AE2040EDB50200DD7
:10039000F3CFE9FFF4CFEAFF170EE926010EEA22B8
:1003A0001F0EE926000EEA22EF0406E1010EF36EAD
:1003B000030EF3CFDBFF03D0040EDB2ADED7030EE0
:1003C000DBCFE6FF020EDBCFE6FF010EDBCFE6FF61
:1003D000DFCFE6FFA4EC12F0E552E552E552E5521C
:1003E000050EE15C02E2E16AE552E16EE552E7CF1B
:1003F000D9FF1200D9CFE6FFE1CFD9FF050EE126E4
:10040000DF6A010EDB6A020EDB6A030EDB6A0101A2
:100410000251000809E20101030E006F010EF36EA4
:10042000020EF3CFDBFF11D001010151000807E2FA
:100430000101010E006FDE52010EDD6E06D00101DA
:10044000006B010EDF6E030EDB6A030EDBCFE6FFEF
:10045000020EDBCFE6FF010EDBCFE6FFDFCFE6FFCC
:10046000A4EC12F0E552E552E552E5520501010E09
:10047000176F010E00D0146E050EE15C02E2E16A16
:10048000E552E16E1450E552E7CFD9FF1200D9CF03
:10049000E6FFE1CFD9FF050EE126DF6A010EDB6A38
:1004A000020EDB6A030EDB6AFD0EDBCFE6FFFE0EFB
:1004B000DBCFE6FF120EE66E010EE66EDEEC24F0F8
:1004C000E552E552E552E552000902E0000E1FD068
:1004D000030EDBCFE6FF020EDBCFE6FF010EDBCF24
:1004E000E6FFDFCFE6FFA4EC12F0E552E552E5525D
:1004F000E552FB0EDBCFE6FFFC0EDBCFE6FF52EC56
:1005000012F0E552E5520501176B010E00D0146E92
:10051000050EE15C02E2E16AE552E16E1450E5523B
:10052000E7CFD9FF1200D9CFE6FFE1CFD9FF090EFF
:10053000E126010EF36E080EF3CFDBFF35EC26F05B
:1005400006C007F107C008F108C009F109C00AF1A7
:10055000030EE96E010EEA6EEE50010107190CE17F
:10056000EE500101081908E1EE500101091904E1FA
:10057000EE5001010A1900E101E1BDD007C103F10C
:1005800008C104F109C105F10AC106F1DF6A200EB4
:10059000DF5C01E3A4D0DF50200DF3CFE9FFF4CFFF
:1005A000EAFF170EE926010EEA221E0EE926000ECA
:1005B000EA22EF0401E091D0DF50200DF3CFE9FFF4
:1005C000F4CFEAFF170EE926010EEA221C0EE926F7
:1005D000000EEA22EE06000EED5ADF50200DF3CF9A
:1005E000E9FFF4CFEAFF170EE926010EEA221C0EFE
:1005F000E926000EEA22E9CF14F0EACF15F0010E49
:1006000014C0DBFF020E15C0DBFF010EDBCFE9FFDC
:10061000020EDBCFEAFF030EEFCFDBFF200EDF027F
:10062000F3501C0F146E040E14C0DBFF050EDB6AC2
:10063000060EDB6A070EDB6A010EDBCFE9FF020E56
:10064000DBCFEAFFEF50E66E200EDF02F3501C0F07
:10065000E66EE66AB4EC26F0E552E552E55209ECA6
:1006600000F00400010EE76E010EDBCFE9FF020E81
:10067000DBCFEAFFE750E926000EEA22030EEFCFB8
:10068000DBFF200EDF02F3501C0F010F146E040E6F
:1006900014C0DBFF050EDB6A060EDB6A070EDB6AA1
:1006A000010EE76E010EDBCFE9FF020EDBCFEAFFA2
:1006B000E750E926000EEA22EF50E66E200EDF0238
:1006C000F3501C0F010FE66EE66AB4EC26F0E5521B
:1006D000E552E55209EC00F00400DF2A58D7ABECF4
:1006E00013F0010806E181860101015102E18198C0
:1006F000819A06EC16F0090EE15C02E2E16AE5522D
:10070000E16EE552E7CFD9FF1200D9CFE6FFE1CF86
:10071000D9FF050EE126FD0EDBCFE9FFFE0EDBCF94
:10072000EAFF200EE926000EEA22EF28DF6E010E16
:10073000DB6A020EF36E020EF3CFDBFF200EDF5CEE
:1007400001E3DF6AFD0EDBCFE9FFFE0EDBCFEAFF40
:10075000200EE926000EEA22EF68030EDB6A200E67
:10076000F36E030EDBCFF4FFF350F45C01E354D3DC
:10077000DF501F0BDF6EDF50200DF3CFE9FFF4CF0A
:10078000EAFF170EE926010EEA221E0EE926000EE8
:10079000EA22EF5010E0DF50200DF3CFE9FFF4CF55
:1007A000EAFF170EE926010EEA221F0EE926000EC7
:1007B000EA22EF5001E12CD3DF50200DF3CFE9FF07
:1007C000F4CFEAFF170EE926010EEA22E9CF14F072
:1007D000EACF15F0020EDB500F011424E96E000E73
:1007E0001520EA6EEF502A0A01E1EED2130A01E168
:1007F0009DD2010A01E14CD20F0A01E1FBD1010AAD
:1008000001E1AAD1030A01E159D1010A01E1F2D0C3
:10081000070A01E1A1D0010A51E0030A01E0D5D2A3
:10082000D5CD14F0D6CD15F0166A14C0E6FF15C06C
:10083000E6FF16C0E6FFFD0EDBCFE9FFFE0EDBCFC5
:10084000EAFFE9CF19F0EACF1AF0010EDB50000100
:100850001924176E000E1A20186E17C0E6FF18C074
:10086000E6FF1FEC25F01B6E050EE15E1B50FD0E32
:10087000DBCFE9FFFE0EDBCFEAFFE9CF16F0EACFD0
:1008800017F0010EDB5000011624146E000E172025
:10089000156E14C0E6FF15C0E6FF38EC25F0E552F2
:1008A000E552040EF3CFDBFF010EDBCFE7FF040EB2
:1008B000DB50E726010EE7CFDBFF88D2D7CD14F05F
:1008C000D8CD15F0166A14C0E6FF15C0E6FF16C0B5
:1008D000E6FFFD0EDBCFE9FFFE0EDBCFEAFFE9CF3F
:1008E00019F0EACF1AF0010EDB5000011924176E3F
:1008F000000E1A20186E17C0E6FF18C0E6FF1FECA6
:1009000025F01B6E050EE15E1B50FD0EDBCFE9FFEF
:10091000FE0EDBCFEAFFE9CF16F0EACF17F0010EAB
:10092000DB5000011624146E000E1720156E14C043
:10093000E6FF15C0E6FF38EC25F0E552E552040E5F
:10094000F3CFDBFF010EDBCFE7FF040EDB50E72622
:10095000010EE7CFDBFF3AD2D9CD14F0DACD15F096
:10096000166A14C0E6FF15C0E6FF16C0E6FFFD0ECE
:10097000DBCFE9FFFE0EDBCFEAFFE9CF19F0EACFCC
:100980001AF0010EDB5000011924176E000E1A2018
:10099000186E17C0E6FF18C0E6FF1FEC25F01B6EAF
:1009A000050EE15E1B50FD0EDBCFE9FFFE0EDBCF37
:1009B000EAFFE9CF16F0EACF17F0010EDB50000195
:1009C0001624146E000E1720156E14C0E6FF15C015
:1009D000E6FF38EC25F0E552E552040EF3CFDBFFDD
:1009E000010EDBCFE7FF040EDB50E726010EE7CF59
:1009F000DBFFECD1FD0EDBCFE9FFFE0EDBCFEAFF24
:100A0000E9CF14F0EACF15F0010EDBCFF3FFDB2ABC
:100A1000F3500F011424E96E000E1520EA6E230E28
:100A2000EF6E020EDB2ADF50200DF3CFE9FFF4CF8B
:100A3000EAFF170EE926010EEA22E9CF14F0EACF09
:100A400015F0020EDB500F011424E96E000E152084
:100A5000EA6EEF5032E0DF50200DF3CFE9FFF4CF24
:100A6000EAFF170EE926010EEA22E9CF16F0EACFD7
:100A700017F0020EDB500F011624E96E000E17204E
:100A8000EA6EEF50E66EFD0EDBCFE9FFFE0EDBCF28
:100A9000EAFFE9CF14F0EACF15F0010EDB500F01A9
:100AA0001424E96E000E1520EA6EE552E750EF6E51
:100AB000010EDB2A020EDB2AB6D788D1DDCD14F079
:100AC000DECD15F0166A14C0E6FF15C0E6FF16C0AD
:100AD000E6FFFD0EDBCFE9FFFE0EDBCFEAFFE9CF3D
:100AE00019F0EACF1AF0010EDB5000011924176E3D
:100AF000000E1A20186E17C0E6FF18C0E6FF1FECA4
:100B000025F01B6E050EE15E1B50FD0EDBCFE9FFED
:100B1000FE0EDBCFEAFFE9CF16F0EACF17F0010EA9
:100B2000DB5000011624146E000E1720156E14C041
:100B3000E6FF15C0E6FF38EC25F0E552E552040E5D
:100B4000F3CFDBFF010EDBCFE7FF040EDB50E72620
:100B5000010EE7CFDBFF3AD1DFCD14F0E0CD15F089
:100B6000166A14C0E6FF15C0E6FF16C0E6FFFD0ECC
:100B7000DBCFE9FFFE0EDBCFEAFFE9CF19F0EACFCA
:100B80001AF0010EDB5000011924176E000E1A2016
:100B9000186E17C0E6FF18C0E6FF1FEC25F01B6EAD
:100BA000050EE15E1B50FD0EDBCFE9FFFE0EDBCF35
:100BB000EAFFE9CF16F0EACF17F0010EDB50000193
:100BC0001624146E000E1720156E14C0E6FF15C013
:100BD000E6FF38EC25F0E552E552040EF3CFDBFFDB
:100BE000010EDBCFE7FF040EDB50E726010EE7CF57
:100BF000DBFFECD0E1CD14F0E2CD15F0166A14C0A5
:100C0000E6FF15C0E6FF16C0E6FFFD0EDBCFE9FFED
:100C1000FE0EDBCFEAFFE9CF19F0EACF1AF0010EA2
:100C2000DB5000011924176E000E1A20186E17C031
:100C3000E6FF18C0E6FF1FEC25F01B6E050EE15E17
:100C40001B50FD0EDBCFE9FFFE0EDBCFEAFFE9CF45
:100C500016F0EACF17F0010EDB5000011624146ED7
:100C6000000E1720156E14C0E6FF15C0E6FF38EC25
:100C700025F0E552E552040EF3CFDBFF010EDBCF8A
:100C8000E7FF040EDB50E726010EE7CFDBFF9ED027
:100C9000E3CD14F0E4CD15F0166A14C0E6FF15C0DC
:100CA000E6FF16C0E6FFFD0EDBCFE9FFFE0EDBCF51
:100CB000EAFFE9CF19F0EACF1AF0010EDB5000018C
:100CC0001924176E000E1A20186E17C0E6FF18C000
:100CD000E6FF1FEC25F01B6E050EE15E1B50FD0EBE
:100CE000DBCFE9FFFE0EDBCFEAFFE9CF16F0EACF5C
:100CF00017F0010EDB5000011624146E000E1720B1
:100D0000156E14C0E6FF15C0E6FF38EC25F0E5527D
:100D1000E552040EF3CFDBFF010EDBCFE7FF040E3D
:100D2000DB50E726010EE7CFDBFF50D0E5CD14F016
:100D3000E6CD15F0166A14C0E6FF15C0E6FF16C032
:100D4000E6FFFD0EDBCFE9FFFE0EDBCFEAFFE9CFCA
:100D500019F0EACF1AF0010EDB5000011924176ECA
:100D6000000E1A20186E17C0E6FF18C0E6FF1FEC31
:100D700025F01B6E050EE15E1B50FD0EDBCFE9FF7B
:100D8000FE0EDBCFEAFFE9CF16F0EACF17F0010E37
:100D9000DB5000011624146E000E1720156E14C0CF
:100DA000E6FF15C0E6FF38EC25F0E552E552040EEB
:100DB000F3CFDBFF010EDBCFE7FF040EDB50E726AE
:100DC000010EE7CFDBFF02D023D000D0FD0EDBCF3A
:100DD000E9FFFE0EDBCFEAFFE9CF14F0EACF15F012
:100DE000010EDB500F011424E96E000E1520EA6E8F
:100DF000EF6ADFCF18F5FD0EDBCFE9FFFE0EDBCF8C
:100E0000EAFF200EE926000EEA2218C5EFFF04D003
:100E1000030EDB2ADF2AA3D4050EE15C02E2E16ABD
:100E2000E552E16EE552E7CFD9FF1200D9CFE6FFD8
:100E3000E1CFD9FF050EE126FD0EDBCFE9FFFE0E67
:100E4000DBCFEAFF200EE926000EEA22EF28DF6E54
:100E5000010EDB6A020EF36E020EF3CFDBFF200EF3
:100E6000DF5C01E3DF6AFD0EDBCFE9FFFE0EDBCFC7
:100E7000EAFF200EE926000EEA22EF68030EDB6A85
:100E8000200EF36E030EDBCFF4FFF350F45C01E3AE
:100E900054D3DF501F0BDF6EDF50200DF3CFE9FF7F
:100EA000F4CFEAFF170EE926010EEA221E0EE9260C
:100EB000000EEA22EF5010E0DF50200DF3CFE9FFE3
:100EC000F4CFEAFF170EE926010EEA221F0EE926EB
:100ED000000EEA22EF0401E12CD3DF50200DF3CF06
:100EE000E9FFF4CFEAFF170EE926010EEA22E9CF67
:100EF00014F0EACF15F0020EDB500F011424E96E56
:100F0000000E1520EA6EEF502A0A01E1EED2130A14
:100F100001E19DD2010A01E14CD20F0A01E1FBD1AE
:100F2000010A01E1AAD1030A01E159D1010A01E153
:100F3000F2D0070A01E1A1D0010A51E0030A01E061
:100F4000D5D2D5CD14F0D6CD15F0166A14C0E6FF73
:100F500015C0E6FF16C0E6FFFD0EDBCFE9FFFE0E73
:100F6000DBCFEAFFE9CF19F0EACF1AF0010EDB5030
:100F700000011924176E000E1A20186E17C0E6FF24
:100F800018C0E6FF1FEC25F01B6E050EE15E1B503E
:100F9000FD0EDBCFE9FFFE0EDBCFEAFFE9CF16F057
:100FA000EACF17F0010EDB5000011624146E000E7C
:100FB0001720156E14C0E6FF15C0E6FF38EC25F0CB
:100FC000E552E552040EF3CFDBFF010EDBCFE7FF66
:100FD000040EDB50E726010EE7CFDBFF88D2D7CD2A
:100FE00014F0D8CD15F0166A14C0E6FF15C0E6FF60
:100FF00016C0E6FFFD0EDBCFE9FFFE0EDBCFEAFFFA
:10100000E9CF19F0EACF1AF0010EDB5000011924E4
:10101000176E000E1A20186E17C0E6FF18C0E6FF04
:101020001FEC25F01B6E050EE15E1B50FD0EDBCFA5
:10103000E9FFFE0EDBCFEAFFE9CF16F0EACF17F0AB
:10104000010EDB5000011624146E000E1720156EE1
:1010500014C0E6FF15C0E6FF38EC25F0E552E55276
:10106000040EF3CFDBFF010EDBCFE7FF040EDB50F6
:10107000E726010EE7CFDBFF3AD2D9CD14F0DACD67
:1010800015F0166A14C0E6FF15C0E6FF16C0E6FFAD
:10109000FD0EDBCFE9FFFE0EDBCFEAFFE9CF19F053
:1010A000EACF1AF0010EDB5000011924176E000E72
:1010B0001A20186E17C0E6FF18C0E6FF1FEC25F0D7
:1010C0001B6E050EE15E1B50FD0EDBCFE9FFFE0E31
:1010D000DBCFEAFFE9CF16F0EACF17F0010EDB50C5
:1010E00000011624146E000E1720156E14C0E6FFC2
:1010F00015C0E6FF38EC25F0E552E552040EF3CFBB
:10110000DBFF010EDBCFE7FF040EDB50E726010E0D
:10111000E7CFDBFFECD1FD0EDBCFE9FFFE0EDBCF2F
:10112000EAFFE9CF14F0EACF15F0010EDBCFF3FFB1
:10113000DB2AF3500F011424E96E000E1520EA6E2D
:10114000230EEF6E020EDB2ADF50200DF3CFE9FFF6
:10115000F4CFEAFF170EE926010EEA22E9CF14F0D8
:10116000EACF15F0020EDB500F011424E96E000ED9
:101170001520EA6EEF5032E0DF50200DF3CFE9FF8B
:10118000F4CFEAFF170EE926010EEA22E9CF16F0A6
:10119000EACF17F0020EDB500F011624E96E000EA5
:1011A0001720EA6EEF50E66EFD0EDBCFE9FFFE0E74
:1011B000DBCFEAFFE9CF14F0EACF15F0010EDB50E8
:1011C0000F011424E96E000E1520EA6EE552E75077
:1011D000EF6E010EDB2A020EDB2AB6D788D1DDCDF9
:1011E00014F0DECD15F0166A14C0E6FF15C0E6FF58
:1011F00016C0E6FFFD0EDBCFE9FFFE0EDBCFEAFFF8
:10120000E9CF19F0EACF1AF0010EDB5000011924E2
:10121000176E000E1A20186E17C0E6FF18C0E6FF02
:101220001FEC25F01B6E050EE15E1B50FD0EDBCFA3
:10123000E9FFFE0EDBCFEAFFE9CF16F0EACF17F0A9
:10124000010EDB5000011624146E000E1720156EDF
:1012500014C0E6FF15C0E6FF38EC25F0E552E55274
:10126000040EF3CFDBFF010EDBCFE7FF040EDB50F4
:10127000E726010EE7CFDBFF3AD1DFCD14F0E0CD5A
:1012800015F0166A14C0E6FF15C0E6FF16C0E6FFAB
:10129000FD0EDBCFE9FFFE0EDBCFEAFFE9CF19F051
:1012A000EACF1AF0010EDB5000011924176E000E70
:1012B0001A20186E17C0E6FF18C0E6FF1FEC25F0D5
:1012C0001B6E050EE15E1B50FD0EDBCFE9FFFE0E2F
:1012D000DBCFEAFFE9CF16F0EACF17F0010EDB50C3
:1012E00000011624146E000E1720156E14C0E6FFC0
:1012F00015C0E6FF38EC25F0E552E552040EF3CFB9
:10130000DBFF010EDBCFE7FF040EDB50E726010E0B
:10131000E7CFDBFFECD0E1CD14F0E2CD15F0166A9B
:1013200014C0E6FF15C0E6FF16C0E6FFFD0EDBCFDA
:10133000E9FFFE0EDBCFEAFFE9CF19F0EACF1AF0A2
:10134000010EDB5000011924176E000E1A20186ED2
:1013500017C0E6FF18C0E6FF1FEC25F01B6E050E58
:10136000E15E1B50FD0EDBCFE9FFFE0EDBCFEAFF97
:10137000E9CF16F0EACF17F0010EDB50000116247A
:10138000146E000E1720156E14C0E6FF15C0E6FFA0
:1013900038EC25F0E552E552040EF3CFDBFF010EE9
:1013A000DBCFE7FF040EDB50E726010EE7CFDBFFC4
:1013B0009ED0E3CD14F0E4CD15F0166A14C0E6FF1C
:1013C00015C0E6FF16C0E6FFFD0EDBCFE9FFFE0EFF
:1013D000DBCFEAFFE9CF19F0EACF1AF0010EDB50BC
:1013E00000011924176E000E1A20186E17C0E6FFB0
:1013F00018C0E6FF1FEC25F01B6E050EE15E1B50CA
:10140000FD0EDBCFE9FFFE0EDBCFEAFFE9CF16F0E2
:10141000EACF17F0010EDB5000011624146E000E07
:101420001720156E14C0E6FF15C0E6FF38EC25F056
:10143000E552E552040EF3CFDBFF010EDBCFE7FFF1
:10144000040EDB50E726010EE7CFDBFF50D0E5CDE1
:1014500014F0E6CD15F0166A14C0E6FF15C0E6FFDD
:1014600016C0E6FFFD0EDBCFE9FFFE0EDBCFEAFF85
:10147000E9CF19F0EACF1AF0010EDB500001192470
:10148000176E000E1A20186E17C0E6FF18C0E6FF90
:101490001FEC25F01B6E050EE15E1B50FD0EDBCF31
:1014A000E9FFFE0EDBCFEAFFE9CF16F0EACF17F037
:1014B000010EDB5000011624146E000E1720156E6D
:1014C00014C0E6FF15C0E6FF38EC25F0E552E55202
:1014D000040EF3CFDBFF010EDBCFE7FF040EDB5082
:1014E000E726010EE7CFDBFF02D023D000D0FD0EB0
:1014F000DBCFE9FFFE0EDBCFEAFFE9CF14F0EACF46
:1015000015F0010EDB500F011424E96E000E1520BA
:10151000EA6EEF6ADFCF18F5FD0EDBCFE9FFFE0EB6
:10152000DBCFEAFF200EE926000EEA2218C5EFFF06
:1015300004D0030EDB2ADF2AA3D4050EE15C02E20D
:10154000E16AE552E16EE552E7CFD9FF1200D9CF4B
:10155000E6FFE1CFD9FF070EE126FE0EDB50200D9E
:10156000F3CFE9FFF4CFEAFF170EE926010EEA22D6
:101570001E0EE926000EEA22EF5033E0FE0EDB508D
:10158000200DF3CFE9FFF4CFEAFF170EE926010E95
:10159000EA22E9CF14F0EACF15F014C0E6FF15C037
:1015A000E6FF050EDBCFE6FF060EDBCFE6FFDEEC47
:1015B00024F0E552E552E552E552000912E1FE0E33
:1015C000DB50200DF3CFE9FFF4CFEAFF170EE92639
:1015D000010EEA221F0EE926000EEA22EF0401E1C5
:1015E00067D1FE0EDB50200DF3CFE9FFF4CFEAFF09
:1015F000170EE926010EEA22E9CF14F0EACF15F022
:10160000050E14C0DBFF060E15C0DBFF0101005103
:10161000030A01E188D0020A01E032D1050EDBCFD6
:10162000E6FF060EDBCFE6FFF9EC12F0E552E552DD
:10163000E76E020EE7CFDBFF020EDB50FF0872E021
:10164000050EDBCFE6FF060EDBCFE6FF52EC12F015
:10165000E552E5521C0EE66EE66AE66A020EDB50C3
:10166000200DF3CFE9FFF4CFEAFF170EE926010EB4
:10167000EA22E9CF14F0EACF15F014C0E6FF15C056
:10168000E6FFC4EC24F0166E050EE15E1650040071
:10169000020EDB50200DF3CF14F0F4CF15F0170E2F
:1016A0001426010E1522030E14C0DBFF040E15C014
:1016B000DBFF010EDB6A200EF36E010EDBCFF4FFC1
:1016C000F350F45C25E2010EDB50E76E030EDBCF36
:1016D000E9FF040EDBCFEAFFE750E926000EEA221D
:1016E000EF50E66E010EDBCFE6FF020EDB50200D61
:1016F000F350E552E724E66EE66AB4EC26F0E552D4
:10170000E552E55209EC00F00400010EDB2AD3D7C4
:101710000101015106E10101006BE66AC2EC12F021
:10172000E552C6D0AED0050EDBCFE6FF060EDBCF0E
:10173000E6FFF9EC12F0E552E552E76E020EE7CF54
:10174000DBFF020EDB50FF0801E199D0050EDBCF75
:10175000E6FF060EDBCFE6FF52EC12F0E552E55253
:101760001C0EE66EE66AE66A020EDB50200DF3CF31
:10177000E9FFF4CFEAFF170EE926010EEA22E9CFCE
:1017800014F0EACF15F014C0E6FF15C0E6FFC4EC74
:1017900024F0166E050EE15E16500400020EDB50BA
:1017A000200DF3CF14F0F4CF15F0170E1426010E10
:1017B0001522030E14C0DBFF040E15C0DBFF010E63
:1017C000DB6A200EF36E010EDBCFF4FFF350F45C06
:1017D00025E2010EDB50E76E030EDBCFE9FF040EBE
:1017E000DBCFEAFFE750E926000EEA22EF50E66E73
:1017F000010EDBCFE6FF020EDB50200DF350E55269
:10180000E724E66EE66AB4EC26F0E552E552E552CE
:1018100009EC00F00400010EDB2AD3D701010251CC
:1018200012E10101015107E10101006BE66AC2EC1E
:1018300012F0E55207D00101010E006FE66AC2EC1A
:1018400012F0E5521BD0010101510CE1E66A010ED4
:10185000E66EE66AE66AA4EC12F0E552E552E5525D
:10186000E5520CD0E66A010EE66E010EE66EE66AFF
:10187000A4EC12F0E552E552E552E55219D001D040
:1018800000D0DF6A200EDF5C13E2DF50200DF3CFC3
:10189000E9FFF4CFEAFF170EE926010EEA221F0E38
:1018A000E926000EEA22EF0401E102D0DF2AEAD79E
:1018B000070EE15C02E2E16AE552E16EE552E7CF34
:1018C000D9FF1200D9CFE6FFE1CFD9FF070EE126FD
:1018D000FE0EDB50200DF3CFE9FFF4CFEAFF170E29
:1018E000E926010EEA221E0EE926000EEA22EF503A
:1018F00033E0FE0EDB50200DF3CFE9FFF4CFEAFF1B
:10190000170EE926010EEA22E9CF14F0EACF15F00E
:1019100014C0E6FF15C0E6FF050EDBCFE6FF060E9E
:10192000DBCFE6FFDEEC24F0E552E552E552E5526E
:10193000000912E1FE0EDB50200DF3CFE9FFF4CFDA
:10194000EAFF170EE926010EEA221F0EE926000E15
:10195000EA22EF0401E1B9D1FE0EDB50200DF3CFF6
:10196000E9FFF4CFEAFF170EE926010EEA22E9CFDC
:1019700014F0EACF15F0050E14C0DBFF060E15C0FB
:10198000DBFF01010051030A01E19ED0020A01E0E0
:1019900084D1050EDBCFE6FF060EDBCFE6FFF9ECC8
:1019A00012F0E552E552E76E020EE7CFDBFF020EC2
:1019B000DB50FF0801E187D0050EDBCFE6FF060E06
:1019C000DBCFE6FF52EC12F0E552E5521C0EE66E5C
:1019D000E66AE66A020EDB50200DF3CFE9FFF4CF92
:1019E000EAFF170EE926010EEA22E9CF14F0EACF4A
:1019F00015F014C0E6FF15C0E6FFC4EC24F0166E27
:101A0000050EE15E16500400020EDB50200DF3CFF0
:101A100014F0F4CF15F0170E1426010E1522030E44
:101A200014C0DBFF040E15C0DBFF010EDB6A200EC5
:101A3000F36E010EDBCFF4FFF350F45C25E2010EF0
:101A4000DB50E76E030EDBCFE9FF040EDBCFEAFFCE
:101A5000E750E926000EEA22EF50E66E010EDBCFDA
:101A6000E6FF020EDB50200DF350E552E724E66E50
:101A7000E66AB4EC26F0E552E552E55209EC00F0D6
:101A80000400010EDB2AD3D7010101511BE1010142
:101A9000006B05011A050BE1E66AE66AE66AE6688C
:101AA000A4EC12F0E552E552E552E5520BD0E66A9D
:101AB000E66AE66A010EE66EA4EC12F0E552E55223
:101AC000E552E55202D1EAD0050EDBCFE6FF060E65
:101AD000DBCFE6FFF9EC12F0E552E552E76E020EBD
:101AE000E7CFDBFF020EDB50FF0801E1D5D0050E8A
:101AF000DBCFE6FF060EDBCFE6FF52EC12F0E5523D
:101B0000E5521C0EE66EE66AE66A020EDB50200D18
:101B1000F3CFE9FFF4CFEAFF170EE926010EEA2220
:101B2000E9CF14F0EACF15F014C0E6FF15C0E6FFC8
:101B3000C4EC24F0166E050EE15E16500400020E91
:101B4000DB50200DF3CF14F0F4CF15F0170E142650
:101B5000010E1522030E14C0DBFF040E15C0DBFFBF
:101B6000010EDB6A200EF36E010EDBCFF4FFF350A3
:101B7000F45C25E2010EDB50E76E030EDBCFE9FFDC
:101B8000040EDBCFEAFFE750E926000EEA22EF5011
:101B9000E66E010EDBCFE6FF020EDB50200DF350A8
:101BA000E552E724E66EE66AB4EC26F0E552E5522B
:101BB000E55209EC00F00400010EDB2AD3D7010145
:101BC00002512FE1010101510EE10101006BE66AB2
:101BD000E66AE66A010EE66EA4EC12F0E552E55202
:101BE000E552E5521DD00101010E006F05011A05F5
:101BF0000CE1E66AE66A010EE66EE668A4EC12F015
:101C0000E552E552E552E5520BD0E66AE66A010E6E
:101C1000E66EE66AA4EC12F0E552E552E552E552B2
:101C20003AD0010101511BE105011A050CE1E66AF8
:101C3000010EE66EE66AE668A4EC12F0E552E552A3
:101C4000E552E5520BD0E66A010EE66EE66AE66AF8
:101C5000A4EC12F0E552E552E552E5521CD0050124
:101C60001A050DE1E66A010EE66E010EE66EE66803
:101C7000A4EC12F0E552E552E552E5520CD0E66ACA
:101C8000010EE66E010EE66EE66AA4EC12F0E55275
:101C9000E552E552E55219D001D000D0DF6A200E9E
:101CA000DF5C13E2DF50200DF3CFE9FFF4CFEAFF52
:101CB000170EE926010EEA221F0EE926000EEA227F
:101CC000EF0401E102D0DF2AEAD7070EE15C02E26D
:101CD000E16AE552E16EE552E7CFD9FF1200D9CFB4
:101CE000E6FFE1CFD9FF05011A0507E1E66AC2EC7C
:101CF00012F0E55205011A6B08D0010EE66EC2EC37
:101D000012F0E5520501010E1A6FE552E7CFD9FF37
:101D10001200D9CFE6FFE1CFD9FF050EE126DF6A39
:101D2000200EDF5C33E2DF50200DF3CFE9FFF4CF6C
:101D3000EAFF170EE926010EEA221E0EE926000E22
:101D4000EA22EF5021E0DF50200DF3CFE9FFF4CF7E
:101D5000EAFF170EE926010EEA22E9CF14F0EACFD6
:101D600015F014C0E6FF15C0E6FFFD0EDBCFE6FF61
:101D7000FE0EDBCFE6FFDEEC24F0E552E552E55245
:101D8000E552000901E1FAD0DF2ACAD7DF6A200E46
:101D9000DF5C01E3EDD0DF50200DF3CFE9FFF4CF9E
:101DA000EAFF170EE926010EEA221E0EE926000EB2
:101DB000EA22EF5001E0DAD0DF50200DF3CFE9FF47
:101DC000F4CFEAFF170EE926010EEA221E0EE926DD
:101DD000000EEA22010EEF6E060EF66E000EF76E92
:101DE0000900F5CF14F00800F5CF15F0DF50200DF5
:101DF000F3CFE9FFF4CFEAFF170EE926010EEA223E
:101E00001C0EE926000EEA2214C0EEFF15C0EDFFFD
:101E1000DF50200DF3CFE9FFF4CFEAFF170EE926DC
:101E2000010EEA221F0EE926000EEA22010EEF6ED5
:101E3000FD0EDBCFE6FFFE0EDBCFE6FFDF50200D11
:101E4000F3CFE9FFF4CFEAFF170EE926010EEA22ED
:101E5000E9CF14F0EACF15F014C0E6FF15C0E6FF95
:101E6000FEEC24F0E552E552E552E552DF50200D3C
:101E7000F3CF14F0F4CF15F0170E1426010E15222F
:101E8000030E14C0DBFF040E15C0DBFF010EDB6A7E
:101E9000200EF36E010EDBCFF4FFF350F45C24E26E
:101EA000010EDB50E76E030EDBCFE9FF040EDBCF44
:101EB000EAFFE750E926000EEA22EF50E66E010E37
:101EC000DBCFE6FF200EDF02F350E552E724E66E9B
:101ED000E66AB4EC26F0E552E552E55209EC00F072
:101EE0000400010EDB2AD4D70101012B01010251AC
:101EF00019E105011A050BE1E66AE66A010EE66ED4
:101F0000E66822DBE552E552E552E5520AD0E66A80
:101F1000E66A010EE66EE66A17DBE552E552E55227
:101F2000E5521AD005011A050CE1E66A010EE66ECB
:101F3000010EE66EE66808DBE552E552E552E55231
:101F40000BD0E66A010EE66E010EE66EE66AFCDA7A
:101F5000E552E552E552E552FD0EDBCFE6FFFE0EFF
:101F6000DBCFE6FF9FDAE552E55202D0DF2A0FD73A
:101F70000101025103E10101010E006F050EE15C58
:101F800002E2E16AE552E16EE552E7CFD9FF1200C5
:101F9000D9CFE6FFE1CFD9FF050EE126020EE76EAD
:101FA000FD0EDBCFE9FFFE0EDBCFEAFFE750E926AF
:101FB000000EEA22EF5030080AE1FD0EDBCFE6FF0B
:101FC000FE0EDBCFE6FF6EDAE552E5528AD1DF6A1C
:101FD000200EDF5C43E2DF50200DF3CFE9FFF4CFAA
:101FE000EAFF170EE926010EEA221E0EE926000E70
:101FF000EA22EF5031E0DF50200DF3CFE9FFF4CFBC
:10200000EAFF170EE926010EEA22E9CF14F0EACF23
:1020100015F014C0E6FF15C0E6FFFD0EDBCFE6FFAE
:10202000FE0EDBCFE6FFDEEC24F0E552E552E55292
:10203000E552000911E1DF50200DF3CFE9FFF4CFA5
:10204000EAFF170EE926010EEA221F0EE926000E0E
:10205000EA22EF0401E145D1DF2ABAD7010100519C
:10206000030A01E18AD0020A01E03AD1DF6A200EB8
:10207000DF5C01E381D0FD0EDBCFE6FFFE0EDBCFA0
:10208000E6FFB7DAE552E552E76E020EE7CFDBFF77
:10209000020EDB50FF086EE01C0EE66EE66AE66A92
:1020A000020EDB50200DF3CFE9FFF4CFEAFF170E4D
:1020B000E926010EEA22E9CF14F0EACF15F014C0A8
:1020C000E6FF15C0E6FFC4EC24F0166E050EE15ED7
:1020D00016500400020EDB50200DF3CF14F0F4CFA5
:1020E00015F0170E1426010E1522030E14C0DBFF87
:1020F000040E15C0DBFF010EDB6A200EF36E010E2D
:10210000DBCFF4FFF350F45C25E2010EDB50E76E09
:10211000030EDBCFE9FF040EDBCFEAFFE750E92631
:10212000000EEA22EF50E66E010EDBCFE6FF020E54
:10213000DB50200DF350E552E724E66EE66AB4EC7E
:1021400026F0E552E552E55209EC00F00400010EDC
:10215000DB2AD3D7010101510CE10101006BE66AD2
:10216000E66AE66A010EE66EEFD9E552E552E552FF
:10217000E552B7D0DF2A7BD7B4D0DF6A200EDF5C10
:1021800001E3ADD0FD0EDBCFE6FFFE0EDBCFE6FFB9
:1021900030DAE552E552E76E020EE7CFDBFF020EC2
:1021A000DB50FF0801E199D01C0EE66EE66AE66A94
:1021B000020EDB50200DF3CFE9FFF4CFEAFF170E3C
:1021C000E926010EEA22E9CF14F0EACF15F014C097
:1021D000E6FF15C0E6FFC4EC24F0166E050EE15EC6
:1021E00016500400020EDB50200DF3CF14F0F4CF94
:1021F00015F0170E1426010E1522030E14C0DBFF76
:10220000040E15C0DBFF010EDB6A200EF36E010E1B
:10221000DBCFF4FFF350F45C25E2010EDB50E76EF8
:10222000030EDBCFE9FF040EDBCFEAFFE750E92620
:10223000000EEA22EF50E66E010EDBCFE6FF020E43
:10224000DB50200DF350E552E724E66EE66AB4EC6D
:1022500026F0E552E552E55209EC00F00400010ECB
:10226000DB2AD3D7010102511EE1010101510DE129
:102270000101006BE66AE66AE66A010EE66E64D961
:10228000E552E552E552E5520DD00101010E006F15
:10229000E66AE66A010EE66EE66A56D9E552E5524E
:1022A000E552E55219D0010101510BE1E66A010E38
:1022B000E66EE66AE66A48D9E552E552E552E5522D
:1022C0000BD0E66A010EE66E010EE66EE66A3CD9B8
:1022D000E552E552E552E55204D0DF2A4FD701D04E
:1022E00000D0050EE15C02E2E16AE552E16EE552E2
:1022F000E7CFD9FF1200D9CFE6FFE1CFD9FF020E19
:10230000E126060104510601035D0BE1FD0EDBCF62
:10231000E9FFFE0EDBCFEAFFEE6AED6A010EDB6A33
:1023200033D0060103511C0DF3CF14F0F4CF15F098
:10233000050E1426060E1522FD0EDBCFE9FFFE0E5C
:10234000DBCFEAFF14C0EEFF15C0EDFF060103511D
:102350001C0DF3CF14F0F4CF15F0050E1426060E65
:10236000152214C0E6FF15C0E6FF38EC25F0E55253
:10237000E552010EF3CFDBFF0601032B100E060121
:10238000035D02E30601036B010EDB5000D0146E07
:10239000020EE15C02E2E16AE552E16E1450E552A0
:1023A000E7CFD9FF1200D9CFE6FFE1CFD9FF060171
:1023B000000502E1000E0BD00601010E006FFE0EBB
:1023C000DBCF02F6FD0EDBCF01F6010E00D0E552A9
:1023D000E7CFD9FF1200D9CFE6FFE1CFD9FFE65210
:1023E000FE0EDB50200DF3CFE9FFF4CFEAFF170E0E
:1023F000E926010EEA221F0EE926000EEA22EF6A04
:10240000FE0EDB50200DF3CFE9FFF4CFEAFF170EED
:10241000E926010EEA22E9CF14F0EACF15F014C044
:10242000E6FF15C0E6FF3ED8E552E552FE0EDB5052
:10243000200DF3CFE9FFF4CFEAFF170EE926010ED6
:10244000EA221F0EE926000EEA22EF50E66EFE0E8B
:10245000DB50200DF3501F0FE66EE66AB4EC26F059
:10246000E552E552E55209EC00F00400DF6A200E67
:10247000DF5C13E2DF50200DF3CFE9FFF4CFEAFF7A
:10248000170EE926010EEA221F0EE926000EEA22A7
:10249000EF0401E102D0DF2AEAD7E552E552E7CFA7
:1024A000D9FF1200D9CFE6FFE1CFD9FFE652DF6AAC
:1024B000FD0EDBCFE9FFFE0EDBCFEAFFEF5024E09D
:1024C000FD0EDBCFE9FFFE0EDBCFEAFFEF50E66E3D
:1024D000060104511C0DF3CF14F0F4CF15F0050ED6
:1024E0001426060E1522DF500F011424E96E000E8B
:1024F0001520EA6EE552E750EF6EDF2AFD0EDB2A6B
:10250000FE0E01E3DB2AD4D7060104511C0DF3CFE4
:1025100014F0F4CF15F0050E1426060E1522DF5028
:102520000F011424E96E000E1520EA6EEF6A060111
:10253000042B100E0601045D02E30601046BE55254
:10254000E552E7CFD9FF1200D9CFE6FFE1CFD9FF9F
:10255000FE0EDB50FF0806E0FE0EDB50E8B0818A7D
:10256000E8A0819AFD0EDB50E8B08188E8A0819850
:10257000FC0EDB50E8B08186E8A08196E552E7CFFB
:10258000D9FF1200D9CFE6FFE1CFD9FFE652FE0E08
:10259000DB0406E10501010E1B6F818A838024D0D4
:1025A000FE0EDB5021E10E010C6B0D6BFE0EDB50BD
:1025B000E8B08380E8A08390818ADF6A200EDF5C28
:1025C00013E2DF50200DF3CFE9FFF4CFEAFF170E3F
:1025D000E926010EEA221E0EE926000EEA22EF503D
:1025E00001E0819ADF2AEAD7E552E552E7CFD9FF29
:1025F0001200D9CFE6FFE1CFD9FF040EE126DF6A52
:10260000200EDF5C01E399D0DF50200DF3CFE9FF0E
:10261000F4CFEAFF170EE926010EEA221E0EE92684
:10262000000EEA22EF5001E186D0DF50200DF3CFFB
:10263000E9FFF4CFEAFF170EE926010EEA221F0E8A
:10264000E926000EEA22EF0476E0DF50200DF3CFFA
:10265000E9FFF4CFEAFF170EE926010EEA22E9CFDF
:1026600014F0EACF15F014C0E6FF15C0E6FFFD0E2A
:10267000DBCFE6FFFE0EDBCFE6FFDEEC24F0E5521B
:10268000E552E552E552000956E1DF50200DF3CF47
:10269000E9FFF4CFEAFF170EE926010EEA221E0E2B
:1026A000E926000EEA22EF0403E10101010713D03D
:1026B000DF50200DF3CFE9FFF4CFEAFF170EE92634
:1026C000010EEA221E0EE926000EEA22EF50030850
:1026D00002E101010207DF50200DF3CFE9FFF4CF43
:1026E000EAFF170EE926010EEA221E0EE926000E69
:1026F000EA22EF6ADF50200DF3CFE9FFF4CFEAFFC3
:10270000170EE926010EEA221C0EE926000EEA2227
:10271000EE6AED6ADF50200DF3CFE9FFF4CFEAFF58
:10272000170EE926010EEA221F0EE926000EEA2204
:10273000EF6ADF5004D0DF2A63D7FF0E00D0146E9B
:10274000040EE15C02E2E16AE552E16E1450E552EA
:10275000E7CFD9FF1200D9CFE6FFE1CFD9FF020EB4
:10276000E126010EDB6ADF6A200EDF5C5BE2DF50F0
:10277000200DF3CFE9FFF4CFEAFF170EE926010E93
:10278000EA221E0EE926000EEA22EF0449E1DF509C
:10279000200DF3CFE9FFF4CFEAFF170EE926010E73
:1027A000EA221C0EE926000EEA22EE50ED1038E176
:1027B0000101022B01010107DF50200DF3CFE9FFDA
:1027C000F4CFEAFF170EE926010EEA221E0EE926D3
:1027D000000EEA22030EEF6EDF50200DF3CFE9FF6B
:1027E000F4CFEAFF170EE926010EEA221E0EE926B3
:1027F000000EEA22EF50E66E200EDF02F3501E0FAD
:10280000E66EE66AB4EC26F0E552E552E55209ECD4
:1028100000F004000101030E006FDE52010EDD6EB8
:10282000DF2AA2D7010EDB5000D0146E020EE15C4D
:1028300002E2E16AE552E16E1450E552E7CFD9FFBA
:102840001200D9CFE6FFE1CFD9FFE652DF6A200EB2
:10285000DF5C41E2DF50200DF3CFE9FFF4CFEAFF68
:10286000170EE926010EEA221E0EE926000EEA22C4
:10287000EF502FE0DF50200DF3CFE9FFF4CFEAFF58
:10288000170EE926010EEA22E9CF14F0EACF15F07F
:1028900014C0E6FF15C0E6FFFD0EDBCFE6FFFE0E1F
:1028A000DBCFE6FFDEEC24F0E552E552E552E552DF
:1028B00000090FE1DF50200DF3CFE9FFF4CFEAFF6D
:1028C000170EE926010EEA221F0EE926000EEA2263
:1028D000EF6ADF2ABCD7E552E552E7CFD9FF1200F5
:1028E000D9CFE6FFE1CFD9FFFD0EDBCFE6FFFE0E2D
:1028F000DBCFE6FF0D0EE66E010EE66EDEEC24F099
:10290000E552E552E552E552000902E0000E02D020
:10291000010E00D0E552E7CFD9FF1200D9CFE6FF74
:10292000E1CFD9FF020EE1260101006B0101016B2D
:102930000101026B0101036B046B056B066B010166
:10294000076B086B096B0A6B0501186B0601046BBA
:102950000601036BDE6ADD6ADECF14F0DDCF15F011
:10296000200E145C000E155860E2DECFE9FFDDCFCB
:10297000EAFF050ED890E936EA36E806FBE1170EC5
:10298000E926010EEA221E0EE926000EEA22EF6A6F
:10299000DECFE9FFDDCFEAFF050ED890E936EA3653
:1029A000E806FBE1170EE926010EEA221C0EE926D5
:1029B000000EEA22EE6AED6ADECFE9FFDDCFEAFF24
:1029C000050ED890E936EA36E806FBE1170EE9264F
:1029D000010EEA221F0EE926000EEA22EF6A1C0E03
:1029E000E66EE66AE66ADECFE9FFDDCFEAFF050EB6
:1029F000D890E936EA36E806FBE1170EE926010E23
:102A0000EA22E9CF14F0EACF15F014C0E6FF15C0B2
:102A1000E6FFC4EC24F0166E050EE15E16500400CD
:102A2000DF2A010E01E3DB2A97D7DE6ADD6ADECFFB
:102A300014F0DDCF15F0000E145C000E155812E2F4
:102A4000E66ADECFE6FFDDCFE6FFB4EC26F0E55226
:102A5000E552E55209EC00F00400DF2A010E01E323
:102A6000DB2AE5D7050117050BE1E66AE66AE66AA7
:102A7000010EE66E69DDE552E552E552E55209D0F8
:102A8000E66AE66AE66AE66A5FDDE552E552E55225
:102A9000E552020EE15C02E2E16AE552E16EE552C6
:102AA000E7CFD9FF1200D9CFE6FFE1CFD9FF030E60
:102AB000E126FD0EDBCFE9FFFE0EDBCFEAFF010EC4
:102AC000EFCFDBFF020EDB6A010EDB50950A01E15E
:102AD00077D0010A69E0340A5CE0010A4EE0030A9B
:102AE0001AE0220A01E078D0F90EDBCFE6FFFA0EF9
:102AF000DBCFE6FF7BEC11F0E552E552E76E020E0C
:102B0000E7CFDBFFFB0EDBCFE9FFFC0EDBCFEAFFFD
:102B1000800EEF6E6CD0010EE76EFD0EDBCF14F071
:102B2000FE0EDBCF15F0E7501426000E152214C060
:102B3000E6FF15C0E6FF85DEE552E552010EE76EC1
:102B4000FD0EDBCF14F0FE0EDBCF15F0E7501426A0
:102B5000000E152214C0E6FF15C0E6FFC8EC0FF00A
:102B6000E552E552FB0EDBCFE9FFFC0EDBCFEAFFBF
:102B7000A20EEF6E020EDB6A3AD0D0DEFB0EDBCF88
:102B8000E9FFFC0EDBCFEAFFA10EEF6E020EDB6A5F
:102B90002ED0020EDB6AFB0EDBCFE9FFFC0EDBCF93
:102BA000EAFFA00EEF6E23D08380FB0EDBCFE9FFA0
:102BB000FC0EDBCFEAFF940EEF6E020EDB6A17D03D
:102BC0008390FB0EDBCFE9FFFC0EDBCFEAFF950E17
:102BD000EF6E020EDB6A0BD0020EDB6AFB0EDBCF60
:102BE000E9FFFC0EDBCFEAFF920EEF6E00D0020E83
:102BF000DB5000D0146E030EE15C02E2E16AE552A4
:102C0000E16E1450E552E7CFD9FF120005011A0515
:102C10000EE105011B0505E105011B6B819A8390FF
:102C200005D00501010E1B6F818A838001D000D081
:022C3000120090
:0E2C3200080EE66EB8EC21F0E552E66A93EC6F
:102C40001AF0E5523FEC1AF054EC1AF01200D9CF0A
:102C5000E6FFE1CFD9FF060EE126DF68D950020F6B
:102C6000E66E000EDA20E66ED950030FE66E000E17
:102C7000DA20E66EDFEC22F0E552E552E552E5524D
:102C8000000901E144D2020EDBCFE6FF030EDBCFE9
:102C9000E6FF47DAE552E552DF6EFF0EDF5C01E149
:102CA00036D20D010051050A01E118D2010A01E1F5
:102CB000CBD1070A01E1B1D1040A01E17AD1050AB9
:102CC00001E143D1040A01E129D1070A01E189D0D8
:102CD000010A01E01BD2340EDF5C16E160DB0D015E
:102CE0004751EA6A260FE96E0D0EEA22DFCFEFFFA9
:102CF0000D01472B0A0EE66E93EC1AF0E552BFDB8E
:102D00000D01010E006F6CD0130EDF5C0AE10B0E9B
:102D1000E66E93EC1AF0E552B2DB0D01040E006F83
:102D20005FD00C0EDF5C19E1690EE66E0D0EE66EEB
:102D300016EC07F0E552E552FF0E0D01895D0CE03F
:102D4000690EE66E0D0EE66EC0DBE552E55297DBCE
:102D5000ABDB0D01070E006F43D00B0EDF5C19E1FA
:102D6000480EE66E0D0EE66E85EC03F0E552E55278
:102D7000FF0E0D01685D0CE0480EE66E0D0EE66E6E
:102D8000A4DBE552E5527BDB8FDB0D01020E006F09
:102D900027D005DB0D014751472BEA6A260FE96E64
:102DA0000D0EEA22DFCFEFFF35DB2A0EDF5C09E1F3
:102DB000260EE66E0D0EE66E6FEC0EF0E552E55255
:102DC00008D0260EE66E0D0EE66E89EC0EF0E5528A
:102DD000E552E66AA8DBE55252DB66DB0D01006BCB
:102DE00096D1080EDF5C18E10D012351000808E2BE
:102DF000DFCFE6FFCAEC21F0E5520D01230707D033
:102E0000E66A91DBE5523BDB4FDB0D01006B0D0108
:102E100024690D01256B81D00A0EDF5C19E10D01DB
:102E20002351000810E2F6DA260EE66E0D0EE66E6D
:102E300089EC0EF0E552E552E66A75DBE5521FDBE0
:102E400033DB0D01006B0D0124690D01256B65D08D
:102E5000030EDB500D01245D43E1140EF36E020EF0
:102E6000DBCFF4FFF350F45C1FE20D0123070D01EB
:102E70002351EA6A020FE96E0D0EEA22DFCFEFFF5F
:102E8000080EE66ECAEC21F0E5520D012351EA6A04
:102E9000020FE96E0D0EEA22EF50E66ECAEC21F049
:102EA000E5520D01232B1BD00D012351EA6A020FBD
:102EB000E96E0D0EEA22DFCFEFFF0D012351EA6A22
:102EC000020FE96E0D0EEA22EF50E66ECAEC21F019
:102ED000E5520D01232B0D0124690D01256B1AD03C
:102EE0000D012351EA6A020FE96E0D0EEA22DFCFCF
:102EF000EFFF0D012351EA6A020FE96E0D0EEA227F
:102F0000EF50E66ECAEC21F0E5520D01232B030EC3
:102F1000DBCF24FD030EDBCF24FDF9D0080EDF5CF0
:102F200008E1E66A00DBE552AADABEDA0D01006BC1
:102F30000BD00A0EDF5C08E10A0EE66EF4DAE55209
:102F40009EDA0D01010E006FE2D0080EDF5C08E191
:102F5000E66AE9DAE55293DAA7DA0D01006B28D0C8
:102F60000B0EDF5C14E1480EE66E0D0EE66E85EC8E
:102F700003F0E552E552FF0E0D01685D07E0480ED3
:102F8000E66E0D0EE66EA1DAE552E55211D00A0E9C
:102F9000DF5C0EE168CDE6FFEBEC11F0E5520D01D0
:102FA0006869E66AC0DAE5526ADA7EDA0D01006B1A
:102FB000AED0080EDF5C08E1E66AB5DAE5525FDA0A
:102FC00073DA0D01006B28D00C0EDF5C14E1690E82
:102FD000E66E0D0EE66E16EC07F0E552E552FF0EBA
:102FE0000D01895D07E0690EE66E0D0EE66E6DDA85
:102FF000E552E55211D00A0EDF5C0EE189CDE6FF05
:1030000062EC0CF0E5520D018969E66A8CDAE55252
:1030100036DA4ADA0D01006B7AD0080EDF5C07E180
:10302000E66A81DAE5522BDA0D01006B0CD00A0E4C
:10303000DF5C09E18EEC14F022DA36DAE66A73DA44
:10304000E5520D01006B63D0080EDF5C08E1E66A13
:103050006ADAE55214DA28DA0D01006B3ED00A0E66
:10306000DF5C2BE1050EDB6A0D012351EA6A020FDA
:10307000E96E0D0EEA22EF6A020EE66E0D0EE66EA6
:1030800070EC14F0E552E552E76E050EE7CFDBFF7A
:10309000050EDB040AE10C0EE66E45DAE552EFD9C7
:1030A00003DA0D01050E006F07D0E66A3CDAE5523F
:1030B000E6D9FAD90D01006B10D00D012351EA6A4F
:1030C000020FE96E0D0EEA22DFCFEFFF2A0EE66E49
:1030D000CAEC21F0E5520D01232B19D0080EDF5C5C
:1030E00008E1E66A20DAE552CAD9DED90D01006BA3
:1030F0000CD0300EDF5C09E10D0EE66E14DAE552FD
:10310000BED9D2D90D01030E006F01D000D0060E3A
:10311000E15C02E2E16AE552E16EE552E7CFD9FFF8
:103120001200D9CFE6FFE1CFD9FFE652DF680D01EB
:103130000051050A01E1F0D0060A01E1D7D0070AE3
:1031400001E1C5D0030A01E1A9D0050A01E18DD052
:10315000030A46E0070A2EE0060A01E0F6D0FE0E5A
:10316000DB50050DF3CFF6FFF4CFF7FF260EF62662
:103170004F0EF7220800F550DF6E0D0123510008B5
:103180000EE20D0123510BE00B0EDF5C06E00C0E8E
:10319000DF5C03E0130EDF5C01E1DF680AD0300E74
:1031A000DF5C06E00A0EDF5C03E0080EDF5C01E195
:1031B000DF68CCD0FE0EDB50050DF3CFF6FFF4CF69
:1031C000F7FF260EF6264F0EF7220800F550DF6EA9
:1031D0000A0EDF5C04E0080EDF5C01E0DF68B6D0B9
:1031E000FE0EDB500D01245D14E1140EF36EFD0E96
:1031F000DBCFF4FFF350F45C09E20D01252B050E43
:103200000D01255D02E30D01256B02D00D01256B3B
:1032100002D00D01256BFE0EDB50050DF3CF14F02F
:10322000F4CF15F0260E14264F0E15220D01255150
:103230000F011424F66E000E1520F76E0800F550ED
:10324000DF6E0C0EDF5C06E00B0EDF5C03E0130E9E
:10325000DF5C02E1DF6808D00A0EDF5C03E0080EE5
:10326000DF5C02E10D01256B71D0FE0EDB50050D18
:10327000F3CFF6FFF4CFF7FF260EF6264F0EF72218
:103280000800F550DF6E0A0EDF5C07E0080EDF5C19
:1032900004E00B0EDF5C01E0DF6858D0FE0EDB506F
:1032A000050DF3CFF6FFF4CFF7FF260EF6264F0EEF
:1032B000F7220800F550DF6E0A0EDF5C07E0080E0B
:1032C000DF5C04E00C0EDF5C01E0DF683FD0FE0E47
:1032D000DB50050DF3CFF6FFF4CFF7FF260EF626F1
:1032E0004F0EF7220800F550DF6E30D0FE0EDB5097
:1032F000050DF3CFF6FFF4CFF7FF260EF6264F0E9F
:10330000F7220800F550DF6E0A0EDF5C04E0080EBD
:10331000DF5C01E0DF681AD0FE0EDB50050DF3CF55
:10332000F6FFF4CFF7FF260EF6264F0EF722080021
:10333000F550DF6E300EDF5C07E0080EDF5C04E066
:103340000A0EDF5C01E0DF6801D000D0DF5000D062
:10335000E552E552E7CFD9FF1200D9CFE6FFE1CF22
:10336000D9FFFE0EDB50010A0BE0010A01E012D08A
:10337000E66AD9D8E55283D897D80D01006B0BD0F7
:103380000A0EE66ED0D8E5527AD88ED80D01010E1D
:10339000006F01D000D0E552E7CFD9FF1200D9CF9E
:1033A000E6FFE1CFD9FF020EE126010EDB6A0D0137
:1033B0004751EA6A260FE96E0D0EEA22320EEF6ED1
:1033C0000D01472B0D014751EA6A260FE96E0D0EDC
:1033D000EA22300EEF6E0D01472B300E0D01275DF6
:1033E000146E300E0D01265D0A0DF3501424E76EA5
:1033F000010EE7CFDBFF010EDB5000D0146E020E92
:10340000E15C02E2E16AE552E16E1450E552E7CF79
:10341000D9FF1200D9CFE6FFE1CFD9FFE652DF6A2C
:103420000D012351DF5C16E2DF50EA6A020FE96EFC
:103430000D0EEA22EF50E66E0D014751EA6A260FA3
:10344000E96E0D0EEA22E552E750EF6E0D01472BB3
:10345000DF2AE6D70D014751EA6A260FE96E0D0E05
:10346000EA22EF6A0D01472B200E0D01475D02E3B2
:103470000D01476BE552E552E7CFD9FF1200200E50
:10348000E66EE66AE66A020EE66E0D0EE66EC4ECC5
:1034900024F0146E050EE15E14500D01236B0D0136
:1034A000256B0D0124691200200EE66EE66AE66ABD
:1034B000260EE66E0D0EE66EC4EC24F0146E050EBC
:1034C000E15E14500D01476B1200D9CFE6FFE1CF4A
:1034D000D9FFE652C3EC21F0DF6ADF50E76EFD0E44
:1034E000DBCFE9FFFE0EDBCFEAFFE750E926000E57
:1034F000EA22EF5013E0DF50E76EFD0EDBCFE9FF6D
:10350000FE0EDBCFEAFFE750E926000EEA22EF507D
:10351000E66ECAEC21F0E552DF2ADFD7E552E5522C
:10352000E7CFD9FF1200D9CFE6FFE1CFD9FF030ED5
:10353000E126FE0EEA6ADB34FE0BEA36E96ED30EB4
:10354000E9260D0EEA22010EEECFDBFF020EEDCFD3
:10355000DBFFC3EC21F0DF6ADF50E76E010EDBCF4B
:10356000F6FF020EDBCFF7FFE750F626000EF7223C
:103570000800F55014E0DF50E76E010EDBCFF6FFD8
:10358000020EDBCFF7FFE750F626000EF722080009
:10359000F550E66ECAEC21F0E552DF2ADDD7030EC6
:1035A000E15C02E2E16AE552E16EE552E7CFD9FF64
:1035B0001200D9CFE6FFE1CFD9FF030EE126FE0EC0
:1035C000EA6ADB34FE0BEA36E96ED30EE9260D0E0D
:1035D000EA22010EEECFDBFF020EEDCFDBFFDF6A4A
:1035E000DF50E76E010EDBCFF6FF020EDBCFF7FFF9
:1035F000E750F626000EF7220800F55014E0DF50E1
:10360000E76E010EDBCFF6FF020EDBCFF7FFE750D0
:10361000F626000EF7220800F550E66ECAEC21F0FF
:10362000E552DF2ADDD7030EE15C02E2E16AE552F2
:0A363000E16EE552E7CFD9FF12006A
:06363A00DACFE4FFE2CF4D
:10364000DAFFE9CFE4FFEACFE4FFF6CFE4FFF7CFFC
:10365000E4FFF5CFE4FFF3CFE4FFF4CFE4FFFACFCC
:10366000E4FF00EE00F0140EE80403E3EECFE4FF05
:10367000FBD700EE14F0080EE80403E3EECFE4FFFE
:10368000FBD7E652D9CFE6FFE1CFD9FFE652E2EC15
:1036900027F0DF6E0C018951892BEA6A8C0FE96EE5
:1036A0000C0EEA22DFCFEFFF800E0C01895D02E3F2
:1036B0000C01896B0C018B2BA49AE552E552E7CFE4
:1036C000D9FFE55200EE1BF0080EE80403E3E5CF56
:1036D000EDFFFBD700EE13F0140EE80403E3E5CF93
:1036E000EDFFFBD7E5CFFAFFE5CFF4FFE5CFF3FF22
:1036F000E5CFF5FFE5CFF7FFE5CFF6FFE5CFEAFF32
:10370000E5CFE9FFE5CFDAFF1100DACFE4FFE2CF42
:10371000DAFFE9CFE4FFEACFE4FFE652D9CFE6FFD4
:10372000E1CFD9FFE6520B01025105E1ACA2FED771
:103730008290AC9A21D00B010151EA6A030FE96E25
:103740000B0EEA22EFCFDFFFDF50AD6E0B01012B36
:10375000800E0B01015D02E30B01016B000E0B01FA
:10376000E76E0219E8AE02D0023503D0E750D880E8
:10377000025502E20B010207E552E552E7CFD9FFFD
:10378000E552E5CFEAFFE5CFE9FFE5CFDAFF11002B
:10379000DACFE4FFE2CFDAFFE9CFE4FFEACFE4FFDC
:1037A000E652D9CFE6FFE1CFD9FFE6520C0108512E
:1037B00005E172A2FED78298729A21D00C010751BE
:1037C000EA6A090FE96E0C0EEA22EFCFDFFFDF5045
:1037D000736E0C01072B800E0C01075D02E30C01D8
:1037E000076B000E0C01E76E0819E8AE02D0083531
:1037F00003D0E750D880085502E20C010807E552D3
:10380000E552E7CFD9FFE552E5CFEAFFE5CFE9FF83
:10381000E5CFDAFF1100D9CFE6FFE1CFD9FFE652BD
:103820007C0EDF6E330EE66EE66ADFCFE6FF2CEC31
:1038300027F0E552E552E552AC8AAC9E9F88E552EE
:10384000E552E7CFD9FF1200D9CFE6FFE1CFD9FF8C
:10385000E6527C0EDF6E670EE66EE66ADFCFE6FFAD
:10386000F0EC26F0E552E552E552D08E718E728A68
:10387000729EA38AA58AE552E552E7CFD9FF1200CE
:10388000D9CFE6FFE1CFD9FFACA2FED70B010051A3
:10389000002BEA6A030FE96E0B0EEA22FE0EDBCF65
:1038A000EFFF0B01022B800E0B01005D02E30B0109
:1038B000006B010E00D0E552E7CFD9FF1200D9CF3F
:1038C000E6FFE1CFD9FF72A2FED70C010651062B0D
:1038D000EA6A090FE96E0C0EEA22FE0EDBCFEFFF5B
:1038E0000C01082B800E0C01065D02E30C01066B37
:1038F000010E00D0E552E7CFD9FF1200D9CFE6FF85
:10390000E1CFD9FF060EE1268280010EF36E020E92
:10391000F3CFDBFF030EDB6A020EDBCF14F0DB0616
:10392000030EDBCF15F001E2DB061450151006E0A4
:10393000040EE66E76EC28F0E552EED7000E0B0191
:10394000E76E0219E8AE02D0023503D0E750D88006
:10395000025528E20B010151EA6A030FE96E0B0ED2
:10396000EA22010EEFCFDBFFACA2FED7010EDB5047
:10397000AD6EACA2FED70B01012B800E0B01015DD9
:1039800002E30B01016B000E0B01E76E0219E8AEBA
:1039900002D0023503D0E750D880025502E20B0175
:1039A0000207CCD78290010EF36E040EF3CFDBFF3B
:1039B000050EDB6A040EDBCF14F0DB06050EDBCF51
:1039C00015F001E2DB061450151006E0040EE66E59
:1039D00076EC28F0E552EED7146E060EE15C02E2BA
:1039E000E16AE552E16E1450E552E7CFD9FF1200CB
:1039F000D9CFE6FFE1CFD9FF060EE1268288010E7E
:103A0000F36E020EF3CFDBFF030EDB6A020EDBCF99
:103A100014F0DB06030EDBCF15F001E2DB061450D9
:103A2000151006E0040EE66E76EC28F0E552EED7AF
:103A3000000E0C01E76E0819E8AE02D0083503D07D
:103A4000E750D880085528E20C010751EA6A090FAF
:103A5000E96E0C0EEA22010EEFCFDBFF72A2FED759
:103A6000010EDB50736E72A2FED70C01072B800E85
:103A70000C01075D02E30C01076B000E0C01E76E01
:103A80000819E8AE02D0083503D0E750D8800855B1
:103A900002E20C010807CCD78298010EF36E040EE7
:103AA000F3CFDBFF050EDB6A040EDBCF14F0DB0681
:103AB000050EDBCF15F001E2DB061450151006E011
:103AC000040EE66E76EC28F0E552EED7146E060E84
:103AD000E15C02E2E16AE552E16E1450E552E7CFA3
:103AE000D9FF1200D9CFE6FFE1CFD9FFE652DF6A56
:103AF000A39A000E0C01E76E8B19E8AE02D08B354D
:103B000003D0E750D8808B5502E2010EDF6EA38A06
:103B1000DF5000D0E552E552E7CFD9FF1200D9CFF0
:103B2000E6FFE1CFD9FFE652DF6A9D9A000E0B0156
:103B3000E76E8519E8AE02D0853503D0E750D8800E
:103B4000855502E2010EDF6E9D8ADF5000D0E552FE
:103B5000E552E7CFD9FF1200D9CFE6FFE1CFD9FF79
:103B6000E6529D9A0B018451842BEA6A860FE96E16
:103B70000B0EEA22EFCFDFFF800E0B01845D02E324
:103B80000B01846B000E0B01E76E8519E8AE02D0C5
:103B9000853503D0E750D880855502E20B018507B3
:103BA0009D8ADF5000D0E552E552E7CFD9FF1200E1
:103BB000D9CFE6FFE1CFD9FFE652A39A0C018A5193
:103BC0008A2BEA6A8C0FE96E0C0EEA22EFCFDFFF38
:103BD000800E0C018A5D02E30C018A6B000E0C0161
:103BE000E76E8B19E8AE02D08B3503D0E750D88052
:103BF0008B5502E20C018B079D8ADF5000D0E55205
:083C0000E552E7CFD9FF1200E5
:083C0800D9CFE6FFE1CFD9FF9F
:103C1000FE0EDBCF01F9FD0EDBCF02F9FC0EDBCF90
:103C200003F9FB0EDBCF04F9F90EDBCF09FAFA0E2C
:103C3000DBCF0AFA04D8E552E7CFD9FF12000BEC2C
:103C40001CF00A01056B0A01066B0901010E006FE9
:103C50000A01076B0A01050E086F0FCA0BFA10CA9A
:103C60000CFA11CA0DFA12CA0EFA00C913FA1200A0
:103C70000A01056B0A01066B0901010E006F0A01BA
:103C8000076B0A01050E086F0FCA0BFA10CA0CFA6F
:103C900011CA0DFA12CA0EFA00C913FA1200D9CFCE
:103CA000E6FFE1CFD9FF060EE126DF6A35EC26F00C
:103CB00006C00FFA07C010FA08C011FA09C012FABC
:103CC0000B0EE96E0A0EEA6EEE500A010F190CE1B6
:103CD000EE500A01101908E1EE500A01111904E131
:103CE000EE500A01121900E118E0090100510A0121
:103CF000135D0BE1020E0901005D07E10A010807EF
:103D00000A01085102E19BDFD3D00FCA0BFA10CA97
:103D10000CFA11CA0DFA12CA0EFA09010051030A6F
:103D200001E1BFD0010A18E0030A01E0BDD08FEC29
:103D30001DF0000901E1BCD0ACEC1DF0DF6E090103
:103D40000151DF5C08E10A01056B0901020E006FF9
:103D50000A01050E086FAAD08FEC1DF0000901E1E1
:103D6000A7D0ACEC1DF0DF6E09010251DF5C01E071
:103D70007CD0020EDB6A030EDB68D950030FE66EBF
:103D8000000EDA20E66E9ED8E552E552E76E020E8E
:103D9000E7CFDBFF020EDB50020A58E0030A05E022
:103DA000010A01E05DD064DF83D00A0109510A11E4
:103DB0004BE0D950040FE66E000EDA20E66E070ED7
:103DC000E66E0A0EE66E070EE66E090EE66E05D08A
:103DD0000ACAFAFF0A010951F96EFADF146E060EDB
:103DE000E15E14500A01066F0901FA0E856F0A019F
:103DF000062B07CA86F90A01062BDE52020EDD6E7B
:103E00000A010651F36E010EDBCFF4FFF350F45CB0
:103E10001AE2040EDBCFE9FF050EDBCFEAFFEF501D
:103E2000E66E010EDB50EA6A850FE96E090EEA22A2
:103E3000E552E750EF6E040EDB2A050E01E3DB2AA4
:103E4000010EDB2ADDD701D013DF0BD00901140EE0
:103E5000856F0A01062B07CA86F90A01062B01D0D5
:103E600000D00901030E006F1BD00A010551052B7C
:103E7000EA6A050FE96E090EEA22DFCFEFFF800E36
:103E80000A01055D0DE30901140E856F0A01062B79
:103E90000901900E866F0A01062B0901030E006FBF
:103EA00005D061D8E5DE02D0E3DE00D000C913FA08
:103EB000060EE15C02E2E16AE552E16EE552E7CF0F
:103EC000D9FF1200D9CFE6FFE1CFD9FF020EE126DC
:103ED0000A010505EA6A050FE96E090EEA22EFCF2D
:103EE000DFFF010EDB6A140E0901055D06E0FA0E24
:103EF0000901055D02E0000E2AD00A010505E66E03
:103F0000050EE66E090EE66E9CD8E552E552E552C6
:103F1000E76E010EE7CFDBFF010EDB50DF5C0DE14A
:103F20000A0105070A010551EA6A050FE96E090E43
:103F3000EA22EF6A010E0BD00AD0FD0EDBCFE9FFBB
:103F4000FE0EDBCFEAFF910EEF6E000E00D0146E76
:103F5000020EE15C02E2E16AE552E16E1450E552C4
:103F6000E7CFD9FF1200D9CFE6FFE1CFD9FF020E8C
:103F7000E126DF6A010EDB6A06CAE6FF850EE66E01
:103F8000090EE66E5ED8E552E552E552DF6E03C9D2
:103F9000E6FF40EC1CF0E552010EDB6A0A01065117
:103FA000F36E010EDBCFF4FFF350F45C0FE2010E71
:103FB000DB50EA6A850FE96E090EEA22EF50E66EE1
:103FC00040EC1CF0E552010EDB2AE8D7DFCFE6FF1C
:103FD00040EC1CF0E55204C9E6FF40EC1CF0E55251
:103FE0007EEC1CF0020EE15C02E2E16AE552E16E59
:103FF000E552E7CFD9FF1200D9CFE6FFE1CFD9FFD5
:10400000FD0EDBCFF6FFFE0EDBCFF7FF0800F5500D
:1040100012E0FD0EDBCFF6FFFE0EDBCFF7FF080050
:10402000F550E66E40EC1CF0E552FD0EDB2AFE0E6C
:1040300001E3DB2AE5D77EEC1CF0E552E7CFD9FFA0
:104040001200D9CFE6FFE1CFD9FF030EE126DF6AE8
:10405000010EDB6AFC0EDB50F36E010EDBCFF4FFCA
:10406000F350F45C12E2010EDB50E76EFD0EDBCF85
:10407000E9FFFE0EDBCFEAFFE750E926000EEA2259
:10408000EF50DF1A010EDB2AE5D7DF5000D0146EA7
:10409000030EE15C02E2E16AE552E16E1450E55282
:0640A000E7CFD9FF12007A
:0A40A600D9CFE6FFE1CFD9FF030EEA
:1040B000E126300EF36E010EF3CFDBFF750EF36ECB
:1040C000020EF3CFDBFF010EDF6EDF0425E10ADA1B
:1040D00000000000839683840000000083820000BB
:1040E00000008350800B01E0010EDF6E839283821B
:1040F000000000008392010EDB06020E01E2DB06E7
:10410000D950010FE96EDACFEAFFEE50ED1003E16E
:10411000F1D9FF0E04D0D9D7EDD9000E00D0146E1E
:10412000030EE15C02E2E16AE552E16E1450E552F1
:10413000E7CFD9FF1200D9CFE6FFE1CFD9FF8396B1
:1041400083940000FE0EDB50F00B146E0F0E8C14E7
:1041500014108C6E00008382000000008392E552F0
:10416000E7CFD9FF1200D9CFE6FFE1CFD9FF9BDF20
:10417000839683940000FE0EDB50F00B146E0F0E3E
:104180008C1414108C6E0000838200000000839257
:10419000FE0EDB38F00BF00B146E0F0E8C141410A7
:1041A0008C6E00008382000000008392E552E7CF0E
:1041B000D9FF1200D9CFE6FFE1CFD9FF74DF8386A4
:1041C00083940000FE0EDB50F00B146E0F0E8C1467
:1041D00014108C6E00008382000000008392FE0E9B
:1041E000DB38F00BF00B146E0F0E8C1414108C6E69
:1041F00000008382000000008392E552E7CFD9FFE0
:104200001200D9CFE6FFE1CFD9FF0B0EE12672D91C
:10421000280EF36E010EF3CFDBFF020EDB6A010EF8
:10422000DBCF14F0DB06020EDBCF15F001E2DB067C
:104230001450151006E0040EE66E76EC28F0E552F8
:10424000EED7300EE66E77DFE5520A0EF36E030E00
:10425000F3CFDBFF040EDB6A030EDBCF14F0DB06CB
:10426000040EDBCF15F001E2DB061450151006E05A
:10427000040EE66E76EC28F0E552EED7300EE66ED0
:104280005ADFE5520A0EF36E050EF3CFDBFF060E82
:10429000DB6A050EDBCF14F0DB06060EDBCF15F074
:1042A00001E2DB061450151006E0040EE66E76EC13
:1042B00028F0E552EED7300EE66E3DDFE5520A0EED
:1042C000F36E070EF3CFDBFF080EDB6A070EDBCFC2
:1042D00014F0DB06080EDBCF15F001E2DB0614500C
:1042E000151006E0040EE66E76EC28F0E552EED7E7
:1042F000200EE66E20DFE5520A0EF36E090EF3CFB4
:10430000DBFF0A0EDB6A090EDBCF14F0DB060A0EB8
:10431000DBCF15F001E2DB061450151006E0040EA9
:10432000E66E76EC28F0E552EED7280EE66E1BDF3F
:10433000E552B9DEDF6EDF5010E10F0EE66E13DFDF
:10434000E552010EE66E0FDFE552040EE66E0BDF5E
:10435000E552060EE66E07DFE55200D00B0EE15C7B
:1043600002E2E16AE552E16EE552E7CFD9FF1200C1
:10437000D9CFE6FFE1CFD9FFFE0EDBCF1FFEE5521E
:10438000E7CFD9FF1200010EE66EEDDEE5520E0119
:104390001E6B1200D9CFE6FFE1CFD9FFE652FE0E29
:1043A000DB500E011F5D25E10E011E5101E13BD0E6
:1043B000100E0E011E5D0EE1800EE66ED4DEE5529B
:1043C000DF6A100EDF5C06E2140EE66ECCDEE5520C
:1043D000DF2AF7D7100EE66EC6DEE552200EE66E37
:1043E000E9DEE552100EE66EBEDEE5520E011E0756
:1043F0001AD0100E0E011E5D05E1C00EE66EB3DE92
:10440000E5520AD0200E0E011E5D06E30E011E6B62
:10441000020EE66EA8DEE552FE0EDBCFE6FFCADE38
:10442000E5520E011E2BE552E552E7CFD9FF1200EF
:10443000E8DE010EE66E97DEE5520E011E6B1200FD
:10444000D9CFE6FFE1CFD9FFE652010EE66E8BDE53
:10445000E552DF6A100EDF5C1CE2FD0EDBCFE9FFE8
:10446000FE0EDBCFEAFFEF50E66EDF50EA6A200F68
:10447000E96E0E0EEA22E552E750EF6EFD0EDBCF3D
:10448000E9FFDB2AFE0EDBCFEAFF01E3DB2ADF2AAE
:10449000E1D7C00EE66E67DEE552DF6A100EDF5C24
:1044A0001CE2FD0EDBCFE9FFFE0EDBCFEAFFEF5093
:1044B000E66EDF50EA6A200FE96E0E0EEA22E55240
:1044C000E750EF6EFD0EDBCFE9FFDB2AFE0EDBCF00
:1044D000EAFF01E3DB2ADF2AE1D7E552E552E7CF25
:1044E000D9FF1200958E958C958A95889592959412
:1044F00095961200959E959C959A9598959295946F
:04450000959612007A
:0C4504000D01CD6B0D01CE6B0D019E6B07
:104510000D019F6B0D01A06B0D01A1690D01A26B37
:104520001200D9CFE6FFE1CFD9FF020EE1260D013F
:10453000D02B000ED123D9CFE6FFDACFE6FF8FD8FC
:10454000E552E552000901E130D00D01CD510D01D8
:10455000CE5D04E10D01CE6B0D01CD6B0D01CE5191
:10456000E96EEA6AD890E936EA36A30EE9260D0E1E
:10457000EA22DFCFEFFF0D01CE51E96EEA6AD89053
:10458000E936EA36A30EE9260D0EEA22010EE926E7
:10459000000EEA22D0CDEFFF140E0D01CE5D02E237
:1045A0000D01CE2B0D01D06BD16B020EE15C02E24E
:1045B000E16AE552E16EE552E7CFD9FF1200D9CFAB
:1045C000E6FFE1CFD9FF0D01CE510D01CD5D34E203
:1045D0000D01CD51E96EEA6AD890E936EA36A30EAC
:1045E000E9260D0EEA22EF50E66EFD0EDBCFE9FF65
:1045F000FE0EDBCFEAFFE552E750EF6E0D01CD5125
:10460000E96EEA6AD890E936EA36A30EE9260D0E7D
:10461000EA22010EE926000EEA22EF50E66EFB0EBA
:10462000DBCFE9FFFC0EDBCFEAFFE552E750EF6E90
:104630000D01CD2B010E02D0000E00D0E552E7CFC8
:10464000D9FF12000D01CE6B0D01CD6B0D019E6BDC
:104650000D019F6B0D01A06B0D01A1691200D9CF57
:10466000E6FFE1CFD9FFE652DF68010E146E8050FD
:10467000020B01E0010E145C6EE18450020B01E0BC
:10468000010E166E8450010BE824156E8050200B2D
:1046900001E0010E040DF3CF14F08050100B01E087
:1046A000010E080DF3501410151016100F0BDF6ECD
:1046B000DF500F0A4BE0010A46E0030A41E0010A1D
:1046C0003CE0070A37E0010A32E0030A2EE0010A63
:1046D00029E00F0A24E0010A1FE0030A1AE0010A98
:1046E00015E0070A10E0010A0BE0030A06E0010AE0
:1046F00001E02FD0050EDF6E2ED0060EDF6E2BD020
:10470000090EDF6E28D00A0EDF6E25D0020EDF6E96
:1047100022D0010EDF6E1FD0030EDF6E1CD0070EFD
:10472000DF6E19D0040EDF6E16D0DF6A14D00B0EC8
:10473000DF6E11D00F0EDF6E0ED00C0EDF6E0BD0C1
:10474000080EDF6E08D00E0EDF6E05D00D0EDF6E88
:1047500002D0DF6800D0FF0EDF5C06E10D01D269F8
:104760000D01CF69000E18D00D01D251DF5C10E1B0
:104770000D01CF51DF5C0CE0FD0EDBCFE9FFFE0E3B
:10478000DBCFEAFFDFCFEFFFDFCFCFFD010E04D09D
:10479000DFCFD2FD000E00D0E552E552E7CFD9FFC2
:0247A000120005
:0E47A200DACFE4FFE2CFDAFFE9CFE4FFEACF9F
:1047B000E4FFF6CFE4FFF7CFE4FFF5CFE4FFF3CF5C
:1047C000E4FFF4CFE4FFFACFE4FF00EE00F0140EB4
:1047D000E80403E3EECFE4FFFBD700EE14F0080E8D
:1047E000E80403E3EECFE4FFFBD7E652F2940E01B8
:1047F0000E2B000E0F230E01102B000E11230E01A5
:10480000122B000E13230E01142B000E15230E0184
:10481000162B000E17230E010C2B000E0D230E017C
:104820001807000E195B0E01193504E21851000833
:10483000000E19550AE30E011A2B000E1B231C2330
:104840001D23C80E0E01186F196B0E0102510311C2
:1048500007E005D003CEFAFF0E010251F96EFADF30
:1048600000CEE6FF01CEE6FF3EEC28F0E552E55231
:10487000E55200EE1BF0080EE80403E3E5CFEDFF80
:10488000FBD700EE13F0140EE80403E3E5CFEDFFD1
:10489000FBD7E5CFFAFFE5CFF4FFE5CFF3FFE5CF98
:1048A000F5FFE5CFF7FFE5CFF6FFE5CFEAFFE5CF70
:1048B000E9FFE5CFDAFF1100DACFE4FFE2CFDAFF5C
:1048C000E9CFE4FFEACFE4FFF6CFE4FFF7CFE4FF60
:1048D000F5CFE4FFF3CFE4FFF4CFE4FFFACFE4FF3A
:1048E00000EE00F0140EE80403E3EECFE4FFFBD784
:1048F00000EE14F0080EE80403E3EECFE4FFFBD76C
:10490000E652D9CFE6FFE1CFD9FFE65201EC28F01D
:10491000DF6E0B018351832BEA6A860FE96E0B0E63
:10492000EA22DFCFEFFF800E0B01835D02E30B0174
:10493000836B0B01852B9E9AE552E552E7CFD9FF99
:10494000E55200EE1BF0080EE80403E3E5CFEDFFAF
:10495000FBD700EE13F0140EE80403E3E5CFEDFF00
:10496000FBD7E5CFFAFFE5CFF4FFE5CFF3FFE5CFC7
:10497000F5FFE5CFF7FFE5CFF6FFE5CFEAFFE5CF9F
:08498000E9FFE5CFDAFF1100A9
:08498800FE0EE3CFE9FFFF0E74
:10499000E3CFEAFFE9CFF3FFEACFF4FFFB0EE350EA
:1049A00003E1FC0EE35009E0FB0EE30602E2FC0E1D
:1049B000E306FD0EE350EE6EF1D71200D9CFE6FF0D
:1049C000DACFE6FFFA0EE3CFD9FFFB0EE3CFDAFF33
:1049D000FC0EE3CFE9FFFD0EE3CFEAFFDE50EF5C14
:1049E00002E1EE66FBD7F36EFF0EE3CFDAFFE5528E
:1049F000FF0EE3CFD9FFE552F3501200D9CFE6FF07
:104A0000DACFE6FFFA0EE3CFD9FFFB0EE3CFDAFFF2
:104A1000FC0EE3CFE9FFFD0EE3CFEAFFE9CFF3FFA2
:104A2000EACFF4FFDECFEFFFEE66FCD7FF0EE3CF59
:104A3000DAFFE552FF0EE3CFD9FFE5521200FB0E7D
:104A4000E3CFF6FFFC0EE3CFF7FFFD0EE3CFF8FF59
:104A5000FE0EE3CFE9FFFF0EE3CFEAFFE9CFF3FF5E
:104A6000EACFF4FF0900F5CFEFFFEE66FBD71200A7
:104A7000FE0EE3CFE9FFFF0EE3CFEAFFF36AF46A2D
:0C4A8000EE5203E0F34AF42AFBD71200C8
:044A8C004944454F05
:104A90004E49435320414E444F4E205445524D49B8
:104AA0004E414C2000434C454152204953535545FB
:104AB000530041444D494E204143544956495459AD
:104AC0003A0050415353574F52443A0050415254C8
:104AD000204E4F3A00464143494C49545900504CEE
:104AE0004154464F524D20454E47494E4545524947
:104AF0004E470050524F4345535320454E47494E71
:104B0000454552494E47004D464720544543484E7F
:104B10004F4C4F4759005445535420454E47494E3A
:104B2000454552494E47005741544552205350493C
:104B30004445520050524F44554354494F4E005142
:104B400055414C4954590053414645545900444538
:0A4B5000504152544D454E543A00B6
:064B5A00D9CFE6FFE1CF18
:104B6000D9FFE652BBEC27F0000EE66EE66AE00ED7
:104B7000E66EB10EE66E11EC26F0E552E552E55216
:104B8000E55218EC22F082EC22F019EC16F059EC08
:104B900000F08C0EE66E4A0EE66EFCEC1FF0E5525D
:104BA000E55211EC00F00E01640E0E5D000E0F597F
:104BB00005E399EC28F00E010E6B0F6B0E01080E49
:104BC000105D000E115905E391EC22F00E01106BFF
:104BD000116B0E01020E125D000E135905E34FEC2E
:104BE0001EF00E01126B136B0E01640E145D000EAD
:104BF000155905E393EC02F00E01146B156B0E01D1
:104C0000280E165D000E175905E327EC16F00E016D
:104C1000166B176B0400C7D7E552E552E7CFD9FFF3
:024C2000120080
:0E4C2200D9CFE6FFE1CFD9FF9F0EE66E5AEC28
:104C300028F0E552FD0EDBCF00FEFE0EDBCF01FEBD
:104C4000FB0EDBCF02FEFC0EDBCF03FEF194FD0E6C
:104C5000DBCFE6FFFE0EDBCFE6FF3EEC28F0E552B1
:104C6000E552E552E7CFD9FF1200D9CFE6FFE1CFF9
:104C7000D9FF040EE126F29A1ACEDFFF010E1BCEF9
:104C8000DBFF020E1CCEDBFF030E1DCEDBFFF28A24
:104C9000DECF06F0DECF07F0DECF08F0DDCF09F083
:104CA000DD52DD5200D0040EE15C02E2E16AE55221
:104CB000E16EE552E7CFD9FF1200F29E0E011A6BAA
:0A4CC0001B6B1C6B1D6BF28E1200C3
:064CCA002C0EF66E000E38
:104CD000F76E000EF86E0D010900F550F46F090033
:104CE000F550F56F03E1F46701D03DD00900F550B0
:104CF000EF6F0900F550F06F0900F550F16F0900F2
:104D00000900F550E96E0900F550EA6E0900090046
:104D10000900F550F26F0900F550F36F0900090022
:104D2000F6CFF6FDF7CFF7FDF8CFF8FDEFCDF6FFA4
:104D3000F0CDF7FFF1CDF8FF0D01F25302E1F3538F
:104D400007E00900F550EE6EF207F8E2F307F9D735
:104D5000F6CDF6FFF7CDF7FFF8CDF8FF0D01F4071C
:084D6000000EF55BBFD7120045
:084D6800D9CFE6FFDACFE6FF28
:104D7000E1CFD9FFE2CFDAFFE652DF6AFD0EDBCFEB
:104D800015F015C014F0030E1514AA6EFF0EE76E91
:104D9000FC0EDBCF14F0E7501416156A1450A96E00
:104DA000FB0EDB50A86EA69EA69CA684F250800B3C
:104DB00001E0010EDF6EF29E550EA76EAA0EA76EE1
:104DC000A682A6B2FED7DF50E8B0F28EE8A0F29E2F
:104DD000A694E552E552E5CFDAFFE7CFD9FF1200FE
:104DE000D9CFE6FFDACFE6FFE1CFD9FFE2CFDAFF96
:104DF000726A716AFD0EDBB07288DBA202D0728C1F
:104E0000718CDBB4728EDBA602D0718801D0718AFE
:104E1000DBA802D0728401D07294DBBA7186DBAC5D
:104E200002D0A38A01D0A39ADBAE02D0A38801D01E
:104E3000A398FB0EDB50756EFC0EDBCF15F015C092
:104E400014F0156A1450766E728A718EE552E5CFB1
:084E5000DAFFE7CFD9FF1200E1
:084E5800D9CFE6FFDACFE6FF37
:104E6000E1CFD9FFE2CFDAFFAC6AAB6AFD0EDBB06F
:104E7000AC88DBA202D0AC8CAB8CDBB4AC8EDBA6F6
:104E800002D0AB8801D0AB8ADBB8AC84DBBAAB868E
:104E9000DBAC02D09D8A01D09D9ADBAE02D09D880A
:104EA00001D09D98FB0EDB50AF6EFC0EDBCF15F0F2
:104EB00015C014F0156A1450B06EAC8AAB8EE55272
:0A4EC000E5CFDAFFE7CFD9FF1200BB
:064ECA00D9CFE6FFDACFAC
:104ED000E6FFE1CFD9FFE2CFDAFFFC0EDBCF14F023
:104EE000FD0EDBCF15F015C014F0156A030E141477
:104EF000AA6EFF0EE76EFC0EDBCF14F0FD0EDBCFCB
:104F000015F0E7501416156A1450A96EA69CA69EBB
:104F1000A68000000000A85000D0E552E5CFDAFFDF
:064F2000E7CFD9FF1200EB
:0A4F2600312D312D3132414243326A
:104F300033444546330B0B0B0B0B34474849343590
:104F40004A4B4C35364D4E4F360C0C0C0C0C375032
:104F50005152533854555638395758595A08080839
:104F600008082A2A2A2A2A30203020301313131343
:064F7000130A0A0A0A0AF6
:0A4F7600C26A0F01386B0F01396B9E
:104F80000F013A6B0F013B6B0F013C6B700ED36E40
:104F9000969484949490949C948E959E959C959AC6
:104FA000959895929594959692829288928A9680F9
:104FB000968295908390939A819A939681969398EE
:044FC00081981200C2
:0C4FC400D9CFE6FFDACFE6FFE1CFD9FF3E
:104FD000E2CFDAFFE652F20E0D01FB1771AC03D0FF
:104FE000FB9171B0FB8171B4FB8571B2FB8774508A
:104FF000DF6EDF50E552E552E5CFDAFFE7CFD9FFAC
:0250000012009C
:0E500200D9CFE6FFDACFE6FFE1CFD9FFE2CF4C
:10501000DAFFE652F20E0D01FC17ABAC03D0FC91A7
:10502000ABB0FC81ABB4FC85ABB2FC87AE50DF6E9D
:10503000DF50E552E552E5CFDAFFE7CFD9FF1200A6
:1050400008C012F008500D02F4CF07F0F3CF06F0BD
:1050500009500E02F4CF09F0F3CF08F00D02F3501F
:105060000726F4500822E86A092212500E02F35073
:0C5070000726F4500822E86A0922000C10
:04507C00D9CFE6FFA3
:10508000DACFE6FFE1CFD9FFE2CFDAFFE652E65210
:10509000FC0EDBCFDEFFDBCFDDFF010EDB50D76E7A
:1050A000DF50D66EE552E552E552E5CFDAFFE7CFA5
:0450B000D9FF120012
:0C50B400D9CFE6FFDACFE6FFE1CFD9FF4D
:1050C000E2CFDAFFFD0EDB507F0BD56ED76AD66AD2
:1050D000F294FD0EDBAE02D0F28A01D0F29AD58EA8
:0C50E000E552E5CFDAFFE7CFD9FF120060
:0450EC00FF0EE35080
:1050F0001C6E480E01D04C0EE76EE72EFED7E76A15
:0C510000E72EFED71C2EF7D7000012008F
:04510C00380EF36EF8
:1051100000EE00F00F0E01D81200EA6002D0EE6A35
:0C512000FCD7F350E9601200EE6AFCD7E7
:04512C000D01FE6B08
:1051300012000D01FE0504E10D01FE6B849404D004
:0A5140000D01010EFE6F84841200C1
:06514A0010EE60F020EE03
:1051500060F0F86A019C65EC26F0BCEC28F0ADEC40
:0651600025F0FBD7120050
:0A51660020202020202020202020FF
:075170002020202020200078
:015177000037
:02517800120023
:06517A000000000000002F
:10518000000000000000000000000000000000001F
:105190000000000000000000000000000000FF0010
:1051A00000000000000000000000000000000000FF
:1051B00000000000000000000000000000000000EF
:1051C00000000000000000000000000000000000DF
:1051D00000000000000000000000000000000000CF
:1051E0000000FF00000000000000000000000000C0
:1051F00000000000000000000000000000000000AF
:04520000000000FFAB
:0C5204000000000000000000000000009E
:10521000000000000000000000000000000000008E
:10522000000000000000000000000000000000007E
:10523000000000000000000000000000000000006E
:10524000000000000000000000000000000000005E
:10525000000000000000000000000000000000004E
:10526000000000000000000000000000000000003E
:10527000000000000000000000000000000000002E
:10528000000000000000000000000000000000001E
:10529000000000000000000000000000000000000E
:1052A00000000000000000000000000000000000FE
:1052B00000000000000000000000000000000000EE
:1052C00000000000000000000000000000000000DE
:1052D00000000000000000000000000000000000CE
:1052E00000000000000000000000000000000000BE
:1052F00000000000000000000000000000000000AE
:0A53000000000000000000000000A3
:06530A000000000000009D
:10531000000000000000000000000000000000008D
:085320000000C80000000000BD
:0853280000000000000000007D
:10533000000000000000000000000000000000006D
:10534000000000000000000000000000000000005D
:10535000000000000000000000000000000000004D
:10536000000000000000000000000000000000003D
:10537000000000000000000000000000000000002D
:10538000000000000000000000000000000000001D
:10539000000000000000000000000000000000000D
:1053A00000000000000000000000000000000000FD
:1053B00000000000000000000000000000000000ED
:1053C00000000000000000000000000000000000DD
:1053D00000000000000000000000000000000000CD
:1053E00000000000000000000000000000000000BD
:1053F00000000000000000000000000000000000AD
:10540000000000000000000000000000000000009C
:10541000000000000000000000000000000000008C
:10542000000000000000000000000000000000007C
:10543000000000000000000000000000000000006C
:10544000000000000000000000000000000000005C
:10545000000000000000000000000000000000004C
:10546000000000000000000000000000000000003C
:10547000000000000000000000000000000000002C
:10548000000000000000000000000000000000001C
:10549000000000000000000000000000000000000C
:1054A00000000000000000000000000000000000FC
:1054B00000000000000000000000000000000000EC
:1054C00000000000000000000000000000000000DC
:1054D00000000000000000000000000000000000CC
:0D54E00000000000000000000000000000BF
:0354ED00000000BC
:1054F00000000000000000000000000000000000AC
:0F5500000000000000000000000000000000009C
:01550F00009B
:10551000000000000000000000000000000000008B
:10552000000000000000000000000000000000007B
:10553000000000000000000000000000000000006B
:10554000000000000000000000000000000000005B
:0855500000000000FF0000FF55
:0855580000000000000000004B
:10556000000000000000000000000000000000003B
:10557000000000000000000000000000000000002B
:10558000000000000000000000000000000000001B
:10559000000000000000000000000000000000000B
:1055A00000000000000000000000000000000000FB
:1055B00000000000000000000000000000000000EB
:1055C00000000000000000000000000000000000DB
:1055D00000000000000000000000000000000000CB
:1055E00000000000000000000000000000000000BB
:1055F00000000000000000000000000000000000AB
:10560000000000000000000000000000000000009A
:10561000000000000000000000000000000000008A
:10562000000000000000000000000000000000007A
:10563000000000000000000000000000000000006A
:10564000000000000000000000000000000000005A
:10565000000000000000000000000000000000004A
:0C5660000000000000000000000000003E
:04566C00000000003A
:10567000000000000000000000000000000000002A
:10568000000000000000000000000000000000001A
:10569000000000000000000000000000000000000A
:1056A00000000000000000000000000000000000FA
:025A8800FFFF1E
:065A8A004E4B474B3F4B61
:105A9000344B274B164B074BF34ADE4AD54ACC4AC8
:065AA000C24AB24AA54A09
:020000040030CA
:0100010008F6
:0100020001FC
:0100030024D8
:01000500BD3D
:010006008079
:010008000FE8
:01000900C036
:01000A000FE6
:01000B00E014
:01000C000FE4
:01000D0040B2
:00000001FF
