:020000040000FA
:06000000DFEF2AF0120000
:020006002300D5
:08000800F2A402D019EF27F069
:0A0010009EAA02D0ABEF24F012000C
:06001A000A006D5C00000D
:10002000000B0000BC0000006B5C0000BF0B000078
:1000300002000000685C0000BC0B00000300000030
:10004000465C0000000F0000220000003B5C000046
:10005000220F00000B000000A75B0000000C000056
:1000600094000000E458000000020000C3020000F9
:100070001F57000000070000C5010000995600004E
:10008000000D000086000000105600000001000076
:0400900089000000E3
:0C009400D9CFE6FFE1CFD9FF0A0EE1262C
:1000A000050EDB6A060EDB6A070EDB6A080EDB6AEA
:1000B000090EDB6A0201036B046B056B066B020120
:1000C000076B086B096B0A6B0701046BDE6ADD6A5C
:1000D000DECF14F0DDCF15F0140E145C000E1558B1
:1000E00001E3AED0DECF14F0DDCF15F0210E150206
:1000F000F3CF15F0210E1402F3CF14F0F4501526AF
:10010000170E1426020E1522030E14C0DBFF040E78
:1001100015C0DBFF020EDB6A210EF36E020EDBCF91
:10012000F4FFF350F45C35E201EC2BF00400020E16
:10013000DB50166E176A210E086E096ADECF0DF0CD
:10014000DDCF0EF028EC29F006501624146E07506F
:100150001720156E14C0E6FF15C0E6FFBBEC29F0B2
:10016000E552E552E66E020EDB50E76E030EDBCF82
:10017000E9FF040EDBCFEAFFE750E926000EEA2292
:10018000E552E750EF6E01EC2BF00400020EDB2A83
:10019000C3D7DECFE9FFDDCFEAFF210EEA02F3CFBE
:1001A000EAFF210EE902F3CFE9FFF450EA26170E29
:1001B000E926020EEA221E0EE926000EEA22EF04CC
:1001C00002E10201012BDECFE9FFDDCFEAFF210EC4
:1001D000EA02F3CFEAFF210EE902F3CFE9FFF45080
:1001E000EA26170EE926020EEA221E0EE926000E66
:1001F000EA22EF50030802E10201022BDECFE9FF01
:10020000DDCFEAFF210EEA02F3CFEAFF210EE90279
:10021000F3CFE9FFF450EA26170EE926020EEA2290
:100220001F0EE926000EEA22EF0405E1010EF36E2F
:10023000050EF3CFDBFFDF2A010E01E3DB2A48D7EF
:1002400002010251000806E2010EF36E080EF3CF20
:10025000DBFF0FD002010151000806E2010EF36E30
:10026000070EF3CFDBFF05D0010EF36E060EF3CFC2
:10027000DBFF050EDB0405E1010EF36E090EF3CF83
:10028000DBFF0201310E0D6F0201300E0E6F020115
:10029000300E0F6F0201330E106F0201116B02015D
:1002A000310E126F0201330E136F0201310E146F03
:1002B0000201330E156F0201166B0401060EAD6FBD
:1002C00001EC2BF00400E66AE66AE66AE66AD1EC25
:1002D00011F0E552E552E552E552F00EE66E030EDE
:1002E000E66EBBEC29F0E552E5520401AB6F01EC80
:1002F0002BF004000401AB0513E12ED8090EDBCF6F
:10030000E6FF080EDBCFE6FF070EDBCFE6FF060EAB
:10031000DBCFE6FFD1EC11F0E552E552E552E552B4
:10032000E60EE66E280EE66EDD0EE66ECC0EE66E8E
:10033000BB0EE66EAA0EE66E8DEC22F0146E060E73
:10034000E15E14500A0EE15C02E2E16AE552E16E00
:10035000E552E7CFD9FF1200D9CFE6FFE1CFD9FFB1
:10036000050EE126DF6A010EDB6A020EDB6A030E70
:10037000DB6A02010251000808E2030E006F010E61
:10038000F36E020EF3CFDBFF0DD00151000805E242
:10039000010E006FDE52DD6E05D0006B010EDF6EC8
:1003A000030EDB6A040EDB6ADB50146E156AD8900C
:1003B000155004E6140E145C000E15581AE2040ED3
:1003C000DB50210DF3CFE9FFF4CFEAFF170EE9264A
:1003D000020EEA221F0EE926000EEA22EF0406E1D1
:1003E000010EF36E030EF3CFDBFF03D0040EDB2A06
:1003F000DBD7030EDBCFE6FF020EDBCFE6FF010EFD
:10040000DBCFE6FFDFCFE6FFD1EC11F0E552E5529E
:10041000E552E552050EE15C02E2E16AE552E16E69
:10042000E552E7CFD9FF1200D9CFE6FFE1CFD9FFE0
:10043000050EE126DF6A010EDB6A020EDB6A030E9F
:10044000DB6AFD0EDBCFE6FFFE0EDBCFE6FF120E12
:10045000E66E020EE66EFBEC27F0E552E552E55241
:10046000E552000902E0000E74D0020102510008BA
:1004700009E20201030E006F010EF36E020EF3CFCC
:10048000DBFF11D002010151000807E20201010E59
:10049000006FDE52010EDD6E06D00201006B010E10
:1004A000DF6E030EDB6A040EDB6A040EDB50146E93
:1004B000156AD890155004E6140E145C000E1558F9
:1004C0001AE2040EDB50210DF3CFE9FFF4CFEAFF6F
:1004D000170EE926020EEA221F0EE926000EEA2276
:1004E000EF0406E1010EF36E030EF3CFDBFF03D042
:1004F000040EDB2ADAD7030EDBCFE6FF020EDBCFDA
:10050000E6FF010EDBCFE6FFDFCFE6FFD1EC11F017
:10051000E552E552E552E552FB0EDBCFE6FFFC0E5D
:10052000DBCFE6FF79EC11F0E552E552010EE66E05
:10053000F00EE66E030EE66E46EC29F0E552E5524B
:10054000E55201EC2BF004000401010EAB6F010E2B
:1005500000D0146E050EE15C02E2E16AE552E16E44
:100560001450E552E7CFD9FF1200D9CFE6FFE1CF13
:10057000D9FF050EE126DF6A010EDB6A020EDB6A97
:10058000030EDB6AFD0EDBCFE6FFFE0EDBCFE6FFE0
:10059000120EE66E020EE66EFBEC27F0E552E55217
:1005A000E552E552000902E0000E2CD0030EDBCF2D
:1005B000E6FF020EDBCFE6FF010EDBCFE6FFDFCF6B
:1005C000E6FFD1EC11F0E552E552E552E552FB0EA3
:1005D000DBCFE6FFFC0EDBCFE6FF79EC11F0E55256
:1005E000E552E66AF00EE66E030EE66E46EC29F082
:1005F000E552E552E55201EC2BF004000401AB6B2F
:10060000010E00D0146E050EE15C02E2E16AE552D3
:10061000E16E1450E552E7CFD9FF1200D9CFE6FFC3
:10062000E1CFD9FF090EE126010EF36E080EF3CFDC
:10063000DBFFAFEC27F006C007F207C008F208C0E6
:1006400009F209C00AF2030EE96E020EEA6EEE50DC
:10065000020107190CE1EE500201081908E1EE5001
:100660000201091904E1EE5002010A1900E101E159
:10067000C3D007C203F208C204F209C205F20AC2DB
:1006800006F2DF6ADF50146E156AD890155004E642
:10069000140E145C000E155801E3A4D0DF50210D98
:1006A000F3CFE9FFF4CFEAFF170EE926020EEA22A4
:1006B0001E0EE926000EEA22EF0401E091D0DF5081
:1006C000210DF3CFE9FFF4CFEAFF170EE926020E62
:1006D000EA221C0EE926000EEA22EE06000EED5A72
:1006E000DF50210DF3CFE9FFF4CFEAFF170EE92623
:1006F000020EEA221C0EE926000EEA22E9CF14F0CF
:10070000EACF15F0010E14C0DBFF020E15C0DBFFAF
:10071000010EDBCFE9FF020EDBCFEAFF030EEFCFC6
:10072000DBFF210EDF02F3501C0F146E040E14C009
:10073000DBFF050EDB6A060EDB6A070EDB6A010EC5
:10074000DBCFE9FF020EDBCFEAFFEF50E66E210EB2
:10075000DF02F3501C0FE66EE66A46EC29F0E55224
:10076000E552E55201EC2BF00400010EE76E010E9C
:10077000DBCFE9FF020EDBCFEAFFE750E926000EF0
:10078000EA22030EEFCFDBFF210EDF02F3501C0F36
:10079000010F146E040E14C0DBFF050EDB6A060E9B
:1007A000DB6A070EDB6A010EE76E010EDBCFE9FFA5
:1007B000020EDBCFEAFFE750E926000EEA22EF50F7
:1007C000E66E210EDF02F3501C0F010FE66EE66AA3
:1007D00046EC29F0E552E552E55201EC2BF004001D
:1007E000DF2A50D7ABEC12F0010806E18982020142
:1007F000015102E189948996090EE15C02E2E16A05
:10080000E552E16EE552E7CFD9FF1200D9CFE6FFFE
:10081000E1CFD9FF050EE126FD0EDBCFE9FFFE0E8D
:10082000DBCFEAFF200EE926000EEA22EF28DF6E7A
:10083000010EDB6A020EDB6ADF50146E156AD89077
:10084000155004E6140E145C000E155801E3DF6A1F
:10085000FD0EDBCFE9FFFE0EDBCFEAFF200EE9261F
:10086000000EEA22EF68030EDB6ADB50146E156A95
:10087000D890155004E6140E145C000E155801E3D0
:100880001BD3DF50146E156A140E0D6E0E6A14C061
:1008900008F015C009F002EC29F004C014F005C0FE
:1008A00015F01450DF6EDF50210DF3CFE9FFF4CFC8
:1008B000EAFF170EE926020EEA221E0EE926000EB6
:1008C000EA22EF5010E0DF50210DF3CFE9FFF4CF23
:1008D000EAFF170EE926020EEA221F0EE926000E95
:1008E000EA22EF5004E1030EDB2ADF2ABED7FD0E19
:1008F000DBCFE9FFFE0EDBCFEAFFE9CF14F0EACF52
:1009000015F0010EDBCFF3FFDB2AF3500F011424A7
:10091000E96E000E1520EA6E530EEF6EFD0EDBCF72
:10092000E9FFFE0EDBCFEAFFE9CF14F0EACF15F0C6
:10093000010EDBCFF3FFDB2AF3501424E96E000E27
:100940001520EA6E540EEF6EFD0EDBCFE9FFFE0EB2
:10095000DBCFEAFFE9CF14F0EACF15F0010EDBCFD1
:10096000F3FFDB2AF3501424E96E000E1520EA6E23
:100970004E0EEF6EFD0EDBCFE9FFFE0EDBCFEAFF82
:10098000E9CF14F0EACF15F0010EDBCFF3FFDB2A3D
:10099000F3501424E96E000E1520EA6E3A0EEF6E45
:1009A000DF50210DF3CFE9FFF4CFEAFF170EE92660
:1009B000020EEA22E9CF16F0EACF17F0020EDBCFE3
:1009C000F3FFDB2AF3501624E96E000E1720EA6EBF
:1009D000EF50E66EFD0EDBCFE9FFFE0EDBCFEAFF48
:1009E000E9CF14F0EACF15F0010EDBCFF3FFDB2ADD
:1009F000F3501424E96E000E1520EA6EE552E7501C
:100A0000EF6EDF50210DF3CFE9FFF4CFEAFF170EB1
:100A1000E926020EEA22E9CF16F0EACF17F0020E1D
:100A2000DBCFF3FFDB2AF3501624E96E000E17200C
:100A3000EA6EEF50E66EFD0EDBCFE9FFFE0EDBCF78
:100A4000EAFFE9CF14F0EACF15F0010EDBCFF3FF98
:100A5000DB2AF3501424E96E000E1520EA6EE552ED
:100A6000E750EF6EFD0EDBCFE9FFFE0EDBCFEAFFB6
:100A7000E9CF14F0EACF15F0010EDBCFF3FFDB2A4C
:100A8000F3501424E96E000E1520EA6E3B0EEF6E53
:100A9000DF50210DF3CFE9FFF4CFEAFF170EE9266F
:100AA000020EEA22200EE926000EEA22EF0460E19F
:100AB000FD0EDBCFE9FFFE0EDBCFEAFFE9CF14F03E
:100AC000EACF15F0010EDBCFF3FFDB2AF35014243D
:100AD000E96E000E1520EA6E230EEF6E020EDB2A81
:100AE000DF50210DF3CFE9FFF4CFEAFF170EE9261F
:100AF000020EEA22E9CF14F0EACF15F0020EDB5025
:100B00001424E96E000E1520EA6EEF5030E0DF503D
:100B1000210DF3CFE9FFF4CFEAFF170EE926020E0D
:100B2000EA22E9CF16F0EACF17F0020EDB501624C6
:100B3000E96E000E1720EA6EEF50E66EFD0EDBCF79
:100B4000E9FFFE0EDBCFEAFFE9CF14F0EACF15F0A4
:100B5000010EDB501424E96E000E1520EA6EE552FA
:100B6000E750EF6E010EDB2A020EDB2AB9D782D1E5
:100B7000DF50210DF3CFE9FFF4CFEAFF170EE9268E
:100B8000020EEA22200EE926000EEA22EF500208A9
:100B900001E00AD1020EDB2AFD0EDBCFE9FFFE0EDB
:100BA000DBCFEAFFE9CF14F0EACF15F0010EDBCF7F
:100BB000F3FFDB2AF3501424E96E000E1520EA6ED1
:100BC000530EEF6EFD0EDBCFE9FFFE0EDBCFEAFF2B
:100BD000E9CF14F0EACF15F0010EDBCFF3FFDB2AEB
:100BE000F3501424E96E000E1520EA6E410EEF6EEC
:100BF000FD0EDBCFE9FFFE0EDBCFEAFFE9CF14F0FD
:100C0000EACF15F0010EDBCFF3FFDB2AF3501424FB
:100C1000E96E000E1520EA6E460EEF6EFD0EDBCF7C
:100C2000E9FFFE0EDBCFEAFFE9CF14F0EACF15F0C3
:100C3000010EDBCFF3FFDB2AF3501424E96E000E24
:100C40001520EA6E450EEF6EFD0EDBCFE9FFFE0EBE
:100C5000DBCFEAFFE9CF14F0EACF15F0010EDBCFCE
:100C6000F3FFDB2AF3501424E96E000E1520EA6E20
:100C7000540EEF6EFD0EDBCFE9FFFE0EDBCFEAFF79
:100C8000E9CF14F0EACF15F0010EDBCFF3FFDB2A3A
:100C9000F3501424E96E000E1520EA6E590EEF6E23
:100CA000FD0EDBCFE9FFFE0EDBCFEAFFE9CF14F04C
:100CB000EACF15F0010EDBCFF3FFDB2AF35014244B
:100CC000E96E000E1520EA6E3A0EEF6EDF50210D30
:100CD000F3CFE9FFF4CFEAFF170EE926020EEA226E
:100CE000E9CF17F0EACF18F0020EDB501724E96EB7
:100CF000000E1820EA6EEF50D00FE96EEA6AD89025
:100D0000E936EA36120EE9260B0EEA22EECF14F08F
:100D1000EFCF15F0166A14C0E6FF15C0E6FF16C047
:100D2000E6FFFD0EDBCFE9FFFE0EDBCFEAFFE9CFEA
:100D30001BF0EACF1CF0010EDB5000011B24196EE2
:100D4000000E1C201A6E19C0E6FF1AC0E6FF3CEC2C
:100D500028F01D6E050EE15E1D50FD0EDBCFE9FF94
:100D6000FE0EDBCFEAFFE9CF16F0EACF17F0010E57
:100D7000DB5000011624146E000E1720156E14C0EF
:100D8000E6FF15C0E6FF55EC28F0E552E552040EEB
:100D9000F3CFDBFF010EDBCFE7FF040EDB50E726CE
:100DA000010EE7CFDBFF66D0DF50210DF3CFE9FF67
:100DB000F4CFEAFF170EE926020EEA22E9CF16F079
:100DC000EACF17F0020EDB501624E96E000E172052
:100DD000EA6EEF50D00F100DF3CF14F0F4CF15F0F2
:100DE0001C0E14260B0E152214C0E6FF15C0E6FFDC
:100DF000FD0EDBCFE9FFFE0EDBCFEAFFE9CF1AF0F5
:100E0000EACF1BF0010EDB5000011A24186E000E11
:100E10001B20196E18C0E6FF19C0E6FF1BEC28F076
:100E2000E552E552E552E552FD0EDBCFE9FFFE0E3D
:100E3000DBCFEAFFE9CF16F0EACF17F0010EDB5067
:100E400000011624146E000E1720156E14C0E6FF64
:100E500015C0E6FF55EC28F0E552E552040EF3CF3D
:100E6000DBFF010EDBCFE7FF040EDB50E726010EB0
:100E7000E7CFDBFFFD0EDBCFE9FFFE0EDBCFEAFFA6
:100E8000E9CF14F0EACF15F0010EDB500F01142466
:100E9000E96E000E1520EA6EEF6ADFCFACF4FD0EAE
:100EA000DBCFE9FFFE0EDBCFEAFF200EE926000EC6
:100EB000EA22ACC4EFFF00D0050EE15C02E2E16A79
:100EC000E552E16EE552E7CFD9FF1200D9CFE6FF38
:100ED000E1CFD9FF0F0EE126FD0EDBCFE9FFFE0EBD
:100EE000DBCFEAFF200EE926000EEA22EF28DF6EB4
:100EF000010EDB6A020EDB6AD950060FE96EDACF0B
:100F0000EAFF4D0EEE6E410EEE6E540EEE6E450E85
:100F1000EE6E520EEE6E490EEE6E410EEE6E4C0E01
:100F2000EE6EEE6ADF50146E156AD890155004E626
:100F3000140E145C000E155801E3DF6AFD0EDBCFC2
:100F4000E9FFFE0EDBCFEAFF200EE926000EEA22C3
:100F5000EF68030EDB6ADB50146E156AD8901550EB
:100F600004E6140E145C000E155801E31BD3DF5089
:100F7000146E156A140E0D6E0E6A14C008F015C0BA
:100F800009F002EC29F004C014F005C015F014506B
:100F9000DF6EDF50210DF3CFE9FFF4CFEAFF170E2C
:100FA000E926020EEA221E0EE926000EEA22EF5082
:100FB00010E0DF50210DF3CFE9FFF4CFEAFF170E69
:100FC000E926020EEA221F0EE926000EEA22EF04AD
:100FD00004E1030EDB2ADF2ABED7FD0EDBCFE9FFDB
:100FE000FE0EDBCFEAFFE9CF14F0EACF15F0010ED9
:100FF000DBCFF3FFDB2AF3500F011424E96E000E60
:101000001520EA6E530EEF6EFD0EDBCFE9FFFE0EEC
:10101000DBCFEAFFE9CF14F0EACF15F0010EDBCF0A
:10102000F3FFDB2AF3501424E96E000E1520EA6E5C
:10103000540EEF6EFD0EDBCFE9FFFE0EDBCFEAFFB5
:10104000E9CF14F0EACF15F0010EDBCFF3FFDB2A76
:10105000F3501424E96E000E1520EA6E4E0EEF6E6A
:10106000FD0EDBCFE9FFFE0EDBCFEAFFE9CF14F088
:10107000EACF15F0010EDBCFF3FFDB2AF350142487
:10108000E96E000E1520EA6E3A0EEF6EDF50210D6C
:10109000F3CFE9FFF4CFEAFF170EE926020EEA22AA
:1010A000E9CF16F0EACF17F0020EDBCFF3FFDB2A11
:1010B000F3501624E96E000E1720EA6EEF50E66E2C
:1010C000FD0EDBCFE9FFFE0EDBCFEAFFE9CF14F028
:1010D000EACF15F0010EDBCFF3FFDB2AF350142427
:1010E000E96E000E1520EA6EE552E750EF6EDF5014
:1010F000210DF3CFE9FFF4CFEAFF170EE926020E28
:10110000EA22E9CF16F0EACF17F0020EDBCFF3FFA9
:10111000DB2AF3501624E96E000E1720EA6EEF501A
:10112000E66EFD0EDBCFE9FFFE0EDBCFEAFFE9CF77
:1011300014F0EACF15F0010EDBCFF3FFDB2AF350FA
:101140001424E96E000E1520EA6EE552E750EF6EAA
:10115000FD0EDBCFE9FFFE0EDBCFEAFFE9CF14F097
:10116000EACF15F0010EDBCFF3FFDB2AF350142496
:10117000E96E000E1520EA6E3B0EEF6EDF50210D7A
:10118000F3CFE9FFF4CFEAFF170EE926020EEA22B9
:10119000200EE926000EEA22EF0460E1FD0EDBCF0F
:1011A000E9FFFE0EDBCFEAFFE9CF14F0EACF15F03E
:1011B000010EDBCFF3FFDB2AF3501424E96E000E9F
:1011C0001520EA6E230EEF6E020EDB2ADF50210D92
:1011D000F3CFE9FFF4CFEAFF170EE926020EEA2269
:1011E000E9CF14F0EACF15F0020EDB501424E96EBB
:1011F000000E1520EA6EEF5030E0DF50210DF3CFE6
:10120000E9FFF4CFEAFF170EE926020EEA22E9CF42
:1012100016F0EACF17F0020EDB501624E96E000E2E
:101220001720EA6EEF50E66EFD0EDBCFE9FFFE0EF3
:10123000DBCFEAFFE9CF14F0EACF15F0010EDB5067
:101240001424E96E000E1520EA6EE552E750EF6EA9
:10125000010EDB2A020EDB2AB9D782D1DF50210D25
:10126000F3CFE9FFF4CFEAFF170EE926020EEA22D8
:10127000200EE926000EEA22EF50020801E00AD112
:10128000020EDB2AFD0EDBCFE9FFFE0EDBCFEAFF0D
:10129000E9CF14F0EACF15F0010EDBCFF3FFDB2A24
:1012A000F3501424E96E000E1520EA6E530EEF6E13
:1012B000FD0EDBCFE9FFFE0EDBCFEAFFE9CF14F036
:1012C000EACF15F0010EDBCFF3FFDB2AF350142435
:1012D000E96E000E1520EA6E410EEF6EFD0EDBCFBB
:1012E000E9FFFE0EDBCFEAFFE9CF14F0EACF15F0FD
:1012F000010EDBCFF3FFDB2AF3501424E96E000E5E
:101300001520EA6E460EEF6EFD0EDBCFE9FFFE0EF6
:10131000DBCFEAFFE9CF14F0EACF15F0010EDBCF07
:10132000F3FFDB2AF3501424E96E000E1520EA6E59
:10133000450EEF6EFD0EDBCFE9FFFE0EDBCFEAFFC1
:10134000E9CF14F0EACF15F0010EDBCFF3FFDB2A73
:10135000F3501424E96E000E1520EA6E540EEF6E61
:10136000FD0EDBCFE9FFFE0EDBCFEAFFE9CF14F085
:10137000EACF15F0010EDBCFF3FFDB2AF350142484
:10138000E96E000E1520EA6E590EEF6EFD0EDBCFF2
:10139000E9FFFE0EDBCFEAFFE9CF14F0EACF15F04C
:1013A000010EDBCFF3FFDB2AF3501424E96E000EAD
:1013B0001520EA6E3A0EEF6EDF50210DF3CFE9FFF4
:1013C000F4CFEAFF170EE926020EEA22E9CF17F062
:1013D000EACF18F0020EDB501724E96E000E182039
:1013E000EA6EEF50D00FE96EEA6AD890E936EA3635
:1013F000120EE9260B0EEA22EECF14F0EFCF15F015
:10140000166A14C0E6FF15C0E6FF16C0E6FFFD0E23
:10141000DBCFE9FFFE0EDBCFEAFFE9CF1BF0EACF1F
:101420001CF0010EDB5000011B24196E000E1C2065
:101430001A6E19C0E6FF1AC0E6FF3CEC28F01D6EDC
:10144000050EE15E1D50FD0EDBCFE9FFFE0EDBCF8A
:10145000EAFFE9CF16F0EACF17F0010EDB500001EA
:101460001624146E000E1720156E14C0E6FF15C06A
:10147000E6FF55EC28F0E552E552050EF3CFDBFF11
:10148000010EDBCFE7FF050EDB50E726010EE7CFAD
:10149000DBFF66D0DF50210DF3CFE9FFF4CFEAFF89
:1014A000170EE926020EEA22E9CF16F0EACF17F06E
:1014B000020EDB501624E96E000E1720EA6EEF5084
:1014C000D00F100DF3CF14F0F4CF15F01C0E14262E
:1014D0000B0E152214C0E6FF15C0E6FFFD0EDBCF94
:1014E000E9FFFE0EDBCFEAFFE9CF1AF0EACF1BF0EF
:1014F000010EDB5000011A24186E000E1B20196E1D
:1015000018C0E6FF19C0E6FF1BEC28F0E552E552D3
:10151000E552E552FD0EDBCFE9FFFE0EDBCFEAFF21
:10152000E9CF16F0EACF17F0010EDB5000011624C8
:10153000146E000E1720156E14C0E6FF15C0E6FFEE
:1015400055EC28F0E552E552050EF3CFDBFF010E16
:10155000DBCFE7FF050EDB50E726010EE7CFDBFF11
:10156000FD0EDBCFE9FFFE0EDBCFEAFFE9CF14F083
:10157000EACF15F0010EDB500F011424E96E000EC6
:101580001520EA6EEF6ADFCFACF4FD0EDBCFE9FF8A
:10159000FE0EDBCFEAFF200EE926000EEA22ACC4E5
:1015A000EFFF00D00F0EE15C02E2E16AE552E16E6E
:1015B000E552E7CFD9FF1200D9CFE6FFE1CFD9FF3F
:1015C000070EE126FE0EDB50210DF3CFE9FFF4CF2D
:1015D000EAFF170EE926020EEA221E0EE926000E89
:1015E000EA22EF5033E0FE0EDB50210DF3CFE9FF8E
:1015F000F4CFEAFF170EE926020EEA22E9CF14F033
:10160000EACF15F014C0E6FF15C0E6FF050EDBCFEC
:10161000E6FF060EDBCFE6FFFBEC27F0E552E552D6
:10162000E552E552000912E1FE0EDB50210DF3CF29
:10163000E9FFF4CFEAFF170EE926020EEA221F0E99
:10164000E926000EEA22EF0401E186D1FE0EDB500E
:10165000210DF3CFE9FFF4CFEAFF170EE926020EC2
:10166000EA22E9CF14F0EACF15F0050E14C0DBFF33
:10167000060E15C0DBFF02010051030A01E190D004
:10168000020A01E048D1050EDBCFE6FF060EDBCFF4
:10169000E6FFF1EC11F0E552E552E76E020EE7CFFE
:1016A000DBFF020EDB50FF0801E179D0050EDBCF36
:1016B000E6FF060EDBCFE6FF79EC11F0E552E552CE
:1016C0001C0EE66EE66AE66A020EDB50210DF3CFD1
:1016D000E9FFF4CFEAFF170EE926020EEA22E9CF6E
:1016E00014F0EACF15F014C0E6FF15C0E6FFE1ECF8
:1016F00027F0166E050EE15E16500400020EDB5058
:10170000210DF3CF14F0F4CF15F0170E1426020EAE
:101710001522030E14C0DBFF040E15C0DBFF010E03
:10172000DB6A210EF36E010EDBCFF4FFF350F45CA5
:1017300025E2010EDB50E76E030EDBCFE9FF040E5E
:10174000DBCFEAFFE750E926000EEA22EF50E66E13
:10175000010EDBCFE6FF020EDB50210DF350E55208
:10176000E724E66EE66A46EC29F0E552E552E552DA
:1017700001EC2BF00400010EDB2AD3D7020101514A
:101780000DE10201006BE66AE66AE66A010EE66EAA
:10179000D1EC11F0E552E552E552E552DDD0BCD076
:1017A000050EDBCFE6FF060EDBCFE6FFF1EC11F016
:1017B000E552E552E76E020EE7CFDBFF020EDB508B
:1017C000FF0801E1A7D0050EDBCFE6FF060EDBCF59
:1017D000E6FF79EC11F0E552E5521C0EE66EE66A82
:1017E000E66A020EDB50210DF3CFE9FFF4CFEAFFEA
:1017F000170EE926020EEA22E9CF14F0EACF15F01F
:1018000014C0E6FF15C0E6FFE1EC27F0166E050EEA
:10181000E15E16500400020EDB50210DF3CF14F0F0
:10182000F4CF15F0170E1426020E1522030E14C065
:10183000DBFF040E15C0DBFF010EDB6A210EF36E29
:10184000010EDBCFF4FFF350F45C25E2010EDB5018
:10185000E76E030EDBCFE9FF040EDBCFEAFFE750B4
:10186000E926000EEA22EF50E66E010EDBCFE6FF1E
:10187000020EDB50210DF350E552E724E66EE66AD6
:1018800046EC29F0E552E552E55201EC2BF004005C
:10189000010EDB2AD3D70201025120E102010151DE
:1018A0000EE10201006BE66AE66AE66A010EE66E88
:1018B000D1EC11F0E552E552E552E5520ED00201AD
:1018C000010E006FE66AE66A010EE66EE66AD1EC8A
:1018D00011F0E552E552E552E5521BD002010151EB
:1018E0000CE1E66A010EE66EE66AE66AD1EC11F0FA
:1018F000E552E552E552E5520CD0E66A010EE66E7D
:10190000010EE66EE66AD1EC11F0E552E552E552C1
:10191000E55222D001D000D0DF6ADF50146E156A84
:10192000D890155004E6140E145C000E155814E2FD
:10193000DF50210DF3CFE9FFF4CFEAFF170EE926C0
:10194000020EEA221F0EE926000EEA22EF0402E14F
:10195000898002D0DF2AE1D7070EE15C02E2E16A6A
:10196000E552E16EE552E7CFD9FF1200D9CFE6FF8D
:10197000E1CFD9FF220EE126050EDB6AD950060F12
:10198000E96EDACFEAFFEE6AEE6AEE6AEE6AEE6AB6
:10199000EE6AEE6AEE6AEE6AEE6AEE6AEE6AEE6A87
:1019A000EE6AEE6AEE6AEE6AEE6AEE6AEE6AEE6A77
:1019B000EE6AEE6AEE6AEE6AEE6AEE6ADF6ADF509F
:1019C000146E156AD890155004E6140E145C000EBF
:1019D000155833E2DF50210DF3CFE9FFF4CFEAFFD2
:1019E000170EE926020EEA221E0EE926000EEA2252
:1019F000EF5021E0DF50210DF3CFE9FFF4CFEAFFF4
:101A0000170EE926020EEA22E9CF14F0EACF15F00C
:101A100014C0E6FF15C0E6FFFD0EDBCFE6FFFE0EAD
:101A2000DBCFE6FFFBEC27F0E552E552E552E5524D
:101A3000000901E1A7D1DF2AC2D7DF6ADF50146EA7
:101A4000156AD890155004E6140E145C000E155853
:101A500001E392D1DF50210DF3CFE9FFF4CFEAFF8C
:101A6000170EE926020EEA221E0EE926000EEA22D1
:101A7000EF5001E07FD1DF50210DF3CFE9FFF4CF2C
:101A8000EAFF170EE926020EEA221E0EE926000ED4
:101A9000EA22010EEF6E060EF66E000EF76E0900DA
:101AA000F5CF14F00800F5CF15F0DF50210DF3CF7E
:101AB000E9FFF4CFEAFF170EE926020EEA221C0E18
:101AC000E926000EEA2214C0EEFF15C0EDFFDF503C
:101AD000210DF3CFE9FFF4CFEAFF170EE926020E3E
:101AE000EA221F0EE926000EEA22010EEF6EDF50F9
:101AF000210DF3CFE9FFF4CFEAFF170EE926020E1E
:101B0000EA22200EE926000EEA22FC0EDBCFEFFFD0
:101B1000FD0EDBCFE6FFFE0EDBCFE6FFDF50210D33
:101B2000F3CFE9FFF4CFEAFF170EE926020EEA220F
:101B3000E9CF14F0EACF15F014C0E6FF15C0E6FFB8
:101B40001BEC28F0E552E552E552E552DF50210D3D
:101B5000F3CF14F0F4CF15F0170E1426020E152251
:101B6000030E14C0DBFF040E15C0DBFF010EDB6AA1
:101B7000210EF36E010EDBCFF4FFF350F45C24E290
:101B8000010EDB50E76E030EDBCFE9FF040EDBCF67
:101B9000EAFFE750E926000EEA22EF50E66E010E5A
:101BA000DBCFE6FF210EDF02F350E552E724E66EBD
:101BB000E66A46EC29F0E552E552E55201EC2BF0DD
:101BC0000400010EDB2AD4D70201012B02010251CD
:101BD0000CE1010EE66EE66A010EE66EE66AE1DBF6
:101BE000E552E552E552E5520CD0010EE66E010ECB
:101BF000E66E010EE66EE66AD4DBE552E552E5528A
:101C0000E552DF50210DF3CFE9FFF4CFEAFF170EC5
:101C1000E926020EEA22200EE926000EEA22EF5003
:101C200001E09ED0210EDB6ADF50210DF3CFE9FFEA
:101C3000F4CFEAFF170EE926020EEA22E9CF14F0EC
:101C4000EACF15F0210EDB500F011424E96E000ECF
:101C50001520EA6EEF502BE0DF50210DF3CFE9FFA6
:101C6000F4CFEAFF170EE926020EEA22E9CF16F0BA
:101C7000EACF17F0210EDB500F011624E96E000E9B
:101C80001720EA6EEF50E66ED950050F146EDACFCA
:101C900015F0210EDB500F011424E96E000E152003
:101CA000EA6EE552E750EF6E210EDB2ABDD7D95020
:101CB000050F166EDACF17F0210EDB500F01162438
:101CC000E96E000E1720EA6E300EEF6EDF50210D28
:101CD000F3CFE9FFF4CFEAFF170EE926020EEA225E
:101CE000E9CF14F0EACF15F0210EDB500F011424D8
:101CF000E96E000E1520EA6E300EEF6E210EDB2A23
:101D0000D950050F166EDACF17F0210EDB500F01F8
:101D10001624E96E000E1720EA6EEF6ADF50210DDF
:101D2000F3CFE9FFF4CFEAFF170EE926020EEA220D
:101D3000E9CF14F0EACF15F0210EDB500F01142487
:101D4000E96E000E1520EA6E000EEF6ED950050FF9
:101D5000E66E000EDA20E66ECCDAE552E55209D0E6
:101D6000FD0EDBCFE6FFFE0EDBCFE6FFC2DAE5526B
:101D7000E55202D0DF2A62D60201025103E10201DC
:101D8000010E006F220EE15C02E2E16AE552E16EB3
:101D9000E552E7CFD9FF1200D9CFE6FFE1CFD9FF57
:101DA000050EE126020EE76EFD0EDBCFE9FFFE0E0B
:101DB000DBCFEAFFE750E926000EEA22EF503008B9
:101DC0000AE1FD0EDBCFE6FFFE0EDBCFE6FF91DA88
:101DD000E552E552A2D1DF6ADF50146E156AD89041
:101DE000155004E6140E145C000E155843E2DF5043
:101DF000210DF3CFE9FFF4CFEAFF170EE926020E1B
:101E0000EA221E0EE926000EEA22EF5031E0DF50F2
:101E1000210DF3CFE9FFF4CFEAFF170EE926020EFA
:101E2000EA22E9CF14F0EACF15F014C0E6FF15C09E
:101E3000E6FFFD0EDBCFE6FFFE0EDBCFE6FFFBECA1
:101E400027F0E552E552E552E552000911E1DF5075
:101E5000210DF3CFE9FFF4CFEAFF170EE926020EBA
:101E6000EA221F0EE926000EEA22EF0401E155D115
:101E7000DF2AB2D702010051030A01E192D0020A1F
:101E800001E04AD1DF6ADF50146E156AD890155010
:101E900004E6140E145C000E155801E381D0FD0E0B
:101EA000DBCFE6FFFE0EDBCFE6FF9BDAE552E55225
:101EB000E76E020EE7CFDBFF020EDB50FF086EE09D
:101EC0001C0EE66EE66AE66A020EDB50210DF3CFC9
:101ED000E9FFF4CFEAFF170EE926020EEA22E9CF66
:101EE00014F0EACF15F014C0E6FF15C0E6FFE1ECF0
:101EF00027F0166E050EE15E16500400020EDB5050
:101F0000210DF3CF14F0F4CF15F0170E1426020EA6
:101F10001522030E14C0DBFF040E15C0DBFF010EFB
:101F2000DB6A210EF36E010EDBCFF4FFF350F45C9D
:101F300025E2010EDB50E76E030EDBCFE9FF040E56
:101F4000DBCFEAFFE750E926000EEA22EF50E66E0B
:101F5000010EDBCFE6FF020EDB50210DF350E55200
:101F6000E724E66EE66A46EC29F0E552E552E552D2
:101F700001EC2BF00400010EDB2AD3D70201015142
:101F80000CE10201006BE66AE66AE66A010EE66EA3
:101F900008DAE552E552E552E552BFD0DF2A73D7A1
:101FA000BCD0DF6ADF50146E156AD890155004E675
:101FB000140E145C000E155801E3ADD0FD0EDBCFFE
:101FC000E6FFFE0EDBCFE6FF0CDAE552E552E76EE8
:101FD000020EE7CFDBFF020EDB50FF0801E199D0D4
:101FE0001C0EE66EE66AE66A020EDB50210DF3CFA8
:101FF000E9FFF4CFEAFF170EE926020EEA22E9CF45
:1020000014F0EACF15F014C0E6FF15C0E6FFE1ECCE
:1020100027F0166E050EE15E16500400020EDB502E
:10202000210DF3CF14F0F4CF15F0170E1426020E85
:102030001522030E14C0DBFF040E15C0DBFF010EDA
:10204000DB6A210EF36E010EDBCFF4FFF350F45C7C
:1020500025E2010EDB50E76E030EDBCFE9FF040E35
:10206000DBCFEAFFE750E926000EEA22EF50E66EEA
:10207000010EDBCFE6FF020EDB50210DF350E552DF
:10208000E724E66EE66A46EC29F0E552E552E552B1
:1020900001EC2BF00400010EDB2AD3D70201025120
:1020A0001EE1020101510DE10201006BE66AE66AE0
:1020B000E66A010EE66E75D9E552E552E552E55243
:1020C0000DD00201010E006FE66AE66A010EE66EAF
:1020D000E66A67D9E552E552E552E55219D00201A8
:1020E00001510BE1E66A010EE66EE66AE66A59D92D
:1020F000E552E552E552E5520BD0E66A010EE66E76
:10210000010EE66EE66A4DD9E552E552E552E5521A
:1021100004D0DF2A47D701D000D0050EE15C02E2EF
:10212000E16AE552E16EE552E7CFD9FF1200D9CF5F
:10213000E6FFE1CFD9FF020EE12607010451035D5E
:102140000BE1FD0EDBCFE9FFFE0EDBCFEAFFEE6A0F
:10215000ED6A010EDB6A37D003511C0DF3CF14F08A
:10216000F4CF15F0050E1426070E1522FD0EDBCF59
:10217000E9FFFE0EDBCFEAFF14C0EEFF15C0EDFF56
:1021800003511C0DF3CF14F0F4CF15F0050E1426F7
:10219000070E152214C0E6FF15C0E6FF55EC28F027
:1021A000E552E552010EF3CFDBFF0701032B03518C
:1021B000146E156AD890155004E6100E145C000ECB
:1021C000155801E3036B010EDB50146E020EE15C47
:1021D00003E200D0E16AE552E16E1450E552E7CF28
:1021E000D9FF1200D9CFE6FFE1CFD9FF07010005E3
:1021F00002E1000E0AD0010E006FFE0EDBCF02F7E7
:10220000FD0EDBCF01F7010E00D0E552E7CFD9FF7D
:102210001200D9CFE6FFE1CFD9FFE652FE0EDB5028
:10222000210DF3CFE9FFF4CFEAFF170EE926020EE6
:10223000EA221F0EE926000EEA22EF6AFE0EDB50AC
:10224000210DF3CFE9FFF4CFEAFF170EE926020EC6
:10225000EA22E9CF14F0EACF15F014C0E6FF15C06A
:10226000E6FF47D8E552E552FE0EDB50210DF3CFD5
:10227000E9FFF4CFEAFF170EE926020EEA221F0E4D
:10228000E926000EEA22EF50E66EFE0EDB50210D2D
:10229000F3501F0FE66EE66A46EC29F0E552E55270
:1022A000E55201EC2BF00400DF6ADF50146E156A72
:1022B000D890155004E6140E145C000E155813E265
:1022C000DF50210DF3CFE9FFF4CFEAFF170EE92627
:1022D000020EEA221F0EE926000EEA22EF0401E1B7
:1022E00003D0DF2AE2D78990E552E552E7CFD9FF44
:1022F0001200D9CFE6FFE1CFD9FFE652DF6AFD0E2B
:10230000DBCFE9FFFE0EDBCFEAFFEF5024E0FD0E4E
:10231000DBCFE9FFFE0EDBCFEAFFEF50E66E0701F1
:1023200004511C0DF3CF14F0F4CF15F0050E142654
:10233000070E1522DF500F011424E96E000E152040
:10234000EA6EE552E750EF6EDF2AFD0EDB2AFE0E45
:1023500001E3DB2AD4D7070104511C0DF3CF14F09D
:10236000F4CF15F0050E1426070E1522DF500F01CD
:102370001424E96E000E1520EA6EEF6A0701042BA3
:102380000451146E156AD890155004E6100E145CB2
:10239000000E155801E3046BE552E552E7CFD9FF73
:1023A0001200D9CFE6FFE1CFD9FFFE0EDB50E8B037
:1023B0008986E8A08996FD0EDB50E8B08984E8A004
:1023C0008994FC0EDB50E8B08982E8A08992FB0E6C
:1023D000DB50E8B08980E8A08990E552E7CFD9FFCB
:1023E0001200D9CFE6FFE1CFD9FF040EE126DF6A64
:1023F000DF50146E156AD890155004E6140E145C64
:10240000000E155801E399D0DF50210DF3CFE9FFFD
:10241000F4CFEAFF170EE926020EEA221E0EE92685
:10242000000EEA22EF5001E186D0DF50210DF3CFFC
:10243000E9FFF4CFEAFF170EE926020EEA221F0E8B
:10244000E926000EEA22EF0476E0DF50210DF3CFFB
:10245000E9FFF4CFEAFF170EE926020EEA22E9CFE0
:1024600014F0EACF15F014C0E6FF15C0E6FFFD0E2C
:10247000DBCFE6FFFE0EDBCFE6FFFBEC27F0E552FD
:10248000E552E552E552000956E1DF50210DF3CF48
:10249000E9FFF4CFEAFF170EE926020EEA221E0E2C
:1024A000E926000EEA22EF0403E10201010713D03E
:1024B000DF50210DF3CFE9FFF4CFEAFF170EE92635
:1024C000020EEA221E0EE926000EEA22EF50030851
:1024D00002E102010207DF50210DF3CFE9FFF4CF43
:1024E000EAFF170EE926020EEA221E0EE926000E6A
:1024F000EA22EF6ADF50210DF3CFE9FFF4CFEAFFC4
:10250000170EE926020EEA221C0EE926000EEA2228
:10251000EE6AED6ADF50210DF3CFE9FFF4CFEAFF59
:10252000170EE926020EEA221F0EE926000EEA2205
:10253000EF6ADF5004D0DF2A5BD7FF0E00D0146EA5
:10254000040EE15C02E2E16AE552E16E1450E552EC
:10255000E7CFD9FF1200D9CFE6FFE1CFD9FF020EB6
:10256000E126010EDB6ADF6ADF50146E156AD8902F
:10257000155004E6140E145C000E15585BE2DF5093
:10258000210DF3CFE9FFF4CFEAFF170EE926020E83
:10259000EA221E0EE926000EEA22EF0449E1DF508E
:1025A000210DF3CFE9FFF4CFEAFF170EE926020E63
:1025B000EA221C0EE926000EEA22EE50ED1038E168
:1025C0000201022B02010107DF50210DF3CFE9FFC9
:1025D000F4CFEAFF170EE926020EEA221E0EE926C4
:1025E000000EEA22030EEF6EDF50210DF3CFE9FF5C
:1025F000F4CFEAFF170EE926020EEA221E0EE926A4
:10260000000EEA22EF50E66E210EDF02F3501E0F9D
:10261000E66EE66A46EC29F0E552E552E55201EC39
:102620002BF004000201030E006FDE52010EDD6E7E
:10263000DF2A9AD7010EDB5000D0146E020EE15C47
:1026400002E2E16AE552E16E1450E552E7CFD9FFAC
:102650001200D9CFE6FFE1CFD9FFE652DF6ADF50A3
:10266000146E156AD890155004E6140E145C000E12
:10267000155841E2DF50210DF3CFE9FFF4CFEAFF17
:10268000170EE926020EEA221E0EE926000EEA22A5
:10269000EF502FE0DF50210DF3CFE9FFF4CFEAFF39
:1026A000170EE926020EEA22E9CF14F0EACF15F060
:1026B00014C0E6FF15C0E6FFFD0EDBCFE6FFFE0E01
:1026C000DBCFE6FFFBEC27F0E552E552E552E552A1
:1026D00000090FE1DF50210DF3CFE9FFF4CFEAFF4E
:1026E000170EE926020EEA221F0EE926000EEA2244
:1026F000EF6ADF2AB4D7E552E552E7CFD9FF1200DF
:10270000D9CFE6FFE1CFD9FFFD0EDBCFE6FFFE0E0E
:10271000DBCFE6FF0D0EE66E020EE66EFBEC27F059
:10272000E552E552E552E552000902E0000E02D002
:10273000010E00D0E552E7CFD9FF1200D9CFE6FF56
:10274000E1CFD9FF020EE1260201006B0201016B0D
:102750000201026B0201036B046B056B066B020145
:10276000076B086B096B0A6B0401AC6B0701046B08
:102770000701036BDE6ADD6ADECF14F0DDCF15F0F2
:10278000140E145C000E155870E2DECFE9FFDDCFA9
:10279000EAFF210EEA02F3CFEAFF210EE902F3CFAE
:1027A000E9FFF450EA26170EE926020EEA221E0E71
:1027B000E926000EEA22EF6ADECFE9FFDDCFEAFF6D
:1027C000210EEA02F3CFEAFF210EE902F3CFE9FF7F
:1027D000F450EA26170EE926020EEA221C0EE9261C
:1027E000000EEA22EE6AED6ADECFE9FFDDCFEAFFF6
:1027F000210EEA02F3CFEAFF210EE902F3CFE9FF4F
:10280000F450EA26170EE926020EEA221F0EE926E8
:10281000000EEA22EF6A1C0EE66EE66AE66ADECF7A
:10282000E9FFDDCFEAFF210EEA02F3CFEAFF210E36
:10283000E902F3CFE9FFF450EA26170EE926020E6B
:10284000EA22E9CF14F0EACF15F014C0E6FF15C074
:10285000E6FFE1EC27F0166E050EE15E165004006F
:10286000DF2A010E01E3DB2A87D7DE6ADD6ADECFCD
:1028700014F0DDCF15F0940E145C020E155812E220
:10288000E66ADECFE6FFDDCFE6FF46EC29F0E55253
:10289000E552E55201EC2BF00400DF2A010E01E3C2
:1028A000DB2AE5D70401AB050BE1E66AE66AE66AD6
:1028B000010EE66E76DDE552E552E552E55209D0AD
:1028C000E66AE66AE66AE66A6CDDE552E552E552DA
:1028D000E552020EE15C02E2E16AE552E16EE55288
:1028E000E7CFD9FF1200D9CFE6FFE1CFD9FF030E22
:1028F000E126FD0EDBCFE9FFFE0EDBCFEAFF010E86
:10290000EFCFDBFF020EDB6A010EDB50A00A66E0B0
:10291000010A58E0030A24E0220A0BE0020EDB6AF7
:10292000FB0EDBCFE9FFFC0EDBCFEAFF920EEF6E72
:1029300060D0F90EDBCFE6FFFA0EDBCFE6FF97ECB7
:1029400010F0E552E552E76E020EE7CFDBFFFB0E1B
:10295000DBCFE9FFFC0EDBCFEAFF800EEF6E49D044
:10296000010EE76EFD0EDBCF14F0FE0EDBCF15F08F
:10297000E7501426000E152214C0E6FF15C0E6FF2E
:1029800068DEE552E552010EE76EFD0EDBCF14F076
:10299000FE0EDBCF15F0E7501426000E152214C0F2
:1029A000E6FF15C0E6FFCCEC0EF0E552E552FB0E5B
:1029B000DBCFE9FFFC0EDBCFEAFFA20EEF6E020ECB
:1029C000DB6A17D0BBDEFB0EDBCFE9FFFC0EDBCFF3
:1029D000EAFFA10EEF6E020EDB6A0BD0020EDB6A7D
:1029E000FB0EDBCFE9FFFC0EDBCFEAFFA00EEF6EA4
:1029F00000D0020EDB50146E030EE15C03E200D047
:102A0000E16AE552E16E1450E552E7CFD9FF1200BA
:082A10000401AB5100D01200DB
:082A1800D9CFE6FFE1CFD9FFA1
:102A2000040EE1260101300E466F080EE66ED7EC6B
:102A300021F0E55207EC1EF01AEC1EF0DF6ADF50C1
:102A4000146E156A153404E214500908000E15546A
:102A500071E3100EDF02F350156A000F146E030EBF
:102A6000152214C0E6FF15C0E6FFBBEC29F0E552C5
:102A7000E552E76E020EE7CFDBFF01EC2BF0020E12
:102A8000DB5056E0010EDB6A020EDB50E76E030EF0
:102A9000E7CFDBFF030EDB5036E0DF28100DF3CF6E
:102AA00014F0F4CF15F01C0E14260B0E1522010E97
:102AB000DB500F011424E96E000E1520EA6E030EA0
:102AC000DBCFEFFF010EDB2A100EDF02F350176A97
:102AD000000F166E030E1722010EDB5000011624A4
:102AE000146E000E1720156E14C0E6FF15C0E6FF29
:102AF000BBEC29F0E552E552E76E030EE7CFDBFFB2
:102B000001EC2BF0C7D7DF28100DF3CF14F0F4CF72
:102B100015F01C0E14260B0E1522010EDB500F01B2
:102B20001424E96E000E1520EA6EEF6A0101462BAF
:102B3000DF2A85D708EC15F001080EE1020EE66EDB
:102B400059EC1EF0E5520101030E006F0F0EE66E08
:102B5000C6EC20F0E5520BD00101006BE66A59EC9F
:102B60001EF0E5520C0EE66EC6EC20F0E552040EA7
:102B7000E15C02E2E16AE552E16EE552E7CFD9FF9E
:102B80001200D9CFE6FFE1CFD9FF1E0EE126DF68A4
:102B9000D950050FE96EDACFEAFF4D0EEE6E410E09
:102BA000EE6E540EEE6E450EEE6E520EEE6E490E49
:102BB000EE6E410EEE6E4C0EEE6EEE6AD9500E0FBA
:102BC000E96EDACFEAFF530EEE6E410EEE6E460E60
:102BD000EE6E450EEE6E540EEE6E590EEE6EEE6A11
:102BE000D950020FE66E000EDA20E66ED950030FC0
:102BF000E66E000EDA20E66E53EC26F0E552E55262
:102C0000E552E552000902E18FEF1BF0020EDBCF27
:102C1000E6FF030EDBCFE6FF99EC1BF0E552E55231
:102C2000DF6EFF0EDF5C02E18FEF1BF00101005150
:102C30000A0A02E175EF1BF0030A02E1B2EF1AF093
:102C4000010A02E197EF1AF0040A02E15EEF1AF0BE
:102C50000B0A01E1F8D3020A01E117D3030A01E1EB
:102C600095D20D0A01E109D20F0A01E1C6D1070A86
:102C700001E1F0D0010A01E199D0030A38E0010A2C
:102C800002E08FEF1BF00B0EDF5C2FE1010EE66E12
:102C900059EC1EF0E55207EC1EF01AEC1EF000C1D4
:102CA00001F101014551452BEA6A250FE96E010E3C
:102CB000EA22390EEF6E4551452BEA6A250FE96E7F
:102CC000010EEA22390EEF6E4551452BEA6A250FB7
:102CD000E96E010EEA22300EEF6E010E006F016BFD
:102CE0000F0EE66EC6EC20F0E5528FEF1BF0080EDB
:102CF000DF5C21E1225100080CE2DFCFE6FFE9ECC6
:102D000021F0E552010122074551020801E2450781
:102D100011D001510FE1E66A59EC1EF0E55207ECC3
:102D20001EF01AEC1EF00C0EE66EC6EC20F0E5521A
:102D300001C100F139D00A0EDF5C18E12251000810
:102D400014E2060EE66E59EC1EF0E55207EC1EF09A
:102D500001014551452BEA6A250FE96E010EEA2271
:102D6000EF6A010E016F090E006F1ED02251EA6A50
:102D7000020FE96E010EEA22DFCFEFFF2251EA6A6D
:102D8000020FE96E010EEA22EF50E66EE9EC21F047
:102D9000E55201014551452BEA6A250FE96E010E06
:102DA000EA22DFCFEFFF222B8FEF1BF0080EDF5C54
:102DB0001EE1225100080CE2DFCFE6FFE9EC21F032
:102DC000E552010122074551020801E245070ED0F4
:102DD000030E015D0BE1020EE66E59EC1EF0E552AA
:102DE00007EC1EF01AEC1EF001C100F131D00A0E02
:102DF000DF5C10E1225100080CE2060EE66E59EC91
:102E00001EF0E55207EC1EF00101020E016F090EE3
:102E1000006F1ED02251EA6A020FE96E010EEA220B
:102E2000DFCFEFFF2251EA6A020FE96E010EEA22BC
:102E3000EF50E66EE9EC21F0E55201014551452BDA
:102E4000EA6A250FE96E010EEA22DFCFEFFF222B9F
:102E50008FEF1BF0080EDF5C0FE1225100080BE240
:102E6000DFCFE6FFE9EC21F0E552010122074551F1
:102E7000000801E24507C0D02A0EDF5C0FE1060E14
:102E8000E66E59EC1EF0E55207EC1EF01AEC1EF04F
:102E90000101030E016F090E006FAED0300EDF5C32
:102EA00035E12251000816E22251EA6A020FE96E6A
:102EB000010EEA22DFCFEFFF2251EA6A020FE96E2C
:102EC000010EEA22EF50E66EE9EC21F0E552010135
:102ED000222B1BD0680EE66E010EE66E66EC07F044
:102EE000E552E552FF0E0101885D0FE0680EE66EC7
:102EF000010EE66E2BEC1EF0E552E55207EC1EF0DB
:102F00001AEC1EF001010C0E006F76D00B0EDF5C88
:102F10001CE1470EE66E010EE66E06EC04F0E5528B
:102F2000E552FF0E0101675D0FE0470EE66E010EF0
:102F3000E66E2BEC1EF0E552E55207EC1EF01AECA3
:102F40001EF00101070E006F57D00C0EDF5C2CE164
:102F5000225129E1010EE66E59EC1EF0E55207EC14
:102F60001EF01AEC1EF001014551452BEA6A250FAF
:102F7000E96E010EEA22390EEF6E4551452BEA6AE1
:102F8000250FE96E010EEA22390EEF6E4551452BF1
:102F9000EA6A250FE96E010EEA22300EEF6E00C1DB
:102FA00001F1020E006F28D00A0EDF5C10E1225101
:102FB00000080CE2030EE66E59EC1EF0E5528EECB2
:102FC0001DF007EC1EF00101040E006F15D0225118
:102FD000EA6A020FE96E010EEA22DFCFEFFF22510B
:102FE000EA6A020FE96E010EEA22EF50E66EE9ECA2
:102FF00021F0E5520101222B92D3080EDF5C0DE196
:10300000020EE66E59EC1EF0E55207EC1EF01AECCB
:103010001EF00101030E006F2FD0DE52010EDD6E97
:10302000DB50146E156A153404E214500908000EC2
:10303000155422E3010EDB50300F146EDF50145C88
:1030400018E1010EDBCFE6FFF1EC1EF0E552010EB8
:10305000DB50300FE66E01014551EA6A250FE96E3B
:10306000010EEA22E552E750EF6E452B0B0E006F82
:1030700003D0010EDB2AD4D752D3080EDF5C0DE15A
:10308000030EE66E59EC1EF0E55207EC1EF001014E
:10309000040E006F020E456F78D00A0EDF5C75E1FA
:1030A000D950050FE66E000EDA20E66E4505EA6A95
:1030B000250FE96E010EEA22EF50D00F100DF3CF6D
:1030C00014F0F4CF15F01C0E14260B0E152214C0AC
:1030D000E6FF15C0E6FFFBEC27F0E552E552E552AE
:1030E000E55200090BE1040EE66E59EC1EF0E552C4
:1030F00007EC1EF00101050E006F47D0D9500E0FEE
:10310000E66E000EDA20E66E01014505EA6A250F3B
:10311000E96E010EEA22EF50D00F100DF3CF14F03C
:10312000F4CF15F01C0E14260B0E152214C0E6FF6A
:1031300015C0E6FFFBEC27F0E552E552E552E552FB
:1031400000090BE1050EE66E59EC1EF0E55207ECA6
:103150001EF00101060E006F18D0D8EC1DF0E66AD3
:10316000250EE66E010EE66EB6EC0CF0E552E55269
:10317000E552020EE66E59EC1EF0E55207EC1EF029
:103180001AEC1EF00101030E006FC9D2080EDF5CBD
:103190000DE1030EE66E59EC1EF0E55207EC1EF051
:1031A0000101020E456F040E006F6ED00A0EDF5C47
:1031B0001DE12251000819E2D8EC1DF0020EE66E66
:1031C000250EE66E010EE66EB6EC0CF0E552E55209
:1031D000E552020EE66E59EC1EF0E55207EC1EF0C9
:1031E0001AEC1EF00101030E006F4ED0DF50340ABE
:1031F0003AE0070A27E0010A14E0030A01E044D09C
:10320000010EE66E34EC1FF0E55201014551EA6A09
:10321000250FE96E010EEA22310EEF6E452B222BAF
:1032200033D0020EE66E34EC1FF0E5520101455139
:10323000EA6A250FE96E010EEA22320EEF6E452B87
:10324000222B22D0030EE66E34EC1FF0E552010172
:103250004551EA6A250FE96E010EEA22330EEF6E40
:10326000452B222B11D0040EE66E34EC1FF0E552F4
:1032700001014551EA6A250FE96E010EEA22340E7A
:10328000EF6E452B222B00D04AD2080EDF5C18E1EE
:103290002251000808E2DFCFE6FFE9EC21F0E55219
:1032A000010122070CD0030EE66E59EC1EF0E55228
:1032B00007EC1EF00101040E006F020E456FC2D034
:1032C0000A0EDF5C1DE12251000819E2D8EC1DF066
:1032D000010EE66E250EE66E010EE66EB6EC0CF003
:1032E000E552E552E552020EE66E59EC1EF0E5524B
:1032F00007EC1EF01AEC1EF00101030E006FA2D0C5
:10330000030EDB50235D6DE1280EF36E020EDBCF62
:10331000F4FFF350F45C36E222072251EA6A020F0E
:10332000E96E010EEA22DFCFEFFF080EE66EE9EC50
:1033300021F0E55201012251EA6A020FE96E010E05
:10334000EA22EF50E66EE9EC21F0E552140EF36E3E
:10335000150EF3CFDBFF160EDB6A150EDBCF14F074
:10336000DB06160EDBCF15F001E2DB06145015105C
:1033700006E0040EE66EBFEC2AF0E552EED701013E
:10338000222B2ED02251EA6A020FE96E010EEA22A8
:10339000DFCFEFFF2251EA6A020FE96E010EEA2247
:1033A000EF50E66EE9EC21F0E552140EF36E170EC5
:1033B000F3CFDBFF180EDB6A170EDBCF14F0DB0652
:1033C000180EDBCF15F001E2DB061450151006E0F5
:1033D000040EE66EBFEC2AF0E552EED70101222B77
:1033E0002ED02251EA6A020FE96E010EEA22DFCFE7
:1033F000EFFF2251EA6A020FE96E010EEA22EF5056
:10340000E66EE9EC21F0E552140EF36E190EF3CFDF
:10341000DBFF1A0EDB6A190EDBCF14F0DB061A0E87
:10342000DBCF15F001E2DB061450151006E0040EA8
:10343000E66EBFEC2AF0E552EED70101222B030E17
:10344000DBCF23F16CD10B0EDF5C15E1470EE66E8E
:10345000010EE66E06EC04F0E552E552FF0E0101A6
:10346000675D08E0470EE66E010EE66E2BEC1EF07F
:10347000E552E55222D0080EDF5C0BE1020EE66E4B
:1034800059EC1EF0E552C3DBD5DB0101030E006FE2
:1034900014D00A0EDF5C11E167C1E6FF09EC11F000
:1034A000E55201016769020EE66E59EC1EF0E55225
:1034B000AEDBC0DB0101030E006F31D1080EDF5C13
:1034C0000BE1020EE66E59EC1EF0E552A0DBB2DB1A
:1034D0000101030E006F2AD0300EDF5C14E1680E8C
:1034E000E66E010EE66E66EC07F0E552E552FF0E61
:1034F0000101885D07E0680EE66E010EE66EABDB4B
:10350000E552E55213D00A0EDF5C10E188C1E6FFF8
:10351000DCEC0AF0E55201018869020EE66EC9DBB7
:10352000E55275DB87DB0101030E006FF8D0080E52
:10353000DF5C09E1020EE66EBCDBE55268DB0101EF
:10354000030E006F0ED00A0EDF5C0BE19EEC13F051
:103550005EDB70DB020EE66EACDBE5520101030EB2
:10356000006FDDD0080EDF5C1FE101050DE1E66AAA
:10357000A0DBE5524CDB5EDB0101006B0C0EE66E5E
:10358000C6EC20F0E5520FD0020E015D03E0030E01
:10359000015D09E1020EE66E8CDBE55238DB4ADBA9
:1035A0000101030E006FA0D00A0EDF5C01E08DD098
:1035B0002251EA6A020FE96E010EEA22EF6A010562
:1035C0002DE11B0EDB6A250EE66E010EE66E020E85
:1035D000E66E010EE66E14EC02F0E552E552E5529D
:1035E000E552E76E1B0EE7CFDBFFDB040FE1020EB7
:1035F000E66E5FDBE5520BDB1DDB0F0EE66EC6EC05
:1036000020F0E5520101030E006F07D0E66A51DB9E
:10361000E552FDDA0FDB0101006B56D0020E015DB1
:103620002DE11C0EDB6A250EE66E010EE66E020E23
:10363000E66E010EE66EB5EC02F0E552E552E5529B
:10364000E552E76E1C0EE7CFDBFFDB040DE1E66A17
:1036500030DBE552DCDAEEDA0C0EE66EC6EC20F07A
:10366000E5520101006B09D0020EE66E22DBE55245
:10367000CEDAE0DA0101030E006F26D0030E015D01
:1036800023E11D0EDB6A020EE66E010EE66E80EC93
:1036900013F0E552E552E76E1D0EE7CFDBFFDB04CA
:1036A0000AE1070EE66E05DBE552B1DAC3DA010185
:1036B0000A0E006F09D0020EE66EFBDAE552A7DAB9
:1036C000B9DA0101030E006F0FD02251EA6A020F2E
:1036D000E96E010EEA22DFCFEFFF2A0EE66EE9EC7B
:1036E00021F0E5520101222B1AD0080EDF5C0AE11D
:1036F000020EE66EDEDAE5528ADA9CDA0101030E8A
:10370000006F0CD0300EDF5C09E1080EE66ED1DAF6
:10371000E5527DDA8FDA0101080E006F00D01E0E2F
:10372000E15C02E2E16AE552E16EE552E7CFD9FFE2
:103730001200D9CFE6FFE1CFD9FFE652DF680101E1
:1037400000510A0A01E1AAD1020A01E188D1010A65
:1037500001E176D10F0A01E146D10A0A01E12AD13D
:103760000B0A01E10AD1020A01E1D5D00E0A01E1FA
:10377000BCD00F0A01E19FD0070A76E0010A40E0C1
:10378000030A0AE0010A01E0ABD1FE0EDB500E088D
:1037900002E10E0EDF6EA4D1FE0EDB50235D10E1C0
:1037A000280EF36EFD0EDBCFF4FFF350F45C06E25F
:1037B000242B040E245D01E1246B01D0246B01D085
:1037C000246BFE0EDB50040DF3CF14F0F4CF15F094
:1037D0001C0E1426540E152224510F011424F66ECB
:1037E000000E1520F76E0800F550DF6EFE0EDB5060
:1037F0000E0804E0FE0EDB500D0801E1DF6870D119
:10380000FE0EDB50235D10E1280EF36EFD0EDBCFC4
:10381000F4FFF350F45C06E2242B040E245D01E176
:10382000246B01D0246B01D0246BFE0EDB50040D01
:10383000F3CF14F0F4CF15F01C0E1426540E1522FD
:1038400024510F011424F66E000E1520F76E0800A7
:10385000F550DF6EFE0EDB500E0804E0FE0EDB506E
:103860000D0801E1DF683CD1FE0EDB500D0803E1DD
:103870000D0EDF6E1FD0FE0EDB500E0803E10E0EA4
:10388000DF6E18D0FE0EDB50040DF3CFF6FFF4CF41
:10389000F7FF1C0EF626540EF7220800F550DF6ED7
:1038A000020E225D07E3080EDF5C04E00A0EDF5C17
:1038B00001E0DF6815D1FE0EDB50040DF3CFF6FFFB
:1038C000F4CFF7FF1C0EF626540EF7220800F55031
:1038D000DF6E4651D880DF5407E2080EDF5C04E05B
:1038E0000A0EDF5C01E0DF68FBD0FE0EDB50040D4A
:1038F000F3CFF6FFF4CFF7FF1C0EF626540EF72297
:103900000800F550DF6E0A0EDF5C04E0080EDF5C95
:1039100001E0DF68E5D0FE0EDB50235D10E1280EEC
:10392000F36EFD0EDBCFF4FFF350F45C06E2242BC4
:10393000040E245D01E1246B01D0246B01D0246BC3
:10394000FE0EDB50040DF3CF14F0F4CF15F01C0E77
:103950001426540E152224510F011424F66E000E65
:103960001520F76E0800F550DF6E0C0EDF5C03E0EB
:103970000B0EDF5C01E1DF68B3D0FE0EDB500D08FB
:1039800003E10D0EDF6E15D0FE0EDB50040DF3CFFC
:10399000F6FFF4CFF7FF1C0EF626540EF7220800B0
:1039A000F550DF6E0A0EDF5C04E0080EDF5C01E01C
:1039B000DF6896D0FE0EDB50040DF3CFF6FFF4CF98
:1039C000F7FF1C0EF626540EF7220800F550DF6EA6
:1039D0000A0EDF5C07E0080EDF5C04E0300EDF5CFF
:1039E00001E0DF687DD0FE0EDB50040DF3CFF6FF63
:1039F000F4CFF7FF1C0EF626540EF7220800F55000
:103A0000DF6E010E225D08E3080EDF5C04E00A0EA3
:103A1000DF5C01E0DF6813D0080EDF5C10E00A0E07
:103A2000DF5C0DE0310EDF5C0AE0320EDF5C07E0A8
:103A3000330EDF5C04E0340EDF5C01E0DF6850D061
:103A4000FE0EDB50040DF3CFF6FFF4CFF7FF1C0E94
:103A5000F626540EF7220800F550DF6E41D0FE0E18
:103A6000DB50040DF3CFF6FFF4CFF7FF1C0EF62664
:103A7000540EF7220800F550DF6EFE0EDB500E08E4
:103A800004E0FE0EDB500D0801E1DF680A0EDF5C8A
:103A900004E0080EDF5C01E0DF6822D0FE0EDB50A0
:103AA000040DF3CFF6FFF4CFF7FF1C0EF626540EED
:103AB000F7220800F550DF6EFE0EDB500E0804E022
:103AC000FE0EDB500D0801E1DF68300EDF5C07E021
:103AD000080EDF5C04E00A0EDF5C01E0DF6800D066
:103AE000DF5000D0E552E552E7CFD9FF1200D9CF21
:103AF000E6FFE1CFD9FFFE0EDB50030A01E00AD05A
:103B0000020EE66ED6D8E55282D894D80101030E93
:103B1000006F00D0E552E7CFD9FF1200D9CFE6FF02
:103B2000E1CFD9FF020EE126010EDB6A0101220579
:103B300013E14551EA6A250FE96E010EEA22300EC3
:103B4000EF6E452B4551EA6A250FE96E010EEA2218
:103B500002C1EFFF452B12D04551EA6A250FE96EED
:103B6000010EEA2202C1EFFF452B4551EA6A250FFB
:103B7000E96E010EEA2203C1EFFF452B300E265DF0
:103B8000146E300E255D0A0DF3501424E76E010EFD
:103B9000E7CFDBFFDB50146E020EE15C03E200D0E6
:103BA000E16AE552E16E1450E552E7CFD9FF120009
:103BB000D9CFE6FFE1CFD9FFE652DF6A01012251FA
:103BC000DF5C14E2DF50EA6A020FE96E010EEA22BE
:103BD000EF50E66E4551EA6A250FE96E010EEA22C2
:103BE000E552E750EF6E452BDF2AE8D74551EA6AE8
:103BF000250FE96E010EEA22EF6A452B1F0E455D87
:103C000001E3456BE552E552E7CFD9FF12001F0EE5
:103C1000E66EE66AE66A020EE66E010EE66EE1EC1C
:103C200027F0146E050EE15E14500101226B246B27
:103C3000236912001F0EE66EE66AE66A250EE66E3E
:103C4000010EE66EE1EC27F0146E050EE15E1450F5
:103C50000101456B1200D9CFE6FFE1CFD9FFE65253
:103C6000E2EC21F0DF6ADF50E76EFD0EDBCFE9FF0B
:103C7000FE0EDBCFEAFFE750E926000EEA22EF5006
:103C800013E0DF50E76EFD0EDBCFE9FFFE0EDBCF6A
:103C9000EAFFE750E926000EEA22EF50E66EE9EC73
:103CA00021F0E552DF2ADFD7E552E552E7CFD9FF11
:103CB0001200D9CFE6FFE1CFD9FF210EE126E2ECD9
:103CC00021F0FE0EEA6ADB34FE0BEA36E96E000EE6
:103CD000E9260B0EEA22EECF14F0EFCF15F0166AAC
:103CE00014C0E6FF15C0E6FF16C0E6FFD950010F6D
:103CF000E66E000EDA20E66E3CEC28F0176E050E3C
:103D0000E15E1750DF6AD950010F146EDACF15F05B
:103D1000DF500F011424E96E000E1520EA6EEF50FB
:103D200012E0D950010F146EDACF15F0DF501424D1
:103D3000E96E000E1520EA6EEF50E66EE9EC21F018
:103D4000E552DF2AE0D7210EE15C02E2E16AE552AA
:103D5000E16EE552E7CFD9FF1200D9CFE6FFE1CF00
:103D6000D9FF030EE126FE0EEA6ADB34FE0BEA36CB
:103D7000E96E000EE9260B0EEA22010EEECFDBFF04
:103D8000020EEDCFDBFFDF6ADF50E76E010EDBCF07
:103D9000F6FF020EDBCFF7FFE750F626000EF72204
:103DA0000800F55014E0DF50E76E010EDBCFF6FFA0
:103DB000020EDBCFF7FFE750F626000EF7220800D1
:103DC000F550E66EE9EC21F0E552DF2ADDD7030E6F
:103DD000E15C02E2E16AE552E16EE552E7CFD9FF2C
:103DE0001200D9CFE6FFE1CFD9FF030EE126FE0E88
:103DF000DB50100DF3CF14F0F4CF15F01C0E142689
:103E00000B0E1522010E14C0DBFF020E15C0DBFFE6
:103E1000DF6ADF50E76E010EDBCFE9FF020EDBCF7A
:103E2000EAFFE750E926000EEA22EF5013E0DF50E8
:103E3000E76E010EDBCFE9FF020EDBCFEAFFE750B2
:103E4000E926000EEA22EF50E66EE9EC21F0E55299
:103E5000DF2ADFD7030EE15C02E2E16AE552E16EA0
:103E6000E552E7CFD9FF1200D9CFE6FFE1CFD9FF66
:103E7000030EE126FE0EEA6ADB34FE0BEA36E96E3B
:103E8000120EE9260B0EEA22010EEECFDBFF020E28
:103E9000EDCFDBFFDF6ADF50E76E010EDBCFF6FF11
:103EA000020EDBCFF7FFE750F626000EF7220800E0
:103EB000F55014E0DF50E76E010EDBCFF6FF020E87
:103EC000DBCFF7FFE750F626000EF7220800F5508B
:103ED000E66EE9EC21F0E552DF2ADDD7030EE15C66
:103EE00002E2E16AE552E16EE552E7CFD9FF120046
:103EF000D9CFE6FFE1CFD9FF040EE126FD0EDBCFDF
:103F0000E9FFFE0EDBCFEAFFEF50D00FFF0FE76EA9
:103F1000030EE7CFDBFF010EDB6A000EDF6EDF284A
:103F2000E76EFD0EDBCFE9FFFE0EDBCFEAFFE750C9
:103F3000E926000EEA22EF502BE0DF28E76EFD0EA7
:103F4000DBCFE9FFFE0EDBCFEAFFE750E926000EEC
:103F5000EA22EF50E66E030EDB50100DF350176AA5
:103F6000000F166E030E1722DF5000011624146E88
:103F7000000E1720156E14C0E6FF15C0E6FF46ECD4
:103F800029F0E552E552E55201EC2BF0DF2AC7D7C4
:103F9000E66A030EDB50100DF350176A000F166E21
:103FA000030E1722DF5000011624146E000E172096
:103FB000156E14C0E6FF15C0E6FF46EC29F0E55289
:103FC000E552E55201EC2BF0030EDB50100DF350DF
:103FD000156A000F146E030E152214C0E6FF15C0FB
:103FE000E6FFBBEC29F0E552E552E76E020EE7CFA3
:103FF000DBFF01EC2BF0020EDB5038E0030EDB2878
:10400000100DF3CF14F0F4CF15F01C0E14260B0E88
:104010001522010EDB500F011424E96E000E15204D
:10402000EA6E020EDBCFEFFF010EDB2A030EDB5040
:10403000100DF350176A000F166E030E1722010EB3
:10404000DB5000011624146E000E1720156E14C0EC
:10405000E6FF15C0E6FFBBEC29F0E552E552E76E3E
:10406000020EE7CFDBFF01EC2BF0C5D7030EDB28F8
:10407000100DF3CF14F0F4CF15F01C0E14260B0E18
:104080001522010EDB500F011424E96E000E1520DD
:10409000EA6EEF6A040EE15C02E2E16AE552E16E6B
:0840A000E552E7CFD9FF120041
:0840A800D9CFE6FFE1CFD9FFFB
:1040B000030EE126300EF36E010EF3CFDBFF750E1B
:1040C000F36E020EF3CFDBFF010EDF6EDF0431E192
:1040D000958E958C958A95889592959495960000E5
:1040E00000008C968C84000000008C820000000090
:1040F0008350800B01E0010EDF6E8C928C820000F9
:1041000000008C92010EDB06020E01E2DB06D950A4
:10411000010FE96EDACFEAFFEE50ED1009E1959E4E
:10412000959C959A9598959295949596FF0E0AD0A0
:10413000CDD7959E959C959A9598959295949596A0
:10414000000E00D0146E030EE15C02E2E16AE5525B
:10415000E16E1450E552E7CFD9FF1200D9CFE6FF48
:10416000E1CFD9FF8C968C940000FE0EDB50F00B53
:10417000146E0F0E8C1414108C6E00008C820000D4
:1041800000008C92E552E7CFD9FF1200D9CFE6FFAD
:10419000E1CFD9FF89DF8C968C940000FE0EDB50B6
:1041A000F00B146E0F0E8C1414108C6E00008C82A9
:1041B000000000008C92FE0EDB38F00BF00B146E4A
:1041C0000F0E8C1414108C6E00008C820000000006
:1041D0008C92E552E7CFD9FF1200D9CFE6FFE1CFAD
:1041E000D9FF62DF8C868C940000FE0EDB50F00B52
:1041F000146E0F0E8C1414108C6E00008C82000054
:1042000000008C92FE0EDB38F00BF00B146E0F0EDC
:104210008C1414108C6E00008C82000000008C92B4
:10422000E552E7CFD9FF1200D9CFE6FFE1CFD9FFA2
:104230000B0EE126959E959C959A9598959295944E
:104240009596280EF36E010EF3CFDBFF020EDB6AAC
:10425000010EDBCF14F0DB06020EDBCF15F001E21E
:10426000DB061450151006E0040EE66EBFEC2AF0D3
:10427000E552EED7300EE66E71DFE5520A0EF36EB0
:10428000030EF3CFDBFF040EDB6A030EDBCF14F06B
:10429000DB06040EDBCF15F001E2DB06145015102F
:1042A00006E0040EE66EBFEC2AF0E552EED7300EC3
:1042B000E66E54DFE5520A0EF36E050EF3CFDBFF18
:1042C000060EDB6A050EDBCF14F0DB06060EDBCF35
:1042D00015F001E2DB061450151006E0040EE66E40
:1042E000BFEC2AF0E552EED7300EE66E37DFE5522E
:1042F0000A0EF36E070EF3CFDBFF080EDB6A070E24
:10430000DBCF14F0DB06080EDBCF15F001E2DB0695
:104310001450151006E0040EE66EBFEC2AF0E552CC
:10432000EED7200EE66E1ADFE5520A0EF36E090E86
:10433000F3CFDBFF0A0EDB6A090EDBCF14F0DB06DE
:104340000A0EDBCF15F001E2DB061450151006E073
:10435000040EE66EBFEC2AF0E552EED7280EE66EAC
:1043600015DFE552A1DEDF6EDF5004E10B01010E27
:10437000C16F03D00B01C16B10D00F0EE66E06DFCC
:10438000E552010EE66E02DFE552040EE66EFEDE39
:10439000E552060EE66EFADEE5520B0EE15C02E235
:1043A000E16AE552E16EE552E7CFD9FF1200D9CFBD
:1043B000E6FFE1CFD9FFFE0EDBCF01FFE552E7CFED
:1043C000D9FF1200010EE66EE1DEE5520F01006B2F
:1043D0001200D9CFE6FFE1CFD9FFE652100E0F0150
:1043E000005D05E1C00EE66ED1DEE55208D0200E7C
:1043F000005D05E3006B020EE66EC8DEE552FE0EC0
:10440000DB500F01015D23E1005101E127D0100EC7
:10441000005D0EE1800EE66EB9DEE552DF6A100E39
:10442000DF5C06E2140EE66EB1DEE552DF2AF7D756
:10443000100EE66EABDEE552200EE66ECEDEE552E5
:10444000100EE66EA3DEE5520F01000707D0FE0E48
:10445000DBCFE6FFC2DEE5520F01002BE552E5524D
:10446000E7CFD9FF1200E0DE010EE66E8FDEE552E7
:104470000F01006B1200D9CFE6FFE1CFD9FFE65262
:10448000010EE66E83DEE552DF6A100EDF5C1CE291
:10449000FD0EDBCFE9FFFE0EDBCFEAFFEF50E66E4D
:1044A000DF50EA6A020FE96E0F0EEA22E552E7508A
:1044B000EF6EFD0EDBCFE9FFDB2AFE0EDBCFEAFF5E
:1044C00001E3DB2ADF2AE1D7C00EE66E5FDEE552AC
:1044D000DF6A100EDF5C1CE2FD0EDBCFE9FFFE0E93
:1044E000DBCFEAFFEF50E66EDF50EA6A020FE96EBB
:1044F0000F0EEA22E552E750EF6EFD0EDBCFE9FF2B
:10450000DB2AFE0EDBCFEAFF01E3DB2ADF2AE1D75D
:0A451000E552E552E7CFD9FF120093
:06451A00D9CFE6FFE1CF5E
:10452000D9FF4DEC25F0FE0EDBCF01FCFD0EDBCFFD
:1045300002FCFC0EDBCF03FCFB0EDBCF04FCF90E10
:10454000DBCF89FCFA0EDBCF8AFC04D8E552E7CF3B
:10455000D9FF12004DEC25F00C01856B866B010E26
:10456000006F876B050E886F8FCC8BFC90CC8CFC1A
:1045700091CC8DFC92CC8EFC00CC93FC1200D9CF58
:10458000E6FFE1CFD9FF060EE126DF6AAFEC27F0A8
:1045900006C08FFC07C090FC08C091FC09C092FCCB
:1045A000ABA207D0AB98040EE66EEDEC2AF0E55214
:1045B000AB888B0EE96E0C0EEA6EEE500C018F1973
:1045C00009E1EE50901906E1EE50911903E1EE5029
:1045D000921900E110E00051935D05E188078851D0
:1045E00002E1B8DFBDD08FCC8BFC90CC8CFC91CCA1
:1045F0008DFC92CC8EFC0051030A01E1ACD0010A83
:1046000015E0030A02E0A6DFA9D0C7EC25F00009F7
:1046100003E0E4EC25F0DF6E0C010151DF5C05E105
:10462000856B020E006F050E886F98D0C7EC25F0E1
:10463000000901E195D0E4EC25F0DF6E0C01025198
:10464000DF5C74E1020EDB6A030EDB68D950030FF6
:10465000E66E000EDA20E66E8DD8E552E552E76E82
:10466000020EE7CFDBFFDB50020A54E0030A05E04D
:10467000010A01E057D06EDF73D00C0189518A1115
:1046800047E0D950040FE66E000EDA20E66E870E82
:10469000E66E0C0EE66E070EE66E0C0EE66E05D0AC
:1046A0008ACCFAFF0C018951F96EFADF146E060EFE
:1046B000E15E14500C01866F040E456F862B87CC8B
:1046C00046FC862BDE52020EDD6E8651F36E010E25
:1046D000DBCFF4FFF350F45C1AE2040EDBCFE9FF0A
:1046E000050EDBCFEAFFEF50E66E010EDB50EA6A03
:1046F000450FE96E0C0EEA22E552E750EF6E040E0C
:10470000DB2A050E01E3DB2A010EDB2ADED701D00E
:1047100021DF08D00C01040E456F862B87CC46FCA8
:10472000862B00D00C01030E006F14D08551852B11
:10473000EA6A050FE96E0C0EEA22DFCFEFFF400EAA
:10474000855D08E3040E456F862B900E466F862B21
:10475000030E006F03D05AD8FDDE00D000CC93FCCE
:10476000060EE15C02E2E16AE552E16EE552E7CF56
:10477000D9FF1200D9CFE6FFE1CFD9FF020EE12623
:104780000C018505EA6A050FE96E0C0EEA22EFCFEF
:10479000DFFF010EDB6A040E055D05E0FA0E055D24
:1047A00002E0000E27D08505E66E050EE66E0C0EC3
:1047B000E66E9FD8E552E552E552E76E010EE7CF6F
:1047C000DBFFDB50DF5C0CE10C0185078551EA6AF9
:1047D000050FE96E0C0EEA22EF6A010E0BD00AD02B
:1047E000FD0EDBCFE9FFFE0EDBCFEAFF910EEF6E91
:1047F000000E00D0146E020EE15C02E2E16AE552A6
:10480000E16E1450E552E7CFD9FF1200D9CFE6FF91
:10481000E1CFD9FF020EE126DF6A010EDB6A86CC0A
:10482000E6FF450EE66E0C0EE66E63D8E552E552E5
:10483000E552DF6E03CCE6FF68EC25F0E552010E91
:10484000DB6A0C018651F36E010EDBCFF4FFF350EF
:10485000F45C0FE2010EDB50EA6A450FE96E0C0EC4
:10486000EA22EF50E66E68EC25F0E552010EDB2AF5
:10487000E8D7DFCFE6FF68EC25F0E55204CCE6FF91
:1048800068EC25F0E55284EC25F00400020EE15CB2
:1048900002E2E16AE552E16EE552E7CFD9FF12008C
:1048A000D9CFE6FFE1CFD9FFFD0EDBCFF6FFFE0E3D
:1048B000DBCFF7FF0800F55016E0FD0EDBCFF6FF6B
:1048C000FE0EDBCFF7FF0800F550E66E68EC25F032
:1048D000E552FD0EDBCFF6FFDB2AFE0EDBCFF7FF46
:1048E00001E3DB2AE1D784EC25F0E552E7CFD9FFDD
:1048F0001200D9CFE6FFE1CFD9FF030EE126DF6A30
:10490000010EDB6AFC0EDB50F36E010EDBCFF4FF11
:10491000F350F45C12E2010EDB50E76EFD0EDBCFCC
:10492000E9FFFE0EDBCFEAFFE750E926000EEA22A0
:10493000EF50DF1A010EDB2AE5D7DF50146E030EAD
:10494000E15C03E200D0E16AE552E16E1450E55209
:06495000E7CFD9FF1200C1
:0A495600DACFE4FFE2CFDAFFE9CF89
:10496000E4FFEACFE4FFF6CFE4FFF7CFE4FFF5CFB3
:10497000E4FFF3CFE4FFF4CFE4FFFACFE4FF00EE6F
:1049800000F0140EE80403E3EECFE4FFFBD700EEE3
:1049900014F00A0EE80403E3EECFE4FFFBD7E6527F
:1049A000D9CFE6FFE1CFD9FFE65252EC2AF0DF6E15
:1049B0000D014351432BEA6A460FE96E0D0EEA22C0
:1049C000DFCFEFFF400E435D01E3436B452B9E9A23
:1049D000E552E552E7CFD9FFE55200EE1DF00A0E91
:1049E000E80403E3E5CFEDFFFBD700EE13F0140E70
:1049F000E80403E3E5CFEDFFFBD7E5CFFAFFE5CF12
:104A0000F4FFE5CFF3FFE5CFF5FFE5CFF7FFE5CF07
:104A1000F6FFE5CFEAFFE5CFE9FFE5CFDAFF1100CA
:104A2000DACFE4FFE2CFDAFFE9CFE4FFEACFE4FF39
:104A3000E652D9CFE6FFE1CFD9FFE6520D01025190
:104A400005E1ACA2FED78290AC9A1BD00151EA6A74
:104A5000030FE96E0D0EEA22EFCFDFFFDF50AD6EE0
:104A6000012B400E015D01E3016B000EE76E0219A0
:104A7000E8AE02D0023503D0E750D880025501E2FB
:104A80000207E552E552E7CFD9FFE552E5CFEAFF4D
:104A9000E5CFE9FFE5CFDAFF1100D9CFE6FFE1CF9F
:104AA000D9FFE6527C0EDF6E0F0EE66EE66ADFCFB0
:104AB000E6FF82EC29F0E552E552E552D08EAC8A51
:104AC000AC9EF28C9F8AE552E552E7CFD9FF1200E7
:104AD000D9CFE6FFE1CFD9FFACA2FED70D0100513F
:104AE000002BEA6A030FE96E0D0EEA22FE0EDBCF01
:104AF000EFFF022B400E005D01E3006B010E00D0C2
:104B0000E552E7CFD9FF1200D9CFE6FFE1CFD9FFB9
:104B1000020EE1268280000E0D01E76E0219E8AE5A
:104B200002D0023503D0E750D880025523E201516C
:104B3000EA6A030FE96E0D0EEA22010EEFCFDBFFEA
:104B4000ACA2FED7010EDB50AD6EACA2FED70D01BC
:104B5000012B400E015D01E3016B000EE76E0219AF
:104B6000E8AE02D0023503D0E750D880025501E20A
:104B70000207D1D78290146E020EE15C02E2E16A74
:104B8000E552E16E1450E552E7CFD9FF1200D9CFBC
:104B9000E6FFE1CFD9FFE652DF6A9D9A000E0D01D4
:104BA000E76E4519E8AE02D0453503D0E750D8800E
:104BB000455502E2010EDF6E9D8ADF5000D0E552BE
:104BC000E552E7CFD9FF1200D9CFE6FFE1CFD9FFF9
:104BD000E6529D9A0D014451442BEA6A460FE96E54
:104BE0000D0EEA22EFCFDFFF400E445D01E3446B80
:104BF000000EE76E4519E8AE02D0453503D0E75008
:104C0000D880455501E245079D8ADF5000D0E55226
:084C1000E552E7CFD9FF1200C5
:084C18000101976B986B12007B
:104C2000D9CFE6FFE1CFD9FF020EE1260101992B92
:104C3000D9CFE6FFDACFE6FF81D8E552E552000989
:104C400001E127D001019751985D02E1986B976BC4
:104C50009851E96EEA6AD890E936EA36890EE92673
:104C6000010EEA22DFCFEFFF9851E96EEA6AD89091
:104C7000E936EA36890EE926010EEA22010EE92616
:104C8000000EEA2299C1EFFF060E985D01E2982B13
:104C9000996B020EE15C02E2E16AE552E16EE552D7
:104CA000E7CFD9FF1200D9CFE6FFE1CFD9FF01014D
:104CB0009851975D31E29751E96EEA6AD890E936EA
:104CC000EA36890EE926010EEA22EF50E66EFD0E65
:104CD000DBCFE9FFFE0EDBCFEAFFE552E750EF6ED8
:104CE0009751E96EEA6AD890E936EA36890EE926E4
:104CF000010EEA22010EE926000EEA22EF50E66ECE
:104D0000FB0EDBCFE9FFFC0EDBCFEAFFE552E750FD
:104D1000EF6E972B010E02D0000E00D0E552E7CFC8
:104D2000D9FF12000B01BD5100D012000B01BE5182
:104D300000D012000101986B976B1200D9CFE6FFEB
:104D4000E1CFD9FFE652DF68819481A4DF6A81B4A4
:104D500002D0040EDF6E81B402D0080EDF6E81B483
:104D600002D00C0EDF6E8184FF0EDF5C12E18194B5
:104D700081B402D0010EDF6E81B402D0050EDF6E69
:104D800081B402D0090EDF6E81B402D00D0EDF6E49
:104D90008184FF0EDF5C12E1819481B402D0020EA7
:104DA000DF6E81B402D0060EDF6E81B402D00A0E2F
:104DB000DF6E81B402D00E0EDF6E8184FF0EDF5CE9
:104DC00012E1819481B402D0030EDF6E81B402D06F
:104DD000070EDF6E81B402D00B0EDF6E81B402D0FD
:104DE0000F0EDF6E8184FF0EDF5C06E101019A6920
:104DF0000B01BC69000E18D001019A51DF5C10E173
:104E00000B01BC51DF5C0CE0FD0EDBCFE9FFFE0EB9
:104E1000DBCFEAFFDFCFEFFFDFCFBCFB010E04D01B
:104E2000DFCF9AF1000E00D0E552E552E7CFD9FF6F
:024E300012006E
:0E4E3200DACFE4FFE2CFDAFFE9CFE4FFEACF08
:104E4000E4FFF6CFE4FFF7CFE4FFF5CFE4FFF3CFC5
:104E5000E4FFF4CFE4FFFACFE4FF00EE00F0140E1D
:104E6000E80403E3EECFE4FFFBD700EE14F00A0EF4
:104E7000E80403E3EECFE4FFFBD7E652F2940F0120
:104E8000282B000E29232A232B23640E281905E141
:104E9000295103E12A5101E12B5109E1222B000E96
:104EA000232324232523286B296B2A6B2B6B272B89
:104EB00027511E6E1F6A320E1E1801E11F5007E1B6
:104EC00026712651E8B08D84E8A08D94276B2C2B99
:104ED0002C511E6E1F6A020E1E1801E11F5004E1C4
:104EE00010EC26F00F012C6BAF0EE66E3C0EE66E5A
:104EF00071EC2AF0E552E552E55200EE1DF00A0E83
:104F0000E80403E3E5CFEDFFFBD700EE13F0140E4A
:104F1000E80403E3E5CFEDFFFBD7E5CFFAFFE5CFEC
:104F2000F4FFE5CFF3FFE5CFF5FFE5CFF7FFE5CFE2
:104F3000F6FFE5CFEAFFE5CFE9FFE5CFDAFF1100A5
:104F40009F0EE66E8DEC2AF0E552AF0EE66E3C0E3B
:104F5000E66E71EC2AF0E552E552F1841200D9CFE9
:104F6000E6FFE1CFD9FF040EE126F29A22CFDFFF60
:104F7000010E23CFDBFF020E24CFDBFF030E25CF74
:104F8000DBFFF28ADECF06F0DECF07F0DECF08F0DF
:104F9000DDCF09F0DD52DD52040EE15C03E200D00A
:104FA000E16AE552E16EE552E7CFD9FF1200F29EC9
:104FB000F29C0F01226B236B246B256BF28EF28C1B
:024FC0001200DD
:0E4FC200FE0EE3CFE9FFFF0EE3CFEAFFE9CFDB
:104FD000F3FFEACFF4FFFB0EE35003E1FC0EE350D6
:104FE00009E0FB0EE30602E2FC0EE306FD0EE350D1
:104FF000EE6EF1D71200D9CFE6FFDACFE6FFFA0E58
:10500000E3CFD9FFFB0EE3CFDAFFFC0EE3CFE9FFDE
:10501000FD0EE3CFEAFFDE50EF5C02E1EE66FBD768
:10502000F36EFF0EE3CFDAFFE552FF0EE3CFD9FFB9
:10503000E552F3501200D9CFE6FFDACFE6FFFA0EC1
:10504000E3CFD9FFFB0EE3CFDAFFFC0EE3CFE9FF9E
:10505000FD0EE3CFEAFFE9CFF3FFEACFF4FFDECFA7
:10506000EFFFEE66FCD7FF0EE3CFDAFFE552FF0E4F
:10507000E3CFD9FFE5521200FB0EE3CFF6FFFC0EA3
:10508000E3CFF7FFFD0EE3CFF8FFFE0EE3CFE9FF1E
:10509000FF0EE3CFEAFFE9CFF3FFEACFF4FF090009
:1050A000F5CFEFFFEE66FBD71200FE0EE3CFE9FF70
:1050B000FF0EE3CFEAFFF36AF46AEE5203E0F34A2D
:0650C000F42AFBD71200E8
:0A50C6004E454152204D495353005E
:1050D00050524F50455254592044414D414745008C
:1050E0004D494E4F5220494E4A555259004D414A62
:1050F0004F5220494E4A5552590000434C454152A7
:10510000204953535545530041444D494E20414396
:105110005449564954593A0050415353574F5244F9
:105120003A00434C4153533A0050415254204E4FA1
:105130003A0049535355453A0053544154494F4E50
:105140003A0049443A00202020204944454F4E4926
:1051500043532020202020414E444F4E205445529E
:065160004D494E414C00D8
:0A5166001A0EF66E000EF76E000E32
:10517000F86E0F010900F550326F0900F550336FDA
:1051800003E1326701D03DD00900F5502D6F0900D1
:10519000F5502E6F0900F5502F6F09000900F550EA
:1051A000E96E0900F550EA6E090009000900F550A2
:1051B000306F0900F550316F09000900F6CF34FF58
:1051C000F7CF35FFF8CF36FF2DCFF6FF2ECFF7FF05
:1051D0002FCFF8FF0F01305302E1315307E00900F0
:1051E000F550EE6E3007F8E23107F9D734CFF6FF0D
:1051F00035CFF7FF36CFF8FF0F013207000E335BD4
:04520000BFD7120002
:0C520400006A0EAE0BEF29F00D6C0E1EC0
:10521000E86A0E22001E09AE13EF29F0086C091E81
:10522000E86A0922001EA9EC2AF009BE23EF29F042
:1052300000AE000C086C091EE86A0922046C051E09
:10524000E86A0522000C00BE1AEF29F00188FF0C65
:1052500008C012F008500D02F4CF07F0F3CF06F0AB
:1052600009500E02F4CF09F0F3CF08F00D02F3500D
:105270000726F4500822E86A092212500E02F35061
:0C5280000726F4500822E86A0922000CFE
:04528C00D9CFE6FF91
:10529000DACFE6FFE1CFD9FFE2CFDAFFE652DF6AED
:1052A000FD0EDBCF15F015C014F0030E1514AA6E19
:1052B000FF0EE76EFC0EDBCF14F0E7501416156AF4
:1052C0001450A96EFB0EDB50A86EA69EA69CA68469
:1052D000F250800B01E0010EDF6EF29E550EA76EBC
:1052E000AA0EA76EA682A6B2FED7DF50E8B0F28E55
:1052F000E8A0F29EA694E552E552E5CFDAFFE7CFAB
:04530000D9FF1200BF
:0C530400D9CFE6FFDACFE6FFE1CFD9FFFA
:10531000E2CFDAFFAC6AAB6AFD0EDBB0AC88DBA291
:1053200002D0AC8CAB8CDBB4AC8EDBA602D0AB88ED
:1053300001D0AB8ADBB8AC84DBBAAB86DBAC02D085
:105340009D8A01D09D9ADBAE02D09D8801D09D98A8
:10535000FB0EDB50AF6EFC0EDBCF15F015C014F06A
:10536000156A1450B06EAC8AAB8EE552E5CFDAFF09
:06537000E7CFD9FF120097
:0A537600D9CFE6FFDACFE6FFE1CF62
:10538000D9FFE2CFDAFFFC0EDBCF14F0FD0EDBCF4E
:1053900015F015C014F0156A030E1414AA6EFF0E52
:1053A000E76EFC0EDBCF14F0FD0EDBCF15F0E750FF
:1053B0001416156A1450A96EA69CA69EA68000001D
:1053C0000000A85000D0E552E5CFDAFFE7CFD9FFC3
:0253D0001200C9
:0E53D200C26A0F01386B396B3A6B3B6B3C6B58
:1053E000700ED36E93849384938493849394939454
:1053F00093949394949082909290899092968996A7
:10540000929289929294899496948D84959E959C7B
:0C541000959A95989592959495961200A7
:04541C00FFFFFFFF90
:105420003131313132414243334445460B0B0B0B92
:1054300034474849354A4B4C364D4E4F0C0C0C0CFA
:105440003750525338545556395758590808080898
:105450002A2A2A2A30515A2D131313130A0A0A0A28
:10546000D9CFE6FFE1CFD9FFE652E9EC29F0A0EC75
:1054700027F00CEC26F033EC22F04AEC00F00CECB8
:1054800015F0F28EF28CC1EC15F00400BFEC22F0A6
:1054900004000EEC03F00400F6D7E552E552E7CF26
:0454A000D9FF12001E
:0C54A400D9CFE6FFDACFE6FFE1CFD9FF59
:1054B000E2CFDAFFE652F20E0F013717ABAC03D0A2
:1054C0003791ABB03781ABB43785ABB23787AE50CD
:1054D000DF6EDF50E552E552E5CFDAFFE7CFD9FFC7
:0254E0001200B8
:0E54E200D9CFE6FFDACFE6FFE1CFD9FFE2CF68
:1054F000DAFFE652E652FC0EDBCFDEFFDBCFDDFF4C
:10550000010EDB50D76EDF50D66EE552E552E55204
:0A551000E5CFDAFFE7CFD9FF120064
:06551A00D9CFE6FFDACF55
:10552000E6FFE1CFD9FFE2CFDAFFFD0EDB507F0BC4
:10553000D56ED76AD66AF294FD0EDBAE02D0F28A3F
:1055400001D0F29AD58EE552E5CFDAFFE7CFD9FF49
:02555000120047
:0E555200056A046A100EE76ED8900836093616
:10556000043605360D50045C0E50055805E30D5009
:0E557000045E0E50055A082AE72EF0D71200EE
:02557E00FF0E1E
:10558000E350206E480E01D04C0EE76EE72EFED79A
:0E559000E76AE72EFED7202EF7D700001200A4
:02559E00380EC5
:1055A000F36E00EE00F00F0E01D81200EA6002D098
:0E55B000EE6AFCD7F350E9601200EE6AFCD7F9
:0255BE001EEEDF
:1055C00000F02EEE00F0F86A019CB3EC28F007EC36
:0A55D0002BF030EC2AF0FBD712009C
:0655DA00FF0EE350E84E55
:1055E0001200000000D000D000D0E82EFAD7120040
:1055F00020202020202020202020202020202020AB
:0156000000A9
:06560200A6B2FED7120063
:05560800434F4D0A00B4
:02560E00120088
:10561000000000000000000000000000000000008A
:10562000000000000000000000000000000000007A
:10563000000000FF0000000000000000000000006B
:10564000000000000000000000000000000000005A
:10565000000000000000000000000000000000004A
:10566000000000000000000000000000000000003A
:1056700000000000000000FF00000000000000002B
:10568000000000000000000000000000000000001A
:095690000000000000000000FF12
:07569900000000000000000A
:1056A00000000000000000000000000000000000FA
:1056B00000000000000000000000000000000000EA
:1056C00000000000000000000000000000000000DA
:1056D00000000000000000000000000000000000CA
:1056E00000000000000000000000000000000000BA
:1056F00000000000000000000000000000000000AA
:105700000000000000000000000000000000000099
:0F5710000000000000000000000000000000008A
:01571F000089
:105720000000000000000000000000000000000079
:105730000000000000000000000000000000000069
:105740000000000000000000000000000000000059
:105750000000000000000000000000000000000049
:105760000000000000000000000000000000000039
:105770000000000000000000000000000000000029
:105780000000000000000000000000000000000019
:105790000000000000000000000000000000000009
:1057A00000000000000000000000000000000000F9
:1057B00000000000000000000000000000000000E9
:1057C00000000000000000000000000000000000D9
:1057D00000000000000000000000000000000000C9
:1057E00000000000000000000000000000000000B9
:1057F00000000000000000000000000000000000A9
:105800000000000000000000000000000000000098
:105810000000000000000000000000000000000088
:105820000000000000000000000000000000000078
:105830000000000000000000000000000000000068
:105840000000000000000000000000000000000058
:105850000000000000000000000000000000000048
:105860000000000000000000000000000000000038
:105870000000000000000000000000000000000028
:105880000000000000000000000000000000000018
:105890000000000000000000000000000000000008
:1058A00000000000000000000000000000000000F8
:1058B00000000000000000000000000000000000E8
:1058C00000000000000000000000000000000000D8
:1058D00000000000000000000000000000000000C8
:0458E00000000000C4
:0C58E400000000000000000000000000B8
:1058F00000000000000000000000000000000000A8
:105900000000000000000000000000000000000097
:105910000000000000000000000000000000000087
:075BA00000000000000000FE
:095BA700000000000000000000F5
:105BB00000000000000000000000000000000000E5
:105BC00000000000000000000000000000000000D5
:105BD00000000000000000000000000000000000C5
:105BE00000000000000000000000000000000000B5
:105BF00000000000000000000000000000000000A5
:105C00000000000000000000000000000000000094
:105C10000000000000000000000000000000000084
:105C20000000000000000000000000000000000074
:0B5C3000000000000000000000000069
:055C3B00000000000064
:065C40000000000000005E
:0A5C46000000000000000000000054
:105C50000000000000000000000000000000000044
:085C600000000000000000003C
:035C6800FF00003A
:025C6B00FFFF39
:035C6D004651425B
:105C700051395132512951225118510851FB50FAD2
:105C800050ED50E050D050C6500000000000000021
:105C90000000000000000000000000000000000004
:105CA00000000000000000000000000000000000F4
