:020000040000FA
:06000000C7EF26F012001C
:020006002C01CB
:080008009EAA02D0B7EF22F01E
:020010001200DC
:06001200A6B2FED71200A9
:08001800F2A402D030EF22F047
:0C0020001200D08E9F8AF28EF28C12002B
:04002C000B00285449
:100030000000D30D00001800000026540000F50D4C
:10004000000002000000A54A0000FA0D00000100B7
:100050000000CC520000000100005A010000B8511D
:10006000000000090000140100006F5100008A0D1B
:100070000000490000004D5100001E0E000022004B
:100080000000884F000000060000C50100006A4F14
:100090000000000E00001E000000644E0000000B77
:1000A000000006010000DA4D0000000D00008A008B
:0200B00000004E
:0E00B200D9CFE6FFE1CFD9FF0B0EE126050EF8
:1000C000DB6A060EDB6A070EDB6A080EDB6A090EC6
:1000D000DB6A200EF36E0A0EF3CFDBFF0101036B28
:1000E000046B056B066B0101076B086B096B0A6BF0
:1000F0000601046BDE6ADD6ADECF14F0DDCF15F099
:100100000A0E145C000E155801E39ED0DECF14F0E9
:10011000DDCF15F0050ED89014361536E806FBE154
:10012000170E1426010E1522030E14C0DBFF040E59
:1001300015C0DBFF020EDB6A200EF36E020EDBCF72
:10014000F4FFF350F45C35E209EC00F00400020E19
:10015000DB50166E176A200E086E096ADECF0DF0AE
:10016000DDCF0EF042EC26F006501624146E075038
:100170001720156E14C0E6FF15C0E6FF8CEC25F0C5
:10018000E552E552E66E020EDB50E76E030EDBCF62
:10019000E9FF040EDBCFEAFFE750E926000EEA2272
:1001A000E552E750EF6E09EC00F00400020EDB2A86
:1001B000C3D7DECFE9FFDDCFEAFF050ED890E936E1
:1001C000EA36E806FBE1170EE926010EEA221E0ECA
:1001D000E926000EEA22EF0402E10101012BDECF45
:1001E000E9FFDDCFEAFF050ED890E936EA36E806EA
:1001F000FBE1170EE926010EEA221E0EE926000E8B
:10020000EA22EF50030802E10101022BDECFE9FFF1
:10021000DDCFEAFF050ED890E936EA36E806FBE1C5
:10022000170EE926010EEA221F0EE926000EEA2229
:10023000EF0405E1010EF36E050EF3CFDBFFDF2ABD
:10024000010E01E3DB2A58D701010251000806E242
:10025000010EF36E080EF3CFDBFF0FD00101015149
:10026000000806E2010EF36E070EF3CFDBFF05D0A8
:10027000010EF36E060EF3CFDBFF050EDB0405E186
:10028000010EF36E090EF3CFDBFF0101310E0D6F8E
:100290000101300E0E6F0101300E0F6F0101330EA0
:1002A000106F0101116B0201060E596F09EC00F08D
:1002B0000400E66AE66AE66AE66A47EC10F0E55290
:1002C000E552E552E55231D80201010E576F090E91
:1002D000DBCFE6FF080EDBCFE6FF070EDBCFE6FF46
:1002E000060EDBCFE6FF47EC10F0E552E552E55293
:1002F000E552820EE66E250EE66EDD0EE66ECC0E43
:10030000E66EBB0EE66EAA0EE66E61EC1CF0146E95
:10031000060EE15E14500B0EE15C02E2E16AE5526A
:10032000E16EE552E7CFD9FF1200D9CFE6FFE1CF6A
:10033000D9FF050EE126DF6A010EDB6A020EDB6AD9
:10034000030EDB6A01010251000809E20101030EFC
:10035000006F010EF36E020EF3CFDBFF11D001012F
:100360000151000807E20101010E006FDE52010E8B
:10037000DD6E06D00101006B010EDF6E030EDB6A3D
:10038000040EDB6A0A0EF36E040EDBCFF4FFF350AB
:10039000F45C1AE2040EDB50200DF3CFE9FFF4CF3A
:1003A000EAFF170EE926010EEA221F0EE926000ECB
:1003B000EA22EF0406E1010EF36E030EF3CFDBFF3A
:1003C00003D0040EDB2ADED7030EDBCFE6FF020EDE
:1003D000DBCFE6FF010EDBCFE6FFDFCFE6FF47EC2A
:1003E00010F0E552E552E552E552050EE15C02E2FD
:1003F000E16AE552E16EE552E7CFD9FF1200D9CFAD
:10040000E6FFE1CFD9FF050EE126DF6A010EDB6AC8
:10041000020EDB6A030EDB6A01010251000809E2E9
:100420000101030E006F010EF36E020EF3CFDBFF2E
:1004300011D001010151000807E20101010E006F16
:10044000DE52010EDD6E06D00101006B010EDF6E83
:10045000030EDB6A030EDBCFE6FF020EDBCFE6FF07
:10046000010EDBCFE6FFDFCFE6FF47EC10F0E552F1
:10047000E552E552E5520201010E576F010E00D020
:10048000146E050EE15C02E2E16AE552E16E145081
:10049000E552E7CFD9FF1200D9CFE6FFE1CFD9FF70
:1004A000050EE126DF6A010EDB6A020EDB6A030E2F
:1004B000DB6AFD0EDBCFE6FFFE0EDBCFE6FF120EA2
:1004C000E66E010EE66E39EC23F0E552E552E55298
:1004D000E552000902E0000E1FD0030EDBCFE6FF5D
:1004E000020EDBCFE6FF010EDBCFE6FFDFCFE6FF3C
:1004F00047EC10F0E552E552E552E552FB0EDBCF3A
:10050000E6FFFC0EDBCFE6FFF5EC0FF0E552E5521F
:100510000201576B010E00D0146E050EE15C02E281
:10052000E16AE552E16E1450E552E7CFD9FF1200BF
:10053000D9CFE6FFE1CFD9FF090EE126010EF36E18
:10054000080EF3CFDBFF21EC24F006C007F107C053
:1005500008F108C009F109C00AF1030EE96E010EA5
:10056000EA6EEE50010107190CE1EE500101081985
:1005700008E1EE500101091904E1EE5001010A19E8
:1005800000E101E1BBD007C103F108C104F109C1D9
:1005900005F10AC106F1DF6A0A0EDF5C01E3A4D0AF
:1005A000DF50200DF3CFE9FFF4CFEAFF170EE92665
:1005B000010EEA221E0EE926000EEA22EF0401E0F7
:1005C00091D0DF50200DF3CFE9FFF4CFEAFF170EF3
:1005D000E926010EEA221C0EE926000EEA22EE06AA
:1005E000000EED5ADF50200DF3CFE9FFF4CFEAFF04
:1005F000170EE926010EEA221C0EE926000EEA2259
:10060000E9CF14F0EACF15F0010E14C0DBFF020EA3
:1006100015C0DBFF010EDBCFE9FF020EDBCFEAFFE7
:10062000030EEFCFDBFF200EDF02F3501C0F146E22
:10063000040E14C0DBFF050EDB6A060EDB6A070E34
:10064000DB6A010EDBCFE9FF020EDBCFEAFFEF50E2
:10065000E66E200EDF02F3501C0FE66EE66AA0EC99
:1006600024F0E552E552E55209EC00F00400010ED9
:10067000E76E010EDBCFE9FF020EDBCFEAFFE750AA
:10068000E926000EEA22030EEFCFDBFF200EDF0289
:10069000F3501C0F010F146E040E14C0DBFF050E87
:1006A000DB6A060EDB6A070EDB6A010EE76E010EDF
:1006B000DBCFE9FF020EDBCFEAFFE750E926000EB1
:1006C000EA22EF50E66E200EDF02F3501C0F010FFE
:1006D000E66EE66AA0EC24F0E552E552E55209EC3C
:1006E00000F00400DF2A58D719EC11F0010806E1E8
:1006F00080840101015102E180928090090EE15C49
:1007000002E2E16AE552E16EE552E7CFD9FF12005D
:10071000D9CFE6FFE1CFD9FF050EE126FD0EDBCFF5
:10072000E9FFFE0EDBCFEAFF200EE926000EEA22EB
:10073000EF28DF6E010EDB6A020EDB6A0A0EDF5C59
:1007400001E3DF6AFD0EDBCFE9FFFE0EDBCFEAFF40
:10075000200EE926000EEA22EF68030EDB6A0A0E7D
:10076000F36E030EDBCFF4FFF350F45C01E33CD3F4
:100770000A0E146E14C00EF0DFCF09F0D5EC26F08F
:100780000550DF6EDF50200DF3CFE9FFF4CFEAFF15
:10079000170EE926010EEA221E0EE926000EEA22B5
:1007A000EF5010E0DF50200DF3CFE9FFF4CFEAFF68
:1007B000170EE926010EEA221F0EE926000EEA2294
:1007C000EF5001E10DD3FD0EDBCFE9FFFE0EDBCFD5
:1007D000EAFFE9CF14F0EACF15F0010EDBCFF3FF0B
:1007E000DB2AF3500F011424E96E000E1520EA6E87
:1007F000530EEF6EFD0EDBCFE9FFFE0EDBCFEAFFFF
:10080000E9CF14F0EACF15F0010EDBCFF3FFDB2ABE
:10081000F3500F011424E96E000E1520EA6E540EF9
:10082000EF6EFD0EDBCFE9FFFE0EDBCFEAFFE9CF77
:1008300014F0EACF15F0010EDBCFF3FFDB2AF35003
:100840000F011424E96E000E1520EA6E4E0EEF6EB5
:10085000FD0EDBCFE9FFFE0EDBCFEAFFE9CF14F0A0
:10086000EACF15F0010EDBCFF3FFDB2AF3500F01C7
:100870001424E96E000E1520EA6E3A0EEF6EDF507A
:10088000200DF3CFE9FFF4CFEAFF170EE926010EA2
:10089000EA22E9CF16F0EACF17F0020EDBCFF3FF22
:1008A000DB2AF3500F011624E96E000E1720EA6EC2
:1008B000EF50E66EFD0EDBCFE9FFFE0EDBCFEAFF69
:1008C000E9CF14F0EACF15F0010EDBCFF3FFDB2AFE
:1008D000F3500F011424E96E000E1520EA6EE55264
:1008E000E750EF6EDF50200DF3CFE9FFF4CFEAFFC2
:1008F000170EE926010EEA22E9CF16F0EACF17F02B
:10090000020EDBCFF3FFDB2AF3500F011624E96E52
:10091000000E1720EA6EEF50E66EFD0EDBCFE9FF0A
:10092000FE0EDBCFEAFFE9CF14F0EACF15F0010E9F
:10093000DBCFF3FFDB2AF3500F011424E96E000E26
:100940001520EA6EE552E750EF6EFD0EDBCFE9FFB2
:10095000FE0EDBCFEAFFE9CF14F0EACF15F0010E6F
:10096000DBCFF3FFDB2AF3500F011424E96E000EF6
:100970001520EA6E3B0EEF6EDF50200DF3CFE9FF3E
:10098000F4CFEAFF170EE926010EEA22E9CF14F0B0
:10099000EACF15F0020EDB500F011424E96E000EB1
:1009A0001520EA6EEF50360A01E194D1030A01E105
:1009B00043D1010A01E1F2D0070A01E1A1D0010A05
:1009C00051E0030A01E0EAD1D7CD14F0D8CD15F0FB
:1009D000166A14C0E6FF15C0E6FF16C0E6FFFD0E5E
:1009E000DBCFE9FFFE0EDBCFEAFFE9CF19F0EACF5C
:1009F0001AF0010EDB5000011924176E000E1A20A8
:100A0000186E17C0E6FF18C0E6FF7AEC23F01B6EE5
:100A1000050EE15E1B50FD0EDBCFE9FFFE0EDBCFC6
:100A2000EAFFE9CF16F0EACF17F0010EDB50000124
:100A30001624146E000E1720156E14C0E6FF15C0A4
:100A4000E6FF93EC23F0E552E552040EF3CFDBFF13
:100A5000010EDBCFE7FF040EDB50E726010EE7CFE8
:100A6000DBFF9CD1D9CD14F0DACD15F0166A14C095
:100A7000E6FF15C0E6FF16C0E6FFFD0EDBCFE9FF7F
:100A8000FE0EDBCFEAFFE9CF19F0EACF1AF0010E34
:100A9000DB5000011924176E000E1A20186E17C0C3
:100AA000E6FF18C0E6FF7AEC23F01B6E050EE15E50
:100AB0001B50FD0EDBCFE9FFFE0EDBCFEAFFE9CFD7
:100AC00016F0EACF17F0010EDB5000011624146E69
:100AD000000E1720156E14C0E6FF15C0E6FF93EC5C
:100AE00023F0E552E552040EF3CFDBFF010EDBCF1E
:100AF000E7FF040EDB50E726010EE7CFDBFF4ED108
:100B0000DBCD14F0DCCD15F0166A14C0E6FF15C07D
:100B1000E6FF16C0E6FFFD0EDBCFE9FFFE0EDBCFE2
:100B2000EAFFE9CF19F0EACF1AF0010EDB5000011D
:100B30001924176E000E1A20186E17C0E6FF18C091
:100B4000E6FF7AEC23F01B6E050EE15E1B50FD0EF6
:100B5000DBCFE9FFFE0EDBCFEAFFE9CF16F0EACFED
:100B600017F0010EDB5000011624146E000E172042
:100B7000156E14C0E6FF15C0E6FF93EC23F0E552B6
:100B8000E552040EF3CFDBFF010EDBCFE7FF040ECF
:100B9000DB50E726010EE7CFDBFF00D1DDCD14F0FF
:100BA000DECD15F0166A14C0E6FF15C0E6FF16C0CC
:100BB000E6FFFD0EDBCFE9FFFE0EDBCFEAFFE9CF5C
:100BC00019F0EACF1AF0010EDB5000011924176E5C
:100BD000000E1A20186E17C0E6FF18C0E6FF7AEC68
:100BE00023F01B6E050EE15E1B50FD0EDBCFE9FF0F
:100BF000FE0EDBCFEAFFE9CF16F0EACF17F0010EC9
:100C0000DB5000011624146E000E1720156E14C060
:100C1000E6FF15C0E6FF93EC23F0E552E552040E23
:100C2000F3CFDBFF010EDBCFE7FF040EDB50E7263F
:100C3000010EE7CFDBFFB2D0DFCD14F0E0CD15F031
:100C4000166A14C0E6FF15C0E6FF16C0E6FFFD0EEB
:100C5000DBCFE9FFFE0EDBCFEAFFE9CF19F0EACFE9
:100C60001AF0010EDB5000011924176E000E1A2035
:100C7000186E17C0E6FF18C0E6FF7AEC23F01B6E73
:100C8000050EE15E1B50FD0EDBCFE9FFFE0EDBCF54
:100C9000EAFFE9CF16F0EACF17F0010EDB500001B2
:100CA0001624146E000E1720156E14C0E6FF15C032
:100CB000E6FF93EC23F0E552E552040EF3CFDBFFA1
:100CC000010EDBCFE7FF040EDB50E726010EE7CF76
:100CD000DBFF64D0FD0EDBCFE9FFFE0EDBCFEAFFCA
:100CE000E9CF14F0EACF15F0010EDBCFF3FFDB2ADA
:100CF000F3500F011424E96E000E1520EA6E230E46
:100D0000EF6E020EDB2ADF50200DF3CFE9FFF4CFA8
:100D1000EAFF170EE926010EEA22E9CF14F0EACF26
:100D200015F0020EDB500F011424E96E000E1520A1
:100D3000EA6EEF5032E0DF50200DF3CFE9FFF4CF41
:100D4000EAFF170EE926010EEA22E9CF16F0EACFF4
:100D500017F0020EDB500F011624E96E000E17206B
:100D6000EA6EEF50E66EFD0EDBCFE9FFFE0EDBCF45
:100D7000EAFFE9CF14F0EACF15F0010EDB500F01C6
:100D80001424E96E000E1520EA6EE552E750EF6E6E
:100D9000010EDB2A020EDB2AB6D700D0FD0EDBCF18
:100DA000E9FFFE0EDBCFEAFFE9CF14F0EACF15F042
:100DB000010EDB500F011424E96E000E1520EA6EBF
:100DC000EF6ADFCF58F2FD0EDBCFE9FFFE0EDBCF7F
:100DD000EAFF200EE926000EEA2258C2EFFF04D0F7
:100DE000030EDB2ADF2ABBD4050EE15C02E2E16AD6
:100DF000E552E16EE552E7CFD9FF1200D9CFE6FF09
:100E0000E1CFD9FF050EE126FD0EDBCFE9FFFE0E97
:100E1000DBCFEAFF200EE926000EEA22EF28DF6E84
:100E2000010EDB6A020EDB6A0A0EDF5C01E3DF6A99
:100E3000FD0EDBCFE9FFFE0EDBCFEAFF200EE92639
:100E4000000EEA22EF68030EDB6A0A0EF36E030E51
:100E5000DBCFF4FFF350F45C01E33CD30A0E146ED5
:100E600014C00EF0DFCF09F0D5EC26F00550DF6E90
:100E7000DF50200DF3CFE9FFF4CFEAFF170EE9268C
:100E8000010EEA221E0EE926000EEA22EF5010E0C3
:100E9000DF50200DF3CFE9FFF4CFEAFF170EE9266C
:100EA000010EEA221F0EE926000EEA22EF0401E1FC
:100EB0000DD3FD0EDBCFE9FFFE0EDBCFEAFFE9CF5E
:100EC00014F0EACF15F0010EDBCFF3FFDB2AF3506D
:100ED0000F011424E96E000E1520EA6E530EEF6E1A
:100EE000FD0EDBCFE9FFFE0EDBCFEAFFE9CF14F00A
:100EF000EACF15F0010EDBCFF3FFDB2AF3500F0131
:100F00001424E96E000E1520EA6E540EEF6EFD0EED
:100F1000DBCFE9FFFE0EDBCFEAFFE9CF14F0EACF2B
:100F200015F0010EDBCFF3FFDB2AF3500F01142481
:100F3000E96E000E1520EA6E4E0EEF6EFD0EDBCF51
:100F4000E9FFFE0EDBCFEAFFE9CF14F0EACF15F0A0
:100F5000010EDBCFF3FFDB2AF3500F011424E96EFF
:100F6000000E1520EA6E3A0EEF6EDF50200DF3CF23
:100F7000E9FFF4CFEAFF170EE926010EEA22E9CFD6
:100F800016F0EACF17F0020EDBCFF3FFDB2AF350A7
:100F90000F011624E96E000E1720EA6EEF50E66E80
:100FA000FD0EDBCFE9FFFE0EDBCFEAFFE9CF14F049
:100FB000EACF15F0010EDBCFF3FFDB2AF3500F0170
:100FC0001424E96E000E1520EA6EE552E750EF6E2C
:100FD000DF50200DF3CFE9FFF4CFEAFF170EE9262B
:100FE000010EEA22E9CF16F0EACF17F0020EDBCFAE
:100FF000F3FFDB2AF3500F011624E96E000E1720D1
:10100000EA6EEF50E66EFD0EDBCFE9FFFE0EDBCFA2
:10101000EAFFE9CF14F0EACF15F0010EDBCFF3FFC2
:10102000DB2AF3500F011424E96E000E1520EA6E3E
:10103000E552E750EF6EFD0EDBCFE9FFFE0EDBCF92
:10104000EAFFE9CF14F0EACF15F0010EDBCFF3FF92
:10105000DB2AF3500F011424E96E000E1520EA6E0E
:101060003B0EEF6EDF50200DF3CFE9FFF4CFEAFF28
:10107000170EE926010EEA22E9CF14F0EACF15F0A7
:10108000020EDB500F011424E96E000E1520EA6EEB
:10109000EF50360A01E194D1030A01E143D1010A7C
:1010A00001E1F2D0070A01E1A1D0010A51E0030AEF
:1010B00001E0EAD1D7CD14F0D8CD15F0166A14C0EE
:1010C000E6FF15C0E6FF16C0E6FFFD0EDBCFE9FF29
:1010D000FE0EDBCFEAFFE9CF19F0EACF1AF0010EDE
:1010E000DB5000011924176E000E1A20186E17C06D
:1010F000E6FF18C0E6FF7AEC23F01B6E050EE15EFA
:101100001B50FD0EDBCFE9FFFE0EDBCFEAFFE9CF80
:1011100016F0EACF17F0010EDB5000011624146E12
:10112000000E1720156E14C0E6FF15C0E6FF93EC05
:1011300023F0E552E552040EF3CFDBFF010EDBCFC7
:10114000E7FF040EDB50E726010EE7CFDBFF9CD163
:10115000D9CD14F0DACD15F0166A14C0E6FF15C02B
:10116000E6FF16C0E6FFFD0EDBCFE9FFFE0EDBCF8C
:10117000EAFFE9CF19F0EACF1AF0010EDB500001C7
:101180001924176E000E1A20186E17C0E6FF18C03B
:10119000E6FF7AEC23F01B6E050EE15E1B50FD0EA0
:1011A000DBCFE9FFFE0EDBCFEAFFE9CF16F0EACF97
:1011B00017F0010EDB5000011624146E000E1720EC
:1011C000156E14C0E6FF15C0E6FF93EC23F0E55260
:1011D000E552040EF3CFDBFF010EDBCFE7FF040E79
:1011E000DB50E726010EE7CFDBFF4ED1DBCD14F05D
:1011F000DCCD15F0166A14C0E6FF15C0E6FF16C078
:10120000E6FFFD0EDBCFE9FFFE0EDBCFEAFFE9CF05
:1012100019F0EACF1AF0010EDB5000011924176E05
:10122000000E1A20186E17C0E6FF18C0E6FF7AEC11
:1012300023F01B6E050EE15E1B50FD0EDBCFE9FFB8
:10124000FE0EDBCFEAFFE9CF16F0EACF17F0010E72
:10125000DB5000011624146E000E1720156E14C00A
:10126000E6FF15C0E6FF93EC23F0E552E552040ECD
:10127000F3CFDBFF010EDBCFE7FF040EDB50E726E9
:10128000010EE7CFDBFF00D1DDCD14F0DECD15F090
:10129000166A14C0E6FF15C0E6FF16C0E6FFFD0E95
:1012A000DBCFE9FFFE0EDBCFEAFFE9CF19F0EACF93
:1012B0001AF0010EDB5000011924176E000E1A20DF
:1012C000186E17C0E6FF18C0E6FF7AEC23F01B6E1D
:1012D000050EE15E1B50FD0EDBCFE9FFFE0EDBCFFE
:1012E000EAFFE9CF16F0EACF17F0010EDB5000015C
:1012F0001624146E000E1720156E14C0E6FF15C0DC
:10130000E6FF93EC23F0E552E552040EF3CFDBFF4A
:10131000010EDBCFE7FF040EDB50E726010EE7CF1F
:10132000DBFFB2D0DFCD14F0E0CD15F0166A14C0AB
:10133000E6FF15C0E6FF16C0E6FFFD0EDBCFE9FFB6
:10134000FE0EDBCFEAFFE9CF19F0EACF1AF0010E6B
:10135000DB5000011924176E000E1A20186E17C0FA
:10136000E6FF18C0E6FF7AEC23F01B6E050EE15E87
:101370001B50FD0EDBCFE9FFFE0EDBCFEAFFE9CF0E
:1013800016F0EACF17F0010EDB5000011624146EA0
:10139000000E1720156E14C0E6FF15C0E6FF93EC93
:1013A00023F0E552E552040EF3CFDBFF010EDBCF55
:1013B000E7FF040EDB50E726010EE7CFDBFF64D02A
:1013C000FD0EDBCFE9FFFE0EDBCFEAFFE9CF14F025
:1013D000EACF15F0010EDBCFF3FFDB2AF3500F014C
:1013E0001424E96E000E1520EA6E230EEF6E020E35
:1013F000DB2ADF50200DF3CFE9FFF4CFEAFF170E11
:10140000E926010EEA22E9CF14F0EACF15F0020E28
:10141000DB500F011424E96E000E1520EA6EEF5028
:1014200032E0DF50200DF3CFE9FFF4CFEAFF170ED3
:10143000E926010EEA22E9CF16F0EACF17F0020EF4
:10144000DB500F011624E96E000E1720EA6EEF50F4
:10145000E66EFD0EDBCFE9FFFE0EDBCFEAFFE9CF44
:1014600014F0EACF15F0010EDB500F011424E96EE1
:10147000000E1520EA6EE552E750EF6E010EDB2AF2
:10148000020EDB2AB6D700D0FD0EDBCFE9FFFE0E41
:10149000DBCFEAFFE9CF14F0EACF15F0010EDB5005
:1014A0000F011424E96E000E1520EA6EEF6ADFCFFB
:1014B00058F2FD0EDBCFE9FFFE0EDBCFEAFF200E78
:1014C000E926000EEA2258C2EFFF04D0030EDB2A01
:1014D000DF2ABBD4050EE15C02E2E16AE552E16E6F
:1014E000E552E7CFD9FF1200D9CFE6FFE1CFD9FF10
:1014F000070EE126FE0EDB50200DF3CFE9FFF4CFFF
:10150000EAFF170EE926010EEA221E0EE926000E5A
:10151000EA22EF5033E0FE0EDB50200DF3CFE9FF5F
:10152000F4CFEAFF170EE926010EEA22E9CF14F004
:10153000EACF15F014C0E6FF15C0E6FF050EDBCFBD
:10154000E6FF060EDBCFE6FF39EC23F0E552E5526D
:10155000E552E552000912E1FE0EDB50200DF3CFFB
:10156000E9FFF4CFEAFF170EE926010EEA221F0E6B
:10157000E926000EEA22EF0401E17ED1FE0EDB50E7
:10158000200DF3CFE9FFF4CFEAFF170EE926010E95
:10159000EA22E9CF14F0EACF15F0050E14C0DBFF04
:1015A000060E15C0DBFF01010051030A01E190D0D6
:1015B000020A01E048D1050EDBCFE6FF060EDBCFC5
:1015C000E6FF67EC10F0E552E552E76E020EE7CF5A
:1015D000DBFF020EDB50FF0801E179D0050EDBCF07
:1015E000E6FF060EDBCFE6FFF5EC0FF0E552E55225
:1015F0001C0EE66EE66AE66A020EDB50200DF3CFA3
:10160000E9FFF4CFEAFF170EE926010EEA22E9CF3F
:1016100014F0EACF15F014C0E6FF15C0E6FF1FEC8A
:1016200023F0166E050EE15E16500400020EDB502C
:10163000200DF3CF14F0F4CF15F0170E1426010E81
:101640001522030E14C0DBFF040E15C0DBFF010ED4
:10165000DB6A200EF36E010EDBCFF4FFF350F45C77
:1016600025E2010EDB50E76E030EDBCFE9FF040E2F
:10167000DBCFEAFFE750E926000EEA22EF50E66EE4
:10168000010EDBCFE6FF020EDB50200DF350E552DA
:10169000E724E66EE66AA0EC24F0E552E552E55256
:1016A00009EC00F00400010EDB2AD3D7010101513F
:1016B0000DE10101006BE66AE66AE66A010EE66E7C
:1016C00047EC10F0E552E552E552E552D5D0BCD0DA
:1016D000050EDBCFE6FF060EDBCFE6FF67EC10F072
:1016E000E552E552E76E020EE7CFDBFF020EDB505C
:1016F000FF0801E1A7D0050EDBCFE6FF060EDBCF2A
:10170000E6FFF5EC0FF0E552E5521C0EE66EE66AD8
:10171000E66A020EDB50200DF3CFE9FFF4CFEAFFBB
:10172000170EE926010EEA22E9CF14F0EACF15F0F0
:1017300014C0E6FF15C0E6FF1FEC23F0166E050E81
:10174000E15E16500400020EDB50200DF3CF14F0C2
:10175000F4CF15F0170E1426010E1522030E14C037
:10176000DBFF040E15C0DBFF010EDB6A200EF36EFB
:10177000010EDBCFF4FFF350F45C25E2010EDB50E9
:10178000E76E030EDBCFE9FF040EDBCFEAFFE75085
:10179000E926000EEA22EF50E66E010EDBCFE6FFEF
:1017A000020EDB50200DF350E552E724E66EE66AA8
:1017B000A0EC24F0E552E552E55209EC00F00400FB
:1017C000010EDB2AD3D70101025120E101010151B1
:1017D0000EE10101006BE66AE66AE66A010EE66E5A
:1017E00047EC10F0E552E552E552E5520ED001010A
:1017F000010E006FE66AE66A010EE66EE66A47ECE5
:1018000010F0E552E552E552E5521BD001010151BD
:101810000CE1E66A010EE66EE66AE66A47EC10F055
:10182000E552E552E552E5520CD0E66A010EE66E4D
:10183000010EE66EE66A47EC10F0E552E552E5521D
:10184000E5521AD001D000D0DF6A0A0EDF5C14E244
:10185000DF50200DF3CFE9FFF4CFEAFF170EE926A2
:10186000010EEA221F0EE926000EEA22EF0402E131
:10187000808602D0DF2AE9D7070EE15C02E2E16A46
:10188000E552E16EE552E7CFD9FF1200D9CFE6FF6E
:10189000E1CFD9FF050EE126DF6A0A0EDF5C33E2F5
:1018A000DF50200DF3CFE9FFF4CFEAFF170EE92652
:1018B000010EEA221E0EE926000EEA22EF5021E078
:1018C000DF50200DF3CFE9FFF4CFEAFF170EE92632
:1018D000010EEA22E9CF14F0EACF15F014C0E6FFBA
:1018E00015C0E6FFFD0EDBCFE6FFFE0EDBCFE6FF09
:1018F00039EC23F0E552E552E552E552000901E1E9
:10190000DFD0DF2ACAD7DF6A0A0EDF5C01E3D2D05C
:10191000DF50200DF3CFE9FFF4CFEAFF170EE926E1
:10192000010EEA221E0EE926000EEA22EF5001E027
:10193000BFD0DF50200DF3CFE9FFF4CFEAFF170E41
:10194000E926010EEA221E0EE926000EEA22010E09
:10195000EF6E060EF66E000EF76E0900F5CF14F06E
:101960000800F5CF15F0DF50200DF3CFE9FFF4CFDD
:10197000EAFF170EE926010EEA221C0EE926000EE8
:10198000EA2214C0EEFF15C0EDFFDF50200DF3CFAB
:10199000E9FFF4CFEAFF170EE926010EEA221F0E37
:1019A000E926000EEA22010EEF6EFD0EDBCFE6FF08
:1019B000FE0EDBCFE6FFDF50200DF3CFE9FFF4CFC3
:1019C000EAFF170EE926010EEA22E9CF14F0EACF6A
:1019D00015F014C0E6FF15C0E6FF59EC23F0E55200
:1019E000E552E552E552DF50200DF3CF14F0F4CF6D
:1019F00015F0170E1426010E1522030E14C0DBFF7E
:101A0000040E15C0DBFF010EDB6A200EF36E010E23
:101A1000DBCFF4FFF350F45C24E2010EDB50E76E01
:101A2000030EDBCFE9FF040EDBCFEAFFE750E92628
:101A3000000EEA22EF50E66E010EDBCFE6FF200E2D
:101A4000DF02F350E552E724E66EE66AA0EC24F0EC
:101A5000E552E552E55209EC00F00400010EDB2AE4
:101A6000D4D70101012B010102510CE1010EE66EF8
:101A7000E66A010EE66EE66A0ADBE552E552E552D9
:101A8000E5520CD0010EE66E010EE66E010EE66E1A
:101A9000E66AFDDAE552E552E552E552FD0EDBCF8E
:101AA000E6FFFE0EDBCFE6FFA0DAE552E55202D0FC
:101AB000DF2A2AD70101025103E10101010E006F63
:101AC000050EE15C02E2E16AE552E16EE552E7CF24
:101AD000D9FF1200D9CFE6FFE1CFD9FF050EE126ED
:101AE000020EE76EFD0EDBCFE9FFFE0EDBCFEAFF55
:101AF000E750E926000EEA22EF5030080AE1FD0E19
:101B0000DBCFE6FFFE0EDBCFE6FF6FDAE552E552F4
:101B10008AD1DF6A0A0EDF5C43E2DF50200DF3CF8B
:101B2000E9FFF4CFEAFF170EE926010EEA221E0EA6
:101B3000E926000EEA22EF5031E0DF50200DF3CF0E
:101B4000E9FFF4CFEAFF170EE926010EEA22E9CFFA
:101B500014F0EACF15F014C0E6FF15C0E6FFFD0E45
:101B6000DBCFE6FFFE0EDBCFE6FF39EC23F0E552DC
:101B7000E552E552E552000911E1DF50200DF3CFA7
:101B8000E9FFF4CFEAFF170EE926010EEA221F0E45
:101B9000E926000EEA22EF0401E145D1DF2ABAD797
:101BA00001010051030A01E18AD0020A01E03AD1A1
:101BB000DF6A0A0EDF5C01E381D0FD0EDBCFE6FFBA
:101BC000FE0EDBCFE6FF83DAE552E552E76E020E4A
:101BD000E7CFDBFF020EDB50FF086EE01C0EE66E67
:101BE000E66AE66A020EDB50200DF3CFE9FFF4CF80
:101BF000EAFF170EE926010EEA22E9CF14F0EACF38
:101C000015F014C0E6FF15C0E6FF1FEC23F0166EBA
:101C1000050EE15E16500400020EDB50200DF3CFDE
:101C200014F0F4CF15F0170E1426010E1522030E32
:101C300014C0DBFF040E15C0DBFF010EDB6A200EB3
:101C4000F36E010EDBCFF4FFF350F45C25E2010EDE
:101C5000DB50E76E030EDBCFE9FF040EDBCFEAFFBC
:101C6000E750E926000EEA22EF50E66E010EDBCFC8
:101C7000E6FF020EDB50200DF350E552E724E66E3E
:101C8000E66AA0EC24F0E552E552E55209EC00F0DA
:101C90000400010EDB2AD3D7010101510CE101013F
:101CA000006BE66AE66AE66A010EE66EF0D9E55276
:101CB000E552E552E552B7D0DF2A7BD7B4D0DF6AD0
:101CC0000A0EDF5C01E3ADD0FD0EDBCFE6FFFE0EBA
:101CD000DBCFE6FFFCD9E552E552E76E020EE7CF17
:101CE000DBFF020EDB50FF0801E199D01C0EE66E0F
:101CF000E66AE66A020EDB50200DF3CFE9FFF4CF6F
:101D0000EAFF170EE926010EEA22E9CF14F0EACF26
:101D100015F014C0E6FF15C0E6FF1FEC23F0166EA9
:101D2000050EE15E16500400020EDB50200DF3CFCD
:101D300014F0F4CF15F0170E1426010E1522030E21
:101D400014C0DBFF040E15C0DBFF010EDB6A200EA2
:101D5000F36E010EDBCFF4FFF350F45C25E2010ECD
:101D6000DB50E76E030EDBCFE9FF040EDBCFEAFFAB
:101D7000E750E926000EEA22EF50E66E010EDBCFB7
:101D8000E6FF020EDB50200DF350E552E724E66E2D
:101D9000E66AA0EC24F0E552E552E55209EC00F0C9
:101DA0000400010EDB2AD3D7010102511EE101011B
:101DB00001510DE10101006BE66AE66AE66A010E77
:101DC000E66E65D9E552E552E552E5520DD00101C6
:101DD000010E006FE66AE66A010EE66EE66A57D902
:101DE000E552E552E552E55219D0010101510BE1EE
:101DF000E66A010EE66EE66AE66A49D9E552E55200
:101E0000E552E5520BD0E66A010EE66E010EE66E73
:101E1000E66A3DD9E552E552E552E55204D0DF2AA3
:101E20004FD701D000D0050EE15C02E2E16AE55235
:101E3000E16EE552E7CFD9FF1200D9CFE6FFE1CF3F
:101E4000D9FF020EE126060104510601035D0BE1F4
:101E5000FD0EDBCFE9FFFE0EDBCFEAFFEE6AED6A97
:101E6000010EDB6A33D0060103511C0DF3CF14F0D1
:101E7000F4CF15F0050E1426060E1522FD0EDBCF4D
:101E8000E9FFFE0EDBCFEAFF14C0EEFF15C0EDFF49
:101E9000060103511C0DF3CF14F0F4CF15F0050E1D
:101EA0001426060E152214C0E6FF15C0E6FF93ECBB
:101EB00023F0E552E552010EF3CFDBFF0601032BC1
:101EC000100E0601035D02E30601036B010EDB50F9
:101ED00000D0146E020EE15C02E2E16AE552E16EAE
:101EE0001450E552E7CFD9FF1200D9CFE6FFE1CF7A
:101EF000D9FF0601000502E1000E0BD00601010E1C
:101F0000006FFE0EDBCF02F6FD0EDBCF01F6010EF9
:101F100000D0E552E7CFD9FF1200D9CFE6FFE1CFDD
:101F2000D9FFE652FE0EDB50200DF3CFE9FFF4CFD0
:101F3000EAFF170EE926010EEA221F0EE926000E1F
:101F4000EA22EF6AFE0EDB50200DF3CFE9FFF4CF5B
:101F5000EAFF170EE926010EEA22E9CF14F0EACFD4
:101F600015F014C0E6FF15C0E6FF3FD8E552E55274
:101F7000FE0EDB50200DF3CFE9FFF4CFEAFF170E82
:101F8000E926010EEA221F0EE926000EEA22EF5092
:101F9000E66EFE0EDB50200DF3501F0FE66EE66A74
:101FA000A0EC24F0E552E552E55209EC00F0040003
:101FB000DF6A0A0EDF5C13E2DF50200DF3CFE9FF8A
:101FC000F4CFEAFF170EE926010EEA221F0EE926DA
:101FD000000EEA22EF0401E103D0DF2AEAD780965F
:101FE000E552E552E7CFD9FF1200D9CFE6FFE1CFA6
:101FF000D9FFE652DF6AFD0EDBCFE9FFFE0EDBCF35
:10200000EAFFEF5024E0FD0EDBCFE9FFFE0EDBCF51
:10201000EAFFEF50E66E060104511C0DF3CF14F0F9
:10202000F4CF15F0050E1426060E1522DF500F0111
:102030001424E96E000E1520EA6EE552E750EF6EAB
:10204000DF2AFD0EDB2AFE0E01E3DB2AD4D70601D0
:1020500004511C0DF3CF14F0F4CF15F0050E142627
:10206000060E1522DF500F011424E96E000E152014
:10207000EA6EEF6A0601042B100E0601045D02E30E
:102080000601046BE552E552E7CFD9FF1200D9CF24
:10209000E6FFE1CFD9FFFE0EDB50E8B08080E8A07C
:1020A0008090FD0EDB50E8B08082E8A08092FC0EAC
:1020B000DB50E8B08084E8A08094FB0EDB50E8B0F1
:1020C0008086E8A08096E552E7CFD9FF1200D9CFED
:1020D000E6FFE1CFD9FF040EE126DF6A0A0EDF5CDE
:1020E00001E399D0DF50200DF3CFE9FFF4CFEAFFF1
:1020F000170EE926010EEA221E0EE926000EEA223C
:10210000EF5001E186D0DF50200DF3CFE9FFF4CF8F
:10211000EAFF170EE926010EEA221F0EE926000E3D
:10212000EA22EF0476E0DF50200DF3CFE9FFF4CF91
:10213000EAFF170EE926010EEA22E9CF14F0EACFF2
:1021400015F014C0E6FF15C0E6FFFD0EDBCFE6FF7D
:10215000FE0EDBCFE6FF39EC23F0E552E552E55207
:10216000E552000956E1DF50200DF3CFE9FFF4CF2F
:10217000EAFF170EE926010EEA221E0EE926000EDE
:10218000EA22EF0403E10101010713D0DF50200D23
:10219000F3CFE9FFF4CFEAFF170EE926010EEA229A
:1021A0001E0EE926000EEA22EF50030802E10101AB
:1021B0000207DF50200DF3CFE9FFF4CFEAFF170E3F
:1021C000E926010EEA221E0EE926000EEA22EF6A37
:1021D000DF50200DF3CFE9FFF4CFEAFF170EE92619
:1021E000010EEA221C0EE926000EEA22EE6AED6AD2
:1021F000DF50200DF3CFE9FFF4CFEAFF170EE926F9
:10220000010EEA221F0EE926000EEA22EF6ADF50D5
:1022100004D0DF2A63D7FF0E00D0146E040EE15CF9
:1022200002E2E16AE552E16E1450E552E7CFD9FFD0
:102230001200D9CFE6FFE1CFD9FF020EE126010E51
:10224000DB6ADF6A0A0EDF5C5BE2DF50200DF3CF52
:10225000E9FFF4CFEAFF170EE926010EEA221E0E6F
:10226000E926000EEA22EF0449E1DF50200DF3CF0A
:10227000E9FFF4CFEAFF170EE926010EEA221C0E51
:10228000E926000EEA22EE50ED1038E10101022BA2
:1022900001010107DF50200DF3CFE9FFF4CFEAFF82
:1022A000170EE926010EEA221E0EE926000EEA228A
:1022B000030EEF6EDF50200DF3CFE9FFF4CFEAFFFE
:1022C000170EE926010EEA221E0EE926000EEA226A
:1022D000EF50E66E200EDF02F3501E0FE66EE66A48
:1022E000A0EC24F0E552E552E55209EC00F00400C0
:1022F0000101030E006FDE52010EDD6EDF2AA2D750
:10230000010EDB5000D0146E020EE15C02E2E16AC5
:10231000E552E16E1450E552E7CFD9FF1200D9CF54
:10232000E6FFE1CFD9FFE652DF6A0A0EDF5C41E249
:10233000DF50200DF3CFE9FFF4CFEAFF170EE926B7
:10234000010EEA221E0EE926000EEA22EF502FE0CF
:10235000DF50200DF3CFE9FFF4CFEAFF170EE92697
:10236000010EEA22E9CF14F0EACF15F014C0E6FF1F
:1023700015C0E6FFFD0EDBCFE6FFFE0EDBCFE6FF6E
:1023800039EC23F0E552E552E552E55200090FE140
:10239000DF50200DF3CFE9FFF4CFEAFF170EE92657
:1023A000010EEA221F0EE926000EEA22EF6ADF2A5A
:1023B000BCD7E552E552E7CFD9FF1200D9CFE6FFEF
:1023C000E1CFD9FFFD0EDBCFE6FFFE0EDBCFE6FF50
:1023D0000D0EE66E010EE66E39EC23F0E552E55285
:1023E000E552E552000902E0000E02D0010E00D0D5
:1023F000E552E7CFD9FF1200D9CFE6FFE1CFD9FFF1
:10240000020EE1260101006B0101016B0101026B6B
:102410000101036B046B056B066B0101076B086B15
:10242000096B0A6B0201586B0601046B0601036B12
:10243000DE6ADD6ADECF14F0DDCF15F00A0E145C23
:10244000000E155860E2DECFE9FFDDCFEAFF050E92
:10245000D890E936EA36E806FBE1170EE926010EC8
:10246000EA221E0EE926000EEA22EF6ADECFE9FF1D
:10247000DDCFEAFF050ED890E936EA36E806FBE143
:10248000170EE926010EEA221C0EE926000EEA22AA
:10249000EE6AED6ADECFE9FFDDCFEAFF050ED890E8
:1024A000E936EA36E806FBE1170EE926010EEA22D4
:1024B0001F0EE926000EEA22EF6A1C0EE66EE66A9F
:1024C000E66ADECFE9FFDDCFEAFF050ED890E936F8
:1024D000EA36E806FBE1170EE926010EEA22E9CF0B
:1024E00014F0EACF15F014C0E6FF15C0E6FF1FECAC
:1024F00023F0166E050EE15E16500400DF2A010E71
:1025000001E3DB2A97D7DE6ADD6ADECF14F0DDCF88
:1025100015F0400E145C000E155812E2E66ADECF8C
:10252000E6FFDDCFE6FFA0EC24F0E552E552E552F0
:1025300009EC00F00400DF2A010E01E3DB2AE5D7F5
:10254000020157050BE1E66AE66AE66A010EE66EED
:102550009EDDE552E552E552E55209D0E66AE66AAB
:10256000E66AE66A94DDE552E552E552E552020E6E
:10257000E15C02E2E16AE552E16EE552E7CFD9FFA4
:102580001200D9CFE6FFE1CFD9FF030EE126FD0E01
:10259000DBCFE9FFFE0EDBCFEAFF010EEFCFDBFF63
:1025A000020EDB6A010EDB50A00A5BE0010A4DE07F
:1025B000030A19E0220A01E05FD0F90EDBCFE6FF43
:1025C000FA0EDBCFE6FF39DCE552E552E76E020E8C
:1025D000E7CFDBFFFB0EDBCFE9FFFC0EDBCFEAFF33
:1025E000800EEF6E54D0010EE76EFD0EDBCF14F0BF
:1025F000FE0EDBCF15F0E7501426000E152214C096
:10260000E6FF15C0E6FF8BDEE552E552010EE76EF0
:10261000FD0EDBCF14F0FE0EDBCF15F0E7501426D5
:10262000000E152214C0E6FF15C0E6FF6AEC0DF09F
:10263000E552E552FB0EDBCFE9FFFC0EDBCFEAFFF4
:10264000A20EEF6E020EDB6A22D0D6DEFB0EDBCFCF
:10265000E9FFFC0EDBCFEAFFA10EEF6E020EDB6A94
:1026600016D0020EDB6AFB0EDBCFE9FFFC0EDBCFE0
:10267000EAFFA00EEF6E0BD0020EDB6AFB0EDBCF83
:10268000E9FFFC0EDBCFEAFF920EEF6E00D0020EE8
:10269000DB5000D0146E030EE15C02E2E16AE55209
:0C26A000E16E1450E552E7CFD9FF1200A4
:0426AC00080EE66EC0
:1026B00015EC20F0E552E66AF7EC18F0E552A3ECD1
:1026C00018F0B8EC18F01200D9CFE6FFE1CFD9FF2F
:1026D000060EE126DF68D950020FE66E000EDA2002
:1026E000E66ED950030FE66E000EDA20E66E3CEC83
:1026F00021F0E552E552E552E552000901E114D31B
:10270000020EDBCFE6FF030EDBCFE6FF17DBE55261
:10271000E552DF6EFF0EDF5C01E106D30D010051D3
:10272000060A01E1E8D2030A01E19BD2010A01E1B4
:1027300081D20C0A01E14AD20B0A01E113D2040A48
:1027400001E1DAD1050A01E135D1030A01E190D0B6
:10275000010A01E0E8D2080EDF5C12E10D0123510D
:1027600000080DE2DFCFE6FF27EC20F0E5520D0177
:1027700023070D014751000802E20D01470777D0FA
:102780000A0EDF5C11E10D01235100080CE219EC87
:1027900018F0010EE66EF7EC18F0E552A3EC18F015
:1027A0000D01010E006F63D0130EDF5C0BE1090E0B
:1027B000E66EF7EC18F0E552A3EC18F00D01050EEB
:1027C000006F55D00C0EDF5C1CE1690EE66E0D0E3D
:1027D000E66EFEEC06F0E552E552FF0E0D01895D56
:1027E0000FE0690EE66E0D0EE66EC9EC18F0E552CC
:1027F000E552A3EC18F0B8EC18F00D01080E006FCC
:1028000036D00B0EDF5C1CE1480EE66E0D0EE66E58
:1028100088EC03F0E552E552FF0E0D01685D0FE014
:10282000480EE66E0D0EE66EC9EC18F0E552E55264
:10283000A3EC18F0B8EC18F00D01030E006F17D0E0
:102840000D012351EA6A020FE96E0D0EEA22DFCF75
:10285000EFFF0D012351EA6A020FE96E0D0EEA2225
:10286000EF50E66E27EC20F0E5520D01232B5CD2F1
:10287000080EDF5C17E10D012351000808E2DFCFED
:10288000E6FF27EC20F0E5520D0123070AD0E66AA7
:10289000F7EC18F0E552A3EC18F0B8EC18F00D01C5
:1028A000006B87D0DF50360A6FE0030A59E0010A57
:1028B00043E0070A2DE0010A17E0030A01E078D09F
:1028C000020EE66E3DEC19F0E5520D014751EA6A41
:1028D000260FE96E0D0EEA22310EEF6E0D01472B29
:1028E0000D01070E006F65D0030EE66E3DEC19F08A
:1028F000E5520D014751EA6A260FE96E0D0EEA22F4
:10290000320EEF6E0D01472B0D01070E006F51D0F7
:10291000040EE66E3DEC19F0E5520D014751EA6AEE
:10292000260FE96E0D0EEA22330EEF6E0D01472BD6
:102930000D01070E006F3DD0050EE66E3DEC19F05F
:10294000E5520D014751EA6A260FE96E0D0EEA22A3
:10295000340EEF6E0D01472B0D01070E006F29D0CD
:10296000060EE66E3DEC19F0E5520D014751EA6A9C
:10297000260FE96E0D0EEA22350EEF6E0D01472B84
:102980000D01070E006F15D0070EE66E3DEC19F035
:10299000E5520D014751EA6A260FE96E0D0EEA2253
:1029A000360EEF6E0D01472B0D01070E006F01D0A3
:1029B00000D0BAD1080EDF5C1DE10D0123510008E3
:1029C00008E2DFCFE6FF27EC20F0E5520D012307F8
:1029D0000CD0010EE66EF7EC18F0E552B4DB0D01F9
:1029E000020E476F0D01010E006F0D0124690D01EC
:1029F000256B81D00A0EDF5C19E10D01235100081F
:102A000010E26CDB260EE66E0D0EE66E46EC0CF068
:102A1000E552E552E66AEBDBE55295DBA9DB0D01F9
:102A2000006B0D0124690D01256B65D0030EDB5091
:102A30000D01245D43E1140EF36E020EDBCFF4FFB3
:102A4000F350F45C1FE20D0123070D012351EA6AE4
:102A5000020FE96E0D0EEA22DFCFEFFF080EE66EE1
:102A600027EC20F0E5520D012351EA6A020FE96ECE
:102A70000D0EEA22EF50E66E27EC20F0E5520D0134
:102A8000232B1BD00D012351EA6A020FE96E0D0EB4
:102A9000EA22DFCFEFFF0D012351EA6A020FE96E50
:102AA0000D0EEA22EF50E66E27EC20F0E5520D0104
:102AB000232B0D0124690D01256B1AD00D01235123
:102AC000EA6A020FE96E0D0EEA22DFCFEFFF0D0179
:102AD0002351EA6A020FE96E0D0EEA22EF50E66E0C
:102AE00027EC20F0E5520D01232B030EDBCF24FD54
:102AF000030EDBCF24FD18D1080EDF5C0CE1010EC4
:102B0000E66E75DBE5521FDB0D01020E476F0D010E
:102B1000010E006F26D00A0EDF5C23E10D01470590
:102B2000EA6A260FE96E0D0EEA22EF50360809E137
:102B3000080EE66E5CDBE55206DB0D01020E006F4F
:102B400010D0CCDA260EE66E0D0EE66E46EC0CF0DA
:102B5000E552E552E66A4BDBE552F5DA09DB0D0199
:102B6000006BE2D0080EDF5C08E1E66A40DBE5526C
:102B7000EADAFEDA0D01006B28D00B0EDF5C14E1FF
:102B8000480EE66E0D0EE66E88EC03F0E552E55257
:102B9000FF0E0D01685D07E0480EE66E0D0EE66E55
:102BA000F8DAE552E55211D00A0EDF5C0EE168CD8D
:102BB000E6FF8DEC0FF0E5520D016869E66A17DB60
:102BC000E552C1DAD5DA0D01006BAED0080EDF5C3C
:102BD00008E1E66A0CDBE552B6DACADA0D01006BF1
:102BE00028D00C0EDF5C14E1690EE66E0D0EE66E69
:102BF000FEEC06F0E552E552FF0E0D01895D07E09F
:102C0000690EE66E0D0EE66EC4DAE552E55211D09D
:102C10000A0EDF5C0EE189CDE6FF74EC0AF0E552A6
:102C20000D018969E66AE3DAE5528DDAA1DA0D0170
:102C3000006B7AD0080EDF5C07E1E66AD8DAE5526D
:102C400082DA0D01006B0CD00A0EDF5C09E1FCECAE
:102C500011F079DA8DDAE66ACADAE5520D01006B15
:102C600063D0080EDF5C08E1E66AC1DAE5526BDA90
:102C70007FDA0D01006B3ED00A0EDF5C2BE1050E02
:102C8000DB6A0D012351EA6A020FE96E0D0EEA229A
:102C9000EF6A020EE66E0D0EE66EDEEC11F0E55206
:102CA000E552E76E050EE7CFDBFF050EDB040AE118
:102CB0000A0EE66E9CDAE55246DA5ADA0D01060E85
:102CC000006F07D0E66A93DAE5523DDA51DA0D017A
:102CD000006B10D00D012351EA6A020FE96E0D0E50
:102CE000EA22DFCFEFFF2A0EE66E27EC20F0E55256
:102CF0000D01232B19D0080EDF5C08E1E66A77DAB4
:102D0000E55221DA35DA0D01006B0CD0300EDF5CB4
:102D100009E10B0EE66E6BDAE55215DA29DA0D01E0
:102D2000040E006F01D000D0060EE15C02E2E16A01
:102D3000E552E16EE552E7CFD9FF1200D9CFE6FFA9
:102D4000E1CFD9FFE652DF680D010051060A01E12B
:102D500021D1020A01E108D1010A01E1F6D00D0AF0
:102D600001E1DAD00B0A01E1BED0010A01E179D01C
:102D7000050A61E0060A37E0010A01E024D1FE0EEF
:102D8000DB50050DF3CFF6FFF4CFF7FF740EF626F8
:102D90004B0EF7220800F550DF6E020E0D01235D89
:102DA00008E3080EDF5C04E00A0EDF5C01E0DF6888
:102DB00019D00D012351000811E20D0123510EE03D
:102DC0002A0EDF5C09E00B0EDF5C06E00C0EDF5C18
:102DD00003E0130EDF5C01E1DF6804D02A0EDF5C44
:102DE00001E1DF68F1D0FE0EDB50050DF3CFF6FFF9
:102DF000F4CFF7FF740EF6264B0EF7220800F550BD
:102E0000DF6E310EDF5C16E0320EDF5C13E0330E56
:102E1000DF5C10E0340EDF5C0DE0350EDF5C0AE0B5
:102E2000360EDF5C07E0080EDF5C04E00A0EDF5CB4
:102E300001E0DF68C9D0FE0EDB50050DF3CFF6FFD1
:102E4000F4CFF7FF740EF6264B0EF7220800F5506C
:102E5000DF6E0A0EDF5C04E0080EDF5C01E0DF6875
:102E6000B3D0FE0EDB500D01245D14E1140EF36EA1
:102E7000FD0EDBCFF4FFF350F45C09E20D01252BCE
:102E8000050E0D01255D02E30D01256B02D00D013C
:102E9000256B02D00D01256BFE0EDB50050DF3CF27
:102EA00014F0F4CF15F0740E14264B0E15220D01FC
:102EB00025510F011424F66E000E1520F76E080040
:102EC000F550DF6E0C0EDF5C03E00B0EDF5C02E101
:102ED000DF6808D00A0EDF5C03E0080EDF5C02E169
:102EE0000D01256B71D0FE0EDB50050DF3CFF6FF03
:102EF000F4CFF7FF740EF6264B0EF7220800F550BC
:102F0000DF6E0A0EDF5C07E0080EDF5C04E00B0EEC
:102F1000DF5C01E0DF6858D0FE0EDB50050DF3CF1B
:102F2000F6FFF4CFF7FF740EF6264B0EF7220800DB
:102F3000F550DF6E0A0EDF5C07E0080EDF5C04E090
:102F40000C0EDF5C01E0DF683FD0FE0EDB50050DAC
:102F5000F3CFF6FFF4CFF7FF740EF6264B0EF722F1
:102F60000800F550DF6E30D0FE0EDB50050DF3CFBC
:102F7000F6FFF4CFF7FF740EF6264B0EF72208008B
:102F8000F550DF6E0A0EDF5C04E0080EDF5C01E046
:102F9000DF681AD0FE0EDB50050DF3CFF6FFF4CF3D
:102FA000F7FF740EF6264B0EF7220800F550DF6E81
:102FB000300EDF5C07E0080EDF5C04E00A0EDF5C29
:102FC00001E0DF6801D000D0DF5000D0E552E552CB
:102FD000E7CFD9FF1200D9CFE6FFE1CFD9FFFE0E30
:102FE000DB50010A17E0030A0BE0020A01E01CD0E3
:102FF000E66AFDD8E552A7D8BBD80D01006B15D005
:10300000080EE66EF4D8E5529ED8B2D80D01020E35
:10301000006F0BD0010EE66EEAD8E55294D8A8D81E
:103020000D01010E006F01D000D0E552E7CFD9FFAE
:103030001200D9CFE6FFE1CFD9FF020EE126010E43
:10304000DB6A0D01230517E10D014751EA6A260FDE
:10305000E96E0D0EEA22300EEF6E0D01472B0D01C9
:103060004751EA6A260FE96E0D0EEA2202CDEFFF04
:103070000D01472B16D00D014751EA6A260FE96E64
:103080000D0EEA2202CDEFFF0D01472B0D01475136
:10309000EA6A260FE96E0D0EEA2203CDEFFF0D015D
:1030A000472B300E0D01275D146E300E0D01265D8D
:1030B0000A0DF3501424E76E010EE7CFDBFF010E7B
:1030C000DB5000D0146E020EE15C02E2E16AE552D0
:1030D000E16E1450E552E7CFD9FF1200D9CFE6FFD9
:1030E000E1CFD9FFE652DF6A0D012351DF5C16E222
:1030F000DF50EA6A020FE96E0D0EEA22EF50E66E2B
:103100000D014751EA6A260FE96E0D0EEA22E552DB
:10311000E750EF6E0D01472BDF2AE6D70D0147512F
:10312000EA6A260FE96E0D0EEA22EF6A0D01472BBF
:10313000200E0D01475D02E30D01476BE552E5529C
:10314000E7CFD9FF1200200EE66EE66AE66A020EAD
:10315000E66E0D0EE66E1FEC23F0146E050EE15EBA
:1031600014500D01236B0D01256B0D012469120014
:10317000200EE66EE66AE66A260EE66E0D0EE66E36
:103180001FEC23F0146E050EE15E14500D01476B29
:103190001200D9CFE6FFE1CFD9FFE65220EC20F0B4
:1031A000DF6ADF50E76EFD0EDBCFE9FFFE0EDBCFFF
:1031B000EAFFE750E926000EEA22EF5013E0DF5065
:1031C000E76EFD0EDBCFE9FFFE0EDBCFEAFFE75037
:1031D000E926000EEA22EF50E66E27EC20F0E552D9
:1031E000DF2ADFD7E552E552E7CFD9FF1200D9CF6A
:1031F000E6FFE1CFD9FF030EE126FE0EEA6ADB34DB
:10320000FE0BEA36E96ED30EE9260D0EEA22010E18
:10321000EECFDBFF020EEDCFDBFF20EC20F0DF6A0C
:10322000DF50E76E010EDBCFF6FF020EDBCFF7FFBC
:10323000E750F626000EF7220800F55014E0DF50A4
:10324000E76E010EDBCFF6FF020EDBCFF7FFE75094
:10325000F626000EF7220800F550E66E27EC20F067
:10326000E552DF2ADDD7030EE15C02E2E16AE552B6
:10327000E16EE552E7CFD9FF1200D9CFE6FFE1CFEB
:10328000D9FF030EE126FE0EEA6ADB34FE0BEA36B6
:10329000E96ED30EE9260D0EEA22010EEECFDBFF1A
:1032A000020EEDCFDBFFDF6ADF50E76E010EDBCFF2
:1032B000F6FF020EDBCFF7FFE750F626000EF722EF
:1032C0000800F55014E0DF50E76E010EDBCFF6FF8B
:1032D000020EDBCFF7FFE750F626000EF7220800BC
:1032E000F550E66E27EC20F0E552DF2ADDD7030E1D
:1032F000E15C02E2E16AE552E16EE552E7CFD9FF17
:023300001200B9
:0E330200DACFE4FFE2CFDAFFE9CFE4FFEACF53
:10331000E4FFF6CFE4FFF7CFE4FFF5CFE4FFF3CF10
:10332000E4FFF4CFE4FFFACFE4FF00EE00F0140E68
:10333000E80403E3EECFE4FFFBD700EE14F0080E41
:10334000E80403E3EECFE4FFFBD7E652D9CFE6FF74
:10335000E1CFD9FFE65204EC26F0DF6E0C01895173
:10336000892BEA6A8C0FE96E0C0EEA22DFCFEFFFA1
:10337000800E0C01895D02E30C01896B0C018B2B23
:10338000A49AE552E552E7CFD9FFE55200EE1BF0D3
:10339000080EE80403E3E5CFEDFFFBD700EE13F0E2
:1033A000140EE80403E3E5CFEDFFFBD7E5CFFAFF0A
:1033B000E5CFF4FFE5CFF3FFE5CFF5FFE5CFF7FF6E
:1033C000E5CFF6FFE5CFEAFFE5CFE9FFE5CFDAFF8E
:1033D0001100DACFE4FFE2CFDAFFE9CFE4FFEACF72
:1033E000E4FFE652D9CFE6FFE1CFD9FFE6520B0169
:1033F000025104E1ACA2FED7AC9A21D00B010151DD
:10340000EA6A030FE96E0B0EEA22EFCFDFFFDF500F
:10341000AD6E0B01012B800E0B01015D02E30B0170
:10342000016B000E0B01E76E0219E8AE02D0023507
:1034300003D0E750D880025502E20B010207E552A3
:10344000E552E7CFD9FFE552E5CFEAFFE5CFE9FF47
:10345000E5CFDAFF1100DACFE4FFE2CFDAFFE9CF00
:10346000E4FFEACFE4FFE652D9CFE6FFE1CFD9FF90
:10347000E6520C01085104E172A2FED7729A21D0E3
:103480000C010751EA6A090FE96E0C0EEA22EFCF30
:10349000DFFFDF50736E0C01072B800E0C01075D00
:1034A00002E30C01076B000E0C01E76E0819E8AE91
:1034B00002D0083503D0E750D880085502E20C014D
:1034C0000807E552E552E7CFD9FFE552E5CFEAFF1D
:1034D000E5CFE9FFE5CFDAFF1100D9CFE6FFE1CF75
:1034E000D9FFE6527C0EDF6E0F0EE66EE66ADFCF86
:1034F000E6FF53EC25F0E552E552E552AC8AAC9E6E
:10350000E552E552E7CFD9FF1200D9CFE6FFE1CF70
:10351000D9FFE6527C0EDF6E670EE66EE66ADFCFFD
:10352000E6FFDCEC24F0E552E552E552D08E718ED8
:10353000728A729EA38AA58AE552E552E7CFD9FF27
:103540001200D9CFE6FFE1CFD9FFACA2FED70B0125
:103550000051002BEA6A030FE96E0B0EEA22FE0E01
:10356000DBCFEFFF0B01022B800E0B01005D02E3AE
:103570000B01006B010E00D0E552E7CFD9FF12001E
:10358000D9CFE6FFE1CFD9FF72A2FED70C010651D9
:10359000062BEA6A090FE96E0C0EEA22FE0EDBCF5B
:1035A000EFFF0C01082B800E0C01065D02E30C01FD
:1035B000066B010E00D0E552E7CFD9FF1200D9CF3C
:1035C000E6FFE1CFD9FF060EE126010EF36E020EF3
:1035D000F3CFDBFF030EDB6A020EDBCF14F0DB065A
:1035E000030EDBCF15F001E2DB061450151006E0E8
:1035F000040EE66E98EC26F0E552EED7000E0B01B5
:10360000E76E0219E8AE02D0023503D0E750D88049
:10361000025528E20B010151EA6A030FE96E0B0E15
:10362000EA22010EEFCFDBFFACA2FED7010EDB508A
:10363000AD6EACA2FED70B01012B800E0B01015D1C
:1036400002E30B01016B000E0B01E76E0219E8AEFD
:1036500002D0023503D0E750D880025502E20B01B8
:103660000207CCD7010EF36E040EF3CFDBFF050E7D
:10367000DB6A040EDBCF14F0DB06050EDBCF15F0A2
:1036800001E2DB061450151006E0040EE66E98EC1D
:1036900026F0E552EED7146E060EE15C02E2E16A16
:1036A000E552E16E1450E552E7CFD9FF1200D9CFB1
:1036B000E6FFE1CFD9FF060EE126010EF36E020E02
:1036C000F3CFDBFF030EDB6A020EDBCF14F0DB0669
:1036D000030EDBCF15F001E2DB061450151006E0F7
:1036E000040EE66E98EC26F0E552EED7000E0C01C3
:1036F000E76E0819E8AE02D0083503D0E750D8804D
:10370000085528E20C010751EA6A090FE96E0C0E10
:10371000EA22010EEFCFDBFF72A2FED7010EDB50D3
:10372000736E72A2FED70C01072B800E0C01075D91
:1037300002E30C01076B000E0C01E76E0819E8AEFE
:1037400002D0083503D0E750D880085502E20C01BA
:103750000807CCD7010EF36E040EF3CFDBFF050E86
:10376000DB6A040EDBCF14F0DB06050EDBCF15F0B1
:1037700001E2DB061450151006E0040EE66E98EC2C
:1037800026F0E552EED7146E060EE15C02E2E16A25
:10379000E552E16E1450E552E7CFD9FF1200D9CFC0
:1037A000E6FFE1CFD9FFE652DF6AA39A000E0C01D3
:1037B000E76E8B19E8AE02D08B3503D0E750D88086
:1037C0008B5502E2010EDF6EA38ADF5000D0E55276
:1037D000E552E7CFD9FF1200D9CFE6FFE1CFD9FFFD
:1037E000E652DF6A9D9A000E0B01E76E8519E8AE7E
:1037F00002D0853503D0E750D880855502E2010E0E
:10380000DF6E9D8ADF5000D0E552E552E7CFD9FF49
:103810001200D9CFE6FFE1CFD9FFE6529D9A0B0106
:103820008451842BEA6A860FE96E0B0EEA22EFCFF1
:10383000DFFF800E0B01845D02E30B01846B000E41
:103840000B01E76E8519E8AE02D0853503D0E7504D
:10385000D880855502E20B0185079D8ADF5000D094
:10386000E552E552E7CFD9FF1200D9CFE6FFE1CF0D
:10387000D9FFE652A39A0C018A518A2BEA6A8C0F6F
:10388000E96E0C0EEA22EFCFDFFF800E0C018A5D9D
:1038900002E30C018A6B000E0C01E76E8B19E8AE97
:1038A00002D08B3503D0E750D8808B5502E20C0153
:1038B0008B079D8ADF5000D0E552E552E7CFD9FF54
:0238C0001200F4
:0E38C200D9CFE6FFE1CFD9FFFE0EDBCF01F933
:1038D000FD0EDBCF02F9FC0EDBCF03F9FB0EDBCFD5
:1038E00004F9F90EDBCF09FAFA0EDBCF0AFA04D895
:1038F000E552E7CFD9FF12006DEC1AF00A01056B13
:103900000A01066B0901010E006F0A01076B0A012B
:10391000050E086F0FCA0BFA10CA0CFA11CA0DFA7D
:1039200012CA0EFA00C913FA12000A01056B0A0145
:10393000066B0901010E006F0A01076B0A01050EF3
:10394000086F0FCA0BFA10CA0CFA11CA0DFA12CA84
:103950000EFA00C913FA1200D9CFE6FFE1CFD9FF62
:10396000060EE126DF6A21EC24F006C00FFA07C03C
:1039700010FA08C011FA09C012FA0B0EE96E0A0E0D
:10398000EA6EEE500A010F190CE1EE500A0110190F
:1039900008E1EE500A01111904E1EE500A01121972
:1039A00000E118E0090100510A01135D0BE1020E6C
:1039B0000901005D07E10A0108070A01085102E157
:1039C0009BDFD3D00FCA0BFA10CA0CFA11CA0DFA3A
:1039D00012CA0EFA09010051030A01E1BFD0010A1F
:1039E00018E0030A01E0BDD0ECEC1BF0000901E196
:1039F000BCD009EC1CF0DF6E09010151DF5C08E16D
:103A00000A01056B0901020E006F0A01050E086F1D
:103A1000AAD0ECEC1BF0000901E1A7D009EC1CF0E6
:103A2000DF6E09010251DF5C01E07CD0020EDB6A2F
:103A3000030EDB68D950030FE66E000EDA20E66E47
:103A40009ED8E552E552E76E020EE7CFDBFF020E8D
:103A5000DB50020A58E0030A05E0010A01E05DD0EC
:103A600064DF83D00A0109510A114BE0D950040FD9
:103A7000E66E000EDA20E66E070EE66E0A0EE66EC1
:103A8000070EE66E090EE66E05D00ACAFAFF0A01B5
:103A90000951F96EFADF146E060EE15E14500A0148
:103AA000066F0901FA0E856F0A01062B07CA86F90F
:103AB0000A01062BDE52020EDD6E0A010651F36E7C
:103AC000010EDBCFF4FFF350F45C1AE2040EDBCFFF
:103AD000E9FF050EDBCFEAFFEF50E66E010EDB508B
:103AE000EA6A850FE96E090EEA22E552E750EF6EA9
:103AF000040EDB2A050E01E3DB2A010EDB2ADDD7EB
:103B000001D013DF0BD00901FA0E856F0A01062BD5
:103B100007CA86F90A01062B01D000D00901030E5D
:103B2000006F1BD00A010551052BEA6A050FE96EEB
:103B3000090EEA22DFCFEFFF800E0A01055D0DE3DB
:103B40000901FA0E856F0A01062B0901900E866F96
:103B50000A01062B0901030E006F05D061D8E5DECE
:103B600002D0E3DE00D000C913FA060EE15C02E2E7
:103B7000E16AE552E16EE552E7CFD9FF1200D9CFF5
:103B8000E6FFE1CFD9FF020EE1260A010505EA6A48
:103B9000050FE96E090EEA22EFCFDFFF010EDB6AA7
:103BA000FA0E0901055D06E0FA0E0901055D02E065
:103BB000000E2AD00A010505E66E050EE66E090E16
:103BC000E66E9CD8E552E552E552E76E010EE7CF6E
:103BD000DBFF010EDB50DF5C0DE10A0105070A0186
:103BE0000551EA6A050FE96E090EEA22EF6A010E35
:103BF0000BD00AD0FD0EDBCFE9FFFE0EDBCFEAFFD4
:103C0000910EEF6E000E00D0146E020EE15C02E227
:103C1000E16AE552E16E1450E552E7CFD9FF120098
:103C2000D9CFE6FFE1CFD9FF020EE126DF6A010E10
:103C3000DB6A06CAE6FF850EE66E090EE66E5ED802
:103C4000E552E552E552DF6E03C9E6FFA1EC1AF03A
:103C5000E552010EDB6A0A010651F36E010EDBCF5D
:103C6000F4FFF350F45C0FE2010EDB50EA6A850FBB
:103C7000E96E090EEA22EF50E66EA1EC1AF0E55269
:103C8000010EDB2AE8D7DFCFE6FFA1EC1AF0E55200
:103C900004C9E6FFA1EC1AF0E552DFEC1AF0020EBF
:103CA000E15C02E2E16AE552E16EE552E7CFD9FF5D
:103CB0001200D9CFE6FFE1CFD9FFFD0EDBCFF6FF33
:103CC000FE0EDBCFF7FF0800F55012E0FD0EDBCF54
:103CD000F6FFFE0EDBCFF7FF0800F550E66EA1EC15
:103CE0001AF0E552FD0EDB2AFE0E01E3DB2AE5D7D2
:103CF000DFEC1AF0E552E7CFD9FF1200D9CFE6FF8B
:103D0000E1CFD9FF030EE126DF6A010EDB6AFC0E6C
:103D1000DB50F36E010EDBCFF4FFF350F45C12E2E4
:103D2000010EDB50E76EFD0EDBCFE9FFFE0EDBCFB1
:103D3000EAFFE750E926000EEA22EF50DF1A010EF3
:103D4000DB2AE5D7DF5000D0146E030EE15C02E2FF
:103D5000E16AE552E16E1450E552E7CFD9FF120057
:103D6000D9CFE6FFE1CFD9FF030EE126300EF36E87
:103D7000010EF3CFDBFF750EF36E020EF3CFDBFF08
:103D8000010EDF6EDF0425E10ADA000000008392F5
:103D90008384000000008386000000008350800BB5
:103DA00001E0010EDF6E839683860000000083969B
:103DB000010EDB06020E01E2DB06D950010FE96EAF
:103DC000DACFEAFFEE50ED1003E1F1D9FF0E04D097
:103DD000D9D7EDD9000E00D0146E030EE15C02E2DB
:103DE000E16AE552E16E1450E552E7CFD9FF1200C7
:103DF000D9CFE6FFE1CFD9FF839283940000FE0E76
:103E0000DB50F00B146E0F0E8C1414108C6E00002F
:103E10008386000000008396E552E7CFD9FF1200A9
:103E2000D9CFE6FFE1CFD9FF9BDF839283940000D7
:103E3000FE0EDB50F00B146E0F0E8C1414108C6EF3
:103E400000008386000000008396FE0EDB38F00B36
:103E5000F00B146E0F0E8C1414108C6E0000838601
:103E6000000000008396E552E7CFD9FF1200D9CFBA
:103E7000E6FFE1CFD9FF74DF838283940000FE0E5A
:103E8000DB50F00B146E0F0E8C1414108C6E0000AF
:103E90008386000000008396FE0EDB38F00BF00BEB
:103EA000146E0F0E8C1414108C6E000083860000AC
:103EB00000008396E552E7CFD9FF1200D9CFE6FF85
:103EC000E1CFD9FF0B0EE12672D9280EF36E010E59
:103ED000F3CFDBFF020EDB6A010EDBCF14F0DB0653
:103EE000020EDBCF15F001E2DB061450151006E0E0
:103EF000040EE66E98EC26F0E552EED7300EE66E34
:103F000077DFE5520A0EF36E030EF3CFDBFF040EEC
:103F1000DB6A030EDBCF14F0DB06040EDBCF15F0FB
:103F200001E2DB061450151006E0040EE66E98EC74
:103F300026F0E552EED7300EE66E5ADFE5520A0E55
:103F4000F36E050EF3CFDBFF060EDB6A050EDBCF4B
:103F500014F0DB06060EDBCF15F001E2DB06145091
:103F6000151006E0040EE66E98EC26F0E552EED74A
:103F7000300EE66E3DDFE5520A0EF36E070EF3CF0C
:103F8000DBFF080EDB6A070EDBCF14F0DB06080E42
:103F9000DBCF15F001E2DB061450151006E0040E2D
:103FA000E66E98EC26F0E552EED7200EE66E20DFA6
:103FB000E5520A0EF36E090EF3CFDBFF0A0EDB6A41
:103FC000090EDBCF14F0DB060A0EDBCF15F001E2A1
:103FD000DB061450151006E0040EE66E98EC26F091
:103FE000E552EED7280EE66E1BDFE552B9DEDF6E36
:103FF000DF5010E10F0EE66E13DFE552010EE66EA4
:104000000FDFE552040EE66E0BDFE552060EE66E9C
:1040100007DFE55200D00B0EE15C02E2E16AE552F7
:10402000E16EE552E7CFD9FF1200D9CFE6FFE1CF2D
:10403000D9FFFE0EDBCF1FFEE552E7CFD9FF1200FE
:10404000010EE66EEDDEE5520E011E6B1200D9CFB9
:10405000E6FFE1CFD9FFE652FE0EDB500E011F5DF9
:1040600025E10E011E5101E13BD0100E0E011E5D37
:104070000EE1800EE66ED4DEE552DF6A100EDF5CE4
:1040800006E2140EE66ECCDEE552DF2AF7D7100EFC
:10409000E66EC6DEE552200EE66EE9DEE552100E53
:1040A000E66EBEDEE5520E011E071AD0100E0E019E
:1040B0001E5D05E1C00EE66EB3DEE5520AD0200EAD
:1040C0000E011E5D06E30E011E6B020EE66EA8DEFB
:1040D000E552FE0EDBCFE6FFCADEE5520E011E2BD7
:1040E000E552E552E7CFD9FF1200E8DE010EE66E99
:1040F00097DEE5520E011E6B1200D9CFE6FFE1CF2D
:10410000D9FFE652010EE66E8BDEE552DF6A100E35
:10411000DF5C1CE2FD0EDBCFE9FFFE0EDBCFEAFF2A
:10412000EF50E66EDF50EA6A200FE96E0E0EEA22CB
:10413000E552E750EF6EFD0EDBCFE9FFDB2AFE0E06
:10414000DBCFEAFF01E3DB2ADF2AE1D7C00EE66E10
:1041500067DEE552DF6A100EDF5C1CE2FD0EDBCF8E
:10416000E9FFFE0EDBCFEAFFEF50E66EDF50EA6AB2
:10417000200FE96E0E0EEA22E552E750EF6EFD0EBB
:10418000DBCFE9FFDB2AFE0EDBCFEAFF01E3DB2A10
:10419000DF2AE1D7E552E552E7CFD9FF1200958E2D
:1041A000958C958A95889596959495921200959EF2
:0E41B000959C959A95989596959495921200E7
:0241BE000D01F1
:1041C000CD6B0D01CE6B0D019E6B0D019F6B0D0133
:1041D000A06B0D01A1690D01A26B1200D9CFE6FF02
:1041E000E1CFD9FF020EE1260D01D02B000ED12325
:1041F000D9CFE6FFDACFE6FF8FD8E552E5520009C6
:1042000001E130D00D01CD510D01CE5D04E10D0174
:10421000CE6B0D01CD6B0D01CE51E96EEA6AD890DF
:10422000E936EA36A30EE9260D0EEA22DFCFEFFFCC
:104230000D01CE51E96EEA6AD890E936EA36A30E4E
:10424000E9260D0EEA22010EE926000EEA22D0CD63
:10425000EFFF140E0D01CE5D02E20D01CE2B0D011C
:10426000D06BD16B020EE15C02E2E16AE552E16ED5
:10427000E552E7CFD9FF1200D9CFE6FFE1CFD9FF52
:104280000D01CE510D01CD5D34E20D01CD51E96E30
:10429000EA6AD890E936EA36A30EE9260D0EEA223C
:1042A000EF50E66EFD0EDBCFE9FFFE0EDBCFEAFF3F
:1042B000E552E750EF6E0D01CD51E96EEA6AD890F4
:1042C000E936EA36A30EE9260D0EEA22010EE926AA
:1042D000000EEA22EF50E66EFB0EDBCFE9FFFC0E8C
:1042E000DBCFEAFFE552E750EF6E0D01CD2B010E5B
:1042F00002D0000E00D0E552E7CFD9FF12000D0129
:10430000CE6B0D01CD6B0D019E6B0D019F6B0D01F1
:10431000A06B0D01A1691200D9CFE6FFE1CFD9FF53
:10432000E652DF68010E146E8150800B01E0010E31
:10433000145C70E18150200B01E0010E166E81507B
:10434000040B01E0010EE824156E8150100B01E012
:10435000010E040DF3CF14F08150080B01E0010EA3
:10436000080DF3501410151016100F0BDF6EDF50F0
:104370000F0A4BE0010A46E0030A41E0010A3CE073
:10438000070A37E0010A32E0030A2EE0010A29E0B9
:104390000F0A24E0010A1FE0030A1AE0010A15E0EF
:1043A000070A10E0010A0BE0030A06E0010A01E037
:1043B0002FD0050EDF6E2ED0060EDF6E2BD0090E2D
:1043C000DF6E28D00A0EDF6E25D0020EDF6E22D0FF
:1043D000010EDF6E1FD0030EDF6E1CD0070EDF6EE6
:1043E00019D0040EDF6E16D0DF6A14D00B0EDF6E0C
:1043F00011D00F0EDF6E0ED00C0EDF6E0BD0080E3C
:10440000DF6E08D00E0EDF6E05D00D0EDF6E02D00F
:10441000DF6800D0FF0EDF5C06E10D01D2690D01FF
:10442000CF69000E18D00D01D251DF5C10E10D01F3
:10443000CF51DF5C0CE0FD0EDBCFE9FFFE0EDBCFE2
:10444000EAFFDFCFEFFFDFCFCFFD010E04D0DFCFDC
:10445000D2FD000E00D0E552E552E7CFD9FF1200A1
:10446000DACFE4FFE2CFDAFFE9CFE4FFEACFE4FFFF
:10447000F6CFE4FFF7CFE4FFF5CFE4FFF3CFE4FF9F
:10448000F4CFE4FFFACFE4FF00EE00F0140EE804EE
:1044900003E3EECFE4FFFBD700EE14F0080EE804D0
:1044A00003E3EECFE4FFFBD7E652F2940E010E2BAE
:1044B000000E0F230E01102B000E11230E01122BE4
:1044C000000E13230E01142B000E15230E01162BC4
:1044D000000E17230E011807000E195B0E01193587
:1044E00004E218510008000E19550AE30E011A2BB8
:1044F000000E1B231C231D23C80E0E01186F196B01
:104500000E010251031107E005D003CEFAFF0E01A0
:104510000251F96EFADF00CEE6FF01CEE6FF60EC55
:1045200026F0E552E552E55200EE1BF0080EE804D5
:1045300003E3E5CFEDFFFBD700EE13F0140EE80424
:1045400003E3E5CFEDFFFBD7E5CFFAFFE5CFF4FFBF
:10455000E5CFF3FFE5CFF5FFE5CFF7FFE5CFF6FFBA
:10456000E5CFEAFFE5CFE9FFE5CFDAFF1100DACFCB
:10457000E4FFE2CFDAFFE9CFE4FFEACFE4FFF6CFD2
:10458000E4FFF7CFE4FFF5CFE4FFF3CFE4FFF4CF90
:10459000E4FFFACFE4FF00EE00F0140EE80403E3BA
:1045A000EECFE4FFFBD700EE14F0080EE80403E3BF
:1045B000EECFE4FFFBD7E652D9CFE6FFE1CFD9FF3C
:1045C000E65223EC26F0DF6E0B018351832BEA6A5F
:1045D000860FE96E0B0EEA22DFCFEFFF800E0B0194
:1045E000835D02E30B01836B0B01852B9E9AE552E1
:1045F000E552E7CFD9FFE55200EE1BF0080EE804C4
:1046000003E3E5CFEDFFFBD700EE13F0140EE80453
:1046100003E3E5CFEDFFFBD7E5CFFAFFE5CFF4FFEE
:10462000E5CFF3FFE5CFF5FFE5CFF7FFE5CFF6FFE9
:0E463000E5CFEAFFE5CFE9FFE5CFDAFF1100A5
:02463E00FE0E6E
:10464000E3CFE9FFFF0EE3CFEAFFE9CFF3FFEACFC5
:10465000F4FFFB0EE35003E1FC0EE35009E0FB0E18
:10466000E30602E2FC0EE306FD0EE350EE6EF1D728
:104670001200D9CFE6FFDACFE6FFFA0EE3CFD9FF7B
:10468000FB0EE3CFDAFFFC0EE3CFE9FFFD0EE3CF35
:10469000EAFFDE50EF5C02E1EE66FBD7F36EFF0E41
:1046A000E3CFDAFFE552FF0EE3CFD9FFE552F35037
:1046B0001200D9CFE6FFDACFE6FFFA0EE3CFD9FF3B
:1046C000FB0EE3CFDAFFFC0EE3CFE9FFFD0EE3CFF5
:1046D000EAFFE9CFF3FFEACFF4FFDECFEFFFEE66AC
:1046E000FCD7FF0EE3CFDAFFE552FF0EE3CFD9FF91
:1046F000E5521200FB0EE3CFF6FFFC0EE3CFF7FF0F
:10470000FD0EE3CFF8FFFE0EE3CFE9FFFF0EE3CF90
:10471000EAFFE9CFF3FFEACFF4FF0900F5CFEFFF9F
:10472000EE66FBD71200FE0EE3CFE9FFFF0EE3CFEC
:10473000EAFFF36AF46AEE5203E0F34AF42AFBD785
:02474000120065
:0E474200D9CFE6FFE1CFD9FFE652E2EC25F039
:10475000000EE66EE66AE00EE66EB10EE66EFDEC69
:1047600023F0E552E552E552E55275EC20F0DFEC1E
:1047700020F056EC13F059EC00F011EC00F00E01B3
:10478000640E0E5D000E0F5905E3BBEC26F00E0122
:104790000E6B0F6B0E01080E105D000E115905E334
:1047A000EEEC20F00E01106B116B0E01020E125D8B
:1047B000000E135905E3ACEC1CF00E01126B136BE9
:1047C0000E01F40E145D010E155905E398EC02F08C
:1047D0000E01146B156B0E01280E165D000E175995
:1047E00005E364EC13F00E01166B176B0400C7D7DA
:0A47F000E552E552E7CFD9FF1200B1
:0647FA00D9CFE6FFE1CF7C
:10480000D9FF9F0EE66E7CEC26F0E552FD0EDBCF65
:1048100000FEFE0EDBCF01FEFB0EDBCF02FEFC0E28
:10482000DBCF03FEF194FD0EDBCFE6FFFE0EDBCF08
:10483000E6FF60EC26F0E552E552E552E7CFD9FFFE
:104840001200D9CFE6FFE1CFD9FF040EE126F29A9C
:104850001ACEDFFF010E1BCEDBFF020E1CCEDBFFEC
:10486000030E1DCEDBFFF28ADECF06F0DECF07F0AF
:10487000DECF08F0DDCF09F0DD52DD5200D0040EAE
:10488000E15C02E2E16AE552E16EE552E7CFD9FF71
:104890001200F29E0E011A6B1B6B1C6B1D6BF28ECD
:0248A000120004
:0E48A2002C0EF66E000EF76E000EF86E0D0175
:1048B0000900F550F06F0900F550F16F03E1F06762
:1048C00001D03DD00900F550EB6F0900F550EC6FB9
:1048D0000900F550ED6F09000900F550E96E090077
:1048E000F550EA6E090009000900F550EE6F090065
:1048F000F550EF6F09000900F6CFF2FDF7CFF3FD99
:10490000F8CFF4FDEBCDF6FFECCDF7FFEDCDF8FFE2
:104910000D01EE5302E1EF5307E00900F550EE6E92
:10492000EE07F8E2EF07F9D7F2CDF6FFF3CDF7FF88
:10493000F4CDF8FF0D01F007000EF15BBFD71200B8
:10494000D9CFE6FFDACFE6FFE1CFD9FFE2CFDAFF3A
:10495000E652DF6AFD0EDBCF15F015C014F0030E32
:104960001514AA6EFF0EE76EFC0EDBCF14F0E750B5
:104970001416156A1450A96EFB0EDB50A86EA69E85
:10498000A69CA684F250800B01E0010EDF6EF29E21
:10499000550EA76EAA0EA76EA682A6B2FED7DF504E
:1049A000E8B0F28EE8A0F29EA694E552E552E5CF7B
:0849B000DAFFE7CFD9FF120086
:0849B800D9CFE6FFDACFE6FFDC
:1049C000E1CFD9FFE2CFDAFF726A716AFD0EDBB088
:1049D0007288DBA202D0728C718CDBB4728EDBA683
:1049E00002D0718801D0718ADBA802D0728401D014
:1049F0007294DBBA7186DBAC02D0A38A01D0A39A91
:104A0000DBAE02D0A38801D0A398FB0EDB50756EFD
:104A1000FC0EDBCF15F015C014F0156A1450766E3D
:104A2000728A718EE552E5CFDAFFE7CFD9FF120027
:104A3000434C454152204953535545530041444D41
:104A4000494E2041435449564954593A0050415324
:104A500053574F52443A0050415254204E4F3A005F
:104A60004D4154455249414C0050524F44554354D6
:104A7000494F4E004D4554484F4453005155414C09
:104A800049545900425245414B444F574E005341FF
:104A9000464554590049535355453A0053544154DF
:054AA000494F4E3A00F1
:014AA5000010
:0A4AA600D9CFE6FFDACFE6FFE1CF3B
:104AB000D9FFE2CFDAFFAC6AAB6AFD0EDBB0AC889F
:104AC000DBA202D0AC8CAB8CDBB4AC8EDBA602D00C
:104AD000AB8801D0AB8ADBB8AC84DBBAAB86DBAC8D
:104AE00002D09D8A01D09D9ADBAE02D09D8801D074
:104AF0009D98FB0EDB50AF6EFC0EDBCF15F015C0A2
:104B000014F0156A1450B06EAC8AAB8EE552E5CF46
:084B1000DAFFE7CFD9FF120024
:084B1800D9CFE6FFDACFE6FF7A
:104B2000E1CFD9FFE2CFDAFFFC0EDBCF14F0FD0EB0
:104B3000DBCF15F015C014F0156A030E1414AA6E1D
:104B4000FF0EE76EFC0EDBCF14F0FD0EDBCF15F091
:104B5000E7501416156A1450A96EA69CA69EA6804E
:104B600000000000A85000D0E552E5CFDAFFE7CF03
:044B7000D9FF120057
:0C4B7400312D312D3132414243323344A7
:104B80004546330B0B0B0B0B3447484934354A4B26
:104B90004C35364D4E4F360C0C0C0C0C37505152D8
:104BA000533854555638395758595A080808080880
:104BB0002A2A2A2A2A302030203013131313130AEA
:044BC0000A0A0A0AC9
:0C4BC400C26A0F01386B0F01396B0F0142
:104BD0003A6B0F013B6B0F013C6B700ED36E9690DE
:104BE0008490949C948E959E959C959A9598959674
:104BF00095949592816892968096929080909294E6
:084C0000809492928092120050
:084C0800D9CFE6FFDACFE6FF89
:104C1000E1CFD9FFE2CFDAFFE652F20E0D01F7172E
:104C200071AC03D0F79171B0F78171B4F78571B2AF
:104C3000F7877450DF6EDF50E552E552E5CFDAFFBB
:064C4000E7CFD9FF1200CE
:0A4C4600D9CFE6FFDACFE6FFE1CF99
:104C5000D9FFE2CFDAFFE652F20E0D01F817ABAC46
:104C600003D0F891ABB0F881ABB4F885ABB2F8875C
:104C7000AE50DF6EDF50E552E552E5CFDAFFE7CF09
:044C8000D9FF120046
:0C4C840008C012F008500D02F4CF07F039
:104C9000F3CF06F009500E02F4CF09F0F3CF08F07D
:104CA0000D02F3500726F4500822E86A0922125038
:104CB0000E02F3500726F4500822E86A0922000C7D
:104CC000D9CFE6FFDACFE6FFE1CFD9FFE2CFDAFFB7
:104CD000E652E652FC0EDBCFDEFFDBCFDDFF010E3E
:104CE000DB50D76EDF50D66EE552E552E552E5CF88
:084CF000DAFFE7CFD9FF120043
:084CF800D9CFE6FFDACFE6FF99
:104D0000E1CFD9FFE2CFDAFFFD0EDB507F0BD56E8E
:104D1000D76AD66AF294FD0EDBAE02D0F28A01D0D9
:104D2000F29AD58EE552E5CFDAFFE7CFD9FF120030
:104D3000FF0EE3501C6E480E01D04C0EE76EE72EBE
:104D4000FED7E76AE72EFED71C2EF7D70000120029
:104D5000380EF36E00EE00F00F0E01D81200EA607C
:104D600002D0EE6AFCD7F350E9601200EE6AFCD77D
:104D70000D01FA6B12000D01FA0504E10D01FA6B49
:0E4D8000849004D00D01010EFA6F84801200A1
:024D8E0010EE25
:104D900060F020EE60F0F86A019C51EC24F0ECEC3D
:0A4DA00026F0A1EC23F0FBD712006F
:064DAA00056A080EE76E29
:104DB000D890093605360E50055C02E3056E092AC7
:064DC000E72EF7D71200F8
:0A4DC60020202020202020202020A3
:074DD000202020202020001C
:024DD8001200C7
:064DDA00000000000000D3
:104DE00000000000000000000000000000000000C3
:104DF0000000000000000000000000000000FF00B4
:104E000000000000000000000000000000000000A2
:104E10000000000000000000000000000000000092
:104E20000000000000000000000000000000000082
:104E30000000000000000000000000000000000072
:104E40000000FF0000000000000000000000000063
:104E50000000000000000000000000000000000052
:044E6000000000FF4F
:0C4E640000000000000000000000000042
:104E70000000000000000000000000000000000032
:104E80000000000000000000000000000000000022
:104E90000000000000000000000000000000000012
:104EA0000000000000000000000000000000000002
:104EB00000000000000000000000000000000000F2
:104EC00000000000000000000000000000000000E2
:104ED00000000000000000000000000000000000D2
:104EE00000000000000000000000000000000000C2
:104EF00000000000000000000000000000000000B2
:104F000000000000000000000000000000000000A1
:104F10000000000000000000000000000000000091
:104F20000000000000000000000000000000000081
:104F30000000000000000000000000000000000071
:104F40000000000000000000000000000000000061
:104F50000000000000000000000000000000000051
:0A4F60000000000000000000000047
:064F6A0000000000000041
:104F70000000000000000000000000000000000031
:084F80000000C8000000000061
:084F8800000000000000000021
:104F90000000000000000000000000000000000011
:104FA0000000000000000000000000000000000001
:104FB00000000000000000000000000000000000F1
:104FC00000000000000000000000000000000000E1
:104FD00000000000000000000000000000000000D1
:104FE00000000000000000000000000000000000C1
:104FF00000000000000000000000000000000000B1
:1050000000000000000000000000000000000000A0
:105010000000000000000000000000000000000090
:105020000000000000000000000000000000000080
:105030000000000000000000000000000000000070
:105040000000000000000000000000000000000060
:105050000000000000000000000000000000000050
:105060000000000000000000000000000000000040
:105070000000000000000000000000000000000030
:105080000000000000000000000000000000000020
:105090000000000000000000000000000000000010
:1050A0000000000000000000000000000000000000
:1050B00000000000000000000000000000000000F0
:1050C00000000000000000000000000000000000E0
:1050D00000000000000000000000000000000000D0
:1050E00000000000000000000000000000000000C0
:1050F00000000000000000000000000000000000B0
:10510000000000000000000000000000000000009F
:10511000000000000000000000000000000000008F
:10512000000000000000000000000000000000007F
:10513000000000000000000000000000000000006F
:0D5140000000000000000000000000000062
:03514D000000005F
:10515000000000000000000000000000000000004F
:0F51600000000000000000000000000000000040
:01516F00003F
:10517000000000000000000000000000000000002F
:10518000000000000000000000000000000000001F
:10519000000000000000000000000000000000000F
:1051A00000000000000000000000000000000000FF
:0851B00000000000FF0000FFF9
:0851B8000000000000000000EF
:1051C00000000000000000000000000000000000DF
:1051D00000000000000000000000000000000000CF
:1051E00000000000000000000000000000000000BF
:1051F00000000000000000000000000000000000AF
:10520000000000000000000000000000000000009E
:10521000000000000000000000000000000000008E
:10522000000000000000000000000000000000007E
:10523000000000000000000000000000000000006E
:10524000000000000000000000000000000000005E
:10525000000000000000000000000000000000004E
:10526000000000000000000000000000000000003E
:10527000000000000000000000000000000000002E
:10528000000000000000000000000000000000001E
:10529000000000000000000000000000000000000E
:1052A00000000000000000000000000000000000FE
:1052B00000000000000000000000000000000000EE
:0C52C000000000000000000000000000E2
:0452CC0000000000DE
:1052D00000000000000000000000000000000000CE
:1052E00000000000000000000000000000000000BE
:1052F00000000000000000000000000000000000AE
:10530000000000000000000000000000000000009D
:10531000000000000000000000000000000000008D
:10532000000000000000000000000000000000007D
:10533000000000000000000000000000000000006D
:10534000000000000000000000000000000000005D
:10535000000000000000000000000000000000004D
:10536000000000000000000000000000000000003D
:10537000000000000000000000000000000000002D
:10538000000000000000000000000000000000001D
:10539000000000000000000000000000000000000D
:1053A00000000000000000000000000000000000FD
:1053B00000000000000000000000000000000000ED
:1053C00000000000000000000000000000000000DD
:1053D00000000000000000000000000000000000CD
:1053E00000000000000000000000000000000000BD
:1053F00000000000000000000000000000000000AD
:10540000000000000000000000000000000000009C
:10541000000000000000000000000000000000008C
:0654200000000000000086
:02542600FFFF86
:085428009C4A954A8E4A844A11
:105430007C4A744A694A604A574A4D4A3D4A304A52
:020000040030CA
:0100010008F6
:0100020001FC
:0100030024D8
:01000500BD3D
:010006008079
:010008000FE8
:01000900C036
:01000A000FE6
:01000B00E014
:01000C000FE4
:01000D0040B2
:00000001FF
