:020000040000FA
:06000000EEEF29F01200F2
:08000800F2A402D052EF26F031
:0A0010009EAA02D0A1EF23F0120017
:06002A000A003958000035
:1000300042050000BC00000037580000FE0500002B
:100040000200000034580000D20400000300000049
:10005000125800009B040000220000000758000016
:10006000BD0400000B000000DF5700000005000089
:1000700028000000EE550000FF010000F101000023
:10008000EF54000000010000FF000000D554000004
:10009000280500001A0000004C5400000004000075
:0400A00089000000D3
:0C00A400D9CFE6FFE1CFD9FF0A0EE1261C
:1000B000050EDB6A060EDB6A070EDB6A080EDB6ADA
:1000C000090EDB6A0201026B036B046B056B020114
:1000D000066B076B086B096B0101046BDE6ADD6A56
:1000E000DECF14F0DDCF15F00F0E145C000E1558A6
:1000F00001E3AED0DECF14F0DDCF15F01E0E1502F9
:10010000F3CF15F01E0E1402F3CF14F0F4501526A1
:10011000160E1426020E1522030E14C0DBFF040E69
:1001200015C0DBFF020EDB6A1E0EF36E020EDBCF84
:10013000F4FFF350F45C35E21EEC2AF00400020EEA
:10014000DB50166E176A1E0E086E096ADECF0DF0C0
:10015000DDCF0EF05EEC29F006501624146E075029
:100160001720156E14C0E6FF15C0E6FFFBEC28F063
:10017000E552E552E66E020EDB50E76E030EDBCF72
:10018000E9FF040EDBCFEAFFE750E926000EEA2282
:10019000E552E750EF6E1EEC2AF00400020EDB2A57
:1001A000C3D7DECFE9FFDDCFEAFF1E0EEA02F3CFB1
:1001B000EAFF1E0EE902F3CFE9FFF450EA26160E1D
:1001C000E926020EEA221B0EE926000EEA22EF04BF
:1001D00002E10201002BDECFE9FFDDCFEAFF1E0EB8
:1001E000EA02F3CFEAFF1E0EE902F3CFE9FFF45073
:1001F000EA26160EE926020EEA221B0EE926000E5A
:10020000EA22EF50030802E10201012BDECFE9FFF1
:10021000DDCFEAFF1E0EEA02F3CFEAFF1E0EE9026F
:10022000F3CFE9FFF450EA26160EE926020EEA2281
:100230001C0EE926000EEA22EF0405E1010EF36E22
:10024000050EF3CFDBFFDF2A010E01E3DB2A48D7DF
:1002500002010151000806E2010EF36E080EF3CF11
:10026000DBFF0FD002010051000806E2010EF36E21
:10027000070EF3CFDBFF05D0010EF36E060EF3CFB2
:10028000DBFF050EDB0405E1010EF36E090EF3CF73
:10029000DBFF0201310E0C6F0201300E0D6F020107
:1002A000300E0E6F0201330E0F6F0201106B020150
:1002B000310E116F0201330E126F0201310E136FF6
:1002C0000201330E146F0201156B0301060EDA6F83
:1002D0001EEC2AF00400E66AE66AE66AE66A2BEC9F
:1002E00011F0E552E552E552E55231D80301010E15
:1002F000D86F090EDBCFE6FF080EDBCFE6FF070E57
:10030000DBCFE6FF060EDBCFE6FF2BEC11F0E5526C
:10031000E552E552E5526A0EE66E270EE66EDD0EF8
:10032000E66ECC0EE66EBB0EE66EAA0EE66E6FECC7
:1003300021F0146E060EE15E14500A0EE15C02E23A
:10034000E16AE552E16EE552E7CFD9FF1200D9CF5D
:10035000E6FFE1CFD9FF050EE126DF6A010EDB6A79
:10036000020EDB6A030EDB6A02010151000808E29B
:10037000030EFF6F010EF36E020EF3CFDBFF0DD005
:100380000051000805E2010EFF6FDE52DD6E05D060
:10039000FF6B010EDF6E030EDB6A040EDB6A0F0ECD
:1003A000F36E040EDBCFF4FFF350F45C1AE2040E9C
:1003B000DB501E0DF3CFE9FFF4CFEAFF160EE9265E
:1003C000020EEA221C0EE926000EEA22EF0406E1E4
:1003D000010EF36E030EF3CFDBFF03D0040EDB2A16
:1003E000DED7030EDBCFE6FF020EDBCFE6FF010E0A
:1003F000DBCFE6FFDFCFE6FF2BEC11F0E552E55255
:10040000E552E552050EE15C02E2E16AE552E16E79
:10041000E552E7CFD9FF1200D9CFE6FFE1CFD9FFF0
:10042000050EE126DF6A010EDB6A020EDB6A030EAF
:10043000DB6AFD0EDBCFE6FFFE0EDBCFE6FF110E23
:10044000E66E020EE66E34EC27F0E552E552E55218
:10045000E552000902E0000E5CD0020101510008E3
:1004600008E2030EFF6F010EF36E020EF3CFDBFF07
:100470000DD00051000805E2010EFF6FDE52DD6E67
:1004800005D0FF6B010EDF6E030EDB6A040EDB6A24
:100490000F0EF36E040EDBCFF4FFF350F45C1AE2A0
:1004A000040EDB501E0DF3CFE9FFF4CFEAFF160E6A
:1004B000E926020EEA221C0EE926000EEA22EF04CB
:1004C00006E1010EF36E030EF3CFDBFF03D0040E43
:1004D000DB2ADED7030EDBCFE6FF020EDBCFE6FF23
:1004E000010EDBCFE6FFDFCFE6FF2BEC11F0E5528C
:1004F000E552E552E552FB0EDBCFE6FFFC0EDBCF0B
:10050000E6FFDBEC10F0E552E5520301010ED86F77
:1005100000D0146E050EE15C02E2E16AE552E16E84
:100520001450E552E7CFD9FF1200D9CFE6FFE1CF53
:10053000D9FF050EE126DF6A010EDB6A020EDB6AD7
:10054000030EDB6AFD0EDBCFE6FFFE0EDBCFE6FF20
:10055000110EE66E020EE66E34EC27F0E552E5521F
:10056000E552E552000902E0000E1FD0030EDBCF7A
:10057000E6FF020EDBCFE6FF010EDBCFE6FFDFCFAB
:10058000E6FF2BEC11F0E552E552E552E552FB0E89
:10059000DBCFE6FFFC0EDBCFE6FFDBEC10F0E55235
:1005A000E5520301D86B010E00D0146E050EE15C1C
:1005B00002E2E16AE552E16E1450E552E7CFD9FF5D
:1005C0001200D9CFE6FFE1CFD9FF090EE126010ED7
:1005D000F36E080EF3CFDBFFE8EC26F006C006F260
:1005E00007C007F208C008F209C009F2020EE96E5E
:1005F000020EEA6EEE50020106190CE1EE50020105
:10060000071908E1EE500201081904E1EE50020159
:10061000091900E101E1BBD006C202F207C203F2F0
:1006200008C204F209C205F2DF6A0F0EDF5C01E3C3
:10063000A4D0DF501E0DF3CFE9FFF4CFEAFF160E72
:10064000E926020EEA221B0EE926000EEA22EF043A
:1006500001E091D0DF501E0DF3CFE9FFF4CFEAFFA8
:10066000160EE926020EEA22190EE926000EEA22EB
:10067000EE06000EED5ADF501E0DF3CFE9FFF4CF6A
:10068000EAFF160EE926020EEA22190EE926000EEE
:10069000EA22E9CF14F0EACF15F0010E14C0DBFF17
:1006A000020E15C0DBFF010EDBCFE9FF020EDBCF30
:1006B000EAFF030EEFCFDBFF1E0EDF02F350190F30
:1006C000146E040E14C0DBFF050EDB6A060EDB6A37
:1006D000070EDB6A010EDBCFE9FF020EDBCFEAFF7C
:1006E000EF50E66E1E0EDF02F350190FE66EE66A5B
:1006F00080EC28F0E552E552E5521EEC2AF00400A9
:10070000010EE76E010EDBCFE9FF020EDBCFEAFF41
:10071000E750E926000EEA22030EEFCFDBFF1E0EA4
:10072000DF02F350190F010F146E040E14C0DBFF2B
:10073000050EDB6A060EDB6A070EDB6A010EE76E4A
:10074000010EDBCFE9FF020EDBCFEAFFE750E9261F
:10075000000EEA22EF50E66E1E0EDF02F350190F74
:10076000010FE66EE66A80EC28F0E552E552E552AC
:100770001EEC2AF00400DF2A58D7FDEC11F0010826
:1007800006E18A860201005102E18A988A9A090EDE
:10079000E15C02E2E16AE552E16EE552E7CFD9FFA2
:1007A0001200D9CFE6FFE1CFD9FF050EE126FD0EFD
:1007B000DBCFE9FFFE0EDBCFEAFF200EE926000EBD
:1007C000EA22EF28DF6E010EDB6A020EDB6A0F0EF3
:1007D000DF5C01E3DF6AFD0EDBCFE9FFFE0EDBCF5E
:1007E000EAFF200EE926000EEA22EF68030EDB6A1C
:1007F0000F0EF36E030EDBCFF4FFF350F45C01E356
:1008000013D30F0E146E14C00EF0DFCF09F0FCEC02
:1008100029F00550DF6EDF501E0DF3CFE9FFF4CF56
:10082000EAFF160EE926020EEA221B0EE926000E4A
:10083000EA22EF5010E0DF501E0DF3CFE9FFF4CFB6
:10084000EAFF160EE926020EEA221C0EE926000E29
:10085000EA22EF5004E1030EDB2ADF2AC9D7FD0E9E
:10086000DBCFE9FFFE0EDBCFEAFFE9CF14F0EACFE2
:1008700015F0010EDBCFF3FFDB2AF3500F01142438
:10088000E96E000E1520EA6E530EEF6EFD0EDBCF03
:10089000E9FFFE0EDBCFEAFFE9CF14F0EACF15F057
:1008A000010EDBCFF3FFDB2AF3501424E96E000EB8
:1008B0001520EA6E540EEF6EFD0EDBCFE9FFFE0E43
:1008C000DBCFEAFFE9CF14F0EACF15F0010EDBCF62
:1008D000F3FFDB2AF3501424E96E000E1520EA6EB4
:1008E0004E0EEF6EFD0EDBCFE9FFFE0EDBCFEAFF13
:1008F000E9CF14F0EACF15F0010EDBCFF3FFDB2ACE
:10090000F3501424E96E000E1520EA6E3A0EEF6ED5
:10091000DF501E0DF3CFE9FFF4CFEAFF160EE926F4
:10092000020EEA22E9CF16F0EACF17F0020EDBCF73
:10093000F3FFDB2AF3501624E96E000E1720EA6E4F
:10094000EF50E66EFD0EDBCFE9FFFE0EDBCFEAFFD8
:10095000E9CF14F0EACF15F0010EDBCFF3FFDB2A6D
:10096000F3501424E96E000E1520EA6EE552E750AC
:10097000EF6EDF501E0DF3CFE9FFF4CFEAFF160E46
:10098000E926020EEA22E9CF16F0EACF17F0020EAE
:10099000DBCFF3FFDB2AF3501624E96E000E17209D
:1009A000EA6EEF50E66EFD0EDBCFE9FFFE0EDBCF09
:1009B000EAFFE9CF14F0EACF15F0010EDBCFF3FF29
:1009C000DB2AF3501424E96E000E1520EA6EE5527E
:1009D000E750EF6EFD0EDBCFE9FFFE0EDBCFEAFF47
:1009E000E9CF14F0EACF15F0010EDBCFF3FFDB2ADD
:1009F000F3501424E96E000E1520EA6E3B0EEF6EE4
:100A0000DF501E0DF3CFE9FFF4CFEAFF160EE92603
:100A1000020EEA221D0EE926000EEA22EF0460E132
:100A2000FD0EDBCFE9FFFE0EDBCFEAFFE9CF14F0CE
:100A3000EACF15F0010EDBCFF3FFDB2AF3501424CD
:100A4000E96E000E1520EA6E230EEF6E020EDB2A11
:100A5000DF501E0DF3CFE9FFF4CFEAFF160EE926B3
:100A6000020EEA22E9CF14F0EACF15F0020EDB50B5
:100A70001424E96E000E1520EA6EEF5030E0DF50CE
:100A80001E0DF3CFE9FFF4CFEAFF160EE926020EA2
:100A9000EA22E9CF16F0EACF17F0020EDB50162457
:100AA000E96E000E1720EA6EEF50E66EFD0EDBCF0A
:100AB000E9FFFE0EDBCFEAFFE9CF14F0EACF15F035
:100AC000010EDB501424E96E000E1520EA6EE5528B
:100AD000E750EF6E010EDB2A020EDB2AB9D782D176
:100AE000DF501E0DF3CFE9FFF4CFEAFF160EE92623
:100AF000020EEA221D0EE926000EEA22EF5002083D
:100B000001E00AD1020EDB2AFD0EDBCFE9FFFE0E6B
:100B1000DBCFEAFFE9CF14F0EACF15F0010EDBCF0F
:100B2000F3FFDB2AF3501424E96E000E1520EA6E61
:100B3000530EEF6EFD0EDBCFE9FFFE0EDBCFEAFFBB
:100B4000E9CF14F0EACF15F0010EDBCFF3FFDB2A7B
:100B5000F3501424E96E000E1520EA6E410EEF6E7C
:100B6000FD0EDBCFE9FFFE0EDBCFEAFFE9CF14F08D
:100B7000EACF15F0010EDBCFF3FFDB2AF35014248C
:100B8000E96E000E1520EA6E460EEF6EFD0EDBCF0D
:100B9000E9FFFE0EDBCFEAFFE9CF14F0EACF15F054
:100BA000010EDBCFF3FFDB2AF3501424E96E000EB5
:100BB0001520EA6E450EEF6EFD0EDBCFE9FFFE0E4F
:100BC000DBCFEAFFE9CF14F0EACF15F0010EDBCF5F
:100BD000F3FFDB2AF3501424E96E000E1520EA6EB1
:100BE000540EEF6EFD0EDBCFE9FFFE0EDBCFEAFF0A
:100BF000E9CF14F0EACF15F0010EDBCFF3FFDB2ACB
:100C0000F3501424E96E000E1520EA6E590EEF6EB3
:100C1000FD0EDBCFE9FFFE0EDBCFEAFFE9CF14F0DC
:100C2000EACF15F0010EDBCFF3FFDB2AF3501424DB
:100C3000E96E000E1520EA6E3A0EEF6EDF501E0DC3
:100C4000F3CFE9FFF4CFEAFF160EE926020EEA22FF
:100C5000E9CF17F0EACF18F0020EDB501724E96E47
:100C6000000E1820EA6EEF50D00FE96EEA6AD890B5
:100C7000E936EA36540EE926050EEA22EECF14F0E4
:100C8000EFCF15F0166A14C0E6FF15C0E6FF16C0D8
:100C9000E6FFFD0EDBCFE9FFFE0EDBCFEAFFE9CF7B
:100CA0001BF0EACF1CF0010EDB5000011B24196E73
:100CB000000E1C201A6E19C0E6FF1AC0E6FF75EC84
:100CC00027F01D6E050EE15E1D50FD0EDBCFE9FF26
:100CD000FE0EDBCFEAFFE9CF16F0EACF17F0010EE8
:100CE000DB5000011624146E000E1720156E14C080
:100CF000E6FF15C0E6FF8EEC27F0E552E552040E44
:100D0000F3CFDBFF010EDBCFE7FF040EDB50E7265E
:100D1000010EE7CFDBFF66D0DF501E0DF3CFE9FFFA
:100D2000F4CFEAFF160EE926020EEA22E9CF16F00A
:100D3000EACF17F0020EDB501624E96E000E1720E2
:100D4000EA6EEF50D00F100DF3CF14F0F4CF15F082
:100D50005E0E1426050E152214C0E6FF15C0E6FF30
:100D6000FD0EDBCFE9FFFE0EDBCFEAFFE9CF1AF085
:100D7000EACF1BF0010EDB5000011A24186E000EA2
:100D80001B20196E18C0E6FF19C0E6FF54EC27F0CF
:100D9000E552E552E552E552FD0EDBCFE9FFFE0ECE
:100DA000DBCFEAFFE9CF16F0EACF17F0010EDB50F8
:100DB00000011624146E000E1720156E14C0E6FFF5
:100DC00015C0E6FF8EEC27F0E552E552040EF3CF96
:100DD000DBFF010EDBCFE7FF040EDB50E726010E41
:100DE000E7CFDBFFFD0EDBCFE9FFFE0EDBCFEAFF37
:100DF000E9CF14F0EACF15F0010EDB500F011424F7
:100E0000E96E000E1520EA6EEF6ADFCFD9F3FD0E12
:100E1000DBCFE9FFFE0EDBCFEAFF200EE926000E56
:100E2000EA22D9C3EFFF00D0050EE15C02E2E16ADD
:100E3000E552E16EE552E7CFD9FF1200D9CFE6FFC8
:100E4000E1CFD9FF0F0EE126FD0EDBCFE9FFFE0E4D
:100E5000DBCFEAFF200EE926000EEA22EF28DF6E44
:100E6000010EDB6A020EDB6AD950060FE96EDACF9B
:100E7000EAFF4D0EEE6E410EEE6E540EEE6E450E16
:100E8000EE6E520EEE6E490EEE6E410EEE6E4C0E92
:100E9000EE6EEE6A0F0EDF5C01E3DF6AFD0EDBCF64
:100EA000E9FFFE0EDBCFEAFF200EE926000EEA2264
:100EB000EF68030EDB6A0F0EF36E030EDBCFF4FF59
:100EC000F350F45C01E313D30F0E146E14C00EF054
:100ED000DFCF09F0FCEC29F00550DF6EDF501E0D6E
:100EE000F3CFE9FFF4CFEAFF160EE926020EEA225D
:100EF0001B0EE926000EEA22EF5010E0DF501E0D17
:100F0000F3CFE9FFF4CFEAFF160EE926020EEA223C
:100F10001C0EE926000EEA22EF0404E1030EDB2A90
:100F2000DF2AC9D7FD0EDBCFE9FFFE0EDBCFEAFFDC
:100F3000E9CF14F0EACF15F0010EDBCFF3FFDB2A87
:100F4000F3500F011424E96E000E1520EA6E530EC3
:100F5000EF6EFD0EDBCFE9FFFE0EDBCFEAFFE9CF40
:100F600014F0EACF15F0010EDBCFF3FFDB2AF350CC
:100F70001424E96E000E1520EA6E540EEF6EFD0E7D
:100F8000DBCFE9FFFE0EDBCFEAFFE9CF14F0EACFBB
:100F900015F0010EDBCFF3FFDB2AF3501424E96ECA
:100FA000000E1520EA6E4E0EEF6EFD0EDBCFE9FF50
:100FB000FE0EDBCFEAFFE9CF14F0EACF15F0010E09
:100FC000DBCFF3FFDB2AF3501424E96E000E15206B
:100FD000EA6E3A0EEF6EDF501E0DF3CFE9FFF4CF4D
:100FE000EAFF160EE926020EEA22E9CF16F0EACF52
:100FF00017F0020EDBCFF3FFDB2AF3501624E96E65
:10100000000E1720EA6EEF50E66EFD0EDBCFE9FF13
:10101000FE0EDBCFEAFFE9CF14F0EACF15F0010EA8
:10102000DBCFF3FFDB2AF3501424E96E000E15200A
:10103000EA6EE552E750EF6EDF501E0DF3CFE9FF89
:10104000F4CFEAFF160EE926020EEA22E9CF16F0E7
:10105000EACF17F0020EDBCFF3FFDB2AF3501624A2
:10106000E96E000E1720EA6EEF50E66EFD0EDBCF44
:10107000E9FFFE0EDBCFEAFFE9CF14F0EACF15F06F
:10108000010EDBCFF3FFDB2AF3501424E96E000ED0
:101090001520EA6EE552E750EF6EFD0EDBCFE9FF5B
:1010A000FE0EDBCFEAFFE9CF14F0EACF15F0010E18
:1010B000DBCFF3FFDB2AF3501424E96E000E15207A
:1010C000EA6E3B0EEF6EDF501E0DF3CFE9FFF4CF5B
:1010D000EAFF160EE926020EEA221D0EE926000E90
:1010E000EA22EF0460E1FD0EDBCFE9FFFE0EDBCF6D
:1010F000EAFFE9CF14F0EACF15F0010EDBCFF3FFE2
:10110000DB2AF3501424E96E000E1520EA6E230E3C
:10111000EF6E020EDB2ADF501E0DF3CFE9FFF4CF96
:10112000EAFF160EE926020EEA22E9CF14F0EACF12
:1011300015F0020EDB501424E96E000E1520EA6E45
:10114000EF5030E0DF501E0DF3CFE9FFF4CFEAFFA0
:10115000160EE926020EEA22E9CF16F0EACF17F0C2
:10116000020EDB501624E96E000E1720EA6EEF50D7
:10117000E66EFD0EDBCFE9FFFE0EDBCFEAFFE9CF27
:1011800014F0EACF15F0010EDB501424E96E000EC6
:101190001520EA6EE552E750EF6E010EDB2A020ED3
:1011A000DB2AB9D782D1DF501E0DF3CFE9FFF4CF90
:1011B000EAFF160EE926020EEA221D0EE926000EAF
:1011C000EA22EF50020801E00AD1020EDB2AFD0EEE
:1011D000DBCFE9FFFE0EDBCFEAFFE9CF14F0EACF69
:1011E00015F0010EDBCFF3FFDB2AF3501424E96E78
:1011F000000E1520EA6E530EEF6EFD0EDBCFE9FFF9
:10120000FE0EDBCFEAFFE9CF14F0EACF15F0010EB6
:10121000DBCFF3FFDB2AF3501424E96E000E152018
:10122000EA6E410EEF6EFD0EDBCFE9FFFE0EDBCF67
:10123000EAFFE9CF14F0EACF15F0010EDBCFF3FFA0
:10124000DB2AF3501424E96E000E1520EA6E460ED8
:10125000EF6EFD0EDBCFE9FFFE0EDBCFEAFFE9CF3D
:1012600014F0EACF15F0010EDBCFF3FFDB2AF350C9
:101270001424E96E000E1520EA6E450EEF6EFD0E89
:10128000DBCFE9FFFE0EDBCFEAFFE9CF14F0EACFB8
:1012900015F0010EDBCFF3FFDB2AF3501424E96EC7
:1012A000000E1520EA6E540EEF6EFD0EDBCFE9FF47
:1012B000FE0EDBCFEAFFE9CF14F0EACF15F0010E06
:1012C000DBCFF3FFDB2AF3501424E96E000E152068
:1012D000EA6E590EEF6EFD0EDBCFE9FFFE0EDBCF9F
:1012E000EAFFE9CF14F0EACF15F0010EDBCFF3FFF0
:1012F000DB2AF3501424E96E000E1520EA6E3A0E34
:10130000EF6EDF501E0DF3CFE9FFF4CFEAFF160EAC
:10131000E926020EEA22E9CF17F0EACF18F0020E12
:10132000DB501724E96E000E1820EA6EEF50D00F44
:10133000E96EEA6AD890E936EA36540EE926050ED7
:10134000EA22EECF14F0EFCF15F0166A14C0E6FFD4
:1013500015C0E6FF16C0E6FFFD0EDBCFE9FFFE0E6F
:10136000DBCFEAFFE9CF1BF0EACF1CF0010EDB5028
:1013700000011B24196E000E1C201A6E19C0E6FF16
:101380001AC0E6FF75EC27F01D6E050EE15E1D50DC
:10139000FD0EDBCFE9FFFE0EDBCFEAFFE9CF16F053
:1013A000EACF17F0010EDB5000011624146E000E78
:1013B0001720156E14C0E6FF15C0E6FF8EEC27F06F
:1013C000E552E552050EF3CFDBFF010EDBCFE7FF61
:1013D000050EDB50E726010EE7CFDBFF66D0DF50BE
:1013E0001E0DF3CFE9FFF4CFEAFF160EE926020E39
:1013F000EA22E9CF16F0EACF17F0020EDB501624EE
:10140000E96E000E1720EA6EEF50D00F100DF3CFEB
:1014100014F0F4CF15F05E0E1426050E152214C03C
:10142000E6FF15C0E6FFFD0EDBCFE9FFFE0EDBCFCA
:10143000EAFFE9CF1AF0EACF1BF0010EDB50000102
:101440001A24186E000E1B20196E18C0E6FF19C072
:10145000E6FF54EC27F0E552E552E552E552FD0E69
:10146000DBCFE9FFFE0EDBCFEAFFE9CF16F0EACFD4
:1014700017F0010EDB5000011624146E000E172029
:10148000156E14C0E6FF15C0E6FF8EEC27F0E5529E
:10149000E552050EF3CFDBFF010EDBCFE7FF050EB4
:1014A000DB50E726010EE7CFDBFFFD0EDBCFE9FFC8
:1014B000FE0EDBCFEAFFE9CF14F0EACF15F0010E04
:1014C000DB500F011424E96E000E1520EA6EEF6A5E
:1014D000DFCFD9F3FD0EDBCFE9FFFE0EDBCFEAFF56
:1014E000200EE926000EEA22D9C3EFFF00D00F0E2E
:1014F000E15C02E2E16AE552E16EE552E7CFD9FF35
:101500001200D9CFE6FFE1CFD9FF070EE126FE0E8C
:10151000DB501E0DF3CFE9FFF4CFEAFF160EE926EC
:10152000020EEA221B0EE926000EEA22EF5033E0FB
:10153000FE0EDB501E0DF3CFE9FFF4CFEAFF160ECF
:10154000E926020EEA22E9CF14F0EACF15F014C022
:10155000E6FF15C0E6FF050EDBCFE6FF060EDBCF8C
:10156000E6FF34EC27F0E552E552E552E55200097A
:1015700012E1FE0EDB501E0DF3CFE9FFF4CFEAFFC0
:10158000160EE926020EEA221C0EE926000EEA22B9
:10159000EF0401E17ED1FE0EDB501E0DF3CFE9FF1B
:1015A000F4CFEAFF160EE926020EEA22E9CF14F084
:1015B000EACF15F0050E14C0DBFF060E15C0DBFFE9
:1015C0000101FF51030A01E190D0020A01E048D174
:1015D000050EDBCFE6FF060EDBCFE6FF4BEC11F08E
:1015E000E552E552E76E020EE7CFDBFF020EDB505D
:1015F000FF0801E179D0050EDBCFE6FF060EDBCF59
:10160000E6FFDBEC10F0E552E552190EE66EE66AF5
:10161000E66A020EDB501E0DF3CFE9FFF4CFEAFFBE
:10162000160EE926020EEA22E9CF14F0EACF15F0F1
:1016300014C0E6FF15C0E6FF1AEC27F0166E050E83
:10164000E15E16500400020EDB501E0DF3CF14F0C5
:10165000F4CF15F0160E1426020E1522030E14C038
:10166000DBFF040E15C0DBFF010EDB6A1E0EF36EFE
:10167000010EDBCFF4FFF350F45C25E2010EDB50EA
:10168000E76E030EDBCFE9FF040EDBCFEAFFE75086
:10169000E926000EEA22EF50E66E010EDBCFE6FFF0
:1016A000020EDB501E0DF350E552E724E66EE66AAB
:1016B00080EC28F0E552E552E5521EEC2AF00400D9
:1016C000010EDB2AD3D7020100510DE10101FF6BAE
:1016D000E66AE66AE66A010EE66E2BEC11F0E55268
:1016E000E552E552E552D5D0BCD0050EDBCFE6FF82
:1016F000060EDBCFE6FF4BEC11F0E552E552E76E4C
:10170000020EE7CFDBFF020EDB50FF0801E1A7D09E
:10171000050EDBCFE6FF060EDBCFE6FFDBEC10F0BD
:10172000E552E552190EE66EE66AE66A020EDB50F5
:101730001E0DF3CFE9FFF4CFEAFF160EE926020EE5
:10174000EA22E9CF14F0EACF15F014C0E6FF15C085
:10175000E6FF1AEC27F0166E050EE15E1650040047
:10176000020EDB501E0DF3CF14F0F4CF15F0160E61
:101770001426020E1522030E14C0DBFF040E15C042
:10178000DBFF010EDB6A1E0EF36E010EDBCFF4FFF2
:10179000F350F45C25E2010EDB50E76E030EDBCF65
:1017A000E9FF040EDBCFEAFFE750E926000EEA224C
:1017B000EF50E66E010EDBCFE6FF020EDB501E0D92
:1017C000F350E552E724E66EE66A80EC28F0E55235
:1017D000E552E5521EEC2AF00400010EDB2AD3D7B5
:1017E0000201015120E1020100510EE10101FF6BF4
:1017F000E66AE66AE66A010EE66E2BEC11F0E55247
:10180000E552E552E5520ED00101010EFF6FE66A86
:10181000E66A010EE66EE66A2BEC11F0E552E5523F
:10182000E552E5521BD0020100510CE1E66A010EBF
:10183000E66EE66AE66A2BEC11F0E552E552E552F7
:10184000E5520CD0E66A010EE66E010EE66EE66A1F
:101850002BEC11F0E552E552E552E5521AD001D0D9
:1018600000D0DF6A0F0EDF5C14E2DF501E0DF3CFF5
:10187000E9FFF4CFEAFF160EE926020EEA221C0E5B
:10188000E926000EEA22EF0402E18C8002D0DF2A72
:10189000E9D7070EE15C02E2E16AE552E16EE5524A
:1018A000E7CFD9FF1200D9CFE6FFE1CFD9FF1F0E56
:1018B000E126050EDB6AD950060FE96EDACFEAFFA2
:1018C000EE6AEE6AEE6AEE6AEE6AEE6AEE6AEE6A58
:1018D000EE6AEE6AEE6AEE6AEE6AEE6AEE6AEE6A48
:1018E000EE6AEE6AEE6AEE6AEE6AEE6AEE6AEE6A38
:1018F000DF6A0F0EDF5C33E2DF501E0DF3CFE9FF2E
:10190000F4CFEAFF160EE926020EEA221B0EE926A4
:10191000000EEA22EF5021E0DF501E0DF3CFE9FF69
:10192000F4CFEAFF160EE926020EEA22E9CF14F000
:10193000EACF15F014C0E6FF15C0E6FFFD0EDBCFC1
:10194000E6FFFE0EDBCFE6FF34EC27F0E552E55272
:10195000E552E552000901E19FD1DF2ACAD7DF6ACB
:101960000F0EDF5C01E392D1DF501E0DF3CFE9FFD4
:10197000F4CFEAFF160EE926020EEA221B0EE92634
:10198000000EEA22EF5001E07FD1DF501E0DF3CFB1
:10199000E9FFF4CFEAFF160EE926020EEA221B0E3B
:1019A000E926000EEA22010EEF6E470EF66E540E87
:1019B000F76E0900F5CF14F00800F5CF15F0DF50F1
:1019C0001E0DF3CFE9FFF4CFEAFF160EE926020E53
:1019D000EA22190EE926000EEA2214C0EEFF15C015
:1019E000EDFFDF501E0DF3CFE9FFF4CFEAFF160E37
:1019F000E926020EEA221C0EE926000EEA22010E5A
:101A0000EF6EDF501E0DF3CFE9FFF4CFEAFF160EA5
:101A1000E926020EEA221D0EE926000EEA22FC0E3D
:101A2000DBCFEFFFFD0EDBCFE6FFFE0EDBCFE6FFE9
:101A3000DF501E0DF3CFE9FFF4CFEAFF160EE926C3
:101A4000020EEA22E9CF14F0EACF15F014C0E6FF47
:101A500015C0E6FF54EC27F0E552E552E552E55299
:101A6000DF501E0DF3CF14F0F4CF15F0160E142630
:101A7000020E1522030E14C0DBFF040E15C0DBFF9F
:101A8000010EDB6A1E0EF36E010EDBCFF4FFF35086
:101A9000F45C24E2010EDB50E76E030EDBCFE9FFBE
:101AA000040EDBCFEAFFE750E926000EEA22EF50F2
:101AB000E66E010EDBCFE6FF1E0EDF02F350E552AD
:101AC000E724E66EE66A80EC28F0E552E552E5523E
:101AD0001EEC2AF00400010EDB2AD4D70201002BF1
:101AE000020101510CE1010EE66EE66A010EE66E9E
:101AF000E66AB1DBE552E552E552E5520CD0010E43
:101B0000E66E010EE66E010EE66EE66AA4DBE552B5
:101B1000E552E552E552DF501E0DF3CFE9FFF4CF59
:101B2000EAFF160EE926020EEA221D0EE926000E35
:101B3000EA22EF5001E09ED01E0EDB6ADF501E0D40
:101B4000F3CFE9FFF4CFEAFF160EE926020EEA22F0
:101B5000E9CF14F0EACF15F01E0EDB500F0114246C
:101B6000E96E000E1520EA6EEF502BE0DF501E0DDF
:101B7000F3CFE9FFF4CFEAFF160EE926020EEA22C0
:101B8000E9CF16F0EACF17F01E0EDB500F01162436
:101B9000E96E000E1720EA6EEF50E66ED950050F81
:101BA000146EDACF15F01E0EDB500F011424E96E0F
:101BB000000E1520EA6EE552E750EF6E1E0EDB2A8E
:101BC000BDD7D950050F166EDACF17F01E0EDB50B9
:101BD0000F011624E96E000E1720EA6E300EEF6E2C
:101BE000DF501E0DF3CFE9FFF4CFEAFF160EE92612
:101BF000020EEA22E9CF14F0EACF15F01E0EDB50F8
:101C00000F011424E96E000E1520EA6E300EEF6EFF
:101C10001E0EDB2AD950050F166EDACF17F01E0EF6
:101C2000DB500F011624E96E000E1720EA6EEF6AF2
:101C3000DF501E0DF3CFE9FFF4CFEAFF160EE926C1
:101C4000020EEA22E9CF14F0EACF15F01E0EDB50A7
:101C50000F011424E96E000E1520EA6E000EEF6EDF
:101C6000D950050FE66E000EDA20E66EA4DAE552D2
:101C7000E55209D0FD0EDBCFE6FFFE0EDBCFE6FF1F
:101C80009ADAE552E55202D0DF2A6AD60201015102
:101C900003E10101010EFF6F1F0EE15C02E2E16A48
:101CA000E552E16EE552E7CFD9FF1200D9CFE6FF4A
:101CB000E1CFD9FF050EE126020EE76EFD0EDBCF68
:101CC000E9FFFE0EDBCFEAFFE750E926000EEA222D
:101CD000EF5030080AE1FD0EDBCFE6FFFE0EDBCF52
:101CE000E6FF69DAE552E5528AD1DF6A0F0EDF5C62
:101CF00043E2DF501E0DF3CFE9FFF4CFEAFF160EEB
:101D0000E926020EEA221B0EE926000EEA22EF5017
:101D100031E0DF501E0DF3CFE9FFF4CFEAFF160EDE
:101D2000E926020EEA22E9CF14F0EACF15F014C03A
:101D3000E6FF15C0E6FFFD0EDBCFE6FFFE0EDBCFB4
:101D4000E6FF34EC27F0E552E552E552E552000992
:101D500011E1DF501E0DF3CFE9FFF4CFEAFF160EBD
:101D6000E926020EEA221C0EE926000EEA22EF0402
:101D700001E145D1DF2ABAD70101FF51030A01E190
:101D80008AD0020A01E03AD1DF6A0F0EDF5C01E37C
:101D900081D0FD0EDBCFE6FFFE0EDBCFE6FF7BDA68
:101DA000E552E552E76E020EE7CFDBFF020EDB5095
:101DB000FF086EE0190EE66EE66AE66A020EDB5078
:101DC0001E0DF3CFE9FFF4CFEAFF160EE926020E4F
:101DD000EA22E9CF14F0EACF15F014C0E6FF15C0EF
:101DE000E6FF1AEC27F0166E050EE15E16500400B1
:101DF000020EDB501E0DF3CF14F0F4CF15F0160ECB
:101E00001426020E1522030E14C0DBFF040E15C0AB
:101E1000DBFF010EDB6A1E0EF36E010EDBCFF4FF5B
:101E2000F350F45C25E2010EDB50E76E030EDBCFCE
:101E3000E9FF040EDBCFEAFFE750E926000EEA22B5
:101E4000EF50E66E010EDBCFE6FF020EDB501E0DFB
:101E5000F350E552E724E66EE66A80EC28F0E5529E
:101E6000E552E5521EEC2AF00400010EDB2AD3D71E
:101E7000020100510CE10101FF6BE66AE66AE66AC5
:101E8000010EE66EE8D9E552E552E552E552B7D0CB
:101E9000DF2A7BD7B4D0DF6A0F0EDF5C01E3ADD061
:101EA000FD0EDBCFE6FFFE0EDBCFE6FFF4D9E552F9
:101EB000E552E76E020EE7CFDBFF020EDB50FF08B4
:101EC00001E199D0190EE66EE66AE66A020EDB5071
:101ED0001E0DF3CFE9FFF4CFEAFF160EE926020E3E
:101EE000EA22E9CF14F0EACF15F014C0E6FF15C0DE
:101EF000E6FF1AEC27F0166E050EE15E16500400A0
:101F0000020EDB501E0DF3CF14F0F4CF15F0160EB9
:101F10001426020E1522030E14C0DBFF040E15C09A
:101F2000DBFF010EDB6A1E0EF36E010EDBCFF4FF4A
:101F3000F350F45C25E2010EDB50E76E030EDBCFBD
:101F4000E9FF040EDBCFEAFFE750E926000EEA22A4
:101F5000EF50E66E010EDBCFE6FF020EDB501E0DEA
:101F6000F350E552E724E66EE66A80EC28F0E5528D
:101F7000E552E5521EEC2AF00400010EDB2AD3D70D
:101F8000020101511EE1020100510DE10101FF6B4F
:101F9000E66AE66AE66A010EE66E5DD9E552E5524A
:101FA000E552E5520DD00101010EFF6FE66AE66AC7
:101FB000010EE66EE66A4FD9E552E552E552E5526A
:101FC00019D0020100510BE1E66A010EE66EE66AE5
:101FD000E66A41D9E552E552E552E5520BD0E66A90
:101FE000010EE66E010EE66EE66A35D9E552E5525F
:101FF000E552E55204D0DF2A4FD701D000D0050EBC
:10200000E15C02E2E16AE552E16EE552E7CFD9FF19
:102010001200D9CFE6FFE1CFD9FF020EE126010180
:102020000451035D0BE1FD0EDBCFE9FFFE0EDBCFBC
:10203000EAFFEE6AED6A010EDB6A2FD00351190D3B
:10204000F3CF14F0F4CF15F0050E1426010E15226F
:10205000FD0EDBCFE9FFFE0EDBCFEAFF14C0EEFF83
:1020600015C0EDFF0351190DF3CF14F0F4CF15F0A7
:10207000050E1426010E152214C0E6FF15C0E6FF5A
:102080008EEC27F0E552E552010EF3CFDBFF0101A4
:10209000032B0A0E035D01E3036B010EDB50146E8C
:1020A000020EE15C03E200D0E16AE552E16E1450F9
:1020B000E552E7CFD9FF1200D9CFE6FFE1CFD9FF34
:1020C0000101000502E1000E0AD0010E006FFE0EB4
:1020D000DBCF02F1FD0EDBCF01F1010E00D0E552A6
:1020E000E7CFD9FF1200D9CFE6FFE1CFD9FFE65203
:1020F000FE0EDB501E0DF3CFE9FFF4CFEAFF160E04
:10210000E926020EEA221C0EE926000EEA22EF6AF8
:10211000FE0EDB501E0DF3CFE9FFF4CFEAFF160EE3
:10212000E926020EEA22E9CF14F0EACF15F014C036
:10213000E6FF15C0E6FF3FD8E552E552FE0EDB5044
:102140001E0DF3CFE9FFF4CFEAFF160EE926020ECB
:10215000EA221C0EE926000EEA22EF50E66EFE0E81
:10216000DB501E0DF3501C0FE66EE66A80EC28F083
:10217000E552E552E5521EEC2AF00400DF6A0F0E2C
:10218000DF5C13E2DF501E0DF3CFE9FFF4CFEAFF6F
:10219000160EE926020EEA221C0EE926000EEA229D
:1021A000EF0401E103D0DF2AEAD78C90E552E55233
:1021B000E7CFD9FF1200D9CFE6FFE1CFD9FFE65232
:1021C000DF6AFD0EDBCFE9FFFE0EDBCFEAFFEF504B
:1021D00024E0FD0EDBCFE9FFFE0EDBCFEAFFEF5080
:1021E000E66E01010451190DF3CF14F0F4CF15F090
:1021F000050E1426010E1522DF500F011424E96E7E
:10220000000E1520EA6EE552E750EF6EDF2AFD0E54
:10221000DB2AFE0E01E3DB2AD4D701010451190D9C
:10222000F3CF14F0F4CF15F0050E1426010E15228D
:10223000DF500F011424E96E000E1520EA6EEF6ADC
:102240000101042B0A0E045D01E3046BE552E55223
:10225000E7CFD9FF1200D9CFE6FFE1CFD9FFFE0EBD
:10226000DB50E8B08A8AE8A08A9AFD0EDB50E8B01D
:102270008A88E8A08A98FC0EDB50E8B08A86E8A03D
:102280008A96FB0EDB50E8B08C80E8A08C90E5527B
:10229000E7CFD9FF1200D9CFE6FFE1CFD9FF040E77
:1022A000E126DF6A0F0EDF5C01E399D0DF501E0DDF
:1022B000F3CFE9FFF4CFEAFF160EE926020EEA2279
:1022C0001B0EE926000EEA22EF5001E186D0DF5016
:1022D0001E0DF3CFE9FFF4CFEAFF160EE926020E3A
:1022E000EA221C0EE926000EEA22EF0476E0DF5017
:1022F0001E0DF3CFE9FFF4CFEAFF160EE926020E1A
:10230000EA22E9CF14F0EACF15F014C0E6FF15C0B9
:10231000E6FFFD0EDBCFE6FFFE0EDBCFE6FF34EC83
:1023200027F0E552E552E552E552000956E1DF504B
:102330001E0DF3CFE9FFF4CFEAFF160EE926020ED9
:10234000EA221B0EE926000EEA22EF0403E1020155
:10235000000713D0DF501E0DF3CFE9FFF4CFEAFFE3
:10236000160EE926020EEA221B0EE926000EEA22CC
:10237000EF50030802E102010107DF501E0DF3CF09
:10238000E9FFF4CFEAFF160EE926020EEA221B0E41
:10239000E926000EEA22EF6ADF501E0DF3CFE9FFB7
:1023A000F4CFEAFF160EE926020EEA22190EE926FC
:1023B000000EEA22EE6AED6ADF501E0DF3CFE9FF50
:1023C000F4CFEAFF160EE926020EEA221C0EE926D9
:1023D000000EEA22EF6ADF5004D0DF2A63D7FF0E37
:1023E00000D0146E040EE15C02E2E16AE552E16E97
:1023F0001450E552E7CFD9FF1200D9CFE6FFE1CF65
:10240000D9FF020EE126010EDB6ADF6A0F0EDF5CE8
:102410005BE2DF501E0DF3CFE9FFF4CFEAFF160EAB
:10242000E926020EEA221B0EE926000EEA22EF043C
:1024300049E1DF501E0DF3CFE9FFF4CFEAFF160E9E
:10244000E926020EEA22190EE926000EEA22EE50D3
:10245000ED1038E10201012B02010007DF501E0DD3
:10246000F3CFE9FFF4CFEAFF160EE926020EEA22C7
:102470001B0EE926000EEA22030EEF6EDF501E0D42
:10248000F3CFE9FFF4CFEAFF160EE926020EEA22A7
:102490001B0EE926000EEA22EF50E66E1E0EDF024A
:1024A000F3501B0FE66EE66A80EC28F0E552E55229
:1024B000E5521EEC2AF004000101030EFF6FDE520C
:1024C000010EDD6EDF2AA2D7010EDB5000D0146EA4
:1024D000020EE15C02E2E16AE552E16E1450E5525F
:1024E000E7CFD9FF1200D9CFE6FFE1CFD9FFE652FF
:1024F000DF6A0F0EDF5C41E2DF501E0DF3CFE9FF14
:10250000F4CFEAFF160EE926020EEA221B0EE92698
:10251000000EEA22EF502FE0DF501E0DF3CFE9FF4F
:10252000F4CFEAFF160EE926020EEA22E9CF14F0F4
:10253000EACF15F014C0E6FF15C0E6FFFD0EDBCFB5
:10254000E6FFFE0EDBCFE6FF34EC27F0E552E55266
:10255000E552E55200090FE1DF501E0DF3CFE9FF10
:10256000F4CFEAFF160EE926020EEA221C0EE92637
:10257000000EEA22EF6ADF2ABCD7E552E552E7CF28
:10258000D9FF1200D9CFE6FFE1CFD9FFFD0EDBCF97
:10259000E6FFFE0EDBCFE6FF0C0EE66E020EE66EE9
:1025A00034EC27F0E552E552E552E552000902E02D
:1025B000000E02D0010E00D0E552E7CFD9FF120085
:1025C000D9CFE6FFE1CFD9FF020EE1260101FF6B73
:1025D0000201006B0201016B0201026B036B046BD1
:1025E000056B0201066B076B086B096B0301D96B66
:1025F0000101046B0101036BDE6ADD6ADECF14F0BA
:10260000DDCF15F00F0E145C000E155870E2DECF12
:10261000E9FFDDCFEAFF1E0EEA02F3CFEAFF1E0E4E
:10262000E902F3CFE9FFF450EA26160EE926020E7E
:10263000EA221B0EE926000EEA22EF6ADECFE9FF4E
:10264000DDCFEAFF1E0EEA02F3CFEAFF1E0EE9021B
:10265000F3CFE9FFF450EA26160EE926020EEA222D
:10266000190EE926000EEA22EE6AED6ADECFE9FFD6
:10267000DDCFEAFF1E0EEA02F3CFEAFF1E0EE902EB
:10268000F3CFE9FFF450EA26160EE926020EEA22FD
:102690001C0EE926000EEA22EF6A190EE66EE66AC3
:1026A000E66ADECFE9FFDDCFEAFF1E0EEA02F3CFD6
:1026B000EAFF1E0EE902F3CFE9FFF450EA26160EF8
:1026C000E926020EEA22E9CF14F0EACF15F014C091
:1026D000E6FF15C0E6FF1AEC27F0166E050EE15E68
:1026E00016500400DF2A010E01E3DB2A87D7DE6AD9
:1026F000DD6ADECF14F0DDCF15F0C20E145C000EE3
:10270000155812E2E66ADECFE6FFDDCFE6FF80EC89
:1027100028F0E552E552E5521EEC2AF00400DF2ACB
:10272000010E01E3DB2AE5D70301D8050BE1E66AD8
:10273000E66AE66A010EE66E8EDDE552E552E55286
:10274000E55209D0E66AE66AE66AE66A84DDE552A1
:10275000E552E552E552020EE15C02E2E16AE55221
:10276000E16EE552E7CFD9FF1200D9CFE6FFE1CF06
:10277000D9FF030EE126FD0EDBCFE9FFFE0EDBCF16
:10278000EAFF010EEFCFDBFF020EDB6A010EDB502A
:10279000A00A65E0010A57E0030A23E0220A0BE0E1
:1027A000020EDB6AFB0EDBCFE9FFFC0EDBCFEAFF9C
:1027B000920EEF6E5FD0F90EDBCFE6FFFA0EDBCFA5
:1027C000E6FF27DCE552E552E76E020EE7CFDBFFBE
:1027D000FB0EDBCFE9FFFC0EDBCFEAFF800EEF6ED6
:1027E00049D0010EE76EFD0EDBCF14F0FE0EDBCFFD
:1027F00015F0E7501426000E152214C0E6FF15C090
:10280000E6FF71DEE552E552010EE76EFD0EDBCF0D
:1028100014F0FE0EDBCF15F0E7501426000E152243
:1028200014C0E6FF15C0E6FF56EC0EF0E552E55287
:10283000FB0EDBCFE9FFFC0EDBCFEAFFA20EEF6E53
:10284000020EDB6A17D0BCDEFB0EDBCFE9FFFC0E0D
:10285000DBCFEAFFA10EEF6E020EDB6A0BD0020E99
:10286000DB6AFB0EDBCFE9FFFC0EDBCFEAFFA00E3D
:10287000EF6E00D0020EDB50146E030EE15C03E23B
:1028800000D0E16AE552E16E1450E552E7CFD9FF7E
:02289000120034
:0E289200D9CFE6FFE1CFD9FF040EE126040105
:1028A000300E466F080EE66EB9EC20F0E55211ECE2
:1028B0001DF024EC1DF00401006BE66A63EC1DF0D2
:1028C000E5520C0EE66EA8EC1FF0E552DF6ADF5011
:1028D000090861E3100EDF02F350A00FE66EE66A0E
:1028E000FBEC28F0E552E552E76E020EE7CFDBFF86
:1028F0001EEC2AF0020EDB504CE0010EDB6A020EE9
:10290000DB50E76E030EE7CFDBFF030EDB502CE05E
:10291000DF28100DF3CF14F0F4CF15F05E0E14265F
:10292000050E1522010EDB500F011424E96E000E76
:102930001520EA6E030EDBCFEFFF010EDB2ADBCFA3
:10294000E6FF100EDF02F350A00FE552E724E66E1B
:10295000E66AFBEC28F0E552E552E76E030EE7CF9E
:10296000DBFF1EEC2AF0D1D7DF28100DF3CF14F0D7
:10297000F4CF15F05E0E1426050E1522010EDB5065
:102980000F011424E96E000E1520EA6EEF6A0401AF
:10299000462BDF2A9CD7040EE15C02E2E16AE55295
:1029A000E16EE552E7CFD9FF1200D9CFE6FFE1CFC4
:1029B000D9FF1E0EE126DF68D950050FE96EDACF88
:1029C000EAFF4D0EEE6E410EEE6E540EEE6E450EAB
:1029D000EE6E520EEE6E490EEE6E410EEE6E4C0E27
:1029E000EE6EEE6AD9500E0FE96EDACFEAFF530EA3
:1029F000EE6E410EEE6E460EEE6E450EEE6E540E0F
:102A0000EE6E590EEE6EEE6AD950020FE66E000EB3
:102A1000DA20E66ED950030FE66E000EDA20E66E7D
:102A200092EC25F0E552E552E552E552000902E14B
:102A300099EF1AF0020EDBCFE6FF030EDBCFE6FFC5
:102A4000A3EC1AF0E552E552DF6EFF0EDF5C02E107
:102A500099EF1AF0040100510A0A02E17FEF1AF01F
:102A6000030A02E1BCEF19F0010A02E1A1EF19F03B
:102A7000040A02E168EF19F00B0A01E1EED3020A41
:102A800001E10DD3030A01E18BD20D0A01E1FFD16F
:102A90000F0A01E1C3D1070A01E1F0D0010A01E107
:102AA00099D0030A38E0010A02E099EF1AF00E0EFD
:102AB000DF5C2FE1010EE66E63EC1DF0E55211ECD8
:102AC0001DF024EC1DF000C401F404014551452B18
:102AD000EA6A250FE96E040EEA22390EEF6E4551BF
:102AE000452BEA6A250FE96E040EEA22390EEF6ED5
:102AF0004551452BEA6A250FE96E040EEA22300E95
:102B0000EF6E010E006F016B0F0EE66EA8EC1FF06A
:102B1000E55299EF1AF0080EDF5C21E1225100081E
:102B20000CE2DFCFE6FFCBEC20F0E55204012207F8
:102B30004551020801E2450711D001510FE1E66A53
:102B400063EC1DF0E55211EC1DF024EC1DF00C0EB1
:102B5000E66EA8EC1FF0E55201C400F439D00A0E6D
:102B6000DF5C18E12251000814E2060EE66E63EC09
:102B70001DF0E55211EC1DF004014551452BEA6AA8
:102B8000250FE96E040EEA22EF6A010E016F090EAD
:102B9000006F1ED02251EA6A020FE96E040EEA228B
:102BA000DFCFEFFF2251EA6A020FE96E040EEA223C
:102BB000EF50E66ECBEC20F0E55204014551452B79
:102BC000EA6A250FE96E040EEA22DFCFEFFF222B1F
:102BD00099EF1AF0080EDF5C1EE1225100080CE2AA
:102BE000DFCFE6FFCBEC20F0E55204012207455190
:102BF000020801E245070ED0030E015D0BE1020E53
:102C0000E66E63EC1DF0E55211EC1DF024EC1DF0B6
:102C100001C400F431D00A0EDF5C10E1225100083B
:102C20000CE2060EE66E63EC1DF0E55211EC1DF0B1
:102C30000401020E016F090E006F1ED02251EA6AD4
:102C4000020FE96E040EEA22DFCFEFFF2251EA6A9B
:102C5000020FE96E040EEA22EF50E66ECBEC20F094
:102C6000E55204014551452BEA6A250FE96E040E31
:102C7000EA22DFCFEFFF222B99EF1AF0080EDF5C7C
:102C80001EE1225100080CE2DFCFE6FFCBEC20F082
:102C9000E552040122074551000801E245070ED024
:102CA000060EE66E63EC1DF0E55211EC1DF024EC0F
:102CB0001DF00401030E016F090E006FAED0300E3F
:102CC000DF5C35E12251000816E22251EA6A020F68
:102CD000E96E040EEA22DFCFEFFF2251EA6A020F0B
:102CE000E96E040EEA22EF50E66ECBEC20F0E552DE
:102CF0000401222B1BD0680EE66E040EE66E1EEC5D
:102D000007F0E552E552FF0E0401885D0FE0680E02
:102D1000E66E040EE66E35EC1DF0E552E55211EC60
:102D20001DF024EC1DF004010C0E006F76D00D0E8A
:102D3000DF5C1CE1470EE66E040EE66ED1EC03F09C
:102D4000E552E552FF0E0401675D0FE0470EE66EA7
:102D5000040EE66E35EC1DF0E552E55211EC1DF067
:102D600024EC1DF00401070E006F57D00E0EDF5C3F
:102D70002CE1225129E1010EE66E63EC1DF0E552D3
:102D800011EC1DF024EC1DF004014551452BEA6ABD
:102D9000250FE96E040EEA22390EEF6E4551452BE0
:102DA000EA6A250FE96E040EEA22390EEF6E4551EC
:102DB000452BEA6A250FE96E040EEA22300EEF6E0B
:102DC00000C401F4020E006F28D00A0EDF5C10E18F
:102DD000225100080CE2030EE66E63EC1DF0E55292
:102DE00098EC1CF011EC1DF00401040E006F15D0DE
:102DF0002251EA6A020FE96E040EEA22DFCFEFFFEA
:102E00002251EA6A020FE96E040EEA22EF50E66EE2
:102E1000CBEC20F0E5520401222B8BD3080EDF5CB3
:102E20000DE1020EE66E63EC1DF0E55211EC1DF0B3
:102E300024EC1DF00401030E006F28D0DE52010EB9
:102E4000DD6EDB50090822E3010EDB50300F146EFB
:102E5000DF50145C18E1010EDBCFE6FFFBEC1DF048
:102E6000E552010EDB50300FE66E04014551EA6A6F
:102E7000250FE96E040EEA22E552E750EF6E452B6E
:102E80000B0E006F03D0010EDB2ADBD752D3080EE6
:102E9000DF5C0DE1030EE66E63EC1DF0E55211EC14
:102EA0001DF00401040E006F020E456F78D00A0E6B
:102EB000DF5C75E1D950050FE66E000EDA20E66E94
:102EC0004505EA6A250FE96E040EEA22EF50D00F9D
:102ED000100DF3CF14F0F4CF15F05E0E1426050E8E
:102EE000152214C0E6FF15C0E6FF34EC27F0E552CA
:102EF000E552E552E55200090BE1040EE66E63EC83
:102F00001DF0E55211EC1DF00401050E006F47D0D5
:102F1000D9500E0FE66E000EDA20E66E040145056C
:102F2000EA6A250FE96E040EEA22EF50D00F100D69
:102F3000F3CF14F0F4CF15F05E0E1426050E152213
:102F400014C0E6FF15C0E6FF34EC27F0E552E55269
:102F5000E552E55200090BE1050EE66E63EC1DF04B
:102F6000E55211EC1DF00401060E006F18D0E2ECE2
:102F70001CF0E66A250EE66E040EE66E53EC0CF0CD
:102F8000E552E552E552020EE66E63EC1DF0E552A5
:102F900011EC1DF024EC1DF00401030E006FC9D2EA
:102FA000080EDF5C0DE1030EE66E63EC1DF0E552EA
:102FB00011EC1DF00401020E456F040E006F6ED07F
:102FC0000A0EDF5C1DE12251000819E2E2EC1CF060
:102FD000020EE66E250EE66E040EE66E53EC0CF065
:102FE000E552E552E552020EE66E63EC1DF0E55245
:102FF00011EC1DF024EC1DF00401030E006F4ED007
:10300000DF50340A3AE0070A27E0010A14E0030A15
:1030100001E044D0010EE66E3EEC1EF0E5520401E4
:103020004551EA6A250FE96E040EEA22310EEF6E71
:10303000452B222B33D0020EE66E3EEC1EF0E552FD
:1030400004014551EA6A250FE96E040EEA22320EA8
:10305000EF6E452B222B22D0030EE66E3EEC1EF0C7
:10306000E55204014551EA6A250FE96E040EEA2291
:10307000330EEF6E452B222B11D0040EE66E3EEC84
:103080001EF0E55204014551EA6A250FE96E040E6F
:10309000EA22340EEF6E452B222B00D04AD2080EC6
:1030A000DF5C18E12251000808E2DFCFE6FFCBEC3D
:1030B00020F0E552040122070CD0030EE66E63EC0B
:1030C0001DF0E55211EC1DF00401040E006F020E1C
:1030D000456FC2D00A0EDF5C1DE12251000819E2E3
:1030E000E2EC1CF0010EE66E250EE66E040EE66EB6
:1030F00053EC0CF0E552E552E552020EE66E63EC3D
:103100001DF0E55211EC1DF024EC1DF00401030E3E
:10311000006FA2D0030EDB50235D6DE1280EF36E2D
:10312000020EDBCFF4FFF350F45C36E222072251AB
:10313000EA6A020FE96E040EEA22DFCFEFFF080E03
:10314000E66ECBEC20F0E55204012251EA6A020F50
:10315000E96E040EEA22EF50E66ECBEC20F0E55269
:10316000140EF36E150EF3CFDBFF160EDB6A150E91
:10317000DBCF14F0DB06160EDBCF15F001E2DB0629
:103180001450151006E0080EE66ECEEC29F0E5525C
:10319000EED70401222B2ED02251EA6A020FE96EEB
:1031A000040EEA22DFCFEFFF2251EA6A020FE96E36
:1031B000040EEA22EF50E66ECBEC20F0E552140E3E
:1031C000F36E170EF3CFDBFF180EDB6A170EDBCFA3
:1031D00014F0DB06180EDBCF15F001E2DB0614500D
:1031E000151006E0080EE66ECEEC29F0E552EED79B
:1031F0000401222B2ED02251EA6A020FE96E040E3E
:10320000EA22DFCFEFFF2251EA6A020FE96E040ED5
:10321000EA22EF50E66ECBEC20F0E552140EF36E8E
:10322000190EF3CFDBFF1A0EDB6A190EDBCF14F099
:10323000DB061A0EDBCF15F001E2DB061450151089
:1032400006E0080EE66ECEEC29F0E552EED704015A
:10325000222B030EDBCF23F46CD10D0EDF5C15E1C6
:10326000470EE66E040EE66ED1EC03F0E552E55231
:10327000FF0E0401675D08E0470EE66E040EE66E81
:1032800035EC1DF0E552E55222D0080EDF5C0BE173
:10329000020EE66E63EC1DF0E552C3DBD5DB0401E4
:1032A000030E006F14D00A0EDF5C11E167C4E6FF65
:1032B00073EC10F0E55204016769020EE66E63ECF0
:1032C0001DF0E552AEDBC0DB0401030E006F31D10F
:1032D000080EDF5C0BE1020EE66E63EC1DF0E552BA
:1032E000A0DBB2DB0401030E006F2AD0300EDF5CDE
:1032F00014E1680EE66E040EE66E1EEC07F0E55271
:10330000E552FF0E0401885D07E0680EE66E040ECC
:10331000E66EABDBE552E55213D00A0EDF5C10E13E
:1033200088C4E6FF81EC0AF0E55204018869020EC8
:10333000E66EC9DBE55275DB87DB0401030E006F27
:10334000F8D0080EDF5C09E1020EE66EBCDBE55248
:1033500068DB0401030E006F0ED00A0EDF5C0BE188
:10336000E0EC12F05EDB70DB020EE66EACDBE552E9
:103370000401030E006FDDD0080EDF5C1FE10105C4
:103380000DE1E66AA0DBE5524CDB5EDB0401006B7D
:103390000C0EE66EA8EC1FF0E5520FD0020E015D98
:1033A00003E0030E015D09E1020EE66E8CDBE552DF
:1033B00038DB4ADB0401030E006FA0D00A0EDF5C8D
:1033C00001E08DD02251EA6A020FE96E040EEA2272
:1033D000EF6A01052DE11B0EDB6A250EE66E040E79
:1033E000E66E020EE66E040EE66E0CEC02F0E5529E
:1033F000E552E552E552E76E1B0EE7CFDBFFDB043B
:103400000FE1020EE66E5FDBE5520BDB1DDB0F0EFC
:10341000E66EA8EC1FF0E5520401030E006F07D022
:10342000E66A51DBE552FDDA0FDB0401006B56D092
:10343000020E015D2DE11C0EDB6A250EE66E040E08
:10344000E66E020EE66E040EE66E95EC02F0E552B4
:10345000E552E552E552E76E1C0EE7CFDBFFDB04D9
:103460000DE1E66A30DBE552DCDAEEDA0C0EE66EF0
:10347000A8EC1FF0E5520401006B09D0020EE66EC5
:1034800022DBE552CEDAE0DA0401030E006F26D02B
:10349000030E015D23E11D0EDB6A020EE66E040ED3
:1034A000E66EC2EC12F0E552E552E76E1D0EE7CF74
:1034B000DBFFDB040AE1070EE66E05DBE552B1DA5D
:1034C000C3DA04010A0E006F09D0020EE66EFBDAC1
:1034D000E552A7DAB9DA0401030E006F0FD02251CA
:1034E000EA6A020FE96E040EEA22DFCFEFFF2A0E2E
:1034F000E66ECBEC20F0E5520401222B1AD0080E28
:10350000DF5C0AE1020EE66EDEDAE5528ADA9CDA68
:103510000401030E006F0CD0300EDF5C09E1080ED1
:10352000E66ED1DAE5527DDA8FDA0401080E006F1B
:1035300000D01E0EE15C02E2E16AE552E16EE55266
:10354000E7CFD9FF1200D9CFE6FFE1CFD9FFE6528E
:10355000DF68040100510A0A01E1AAD1020A01E16F
:1035600088D1010A01E176D10F0A01E146D10A0AA8
:1035700001E12AD10B0A01E10AD1020A01E1D5D009
:103580000E0A01E1BCD00F0A01E19FD0070A76E0E4
:10359000010A40E0030A0AE0010A01E0ABD1FE0E95
:1035A000DB500E0802E10E0EDF6EA4D1FE0EDB50E2
:1035B000235D10E1280EF36EFD0EDBCFF4FFF35018
:1035C000F45C06E2242B040E245D01E1246B01D09F
:1035D000246B01D0246BFE0EDB50040DF3CF14F0EE
:1035E000F4CF15F0680E1426530E152224510F0146
:1035F0001424F66E000E1520F76E0800F550DF6EED
:10360000FE0EDB500E0804E0FE0EDB500D0801E15B
:10361000DF6870D1FE0EDB50235D10E1280EF36EE3
:10362000FD0EDBCFF4FFF350F45C06E2242B040E16
:10363000245D01E1246B01D0246B01D0246BFE0ECC
:10364000DB50040DF3CF14F0F4CF15F0680E142600
:10365000530E152224510F011424F66E000E15206E
:10366000F76E0800F550DF6EFE0EDB500E0804E02A
:10367000FE0EDB500D0801E1DF683CD1FE0EDB5091
:103680000D0803E10D0EDF6E1FD0FE0EDB500E089D
:1036900003E10E0EDF6E18D0FE0EDB50040DF3CFEB
:1036A000F6FFF4CFF7FF680EF626530EF722080058
:1036B000F550DF6E020E225D07E3080EDF5C04E0CA
:1036C0000A0EDF5C01E0DF6815D1FE0EDB50040D51
:1036D000F3CFF6FFF4CFF7FF680EF626530EF7226E
:1036E0000800F550DF6E4651D880DF5407E2080E1F
:1036F000DF5C04E00A0EDF5C01E0DF68FBD0FE0E59
:10370000DB50040DF3CFF6FFF4CFF7FF680EF6267B
:10371000530EF7220800F550DF6E0A0EDF5C04E05E
:10372000080EDF5C01E0DF68E5D0FE0EDB50235DB4
:1037300010E1280EF36EFD0EDBCFF4FFF350F45CC6
:1037400006E2242B040E245D01E1246B01D0246BDE
:1037500001D0246BFE0EDB50040DF3CF14F0F4CF38
:1037600015F0680E1426530E152224510F0114244F
:10377000F66E000E1520F76E0800F550DF6E0C0E89
:10378000DF5C03E00B0EDF5C01E1DF68B3D0FE0E0F
:10379000DB500D0803E10D0EDF6E15D0FE0EDB5081
:1037A000040DF3CFF6FFF4CFF7FF680EF626530EA5
:1037B000F7220800F550DF6E0A0EDF5C04E0080E09
:1037C000DF5C01E0DF6896D0FE0EDB50040DF3CF26
:1037D000F6FFF4CFF7FF680EF626530EF722080027
:1037E000F550DF6E0A0EDF5C07E0080EDF5C04E0D8
:1037F000300EDF5C01E0DF687DD0FE0EDB50040D93
:10380000F3CFF6FFF4CFF7FF680EF626530EF7223C
:103810000800F550DF6E010E225D08E3080EDF5C44
:1038200004E00A0EDF5C01E0DF6813D0080EDF5C05
:1038300010E00A0EDF5C0DE0310EDF5C0AE0320EB4
:10384000DF5C07E0330EDF5C04E0340EDF5C01E098
:10385000DF6850D0FE0EDB50040DF3CFF6FFF4CF3F
:10386000F7FF680EF626530EF7220800F550DF6EBC
:1038700041D0FE0EDB50040DF3CFF6FFF4CFF7FF7F
:10388000680EF626530EF7220800F550DF6EFE0E86
:10389000DB500E0804E0FE0EDB500D0801E1DF688E
:1038A0000A0EDF5C04E0080EDF5C01E0DF6822D076
:1038B000FE0EDB50040DF3CFF6FFF4CFF7FF680EDA
:1038C000F626530EF7220800F550DF6EFE0EDB5091
:1038D0000E0804E0FE0EDB500D0801E1DF68300E3B
:1038E000DF5C07E0080EDF5C04E00A0EDF5C01E04D
:1038F000DF6800D0DF5000D0E552E552E7CFD9FFB6
:103900001200D9CFE6FFE1CFD9FFFE0EDB50030A4C
:1039100001E00AD0020EE66ED6D8E55282D894D8DD
:103920000401030E006F00D0E552E7CFD9FF12006B
:10393000D9CFE6FFE1CFD9FF020EE126010EDB6A07
:103940000401220513E14551EA6A250FE96E040ED0
:10395000EA22300EEF6E452B4551EA6A250FE96EDB
:10396000040EEA2202C4EFFF452B12D04551EA6A49
:10397000250FE96E040EEA2202C4EFFF452B4551E4
:10398000EA6A250FE96E040EEA2203C4EFFF452B15
:10399000300E265D146E300E255D0A0DF350142492
:1039A000E76E010EE7CFDBFFDB50146E020EE15C29
:1039B00003E200D0E16AE552E16E1450E552E7CF30
:1039C000D9FF1200D9CFE6FFE1CFD9FFE652DF6A77
:1039D00004012251DF5C14E2DF50EA6A020FE96E53
:1039E000040EEA22EF50E66E4551EA6A250FE96EB1
:1039F000040EEA22E552E750EF6E452BDF2AE8D7A6
:103A00004551EA6A250FE96E040EEA22EF6A452B5A
:103A10001F0E455D01E3456BE552E552E7CFD9FF47
:103A200012001F0EE66EE66AE66A020EE66E040EED
:103A3000E66E1AEC27F0146E050EE15E14500401D8
:103A4000226B246B236912001F0EE66EE66AE66A9B
:103A5000250EE66E040EE66E1AEC27F0146E050EC7
:103A6000E15E14500401456B1200D9CFE6FFE1CFAF
:103A7000D9FFE652C4EC20F0DF6ADF50E76EFD0E9E
:103A8000DBCFE9FFFE0EDBCFEAFFE750E926000EB1
:103A9000EA22EF5013E0DF50E76EFD0EDBCFE9FFC7
:103AA000FE0EDBCFEAFFE750E926000EEA22EF50D8
:103AB000E66ECBEC20F0E552DF2ADFD7E552E55287
:103AC000E7CFD9FF1200D9CFE6FFE1CFD9FF210E12
:103AD000E126C4EC20F0FE0EEA6ADB34FE0BEA3687
:103AE000E96E420EE926050EEA22EECF14F0EFCF82
:103AF00015F0166A14C0E6FF15C0E6FF16C0E6FF13
:103B0000D950010FE66E000EDA20E66E75EC27F054
:103B1000176E050EE15E1750DF6AD950010F146E63
:103B2000DACF15F0DF500F011424E96E000E1520D6
:103B3000EA6EEF5012E0D950010F146EDACF15F093
:103B4000DF501424E96E000E1520EA6EEF50E66E89
:103B5000CBEC20F0E552DF2AE0D7210EE15C02E257
:103B6000E16AE552E16EE552E7CFD9FF1200D9CF05
:103B7000E6FFE1CFD9FF030EE126FE0EEA6ADB3451
:103B8000FE0BEA36E96E420EE926050EEA22010E28
:103B9000EECFDBFF020EEDCFDBFFDF6ADF50E76E1B
:103BA000010EDBCFF6FF020EDBCFF7FFE750F62664
:103BB000000EF7220800F55014E0DF50E76E010E0A
:103BC000DBCFF6FF020EDBCFF7FFE750F626000E45
:103BD000F7220800F550E66ECBEC20F0E552DF2A24
:103BE000DDD7030EE15C02E2E16AE552E16EE552E7
:103BF000E7CFD9FF1200D9CFE6FFE1CFD9FF030EFF
:103C0000E126FE0EDB50100DF3CF14F0F4CF15F0CB
:103C10005E0E1426050E1522010E14C0DBFF020EE7
:103C200015C0DBFFDF6ADF50E76E010EDBCFE9FF77
:103C3000020EDBCFEAFFE750E926000EEA22EF5042
:103C400013E0DF50E76E010EDBCFE9FF020EDBCFA2
:103C5000EAFFE750E926000EEA22EF50E66ECBECD1
:103C600020F0E552DF2ADFD7030EE15C02E2E16AD1
:103C7000E552E16EE552E7CFD9FF1200D9CFE6FF5A
:103C8000E1CFD9FF030EE126FE0EEA6ADB34FE0B1C
:103C9000EA36E96E540EE926050EEA22010EEECF51
:103CA000DBFF020EEDCFDBFFDF6ADF50E76E010EB8
:103CB000DBCFF6FF020EDBCFF7FFE750F626000E54
:103CC000F7220800F55014E0DF50E76E010EDBCF5D
:103CD000F6FF020EDBCFF7FFE750F626000EF722C5
:103CE0000800F550E66ECBEC20F0E552DF2ADDD778
:103CF000030EE15C02E2E16AE552E16EE552E7CFD4
:103D0000D9FF1200D9CFE6FFE1CFD9FF040EE1269B
:103D1000FD0EDBCFE9FFFE0EDBCFEAFFEF50D00F49
:103D2000FF0FE76E030EE7CFDBFF010EDB6A000E2D
:103D3000DF6EDF28E76EFD0EDBCFE9FFFE0EDBCF87
:103D4000EAFFE750E926000EEA22EF501FE0DF28E5
:103D5000E76EFD0EDBCFE9FFFE0EDBCFEAFFE7509B
:103D6000E926000EEA22EF50E66E030EDB50100D3E
:103D7000F350A00FDF24E66EE66A80EC28F0E552EF
:103D8000E552E5521EEC2AF0DF2AD3D7E66A030E8D
:103D9000DB50100DF350A00FDF24E66EE66A80ECD6
:103DA00028F0E552E552E5521EEC2AF0030EDB50F6
:103DB000100DF350A00FE66EE66AFBEC28F0E5521A
:103DC000E552E76E020EE7CFDBFF1EEC2AF0020E93
:103DD000DB502EE0030EDB28100DF3CF14F0F4CFF0
:103DE00015F05E0E1426050E1522010EDB500F0194
:103DF0001424E96E000E1520EA6E020EDBCFEFFFF1
:103E0000010EDB2ADBCFE6FF030EDB50100DF35073
:103E1000A00FE552E724E66EE66AFBEC28F0E552D7
:103E2000E552E76E020EE7CFDBFF1EEC2AF0CFD79C
:103E3000030EDB28100DF3CF14F0F4CF15F05E0E57
:103E40001426050E1522010EDB500F011424E96E15
:103E5000000E1520EA6EEF6A040EE15C02E2E16AF0
:0C3E6000E552E16EE552E7CFD9FF1200F9
:043E6C00D9CFE6FFC5
:103E7000E1CFD9FF030EE126300EF36E010EF3CF32
:103E8000DBFF750EF36E020EF3CFDBFF010EDF6E6C
:103E9000DF0431E1958E958C958A9588959295945D
:103EA0009596000000008C968C84000000008C82A7
:103EB000000000008350800B01E0010EDF6E8C9249
:103EC0008C82000000008C92010EDB06020E01E2E3
:103ED000DB06D950010FE96EDACFEAFFEE50ED10A4
:103EE00009E1959E959C959A9598959295949596AD
:103EF000FF0E0AD0CDD7959E959C959A9598959250
:103F000095949596000E00D0146E030EE15C02E2CB
:103F1000E16AE552E16E1450E552E7CFD9FF120095
:103F2000D9CFE6FFE1CFD9FF8C968C940000FE0E2E
:103F3000DB50F00B146E0F0E8C1414108C6E0000FE
:103F40008C82000000008C92E552E7CFD9FF12006E
:103F5000D9CFE6FFE1CFD9FF89DF8C968C940000A2
:103F6000FE0EDB50F00B146E0F0E8C1414108C6EC2
:103F700000008C82000000008C92FE0EDB38F00BFB
:103F8000F00B146E0F0E8C1414108C6E00008C82CB
:103F9000000000008C92E552E7CFD9FF1200D9CF84
:103FA000E6FFE1CFD9FF62DF8C868C940000FE0E25
:103FB000DB50F00B146E0F0E8C1414108C6E00007E
:103FC0008C82000000008C92FE0EDB38F00BF00BB0
:103FD000146E0F0E8C1414108C6E00008C82000076
:103FE00000008C92E552E7CFD9FF1200D9CFE6FF4F
:103FF000E1CFD9FF0B0EE126959E959C959A959859
:10400000959295949596280EF36E010EF3CFDBFFF3
:10401000020EDB6A010EDBCF14F0DB06020EDBCFF3
:1040200015F001E2DB061450151006E0080EE66EEE
:10403000CEEC29F0E552EED7300EE66E71DFE55298
:104040000A0EF36E030EF3CFDBFF040EDB6A030EE2
:10405000DBCF14F0DB06040EDBCF15F001E2DB064C
:104060001450151006E0080EE66ECEEC29F0E5526D
:10407000EED7300EE66E54DFE5520A0EF36E050EF3
:10408000F3CFDBFF060EDB6A050EDBCF14F0DB0699
:10409000060EDBCF15F001E2DB061450151006E02A
:1040A000080EE66ECEEC29F0E552EED7300EE66E45
:1040B00037DFE5520A0EF36E070EF3CFDBFF080E73
:1040C000DB6A070EDBCF14F0DB06080EDBCF15F042
:1040D00001E2DB061450151006E0080EE66ECEEC89
:1040E00029F0E552EED7200EE66E1ADFE5520A0EF1
:1040F000F36E090EF3CFDBFF0A0EDB6A090EDBCF8E
:1041000014F0DB060A0EDBCF15F001E2DB061450DB
:10411000151006E0080EE66ECEEC29F0E552EED75B
:10412000280EE66E15DFE552A1DEDF6EDF5004E1FA
:104130000401010ED66F03D00401D66B10D00F0E10
:10414000E66E06DFE552010EE66E02DFE552040E72
:10415000E66EFEDEE552060EE66EFADEE5520B0E68
:10416000E15C02E2E16AE552E16EE552E7CFD9FF98
:104170001200D9CFE6FFE1CFD9FFFE0EDBCF9CF4D2
:10418000E552E7CFD9FF1200010EE66EE1DEE552FF
:1041900004019B6B1200D9CFE6FFE1CFD9FFE652B5
:1041A000100E04019B5D05E1C00EE66ED1DEE55206
:1041B00008D0200E9B5D05E39B6B020EE66EC8DE09
:1041C000E552FE0EDB5004019C5D23E19B5101E1B1
:1041D00027D0100E9B5D0EE1800EE66EB9DEE55233
:1041E000DF6A100EDF5C06E2140EE66EB1DEE55209
:1041F000DF2AF7D7100EE66EABDEE552200EE66E34
:10420000CEDEE552100EE66EA3DEE55204019B07FA
:1042100007D0FE0EDBCFE6FFC2DEE55204019B2B8A
:10422000E552E552E7CFD9FF1200E0DE010EE66E5F
:104230008FDEE55204019B6B1200D9CFE6FFE1CF80
:10424000D9FFE652010EE66E83DEE552DF6A100EFC
:10425000DF5C1CE2FD0EDBCFE9FFFE0EDBCFEAFFE9
:10426000EF50E66EDF50EA6A9D0FE96E040EEA2217
:10427000E552E750EF6EFD0EDBCFE9FFDB2AFE0EC5
:10428000DBCFEAFF01E3DB2ADF2AE1D7C00EE66ECF
:104290005FDEE552DF6A100EDF5C1CE2FD0EDBCF55
:1042A000E9FFFE0EDBCFEAFFEF50E66EDF50EA6A71
:1042B0009D0FE96E040EEA22E552E750EF6EFD0E07
:1042C000DBCFE9FFDB2AFE0EDBCFEAFF01E3DB2ACF
:0E42D000DF2AE1D7E552E552E7CFD9FF120011
:0242DE00D9CF36
:1042E000E6FFE1CFD9FF240EE66EF40EE66EE66A35
:1042F000E66A43EC24F0E552E552E552E552FE0E43
:10430000DBCF01F5FD0EDBCF02F5FC0EDBCF03F5B5
:10431000FB0EDBCF04F5F90EDBCF1DF5FA0EDBCF7C
:104320001EF504D8E552E7CFD9FF1200240EE66E41
:10433000F40EE66EE66AE66A43EC24F0E552E552D6
:10434000E552E5520501196B1A6B010E006F1B6BEC
:10435000050E1C6F23C51FF524C520F525C521F5C5
:1043600026C522F500C527F51200D9CFE6FFE1CF1B
:10437000D9FF060EE126DF6AE8EC26F006C023F539
:1043800007C024F508C025F509C026F5ABA207D063
:10439000AB98080EE66E0AEC2AF0E552AB881F0EC9
:1043A000E96E050EEA6EEE500501231909E1EE50A3
:1043B000241906E1EE50251903E1EE50261900E11B
:1043C00010E00051275D05E11C071C5102E1AEDF42
:1043D000BDD023C51FF524C520F525C521F526C56B
:1043E00022F50051030A01E1ACD0010A15E0030AED
:1043F00002E09CDFA9D006EC25F0000903E023ECE5
:1044000025F0DF6E05010151DF5C05E1196B020E3D
:10441000006F050E1C6F98D006EC25F0000901E135
:1044200095D023EC25F0DF6E05010251DF5C74E1CD
:10443000020EDB6A030EDB68D950030FE66E000E36
:10444000DA20E66E8DD8E552E552E76E020EE7CF30
:10445000DBFFDB50020A54E0030A05E0010A01E039
:1044600057D064DF73D005011D511E1147E0D950AC
:10447000040FE66E000EDA20E66E1B0EE66E050EE9
:10448000E66E070EE66E050EE66E05D01EC5FAFF57
:1044900005011D51F96EFADF146E060EE15E14502F
:1044A00005011A6F070E0F6F1A2B1BC510F51A2B7B
:1044B000DE52020EDD6E1A51F36E010EDBCFF4FFF9
:1044C000F350F45C1AE2040EDBCFE9FF050EDBCFFC
:1044D000EAFFEF50E66E010EDB50EA6A0F0FE96E5D
:1044E000050EEA22E552E750EF6E040EDB2A050EB8
:1044F00001E3DB2A010EDB2ADED701D017DF08D06B
:104500000501070E0F6F1A2B1BC510F51A2B00D0D3
:104510000501030E006F14D01951192BEA6A050F1B
:10452000E96E050EEA22DFCFEFFF0A0E195D08E300
:10453000070E0F6F1A2B900E106F1A2B030E006FC1
:1045400003D05AD8F3DE00D000C527F5060EE15C93
:1045500002E2E16AE552E16EE552E7CFD9FF1200CF
:10456000D9CFE6FFE1CFD9FF020EE12605011905FB
:10457000EA6A050FE96E050EEA22EFCFDFFF010EB2
:10458000DB6A070E055D05E0FA0E055D02E0000E30
:1045900027D01905E66E050EE66E050EE66E9FD86D
:1045A000E552E552E552E76E010EE7CFDBFFDB5047
:1045B000DF5C0CE1050119071951EA6A050FE96E84
:1045C000050EEA22EF6A010E0BD00AD0FD0EDBCFFA
:1045D000E9FFFE0EDBCFEAFF910EEF6E000E00D07A
:1045E000146E020EE15C02E2E16AE552E16E1450E3
:1045F000E552E7CFD9FF1200D9CFE6FFE1CFD9FFCF
:10460000020EE126DF6A010EDB6A1AC5E6FF0F0E15
:10461000E66E050EE66E63D8E552E552E552DF6EB2
:1046200003C5E6FFA7EC24F0E552010EDB6A0501A5
:104630001A51F36E010EDBCFF4FFF350F45C0FE27E
:10464000010EDB50EA6A0F0FE96E050EEA22EF5009
:10465000E66EA7EC24F0E552010EDB2AE8D7DFCFA7
:10466000E6FFA7EC24F0E55204C5E6FFA7EC24F032
:10467000E552C3EC24F00400020EE15C02E2E16AC0
:10468000E552E16EE552E7CFD9FF1200D9CFE6FF40
:10469000E1CFD9FFFD0EDBCFF6FFFE0EDBCFF7FF3C
:1046A0000800F55016E0FD0EDBCFF6FFFE0EDBCF67
:1046B000F7FF0800F550E66EA7EC24F0E552FD0E7A
:1046C000DBCFF6FFDB2AFE0EDBCFF7FF01E3DB2AB1
:1046D000E1D7C3EC24F0E552E7CFD9FF1200D9CFE0
:1046E000E6FFE1CFD9FF030EE126DF6A010EDB6AA8
:1046F000FC0EDB50F36E010EDBCFF4FFF350F45CE5
:1047000012E2010EDB50E76EFD0EDBCFE9FFFE0E7D
:10471000DBCFEAFFE750E926000EEA22EF50DF1A6E
:10472000010EDB2AE5D7DF50146E030EE15C03E2D5
:1047300000D0E16AE552E16E1450E552E7CFD9FFAF
:02474000120065
:0E474200DACFE4FFE2CFDAFFE9CFE4FFEACFFF
:10475000E4FFF6CFE4FFF7CFE4FFF5CFE4FFF3CFBC
:10476000E4FFF4CFE4FFFACFE4FF00EE00F0140E14
:10477000E80403E3EECFE4FFFBD700EE14F00A0EEB
:10478000E80403E3EECFE4FFFBD7E652D9CFE6FF20
:10479000E1CFD9FFE6523FEC29F0DF6E050135513C
:1047A000352BEA6A380FE96E050EEA22DFCFEFFFFC
:1047B0000A0E355D01E3356B372B9E9AE552E552C3
:1047C000E7CFD9FFE55200EE1DF00A0EE80403E33F
:1047D000E5CFEDFFFBD700EE13F0140EE80403E382
:1047E000E5CFEDFFFBD7E5CFFAFFE5CFF4FFE5CF4F
:1047F000F3FFE5CFF5FFE5CFF7FFE5CFF6FFE5CF18
:10480000EAFFE5CFE9FFE5CFDAFF1100DACFE4FFF9
:10481000E2CFDAFFE9CFE4FFEACFE4FFE652D9CFF7
:10482000E6FFE1CFD9FFE65205012A5105E1ACA22E
:10483000FED78290AC9A1BD02951EA6A2B0FE96E01
:10484000050EEA22EFCFDFFFDF50AD6E292B0A0EF7
:10485000295D01E3296B000EE76E2A19E8AE02D04C
:104860002A3503D0E750D8802A5501E22A07E552BD
:10487000E552E7CFD9FFE552E5CFEAFFE5CFE9FF03
:10488000E5CFDAFF1100D9CFE6FFE1CFD9FFE6523D
:104890007C0EDF6ED950FB0FE96EFF0EDA20EA6E58
:1048A000EE2A000EEE22EE22EE22D950FB0FE96E28
:1048B000FF0EDA20EA6E040EE76ED890EF36010E96
:1048C000EB36020EEB36030EEB36E706F6E1146A22
:1048D000480E156EE80E166E010E176E14C006F027
:1048E00015C007F016C008F017C009F0FB0EDBCFAB
:1048F0000BF0FC0EDBCF0CF0FD0EDBCF0DF0FE0E4F
:10490000DBCF0EF0B3EC28F0FB0E06C0DBFFFC0E95
:1049100007C0DBFFFD0E08C0DBFFFE0E09C0DBFF9A
:10492000FB0EDBCFE6FFFC0EDBCFE6FFDFCFE6FFC3
:104930003BEC28F0E552E552E552D08EAC8AAC9EB5
:10494000F28C9F8AE552E552E7CFD9FF1200D9CF0A
:10495000E6FFE1CFD9FFACA2FED705012851282BF5
:10496000EA6A2B0FE96E050EEA22FE0EDBCFEFFF9F
:104970002A2B0A0E285D01E3286B010E00D0E552B8
:10498000E7CFD9FF1200D9CFE6FFE1CFD9FF020E62
:10499000E1268280000E0501E76E2A19E8AE02D0FA
:1049A0002A3503D0E750D8802A5523E22951EA6AF4
:1049B0002B0FE96E050EEA22010EEFCFDBFFACA252
:1049C000FED7010EDB50AD6EACA2FED70501292B40
:1049D0000A0E295D01E3296B000EE76E2A19E8AE85
:1049E00002D02A3503D0E750D8802A5501E22A07A1
:1049F000D1D78290146E020EE15C02E2E16AE552C8
:104A0000E16E1450E552E7CFD9FF1200D9CFE6FF8F
:104A1000E1CFD9FFE652DF6A9D9A000E0501E76EED
:104A20003719E8AE02D0373503D0E750D880375574
:104A300002E2010EDF6E9D8ADF5000D0E552E552A2
:104A4000E7CFD9FF1200D9CFE6FFE1CFD9FFE65279
:104A50009D9A05013651362BEA6A380FE96E050E2C
:104A6000EA22EFCFDFFF0A0E365D01E3366B000E60
:104A7000E76E3719E8AE02D0373503D0E750D8805B
:104A8000375501E237079D8ADF5000D0E552E552E5
:064A9000E7CFD9FF120080
:0A4A96000401976B986B1200D9CF52
:104AA000E6FFE1CFD9FF020EE1260401992BD9CF11
:104AB000E6FFDACFE6FF81D8E552E552000901E1D1
:104AC00027D004019751985D02E1986B976B98513C
:104AD000E96EEA6AD890E936EA36890EE926040ECC
:104AE000EA22DFCFEFFF9851E96EEA6AD890E93603
:104AF000EA36890EE926040EEA22010EE926000EA6
:104B0000EA2299C4EFFF060E985D01E2982B996B9B
:104B1000020EE15C02E2E16AE552E16EE552E7CFA6
:104B2000D9FF1200D9CFE6FFE1CFD9FF0401985198
:104B3000975D31E29751E96EEA6AD890E936EA3634
:104B4000890EE926040EEA22EF50E66EFD0EDBCF59
:104B5000E9FFFE0EDBCFEAFFE552E750EF6E97511B
:104B6000E96EEA6AD890E936EA36890EE926040E3B
:104B7000EA22010EE926000EEA22EF50E66EFB0E55
:104B8000DBCFE9FFFC0EDBCFEAFFE552E750EF6E2B
:104B9000972B010E02D0000E00D0E552E7CFD9FFCF
:104BA00012000401D35100D012000401D45100D0EE
:104BB00012000401986B976B1200D9CFE6FFE1CF8A
:104BC000D9FFE652DF68809881B402D0010EDF6E13
:104BD00080B202D0040EDF6E80B402D0070EDF6E0A
:104BE00080B602D00A0EDF6E8088FF0EDF5C12E115
:104BF000809A81B402D0020EDF6E80B202D0050E20
:104C0000DF6E80B402D0080EDF6E80B602D00B0ECD
:104C1000DF6E808AFF0EDF5C12E1849081B402D0E7
:104C2000030EDF6E80B202D0060EDF6E80B402D0BB
:104C3000090EDF6E80B602D00C0EDF6E8480FF0E90
:104C4000DF5C0AE1829484B202D00E0EDF6E82B283
:104C500002D00D0EDF6E8284FF0EDF5C06E10401E0
:104C60009A690401D269000E18D004019A51DF5CE0
:104C700010E10401D251DF5C0CE0FD0EDBCFE9FF57
:104C8000FE0EDBCFEAFFDFCFEFFFDFCFD2F4010E66
:104C900004D0DFCF9AF4000E00D0E552E552E7CF02
:044CA000D9FF120026
:0C4CA400DACFE4FFE2CFDAFFE9CFE4FF53
:104CB000EACFE4FFF6CFE4FFF7CFE4FFF5CFE4FF60
:104CC000F3CFE4FFF4CFE4FFFACFE4FF00EE00F00F
:104CD000140EE80403E3EECFE4FFFBD700EE14F07C
:104CE0000A0EE80403E3EECFE4FFFBD7E652F294AA
:104CF0000401C32B000EC423C523C623640EC319AD
:104D000005E1C45103E1C55101E1C65109E1BD2BE3
:104D1000000EBE23BF23C023C36BC46BC56BC66B21
:104D2000C22BC2511E6E1F6A320E1E1801E11F50A7
:104D300007E1C171C151E8B08D84E8A08D94C26BC8
:104D4000C72BC7511E6E1F6A020E1E1801E11F50AD
:104D500004E14FEC25F00401C76BAF0EE66E3C0E8C
:104D6000E66E7CEC29F0E552E552E55200EE1DF0CE
:104D70000A0EE80403E3E5CFEDFFFBD700EE13F0E6
:104D8000140EE80403E3E5CFEDFFFBD7E5CFFAFF10
:104D9000E5CFF4FFE5CFF3FFE5CFF5FFE5CFF7FF74
:104DA000E5CFF6FFE5CFEAFFE5CFE9FFE5CFDAFF94
:104DB00011009F0EE66E98EC29F0E552AF0EE66EFC
:104DC0003C0EE66E7CEC29F0E552E552F1841200CF
:104DD000D9CFE6FFE1CFD9FF040EE126F29ABDC498
:104DE000DFFF010EBEC4DBFF020EBFC4DBFF030EFC
:104DF000C0C4DBFFF28ADECF06F0DECF07F0DECFE5
:104E000008F0DDCF09F0DD52DD52040EE15C03E273
:104E100000D0E16AE552E16EE552E7CFD9FF12001A
:104E2000F29EF29C0401BD6BBE6BBF6BC06BF28E39
:044E3000F28C1200EE
:0C4E3400FE0EE3CFE9FFFF0EE3CFEAFF24
:104E4000E9CFF3FFEACFF4FFFB0EE35003E1FC0EE2
:104E5000E35009E0FB0EE30602E2FC0EE306FD0E62
:104E6000E350EE6EF1D71200D9CFE6FFDACFE6FFBE
:104E7000FA0EE3CFD9FFFB0EE3CFDAFFFC0EE3CF50
:104E8000E9FFFD0EE3CFEAFFDE50EF5C02E1EE66E4
:104E9000FBD7F36EFF0EE3CFDAFFE552FF0EE3CF51
:104EA000D9FFE552F3501200D9CFE6FFDACFE6FF83
:104EB000FA0EE3CFD9FFFB0EE3CFDAFFFC0EE3CF10
:104EC000E9FFFD0EE3CFEAFFE9CFF3FFEACFF4FFFE
:104ED000DECFEFFFEE66FCD7FF0EE3CFDAFFE55241
:104EE000FF0EE3CFD9FFE5521200FB0EE3CFF6FF32
:104EF000FC0EE3CFF7FFFD0EE3CFF8FFFE0EE3CF8E
:104F0000E9FFFF0EE3CFEAFFE9CFF3FFEACFF4FFBB
:104F10000900F5CFEFFFEE66FBD71200FE0EE3CFE0
:104F2000E9FFFF0EE3CFEAFFF36AF46AEE5203E013
:084F3000F34AF42AFBD712003A
:084F38004E454152204D495342
:104F4000530050524F50455254592044414D41470F
:104F500045004D494E4F5220494E4A555259004D39
:104F6000414A4F5220494E4A5552590000434C4540
:104F70004152204953535545530041444D494E2019
:104F800041435449564954593A0050415353574F9D
:104F900052443A00434C4153533A0050415254203A
:104FA0004E4F3A0049535355453A005354415449E2
:104FB0004F4E3A0049443A00202020204944454FB2
:104FC0004E4943532020202020414E444F4E205430
:084FD00045524D494E414C00D1
:084FD8002A0EF66E000EF76EC2
:104FE000000EF86E04010900F550CD6F0900F55070
:104FF000CE6F03E1CD6701D03DD00900F550C86FF9
:105000000900F550C96F0900F550CA6F0900090081
:10501000F550E96E0900F550EA6E09000900090033
:10502000F550CB6F0900F550CC6F09000900F6CFA1
:10503000CFF4F7CFD0F4F8CFD1F4C8C4F6FFC9C489
:10504000F7FFCAC4F8FF0401CB5302E1CC5307E0D9
:105050000900F550EE6ECB07F8E2CC07F9D7CFC4C4
:10506000F6FFD0C4F7FFD1C4F8FF0401CD07000E4E
:06507000CE5BBFD7120069
:0A507600D9CFE6FFDACFE6FFE1CF65
:10508000D9FFE2CFDAFFAC6AAB6AFD0EDBB0AC88C9
:10509000DBA202D0AC8CAB8CDBB4AC8EDBA602D036
:1050A000AB8801D0AB8ADBB8AC849E98DBBAAB8608
:1050B000DBAC02D09D8A01D09D9A9E9ADBAE02D0D5
:1050C0009D8801D09D98FB0EDB50AF6EFB0EFC0E51
:1050D000DBCF15F015C014F0156A1450B06EAC8A11
:1050E000AB8E949C948EAC50100B04E0AC50800BB3
:1050F00001E1948CE552E5CFDAFFE7CFD9FF12004A
:10510000D9CFE6FFDACFE6FFE1CFD9FFE2CFDAFF72
:10511000E652DF6AFF0EE76EFC0EDBCF14F0E750BD
:1051200014161450A96EFB0EDB50A86EA69EA69C0A
:10513000A684F250800B01E0010EDF6EF29E550E48
:10514000A76EAA0EA76EA682A6B2FED7DF50E8B061
:10515000F28EE8A0F29EA694E552E552E5CFDAFF82
:06516000E7CFD9FF1200A9
:0A516600056A046A036A026A200E5B
:10517000E76ED8900636073608360936023603360B
:10518000043605360B50025C0C5003580D50045881
:105190000E50055809E30B50025E0C50035A0D5097
:0E51A000045A0E50055A062AE72EE4D71200D4
:0251AE00C26AD3
:1051B0000F0EC16E700ED3129B8C938492829284D8
:1051C0009286948296829298929A969094949490D1
:1051D000829095908C90939A8A9A93968A969398B7
:1051E0008A9896948D84959E959C959A959895927B
:0651F00095949596120053
:0A51F600D9CFE6FFDACFE6FFE1CFE4
:10520000D9FFE2CFDAFFFF0EE76EFC0EDBCF14F022
:10521000FD0EDBCF15F0E7501416156A1450A96E79
:10522000A69CA69EA68000000000A85000D0E552D3
:0A523000E5CFDAFFE7CFD9FF120047
:06523A00D9CFE6FFE1CF31
:10524000D9FFE652D7EC28F0D9EC26F04BEC25F04C
:1052500015EC21F052EC00F049EC14F0F28EF28CD7
:10526000D5EC14F00400B5EC21F00400E1EC02F000
:0E5270000400F6D7E552E552E7CFD9FF120051
:02527E00D9CF86
:10528000E6FFDACFE6FFE1CFD9FFE2CFDAFFE65261
:10529000F20E0401D517ABAC03D0D591ABB0D581DC
:1052A000ABB4D585ABB2D587AE50DF6EDF50E552DB
:0C52B000E552E5CFDAFFE7CFD9FF12008E
:0452BC0008C012F024
:1052C00008500D02F4CF07F0F3CF06F009500E029C
:1052D000F4CF09F0F3CF08F00D02F3500726F45095
:1052E0000822E86A092212500E02F3500726F450F1
:0852F0000822E86A0922000C03
:0852F800D9CFE6FFDACFE6FF93
:10530000E1CFD9FFE2CFDAFFE652E652FC0EDBCF67
:10531000DEFFDBCFDDFF010EDB50D76EDF50D66E38
:10532000E552E552E552E5CFDAFFE7CFD9FF1200AB
:10533000D9CFE6FFDACFE6FFE1CFD9FFE2CFDAFF40
:10534000FD0EDB507F0BD56ED76AD66AF294FD0E48
:10535000DBAE02D0F28A01D0F29AD58EE552E5CFCB
:08536000DAFFE7CFD9FF1200CC
:08536800FFFFFFFF313131317D
:10537000324142433344454634474849354A4B4C11
:10538000364D4E4F37505253385455563957585959
:0C5390000808080830515A2D0A0A0A0AC1
:04539C00FF0EE350CD
:1053A000206E480E01D04C0EE76EE72EFED7E76A5E
:0C53B000E72EFED7202EF7D700001200D9
:0453BC00000EF36E7E
:1053C00000EE00F0060E01D81200EA6002D0EE6A8C
:0C53D000FCD7F350E9601200EE6AFCD735
:0453DC0010EE80F05F
:1053E00020EE80F0F86A019CECEC27F025EC2AF026
:0853F0001DEC29F0FBD71200AF
:0853F800056A080EE76ED8906B
:10540000093605360E50055C02E3056E092AE72EC3
:04541000F7D71200B8
:0C541400FF0EE350E84E1200000000D034
:0A54200000D000D0E82EFAD71200E9
:06542A00202020202020BC
:0B543000202020202020202020200031
:04543C00A6B2FED73F
:02544000120058
:05544200434F4D0A007C
:02544700C201A0
:02544A0012004E
:04544C00000000005C
:10545000000000000000000000000000000000004C
:10546000000000000000000000000000000000FF3D
:10547000000000000000000000000000000000002C
:10548000000000000000000000000000000000001C
:10549000000000000000000000000000000000000C
:1054A00000000000000000000000000000000000FC
:1054B000000000FF000000000000000000000000ED
:1054C00000000000000000000000000000000000DC
:0554D00000000000FFD8
:0B54D5000000000000000000000000CC
:0F54E000000000000000000000000000000000BD
:0154EF0000BC
:1054F00000000000000000000000000000000000AC
:10550000000000000000000000000000000000009B
:10551000000000000000000000000000000000008B
:10552000000000000000000000000000000000007B
:10553000000000000000000000000000000000006B
:10554000000000000000000000000000000000005B
:10555000000000000000000000000000000000004B
:10556000000000000000000000000000000000003B
:10557000000000000000000000000000000000002B
:10558000000000000000000000000000000000001B
:10559000000000000000000000000000000000000B
:1055A00000000000000000000000000000000000FB
:1055B00000000000000000000000000000000000EB
:1055C00000000000000000000000000000000000DB
:1055D00000000000000000000000000000000000CB
:0E55E0000000000000000000000000000000BD
:0255EE000000BB
:1055F00000000000000000000000000000000000AB
:10560000000000000000000000000000000000009A
:10561000000000000000000000000000000000008A
:10562000000000000000000000000000000000007A
:10563000000000000000000000000000000000006A
:10564000000000000000000000000000000000005A
:10565000000000000000000000000000000000004A
:10566000000000000000000000000000000000003A
:10567000000000000000000000000000000000002A
:10568000000000000000000000000000000000001A
:10569000000000000000000000000000000000000A
:1056A00000000000000000000000000000000000FA
:1056B00000000000000000000000000000000000EA
:1056C00000000000000000000000000000000000DA
:1056D00000000000000000000000000000000000CA
:1056E00000000000000000000000000000000000BA
:1056F00000000000000000000000000000000000AA
:105700000000000000000000000000000000000099
:105710000000000000000000000000000000000089
:105720000000000000000000000000000000000079
:105730000000000000000000000000000000000069
:105740000000000000000000000000000000000059
:105750000000000000000000000000000000000049
:105760000000000000000000000000000000000039
:105770000000000000000000000000000000000029
:105780000000000000000000000000000000000019
:105790000000000000000000000000000000000009
:1057A00000000000000000000000000000000000F9
:1057B00000000000000000000000000000000000E9
:1057C00000000000000000000000000000000000D9
:0F57D000000000000000000000000000000000CA
:0157DF0000C9
:1057E00000000000000000000000000000000000B9
:1057F00000000000000000000000000000000000A9
:0758000000000000000000A1
:0958070000000000000000000098
:02581000000096
:0E581200000000000000000000000000000088
:105820000000000000000000000000000000000078
:045830000000000074
:03583400FF000072
:02583700FFFF71
:07583900B84FB44FAB4FA4C0
:105840004F9B4F944F8A4F7A4F6D4F6C4F5F4F5223
:105850004F424F384F0000000000000000000000E1
:105860000000000000000000000000000000000038
:105870000000000000000000000000000000000028
:105880000000000000000000000000000000000018
:105890000000000000000000000000000000000008
:1058A00000000000000000000000000000000000F8
:1058B00000000000000000000000000000000000E8
:1058C00000000000000000000000000000000000D8
:1058D00000000000000000000000000000000000C8
:1058E00000000000000000000000000000000000B8
:0558F0000000000000B3
:020000040030CA
:0100010008F6
:010002001BE2
:0100030012EA
:010005008179
:010006008178
:010008000FE8
:01000900C036
:01000A000FE6
:01000B00E014
:01000C000FE4
:01000D0040B2
:00000001FF
