:020000040000FA
:06000000DDEF2CF0120000
:020006002C01CB
:080008009EAA02D096EF28F039
:020010001200DC
:06001200A6B2FED71200A9
:08001800F2A402D00FEF28F062
:0C0020001200D08E9F8AF28EF28C12002B
:04002C000C0027633A
:100030000000000F00001800000025630000F60D0E
:10004000000002000000FD590000FB0D000001004F
:1000500000000C630000D30D000019000000F25EE8
:100060000000000100001A040000DE5D000000092D
:10007000000014010000955D00008A0D0000490099
:100080000000735D00001E0E000022000000AE5B49
:10009000000000060000C5010000905B0000000E9B
:1000A00000001E0000008A5A0000000B000006013C
:0E00B0000000005A0000000D00008A00000051
:0200BE00D9CF98
:1000C000E6FFE1CFD9FF0A0EE126050EDB6A060E38
:1000D000DB6A070EDB6A080EDB6A090EDB6A0101C8
:1000E000036B046B056B066B0101076B086B096BF7
:1000F0000A6B0601046BDE6ADD6ADECF14F0DDCF29
:1001000015F0200E145C000E155801E39ED0DECFD2
:1001100014F0DDCF15F0050ED89014361536E8062C
:10012000FBE1170E1426010E1522030E14C0DBFF8F
:10013000040E15C0DBFF020EDB6A200EF36E020E0A
:10014000DBCFF4FFF350F45C35E209EC00F004007F
:10015000020EDB50166E176A200E086E096ADECF9B
:100160000DF0DDCF0EF058EC2CF006501624146E76
:1001700007501720156E14C0E6FF15C0E6FFA2EC6D
:100180002BF0E552E552E66E020EDB50E76E030EF1
:10019000DBCFE9FF040EDBCFEAFFE750E926000ED4
:1001A000EA22E552E750EF6E09EC00F00400020E7F
:1001B000DB2AC3D7DECFE9FFDDCFEAFF050ED890FB
:1001C000E936EA36E806FBE1170EE926010EEA22D7
:1001D0001E0EE926000EEA22EF0402E10101012BC6
:1001E000DECFE9FFDDCFEAFF050ED890E936EA362B
:1001F000E806FBE1170EE926010EEA221E0EE926AB
:10020000000EEA22EF50030802E10101022BDECFCB
:10021000E9FFDDCFEAFF050ED890E936EA36E806B9
:10022000FBE1170EE926010EEA221F0EE926000E59
:10023000EA22EF0405E1010EF36E050EF3CFDBFFBA
:10024000DF2A010E01E3DB2A58D701010251000821
:1002500006E2010EF36E070EF3CFDBFF0FD00101B4
:100260000151000806E2010EF36E070EF3CFDBFF2B
:1002700005D0010EF36E060EF3CFDBFF050EDB0497
:1002800005E1010EF36E090EF3CFDBFF0101310E24
:100290000D6F0101300E0E6F0101300E0F6F010165
:1002A000330E106F0101116B0501060E196F09EC79
:1002B00000F00400E66AE66AE66AE66A12EC16F006
:1002C000E552E552E552E55231D80501010E176FAE
:1002D000090EDBCFE6FF080EDBCFE6FF070EDBCF14
:1002E000E6FF060EDBCFE6FF12EC16F0E552E55214
:1002F000E552E552180EE66E310EE66EDD0EE66E44
:10030000CC0EE66EBB0EE66EAA0EE66E37EC22F061
:10031000146E060EE15E14500A0EE15C02E2E16A20
:10032000E552E16EE552E7CFD9FF1200D9CFE6FFE3
:10033000E1CFD9FF050EE126DF6A010EDB6A020E6E
:10034000DB6A030EDB6A01010251000809E20101C8
:10035000030E006F010EF36E020EF3CFDBFF11D020
:1003600001010151000807E20101010E006FDE5298
:10037000010EDD6E06D00101006B010EDF6E030E73
:10038000DB6A040EDB6A200EF36E040EDBCFF4FF93
:10039000F350F45C1AE2040EDB50200DF3CFE9FFBA
:1003A000F4CFEAFF170EE926010EEA221F0EE92616
:1003B000000EEA22EF0406E1010EF36E030EF3CF06
:1003C000DBFF03D0040EDB2ADED7030EDBCFE6FF14
:1003D000020EDBCFE6FF010EDBCFE6FFDFCFE6FF4D
:1003E00012EC16F0E552E552E552E552050EE15CDD
:1003F00002E2E16AE552E16EE552E7CFD9FF120071
:10040000D9CFE6FFE1CFD9FF050EE126DF6A010E65
:10041000DB6A020EDB6A030EDB6A0101025100088F
:1004200009E20101030E006F010EF36E020EF3CF1D
:10043000DBFF11D001010151000807E20101010EAB
:10044000006FDE52010EDD6E06D00101006B010E61
:10045000DF6E030EDB6A030EDBCFE6FF020EDBCF9F
:10046000E6FF010EDBCFE6FFDFCFE6FF12EC16F072
:10047000E552E552E552E5520501010E176F010EF6
:1004800000D0146E050EE15C02E2E16AE552E16E15
:100490001450E552E7CFD9FF1200D9CFE6FFE1CFE4
:1004A000D9FF050EE126DF6A010EDB6A020EDB6A68
:1004B000030EDB6AFD0EDBCFE6FFFE0EDBCFE6FFB1
:1004C000120EE66E010EE66EBFEC29F0E552E55223
:1004D000E552E552000902E0000E1FD0030EDBCF0B
:1004E000E6FF020EDBCFE6FF010EDBCFE6FFDFCF3C
:1004F000E6FF12EC16F0E552E552E552E552FB0E2E
:10050000DBCFE6FFFC0EDBCFE6FFC0EC15F0E552DB
:10051000E5520501176B010E00D0146E050EE15C6B
:1005200002E2E16AE552E16E1450E552E7CFD9FFED
:100530001200D9CFE6FFE1CFD9FF090EE126010E67
:10054000F36E080EF3CFDBFF32EC2AF006C007F1A2
:1005500007C008F108C009F109C00AF1030EE96EED
:10056000010EEA6EEE50010107190CE1EE50010197
:10057000081908E1EE500101091904E1EE500101EA
:100580000A1900E101E1BBD007C103F108C104F180
:1005900009C105F10AC106F1DF6A200EDF5C01E343
:1005A000A4D0DF50200DF3CFE9FFF4CFEAFF170E00
:1005B000E926010EEA221E0EE926000EEA22EF04C9
:1005C00001E091D0DF50200DF3CFE9FFF4CFEAFF37
:1005D000170EE926010EEA221C0EE926000EEA2279
:1005E000EE06000EED5ADF50200DF3CFE9FFF4CFF9
:1005F000EAFF170EE926010EEA221C0EE926000E7C
:10060000EA22E9CF14F0EACF15F0010E14C0DBFFA7
:10061000020E15C0DBFF010EDBCFE9FF020EDBCFC0
:10062000EAFF030EEFCFDBFF200EDF02F3501C0FBB
:10063000146E040E14C0DBFF050EDB6A060EDB6AC7
:10064000070EDB6A010EDBCFE9FF020EDBCFEAFF0C
:10065000EF50E66E200EDF02F3501C0FE66EE66AE6
:10066000F1EC2AF0E552E552E55209EC00F0040005
:10067000010EE76E010EDBCFE9FF020EDBCFEAFFD2
:10068000E750E926000EEA22030EEFCFDBFF200E33
:10069000DF02F3501C0F010F146E040E14C0DBFFB9
:1006A000050EDB6A060EDB6A070EDB6A010EE76EDB
:1006B000010EDBCFE9FF020EDBCFEAFFE750E926B0
:1006C000000EEA22EF50E66E200EDF02F3501C0F00
:1006D000010FE66EE66AF1EC2AF0E552E552E552CA
:1006E00009EC00F00400DF2A58D7E4EC16F001080A
:1006F00006E1808480820101015101E18090090EB0
:10070000E15C02E2E16AE552E16EE552E7CFD9FF32
:100710001200D9CFE6FFE1CFD9FF040EE126FD0E8E
:10072000DBCFE9FFFE0EDBCFEAFF200EE926000E4D
:10073000EA22EF28DF6E010EDB6A020EDB6A200E72
:10074000DF5C01E3DF6AFD0EDBCFE9FFFE0EDBCFEE
:10075000EAFF200EE926000EEA22EF68030EDB6AAC
:10076000200EF36E030EDBCFF4FFF350F45C02E3D4
:10077000D9EF09F0DF501F0BDF6EDF50200DF3CFF4
:10078000E9FFF4CFEAFF170EE926010EEA221E0E5A
:10079000E926000EEA22EF5010E0DF50200DF3CFE3
:1007A000E9FFF4CFEAFF170EE926010EEA221F0E39
:1007B000E926000EEA22EF5002E1D4EF09F0FD0E27
:1007C000DBCFE9FFFE0EDBCFEAFFE9CF14F0EACF83
:1007D00015F0010EDBCFF3FFDB2AF3500F011424D9
:1007E000E96E000E1520EA6E530EEF6EFD0EDBCFA4
:1007F000E9FFFE0EDBCFEAFFE9CF14F0EACF15F0F8
:10080000010EDBCFF3FFDB2AF3500F011424E96E56
:10081000000E1520EA6E540EEF6EFD0EDBCFE9FFE1
:10082000FE0EDBCFEAFFE9CF14F0EACF15F0010EA0
:10083000DBCFF3FFDB2AF3500F011424E96E000E27
:100840001520EA6E4E0EEF6EFD0EDBCFE9FFFE0EB9
:10085000DBCFEAFFE9CF14F0EACF15F0010EDBCFD2
:10086000F3FFDB2AF3500F011424E96E000E15206C
:10087000EA6E3A0EEF6EDF50200DF3CFE9FFF4CFB2
:10088000EAFF170EE926010EEA22E9CF16F0EACFB9
:1008900017F0020EDBCFF3FFDB2AF3500F01162413
:1008A000E96E000E1720EA6EEF50E66EFD0EDBCF0C
:1008B000E9FFFE0EDBCFEAFFE9CF14F0EACF15F037
:1008C000010EDBCFF3FFDB2AF3500F011424E96E96
:1008D000000E1520EA6EE552E750EF6EDF50200D56
:1008E000F3CFE9FFF4CFEAFF170EE926010EEA2263
:1008F000E9CF16F0EACF17F0020EDBCFF3FFDB2AC9
:10090000F3500F011624E96E000E1720EA6EEF5027
:10091000E66EFD0EDBCFE9FFFE0EDBCFEAFFE9CF8F
:1009200014F0EACF15F0010EDBCFF3FFDB2AF35012
:100930000F011424E96E000E1520EA6EE552E7500F
:10094000EF6EFD0EDBCFE9FFFE0EDBCFEAFFE9CF56
:1009500014F0EACF15F0010EDBCFF3FFDB2AF350E2
:100960000F011424E96E000E1520EA6E3B0EEF6EA7
:10097000DF50200DF3CFE9FFF4CFEAFF170EE92691
:10098000010EEA22E9CF14F0EACF15F0020EDB5097
:100990000F011424E96E000E1520EA6EEF50360A9E
:1009A00001E1F2D3030A01E1F1D2010A01E135D2FA
:1009B000070A01E11AD2010A01E119D1030A02E092
:1009C00066EF09F0FD0EDBCFE9FFFE0EDBCFEAFF9D
:1009D000E9CF14F0EACF15F0010EDBCFF3FFDB2AED
:1009E000F3500F011424E96E000E1520EA6E4D0E2F
:1009F000EF6EFD0EDBCFE9FFFE0EDBCFEAFFE9CFA6
:100A000014F0EACF15F0010EDBCFF3FFDB2AF35031
:100A10000F011424E96E000E1520EA6E410EEF6EF0
:100A2000FD0EDBCFE9FFFE0EDBCFEAFFE9CF14F0CE
:100A3000EACF15F0010EDBCFF3FFDB2AF3500F01F5
:100A40001424E96E000E1520EA6E490EEF6EFD0EBD
:100A5000DBCFE9FFFE0EDBCFEAFFE9CF14F0EACFF0
:100A600015F0010EDBCFF3FFDB2AF3500F01142446
:100A7000E96E000E1520EA6E4E0EEF6EFD0EDBCF16
:100A8000E9FFFE0EDBCFEAFFE9CF14F0EACF15F065
:100A9000010EDBCFF3FFDB2AF3500F011424E96EC4
:100AA000000E1520EA6E540EEF6EFD0EDBCFE9FF4F
:100AB000FE0EDBCFEAFFE9CF14F0EACF15F0010E0E
:100AC000DBCFF3FFDB2AF3500F011424E96E000E95
:100AD0001520EA6E450EEF6EFD0EDBCFE9FFFE0E30
:100AE000DBCFEAFFE9CF14F0EACF15F0010EDBCF40
:100AF000F3FFDB2AF3500F011424E96E000E1520DA
:100B0000EA6E4E0EEF6EFD0EDBCFE9FFFE0EDBCF81
:100B1000EAFFE9CF14F0EACF15F0010EDBCFF3FFC7
:100B2000DB2AF3500F011424E96E000E1520EA6E43
:100B3000410EEF6EFD0EDBCFE9FFFE0EDBCFEAFFCD
:100B4000E9CF14F0EACF15F0010EDBCFF3FFDB2A7B
:100B5000F3500F011424E96E000E1520EA6E4E0EBC
:100B6000EF6EFD0EDBCFE9FFFE0EDBCFEAFFE9CF34
:100B700014F0EACF15F0010EDBCFF3FFDB2AF350C0
:100B80000F011424E96E000E1520EA6E430EEF6E7D
:100B9000FD0EDBCFE9FFFE0EDBCFEAFFE9CF14F05D
:100BA000EACF15F0010EDBCFF3FFDB2AF3500F0184
:100BB0001424E96E000E1520EA6E450EEF6EFD0E50
:100BC000DBCFE9FFFE0EDBCFEAFFE9CF14F0EACF7F
:100BD00015F0010EDBCFF3FFDB2AF3500F011424D5
:100BE000E96E000E1520EA6E3B0EEF6E6FD3FD0E20
:100BF000DBCFE9FFFE0EDBCFEAFFE9CF14F0EACF4F
:100C000015F0010EDBCFF3FFDB2AF3500F011424A4
:100C1000E96E000E1520EA6E490EEF6EFD0EDBCF79
:100C2000E9FFFE0EDBCFEAFFE9CF14F0EACF15F0C3
:100C3000010EDBCFF3FFDB2AF3500F011424E96E22
:100C4000000E1520EA6E4E0EEF6EFD0EDBCFE9FFB3
:100C5000FE0EDBCFEAFFE9CF14F0EACF15F0010E6C
:100C6000DBCFF3FFDB2AF3500F011424E96E000EF3
:100C70001520EA6E440EEF6EFD0EDBCFE9FFFE0E8F
:100C8000DBCFEAFFE9CF14F0EACF15F0010EDBCF9E
:100C9000F3FFDB2AF3500F011424E96E000E152038
:100CA000EA6E550EEF6EFD0EDBCFE9FFFE0EDBCFD9
:100CB000EAFFE9CF14F0EACF15F0010EDBCFF3FF26
:100CC000DB2AF3500F011424E96E000E1520EA6EA2
:100CD000530EEF6EFD0EDBCFE9FFFE0EDBCFEAFF1A
:100CE000E9CF14F0EACF15F0010EDBCFF3FFDB2ADA
:100CF000F3500F011424E96E000E1520EA6E540E15
:100D0000EF6EFD0EDBCFE9FFFE0EDBCFEAFFE9CF92
:100D100014F0EACF15F0010EDBCFF3FFDB2AF3501E
:100D20000F011424E96E000E1520EA6E520EEF6ECC
:100D3000FD0EDBCFE9FFFE0EDBCFEAFFE9CF14F0BB
:100D4000EACF15F0010EDBCFF3FFDB2AF3500F01E2
:100D50001424E96E000E1520EA6E490EEF6EFD0EAA
:100D6000DBCFE9FFFE0EDBCFEAFFE9CF14F0EACFDD
:100D700015F0010EDBCFF3FFDB2AF3500F01142433
:100D8000E96E000E1520EA6E410EEF6EFD0EDBCF10
:100D9000E9FFFE0EDBCFEAFFE9CF14F0EACF15F052
:100DA000010EDBCFF3FFDB2AF3500F011424E96EB1
:100DB000000E1520EA6E4C0EEF6EFD0EDBCFE9FF44
:100DC000FE0EDBCFEAFFE9CF14F0EACF15F0010EFB
:100DD000DBCFF3FFDB2AF3500F011424E96E000E82
:100DE0001520EA6E3B0EEF6E71D2FD0EDBCFE9FFF0
:100DF000FE0EDBCFEAFFE9CF14F0EACF15F0010ECB
:100E0000DBCFF3FFDB2AF3500F011424E96E000E51
:100E10001520EA6E230EEF6E59D2FD0EDBCFE9FFEF
:100E2000FE0EDBCFEAFFE9CF14F0EACF15F0010E9A
:100E3000DBCFF3FFDB2AF3500F011424E96E000E21
:100E40001520EA6E510EEF6EFD0EDBCFE9FFFE0EB0
:100E5000DBCFEAFFE9CF14F0EACF15F0010EDBCFCC
:100E6000F3FFDB2AF3500F011424E96E000E152066
:100E7000EA6E550EEF6EFD0EDBCFE9FFFE0EDBCF07
:100E8000EAFFE9CF14F0EACF15F0010EDBCFF3FF54
:100E9000DB2AF3500F011424E96E000E1520EA6ED0
:100EA000410EEF6EFD0EDBCFE9FFFE0EDBCFEAFF5A
:100EB000E9CF14F0EACF15F0010EDBCFF3FFDB2A08
:100EC000F3500F011424E96E000E1520EA6E4C0E4B
:100ED000EF6EFD0EDBCFE9FFFE0EDBCFEAFFE9CFC1
:100EE00014F0EACF15F0010EDBCFF3FFDB2AF3504D
:100EF0000F011424E96E000E1520EA6E490EEF6E04
:100F0000FD0EDBCFE9FFFE0EDBCFEAFFE9CF14F0E9
:100F1000EACF15F0010EDBCFF3FFDB2AF3500F0110
:100F20001424E96E000E1520EA6E540EEF6EFD0ECD
:100F3000DBCFE9FFFE0EDBCFEAFFE9CF14F0EACF0B
:100F400015F0010EDBCFF3FFDB2AF3500F01142461
:100F5000E96E000E1520EA6E590EEF6EFD0EDBCF26
:100F6000E9FFFE0EDBCFEAFFE9CF14F0EACF15F080
:100F7000010EDBCFF3FFDB2AF3500F011424E96EDF
:100F8000000E1520EA6E3B0EEF6EA0D1FD0EDBCFFA
:100F9000E9FFFE0EDBCFEAFFE9CF14F0EACF15F050
:100FA000010EDBCFF3FFDB2AF3500F011424E96EAF
:100FB000000E1520EA6E530EEF6EFD0EDBCFE9FF3B
:100FC000FE0EDBCFEAFFE9CF14F0EACF15F0010EF9
:100FD000DBCFF3FFDB2AF3500F011424E96E000E80
:100FE0001520EA6E550EEF6EFD0EDBCFE9FFFE0E0B
:100FF000DBCFEAFFE9CF14F0EACF15F0010EDBCF2B
:10100000F3FFDB2AF3500F011424E96E000E1520C4
:10101000EA6E500EEF6EFD0EDBCFE9FFFE0EDBCF6A
:10102000EAFFE9CF14F0EACF15F0010EDBCFF3FFB2
:10103000DB2AF3500F011424E96E000E1520EA6E2E
:10104000450EEF6EFD0EDBCFE9FFFE0EDBCFEAFFB4
:10105000E9CF14F0EACF15F0010EDBCFF3FFDB2A66
:10106000F3500F011424E96E000E1520EA6E520EA3
:10107000EF6EFD0EDBCFE9FFFE0EDBCFEAFFE9CF1F
:1010800014F0EACF15F0010EDBCFF3FFDB2AF350AB
:101090000F011424E96E000E1520EA6E560EEF6E55
:1010A000FD0EDBCFE9FFFE0EDBCFEAFFE9CF14F048
:1010B000EACF15F0010EDBCFF3FFDB2AF3500F016F
:1010C0001424E96E000E1520EA6E490EEF6EFD0E37
:1010D000DBCFE9FFFE0EDBCFEAFFE9CF14F0EACF6A
:1010E00015F0010EDBCFF3FFDB2AF3500F011424C0
:1010F000E96E000E1520EA6E530EEF6EFD0EDBCF8B
:10110000E9FFFE0EDBCFEAFFE9CF14F0EACF15F0DE
:10111000010EDBCFF3FFDB2AF3500F011424E96E3D
:10112000000E1520EA6E4F0EEF6EFD0EDBCFE9FFCD
:10113000FE0EDBCFEAFFE9CF14F0EACF15F0010E87
:10114000DBCFF3FFDB2AF3500F011424E96E000E0E
:101150001520EA6E520EEF6EFD0EDBCFE9FFFE0E9C
:10116000DBCFEAFFE9CF14F0EACF15F0010EDBCFB9
:10117000F3FFDB2AF3500F011424E96E000E152053
:10118000EA6E3B0EEF6EA2D0FD0EDBCFE9FFFE0E46
:10119000DBCFEAFFE9CF14F0EACF15F0010EDBCF89
:1011A000F3FFDB2AF3500F011424E96E000E152023
:1011B000EA6E530EEF6EFD0EDBCFE9FFFE0EDBCFC6
:1011C000EAFFE9CF14F0EACF15F0010EDBCFF3FF11
:1011D000DB2AF3500F011424E96E000E1520EA6E8D
:1011E000410EEF6EFD0EDBCFE9FFFE0EDBCFEAFF17
:1011F000E9CF14F0EACF15F0010EDBCFF3FFDB2AC5
:10120000F3500F011424E96E000E1520EA6E460E0D
:10121000EF6EFD0EDBCFE9FFFE0EDBCFEAFFE9CF7D
:1012200014F0EACF15F0010EDBCFF3FFDB2AF35009
:101230000F011424E96E000E1520EA6E450EEF6EC4
:10124000FD0EDBCFE9FFFE0EDBCFEAFFE9CF14F0A6
:10125000EACF15F0010EDBCFF3FFDB2AF3500F01CD
:101260001424E96E000E1520EA6E540EEF6EFD0E8A
:10127000DBCFE9FFFE0EDBCFEAFFE9CF14F0EACFC8
:1012800015F0010EDBCFF3FFDB2AF3500F0114241E
:10129000E96E000E1520EA6E590EEF6EFD0EDBCFE3
:1012A000E9FFFE0EDBCFEAFFE9CF14F0EACF15F03D
:1012B000010EDBCFF3FFDB2AF3500F011424E96E9C
:1012C000000E1520EA6E3B0EEF6E00D0020EDB2AF8
:1012D000DF50200DF3CFE9FFF4CFEAFF170EE92628
:1012E000010EEA22E9CF14F0EACF15F0020EDB502E
:1012F0000F011424E96E000E1520EA6EEF5032E063
:10130000DF50200DF3CFE9FFF4CFEAFF170EE926F7
:10131000010EEA22E9CF16F0EACF17F0020EDB50F9
:101320000F011624E96E000E1720EA6EEF50E66EEC
:10133000FD0EDBCFE9FFFE0EDBCFEAFFE9CF14F0B5
:10134000EACF15F0010EDB500F011424E96E000EF8
:101350001520EA6EE552E750EF6E010EDB2A020E11
:10136000DB2AB6D7FD0EDBCFE9FFFE0EDBCFEAFFAF
:10137000E9CF14F0EACF15F0010EDB500F01142471
:10138000E96E000E1520EA6EEF6ADFCF18F5FD0E4C
:10139000DBCFE9FFFE0EDBCFEAFF200EE926000ED1
:1013A000EA2218C5EFFF05D0030EDB2ADF2AB0EFD3
:1013B00003F0040EE15C02E2E16AE552E16EE552FF
:1013C000E7CFD9FF1200D9CFE6FFE1CFD9FF040E56
:1013D000E126FD0EDBCFE9FFFE0EDBCFEAFF200E9C
:1013E000E926000EEA22EF28DF6E010EDB6A020E0C
:1013F000DB6A200EDF5C01E3DF6AFD0EDBCFE9FF75
:10140000FE0EDBCFEAFF200EE926000EEA22EF688F
:10141000030EDB6A200EF36E030EDBCFF4FFF350F6
:10142000F45C02E333EF10F0DF501F0BDF6EDF5090
:10143000200DF3CFE9FFF4CFEAFF170EE926010EE6
:10144000EA221E0EE926000EEA22EF5010E0DF50DD
:10145000200DF3CFE9FFF4CFEAFF170EE926010EC6
:10146000EA221F0EE926000EEA22EF0402E12EEF27
:1014700010F0FD0EDBCFE9FFFE0EDBCFEAFFE9CF78
:1014800014F0EACF15F0010EDBCFF3FFDB2AF350A7
:101490000F011424E96E000E1520EA6E530EEF6E54
:1014A000FD0EDBCFE9FFFE0EDBCFEAFFE9CF14F044
:1014B000EACF15F0010EDBCFF3FFDB2AF3500F016B
:1014C0001424E96E000E1520EA6E540EEF6EFD0E28
:1014D000DBCFE9FFFE0EDBCFEAFFE9CF14F0EACF66
:1014E00015F0010EDBCFF3FFDB2AF3500F011424BC
:1014F000E96E000E1520EA6E4E0EEF6EFD0EDBCF8C
:10150000E9FFFE0EDBCFEAFFE9CF14F0EACF15F0DA
:10151000010EDBCFF3FFDB2AF3500F011424E96E39
:10152000000E1520EA6E3A0EEF6EDF50200DF3CF5D
:10153000E9FFF4CFEAFF170EE926010EEA22E9CF10
:1015400016F0EACF17F0020EDBCFF3FFDB2AF350E1
:101550000F011624E96E000E1720EA6EEF50E66EBA
:10156000FD0EDBCFE9FFFE0EDBCFEAFFE9CF14F083
:10157000EACF15F0010EDBCFF3FFDB2AF3500F01AA
:101580001424E96E000E1520EA6EE552E750EF6E66
:10159000DF50200DF3CFE9FFF4CFEAFF170EE92665
:1015A000010EEA22E9CF16F0EACF17F0020EDBCFE8
:1015B000F3FFDB2AF3500F011624E96E000E17200B
:1015C000EA6EEF50E66EFD0EDBCFE9FFFE0EDBCFDD
:1015D000EAFFE9CF14F0EACF15F0010EDBCFF3FFFD
:1015E000DB2AF3500F011424E96E000E1520EA6E79
:1015F000E552E750EF6EFD0EDBCFE9FFFE0EDBCFCD
:10160000EAFFE9CF14F0EACF15F0010EDBCFF3FFCC
:10161000DB2AF3500F011424E96E000E1520EA6E48
:101620003B0EEF6EDF50200DF3CFE9FFF4CFEAFF62
:10163000170EE926010EEA22E9CF14F0EACF15F0E1
:10164000020EDB500F011424E96E000E1520EA6E25
:10165000EF50360A01E1F2D3030A01E1F1D2010AA7
:1016600001E135D2070A01E11AD2010A01E119D1DB
:10167000030A02E0C0EF0FF0FD0EDBCFE9FFFE0E24
:10168000DBCFEAFFE9CF14F0EACF15F0010EDBCF94
:10169000F3FFDB2AF3500F011424E96E000E15202E
:1016A000EA6E4D0EEF6EFD0EDBCFE9FFFE0EDBCFD7
:1016B000EAFFE9CF14F0EACF15F0010EDBCFF3FF1C
:1016C000DB2AF3500F011424E96E000E1520EA6E98
:1016D000410EEF6EFD0EDBCFE9FFFE0EDBCFEAFF22
:1016E000E9CF14F0EACF15F0010EDBCFF3FFDB2AD0
:1016F000F3500F011424E96E000E1520EA6E490E16
:10170000EF6EFD0EDBCFE9FFFE0EDBCFEAFFE9CF88
:1017100014F0EACF15F0010EDBCFF3FFDB2AF35014
:101720000F011424E96E000E1520EA6E4E0EEF6EC6
:10173000FD0EDBCFE9FFFE0EDBCFEAFFE9CF14F0B1
:10174000EACF15F0010EDBCFF3FFDB2AF3500F01D8
:101750001424E96E000E1520EA6E540EEF6EFD0E95
:10176000DBCFE9FFFE0EDBCFEAFFE9CF14F0EACFD3
:1017700015F0010EDBCFF3FFDB2AF3500F01142429
:10178000E96E000E1520EA6E450EEF6EFD0EDBCF02
:10179000E9FFFE0EDBCFEAFFE9CF14F0EACF15F048
:1017A000010EDBCFF3FFDB2AF3500F011424E96EA7
:1017B000000E1520EA6E4E0EEF6EFD0EDBCFE9FF38
:1017C000FE0EDBCFEAFFE9CF14F0EACF15F0010EF1
:1017D000DBCFF3FFDB2AF3500F011424E96E000E78
:1017E0001520EA6E410EEF6EFD0EDBCFE9FFFE0E17
:1017F000DBCFEAFFE9CF14F0EACF15F0010EDBCF23
:10180000F3FFDB2AF3500F011424E96E000E1520BC
:10181000EA6E4E0EEF6EFD0EDBCFE9FFFE0EDBCF64
:10182000EAFFE9CF14F0EACF15F0010EDBCFF3FFAA
:10183000DB2AF3500F011424E96E000E1520EA6E26
:10184000430EEF6EFD0EDBCFE9FFFE0EDBCFEAFFAE
:10185000E9CF14F0EACF15F0010EDBCFF3FFDB2A5E
:10186000F3500F011424E96E000E1520EA6E450EA8
:10187000EF6EFD0EDBCFE9FFFE0EDBCFEAFFE9CF17
:1018800014F0EACF15F0010EDBCFF3FFDB2AF350A3
:101890000F011424E96E000E1520EA6E3B0EEF6E68
:1018A0006FD3FD0EDBCFE9FFFE0EDBCFEAFFE9CF02
:1018B00014F0EACF15F0010EDBCFF3FFDB2AF35073
:1018C0000F011424E96E000E1520EA6E490EEF6E2A
:1018D000FD0EDBCFE9FFFE0EDBCFEAFFE9CF14F010
:1018E000EACF15F0010EDBCFF3FFDB2AF3500F0137
:1018F0001424E96E000E1520EA6E4E0EEF6EFD0EFA
:10190000DBCFE9FFFE0EDBCFEAFFE9CF14F0EACF31
:1019100015F0010EDBCFF3FFDB2AF3500F01142487
:10192000E96E000E1520EA6E440EEF6EFD0EDBCF61
:10193000E9FFFE0EDBCFEAFFE9CF14F0EACF15F0A6
:10194000010EDBCFF3FFDB2AF3500F011424E96E05
:10195000000E1520EA6E550EEF6EFD0EDBCFE9FF8F
:10196000FE0EDBCFEAFFE9CF14F0EACF15F0010E4F
:10197000DBCFF3FFDB2AF3500F011424E96E000ED6
:101980001520EA6E530EEF6EFD0EDBCFE9FFFE0E63
:10199000DBCFEAFFE9CF14F0EACF15F0010EDBCF81
:1019A000F3FFDB2AF3500F011424E96E000E15201B
:1019B000EA6E540EEF6EFD0EDBCFE9FFFE0EDBCFBD
:1019C000EAFFE9CF14F0EACF15F0010EDBCFF3FF09
:1019D000DB2AF3500F011424E96E000E1520EA6E85
:1019E000520EEF6EFD0EDBCFE9FFFE0EDBCFEAFFFE
:1019F000E9CF14F0EACF15F0010EDBCFF3FFDB2ABD
:101A0000F3500F011424E96E000E1520EA6E490E02
:101A1000EF6EFD0EDBCFE9FFFE0EDBCFEAFFE9CF75
:101A200014F0EACF15F0010EDBCFF3FFDB2AF35001
:101A30000F011424E96E000E1520EA6E410EEF6EC0
:101A4000FD0EDBCFE9FFFE0EDBCFEAFFE9CF14F09E
:101A5000EACF15F0010EDBCFF3FFDB2AF3500F01C5
:101A60001424E96E000E1520EA6E4C0EEF6EFD0E8A
:101A7000DBCFE9FFFE0EDBCFEAFFE9CF14F0EACFC0
:101A800015F0010EDBCFF3FFDB2AF3500F01142416
:101A9000E96E000E1520EA6E3B0EEF6E71D2FD0E60
:101AA000DBCFE9FFFE0EDBCFEAFFE9CF14F0EACF90
:101AB00015F0010EDBCFF3FFDB2AF3500F011424E6
:101AC000E96E000E1520EA6E230EEF6E59D2FD0E60
:101AD000DBCFE9FFFE0EDBCFEAFFE9CF14F0EACF60
:101AE00015F0010EDBCFF3FFDB2AF3500F011424B6
:101AF000E96E000E1520EA6E510EEF6EFD0EDBCF83
:101B0000E9FFFE0EDBCFEAFFE9CF14F0EACF15F0D4
:101B1000010EDBCFF3FFDB2AF3500F011424E96E33
:101B2000000E1520EA6E550EEF6EFD0EDBCFE9FFBD
:101B3000FE0EDBCFEAFFE9CF14F0EACF15F0010E7D
:101B4000DBCFF3FFDB2AF3500F011424E96E000E04
:101B50001520EA6E410EEF6EFD0EDBCFE9FFFE0EA3
:101B6000DBCFEAFFE9CF14F0EACF15F0010EDBCFAF
:101B7000F3FFDB2AF3500F011424E96E000E152049
:101B8000EA6E4C0EEF6EFD0EDBCFE9FFFE0EDBCFF3
:101B9000EAFFE9CF14F0EACF15F0010EDBCFF3FF37
:101BA000DB2AF3500F011424E96E000E1520EA6EB3
:101BB000490EEF6EFD0EDBCFE9FFFE0EDBCFEAFF35
:101BC000E9CF14F0EACF15F0010EDBCFF3FFDB2AEB
:101BD000F3500F011424E96E000E1520EA6E540E26
:101BE000EF6EFD0EDBCFE9FFFE0EDBCFEAFFE9CFA4
:101BF00014F0EACF15F0010EDBCFF3FFDB2AF35030
:101C00000F011424E96E000E1520EA6E590EEF6ED6
:101C1000FD0EDBCFE9FFFE0EDBCFEAFFE9CF14F0CC
:101C2000EACF15F0010EDBCFF3FFDB2AF3500F01F3
:101C30001424E96E000E1520EA6E3B0EEF6EA0D163
:101C4000FD0EDBCFE9FFFE0EDBCFEAFFE9CF14F09C
:101C5000EACF15F0010EDBCFF3FFDB2AF3500F01C3
:101C60001424E96E000E1520EA6E530EEF6EFD0E81
:101C7000DBCFE9FFFE0EDBCFEAFFE9CF14F0EACFBE
:101C800015F0010EDBCFF3FFDB2AF3500F01142414
:101C9000E96E000E1520EA6E550EEF6EFD0EDBCFDD
:101CA000E9FFFE0EDBCFEAFFE9CF14F0EACF15F033
:101CB000010EDBCFF3FFDB2AF3500F011424E96E92
:101CC000000E1520EA6E500EEF6EFD0EDBCFE9FF21
:101CD000FE0EDBCFEAFFE9CF14F0EACF15F0010EDC
:101CE000DBCFF3FFDB2AF3500F011424E96E000E63
:101CF0001520EA6E450EEF6EFD0EDBCFE9FFFE0EFE
:101D0000DBCFEAFFE9CF14F0EACF15F0010EDBCF0D
:101D1000F3FFDB2AF3500F011424E96E000E1520A7
:101D2000EA6E520EEF6EFD0EDBCFE9FFFE0EDBCF4B
:101D3000EAFFE9CF14F0EACF15F0010EDBCFF3FF95
:101D4000DB2AF3500F011424E96E000E1520EA6E11
:101D5000560EEF6EFD0EDBCFE9FFFE0EDBCFEAFF86
:101D6000E9CF14F0EACF15F0010EDBCFF3FFDB2A49
:101D7000F3500F011424E96E000E1520EA6E490E8F
:101D8000EF6EFD0EDBCFE9FFFE0EDBCFEAFFE9CF02
:101D900014F0EACF15F0010EDBCFF3FFDB2AF3508E
:101DA0000F011424E96E000E1520EA6E530EEF6E3B
:101DB000FD0EDBCFE9FFFE0EDBCFEAFFE9CF14F02B
:101DC000EACF15F0010EDBCFF3FFDB2AF3500F0152
:101DD0001424E96E000E1520EA6E4F0EEF6EFD0E14
:101DE000DBCFE9FFFE0EDBCFEAFFE9CF14F0EACF4D
:101DF00015F0010EDBCFF3FFDB2AF3500F011424A3
:101E0000E96E000E1520EA6E520EEF6EFD0EDBCF6E
:101E1000E9FFFE0EDBCFEAFFE9CF14F0EACF15F0C1
:101E2000010EDBCFF3FFDB2AF3500F011424E96E20
:101E3000000E1520EA6E3B0EEF6EA2D0FD0EDBCF3A
:101E4000E9FFFE0EDBCFEAFFE9CF14F0EACF15F091
:101E5000010EDBCFF3FFDB2AF3500F011424E96EF0
:101E6000000E1520EA6E530EEF6EFD0EDBCFE9FF7C
:101E7000FE0EDBCFEAFFE9CF14F0EACF15F0010E3A
:101E8000DBCFF3FFDB2AF3500F011424E96E000EC1
:101E90001520EA6E410EEF6EFD0EDBCFE9FFFE0E60
:101EA000DBCFEAFFE9CF14F0EACF15F0010EDBCF6C
:101EB000F3FFDB2AF3500F011424E96E000E152006
:101EC000EA6E460EEF6EFD0EDBCFE9FFFE0EDBCFB6
:101ED000EAFFE9CF14F0EACF15F0010EDBCFF3FFF4
:101EE000DB2AF3500F011424E96E000E1520EA6E70
:101EF000450EEF6EFD0EDBCFE9FFFE0EDBCFEAFFF6
:101F0000E9CF14F0EACF15F0010EDBCFF3FFDB2AA7
:101F1000F3500F011424E96E000E1520EA6E540EE2
:101F2000EF6EFD0EDBCFE9FFFE0EDBCFEAFFE9CF60
:101F300014F0EACF15F0010EDBCFF3FFDB2AF350EC
:101F40000F011424E96E000E1520EA6E590EEF6E93
:101F5000FD0EDBCFE9FFFE0EDBCFEAFFE9CF14F089
:101F6000EACF15F0010EDBCFF3FFDB2AF3500F01B0
:101F70001424E96E000E1520EA6E3B0EEF6E00D0C1
:101F8000020EDB2ADF50200DF3CFE9FFF4CFEAFF8A
:101F9000170EE926010EEA22E9CF14F0EACF15F078
:101FA000020EDB500F011424E96E000E1520EA6EBC
:101FB000EF5032E0DF50200DF3CFE9FFF4CFEAFF1E
:101FC000170EE926010EEA22E9CF16F0EACF17F044
:101FD000020EDB500F011624E96E000E1720EA6E88
:101FE000EF50E66EFD0EDBCFE9FFFE0EDBCFEAFF22
:101FF000E9CF14F0EACF15F0010EDB500F011424E5
:10200000E96E000E1520EA6EE552E750EF6E010E04
:10201000DB2A020EDB2AB6D7FD0EDBCFE9FFFE0E70
:10202000DBCFEAFFE9CF14F0EACF15F0010EDB5069
:102030000F011424E96E000E1520EA6EEF6ADFCF5F
:1020400018F5FD0EDBCFE9FFFE0EDBCFEAFF200E19
:10205000E926000EEA2218C5EFFF05D0030EDB2AA1
:10206000DF2A0AEF0AF0040EE15C02E2E16AE552BF
:10207000E16EE552E7CFD9FF1200D9CFE6FFE1CFFD
:10208000D9FF070EE126FE0EDB50200DF3CFE9FF4E
:10209000F4CFEAFF170EE926010EEA221E0EE9260A
:1020A000000EEA22EF5033E0FE0EDB50200DF3CF9E
:1020B000E9FFF4CFEAFF170EE926010EEA22E9CF85
:1020C00014F0EACF15F014C0E6FF15C0E6FF050EC8
:1020D000DBCFE6FF060EDBCFE6FFBFEC29F0E552D3
:1020E000E552E552E552000912E1FE0EDB50200DEB
:1020F000F3CFE9FFF4CFEAFF170EE926010EEA223B
:102100001F0EE926000EEA22EF0401E17FD1FE0E48
:10211000DB50200DF3CFE9FFF4CFEAFF170EE926DD
:10212000010EEA22E9CF14F0EACF15F0050E14C033
:10213000DBFF060E15C0DBFF01010051030A01E1C0
:1021400090D0020A01E049D1050EDBCFE6FF060E72
:10215000DBCFE6FF32EC16F0E552E552E76E020EF9
:10216000E7CFDBFF020EDB50FF0801E179D0050E5F
:10217000DBCFE6FF060EDBCFE6FFC0EC15F0E55245
:10218000E5521C0EE66EE66AE66A020EDB50200D92
:10219000F3CFE9FFF4CFEAFF170EE926010EEA229A
:1021A000E9CF14F0EACF15F014C0E6FF15C0E6FF42
:1021B000A5EC29F0166E050EE15E16500400020E25
:1021C000DB50200DF3CF14F0F4CF15F0170E1426CA
:1021D000010E1522030E14C0DBFF040E15C0DBFF39
:1021E000010EDB6A200EF36E010EDBCFF4FFF3501D
:1021F000F45C25E2010EDB50E76E030EDBCFE9FF56
:10220000040EDBCFEAFFE750E926000EEA22EF508A
:10221000E66E010EDBCFE6FF020EDB50200DF35021
:10222000E552E724E66EE66AF1EC2AF0E552E55263
:10223000E55209EC00F00400010EDB2AD3D70101BE
:1022400001510DE10101006BE66AE66AE66A010EE2
:10225000E66E12EC16F0E552E552E552E552D6D0A4
:10226000BDD0050EDBCFE6FF060EDBCFE6FF32EC7E
:1022700016F0E552E552E76E020EE7CFDBFF020EE5
:10228000DB50FF0801E1A8D0050EDBCFE6FF060E0C
:10229000DBCFE6FFC0EC15F0E552E5521C0EE66E12
:1022A000E66AE66A020EDB50200DF3CFE9FFF4CFB9
:1022B000EAFF170EE926010EEA22E9CF14F0EACF71
:1022C00015F014C0E6FF15C0E6FFA5EC29F0166E68
:1022D000050EE15E16500400020EDB50200DF3CF18
:1022E00014F0F4CF15F0170E1426010E1522030E6C
:1022F00014C0DBFF040E15C0DBFF010EDB6A200EED
:10230000F36E010EDBCFF4FFF350F45C25E2010E17
:10231000DB50E76E030EDBCFE9FF040EDBCFEAFFF5
:10232000E750E926000EEA22EF50E66E010EDBCF01
:10233000E6FF020EDB50200DF350E552E724E66E77
:10234000E66AF1EC2AF0E552E552E55209EC00F0BC
:102350000400010EDB2AD3D70101025120E1010163
:1023600001510EE10101006BE66AE66AE66A010EC0
:10237000E66E12EC16F0E552E552E552E5520ED04B
:102380000101010E006FE66AE66A010EE66EE66A7A
:1023900012EC16F0E552E552E552E5521CD001016F
:1023A00001510DE1E66A010EE66E010EE66EE66A87
:1023B00012EC16F0E552E552E552E5520CD0E66A11
:1023C000010EE66E010EE66EE66A12EC16F0E552BC
:1023D000E552E552E5521AD001D000D0DF6A200E56
:1023E000DF5C14E2DF50200DF3CFE9FFF4CFEAFF0A
:1023F000170EE926010EEA221F0EE926000EEA2238
:10240000EF0402E1808602D0DF2AE9D7070EE15C03
:1024100002E2E16AE552E16EE552E7CFD9FF120030
:10242000D9CFE6FFE1CFD9FF050EE126DF6A200E06
:10243000DF5C33E2DF50200DF3CFE9FFF4CFEAFF9A
:10244000170EE926010EEA221E0EE926000EEA22E8
:10245000EF5021E0DF50200DF3CFE9FFF4CFEAFF8A
:10246000170EE926010EEA22E9CF14F0EACF15F0A3
:1024700014C0E6FF15C0E6FFFD0EDBCFE6FFFE0E43
:10248000DBCFE6FFBFEC29F0E552E552E552E5521D
:10249000000901E1DFD0DF2ACAD7DF6A200EDF5C46
:1024A00001E3D2D0DF50200DF3CFE9FFF4CFEAFFF4
:1024B000170EE926010EEA221E0EE926000EEA2278
:1024C000EF5001E0BFD0DF50200DF3CFE9FFF4CF94
:1024D000EAFF170EE926010EEA221E0EE926000E7B
:1024E000EA22010EEF6E060EF66E000EF76E090080
:1024F000F5CF14F00800F5CF15F0DF50200DF3CF25
:10250000E9FFF4CFEAFF170EE926010EEA221C0EBE
:10251000E926000EEA2214C0EEFF15C0EDFFDF50E1
:10252000200DF3CFE9FFF4CFEAFF170EE926010EE5
:10253000EA221F0EE926000EEA22010EEF6EFD0EC2
:10254000DBCFE6FFFE0EDBCFE6FFDF50200DF3CF43
:10255000E9FFF4CFEAFF170EE926010EEA22E9CFE0
:1025600014F0EACF15F014C0E6FF15C0E6FFDFEC6B
:1025700029F0E552E552E552E552DF50200DF3CF48
:1025800014F0F4CF15F0170E1426010E1522030EC9
:1025900014C0DBFF040E15C0DBFF010EDB6A200E4A
:1025A000F36E010EDBCFF4FFF350F45C24E2010E76
:1025B000DB50E76E030EDBCFE9FF040EDBCFEAFF53
:1025C000E750E926000EEA22EF50E66E010EDBCF5F
:1025D000E6FF200EDF02F350E552E724E66EE66ADE
:1025E000F1EC2AF0E552E552E55209EC00F0040066
:1025F000010EDB2AD4D70101012B010102510CE1AC
:10260000010EE66EE66A010EE66EE66A0BDBE55247
:10261000E552E552E5520CD0010EE66E010EE66E73
:10262000010EE66EE66AFEDAE552E552E552E55243
:10263000FD0EDBCFE6FFFE0EDBCFE6FFA1DAE552B3
:10264000E55202D0DF2A2AD70101025103E101013C
:10265000010E006F050EE15C02E2E16AE552E16EF7
:10266000E552E7CFD9FF1200D9CFE6FFE1CFD9FF7E
:10267000050EE126020EE76EFD0EDBCFE9FFFE0E32
:10268000DBCFEAFFE750E926000EEA22EF503008E0
:102690000AE1FD0EDBCFE6FFFE0EDBCFE6FF70DAD0
:1026A000E552E5528BD1DF6A200EDF5C43E2DF505A
:1026B000200DF3CFE9FFF4CFEAFF170EE926010E54
:1026C000EA221E0EE926000EEA22EF5031E0DF502A
:1026D000200DF3CFE9FFF4CFEAFF170EE926010E34
:1026E000EA22E9CF14F0EACF15F014C0E6FF15C0D6
:1026F000E6FFFD0EDBCFE6FFFE0EDBCFE6FFBFEC15
:1027000029F0E552E552E552E552000911E1DF50AA
:10271000200DF3CFE9FFF4CFEAFF170EE926010EF3
:10272000EA221F0EE926000EEA22EF0401E146D15B
:10273000DF2ABAD701010051030A01E18AD0020A57
:1027400001E03BD1DF6A200EDF5C01E381D0FD0EAA
:10275000DBCFE6FFFE0EDBCFE6FF84DAE552E55283
:10276000E76E020EE7CFDBFF020EDB50FF086EE0E4
:102770001C0EE66EE66AE66A020EDB50200DF3CF11
:10278000E9FFF4CFEAFF170EE926010EEA22E9CFAE
:1027900014F0EACF15F014C0E6FF15C0E6FFA5EC73
:1027A00029F0166E050EE15E16500400020EDB5095
:1027B000200DF3CF14F0F4CF15F0170E1426010EF0
:1027C0001522030E14C0DBFF040E15C0DBFF010E43
:1027D000DB6A200EF36E010EDBCFF4FFF350F45CE6
:1027E00025E2010EDB50E76E030EDBCFE9FF040E9E
:1027F000DBCFEAFFE750E926000EEA22EF50E66E53
:10280000010EDBCFE6FF020EDB50200DF350E55248
:10281000E724E66EE66AF1EC2AF0E552E552E5526D
:1028200009EC00F00400010EDB2AD3D701010151AD
:102830000CE10101006BE66AE66AE66A010EE66EEB
:10284000F1D9E552E552E552E552B8D0DF2A7BD7FF
:10285000B5D0DF6A200EDF5C01E3AED0FD0EDBCF2A
:10286000E6FFFE0EDBCFE6FFFDD9E552E552E76E4F
:10287000020EE7CFDBFF020EDB50FF0801E19AD02A
:102880001C0EE66EE66AE66A020EDB50200DF3CF00
:10289000E9FFF4CFEAFF170EE926010EEA22E9CF9D
:1028A00014F0EACF15F014C0E6FF15C0E6FFA5EC62
:1028B00029F0166E050EE15E16500400020EDB5084
:1028C000200DF3CF14F0F4CF15F0170E1426010EDF
:1028D0001522030E14C0DBFF040E15C0DBFF010E32
:1028E000DB6A200EF36E010EDBCFF4FFF350F45CD5
:1028F00025E2010EDB50E76E030EDBCFE9FF040E8D
:10290000DBCFEAFFE750E926000EEA22EF50E66E41
:10291000010EDBCFE6FF020EDB50200DF350E55237
:10292000E724E66EE66AF1EC2AF0E552E552E5525C
:1029300009EC00F00400010EDB2AD3D7010102519B
:102940001EE1010101510DE10101006BE66AE66A39
:10295000E66A010EE66E66D9E552E552E552E552A9
:102960000DD00101010E006FE66AE66A010EE66E07
:10297000E66A58D9E552E552E552E5521AD001010E
:1029800001510CE1E66A010EE66E010EE66EE66AA2
:1029900049D9E552E552E552E5520BD0E66A010EFF
:1029A000E66E010EE66EE66A3DD9E552E552E55265
:1029B000E55204D0DF2A4ED701D000D0050EE15CED
:1029C00002E2E16AE552E16EE552E7CFD9FF12007B
:1029D000D9CFE6FFE1CFD9FF020EE126060104516F
:1029E0000601035D0BE1FD0EDBCFE9FFFE0EDBCF41
:1029F000EAFFEE6AED6A010EDB6A33D0060103518D
:102A00001C0DF3CF14F0F4CF15F0050E1426060EAE
:102A10001522FD0EDBCFE9FFFE0EDBCFEAFF14C06F
:102A2000EEFF15C0EDFF060103511C0DF3CF14F0AE
:102A3000F4CF15F0050E1426060E152214C0E6FF7D
:102A400015C0E6FF00EC2AF0E552E552010EF3CF87
:102A5000DBFF0601032B100E0601035D02E30601F6
:102A6000036B010EDB5000D0146E020EE15C02E23B
:102A7000E16AE552E16E1450E552E7CFD9FF12004A
:102A8000D9CFE6FFE1CFD9FF0601000502E1000E34
:102A90000BD00601010E006FFE0EDBCF02F6FD0E1D
:102AA000DBCF01F6010E00D0E552E7CFD9FF1200CF
:102AB000D9CFE6FFE1CFD9FFE652FE0EDB50200D65
:102AC000F3CFE9FFF4CFEAFF170EE926010EEA2261
:102AD0001F0EE926000EEA22EF6AFE0EDB50200DE3
:102AE000F3CFE9FFF4CFEAFF170EE926010EEA2241
:102AF000E9CF14F0EACF15F014C0E6FF15C0E6FFE9
:102B00003FD8E552E552FE0EDB50200DF3CFE9FF32
:102B1000F4CFEAFF170EE926010EEA221F0EE9267E
:102B2000000EEA22EF50E66EFE0EDB50200DF35051
:102B30001F0FE66EE66AF1EC2AF0E552E552E55227
:102B400009EC00F00400DF6A200EDF5C13E2DF50C6
:102B5000200DF3CFE9FFF4CFEAFF170EE926010EAF
:102B6000EA221F0EE926000EEA22EF0401E103D05B
:102B7000DF2AEAD78096E552E552E7CFD9FF120067
:102B8000D9CFE6FFE1CFD9FFE652DF6AFD0EDBCFFA
:102B9000E9FFFE0EDBCFEAFFEF5024E0FD0EDBCFB6
:102BA000E9FFFE0EDBCFEAFFEF50E66E06010451AF
:102BB0001C0DF3CF14F0F4CF15F0050E1426060EFD
:102BC0001522DF500F011424E96E000E1520EA6E65
:102BD000E552E750EF6EDF2AFD0EDB2AFE0E01E321
:102BE000DB2AD4D7060104511C0DF3CF14F0F4CF27
:102BF00015F0050E1426060E1522DF500F011424C1
:102C0000E96E000E1520EA6EEF6A0601042B100E25
:102C10000601045D02E30601046BE552E552E7CFCD
:102C2000D9FF1200D9CFE6FFE1CFD9FFFE0EDB506E
:102C3000E8B08080E8A08090FD0EDB50E8B0808294
:102C4000E8A08092FC0EDB50E8B08084E8A080947D
:102C5000FB0EDB50E8B08086E8A08096E552E7CF17
:102C6000D9FF1200D9CFE6FFE1CFD9FF040EE1264C
:102C7000DF6A200EDF5C01E399D0DF50200DF3CF37
:102C8000E9FFF4CFEAFF170EE926010EEA221E0E35
:102C9000E926000EEA22EF5001E186D0DF50200D38
:102CA000F3CFE9FFF4CFEAFF170EE926010EEA227F
:102CB0001F0EE926000EEA22EF0476E0DF50200D19
:102CC000F3CFE9FFF4CFEAFF170EE926010EEA225F
:102CD000E9CF14F0EACF15F014C0E6FF15C0E6FF07
:102CE000FD0EDBCFE6FFFE0EDBCFE6FFBFEC29F0EB
:102CF000E552E552E552E552000956E1DF50200D5C
:102D0000F3CFE9FFF4CFEAFF170EE926010EEA221E
:102D10001E0EE926000EEA22EF0403E1010101077D
:102D200013D0DF50200DF3CFE9FFF4CFEAFF170EE9
:102D3000E926010EEA221E0EE926000EEA22EF50D5
:102D4000030802E101010207DF50200DF3CFE9FF84
:102D5000F4CFEAFF170EE926010EEA221E0EE9263D
:102D6000000EEA22EF6ADF50200DF3CFE9FFF4CF27
:102D7000EAFF170EE926010EEA221C0EE926000ED4
:102D8000EA22EE6AED6ADF50200DF3CFE9FFF4CFBF
:102D9000EAFF170EE926010EEA221F0EE926000EB1
:102DA000EA22EF6ADF5004D0DF2A63D7FF0E00D09B
:102DB000146E040EE15C02E2E16AE552E16E145029
:102DC000E552E7CFD9FF1200D9CFE6FFE1CFD9FF17
:102DD000020EE126010EDB6ADF6A200EDF5C5BE299
:102DE000DF50200DF3CFE9FFF4CFEAFF170EE926FD
:102DF000010EEA221E0EE926000EEA22EF0449E146
:102E0000DF50200DF3CFE9FFF4CFEAFF170EE926DC
:102E1000010EEA221C0EE926000EEA22EE50ED1009
:102E200038E10101022B01010107DF50200DF3CF32
:102E3000E9FFF4CFEAFF170EE926010EEA221E0E83
:102E4000E926000EEA22030EEF6EDF50200DF3CFCD
:102E5000E9FFF4CFEAFF170EE926010EEA221E0E63
:102E6000E926000EEA22EF50E66E200EDF02F35054
:102E70001E0FE66EE66AF1EC2AF0E552E552E552E5
:102E800009EC00F004000101030E006FDE52010E98
:102E9000DD6EDF2AA2D7010EDB5000D0146E020EC9
:102EA000E15C02E2E16AE552E16E1450E552E7CFDF
:102EB000D9FF1200D9CFE6FFE1CFD9FFE652DF6A92
:102EC000200EDF5C41E2DF50200DF3CFE9FFF4CFAD
:102ED000EAFF170EE926010EEA221E0EE926000E71
:102EE000EA22EF502FE0DF50200DF3CFE9FFF4CFBF
:102EF000EAFF170EE926010EEA22E9CF14F0EACF25
:102F000015F014C0E6FF15C0E6FFFD0EDBCFE6FFAF
:102F1000FE0EDBCFE6FFBFEC29F0E552E552E552AD
:102F2000E55200090FE1DF50200DF3CFE9FFF4CFA8
:102F3000EAFF170EE926010EEA221F0EE926000E0F
:102F4000EA22EF6ADF2ABCD7E552E552E7CFD9FF84
:102F50001200D9CFE6FFE1CFD9FFFD0EDBCFE6FFB0
:102F6000FE0EDBCFE6FF0D0EE66E010EE66EBFEC49
:102F700029F0E552E552E552E552000902E0000E63
:102F800002D0010E00D0E552E7CFD9FF1200D9CF11
:102F9000E6FFE1CFD9FF020EE1260101006B01013E
:102FA000016B0101026B0101036B046B056B066B86
:102FB0000101076B086B096B0A6B0501186B0601B1
:102FC000046B0601036BDE6ADD6ADECF14F0DDCF31
:102FD00015F0200E145C000E155860E2DECFE9FFFC
:102FE000DDCFEAFF050ED890E936EA36E806FBE1C8
:102FF000170EE926010EEA221E0EE926000EEA222D
:10300000EF6ADECFE9FFDDCFEAFF050ED890E936A3
:10301000EA36E806FBE1170EE926010EEA221C0E4D
:10302000E926000EEA22EE6AED6ADECFE9FFDDCF87
:10303000EAFF050ED890E936EA36E806FBE1170EFE
:10304000E926010EEA221F0EE926000EEA22EF6AA7
:103050001C0EE66EE66AE66ADECFE9FFDDCFEAFF28
:10306000050ED890E936EA36E806FBE1170EE926A8
:10307000010EEA22E9CF14F0EACF15F014C0E6FF02
:1030800015C0E6FFA5EC29F0166E050EE15E1650A0
:103090000400DF2A010E01E3DB2A97D7DE6ADD6A2E
:1030A000DECF14F0DDCF15F0000E145C000E1558C5
:1030B00012E2E66ADECFE6FFDDCFE6FFF1EC2AF0B2
:1030C000E552E552E55209EC00F00400DF2A010E5A
:1030D00001E3DB2AE5D7050117050BE1E66AE66A9D
:1030E000E66A010EE66E9EDDE552E552E552E552D6
:1030F00009D0E66AE66AE66AE66A94DDE552E552D8
:10310000E552E552020EE15C02E2E16AE552E16E4F
:10311000E552E7CFD9FF1200D9CFE6FFE1CFD9FFC3
:10312000030EE126FD0EDBCFE9FFFE0EDBCFEAFF4B
:10313000010EEFCFDBFF020EDB6A010EDB50A00AAF
:103140005BE0010A4DE0030A19E0220A01E05FD0CA
:10315000F90EDBCFE6FFFA0EDBCFE6FF39DCE552F6
:10316000E552E76E020EE7CFDBFFFB0EDBCFE9FF98
:10317000FC0EDBCFEAFF800EEF6E54D0010EE76E3F
:10318000FD0EDBCF14F0FE0EDBCF15F0E75014265A
:10319000000E152214C0E6FF15C0E6FF8BDEE552D7
:1031A000E552010EE76EFD0EDBCF14F0FE0EDBCF15
:1031B00015F0E7501426000E152214C0E6FF15C0C6
:1031C000E6FF34EC13F0E552E552FB0EDBCFE9FFEE
:1031D000FC0EDBCFEAFFA20EEF6E020EDB6A22D0FE
:1031E000D6DEFB0EDBCFE9FFFC0EDBCFEAFFA10E44
:1031F000EF6E020EDB6A16D0020EDB6AFB0EDBCF2F
:10320000E9FFFC0EDBCFEAFFA00EEF6E0BD0020E43
:10321000DB6AFB0EDBCFE9FFFC0EDBCFEAFF920E91
:10322000EF6E00D0020EDB5000D0146E030EE15C96
:1032300002E2E16AE552E16E1450E552E7CFD9FFB0
:0232400012007A
:0E324200080EE66EF4EC25F0E552E66ACDECDF
:103250001EF0E55279EC1EF08EEC1EF01200D9CF74
:10326000E6FFE1CFD9FF060EE126DF68D950020F55
:10327000E66E000EDA20E66ED950030FE66E000E01
:10328000DA20E66E1BEC27F0E552E552E552E552F6
:10329000000901E115D3020EDBCFE6FF030EDBCF01
:1032A000E6FF18DBE552E552DF6EFF0EDF5C01E161
:1032B00007D30D010051060A01E1E9D2030A01E139
:1032C0009CD2010A01E182D20C0A01E14BD20B0A25
:1032D00001E114D2040A01E1DBD1050A01E135D193
:1032E000030A01E190D0010A01E0E9D2080EDF5C97
:1032F00012E10D01235100080DE2DFCFE6FF06ECDD
:1033000026F0E5520D0123070D014751000802E2A6
:103310000D01470777D00A0EDF5C11E10D01235143
:1033200000080CE2EFEC1DF0010EE66ECDEC1EF095
:10333000E55279EC1EF00D01010E006F63D0130E03
:10334000DF5C0BE1090EE66ECDEC1EF0E55279EC88
:103350001EF00D01050E006F55D00C0EDF5C1CE158
:10336000690EE66E0D0EE66EE3EC09F0E552E552ED
:10337000FF0E0D01895D0FE0690EE66E0D0EE66E23
:103380009FEC1EF0E552E55279EC1EF08EEC1EF03B
:103390000D01080E006F36D00B0EDF5C1CE1480EED
:1033A000E66E0D0EE66E89EC03F0E552E552FF0E77
:1033B0000D01685D0FE0480EE66E0D0EE66E9FECA7
:1033C0001EF0E552E55279EC1EF08EEC1EF00D0178
:1033D000030E006F17D00D012351EA6A020FE96E48
:1033E0000D0EEA22DFCFEFFF0D012351EA6A020F33
:1033F000E96E0D0EEA22EF50E66E06EC26F0E5527D
:103400000D01232B5DD2080EDF5C17E10D01235166
:10341000000808E2DFCFE6FF06EC26F0E5520D01DA
:1034200023070AD0E66ACDEC1EF0E55279EC1EF0D7
:103430008EEC1EF00D01006B87D0DF50360A6FE076
:10344000030A59E0010A43E0070A2DE0010A17E0E8
:10345000030A01E078D0020EE66E13EC1FF0E5528D
:103460000D014751EA6A260FE96E0D0EEA22310E70
:10347000EF6E0D01472B0D01070E006F65D0030E97
:10348000E66E13EC1FF0E5520D014751EA6A260F74
:10349000E96E0D0EEA22320EEF6E0D01472B0D0183
:1034A000070E006F51D0040EE66E13EC1FF0E552CC
:1034B0000D014751EA6A260FE96E0D0EEA22330E1E
:1034C000EF6E0D01472B0D01070E006F3DD0050E6D
:1034D000E66E13EC1FF0E5520D014751EA6A260F24
:1034E000E96E0D0EEA22340EEF6E0D01472B0D0131
:1034F000070E006F29D0060EE66E13EC1FF0E552A2
:103500000D014751EA6A260FE96E0D0EEA22350ECB
:10351000EF6E0D01472B0D01070E006F15D0070E42
:10352000E66E13EC1FF0E5520D014751EA6A260FD3
:10353000E96E0D0EEA22360EEF6E0D01472B0D01DE
:10354000070E006F01D000D0BBD1080EDF5C1DE17B
:103550000D012351000808E2DFCFE6FF06EC26F05C
:10356000E5520D0123070CD0010EE66ECDEC1EF0E6
:10357000E552BFDB0D01020E476F0D01010E006F1A
:103580000D0124690D01256B82D00A0EDF5C1AE162
:103590000D012351000811E277DB260EE66E0D0EB9
:1035A000E66E10EC12F0E552E552E66ACDEC1EF044
:1035B000E5529FDBB3DB0D01006B0D0124690D01AA
:1035C000256B65D0030EDB500D01245D43E1140E25
:1035D000F36E020EDBCFF4FFF350F45C1FE20D013B
:1035E00023070D012351EA6A020FE96E0D0EEA224C
:1035F000DFCFEFFF080EE66E06EC26F0E5520D0178
:103600002351EA6A020FE96E0D0EEA22EF50E66ED0
:1036100006EC26F0E5520D01232B1BD00D012351A2
:10362000EA6A020FE96E0D0EEA22DFCFEFFF0D010D
:103630002351EA6A020FE96E0D0EEA22EF50E66EA0
:1036400006EC26F0E5520D01232B0D0124690D0136
:10365000256B1AD00D012351EA6A020FE96E0D0E97
:10366000EA22DFCFEFFF0D012351EA6A020FE96E74
:103670000D0EEA22EF50E66E06EC26F0E5520D0143
:10368000232B030EDBCF24FD030EDBCF24FD18D14B
:10369000080EDF5C0CE1010EE66E7FDBE55229DBF4
:1036A0000D01020E476F0D01010E006F26D00A0EAC
:1036B000DF5C23E10D014705EA6A260FE96E0D0E76
:1036C000EA22EF50330809E1080EE66E66DBE552A8
:1036D00010DB0D01020E006F10D0D6DA260EE66E5A
:1036E0000D0EE66E10EC12F0E552E552E66A55DB7F
:1036F000E552FFDA13DB0D01006BE2D0080EDF5C50
:1037000008E1E66A4ADBE552F4DA08DB0D01006BFA
:1037100028D00B0EDF5C14E1480EE66E0D0EE66E4F
:1037200089EC03F0E552E552FF0E0D01685D07E0FC
:10373000480EE66E0D0EE66E02DBE552E55211D044
:103740000A0EDF5C0EE168CDE6FF58EC15F0E5529D
:103750000D016869E66A21DBE552CBDADFDA0D019B
:10376000006BAED0080EDF5C08E1E66A16DBE552BE
:10377000C0DAD4DA0D01006B28D00C0EDF5C14E146
:10378000690EE66E0D0EE66EE3EC09F0E552E552C9
:10379000FF0E0D01895D07E0690EE66E0D0EE66E07
:1037A000CEDAE552E55211D00A0EDF5C0EE189CD8A
:1037B000E6FF3DEC10F0E5520D018969E66AEDDAAD
:1037C000E55297DAABDA0D01006B7AD0080EDF5CB8
:1037D00007E1E66AE2DAE5528CDA0D01006B0CD003
:1037E0000A0EDF5C09E1C7EC17F083DA97DAE66AC4
:1037F000D4DAE5520D01006B63D0080EDF5C08E1FE
:10380000E66ACBDAE55275DA89DA0D01006B3ED053
:103810000A0EDF5C2BE1050EDB6A0D012351EA6A1B
:10382000020FE96E0D0EEA22EF6A020EE66E0D0E31
:10383000E66EA9EC17F0E552E552E76E050EE7CF0C
:10384000DBFF050EDB040AE10A0EE66EA6DAE5529E
:1038500050DA64DA0D01060E006F07D0E66A9DDAD1
:10386000E55247DA5BDA0D01006B10D00D012351F0
:10387000EA6A020FE96E0D0EEA22DFCFEFFF2A0E91
:10388000E66E06EC26F0E5520D01232B19D0080E4A
:10389000DF5C08E1E66A81DAE5522BDA3FDA0D01F6
:1038A000006B0CD0300EDF5C09E10B0EE66E75DAB2
:1038B000E5521FDA33DA0D01040E006F01D000D09B
:1038C000060EE15C02E2E16AE552E16EE552E7CF05
:1038D000D9FF1200D9CFE6FFE1CFD9FFE652DF686A
:1038E0000D010051060A01E12BD1020A01E112D1BA
:1038F000010A01E1F6D00D0A01E1DAD00B0A01E17B
:10390000BED0010A01E179D0050A61E0060A37E07C
:10391000010A01E02ED1FE0EDB50050DF3CFF6FFBC
:10392000F4CFF7FFA00EF626570EF7220800F55049
:10393000DF6E020E0D01235D08E3080EDF5C04E07C
:103940000A0EDF5C01E0DF6819D00D012351000889
:1039500011E20D0123510EE02A0EDF5C09E00B0E8F
:10396000DF5C06E00C0EDF5C03E0130EDF5C01E1C0
:10397000DF6804D02A0EDF5C01E1DF68FBD0FE0EB9
:10398000DB50050DF3CFF6FFF4CFF7FFA00EF626C0
:10399000570EF7220800F550DF6E310EDF5C16E09F
:1039A000320EDF5C13E0330EDF5C10E0340EDF5CC0
:1039B0000DE0350EDF5C0AE0360EDF5C07E0080E36
:1039C000DF5C04E00A0EDF5C01E0DF68D3D0FE0EAE
:1039D000DB50050DF3CFF6FFF4CFF7FFA00EF62670
:1039E000570EF7220800F550DF6E0A0EDF5C04E088
:1039F000080EDF5C01E0DF68BDD0FE0EDB500D017C
:103A0000245D14E1140EF36EFD0EDBCFF4FFF350D2
:103A1000F45C09E20D01252B050E0D01255D02E385
:103A20000D01256B02D00D01256B02D00D01256B18
:103A3000FE0EDB50050DF3CF14F0F4CF15F0A00E01
:103A40001426570E15220D0125510F011424F66E70
:103A5000000E1520F76E0800F550DF6E0C0EDF5CCF
:103A600003E00B0EDF5C02E1DF6808D00A0EDF5CCA
:103A700003E0080EDF5C02E10D01256B7BD0FE0E3A
:103A8000DB50050DF3CFF6FFF4CFF7FFA00EF626BF
:103A9000570EF7220800F550DF6E0A0EDF5C07E0D4
:103AA000080EDF5C04E00B0EDF5C01E0DF6862D033
:103AB000FE0EDB50050DF3CFF6FFF4CFF7FFA00E9F
:103AC000F626570EF7220800F550DF6E0A0EDF5C6F
:103AD00007E0080EDF5C04E00C0EDF5C01E0DF684D
:103AE00049D0FE0EDB50050DF3CFF6FFF4CFF7FF04
:103AF000A00EF626570EF7220800F550DF6E0B0ECB
:103B0000DF5C06E00C0EDF5C03E0130EDF5C01E11E
:103B1000DF6830D0FE0EDB50050DF3CFF6FFF4CF9B
:103B2000F7FFA00EF626570EF7220800F550DF6EBD
:103B30000A0EDF5C04E0080EDF5C01E0DF681AD0EB
:103B4000FE0EDB50050DF3CFF6FFF4CFF7FFA00E0E
:103B5000F626570EF7220800F550DF6E300EDF5CB8
:103B600007E0080EDF5C04E00A0EDF5C01E0DF68BE
:103B700001D000D0DF5000D0E552E552E7CFD9FFA9
:103B80001200D9CFE6FFE1CFD9FFFE0EDB50010ACC
:103B900017E0030A0BE0020A01E01CD0E66AFDD838
:103BA000E552A7D8BBD80D01006B15D0080EE66E04
:103BB000F4D8E5529ED8B2D80D01020E006F0BD09A
:103BC000010EE66EEAD8E55294D8A8D80D01010E90
:103BD000006F01D000D0E552E7CFD9FF1200D9CF56
:103BE000E6FFE1CFD9FF020EE126010EDB6A0D01EF
:103BF000230517E10D014751EA6A260FE96E0D0E04
:103C0000EA22300EEF6E0D01472B0D014751EA6A93
:103C1000260FE96E0D0EEA2202CDEFFF0D01472BB4
:103C200016D00D014751EA6A260FE96E0D0EEA2201
:103C300002CDEFFF0D01472B0D014751EA6A260F18
:103C4000E96E0D0EEA2203CDEFFF0D01472B300E7A
:103C50000D01275D146E300E0D01265D0A0DF35027
:103C60001424E76E010EE7CFDBFF010EDB5000D01E
:103C7000146E020EE15C02E2E16AE552E16E14505C
:103C8000E552E7CFD9FF1200D9CFE6FFE1CFD9FF48
:103C9000E652DF6A0D012351DF5C16E2DF50EA6A6B
:103CA000020FE96E0D0EEA22EF50E66E0D0147514C
:103CB000EA6A260FE96E0D0EEA22E552E750EF6E32
:103CC0000D01472BDF2AE6D70D014751EA6A260F7F
:103CD000E96E0D0EEA22EF6A0D01472B200E0D0151
:103CE000475D02E30D01476BE552E552E7CFD9FF8F
:103CF0001200200EE66EE66AE66A020EE66E0D0E11
:103D0000E66EA5EC29F0146E050EE15E14500D016F
:103D1000236B0D01256B0D0124691200200EE66E48
:103D2000E66AE66A260EE66E0D0EE66EA5EC29F052
:103D3000146E050EE15E14500D01476B1200D9CFD1
:103D4000E6FFE1CFD9FFE652FFEC25F0DF6ADF5056
:103D5000E76EFD0EDBCFE9FFFE0EDBCFEAFFE7509B
:103D6000E926000EEA22EF5013E0DF50E76EFD0E69
:103D7000DBCFE9FFFE0EDBCFEAFFE750E926000EBE
:103D8000EA22EF50E66E06EC26F0E552DF2ADFD796
:103D9000E552E552E7CFD9FF1200D9CFE6FFE1CFD8
:103DA000D9FF030EE126FE0EEA6ADB34FE0BEA368B
:103DB000E96E000EE9260F0EEA22010EEECFDBFFC0
:103DC000020EEDCFDBFFFFEC25F0DF6ADF50E76E80
:103DD000010EDBCFF6FF020EDBCFF7FFE750F62632
:103DE000000EF7220800F55014E0DF50E76E010ED8
:103DF000DBCFF6FF020EDBCFF7FFE750F626000E13
:103E0000F7220800F550E66E06EC26F0E552DF2AB0
:103E1000DDD7030EE15C02E2E16AE552E16EE552B4
:103E2000E7CFD9FF1200D9CFE6FFE1CFD9FF030ECC
:103E3000E126FE0EEA6ADB34FE0BEA36E96E000E7E
:103E4000E9260F0EEA22010EEECFDBFF020EEDCFC8
:103E5000DBFFDF6ADF50E76E010EDBCFF6FF020EFD
:103E6000DBCFF7FFE750F626000EF7220800F550EB
:103E700014E0DF50E76E010EDBCFF6FF020EDBCF62
:103E8000F7FFE750F626000EF7220800F550E66E21
:103E900006EC26F0E552DF2ADDD7030EE15C02E2F4
:0E3EA000E16AE552E16EE552E7CFD9FF12006C
:023EAE00DACF69
:103EB000E4FFE2CFDAFFE9CFE4FFEACFE4FFF6CF99
:103EC000E4FFF7CFE4FFF5CFE4FFF3CFE4FFF4CF57
:103ED000E4FFFACFE4FF00EE00F0140EE80403E381
:103EE000EECFE4FFFBD700EE14F0040EE80403E38A
:103EF000EECFE4FFFBD7E652D9CFE6FFE1CFD9FF03
:103F0000E6521AEC2CF0DF6E0C018951892BEA6A1B
:103F10008C0FE96E0C0EEA22DFCFEFFF800E0C0152
:103F2000895D02E30C01896B0C018B2BA49AE5528D
:103F3000E552E7CFD9FFE55200EE17F0040EE80492
:103F400003E3E5CFEDFFFBD700EE13F0140EE8041A
:103F500003E3E5CFEDFFFBD7E5CFFAFFE5CFF4FFB5
:103F6000E5CFF3FFE5CFF5FFE5CFF7FFE5CFF6FFB0
:103F7000E5CFEAFFE5CFE9FFE5CFDAFF1100DACFC1
:103F8000E4FFE2CFDAFFE9CFE4FFEACFE4FFE65255
:103F9000D9CFE6FFE1CFD9FFE6520B01025104E190
:103FA000ACA2FED7AC9A21D00B010151EA6A030FF3
:103FB000E96E0B0EEA22EFCFDFFFDF50AD6E0B0193
:103FC000012B800E0B01015D02E30B01016B000E62
:103FD0000B01E76E0219E8AE02D0023503D0E750BC
:103FE000D880025502E20B010207E552E552E7CF05
:103FF000D9FFE552E5CFEAFFE5CFE9FFE5CFDAFFEC
:104000001100DACFE4FFE2CFDAFFE9CFE4FFEACF35
:10401000E4FFE652D9CFE6FFE1CFD9FFE6520C012B
:10402000085104E172A2FED7729A21D00C01075107
:10403000EA6A090FE96E0C0EEA22EFCFDFFFDF50CC
:10404000736E0C01072B800E0C01075D02E30C015F
:10405000076B000E0C01E76E0819E8AE02D00835B8
:1040600003D0E750D880085502E20C010807E5525A
:10407000E552E7CFD9FFE552E5CFEAFFE5CFE9FF0B
:10408000E5CFDAFF1100D9CFE6FFE1CFD9FFE65245
:104090007C0EDF6E0F0EE66EE66ADFCFE6FF69ECA0
:1040A0002BF0E552E552E552AC8AAC9EE552E55262
:1040B000E7CFD9FF1200D9CFE6FFE1CFD9FFE65213
:1040C0007C0EDF6E670EE66EE66ADFCFE6FF2DEC54
:1040D0002BF0E552E552E552D08E718E728A729EB7
:1040E000A38AA58AE552E552E7CFD9FF1200D9CFBE
:1040F000E6FFE1CFD9FFACA2FED70B010051002BA8
:10410000EA6A030FE96E0B0EEA22FE0EDBCFEFFF29
:104110000B01022B800E0B01005D02E30B01006B13
:10412000010E00D0E552E7CFD9FF1200D9CFE6FF4C
:10413000E1CFD9FF72A2FED70C010651062BEA6A25
:10414000090FE96E0C0EEA22FE0EDBCFEFFF0C0129
:10415000082B800E0C01065D02E30C01066B010EBC
:1041600000D0E552E7CFD9FF1200D9CFE6FFE1CF6B
:10417000D9FF060EE126010EF36E020EF3CFDBFF30
:10418000030EDB6A020EDBCF14F0DB06030EDBCF7F
:1041900015F001E2DB061450151006E0040EE66E81
:1041A000AEEC2CF0E552EED7000E0B01E76E0219D3
:1041B000E8AE02D0023503D0E750D880025528E29D
:1041C0000B010151EA6A030FE96E0B0EEA22010EA0
:1041D000EFCFDBFFACA2FED7010EDB50AD6EACA281
:1041E000FED70B01012B800E0B01015D02E30B01D9
:1041F000016B000E0B01E76E0219E8AE02D002352A
:1042000003D0E750D880025502E20B010207CCD759
:10421000010EF36E040EF3CFDBFF050EDB6A040E16
:10422000DBCF14F0DB06050EDBCF15F001E2DB0679
:104230001450151006E0040EE66EAEEC2CF0E552BC
:10424000EED7146E060EE15C02E2E16AE552E16E21
:104250001450E552E7CFD9FF1200D9CFE6FFE1CFE6
:10426000D9FF060EE126010EF36E020EF3CFDBFF3F
:10427000030EDB6A020EDBCF14F0DB06030EDBCF8E
:1042800015F001E2DB061450151006E0040EE66E90
:10429000AEEC2CF0E552EED7000E0C01E76E0819DB
:1042A000E8AE02D0083503D0E750D880085528E2A0
:1042B0000C010751EA6A090FE96E0C0EEA22010EA1
:1042C000EFCFDBFF72A2FED7010EDB50736E72A23E
:1042D000FED70C01072B800E0C01075D02E30C01D9
:1042E000076B000E0C01E76E0819E8AE02D0083526
:1042F00003D0E750D880085502E20C010807CCD75C
:10430000010EF36E040EF3CFDBFF050EDB6A040E25
:10431000DBCF14F0DB06050EDBCF15F001E2DB0688
:104320001450151006E0040EE66EAEEC2CF0E552CB
:10433000EED7146E060EE15C02E2E16AE552E16E30
:104340001450E552E7CFD9FF1200D9CFE6FFE1CFF5
:10435000D9FFE652DF6AA39A000E0C01E76E8B19B3
:10436000E8AE02D08B3503D0E750D8808B5502E2FF
:10437000010EDF6EA38ADF5000D0E552E552E7CF91
:10438000D9FF1200D9CFE6FFE1CFD9FFE652DF6AAD
:104390009D9A000E0B01E76E8519E8AE02D08535B7
:1043A00003D0E750D880855502E2010EDF6E9D8A6A
:1043B000DF5000D0E552E552E7CFD9FF1200D9CF48
:1043C000E6FFE1CFD9FFE6529D9A0B018451842B81
:1043D000EA6A860FE96E0B0EEA22EFCFDFFF800E4E
:1043E0000B01845D02E30B01846B000E0B01E76E91
:1043F0008519E8AE02D0853503D0E750D8808555C1
:1044000002E20B0185079D8ADF5000D0E552E5529C
:10441000E7CFD9FF1200D9CFE6FFE1CFD9FFE652AF
:10442000A39A0C018A518A2BEA6A8C0FE96E0C0E52
:10443000EA22EFCFDFFF800E0C018A5D02E30C0160
:104440008A6B000E0C01E76E8B19E8AE02D08B353B
:1044500003D0E750D8808B5502E20C018B079D8A70
:0E446000DF5000D0E552E552E7CFD9FF120041
:02446E00D9CFA4
:10447000E6FFE1CFD9FFFE0EDBCF01F9FD0EDBCF6A
:1044800002F9FC0EDBCF03F9FB0EDBCF04F9F90ECA
:10449000DBCF09FAFA0EDBCF0AFA04D8E552E7CFF0
:1044A000D9FF120043EC20F00A01056B0A01066BEC
:1044B0000901010E006F0A01076B0A01050E086F62
:1044C0000FCA0BFA10CA0CFA11CA0DFA12CA0EFA68
:1044D00000C913FA12000A01056B0A01066B0901F3
:1044E000010E006F0A01076B0A01050E086F0FCA63
:1044F0000BFA10CA0CFA11CA0DFA12CA0EFA00C948
:1045000013FA1200D9CFE6FFE1CFD9FF060EE1265C
:10451000DF6A32EC2AF006C00FFA07C010FA08C0B2
:1045200011FA09C012FAABA207D0AB98040EE66EDE
:10453000EBEC2CF0E552AB880B0EE96E0A0EEA6E3E
:10454000EE500A010F190CE1EE500A01101908E1B2
:10455000EE500A01111904E1EE500A01121900E1AE
:1045600018E0090100510A01135D0BE1020E090177
:10457000005D07E10A0108070A01085102E192DF24
:10458000D3D00FCA0BFA10CA0CFA11CA0DFA12CA0C
:104590000EFA09010051030A01E1BFD0010A18E037
:1045A000030A01E0BDD0C2EC21F0000901E1BCD05A
:1045B000DFEC21F0DF6E09010151DF5C08E10A0147
:1045C000056B0901020E006F0A01050E086FAAD0E3
:1045D000C2EC21F0000901E1A7D0DFEC21F0DF6E91
:1045E00009010251DF5C01E07CD0020EDB6A030EA0
:1045F000DB68D950030FE66E000EDA20E66E9ED817
:10460000E552E552E76E020EE7CFDBFF020EDB500C
:10461000020A58E0030A05E0010A01E05DD05BDF11
:1046200083D00A0109510A114BE0D950040FE66EFC
:10463000000EDA20E66E070EE66E0A0EE66E070E34
:10464000E66E090EE66E05D00ACAFAFF0A010951A4
:10465000F96EFADF146E060EE15E14500A01066F61
:104660000901FA0E856F0A01062B07CA86F90A01AD
:10467000062BDE52020EDD6E0A010651F36E010EAC
:10468000DBCFF4FFF350F45C1AE2040EDBCFE9FF5A
:10469000050EDBCFEAFFEF50E66E010EDB50EA6A53
:1046A000850FE96E090EEA22E552E750EF6E040E1F
:1046B000DB2A050E01E3DB2A010EDB2ADDD701D060
:1046C0000ADF0BD00901FA0E856F0A01062B07CA13
:1046D00086F90A01062B01D000D00901030E006FF4
:1046E0001BD00A010551052BEA6A050FE96E090E78
:1046F000EA22DFCFEFFF800E0A01055D0DE309011D
:10470000FA0E856F0A01062B0901900E866F0A01C9
:10471000062B0901030E006F05D061D8DCDE02D044
:10472000DADE00D000C913FA060EE15C02E2E16AAB
:10473000E552E16EE552E7CFD9FF1200D9CFE6FF8F
:10474000E1CFD9FF020EE1260A010505EA6A050F4D
:10475000E96E090EEA22EFCFDFFF010EDB6AFA0EE7
:104760000901055D06E0FA0E0901055D02E0000E93
:104770002AD00A010505E66E050EE66E090EE66E04
:104780009CD8E552E552E552E76E010EE7CFDBFF1C
:10479000010EDB50DF5C0DE10A0105070A0105513E
:1047A000EA6A050FE96E090EEA22EF6A010E0BD0E4
:1047B0000AD0FD0EDBCFE9FFFE0EDBCFEAFF910E44
:1047C000EF6E000E00D0146E020EE15C02E2E16AB0
:1047D000E552E16E1450E552E7CFD9FF1200D9CF70
:1047E000E6FFE1CFD9FF020EE126DF6A010EDB6AA8
:1047F00006CAE6FF850EE66E090EE66E5ED8E55245
:10480000E552E552DF6E03C9E6FF77EC20F0E55292
:10481000010EDB6A0A010651F36E010EDBCFF4FFD5
:10482000F350F45C0FE2010EDB50EA6A850FE96E8B
:10483000090EEA22EF50E66E77EC20F0E552010E09
:10484000DB2AE8D7DFCFE6FF77EC20F0E55204C99A
:10485000E6FF77EC20F0E552B5EC20F0020EE15CCB
:1048600002E2E16AE552E16EE552E7CFD9FF1200BC
:10487000D9CFE6FFE1CFD9FFFD0EDBCFF6FFFE0E6D
:10488000DBCFF7FF0800F55012E0FD0EDBCFF6FF9F
:10489000FE0EDBCFF7FF0800F550E66E77EC20F058
:1048A000E552FD0EDB2AFE0E01E3DB2AE5D7B5EC6F
:1048B00020F0E552E7CFD9FF1200D9CFE6FFE1CFD4
:1048C000D9FF030EE126DF6A010EDB6AFC0EDB5026
:1048D000F36E010EDBCFF4FFF350F45C12E2010E35
:1048E000DB50E76EFD0EDBCFE9FFFE0EDBCFEAFF0C
:1048F000E750E926000EEA22EF50DF1A010EDB2A0C
:10490000E5D7DF5000D0146E030EE15C02E2E16AED
:0E491000E552E16E1450E552E7CFD9FF1200D8
:02491E00D9CFEF
:10492000E6FFE1CFD9FF030EE126300EF36E010E54
:10493000F3CFDBFF750EF36E020EF3CFDBFF010E3C
:10494000DF6EDF0425E10ADA000000008392838431
:10495000000000008386000000008350800B01E00F
:10496000010EDF6E83968386000000008396010EA1
:10497000DB06020E01E2DB06D950010FE96EDACF49
:10498000EAFFEE50ED1003E1F1D9FF0E04D0D9D7C4
:10499000EDD9000E00D0146E030EE15C02E2E16A74
:1049A000E552E16E1450E552E7CFD9FF1200D9CF9E
:1049B000E6FFE1CFD9FF839283940000FE0EDB5027
:1049C000F00B146E0F0E8C1414108C6E0000838686
:1049D000000000008396E552E7CFD9FF1200D9CF3F
:1049E000E6FFE1CFD9FF9BDF839283940000FE0EA8
:1049F000DB50F00B146E0F0E8C1414108C6E000034
:104A00008386000000008396FE0EDB38F00BF00B6F
:104A1000146E0F0E8C1414108C6E00008386000030
:104A200000008396E552E7CFD9FF1200D9CFE6FF09
:104A3000E1CFD9FF74DF838283940000FE0EDB5048
:104A4000F00B146E0F0E8C1414108C6E0000838605
:104A5000000000008396FE0EDB38F00BF00B146EA6
:104A60000F0E8C1414108C6E000083860000000062
:104A70008396E552E7CFD9FF1200D9CFE6FFE1CF09
:104A8000D9FF0B0EE12672D9280EF36E010EF3CF7B
:104A9000DBFF020EDB6A010EDBCF14F0DB06020E39
:104AA000DBCF15F001E2DB061450151006E0040E12
:104AB000E66EAEEC2CF0E552EED7300EE66E77DF08
:104AC000E5520A0EF36E030EF3CFDBFF040EDB6A32
:104AD000030EDBCF14F0DB06040EDBCF15F001E292
:104AE000DB061450151006E0040EE66EAEEC2CF05A
:104AF000E552EED7300EE66E5ADFE5520A0EF36E3F
:104B0000050EF3CFDBFF060EDB6A050EDBCF14F0DC
:104B1000DB06060EDBCF15F001E2DB0614501510A4
:104B200006E0040EE66EAEEC2CF0E552EED7300E49
:104B3000E66E3DDFE5520A0EF36E070EF3CFDBFFA4
:104B4000080EDB6A070EDBCF14F0DB06080EDBCFA6
:104B500015F001E2DB061450151006E0040EE66EB7
:104B6000AEEC2CF0E552EED7200EE66E20DFE552DB
:104B70000A0EF36E090EF3CFDBFF0A0EDB6A090E95
:104B8000DBCF14F0DB060A0EDBCF15F001E2DB060B
:104B90001450151006E0040EE66EAEEC2CF0E55253
:104BA000EED7280EE66E1BDFE552B9DEDF6EDF5072
:104BB00010E10F0EE66E13DFE552010EE66E0FDF19
:104BC000E552040EE66E0BDFE552060EE66E07DFD9
:104BD000E55200D00B0EE15C02E2E16AE552E16EC3
:104BE000E552E7CFD9FF1200D9CFE6FFE1CFD9FFD9
:104BF000FE0EDBCF1FFEE552E7CFD9FF1200010EFC
:104C0000E66EEDDEE5520E011E6B1200D9CFE6FF17
:104C1000E1CFD9FFE652FE0EDB500E011F5D25E10C
:104C20000E011E5101E13BD0100E0E011E5D0EE182
:104C3000800EE66ED4DEE552DF6A100EDF5C06E21F
:104C4000140EE66ECCDEE552DF2AF7D7100EE66EC4
:104C5000C6DEE552200EE66EE9DEE552100EE66E87
:104C6000BEDEE5520E011E071AD0100E0E011E5DAB
:104C700005E1C00EE66EB3DEE5520AD0200E0E014D
:104C80001E5D06E30E011E6B020EE66EA8DEE55207
:104C9000FE0EDBCFE6FFCADEE5520E011E2BE5520B
:104CA000E552E7CFD9FF1200E8DE010EE66E97DE8F
:104CB000E5520E011E6B1200D9CFE6FFE1CFD9FFFE
:104CC000E652010EE66E8BDEE552DF6A100EDF5C07
:104CD0001CE2FD0EDBCFE9FFFE0EDBCFEAFFEF505B
:104CE000E66EDF50EA6A200FE96E0E0EEA22E55208
:104CF000E750EF6EFD0EDBCFE9FFDB2AFE0EDBCFC8
:104D0000EAFF01E3DB2ADF2AE1D7C00EE66E67DEA9
:104D1000E552DF6A100EDF5C1CE2FD0EDBCFE9FF1F
:104D2000FE0EDBCFEAFFEF50E66EDF50EA6A200F9F
:104D3000E96E0E0EEA22E552E750EF6EFD0EDBCF74
:104D4000E9FFDB2AFE0EDBCFEAFF01E3DB2ADF2AE5
:104D5000E1D7E552E552E7CFD9FF1200958E958C49
:104D6000958A95889596959495921200959E959C16
:0C4D7000959A959895969594959212004E
:044D7C000D01CD6BED
:104D80000D01CE6B0D019E6B0D019F6B0D01A06B94
:104D90000D01A1690D01A26B1200D9CFE6FFE1CF91
:104DA000D9FF020EE1260D01D02B000ED123D9CF61
:104DB000E6FFDACFE6FF8FD8E552E552000901E1C0
:104DC00030D00D01CD510D01CE5D04E10D01CE6B52
:104DD0000D01CD6B0D01CE51E96EEA6AD890E9362E
:104DE000EA36A30EE9260D0EEA22DFCFEFFF0D0112
:104DF000CE51E96EEA6AD890E936EA36A30EE92682
:104E00000D0EEA22010EE926000EEA22D0CDEFFFB8
:104E1000140E0D01CE5D02E20D01CE2B0D01D06B03
:104E2000D16B020EE15C02E2E16AE552E16EE5520D
:104E3000E7CFD9FF1200D9CFE6FFE1CFD9FF0D01AF
:104E4000CE510D01CD5D34E20D01CD51E96EEA6A1E
:104E5000D890E936EA36A30EE9260D0EEA22EF5085
:104E6000E66EFD0EDBCFE9FFFE0EDBCFEAFFE5527B
:104E7000E750EF6E0D01CD51E96EEA6AD890E93640
:104E8000EA36A30EE9260D0EEA22010EE926000EEF
:104E9000EA22EF50E66EFB0EDBCFE9FFFC0EDBCF24
:104EA000EAFFE552E750EF6E0D01CD2B010E02D067
:104EB000000E00D0E552E7CFD9FF12000D01CE6BF6
:104EC0000D01CD6B0D019E6B0D019F6B0D01A06B54
:104ED0000D01A1691200D9CFE6FFE1CFD9FFE6525B
:104EE000DF68010E146E8150800B01E0010E145C2E
:104EF00070E18150200B01E0010E166E8150040B11
:104F000001E0010EE824156E8150100B01E0010E46
:104F1000040DF3CF14F08150080B01E0010E080DD1
:104F2000F3501410151016100F0BDF6EDF500F0A20
:104F30004BE0010A46E0030A41E0010A3CE0070AAF
:104F400037E0010A32E0030A2EE0010A29E00F0AE5
:104F500024E0010A1FE0030A1AE0010A15E0070A2B
:104F600010E0010A0BE0030A06E0010A01E02FD07D
:104F7000050EDF6E2ED0060EDF6E2BD0090EDF6E13
:104F800028D00A0EDF6E25D0020EDF6E22D0010E71
:104F9000DF6E1FD0030EDF6E1CD0070EDF6E19D040
:104FA000040EDF6E16D0DF6A14D00B0EDF6E11D048
:104FB0000F0EDF6E0ED00C0EDF6E0BD0080EDF6E04
:104FC00008D00E0EDF6E05D00D0EDF6E02D0DF684A
:104FD00000D0FF0EDF5C06E10D01D2690D01CF6943
:104FE000000E18D00D01D251DF5C10E10D01CF5140
:104FF000DF5C0CE0FD0EDBCFE9FFFE0EDBCFEAFF4E
:10500000DFCFEFFFDFCFCFFD010E04D0DFCFD2FD2A
:0E501000000E00D0E552E552E7CFD9FF1200A6
:02501E00DACFE7
:10502000E4FFE2CFDAFFE9CFE4FFEACFE4FFF6CF17
:10503000E4FFF7CFE4FFF5CFE4FFF3CFE4FFF4CFD5
:10504000E4FFFACFE4FF00EE00F0140EE80403E3FF
:10505000EECFE4FFFBD700EE14F0040EE80403E308
:10506000EECFE4FFFBD7E652F2940E010E2B000EBA
:105070000F230E01102B000E11230E01122B000E18
:1050800013230E01142B000E15230E01162B000EF8
:1050900017230E011807000E195B0E01193504E2E3
:1050A00018510008000E19550AE30E011A2B000EC4
:1050B0001B231C231D23C80E0E01186F196B0E0134
:1050C0000251031107E005D003CEFAFF0E01025191
:1050D000F96EFADF00CEE6FF01CEE6FF76EC2CF0AB
:1050E000E552E552E55200EE17F0040EE80403E342
:1050F000E5CFEDFFFBD700EE13F0140EE80403E359
:10510000E5CFEDFFFBD7E5CFFAFFE5CFF4FFE5CF25
:10511000F3FFE5CFF5FFE5CFF7FFE5CFF6FFE5CFEE
:10512000EAFFE5CFE9FFE5CFDAFF1100DACFE4FFD0
:10513000E2CFDAFFE9CFE4FFEACFE4FFF6CFE4FF06
:10514000F7CFE4FFF5CFE4FFF3CFE4FFF4CFE4FFC4
:10515000FACFE4FF00EE00F0140EE80403E3EECF14
:10516000E4FFFBD700EE14F0040EE80403E3EECFF7
:10517000E4FFFBD7E652D9CFE6FFE1CFD9FFE652F5
:1051800039EC2CF0DF6E0B018351832BEA6A860F1A
:10519000E96E0B0EEA22DFCFEFFF800E0B01835D7D
:1051A00002E30B01836B0B01852B9E9AE552E552BE
:1051B000E7CFD9FFE55200EE17F0040EE80403E351
:1051C000E5CFEDFFFBD700EE13F0140EE80403E388
:1051D000E5CFEDFFFBD7E5CFFAFFE5CFF4FFE5CF55
:1051E000F3FFE5CFF5FFE5CFF7FFE5CFF6FFE5CF1E
:0C51F000EAFFE5CFE9FFE5CFDAFF110090
:0451FC00D9CFE6FF22
:10520000E1CFD9FF030EE126010EDB6A020EDB6A55
:10521000F8EC2BF0000EE66EE66AE00EE66EB10EDC
:10522000E66E0EEC2AF0E552E552E552E55254ECFA
:1052300026F0DF6ADFCF14F014C0E6FFD30EE66E6F
:105240000D0EE66E00EC2AF0E552E552E552E7CF8E
:1052500014F0F3CF15F0F4CF16F01550145C000ED7
:1052600016540DE2DF50EA6AD30FE96E0D0EEA2202
:10527000EF50E66E06EC26F0E552DF2ADBD7BEECF7
:1052800026F021EC19F05FEC00F011EC00F00E01BB
:10529000640E0E5D000E0F5915E3D1EC2CF00E01DB
:1052A0000E6B0F6BD950010FE96EDACFEAFF020ED9
:1052B000D880EE54000EED5405E3010EDB2A020EF9
:1052C00001E3DB2A0E01080E105D000E115910E3F8
:1052D000010EDBCF14F0020EDBCF15F0020E145CD2
:1052E000000E155805E3CDEC26F00E01106B116B86
:1052F0000E01020E125D000E135905E382EC22F03E
:105300000E01126B136B0E01640E145D000E155925
:1053100005E399EC02F00E01146B156B0E01280EDB
:10532000165D000E175905E32FEC19F00E01166BF0
:10533000176B0400ACD7030EE15C02E2E16AE552B0
:0A534000E16EE552E7CFD9FF12003D
:06534A00FE0EE3CFE9FFB7
:10535000FF0EE3CFEAFFE9CFF3FFEACFF4FFFB0E46
:10536000E35003E1FC0EE35009E0FB0EE30602E22A
:10537000FC0EE306FD0EE350EE6EF1D71200D9CF1E
:10538000E6FFDACFE6FFFA0EE3CFD9FFFB0EE3CF5D
:10539000DAFFFC0EE3CFE9FFFD0EE3CFEAFFDE50BC
:1053A000EF5C02E1EE66FBD7F36EFF0EE3CFDAFFB0
:1053B000E552FF0EE3CFD9FFE552F3501200D9CFEB
:1053C000E6FFDACFE6FFFA0EE3CFD9FFFB0EE3CF1D
:1053D000DAFFFC0EE3CFE9FFFD0EE3CFEAFFE9CFF2
:1053E000F3FFEACFF4FFDECFEFFFEE66FCD7FF0E50
:1053F000E3CFDAFFE552FF0EE3CFD9FFE55212000B
:10540000FE0EE3CFE9FFFF0EE3CFEAFFF36AF46A93
:0C541000EE5203E0F34AF42AFBD712002E
:04541C00D9CFE6FFFF
:10542000E1CFD9FF9F0EE66E92EC2CF0E552FD0E17
:10543000DBCF00FEFE0EDBCF01FEFB0EDBCF02FE5C
:10544000FC0EDBCF03FEF194FD0EDBCFE6FFFE0E7C
:10545000DBCFE6FF76EC2CF0E552E552E552E7CFE4
:10546000D9FF1200D9CFE6FFE1CFD9FF040EE12624
:10547000F29A1ACEDFFF010E1BCEDBFF020E1CCE0E
:10548000DBFF030E1DCEDBFFF28ADECF06F0DECFA0
:1054900007F0DECF08F0DDCF09F0DD52DD5200D09D
:1054A000040EE15C02E2E16AE552E16EE552E7CF0B
:1054B000D9FF1200F29E0E011A6B1B6B1C6B1D6B49
:0454C000F28E120056
:0C54C4002C0EF66E000EF76E000EF86E57
:1054D0000D010900F550F16F0900F550F26F03E17D
:1054E000F16701D03DD00900F550EC6F0900F5508F
:1054F000ED6F0900F550EE6F09000900F550E96EF7
:105500000900F550EA6E090009000900F550EF6F37
:105510000900F550F06F09000900F6CFF3FDF7CF51
:10552000F4FDF8CFF5FDECCDF6FFEDCDF7FFEECDB8
:10553000F8FF0D01EF5302E1F05307E00900F550C9
:10554000EE6EEF07F8E2F007F9D7F3CDF6FFF4CDF2
:10555000F7FFF5CDF8FF0D01F107000EF25BBFD7A5
:02556000120037
:0E556200434C45415220495353554553004197
:10557000444D494E2041435449564954593A0050EC
:10558000415353574F52443A0050415254204E4FCA
:105590003A005341464554590053555045525649D7
:1055A000534F52005155414C495459004D415445B7
:1055B0005249414C00494E44555354455249414C7F
:1055C000004D41494E54454E414E434500444550DF
:1055D0004152544D454E543A0053544154494F4E54
:0255E0003A008F
:0E55E200D9CFE6FFDACFE6FFE1CFD9FFE2CF67
:1055F000DAFFE652DF6AFD0EDBCF15F015C014F0BE
:10560000030E1514AA6EFF0EE76EFC0EDBCF14F02E
:10561000E7501416156A1450A96EFB0EDB50A86EE5
:10562000A69EA69CA684F250800B01E0010EDF6EC0
:10563000F29E550EA76EAA0EA76EA682A6B2FED740
:10564000DF50E8B0F28EE8A0F29EA694E552E55253
:0A565000E5CFDAFFE7CFD9FF120023
:06565A00D9CFE6FFDACF14
:10566000E6FFE1CFD9FFE2CFDAFF726A716AFD0E81
:10567000DBB07288DBA202D0728C718CDBB4728ECC
:10568000DBA602D0718801D0718ADBA802D07284B7
:1056900001D07294DBBA7186DBAC02D0A38A01D050
:1056A000A39ADBAE02D0A38801D0A398FB0EDB50F7
:1056B000756EFC0EDBCF15F015C014F0156A145092
:1056C000766E728A718EE552E5CFDAFFE7CFD9FFA9
:0256D0001200C6
:0E56D200D9CFE6FFDACFE6FFE1CFD9FFE2CF76
:1056E000DAFFAC6AAB6AFD0EDBB0AC88DBA202D09D
:1056F000AC8CAB8CDBB4AC8EDBA602D0AB8801D01B
:10570000AB8ADBB8AC84DBBAAB86DBAC02D09D8A5B
:1057100001D09D9ADBAE02D09D8801D09D98FB0EF2
:10572000DB50AF6EFC0EDBCF15F015C014F0156A20
:105730001450B06EAC8AAB8EE552E5CFDAFFE7CFFE
:04574000D9FF12007B
:0C574400D9CFE6FFDACFE6FFE1CFD9FFB6
:10575000E2CFDAFFFC0EDBCF14F0FD0EDBCF15F04D
:1057600015C014F0156A030E1414AA6EFF0EE76E2E
:10577000FC0EDBCF14F0FD0EDBCF15F0E750141656
:10578000156A1450A96EA69CA69EA6800000000073
:10579000A85000D0E552E5CFDAFFE7CFD9FF1200DD
:1057A000312D312D31324142433233444546330BA2
:1057B0000B0B0B0B3447484934354A4B4C35364DAF
:1057C0004E4F360C0C0C0C0C37505152533854556C
:1057D0005638395758595A08080808082A2A2A2AD0
:1057E0002A302030203013131313130A0A0A0A0A2E
:1057F000C26A0F01386B0F01396B0F013A6B0F0151
:105800003B6B0F013C6B700ED36E96908490949C12
:10581000948E959E959C959A95989596959495922B
:1058200081689296809692908090929480949292C1
:045830008092120050
:0C583400D9CFE6FFDACFE6FFE1CFD9FFC5
:10584000E2CFDAFFE652F20E0D01F81771AC03D089
:10585000F89171B0F88171B4F88571B2F88774501D
:10586000DF6EDF50E552E552E5CFDAFFE7CFD9FF33
:02587000120024
:0E587200D9CFE6FFDACFE6FFE1CFD9FFE2CFD4
:10588000DAFFE652F20E0D01F917ABAC03D0F99135
:10589000ABB0F981ABB4F985ABB2F987AE50DF6E2E
:1058A000DF50E552E552E5CFDAFFE7CFD9FF12002E
:1058B00008C012F008500D02F4CF07F0F3CF06F045
:1058C00009500E02F4CF09F0F3CF08F00D02F350A7
:1058D0000726F4500822E86A092212500E02F350FB
:0C58E0000726F4500822E86A0922000C98
:0458EC00D9CFE6FF2B
:1058F000DACFE6FFE1CFD9FFE2CFDAFFE652E65298
:10590000FC0EDBCFDEFFDBCFDDFF010EDB50D76E01
:10591000DF50D66EE552E552E552E5CFDAFFE7CF2C
:04592000D9FF120099
:0C592400D9CFE6FFDACFE6FFE1CFD9FFD4
:10593000E2CFDAFFFD0EDB507F0BD56ED76AD66A59
:10594000F294FD0EDBAE02D0F28A01D0F29AD58E2F
:0C595000E552E5CFDAFFE7CFD9FF1200E7
:04595C00FF0EE35007
:10596000186E480E01D04C0EE76EE72EFED7E76AA0
:0C597000E72EFED7182EF7D7000012001B
:04597C00380EF36E80
:1059800000EE00F00F0E01D81200EA6002D0EE6ABD
:0C599000FCD7F350E9601200EE6AFCD76F
:04599C000D01FB6B93
:1059A00012000D01FB0504E10D01FB6B849004D096
:0A59B0000D01010EFB6F8480120050
:0659BA0010EE60F020EE8B
:1059C00060F0F86A019C62EC2AF0FFEC2CF0FEEC2F
:0659D00028F0FBD71200D5
:0A59D600FF0EE350E84E120000003F
:0C59E00000D000D000D0E82EFAD7120052
:0459EC002020202037
:0D59F000202020202020202020202020002A
:0159FD0000A9
:0259FE00120095
:105A00000000000000000000000000000000000096
:105A10000000000000000000000000000000000086
:105A200000000000FF000000000000000000000077
:105A30000000000000000000000000000000000066
:105A40000000000000000000000000000000000056
