:020000040000FA
:06000000E3EF26F0120000
:020006002300D5
:08000800F2A402D030EF23F056
:0A0010009EAA02D0D5EF20F01200E6
:06001A000A00755700000A
:100020009A0100001E00000073570000BB01000091
:100030000200000070570000B8010000030000003B
:100040004E570000000F0000220000004357000040
:10005000220F00000B000000AF560000000C000053
:100060009400000095520000000200001A040000F5
:10007000104F000000070000850300008A4E0000BA
:10008000000D000086000000024E0000000100008C
:0400900088000000E4
:0C009400D9CFE6FFE1CFD9FF0A0EE1262C
:1000A000050EDB6A060EDB6A070EDB6A080EDB6AEA
:1000B000090EDB6A0201036B046B056B066B020120
:1000C000076B086B096B0A6B0701046BDE6ADD6A5C
:1000D000DECF14F0DDCF15F0200E145C000E1558A5
:1000E00001E39ED0DECF14F0DDCF15F0050ED890E1
:1000F00014361536E806FBE1170E1426020E1522FB
:10010000030E14C0DBFF040E15C0DBFF020EDB6A1A
:10011000200EF36E020EDBCFF4FFF350F45C35E2F9
:10012000FAEC26F00400020EDB50166E176A200E61
:10013000086E096ADECF0DF0DDCF0EF053EC26F02D
:1001400006501624146E07501720156E14C0E6FFD3
:1001500015C0E6FFE2EC25F0E552E552E66E020E30
:10016000DB50E76E030EDBCFE9FF040EDBCFEAFFC7
:10017000E750E926000EEA22E552E750EF6EFAEC6E
:1001800026F00400020EDB2AC3D7DECFE9FFDDCF65
:10019000EAFF050ED890E936EA36E806FBE1170ECD
:1001A000E926020EEA221E0EE926000EEA22EF04DC
:1001B00002E10201012BDECFE9FFDDCFEAFF050EF0
:1001C000D890E936EA36E806FBE1170EE926020E7A
:1001D000EA221E0EE926000EEA22EF50030802E191
:1001E0000201022BDECFE9FFDDCFEAFF050ED8903A
:1001F000E936EA36E806FBE1170EE926020EEA22A6
:100200001F0EE926000EEA22EF0405E1010EF36E4F
:10021000050EF3CFDBFFDF2A010E01E3DB2A58D7FF
:1002200002010251000806E2010EF36E080EF3CF40
:10023000DBFF0FD002010151000806E2010EF36E50
:10024000070EF3CFDBFF05D0010EF36E060EF3CFE2
:10025000DBFF050EDB0405E1010EF36E090EF3CFA3
:10026000DBFF0601060E196FFAEC26F00400E66AC1
:10027000E66AE66AE66A22EC11F0E552E552E552DA
:10028000E55231D80601010E176F090EDBCFE6FFEC
:10029000080EDBCFE6FF070EDBCFE6FF060EDBCF57
:1002A000E6FF22EC11F0E552E552E552E552380E38
:1002B000E66E270EE66EDD0EE66ECC0EE66EBB0E2B
:1002C000E66EAA0EE66EC2EC1EF0146E060EE15E3D
:1002D00014500A0EE15C02E2E16AE552E16EE55279
:1002E000E7CFD9FF1200D9CFE6FFE1CFD9FF050E46
:1002F000E126DF6A010EDB6A020EDB6A030EDB6AAF
:1003000002010251000808E2030E006F010EF36EB5
:10031000020EF3CFDBFF0DD00151000805E2010E04
:10032000006FDE52DD6E05D0006B010EDF6E030E36
:10033000DB6A040EDB6A200EF36E040EDBCFF4FFE3
:10034000F350F45C1AE2040EDB50200DF3CFE9FF0A
:10035000F4CFEAFF170EE926020EEA221F0EE92665
:10036000000EEA22EF0406E1010EF36E030EF3CF56
:10037000DBFF03D0040EDB2ADED7030EDBCFE6FF64
:10038000020EDBCFE6FF010EDBCFE6FFDFCFE6FF9D
:1003900022EC11F0E552E552E552E552050EE15C22
:1003A00002E2E16AE552E16EE552E7CFD9FF1200C1
:1003B000D9CFE6FFE1CFD9FF050EE126DF6A010EB6
:1003C000DB6A020EDB6A030EDB6A020102510008DF
:1003D00008E2030E006F010EF36E020EF3CFDBFF97
:1003E0000DD00151000805E2010E006FDE52DD6EF6
:1003F00005D0006B010EDF6E030EDB6A030EDBCF50
:10040000E6FF020EDBCFE6FF010EDBCFE6FFDFCF1C
:10041000E6FF22EC11F0E552E552E552E552060105
:10042000010E176F146E050EE15C03E200D0E16A65
:10043000E552E16E1450E552E7CFD9FF1200D9CF53
:10044000E6FFE1CFD9FF050EE126DF6A010EDB6A88
:10045000020EDB6A030EDB6AFD0EDBCFE6FFFE0E4B
:10046000DBCFE6FF120EE66E020EE66E12EC24F013
:10047000E552E552E552E552000902E0000E1FD0B8
:10048000030EDBCFE6FF020EDBCFE6FF010EDBCF74
:10049000E6FFDFCFE6FF22EC11F0E552E552E55230
:1004A000E552FB0EDBCFE6FFFC0EDBCFE6FFD2EC26
:1004B00010F0E552E5520601176B010E00D0146EE4
:1004C000050EE15C02E2E16AE552E16E1450E5528C
:1004D000E7CFD9FF1200D9CFE6FFE1CFD9FF090E50
:1004E000E126010EF36E080EF3CFDBFFC6EC23F01E
:1004F00006C007F207C008F208C009F209C00AF2F4
:10050000030EE96E020EEA6EEE50020107190CE1CD
:10051000EE500201081908E1EE500201091904E148
:10052000EE5002010A1900E101E1BBD007C203F25B
:1005300008C204F209C205F20AC206F2DF6A200EFE
:10054000DF5C01E3A4D0DF50200DF3CFE9FFF4CF4F
:10055000EAFF170EE926020EEA221E0EE926000E19
:10056000EA22EF0401E091D0DF50200DF3CFE9FF44
:10057000F4CFEAFF170EE926020EEA221C0EE92646
:10058000000EEA22EE06000EED5ADF50200DF3CFEA
:10059000E9FFF4CFEAFF170EE926020EEA221C0E4D
:1005A000E926000EEA22E9CF14F0EACF15F0010E99
:1005B00014C0DBFF020E15C0DBFF010EDBCFE9FF2D
:1005C000020EDBCFEAFF030EEFCFDBFF200EDF02D0
:1005D000F3501C0F146E040E14C0DBFF050EDB6A13
:1005E000060EDB6A070EDB6A010EDBCFE9FF020EA7
:1005F000DBCFEAFFEF50E66E200EDF02F3501C0F58
:10060000E66EE66A6DEC25F0E552E552E552FAEC4D
:1006100026F00400010EE76E010EDBCFE9FF020EAB
:10062000DBCFEAFFE750E926000EEA22030EEFCF08
:10063000DBFF200EDF02F3501C0F010F146E040EBF
:1006400014C0DBFF050EDB6A060EDB6A070EDB6AF1
:10065000010EE76E010EDBCFE9FF020EDBCFEAFFF2
:10066000E750E926000EEA22EF50E66E200EDF0288
:10067000F3501C0F010FE66EE66A6DEC25F0E552B3
:10068000E552E552FAEC26F00400DF2A58D7F4ECE4
:1006900011F0010806E18A860201015102E18A98FF
:1006A0008A9A090EE15C02E2E16AE552E16EE552E6
:1006B000E7CFD9FF1200D9CFE6FFE1CFD9FF040E73
:1006C000E126FD0EDBCFE9FFFE0EDBCFEAFF200EB9
:1006D000E926000EEA22EF28DF6E010EDB6A020E29
:1006E000DB6A200EDF5C01E3DF6AFD0EDBCFE9FF92
:1006F000FE0EDBCFEAFF200EE926000EEA22EF68AD
:10070000030EDB6A200EF36E030EDBCFF4FFF35013
:10071000F45C01E3C4D3DF501F0BDF6EDF50200D0C
:10072000F3CFE9FFF4CFEAFF170EE926020EEA2223
:100730001E0EE926000EEA22EF5010E0DF50200DD9
:10074000F3CFE9FFF4CFEAFF170EE926020EEA2203
:100750001F0EE926000EEA22EF5004E1030EDB2A09
:10076000DF2AD0D7FD0EDBCFE9FFFE0EDBCFEAFF9D
:10077000E9CF14F0EACF15F0010EDBCFF3FFDB2A4F
:10078000F3500F011424E96E000E1520EA6E530E8B
:10079000EF6EFD0EDBCFE9FFFE0EDBCFEAFFE9CF08
:1007A00014F0EACF15F0010EDBCFF3FFDB2AF35094
:1007B0001424E96E000E1520EA6E540EEF6EFD0E45
:1007C000DBCFE9FFFE0EDBCFEAFFE9CF14F0EACF83
:1007D00015F0010EDBCFF3FFDB2AF3501424E96E92
:1007E000000E1520EA6E4E0EEF6EFD0EDBCFE9FF18
:1007F000FE0EDBCFEAFFE9CF14F0EACF15F0010ED1
:10080000DBCFF3FFDB2AF3501424E96E000E152032
:10081000EA6E3A0EEF6EDF50200DF3CFE9FFF4CF12
:10082000EAFF170EE926020EEA22E9CF16F0EACF18
:1008300017F0020EDBCFF3FFDB2AF3501624E96E2C
:10084000000E1720EA6EEF50E66EFD0EDBCFE9FFDB
:10085000FE0EDBCFEAFFE9CF14F0EACF15F0010E70
:10086000DBCFF3FFDB2AF3501424E96E000E1520D2
:10087000EA6EE552E750EF6EDF50200DF3CFE9FF4F
:10088000F4CFEAFF170EE926020EEA22E9CF16F0AE
:10089000EACF17F0020EDBCFF3FFDB2AF35016246A
:1008A000E96E000E1720EA6EEF50E66EFD0EDBCF0C
:1008B000E9FFFE0EDBCFEAFFE9CF14F0EACF15F037
:1008C000010EDBCFF3FFDB2AF3501424E96E000E98
:1008D0001520EA6EE552E750EF6EFD0EDBCFE9FF23
:1008E000FE0EDBCFEAFFE9CF14F0EACF15F0010EE0
:1008F000DBCFF3FFDB2AF3501424E96E000E152042
:10090000EA6E3B0EEF6EDF50200DF3CFE9FFF4CF20
:10091000EAFF170EE926020EEA22E9CF14F0EACF29
:1009200015F0020EDB501424E96E000E1520EA6E5D
:10093000EF50340A01E1AED1070A01E194D1010A76
:1009400001E1E0D0030A01E040D2FD0EDBCFE9FF78
:10095000FE0EDBCFEAFFE9CF14F0EACF15F0010E6F
:10096000DBCFF3FFDB2AF3501424E96E000E1520D1
:10097000EA6E420EEF6EFD0EDBCFE9FFFE0EDBCF1F
:10098000EAFFE9CF14F0EACF15F0010EDBCFF3FF59
:10099000DB2AF3501424E96E000E1520EA6E520E85
:1009A000EF6EFD0EDBCFE9FFFE0EDBCFEAFFE9CFF6
:1009B00014F0EACF15F0010EDBCFF3FFDB2AF35082
:1009C0001424E96E000E1520EA6E450EEF6EFD0E42
:1009D000DBCFE9FFFE0EDBCFEAFFE9CF14F0EACF71
:1009E00015F0010EDBCFF3FFDB2AF3501424E96E80
:1009F000000E1520EA6E410EEF6EFD0EDBCFE9FF13
:100A0000FE0EDBCFEAFFE9CF14F0EACF15F0010EBE
:100A1000DBCFF3FFDB2AF3501424E96E000E152020
:100A2000EA6E4B0EEF6EFD0EDBCFE9FFFE0EDBCF65
:100A3000EAFFE9CF14F0EACF15F0010EDBCFF3FFA8
:100A4000DB2AF3501424E96E000E1520EA6E440EE2
:100A5000EF6EFD0EDBCFE9FFFE0EDBCFEAFFE9CF45
:100A600014F0EACF15F0010EDBCFF3FFDB2AF350D1
:100A70001424E96E000E1520EA6E4F0EEF6EFD0E87
:100A8000DBCFE9FFFE0EDBCFEAFFE9CF14F0EACFC0
:100A900015F0010EDBCFF3FFDB2AF3501424E96ECF
:100AA000000E1520EA6E570EEF6EFD0EDBCFE9FF4C
:100AB000FE0EDBCFEAFFE9CF14F0EACF15F0010E0E
:100AC000DBCFF3FFDB2AF3501424E96E000E152070
:100AD000EA6E4E0EEF6EFD0EDBCFE9FFFE0EDBCFB2
:100AE000EAFFE9CF14F0EACF15F0010EDBCFF3FFF8
:100AF000DB2AF3501424E96E000E1520EA6E3B0E3B
:100B0000EF6E63D1FD0EDBCFE9FFFE0EDBCFEAFF18
:100B1000E9CF14F0EACF15F0010EDBCFF3FFDB2AAB
:100B2000F3501424E96E000E1520EA6E510EEF6E9C
:100B3000FD0EDBCFE9FFFE0EDBCFEAFFE9CF14F0BD
:100B4000EACF15F0010EDBCFF3FFDB2AF3501424BC
:100B5000E96E000E1520EA6E550EEF6EFD0EDBCF2E
:100B6000E9FFFE0EDBCFEAFFE9CF14F0EACF15F084
:100B7000010EDBCFF3FFDB2AF3501424E96E000EE5
:100B80001520EA6E410EEF6EFD0EDBCFE9FFFE0E83
:100B9000DBCFEAFFE9CF14F0EACF15F0010EDBCF8F
:100BA000F3FFDB2AF3501424E96E000E1520EA6EE1
:100BB0004C0EEF6EFD0EDBCFE9FFFE0EDBCFEAFF42
:100BC000E9CF14F0EACF15F0010EDBCFF3FFDB2AFB
:100BD000F3501424E96E000E1520EA6E490EEF6EF4
:100BE000FD0EDBCFE9FFFE0EDBCFEAFFE9CF14F00D
:100BF000EACF15F0010EDBCFF3FFDB2AF35014240C
:100C0000E96E000E1520EA6E540EEF6EFD0EDBCF7E
:100C1000E9FFFE0EDBCFEAFFE9CF14F0EACF15F0D3
:100C2000010EDBCFF3FFDB2AF3501424E96E000E34
:100C30001520EA6E590EEF6EFD0EDBCFE9FFFE0EBA
:100C4000DBCFEAFFE9CF14F0EACF15F0010EDBCFDE
:100C5000F3FFDB2AF3501424E96E000E1520EA6E30
:100C60003B0EEF6EB2D0FD0EDBCFE9FFFE0EDBCF09
:100C7000EAFFE9CF14F0EACF15F0010EDBCFF3FF66
:100C8000DB2AF3501424E96E000E1520EA6E230EC1
:100C9000EF6E9BD0FD0EDBCFE9FFFE0EDBCFEAFF50
:100CA000E9CF14F0EACF15F0010EDBCFF3FFDB2A1A
:100CB000F3501424E96E000E1520EA6E4F0EEF6E0D
:100CC000FD0EDBCFE9FFFE0EDBCFEAFFE9CF14F02C
:100CD000EACF15F0010EDBCFF3FFDB2AF35014242B
:100CE000E96E000E1520EA6E540EEF6EFD0EDBCF9E
:100CF000E9FFFE0EDBCFEAFFE9CF14F0EACF15F0F3
:100D0000010EDBCFF3FFDB2AF3501424E96E000E53
:100D10001520EA6E480EEF6EFD0EDBCFE9FFFE0EEA
:100D2000DBCFEAFFE9CF14F0EACF15F0010EDBCFFD
:100D3000F3FFDB2AF3501424E96E000E1520EA6E4F
:100D4000450EEF6EFD0EDBCFE9FFFE0EDBCFEAFFB7
:100D5000E9CF14F0EACF15F0010EDBCFF3FFDB2A69
:100D6000F3501424E96E000E1520EA6E520EEF6E59
:100D7000FD0EDBCFE9FFFE0EDBCFEAFFE9CF14F07B
:100D8000EACF15F0010EDBCFF3FFDB2AF35014247A
:100D9000E96E000E1520EA6E530EEF6EFD0EDBCFEE
:100DA000E9FFFE0EDBCFEAFFE9CF14F0EACF15F042
:100DB000010EDBCFF3FFDB2AF3501424E96E000EA3
:100DC0001520EA6E3B0EEF6E00D0020EDB2ADF50DC
:100DD000200DF3CFE9FFF4CFEAFF170EE926020E4C
:100DE000EA22E9CF14F0EACF15F0020EDB5014240A
:100DF000E96E000E1520EA6EEF5030E0DF50200D56
:100E0000F3CFE9FFF4CFEAFF170EE926020EEA223C
:100E1000E9CF16F0EACF17F0020EDB501624E96E88
:100E2000000E1720EA6EEF50E66EFD0EDBCFE9FFF5
:100E3000FE0EDBCFEAFFE9CF14F0EACF15F0010E8A
:100E4000DB501424E96E000E1520EA6EE552E750DF
:100E5000EF6E010EDB2A020EDB2AB9D7FD0EDBCFC7
:100E6000E9FFFE0EDBCFEAFFE9CF14F0EACF15F081
:100E7000010EDB501424E96E000E1520EA6EEF6AB5
:100E8000DFCF18F6FD0EDBCFE9FFFE0EDBCFEAFF6A
:100E9000200EE926000EEA2218C6EFFF00D0040E4D
:100EA000E15C02E2E16AE552E16EE552E7CFD9FF8B
:100EB0001200D9CFE6FFE1CFD9FF040EE126FD0EE7
:100EC000DBCFE9FFFE0EDBCFEAFF200EE926000EA6
:100ED000EA22EF28DF6E010EDB6A020EDB6A200ECB
:100EE000DF5C01E3DF6AFD0EDBCFE9FFFE0EDBCF47
:100EF000EAFF200EE926000EEA22EF68030EDB6A05
:100F0000200EF36E030EDBCFF4FFF350F45C01E32D
:100F1000C4D3DF501F0BDF6EDF50200DF3CFE9FF8E
:100F2000F4CFEAFF170EE926020EEA221E0EE9268A
:100F3000000EEA22EF5010E0DF50200DF3CFE9FF62
:100F4000F4CFEAFF170EE926020EEA221F0EE92669
:100F5000000EEA22EF0404E1030EDB2ADF2AD0D7D9
:100F6000FD0EDBCFE9FFFE0EDBCFEAFFE9CF14F089
:100F7000EACF15F0010EDBCFF3FFDB2AF3500F01B0
:100F80001424E96E000E1520EA6E530EEF6EFD0E6E
:100F9000DBCFE9FFFE0EDBCFEAFFE9CF14F0EACFAB
:100FA00015F0010EDBCFF3FFDB2AF3501424E96EBA
:100FB000000E1520EA6E540EEF6EFD0EDBCFE9FF3A
:100FC000FE0EDBCFEAFFE9CF14F0EACF15F0010EF9
:100FD000DBCFF3FFDB2AF3501424E96E000E15205B
:100FE000EA6E4E0EEF6EFD0EDBCFE9FFFE0EDBCF9D
:100FF000EAFFE9CF14F0EACF15F0010EDBCFF3FFE3
:10100000DB2AF3501424E96E000E1520EA6E3A0E26
:10101000EF6EDF50200DF3CFE9FFF4CFEAFF170E9C
:10102000E926020EEA22E9CF16F0EACF17F0020E07
:10103000DBCFF3FFDB2AF3501624E96E000E1720F6
:10104000EA6EEF50E66EFD0EDBCFE9FFFE0EDBCF62
:10105000EAFFE9CF14F0EACF15F0010EDBCFF3FF82
:10106000DB2AF3501424E96E000E1520EA6EE552D7
:10107000E750EF6EDF50200DF3CFE9FFF4CFEAFF2A
:10108000170EE926020EEA22E9CF16F0EACF17F092
:10109000020EDBCFF3FFDB2AF3501624E96E000EBD
:1010A0001720EA6EEF50E66EFD0EDBCFE9FFFE0E75
:1010B000DBCFEAFFE9CF14F0EACF15F0010EDBCF6A
:1010C000F3FFDB2AF3501424E96E000E1520EA6EBC
:1010D000E552E750EF6EFD0EDBCFE9FFFE0EDBCFF2
:1010E000EAFFE9CF14F0EACF15F0010EDBCFF3FFF2
:1010F000DB2AF3501424E96E000E1520EA6E3B0E35
:10110000EF6EDF50200DF3CFE9FFF4CFEAFF170EAB
:10111000E926020EEA22E9CF14F0EACF15F0020E1A
:10112000DB501424E96E000E1520EA6EEF50340AED
:1011300001E1AED1070A01E194D1010A01E1E0D059
:10114000030A01E040D2FD0EDBCFE9FFFE0EDBCF4C
:10115000EAFFE9CF14F0EACF15F0010EDBCFF3FF81
:10116000DB2AF3501424E96E000E1520EA6E420EBD
:10117000EF6EFD0EDBCFE9FFFE0EDBCFEAFFE9CF1E
:1011800014F0EACF15F0010EDBCFF3FFDB2AF350AA
:101190001424E96E000E1520EA6E520EEF6EFD0E5D
:1011A000DBCFE9FFFE0EDBCFEAFFE9CF14F0EACF99
:1011B00015F0010EDBCFF3FFDB2AF3501424E96EA8
:1011C000000E1520EA6E450EEF6EFD0EDBCFE9FF37
:1011D000FE0EDBCFEAFFE9CF14F0EACF15F0010EE7
:1011E000DBCFF3FFDB2AF3501424E96E000E152049
:1011F000EA6E410EEF6EFD0EDBCFE9FFFE0EDBCF98
:10120000EAFFE9CF14F0EACF15F0010EDBCFF3FFD0
:10121000DB2AF3501424E96E000E1520EA6E4B0E03
:10122000EF6EFD0EDBCFE9FFFE0EDBCFEAFFE9CF6D
:1012300014F0EACF15F0010EDBCFF3FFDB2AF350F9
:101240001424E96E000E1520EA6E440EEF6EFD0EBA
:10125000DBCFE9FFFE0EDBCFEAFFE9CF14F0EACFE8
:1012600015F0010EDBCFF3FFDB2AF3501424E96EF7
:10127000000E1520EA6E4F0EEF6EFD0EDBCFE9FF7C
:10128000FE0EDBCFEAFFE9CF14F0EACF15F0010E36
:10129000DBCFF3FFDB2AF3501424E96E000E152098
:1012A000EA6E570EEF6EFD0EDBCFE9FFFE0EDBCFD1
:1012B000EAFFE9CF14F0EACF15F0010EDBCFF3FF20
:1012C000DB2AF3501424E96E000E1520EA6E4E0E50
:1012D000EF6EFD0EDBCFE9FFFE0EDBCFEAFFE9CFBD
:1012E00014F0EACF15F0010EDBCFF3FFDB2AF35049
:1012F0001424E96E000E1520EA6E3B0EEF6E63D1EA
:10130000FD0EDBCFE9FFFE0EDBCFEAFFE9CF14F0E5
:10131000EACF15F0010EDBCFF3FFDB2AF3501424E4
:10132000E96E000E1520EA6E510EEF6EFD0EDBCF5A
:10133000E9FFFE0EDBCFEAFFE9CF14F0EACF15F0AC
:10134000010EDBCFF3FFDB2AF3501424E96E000E0D
:101350001520EA6E550EEF6EFD0EDBCFE9FFFE0E97
:10136000DBCFEAFFE9CF14F0EACF15F0010EDBCFB7
:10137000F3FFDB2AF3501424E96E000E1520EA6E09
:10138000410EEF6EFD0EDBCFE9FFFE0EDBCFEAFF75
:10139000E9CF14F0EACF15F0010EDBCFF3FFDB2A23
:1013A000F3501424E96E000E1520EA6E4C0EEF6E19
:1013B000FD0EDBCFE9FFFE0EDBCFEAFFE9CF14F035
:1013C000EACF15F0010EDBCFF3FFDB2AF350142434
:1013D000E96E000E1520EA6E490EEF6EFD0EDBCFB2
:1013E000E9FFFE0EDBCFEAFFE9CF14F0EACF15F0FC
:1013F000010EDBCFF3FFDB2AF3501424E96E000E5D
:101400001520EA6E540EEF6EFD0EDBCFE9FFFE0EE7
:10141000DBCFEAFFE9CF14F0EACF15F0010EDBCF06
:10142000F3FFDB2AF3501424E96E000E1520EA6E58
:10143000590EEF6EFD0EDBCFE9FFFE0EDBCFEAFFAC
:10144000E9CF14F0EACF15F0010EDBCFF3FFDB2A72
:10145000F3501424E96E000E1520EA6E3B0EEF6E79
:10146000B2D0FD0EDBCFE9FFFE0EDBCFEAFFE9CF06
:1014700014F0EACF15F0010EDBCFF3FFDB2AF350B7
:101480001424E96E000E1520EA6E230EEF6E9BD039
:10149000FD0EDBCFE9FFFE0EDBCFEAFFE9CF14F054
:1014A000EACF15F0010EDBCFF3FFDB2AF350142453
:1014B000E96E000E1520EA6E4F0EEF6EFD0EDBCFCB
:1014C000E9FFFE0EDBCFEAFFE9CF14F0EACF15F01B
:1014D000010EDBCFF3FFDB2AF3501424E96E000E7C
:1014E0001520EA6E540EEF6EFD0EDBCFE9FFFE0E07
:1014F000DBCFEAFFE9CF14F0EACF15F0010EDBCF26
:10150000F3FFDB2AF3501424E96E000E1520EA6E77
:10151000480EEF6EFD0EDBCFE9FFFE0EDBCFEAFFDC
:10152000E9CF14F0EACF15F0010EDBCFF3FFDB2A91
:10153000F3501424E96E000E1520EA6E450EEF6E8E
:10154000FD0EDBCFE9FFFE0EDBCFEAFFE9CF14F0A3
:10155000EACF15F0010EDBCFF3FFDB2AF3501424A2
:10156000E96E000E1520EA6E520EEF6EFD0EDBCF17
:10157000E9FFFE0EDBCFEAFFE9CF14F0EACF15F06A
:10158000010EDBCFF3FFDB2AF3501424E96E000ECB
:101590001520EA6E530EEF6EFD0EDBCFE9FFFE0E57
:1015A000DBCFEAFFE9CF14F0EACF15F0010EDBCF75
:1015B000F3FFDB2AF3501424E96E000E1520EA6EC7
:1015C0003B0EEF6E00D0020EDB2ADF50200DF3CF72
:1015D000E9FFF4CFEAFF170EE926020EEA22E9CF6F
:1015E00014F0EACF15F0020EDB501424E96E000E61
:1015F0001520EA6EEF5030E0DF50200DF3CFE9FF09
:10160000F4CFEAFF170EE926020EEA22E9CF16F020
:10161000EACF17F0020EDB501624E96E000E1720F9
:10162000EA6EEF50E66EFD0EDBCFE9FFFE0EDBCF7C
:10163000EAFFE9CF14F0EACF15F0010EDB501424D5
:10164000E96E000E1520EA6EE552E750EF6E010ECE
:10165000DB2A020EDB2AB9D7FD0EDBCFE9FFFE0E37
:10166000DBCFEAFFE9CF14F0EACF15F0010EDB5033
:101670001424E96E000E1520EA6EEF6ADFCF18F62B
:10168000FD0EDBCFE9FFFE0EDBCFEAFF200EE926E1
:10169000000EEA2218C6EFFF00D0040EE15C02E261
:1016A000E16AE552E16EE552E7CFD9FF1200D9CFEA
:1016B000E6FFE1CFD9FF070EE126FE0EDB50200D3D
:1016C000F3CFE9FFF4CFEAFF170EE926020EEA2274
:1016D0001E0EE926000EEA22EF5033E0FE0EDB502C
:1016E000200DF3CFE9FFF4CFEAFF170EE926020E33
:1016F000EA22E9CF14F0EACF15F014C0E6FF15C0D6
:10170000E6FF050EDBCFE6FF060EDBCFE6FF12ECB1
:1017100024F0E552E552E552E552000912E1FE0ED1
:10172000DB50200DF3CFE9FFF4CFEAFF170EE926D7
:10173000020EEA221F0EE926000EEA22EF0401E162
:101740007ED1FE0EDB50200DF3CFE9FFF4CFEAFF90
:10175000170EE926020EEA22E9CF14F0EACF15F0BF
:10176000050E14C0DBFF060E15C0DBFF02010051A1
:10177000030A01E190D0020A01E048D1050EDBCF57
:10178000E6FF060EDBCFE6FF42EC11F0E552E55234
:10179000E76E020EE7CFDBFF020EDB50FF0801E130
:1017A00079D0050EDBCFE6FF060EDBCFE6FFD2ECED
:1017B00010F0E552E5521C0EE66EE66AE66A020E8D
:1017C000DB50200DF3CFE9FFF4CFEAFF170EE92637
:1017D000020EEA22E9CF14F0EACF15F014C0E6FFBA
:1017E00015C0E6FFF8EC23F0166E050EE15E16500C
:1017F0000400020EDB50200DF3CF14F0F4CF15F0EF
:10180000170E1426020E1522030E14C0DBFF040E61
:1018100015C0DBFF010EDB6A200EF36E010EDBCF7D
:10182000F4FFF350F45C25E2010EDB50E76E030E8B
:10183000DBCFE9FF040EDBCFEAFFE750E926000E1D
:10184000EA22EF50E66E010EDBCFE6FF020EDB5020
:10185000200DF350E552E724E66EE66A6DEC25F0C4
:10186000E552E552E552FAEC26F00400010EDB2ABF
:10187000D3D7020101510DE10201006BE66AE66A6D
:10188000E66A010EE66E22EC11F0E552E552E552F1
:10189000E552D5D0BCD0050EDBCFE6FF060EDBCF80
:1018A000E6FF42EC11F0E552E552E76E020EE7CF9B
:1018B000DBFF020EDB50FF0801E1A7D0050EDBCFF6
:1018C000E6FF060EDBCFE6FFD2EC10F0E552E55264
:1018D0001C0EE66EE66AE66A020EDB50200DF3CFC0
:1018E000E9FFF4CFEAFF170EE926020EEA22E9CF5C
:1018F00014F0EACF15F014C0E6FF15C0E6FFF8ECCF
:1019000023F0166E050EE15E16500400020EDB5049
:10191000200DF3CF14F0F4CF15F0170E1426020E9D
:101920001522030E14C0DBFF040E15C0DBFF010EF1
:10193000DB6A200EF36E010EDBCFF4FFF350F45C94
:1019400025E2010EDB50E76E030EDBCFE9FF040E4C
:10195000DBCFEAFFE750E926000EEA22EF50E66E01
:10196000010EDBCFE6FF020EDB50200DF350E552F7
:10197000E724E66EE66A6DEC25F0E552E552E552A5
:10198000FAEC26F00400010EDB2AD3D70201025143
:1019900020E1020101510EE10201006BE66AE66AF4
:1019A000E66A010EE66E22EC11F0E552E552E552D0
:1019B000E5520ED00201010E006FE66AE66A010EE2
:1019C000E66EE66A22EC11F0E552E552E552E55288
:1019D0001BD0020101510CE1E66A010EE66EE66AD7
:1019E000E66A22EC11F0E552E552E552E5520CD0E0
:1019F000E66A010EE66E010EE66EE66A22EC11F072
:101A0000E552E552E552E5521AD001D000D0DF6A26
:101A1000200EDF5C14E2DF50200DF3CFE9FFF4CF9E
:101A2000EAFF170EE926020EEA221F0EE926000E33
:101A3000EA22EF0402E18C8002D0DF2AE9D7070E08
:101A4000E15C02E2E16AE552E16EE552E7CFD9FFDF
:101A50001200D9CFE6FFE1CFD9FF050EE126DF6AFC
:101A6000200EDF5C33E2DF50200DF3CFE9FFF4CF2F
:101A7000EAFF170EE926020EEA221E0EE926000EE4
:101A8000EA22EF5021E0DF50200DF3CFE9FFF4CF41
:101A9000EAFF170EE926020EEA22E9CF14F0EACF98
:101AA00015F014C0E6FF15C0E6FFFD0EDBCFE6FF24
:101AB000FE0EDBCFE6FF12EC24F0E552E552E552D4
:101AC000E552000901E1DFD0DF2ACAD7DF6A200E24
:101AD000DF5C01E3D2D0DF50200DF3CFE9FFF4CF7C
:101AE000EAFF170EE926020EEA221E0EE926000E74
:101AF000EA22EF5001E0BFD0DF50200DF3CFE9FF25
:101B0000F4CFEAFF170EE926020EEA221E0EE9269E
:101B1000000EEA22010EEF6E060EF66E000EF76E54
:101B20000900F5CF14F00800F5CF15F0DF50200DB7
:101B3000F3CFE9FFF4CFEAFF170EE926020EEA22FF
:101B40001C0EE926000EEA2214C0EEFF15C0EDFFC0
:101B5000DF50200DF3CFE9FFF4CFEAFF170EE9269F
:101B6000020EEA221F0EE926000EEA22010EEF6E97
:101B7000FD0EDBCFE6FFFE0EDBCFE6FFDF50200DD4
:101B8000F3CFE9FFF4CFEAFF170EE926020EEA22AF
:101B9000E9CF14F0EACF15F014C0E6FF15C0E6FF58
:101BA00032EC24F0E552E552E552E552DF50200DCB
:101BB000F3CF14F0F4CF15F0170E1426020E1522F1
:101BC000030E14C0DBFF040E15C0DBFF010EDB6A41
:101BD000200EF36E010EDBCFF4FFF350F45C24E231
:101BE000010EDB50E76E030EDBCFE9FF040EDBCF07
:101BF000EAFFE750E926000EEA22EF50E66E010EFA
:101C0000DBCFE6FF200EDF02F350E552E724E66E5D
:101C1000E66A6DEC25F0E552E552E552FAEC26F065
:101C20000400010EDB2AD4D70201012B020102516C
:101C30000CE1010EE66EE66A010EE66EE66A02DB74
:101C4000E552E552E552E5520CD0010EE66E010E6A
:101C5000E66E010EE66EE66AF5DAE552E552E55209
:101C6000E552FD0EDBCFE6FFFE0EDBCFE6FF9ADA94
:101C7000E552E55202D0DF2A2AD70201025103E1E0
:101C80000201010E006F050EE15C02E2E16AE5521D
:101C9000E16EE552E7CFD9FF1200D9CFE6FFE1CFE1
:101CA000D9FF050EE126020EE76EFD0EDBCFE9FF40
:101CB000FE0EDBCFEAFFE750E926000EEA22EF50E6
:101CC00030080AE1FD0EDBCFE6FFFE0EDBCFE6FFBC
:101CD00069DAE552E5528AD1DF6A200EDF5C43E221
:101CE000DF50200DF3CFE9FFF4CFEAFF170EE9260E
:101CF000020EEA221E0EE926000EEA22EF5031E023
:101D0000DF50200DF3CFE9FFF4CFEAFF170EE926ED
:101D1000020EEA22E9CF14F0EACF15F014C0E6FF74
:101D200015C0E6FFFD0EDBCFE6FFFE0EDBCFE6FFC4
:101D300012EC24F0E552E552E552E552000911E1BA
:101D4000DF50200DF3CFE9FFF4CFEAFF170EE926AD
:101D5000020EEA221F0EE926000EEA22EF0401E13C
:101D600045D1DF2ABAD702010051030A01E18AD026
:101D7000020A01E03AD1DF6A200EDF5C01E381D084
:101D8000FD0EDBCFE6FFFE0EDBCFE6FF7BDAE55292
:101D9000E552E76E020EE7CFDBFF020EDB50FF08D5
:101DA0006EE01C0EE66EE66AE66A020EDB50200D5F
:101DB000F3CFE9FFF4CFEAFF170EE926020EEA227D
:101DC000E9CF14F0EACF15F014C0E6FF15C0E6FF26
:101DD000F8EC23F0166E050EE15E16500400020EBC
:101DE000DB50200DF3CF14F0F4CF15F0170E1426AE
:101DF000020E1522030E14C0DBFF040E15C0DBFF1C
:101E0000010EDB6A200EF36E010EDBCFF4FFF35000
:101E1000F45C25E2010EDB50E76E030EDBCFE9FF39
:101E2000040EDBCFEAFFE750E926000EEA22EF506E
:101E3000E66E010EDBCFE6FF020EDB50200DF35005
:101E4000E552E724E66EE66A6DEC25F0E552E552D0
:101E5000E552FAEC26F00400010EDB2AD3D702018A
:101E600001510CE10201006BE66AE66AE66A010EC6
:101E7000E66EE8D9E552E552E552E552B7D0DF2AE1
:101E80007BD7B4D0DF6A200EDF5C01E3ADD0FD0E5E
:101E9000DBCFE6FFFE0EDBCFE6FFF4D9E552E552DD
:101EA000E76E020EE7CFDBFF020EDB50FF0801E119
:101EB00099D01C0EE66EE66AE66A020EDB50200D33
:101EC000F3CFE9FFF4CFEAFF170EE926020EEA226C
:101ED000E9CF14F0EACF15F014C0E6FF15C0E6FF15
:101EE000F8EC23F0166E050EE15E16500400020EAB
:101EF000DB50200DF3CF14F0F4CF15F0170E14269D
:101F0000020E1522030E14C0DBFF040E15C0DBFF0A
:101F1000010EDB6A200EF36E010EDBCFF4FFF350EF
:101F2000F45C25E2010EDB50E76E030EDBCFE9FF28
:101F3000040EDBCFEAFFE750E926000EEA22EF505D
:101F4000E66E010EDBCFE6FF020EDB50200DF350F4
:101F5000E552E724E66EE66A6DEC25F0E552E552BF
:101F6000E552FAEC26F00400010EDB2AD3D7020179
:101F700002511EE1020101510DE10201006BE66A0E
:101F8000E66AE66A010EE66E5DD9E552E552E55273
:101F9000E5520DD00201010E006FE66AE66A010EFD
:101FA000E66EE66A4FD9E552E552E552E55219D0A0
:101FB000020101510BE1E66A010EE66EE66AE66A8D
:101FC00041D9E552E552E552E5520BD0E66A010EE1
:101FD000E66E010EE66EE66A35D9E552E552E55247
:101FE000E55204D0DF2A4FD701D000D0050EE15CC6
:101FF00002E2E16AE552E16EE552E7CFD9FF120055
:10200000D9CFE6FFE1CFD9FF020EE1260701045147
:10201000035D0BE1FD0EDBCFE9FFFE0EDBCFEAFF38
:10202000EE6AED6A010EDB6A2FD003511C0DF3CF6F
:1020300014F0F4CF15F0050E1426070E1522FD0E30
:10204000DBCFE9FFFE0EDBCFEAFF14C0EEFF15C0C9
:10205000EDFF03511C0DF3CF14F0F4CF15F0050E76
:102060001426070E152214C0E6FF15C0E6FF6CEC1F
:1020700024F0E552E552010EF3CFDBFF0701032BFD
:10208000200E035D01E3036B010EDB50146E020EA4
:10209000E15C03E200D0E16AE552E16E1450E552E2
:1020A000E7CFD9FF1200D9CFE6FFE1CFD9FF070173
:1020B000000502E1000E0AD0010E006FFE0EDBCF1C
:1020C00002F7FD0EDBCF01F7010E00D0E552E7CF9E
:1020D000D9FF1200D9CFE6FFE1CFD9FFE652FE0EBD
:1020E000DB50200DF3CFE9FFF4CFEAFF170EE9260E
:1020F000020EEA221F0EE926000EEA22EF6AFE0E09
:10210000DB50200DF3CFE9FFF4CFEAFF170EE926ED
:10211000020EEA22E9CF14F0EACF15F014C0E6FF70
:1021200015C0E6FF3FD8E552E552FE0EDB50200D0C
:10213000F3CFE9FFF4CFEAFF170EE926020EEA22F9
:102140001F0EE926000EEA22EF50E66EFE0EDB506F
:10215000200DF3501F0FE66EE66A6DEC25F0E55298
:10216000E552E552FAEC26F00400DF6A200EDF5C4F
:1021700013E2DF50200DF3CFE9FFF4CFEAFF170E93
:10218000E926020EEA221F0EE926000EEA22EF04DB
:1021900001E103D0DF2AEAD78C90E552E552E7CF80
:1021A000D9FF1200D9CFE6FFE1CFD9FFE652DF6AAF
:1021B000FD0EDBCFE9FFFE0EDBCFEAFFEF5024E0A0
:1021C000FD0EDBCFE9FFFE0EDBCFEAFFEF50E66E40
:1021D000070104511C0DF3CF14F0F4CF15F0050ED8
:1021E0001426070E1522DF500F011424E96E000E8D
:1021F0001520EA6EE552E750EF6EDF2AFD0EDB2A6E
:10220000FE0E01E3DB2AD4D7070104511C0DF3CFE6
:1022100014F0F4CF15F0050E1426070E1522DF502A
:102220000F011424E96E000E1520EA6EEF6A070113
:10223000042B200E045D01E3046BE552E552E7CF69
:10224000D9FF1200D9CFE6FFE1CFD9FFFE0EDB5058
:10225000E8B08A8AE8A08A9AFD0EDB50E8B08A8846
:10226000E8A08A98FC0EDB50E8B08A86E8A08A963F
:10227000FB0EDB50E8B08C80E8A08C90E552E7CFF5
:10228000D9FF1200D9CFE6FFE1CFD9FF040EE12636
:10229000DF6A200EDF5C01E399D0DF50200DF3CF21
:1022A000E9FFF4CFEAFF170EE926020EEA221E0E1E
:1022B000E926000EEA22EF5001E186D0DF50200D22
:1022C000F3CFE9FFF4CFEAFF170EE926020EEA2268
:1022D0001F0EE926000EEA22EF0476E0DF50200D03
:1022E000F3CFE9FFF4CFEAFF170EE926020EEA2248
:1022F000E9CF14F0EACF15F014C0E6FF15C0E6FFF1
:10230000FD0EDBCFE6FFFE0EDBCFE6FF12EC24F086
:10231000E552E552E552E552000956E1DF50200D45
:10232000F3CFE9FFF4CFEAFF170EE926020EEA2207
:102330001E0EE926000EEA22EF0403E10201010766
:1023400013D0DF50200DF3CFE9FFF4CFEAFF170ED3
:10235000E926020EEA221E0EE926000EEA22EF50BE
:10236000030802E102010207DF50200DF3CFE9FF6D
:10237000F4CFEAFF170EE926020EEA221E0EE92626
:10238000000EEA22EF6ADF50200DF3CFE9FFF4CF11
:10239000EAFF170EE926020EEA221C0EE926000EBD
:1023A000EA22EE6AED6ADF50200DF3CFE9FFF4CFA9
:1023B000EAFF170EE926020EEA221F0EE926000E9A
:1023C000EA22EF6ADF5004D0DF2A63D7FF0E00D085
:1023D000146E040EE15C02E2E16AE552E16E145013
:1023E000E552E7CFD9FF1200D9CFE6FFE1CFD9FF01
:1023F000020EE126010EDB6ADF6A200EDF5C5BE283
:10240000DF50200DF3CFE9FFF4CFEAFF170EE926E6
:10241000020EEA221E0EE926000EEA22EF0449E12E
:10242000DF50200DF3CFE9FFF4CFEAFF170EE926C6
:10243000020EEA221C0EE926000EEA22EE50ED10F2
:1024400038E10201022B02010107DF50200DF3CF1A
:10245000E9FFF4CFEAFF170EE926020EEA221E0E6C
:10246000E926000EEA22030EEF6EDF50200DF3CFB7
:10247000E9FFF4CFEAFF170EE926020EEA221E0E4C
:10248000E926000EEA22EF50E66E200EDF02F3503E
:102490001E0FE66EE66A6DEC25F0E552E552E55258
:1024A000FAEC26F004000201030E006FDE52010E6A
:1024B000DD6EDF2AA2D7010EDB5000D0146E020EB3
:1024C000E15C02E2E16AE552E16E1450E552E7CFC9
:1024D000D9FF1200D9CFE6FFE1CFD9FFE652DF6A7C
:1024E000200EDF5C41E2DF50200DF3CFE9FFF4CF97
:1024F000EAFF170EE926020EEA221E0EE926000E5A
:10250000EA22EF502FE0DF50200DF3CFE9FFF4CFA8
:10251000EAFF170EE926020EEA22E9CF14F0EACF0D
:1025200015F014C0E6FF15C0E6FFFD0EDBCFE6FF99
:10253000FE0EDBCFE6FF12EC24F0E552E552E55249
:10254000E55200090FE1DF50200DF3CFE9FFF4CF92
:10255000EAFF170EE926020EEA221F0EE926000EF8
:10256000EA22EF6ADF2ABCD7E552E552E7CFD9FF6E
:102570001200D9CFE6FFE1CFD9FFFD0EDBCFE6FF9A
:10258000FE0EDBCFE6FF0D0EE66E020EE66E12ECDF
:1025900024F0E552E552E552E552000902E0000E52
:1025A00002D0010E00D0E552E7CFD9FF1200D9CFFB
:1025B000E6FFE1CFD9FF020EE1260201006B020126
:1025C000016B0201026B0201036B046B056B066B6E
:1025D0000201076B086B096B0A6B0601186B070198
:1025E000046B0701036BDE6ADD6ADECF14F0DDCF1A
:1025F00015F0200E145C000E155860E2DECFE9FFE6
:10260000DDCFEAFF050ED890E936EA36E806FBE1B1
:10261000170EE926020EEA221E0EE926000EEA2215
:10262000EF6ADECFE9FFDDCFEAFF050ED890E9368D
:10263000EA36E806FBE1170EE926020EEA221C0E36
:10264000E926000EEA22EE6AED6ADECFE9FFDDCF71
:10265000EAFF050ED890E936EA36E806FBE1170EE8
:10266000E926020EEA221F0EE926000EEA22EF6A90
:102670001C0EE66EE66AE66ADECFE9FFDDCFEAFF12
:10268000050ED890E936EA36E806FBE1170EE92692
:10269000020EEA22E9CF14F0EACF15F014C0E6FFEB
:1026A00015C0E6FFF8EC23F0166E050EE15E16503D
:1026B0000400DF2A010E01E3DB2A97D7DE6ADD6A18
:1026C000DECF14F0DDCF15F0000E145C000E1558AF
:1026D00012E2E66ADECFE6FFDDCFE6FF6DEC25F025
:1026E000E552E552E552FAEC26F00400DF2A010E2D
:1026F00001E3DB2AE5D7060117050BE1E66AE66A86
:10270000E66A010EE66E9EDDE552E552E552E552BF
:1027100009D0E66AE66AE66AE66A94DDE552E552C1
:10272000E552E552020EE15C02E2E16AE552E16E39
:10273000E552E7CFD9FF1200D9CFE6FFE1CFD9FFAD
:10274000030EE126FD0EDBCFE9FFFE0EDBCFEAFF35
:10275000010EEFCFDBFF020EDB6A010EDB50A00A99
:1027600065E0010A57E0030A23E0220A0BE0020EAB
:10277000DB6AFB0EDBCFE9FFFC0EDBCFEAFF920E3C
:10278000EF6E5FD0F90EDBCFE6FFFA0EDBCFE6FF90
:1027900037DCE552E552E76E020EE7CFDBFFFB0EBA
:1027A000DBCFE9FFFC0EDBCFEAFF800EEF6E49D0F6
:1027B000010EE76EFD0EDBCF14F0FE0EDBCF15F041
:1027C000E7501426000E152214C0E6FF15C0E6FFE0
:1027D00081DEE552E552010EE76EFD0EDBCF14F00F
:1027E000FE0EDBCF15F0E7501426000E152214C0A4
:1027F000E6FF15C0E6FF4DEC0EF0E552E552FB0E8C
:10280000DBCFE9FFFC0EDBCFEAFFA20EEF6E020E7C
:10281000DB6A17D0CCDEFB0EDBCFE9FFFC0EDBCF93
:10282000EAFFA10EEF6E020EDB6A0BD0020EDB6A2E
:10283000FB0EDBCFE9FFFC0EDBCFEAFFA00EEF6E55
:1028400000D0020EDB50146E030EE15C03E200D0F8
:10285000E16AE552E16E1450E552E7CFD9FF12006C
:10286000080EE66E0CEC1EF0E5529FEC1BF0B2EC8D
:102870001BF00101030E006F020EE66EF1EC1BF07F
:10288000E5521200D9CFE6FFE1CFD9FF0E0EE126C7
:10289000DF68D950020FE66E000EDA20E66ED950DE
:1028A000030FE66E000EDA20E66E7DEC22F0E552B4
:1028B000E552E552E552000902E122EF19F0020E5D
:1028C000DBCFE6FF030EDBCFE6FF2CEC19F0E55281
:1028D000E552DF6EFF0EDF5C02E122EF19F001012D
:1028E00000510C0A02E108EF19F0070A01E1E6D3F2
:1028F000010A01E1C8D3070A01E18DD3050A01E10C
:1029000051D30F0A01E173D2010A01E138D2030A5F
:1029100001E1D3D1060A01E1E4D0010A01E18ED040
:10292000030A32E0010A02E022EF19F00B0EDF5C2D
:1029300029E1010EE66EF1EC1BF0E5529FEC1BF075
:10294000B2EC1BF000C101F101014551452BEA6ACF
:10295000250FE96E010EEA22390EEF6E4551452B27
:10296000EA6A250FE96E010EEA22390EEF6E455133
:10297000452BEA6A250FE96E010EEA22300EEF6E52
:10298000010E006F22EF19F0080EDF5C1CE12251EE
:1029900000080CE2DFCFE6FF1EEC1EF0E55201015D
:1029A00022074551020801E245070CD001510AE116
:1029B000E66AF1EC1BF0E5529FEC1BF0B2EC1BF069
:1029C00001C100F139D00A0EDF5C18E12251000884
:1029D00014E20C0EE66EF1EC1BF0E5529FEC1BF0DE
:1029E00001014551452BEA6A250FE96E010EEA22E5
:1029F000EF6A010E016F0B0E006F1ED02251EA6AC2
:102A0000020FE96E010EEA22DFCFEFFF2251EA6AE0
:102A1000020FE96E010EEA22EF50E66E1EEC1EF088
:102A2000E55201014551452BEA6A250FE96E010E79
:102A3000EA22DFCFEFFF222B22EF19F0080EDF5C36
:102A40001EE1225100080CE2DFCFE6FF1EEC1EF073
:102A5000E552010122074551020801E245070ED067
:102A6000030E015D0BE1020EE66EF1EC1BF0E55288
:102A70009FEC1BF0B2EC1BF001C100F131D00A0E4B
:102A8000DF5C10E1225100080CE20C0EE66EF1EC66
:102A90001BF0E5529FEC1BF00101020E016F0B0EC3
:102AA000006F1ED02251EA6A020FE96E010EEA227F
:102AB000DFCFEFFF2251EA6A020FE96E010EEA2230
:102AC000EF50E66E1EEC1EF0E55201014551452B1C
:102AD000EA6A250FE96E010EEA22DFCFEFFF222B13
:102AE000B1D3080EDF5C2BE1225100080CE2DFCFEE
:102AF000E6FF1EEC1EF0E5520101220745510008D9
:102B000001E245071BD0670EE66E010EE66E59EC3A
:102B100007F0E552E552FF0E0101875D0FE0670EF9
:102B2000E66E010EE66EC3EC1BF0E552E5529FEC3B
:102B30001BF0B2EC1BF001010D0E006FBDD0300E8A
:102B4000DF5C35E12251000816E22251EA6A020FE9
:102B5000E96E010EEA22DFCFEFFF2251EA6A020F8F
:102B6000E96E010EEA22EF50E66E1EEC1EF0E55211
:102B70000101222B1BD0460EE66E010EE66E5BECC9
:102B800003F0E552E552FF0E0101665D0FE0460ECF
:102B9000E66E010EE66EC3EC1BF0E552E5529FECCB
:102BA0001BF0B2EC1BF00101080E006F85D00B0E7C
:102BB000DF5C2CE1225129E1010EE66EF1EC1BF005
:102BC000E5529FEC1BF0B2EC1BF001014551452B87
:102BD000EA6A250FE96E010EEA22390EEF6E4551C1
:102BE000452BEA6A250FE96E010EEA22390EEF6ED7
:102BF0004551452BEA6A250FE96E010EEA22300E97
:102C0000EF6E00C101F1020E006F56D00C0EDF5CBA
:102C10001CE1460EE66E010EE66E5BEC03F0E5523B
:102C2000E552FF0E0101665D0FE0460EE66E010EF5
:102C3000E66EC3EC1BF0E552E5529FEC1BF0B2ECE4
:102C40001BF00101080E006F37D00A0EDF5C1FE198
:102C5000225100081BE226EC1BF000090DE1020ED8
:102C6000E66EF1EC1BF0E5529FEC1BF0B2EC1BF0B2
:102C70000101030E006F0AD0040EE66EF1EC1BF0AA
:102C8000E5529FEC1BF00101050E006F15D022519B
:102C9000EA6A020FE96E010EEA22DFCFEFFF22514E
:102CA000EA6A020FE96E010EEA22EF50E66E1EECB0
:102CB0001EF0E5520101222BC5D2080EDF5C0CE1AB
:102CC000020EE66EF1EC1BF0E5529FEC1BF0B2EC4D
:102CD0001BF00101030E006FDF50340A3DE0070ACC
:102CE00029E0010A15E0030A01E048D0050EE66E6E
:102CF00045EC1CF0E55201014551EA6A250FE96EE9
:102D0000010EEA22310EEF6E452B060E006F36D013
:102D1000060EE66E45EC1CF0E55201014551EA6AEB
:102D2000250FE96E010EEA22320EEF6E452B060EDC
:102D3000006F24D0070EE66E45EC1CF0E552010151
:102D40004551EA6A250FE96E010EEA22330EEF6E55
:102D5000452B060E006F12D00E0EE66E45EC1CF0F1
:102D6000E55201014551EA6A250FE96E010EEA229A
:102D7000340EEF6E452B060E006F00D063D2080EA6
:102D8000DF5C0DE1040EE66EF1EC1BF0E5529FEC0A
:102D90001BF00101050E006F020E456F27D00A0ED1
:102DA000DF5C24E1330E275D0BE1080EE66EF1ECEB
:102DB0001BF0E5529FEC1BF00101070E006F16D0CF
:102DC00070EC1BF0250EE66E010EE66E29EC0DF0A0
:102DD000E552E552020EE66EF1EC1BF0E5529FEC77
:102DE0001BF0B2EC1BF00101030E006F2BD2080E9A
:102DF000DF5C18E12251000808E2DFCFE6FF1EEC9D
:102E00001EF0E552010122070CD0040EE66EF1EC33
:102E10001BF0E5529FEC1BF00101050E006F020E46
:102E2000456FBFD00A0EDF5C1AE12251000816E29E
:102E300070EC1BF0250EE66E010EE66E29EC0DF02F
:102E4000E552E552020EE66EF1EC1BF0E5529FEC06
:102E50001BF0B2EC1BF00101030E006FA2D0030EB9
:102E6000DB50235D6DE1280EF36E020EDBCFF4FF25
:102E7000F350F45C36E222072251EA6A020FE96E4F
:102E8000010EEA22DFCFEFFF080EE66E1EEC1EF009
:102E9000E55201012251EA6A020FE96E010EEA22AF
:102EA000EF50E66E1EEC1EF0E552140EF36E050EAA
:102EB000F3CFDBFF060EDB6A050EDBCF14F0DB067B
:102EC000060EDBCF15F001E2DB061450151006E00C
:102ED000040EE66EC3EC26F0E552EED70101222B7C
:102EE0002ED02251EA6A020FE96E010EEA22DFCFEC
:102EF000EFFF2251EA6A020FE96E010EEA22EF505B
:102F0000E66E1EEC1EF0E552140EF36E070EF3CFC4
:102F1000DBFF080EDB6A070EDBCF14F0DB06080EC2
:102F2000DBCF15F001E2DB061450151006E0040EAD
:102F3000E66EC3EC26F0E552EED70101222B2ED02F
:102F40002251EA6A020FE96E010EEA22DFCFEFFF9B
:102F50002251EA6A020FE96E010EEA22EF50E66E94
:102F60001EEC1EF0E552140EF36E090EF3CFDBFFDC
:102F70000A0EDB6A090EDBCF14F0DB060A0EDBCF8C
:102F800015F001E2DB061450151006E0040EE66EA3
:102F9000C3EC26F0E552EED70101222B030EDBCF66
:102FA00023F150D1300EDF5C14E1460EE66E010EC7
:102FB000E66E5BEC03F0E552E552FF0E0101665D43
:102FC00007E0460EE66E010EE66EDDDBE552E552E9
:102FD00021D0080EDF5C0BE1020EE66EF1EC1BF077
:102FE000E552ADDBBFDB0101030E006F13D00A0E0B
:102FF000DF5C10E166C1E6FF6AEC10F0E55201010A
:103000006669020EE66EEDDBE55299DBABDB010192
:10301000030E006F17D1080EDF5C14E1670EE66E39
:10302000010EE66E59EC07F0E552E552FF0E010184
:10303000875D07E0670EE66E010EE66EA4DBE552E3
:10304000E55220D0300EDF5C0AE1020EE66EC9DBED
:10305000E55275DB87DB0101030E006F13D00A0E0A
:10306000DF5C10E187C1E6FF57EC0BF0E552010190
:103070008769020EE66EB5DBE55261DB73DB0101A9
:10308000030E006FDFD0080EDF5C09E1020EE66E72
:10309000A8DBE55254DB0101030E006F0ED00A0ECF
:1030A000DF5C0BE1D7EC12F04ADB5CDB020EE66E74
:1030B00098DBE5520101030E006FC4D0080EDF5CFF
:1030C0001AE1010508E1E66A8CDBE55238DB4ADBF0
:1030D0000101006B0FD0020E015D03E0030E015DE4
:1030E00009E1020EE66E7DDBE55229DB3BDB0101E7
:1030F000030E006F8CD00A0EDF5C01E079D0225104
:10310000EA6A020FE96E010EEA22EF6A010528E180
:103110000B0EDB6A250EE66E010EE66E020EE66E03
:10312000010EE66ED8EC01F0E552E552E552E552AB
:10313000E76E0B0EE7CFDBFFDB040AE1020EE66E63
:1031400050DBE552FCDA0EDB0101030E006F07D005
:10315000E66A47DBE552F3DA05DB0101006B47D095
:10316000020E015D28E10C0EDB6A250EE66E010EF3
:10317000E66E020EE66E010EE66E1FEC02F0E55200
:10318000E552E552E552E76E0C0EE7CFDBFFDB04BC
:1031900008E1E66A26DBE552D2DAE4DA0101006BE7
:1031A00009D0020EE66E1DDBE552C9DADBDA010159
:1031B000030E006F1CD0030E015D19E10D0EDB6ADA
:1031C000020EE66E010EE66EB9EC12F0E552E55223
:1031D000E76E0D0EE7CFDBFFDB0409E10D0EE66EB7
:1031E00000DBE552ACDABEDA01010C0E006F0FD045
:1031F0002251EA6A020FE96E010EEA22DFCFEFFFE9
:103200002A0EE66E1EEC1EF0E5520101222B1AD0AA
:10321000080EDF5C0AE1020EE66EE3DAE5528FDAB1
:10322000A1DA0101030E006F0CD0300EDF5C09E162
:103230000B0EE66ED6DAE55282DA94DA01010A0E56
:10324000006F00D00E0EE15C02E2E16AE552E16E31
:10325000E552E7CFD9FF1200D9CFE6FFE1CFD9FF82
:10326000E652DF68010100510C0A01E1B8D1060AFB
:1032700001E19FD1010A01E18DD1020A01E166D18C
:10328000040A01E147D1050A01E128D10F0A01E151
:10329000F3D0010A01E1DAD0030A01E1B2D0010A58
:1032A00001E19AD0070A01E17ED0010A4AE0030A4F
:1032B00016E0010A01E0ACD1FE0EDB50040DF3CFA5
:1032C000F6FFF4CFF7FF520EF6264D0EF722080058
:1032D000F550DF6E0B0EDF5C01E0DF6899D1FE0E6A
:1032E000DB50235D10E1280EF36EFD0EDBCFF4FF03
:1032F000F350F45C06E2242B040E245D01E1246B00
:1033000001D0246B01D0246BFE0EDB50040DF3CFF3
:1033100014F0F4CF15F0520E14264D0E1522245140
:103320000F011424F66E000E1520F76E0800F550FC
:10333000DF6E0B0EDF5C03E00C0EDF5C01E1DF688B
:1033400067D1FE0EDB50235D10E1280EF36EFD0EFB
:10335000DBCFF4FFF350F45C06E2242B040E245D73
:1033600001E1246B01D0246B01D0246BFE0EDB50F5
:10337000040DF3CF14F0F4CF15F0520E14264D0EB9
:10338000152224510F011424F66E000E1520F76E3D
:103390000800F550DF6E0B0EDF5C03E00C0EDF5C07
:1033A00001E1DF6835D1FE0EDB50040DF3CFF6FFEF
:1033B000F4CFF7FF520EF6264D0EF7220800F55017
:1033C000DF6E020E225D07E3080EDF5C04E00A0EEA
:1033D000DF5C01E0DF681CD1FE0EDB50040DF3CF93
:1033E000F6FFF4CFF7FF520EF6264D0EF722080037
:1033F000F550DF6E225104E10A0EDF5C01E1DF6867
:1034000007D1FE0EDB50040DF3CFF6FFF4CFF7FF2C
:10341000520EF6264D0EF7220800F550DF6E300EE4
:10342000DF5C13E0310EDF5C10E0320EDF5C0DE09C
:10343000330EDF5C0AE0340EDF5C07E0080EDF5C71
:1034400004E00A0EDF5C01E0DF68E2D0FE0EDB5034
:10345000040DF3CFF6FFF4CFF7FF520EF6264D0E14
:10346000F7220800F550DF6E0A0EDF5C04E0080E5C
:10347000DF5C01E0DF68CCD0FE0EDB50235D10E1A5
:10348000280EF36EFD0EDBCFF4FFF350F45C06E282
:10349000242B040E245D01E1246B01D0246B01D0A8
:1034A000246BFE0EDB50040DF3CF14F0F4CF15F0B7
:1034B000520E14264D0E152224510F011424F66EBF
:1034C000000E1520F76E0800F550DF6E0C0EDF5C65
:1034D00003E00B0EDF5C01E1DF689AD0FE0EDB50EB
:1034E000040DF3CFF6FFF4CFF7FF520EF6264D0E84
:1034F000F7220800F550DF6E0A0EDF5C0AE0080EC6
:10350000DF5C07E00C0EDF5C04E0300EDF5C01E006
:10351000DF687ED0FE0EDB50040DF3CFF6FFF4CF54
:10352000F7FF520EF6264D0EF7220800F550DF6E1B
:103530000A0EDF5C0AE0080EDF5C07E00C0EDF5CC1
:1035400004E0300EDF5C01E0DF6862D0FE0EDB508D
:10355000040DF3CFF6FFF4CFF7FF520EF6264D0E13
:10356000F7220800F550DF6E020E225D08E20B0E16
:10357000DF5C03E00C0EDF5C01E1DF680AD0020EC5
:10358000225D07E3080EDF5C04E00A0EDF5C01E069
:10359000DF683ED0FE0EDB50040DF3CFF6FFF4CF14
:1035A000F7FF520EF6264D0EF7220800F550DF6E9B
:1035B0002FD0FE0EDB50040DF3CFF6FFF4CFF7FF54
:1035C000520EF6264D0EF7220800F550DF6E0A0E59
:1035D000DF5C04E0080EDF5C01E0DF6819D0FE0E5E
:1035E000DB50040DF3CFF6FFF4CFF7FF520EF626B3
:1035F0004D0EF7220800F550DF6E300EDF5C07E05D
:10360000080EDF5C04E00A0EDF5C01E0DF6800D03A
:10361000DF5000D0E552E552E7CFD9FF1200D9CFF5
:10362000E6FFE1CFD9FFFE0EDB50030A01E00AD02E
:10363000020EE66ED6D8E55282D894D80101030E68
:10364000006F00D0E552E7CFD9FF1200D9CFE6FFD7
:10365000E1CFD9FF020EE126010EDB6A010122054E
:1036600013E14551EA6A250FE96E010EEA22300E98
:10367000EF6E452B4551EA6A250FE96E010EEA22ED
:1036800002C1EFFF452B12D04551EA6A250FE96EC2
:10369000010EEA2202C1EFFF452B4551EA6A250FD0
:1036A000E96E010EEA2203C1EFFF452B300E265DC5
:1036B000146E300E255D0A0DF3501424E76E010ED2
:1036C000E7CFDBFFDB50146E020EE15C03E200D0BB
:1036D000E16AE552E16E1450E552E7CFD9FF1200DE
:1036E000D9CFE6FFE1CFD9FFE652DF6A01012251CF
:1036F000DF5C14E2DF50EA6A020FE96E010EEA2293
:10370000EF50E66E4551EA6A250FE96E010EEA2296
:10371000E552E750EF6E452BDF2AE8D74551EA6ABC
:10372000250FE96E010EEA22EF6A452B1F0E455D5B
:1037300001E3456BE552E552E7CFD9FF12001F0EBA
:10374000E66EE66AE66A020EE66E010EE66EF8ECDA
:1037500023F0146E050EE15E14500101226B246B00
:10376000236912001F0EE66EE66AE66A250EE66E13
:10377000010EE66EF8EC23F0146E050EE15E1450B7
:103780000101456B1200D9CFE6FFE1CFD9FFE65228
:1037900017EC1EF0DF6ADF50E76EFD0EDBCFE9FFAE
:1037A000FE0EDBCFEAFFE750E926000EEA22EF50DB
:1037B00013E0DF50E76EFD0EDBCFE9FFFE0EDBCF3F
:1037C000EAFFE750E926000EEA22EF50E66E1EEC13
:1037D0001EF0E552DF2ADFD7E552E552E7CFD9FFE9
:1037E0001200D9CFE6FFE1CFD9FF150EE12617EC85
:1037F0001EF0FE0EEA6ADB34FE0BEA36E96E9A0E24
:10380000E926010EEA22EECF14F0EFCF15F0166A8A
:1038100014C0E6FF15C0E6FF16C0E6FFD950010F41
:10382000E66E000EDA20E66E53EC24F0176E050EFD
:10383000E15E1750DF6AD950010F146EDACF15F030
:10384000DF500F011424E96E000E1520EA6EEF50D0
:1038500012E0D950010F146EDACF15F0DF501424A6
:10386000E96E000E1520EA6EEF50E66E1EEC1EF0BB
:10387000E552DF2AE0D7150EE15C02E2E16AE5528B
:10388000E16EE552E7CFD9FF1200D9CFE6FFE1CFD5
:10389000D9FF030EE126FE0EEA6ADB34FE0BEA36A0
:1038A000E96E9A0EE926010EEA22010EEECFDBFF49
:1038B000020EEDCFDBFFDF6ADF50E76E010EDBCFDC
:1038C000F6FF020EDBCFF7FFE750F626000EF722D9
:1038D0000800F55014E0DF50E76E010EDBCFF6FF75
:1038E000020EDBCFF7FFE750F626000EF7220800A6
:1038F000F550E66E1EEC1EF0E552DF2ADDD7030E12
:10390000E15C02E2E16AE552E16EE552E7CFD9FF00
:023910001200A3
:0E391200D9CFE6FFE1CFD9FF030EE126300E3C
:10392000F36E010EF3CFDBFF750EF36E020EF3CFD5
:10393000DBFF010EDF6EDF0431E1958E958C958AF9
:103940009588959295949596000000008C968C84AD
:10395000000000008C82000000008350800B01E01A
:10396000010EDF6E8C928C82000000008C92010EA2
:10397000DB06020E01E2DB06D950010FE96EDACF59
:10398000EAFFEE50ED1009E1959E959C959A959869
:10399000959295949596FF0E0AD0CDD7959E959CBD
:1039A000959A9598959295949596000E00D0146EE0
:1039B000030EE15C02E2E16AE552E16E1450E55269
:1039C000E7CFD9FF1200D9CFE6FFE1CFD9FF8C9620
:1039D0008C940000FE0EDB50F00B146E0F0E8C1456
:1039E00014108C6E00008C82000000008C92E55256
:1039F000E7CFD9FF1200D9CFE6FFE1CFD9FF89DFAA
:103A00008C968C940000FE0EDB50F00B146E0F0EA3
:103A10008C1414108C6E00008C82000000008C92BC
:103A2000FE0EDB38F00BF00B146E0F0E8C1414101E
:103A30008C6E00008C82000000008C92E552E7CF73
:103A4000D9FF1200D9CFE6FFE1CFD9FF62DF8C8624
:103A50008C940000FE0EDB50F00B146E0F0E8C14D5
:103A600014108C6E00008C82000000008C92FE0E00
:103A7000DB38F00BF00B146E0F0E8C1414108C6EE0
:103A800000008C82000000008C92E552E7CFD9FF45
:103A90001200D9CFE6FFE1CFD9FF0B0EE126959EAC
:103AA000959C959A9598959295949596280EF36E77
:103AB000010EF3CFDBFF020EDB6A010EDBCF14F049
:103AC000DB06020EDBCF15F001E2DB061450151009
:103AD00006E0040EE66EC3EC26F0E552EED7300E9B
:103AE000E66E71DFE5520A0EF36E030EF3CFDBFFD5
:103AF000040EDB6A030EDBCF14F0DB06040EDBCF13
:103B000015F001E2DB061450151006E0040EE66E17
:103B1000C3EC26F0E552EED7300EE66E54DFE552E8
:103B20000A0EF36E050EF3CFDBFF060EDB6A050E01
:103B3000DBCF14F0DB06060EDBCF15F001E2DB066F
:103B40001450151006E0040EE66EC3EC26F0E552A4
:103B5000EED7300EE66E37DFE5520A0EF36E070E33
:103B6000F3CFDBFF080EDB6A070EDBCF14F0DB06BA
:103B7000080EDBCF15F001E2DB061450151006E04D
:103B8000040EE66EC3EC26F0E552EED7200EE66E8C
:103B90001ADFE5520A0EF36E090EF3CFDBFF0A0EB1
:103BA000DB6A090EDBCF14F0DB060A0EDBCF15F063
:103BB00001E2DB061450151006E0040EE66EC3ECBD
:103BC00026F0E552EED7280EE66E15DFE552A1DEAF
:103BD000DF6EDF5004E10101010EBD6F03D0010172
:103BE000BD6B10D00F0EE66E06DFE552010EE66EDD
:103BF00002DFE552040EE66EFEDEE552060EE66ECC
:103C0000FADEE5520B0EE15C02E2E16AE552E16E9A
:103C1000E552E7CFD9FF1200D9CFE6FFE1CFD9FFB8
:103C2000FE0EDBCF01FFE552E7CFD9FF1200010EF8
:103C3000E66EE1DEE5520F01006B1200D9CFE6FF20
:103C4000E1CFD9FFE652100E0F01005D05E1C00E75
:103C5000E66ED1DEE55208D0200E005D05E3006B74
:103C6000020EE66EC8DEE552FE0EDB500F01015D6E
:103C700023E1005101E127D0100E005D0EE1800E1E
:103C8000E66EB9DEE552DF6A100EDF5C06E2140E66
:103C9000E66EB1DEE552DF2AF7D7100EE66EABDE38
:103CA000E552200EE66ECEDEE552100EE66EA3DE85
:103CB000E5520F01000707D0FE0EDBCFE6FFC2DEA4
:103CC000E5520F01002BE552E552E7CFD9FF120074
:103CD000E0DE010EE66E8FDEE5520F01006B120092
:103CE000D9CFE6FFE1CFD9FFE652010EE66E83DEC3
:103CF000E552DF6A100EDF5C1CE2FD0EDBCFE9FF50
:103D0000FE0EDBCFEAFFEF50E66EDF50EA6A020FED
:103D1000E96E0F0EEA22E552E750EF6EFD0EDBCFA3
:103D2000E9FFDB2AFE0EDBCFEAFF01E3DB2ADF2A15
:103D3000E1D7C00EE66E5FDEE552DF6A100EDF5C93
:103D40001CE2FD0EDBCFE9FFFE0EDBCFEAFFEF50FA
:103D5000E66EDF50EA6A020FE96E0F0EEA22E552C4
:103D6000E750EF6EFD0EDBCFE9FFDB2AFE0EDBCF67
:103D7000EAFF01E3DB2ADF2AE1D7E552E552E7CF8C
:043D8000D9FF120055
:0C3D8400D9CFE6FFE1CFD9FF77EC21F0AA
:103D9000FE0EDBCF01FCFD0EDBCF02FCFC0EDBCF09
:103DA00003FCFB0EDBCF04FCF90EDBCF89FCFA0E23
:103DB000DBCF8AFC04D8E552E7CFD9FF120077ECBD
:103DC00021F00C01856B866B010E006F876B050E71
:103DD000886F8FCC8BFC90CC8CFC91CC8DFC92CCE2
:103DE0008EFC00CC93FC1200D9CFE6FFE1CFD9FFC7
:103DF000060EE126DF6AC6EC23F006C08FFC07C082
:103E000090FC08C091FC09C092FC8B0EE96E0C0E70
:103E1000EA6EEE500C018F1909E1EE50901906E19F
:103E2000EE50911903E1EE50921900E110E00051BB
:103E3000935D05E18807885102E1C1DFBBD08FCCDB
:103E40008BFC90CC8CFC91CC8DFC92CC8EFC0051E8
:103E5000030A01E1AAD0010A13E0030A02E0AFDF7E
:103E6000A7D0F1EC21F0000903E00EEC22F0DF6EA8
:103E70000C010151DF5C03E1856B020E006F98D0ED
:103E8000F1EC21F0000901E195D00EEC22F0DF6E9B
:103E90000C010251DF5C74E1020EDB6A030EDB6889
:103EA000D950030FE66E000EDA20E66E8DD8E5528B
:103EB000E552E76E020EE7CFDBFFDB50020A54E06B
:103EC000030A05E0010A01E057D079DF73D00C0145
:103ED00089518A1147E0D950040FE66E000EDA20AE
:103EE000E66E870EE66E0C0EE66E070EE66E0C0EA4
:103EF000E66E05D08ACCFAFF0C018951F96EFADF23
:103F0000146E060EE15E14500C01866FFA0E456FBA
:103F1000862B87CC46FC862BDE52020EDD6E865148
:103F2000F36E010EDBCFF4FFF350F45C1AE2040EE3
:103F3000DBCFE9FF050EDBCFEAFFEF50E66E010EA7
:103F4000DB50EA6A450FE96E0C0EEA22E552E750B3
:103F5000EF6E040EDB2A050E01E3DB2A010EDB2ADD
:103F6000DED701D02CDF08D00C01FA0E456F862B6E
:103F700087CC46FC862B00D00C01030E006F14D0BA
:103F80008551852BEA6A050FE96E0C0EEA22DFCF18
:103F9000EFFF400E855D08E3FA0E456F862B900E0D
:103FA000466F862B030E006F03D05AD808DF00D06F
:103FB00000CC93FC060EE15C02E2E16AE552E16EA0
:103FC000E552E7CFD9FF1200D9CFE6FFE1CFD9FF05
:103FD000020EE1260C018505EA6A050FE96E0C0E5A
:103FE000EA22EFCFDFFF010EDB6AFA0E055D05E086
:103FF000FA0E055D02E0000E27D08505E66E050E7F
:10400000E66E0C0EE66E9FD8E552E552E552E76E7D
:10401000010EE7CFDBFFDB50DF5C0CE10C01850715
:104020008551EA6A050FE96E0C0EEA22EF6A010E6D
:104030000BD00AD0FD0EDBCFE9FFFE0EDBCFEAFF8F
:10404000910EEF6E000E00D0146E020EE15C02E2E3
:10405000E16AE552E16E1450E552E7CFD9FF120054
:10406000D9CFE6FFE1CFD9FF020EE126DF6A010ECC
:10407000DB6A86CCE6FF450EE66E0C0EE66E63D874
:10408000E552E552E552DF6E03CCE6FF92EC21F0FB
:10409000E552010EDB6A0C018651F36E010EDBCF97
:1040A000F4FFF350F45C0FE2010EDB50EA6A450FB7
:1040B000E96E0C0EEA22EF50E66E92EC21F0E5522A
:1040C000010EDB2AE8D7DFCFE6FF92EC21F0E552C4
:1040D00004CCE6FF92EC21F0E552AEEC21F00400B6
:1040E000020EE15C02E2E16AE552E16EE552E7CFE1
:1040F000D9FF1200D9CFE6FFE1CFD9FFFD0EDBCF0C
:10410000F6FFFE0EDBCFF7FF0800F55016E0FD0EC0
:10411000DBCFF6FFFE0EDBCFF7FF0800F550E66EB3
:1041200092EC21F0E552FD0EDBCFF6FFDB2AFE0E0E
:10413000DBCFF7FF01E3DB2AE1D7AEEC21F0E5525C
:10414000E7CFD9FF1200D9CFE6FFE1CFD9FF030EA9
:10415000E126DF6A010EDB6AFC0EDB50F36E010E16
:10416000DBCFF4FFF350F45C12E2010EDB50E76E9C
:10417000FD0EDBCFE9FFFE0EDBCFEAFFE750E926BD
:10418000000EEA22EF50DF1A010EDB2AE5D7DF50DE
:10419000146E030EE15C03E200D0E16AE552E16EC9
:0A41A0001450E552E7CFD9FF1200DA
:0641AA00DACFE4FFE2CFD2
:1041B000DAFFE9CFE4FFEACFE4FFF6CFE4FFF7CF81
:1041C000E4FFF5CFE4FFF3CFE4FFF4CFE4FFFACF51
:1041D000E4FF00EE00F0140EE80403E3EECFE4FF8A
:1041E000FBD700EE14F0040EE80403E3EECFE4FF87
:1041F000FBD7E652D9CFE6FFE1CFD9FFE65234EC48
:1042000026F0DF6E0D014351432BEA6A460FE96E3B
:104210000D0EEA22DFCFEFFF400E435D01E3436B5B
:10422000452B9E9AE552E552E7CFD9FFE55200EEC5
:1042300017F0040EE80403E3E5CFEDFFFBD700EE33
:1042400013F0140EE80403E3E5CFEDFFFBD7E5CF51
:10425000FAFFE5CFF4FFE5CFF3FFE5CFF5FFE5CFBC
:10426000F7FFE5CFF6FFE5CFEAFFE5CFE9FFE5CFC2
:10427000DAFF1100DACFE4FFE2CFDAFFE9CFE4FFA3
:10428000EACFE4FFE652D9CFE6FFE1CFD9FFE6520D
:104290000D01025105E1ACA2FED78290AC9A1BD071
:1042A0000151EA6A030FE96E0D0EEA22EFCFDFFF3C
:1042B000DF50AD6E012B400E015D01E3016B000E7E
:1042C000E76E0219E8AE02D0023503D0E750D8807D
:1042D000025501E20207E552E552E7CFD9FFE55268
:1042E000E5CFEAFFE5CFE9FFE5CFDAFF1100D9CF4F
:1042F000E6FFE1CFD9FFE6527C0EDF6E0F0EE66ED1
:10430000E66ADFCFE6FFA9EC25F0E552E552E5527B
:10431000D08EAC8AAC9EF28C9F8AE552E552E7CFF4
:10432000D9FF1200D9CFE6FFE1CFD9FFACA2FED76B
:104330000D010051002BEA6A030FE96E0D0EEA220F
:10434000FE0EDBCFEFFF022B400E005D01E3006BA2
:10435000010E00D0E552E7CFD9FF1200D9CFE6FF1A
:10436000E1CFD9FF020EE1268280000E0D01E76E3B
:104370000219E8AE02D0023503D0E750D8800255CA
:1043800023E20151EA6A030FE96E0D0EEA22010EE3
:10439000EFCFDBFFACA2FED7010EDB50AD6EACA2BF
:1043A000FED70D01012B400E015D01E3016B000EF4
:1043B000E76E0219E8AE02D0023503D0E750D8808C
:1043C000025501E20207D1D78290146E020EE15C21
:1043D00002E2E16AE552E16E1450E552E7CFD9FFFF
:1043E0001200D9CFE6FFE1CFD9FFE652DF6A9D9AEE
:1043F000000E0D01E76E4519E8AE02D0453503D039
:10440000E750D880455502E2010EDF6E9D8ADF50ED
:1044100000D0E552E552E7CFD9FF1200D9CFE6FF31
:10442000E1CFD9FFE6529D9A0D014451442BEA6A2F
:10443000460FE96E0D0EEA22EFCFDFFF400E445D1E
:1044400001E3446B000EE76E4519E8AE02D0453536
:1044500003D0E750D880455501E245079D8ADF50DB
:0C44600000D0E552E552E7CFD9FF120072
:04446C000101966B49
:10447000976B1200D9CFE6FFE1CFD9FF020EE126FC
:104480000101982BD9CFE6FFDACFE6FF81D8E552BC
:10449000E552000901E127D001019651975D02E143
:1044A000976B966B9751E96EEA6AD890E936EA36CF
:1044B000880EE926010EEA22DFCFEFFF9751E96E61
:1044C000EA6AD890E936EA36880EE926010EEA2231
:1044D000010EE926000EEA2298C1EFFF060E975D55
:1044E00001E2972B986B020EE15C02E2E16AE55271
:1044F000E16EE552E7CFD9FF1200D9CFE6FFE1CF59
:10450000D9FF01019751965D31E29651E96EEA6A51
:10451000D890E936EA36880EE926010EEA22EF50F5
:10452000E66EFD0EDBCFE9FFFE0EDBCFEAFFE552C4
:10453000E750EF6E9651E96EEA6AD890E936EA36AE
:10454000880EE926010EEA22010EE926000EEA2273
:10455000EF50E66EFB0EDBCFE9FFFC0EDBCFEAFF90
:10456000E552E750EF6E962B010E02D0000E00D000
:10457000E552E7CFD9FF12000101B95100D0120076
:104580000101BA5100D012000101976B966B120025
:10459000D9CFE6FFE1CFD9FFE652DF68809881B43A
:1045A00002D0010EDF6E80B202D0040EDF6E80B446
:1045B00002D0070EDF6E80B602D00A0EDF6E808852
:1045C000FF0EDF5C12E1809A81B402D0020EDF6E32
:1045D00080B202D0050EDF6E80B402D0080EDF6E0E
:1045E00080B602D00B0EDF6E808AFF0EDF5C12E118
:1045F000849081B402D0030EDF6E80B202D0060E2A
:10460000DF6E80B402D0090EDF6E80B602D00C0ED1
:10461000DF6E8480FF0EDF5C06E101019969010114
:10462000B869000E18D001019951DF5C10E1010159
:10463000B851DF5C0CE0FD0EDBCFE9FFFE0EDBCFF7
:10464000EAFFDFCFEFFFDFCFB8F1010E04D0DFCFFD
:1046500099F1000E00D0E552E552E7CFD9FF1200E4
:10466000DACFE4FFE2CFDAFFE9CFE4FFEACFE4FFFD
:10467000F6CFE4FFF7CFE4FFF5CFE4FFF3CFE4FF9D
:10468000F4CFE4FFFACFE4FF00EE00F0140EE804EC
:1046900003E3EECFE4FFFBD700EE14F0040EE804D2
:1046A00003E3EECFE4FFFBD7E652F2940F01282B91
:1046B000000E29232A232B23640E281905E12951F2
:1046C00003E12A5101E12B5109E1222B000E2323A2
:1046D00024232523286B296B2A6B2B6B272B27512F
:1046E000186E196A320E181801E1195007E1267187
:1046F0002651E8B08D84E8A08D94276B2C2B2C518B
:10470000186E196A020E181801E1195004E13AEC0A
:1047100022F00F012C6BAF0EE66E3C0EE66E71ECD4
:1047200026F0E552E552E55200EE17F0040EE804DB
:1047300003E3E5CFEDFFFBD700EE13F0140EE80422
:1047400003E3E5CFEDFFFBD7E5CFFAFFE5CFF4FFBD
:10475000E5CFF3FFE5CFF5FFE5CFF7FFE5CFF6FFB8
:10476000E5CFEAFFE5CFE9FFE5CFDAFF11009F0EC5
:10477000E66E8DEC26F0E552AF0EE66E3C0EE66E70
:1047800071EC26F0E552E552F1841200D9CFE6FF34
:10479000E1CFD9FF040EE126F29A22CFDFFF010E0E
:1047A00023CFDBFF020E24CFDBFF030E25CFDBFF81
:1047B000F28ADECF06F0DECF07F0DECF08F0DDCFE5
:1047C00009F0DD52DD52040EE15C03E200D0E16A43
:1047D000E552E16EE552E7CFD9FF1200F29EF29C5E
:1047E0000F01226B236B246B256BF28EF28C12006F
:1047F000FE0EE3CFE9FFFF0EE3CFEAFFE9CFF3FFC1
:10480000EACFF4FFFB0EE35003E1FC0EE35009E0B6
:10481000FB0EE30602E2FC0EE306FD0EE350EE6E35
:10482000F1D71200D9CFE6FFDACFE6FFFA0EE3CFD9
:10483000D9FFFB0EE3CFDAFFFC0EE3CFE9FFFD0E5D
:10484000E3CFEAFFDE50EF5C02E1EE66FBD7F36EEA
:10485000FF0EE3CFDAFFE552FF0EE3CFD9FFE552BB
:10486000F3501200D9CFE6FFDACFE6FFFA0EE3CF1E
:10487000D9FFFB0EE3CFDAFFFC0EE3CFE9FFFD0E1D
:10488000E3CFEAFFE9CFF3FFEACFF4FFDECFEFFF9C
:10489000EE66FCD7FF0EE3CFDAFFE552FF0EE3CF63
:1048A000D9FFE5521200FB0EE3CFF6FFFC0EE3CF7B
:1048B000F7FFFD0EE3CFF8FFFE0EE3CFE9FFFF0E9B
:1048C000E3CFEAFFE9CFF3FFEACFF4FF0900F5CF2A
:1048D000EFFFEE66FBD71200FE0EE3CFE9FFFF0EFF
:1048E000E3CFEAFFF36AF46AEE5203E0F34AF42AF4
:0448F000FBD71200E0
:0C48F4004F54484552530041444D494E7A
:104900002041435449564954593A00504153535752
:104910004F52443A00434C45415220495353554568
:104920005300434C4153533A0041434B4E4F574C75
:10493000454447450050415254204E4F3A005041A3
:1049400052542053484F5254414745005155414C11
:1049500049545900425245414B444F574E00495328
:104960005355453A005052444E205154593A005341
:10497000544154494F4E3A0049443A0020202020E7
:104980004944454F4E4943532020202020414E4466
:0D4990004F4E205445524D494E414C2000E1
:02499E001A0EEF
:1049A000F66E000EF76E000EF86E0F010900F5505E
:1049B000326F0900F550336F03E1326701D03DD00B
:1049C0000900F5502D6F0900F5502E6F0900F550C4
:1049D0002F6F09000900F550E96E0900F550EA6EE5
:1049E000090009000900F550306F0900F550316FDA
:1049F00009000900F6CF34FFF7CF35FFF8CF36FFB7
:104A00002DCFF6FF2ECFF7FF2FCFF8FF0F0130533A
:104A100002E1315307E00900F550EE6E3007F8E28D
:104A20003107F9D734CFF6FF35CFF7FF36CFF8FF90
:0C4A30000F013207000E335BBFD71200ED
:044A3C00D9CFE6FFE9
:104A4000E1CFD9FF030EE12610EC26F0B7EC23F0FE
:104A500036EC22F068EC1EF0DF6A1A0EDF5C21E211
:104A6000410EDF24E66E1EEC1EF0E552640EF36E7E
:104A7000010EF3CFDBFF020EDB6A010EDBCF14F079
:104A8000DB06020EDBCF15F001E2DB061450151039
:104A900006E0040EE66EC3EC26F0E552EED7DF2A00
:104AA000DCD717EC1EF04AEC00F030EC14F0F28E7C
:104AB000F28C42EC14F00400F4EC1EF004006BECF9
:104AC00002F00400F6D7030EE15C02E2E16AE5526F
:0A4AD000E16EE552E7CFD9FF1200B6
:064ADA00D9CFE6FFDACFA0
:104AE000E6FFE1CFD9FFE2CFDAFFE652DF6AFD0E43
:104AF000DBCF15F015C014F0030E1514AA6EFF0ECF
:104B0000E76EFC0EDBCF14F0E7501416156A145054
:104B1000A96EFB0EDB50A86EA69EA69CA684F25042
:104B2000800B01E0010EDF6EF29E550EA76EAA0EFD
:104B3000A76EA682A6B2FED7DF50E8B0F28EE8A03C
:104B4000F29EA694E552E552E5CFDAFFE7CFD9FF12
:024B5000120051
:0E4B5200D9CFE6FFDACFE6FFE1CFD9FFE2CF01
:104B6000DAFFAC6AAB6AFD0EDBB0AC88DBA202D028
:104B7000AC8CAB8CDBB4AC8EDBA602D0AB8801D0A6
:104B8000AB8ADBB8AC84DBBAAB86DBAC02D09D8AE7
:104B900001D09D9ADBAE02D09D8801D09D98FB0E7E
:104BA000DB50AF6EFC0EDBCF15F015C014F0156AAC
:104BB0001450B06EAC8AAB8EE552E5CFDAFFE7CF8A
:044BC000D9FF120007
:0C4BC400D9CFE6FFDACFE6FFE1CFD9FF42
:104BD000E2CFDAFFFC0EDBCF14F0FD0EDBCF15F0D9
:104BE00015C014F0156A030E1414AA6EFF0EE76EBA
:104BF000FC0EDBCF14F0FD0EDBCF15F0E7501416E2
:104C0000156A1450A96EA69CA69EA68000000000FE
:104C1000A85000D0E552E5CFDAFFE7CFD9FF120068
:104C2000C26A0F01386B396B3A6B3B6B3C6B700E91
:104C3000D36E93849282928492869298929A96905E
:104C40009490829095908C90939A8A9A93968A9653
:104C500093988A9896948D84959E959C959A95980C
:084C60009592959495961200BF
:084C6800D9CFE6FFDACFE6FF29
:104C7000E1CFD9FFE2CFDAFFE652F20E0F0137178C
:104C8000ABAC03D03791ABB03781ABB43785ABB2A7
:104C90003787AE50DF6EDF50E552E552E5CFDAFFE1
:064CA000E7CFD9FF12006E
:0A4CA60008C012F008500D02F4CF10
:104CB00007F0F3CF06F009500E02F4CF09F0F3CF5E
:104CC00008F00D02F3500726F4500822E86A092282
:104CD00012500E02F3500726F4500822E86A092207
:024CE000000CC6
:0E4CE200D9CFE6FFDACFE6FFE1CFD9FFE2CF70
:104CF000DAFFE652E652FC0EDBCFDEFFDBCFDDFF54
:104D0000010EDB50D76EDF50D66EE552E552E5520C
:0A4D1000E5CFDAFFE7CFD9FF12006C
:064D1A00D9CFE6FFDACF5D
:104D2000E6FFE1CFD9FFE2CFDAFFFD0EDB507F0BCC
:104D3000D56ED76AD66AF294FD0EDBAE02D0F28A47
:104D400001D0F29AD58EE552E5CFDAFFE7CFD9FF51
:024D500012004F
:0E4D5200FFFFFFFF3131313132414243334424
:104D6000454634474849354A4B4C364D4E4F3750EF
:104D70005253385455563957585908080808305175
:064D80005A2D0A0A0A0A7E
:0A4D8600FF0EE3501A6E480E01D034
:104D90004C0EE76EE72EFED7E76AE72EFED71A2EF7
:064DA000F7D7000012002D
:0A4DA600380EF36E00EE00F00F0E61
:104DB00001D81200EA6002D0EE6AFCD7F350E96035
:064DC0001200EE6AFCD7B0
:0A4DC6001EEE00F02EEE00F0F86A79
:104DD000019CCFEC24F000EC27F01EEC25F0FBD773
:024DE0001200BF
:0E4DE200202020202020202020202020202003
:034DF00020200080
:064DF400A6B2FED712007A
:054DFA00434F4D0A00CB
:024E000012009E
:0E4E02000000000000000000000000000000A2
:104E10000000000000000000000000000000000092
:104E20000000000000FF0000000000000000000083
:104E30000000000000000000000000000000000072
:104E40000000000000000000000000000000000062
:104E50000000000000000000000000000000000052
:104E60000000000000000000FF0000000000000043
:104E70000000000000000000000000000000000032
:0A4E8000000000000000000000FF29
:064E8A0000000000000022
:104E90000000000000000000000000000000000012
:104EA0000000000000000000000000000000000002
:104EB00000000000000000000000000000000000F2
:104EC00000000000000000000000000000000000E2
:05529000000000000019
:0B52950000000000000000000000000E
:1052A00000000000000000000000000000000000FE
:1052B00000000000000000000000000000000000EE
:1052C00000000000000000000000000000000000DE
:0156AF0000FA
:1056B00000000000000000000000000000000000EA
:1056C00000000000000000000000000000000000DA
:1056D00000000000000000000000000000000000CA
:1056E00000000000000000000000000000000000BA
:1056F00000000000000000000000000000000000AA
:105700000000000000000000000000000000000099
:105710000000000000000000000000000000000089
:105720000000000000000000000000000000000079
:105730000000000000000000000000000000000069
:0357400000000066
:0B57430000000000000000000000005B
:02574E00000059
:105750000000000000000000000000000000000049
:105760000000000000000000000000000000000039
:03577000FF000037
:02577300FFFF36
:0B5775007C4978496F4965495E495442
:10578000494C493E4935492949224915490B49FBAC
:0357900048F44892
:020000040030CA
:0100010008F6
:0100020001FC
:0100030024D8
:01000500BD3D
:010006008079
:010008000FE8
:01000900C036
:01000A000FE6
:01000B00E014
:01000C000FE4
:01000D0040B2
:00000001FF
