:020000040000FA
:0600000055EF08F01200AC
:020006001200E6
:080008009EAA02D09DEF05F055
:020010001200DC
:03001200000000EB
:0100150000EA
:02001600FFFFEA
:08001800F2A402D02AEF05F06A
:0C0020001200D08E9F8AF28EF28C12002B
:04002C0006001600B4
:1000300000000D0F00000200000015000000120F6C
:10004000000001000000120000000A0F0000030081
:10005000000094110000000B0000940000007C11CF
:100060000000000E000018000000F610000000065E
:0600700000008600000004
:0A007600DACFE4FFE2CFDAFFE9CFB2
:10008000E4FFEACFE4FFF6CFE4FFF7CFE4FFF5CFDC
:10009000E4FFF3CFE4FFF4CFE4FFFACFE4FF00EE98
:1000A00000F00B0EE80403E3EECFE4FFFBD700EE15
:1000B0000BF0020EE80403E3EECFE4FFFBD7E652B9
:1000C000D9CFE6FFE1CFD9FFE652AEEC07F0DF6E05
:1000D0000601C951C92BEA6ACC0FE96E060EEA2265
:1000E000DFCFEFFF400EC95D01E3C96BCB2BA49AB4
:1000F000E552E552E7CFD9FFE55200EE0CF0020ED3
:10010000E80403E3E5CFEDFFFBD700EE0AF00B0EAA
:10011000E80403E3E5CFEDFFFBD7E5CFFAFFE5CF3A
:10012000F4FFE5CFF3FFE5CFF5FFE5CFF7FFE5CF30
:10013000F6FFE5CFEAFFE5CFE9FFE5CFDAFF1100F3
:10014000DACFE4FFE2CFDAFFE9CFE4FFEACFE4FF62
:10015000E652D9CFE6FFE1CFD9FFE65206010251C0
:1001600005E1ACA2FED78290AC9A1BD00151EA6A9D
:10017000030FE96E060EEA22EFCFDFFFDF50AD6E10
:10018000012B400E015D01E3016B000EE76E0219C9
:10019000E8AE02D0023503D0E750D880025501E224
:1001A0000207E552E552E7CFD9FFE552E5CFEAFF76
:1001B000E5CFE9FFE5CFDAFF1100DACFE4FFE2CFC8
:1001C000DAFFE9CFE4FFEACFE4FFE652D9CFE6FF5A
:1001D000E1CFD9FFE6520601885105E172A2FED7B0
:1001E0008298729A1BD08751EA6A890FE96E060ECF
:1001F000EA22EFCFDFFFDF50736E872B400E875D63
:1002000001E3876B000EE76E8819E8AE02D08835EF
:1002100003D0E750D880885501E28807E552E552BF
:10022000E7CFD9FFE552E5CFEAFFE5CFE9FFE5CF1C
:10023000DAFF1100D9CFE6FFE1CFD9FFE6527C0EFD
:10024000DF6E330EE66EE66ADFCFE6FF45EC07F0C1
:10025000E552E552E552AC8AAC9E9D8A9F88E552F4
:10026000E552E7CFD9FF1200D9CFE6FFE1CFD9FFA2
:10027000E6527C0EDF6E670EE66EE66ADFCFE6FFC3
:1002800009EC07F0E552E552E552D08E718E728A84
:10029000729EA38AA58AE552E552E7CFD9FF1200E4
:1002A000D9CFE6FFE1CFD9FFACA2FED706010051BE
:1002B000002BEA6A030FE96E060EEA22FE0EDBCF80
:1002C000EFFF022B400E005D01E3006B010E00D03A
:1002D000E552E7CFD9FF1200D9CFE6FFE1CFD9FF32
:1002E00072A2FED706018651862BEA6A890FE96E53
:1002F000060EEA22FE0EDBCFEFFF882B400E865D56
:1003000001E3866B010E00D0E552E7CFD9FF120062
:10031000D9CFE6FFE1CFD9FF060EE1268280010E9C
:10032000F36E020EF3CFDBFF030EDB6A020EDBCFB0
:100330000BF0DB06030EDBCF0CF001E2DB060B500B
:100340000C1006E0040EE66E35EC08F0E552EED730
:10035000000E0601E76E0219E8AE02D0023503D0A6
:10036000E750D880025523E20151EA6A030FE96E93
:10037000060EEA22010EEFCFDBFFACA2FED7010E84
:10038000DB50AD6EACA2FED70601012B400E015D25
:1003900001E3016B000EE76E0219E8AE02D00235F0
:1003A00003D0E750D880025501E20207D1D78290EE
:1003B000010EF36E040EF3CFDBFF050EDB6A040EB5
:1003C000DBCF0BF0DB06050EDBCF0CF001E2DB062A
:1003D0000B500C1006E0040EE66E35EC08F0E5520A
:1003E000EED70B6E060EE15C02E2E16AE552E16EC9
:1003F0000B50E552E7CFD9FF1200D9CFE6FFE1CF8E
:10040000D9FF060EE1268288010EF36E020EF3CFAD
:10041000DBFF030EDB6A020EDBCF0BF0DB06030E05
:10042000DBCF0CF001E2DB060B500C1006E0040EF3
:10043000E66E35EC08F0E552EED7000E0601E76EE9
:100440008819E8AE02D0883503D0E750D8808855A7
:1004500023E28751EA6A890FE96E060EEA22010E4D
:10046000EFCFDBFF72A2FED7010EDB50736E72A2DC
:10047000FED70601872B400E875D01E3876B000ED8
:10048000E76E8819E8AE02D0883503D0E750D880EF
:10049000885501E28807D1D78298010EF36E040EC9
:1004A000F3CFDBFF050EDB6A040EDBCF0BF0DB06C0
:1004B000050EDBCF0CF001E2DB060B500C1006E062
:1004C000040EE66E35EC08F0E552EED70B6E060E24
:1004D000E15C02E2E16AE552E16E0B50E552E7CFE2
:1004E000D9FF1200D9CFE6FFE1CFD9FFE652DF6A8C
:1004F000A39A000E0601E76ECB19E8AE02D0CB3509
:1005000003D0E750D880CB5502E2010EDF6EA38AFC
:10051000DF5000D0E552E552E7CFD9FF1200D9CF26
:10052000E6FFE1CFD9FFE652DF6A9D9A000E060191
:10053000E76E4519E8AE02D0453503D0E750D880C4
:10054000455502E2010EDF6E9D8ADF5000D0E55274
:10055000E552E7CFD9FF1200D9CFE6FFE1CFD9FFAF
:10056000E6529D9A06014451442BEA6A460FE96E11
:10057000060EEA22EFCFDFFF400E445D01E3446B3D
:10058000000EE76E4519E8AE02D0453503D0E750BE
:10059000D880455501E245079D8ADF5000D0E552DD
:1005A000E552E7CFD9FF1200D9CFE6FFE1CFD9FF5F
:1005B000E652A39A0601CA51CA2BEA6ACC0FE96E29
:1005C000060EEA22EFCFDFFF400ECA5D01E3CA6BE1
:1005D000000EE76ECB19E8AE02D0CB3503D0E75062
:1005E000D880CB5501E2CB079D8ADF5000D0E55281
:0805F000E552E7CFD9FF12002C
:0805F800D9CFE6FFE1CFD9FFE6
:10060000FE0EDBCF01FBFD0EDBCF02FBFC0EDBCFD2
:1006100003FBFB0EDBCF04FBF90EDBCF89FBFA0EED
:10062000DBCF8AFB04D8E552E7CFD9FF12001AECE2
:1006300001F00B01856B866B010E006F876B050E59
:10064000886F8FCB8BFB90CB8CFB91CB8DFB92CBB0
:100650008EFB00CB93FB12000B01856B866B010EAA
:10066000006F876B050E886F8FCB8BFB90CB8CFB5D
:1006700091CB8DFB92CB8EFB00CB93FB1200D9CF9D
:10068000E6FFE1CFD9FF060EE126DF6A8AEC06F02D
:1006900004C08FFB05C090FB06C091FB07C092FB16
:1006A000ABA207D0AB98040EE66E70EC08F0E552F2
:1006B000AB888B0EE96E0B0EEA6EEE500B018F19B4
:1006C00009E1EE50901906E1EE50911903E1EE5068
:1006D000921900E113E00051935D08E1020E005D04
:1006E00005E18807885102E1A2DFBED08FCB8BFBEA
:1006F00090CB8CFB91CB8DFB92CB8EFB0051030AF0
:1007000001E1ADD0010A16E0030A02E0A5DFAAD09C
:100710008FEC02F0000901E1A7D0ACEC02F0DF6E33
:100720000B010151DF5C05E1856B020E006F050EC8
:10073000886F98D08FEC02F0000901E195D0ACEC05
:1007400002F0DF6E0B010251DF5C74E1020EDB6A26
:10075000030EDB68D950030FE66E000EDA20E66E5A
:100760008DD8E552E552E76E020EE7CFDBFFDB5096
:10077000020A54E0030A05E0010A01E057D06CDFE9
:1007800073D00B0189518A1147E0D950040FE66EEE
:10079000000EDA20E66E870EE66E0B0EE66E070E92
:1007A000E66E0B0EE66E05D08ACBFAFF0B0189517F
:1007B000F96EFADF0B6E060EE15E0B500B01866FD1
:1007C000FA0E456F862B87CB46FB862BDE52020E38
:1007D000DD6E8651F36E010EDBCFF4FFF350F45C57
:1007E0001AE2040EDBCFE9FF050EDBCFEAFFEF5084
:1007F000E66E010EDB50EA6A450FE96E0B0EEA2247
:10080000E552E750EF6E040EDB2A050E01E3DB2A0A
:10081000010EDB2ADED701D01FDF08D00B01630EEB
:10082000456F862B87CB46FB862B00D00B01030E32
:10083000006F14D08551852BEA6A050FE96E0B0E07
:10084000EA22DFCFEFFF400E855D08E3630E456FC0
:10085000862B900E466F862B030E006F03D05AD85E
:10086000FBDE00D000CB93FB060EE15C02E2E16A06
:10087000E552E16EE552E7CFD9FF1200D9CFE6FF8E
:10088000E1CFD9FF020EE1260B018505EA6A050FCB
:10089000E96E0B0EEA22EFCFDFFF010EDB6A630E7B
:1008A000055D05E0FA0E055D02E0000E27D0850526
:1008B000E66E050EE66E0B0EE66E9AD8E552E55230
:1008C000E552E76E010EE7CFDBFFDB50DF5C0CE1AA
:1008D0000B0185078551EA6A050FE96E0B0EEA22C6
:1008E000EF6A010E0BD00AD0FD0EDBCFE9FFFE0E42
:1008F000DBCFEAFF910EEF6E000E00D00B6E020E02
:10090000E15C02E2E16AE552E16E0B50E552E7CFAD
:10091000D9FF1200D9CFE6FFE1CFD9FF020EE126C1
:10092000DF6A010EDB6A86CBE6FF450EE66E0B0E34
:10093000E66E5ED8E552E552E552DF6E03CBE6FF88
:1009400050EC01F0E552010EDB6A0B018651F36EAB
:10095000010EDBCFF4FFF350F45C0FE2010EDB502D
:10096000EA6A450FE96E0B0EEA22EF50E66E50EC94
:1009700001F0E552010EDB2AE8D7DFCFE6FF50ECAD
:1009800001F0E55204CBE6FF50EC01F0E55288ECB3
:1009900001F0020EE15C02E2E16AE552E16EE5522D
:1009A000E7CFD9FF1200D9CFE6FFE1CFD9FFFD0E87
:1009B000DBCFF6FFFE0EDBCFF7FF0800F55012E0AD
:1009C000FD0EDBCFF6FFFE0EDBCFF7FF0800F55084
:1009D000E66E50EC01F0E552FD0EDB2AFE0E01E35F
:1009E000DB2AE5D788EC01F0E552E7CFD9FF12000A
:1009F000D9CFE6FFE1CFD9FF030EE126DF6A010E72
:100A0000DB6AFC0EDB50F36E010EDBCFF4FFF3501C
:100A1000F45C12E2010EDB50E76EFD0EDBCFE9FF66
:100A2000FE0EDBCFEAFFE750E926000EEA22EF5088
:100A3000DF1A010EDB2AE5D7DF500B6E030EE15CF7
:100A400003E200D0E16AE552E16E0B50E552E7CFD8
:040A5000D9FF1200B8
:0C0A5400DACFE4FFE2CFDAFFE9CFE4FFE5
:100A6000EACFE4FFF6CFE4FFF7CFE4FFF5CFE4FFF2
:100A7000F3CFE4FFF4CFE4FFFACFE4FF00EE00F0A1
:100A80000B0EE80403E3EECFE4FFFBD700EE0BF020
:100A9000020EE80403E3EECFE4FFFBD7E652F29444
:100AA0000E010C2B000E0D23102B11231207135BCC
:100AB000133504E212510008000E135508E3142BFD
:100AC000000E152316231723C80E126F136B025145
:100AD000031107E005D003CEFAFF0E010251F96EB3
:100AE000FADF00CEE6FF01CEE6FFECEC07F0E552C0
:100AF000E552E55200EE0CF0020EE80403E3E5CF08
:100B0000EDFFFBD700EE0AF00B0EE80403E3E5CFA0
:100B1000EDFFFBD7E5CFFAFFE5CFF4FFE5CFF3FF1D
:100B2000E5CFF5FFE5CFF7FFE5CFF6FFE5CFEAFF2D
:100B3000E5CFE9FFE5CFDAFF1100DACFE4FFE2CF3E
:100B4000DAFFE9CFE4FFEACFE4FFF6CFE4FFF7CF27
:100B5000E4FFF5CFE4FFF3CFE4FFF4CFE4FFFACFF7
:100B6000E4FF00EE00F00B0EE80403E3EECFE4FF39
:100B7000FBD700EE0BF0020EE80403E3EECFE4FF38
:100B8000FBD7E652D9CFE6FFE1CFD9FFE652CDEC55
:100B900007F0DF6E06014351432BEA6A460FE96E08
:100BA000060EEA22DFCFEFFF400E435D01E3436B09
:100BB000452B9E9AE552E552E7CFD9FFE55200EE6C
:100BC0000CF0020EE80403E3E5CFEDFFFBD700EEE7
:100BD0000AF00B0EE80403E3E5CFEDFFFBD7E5CF0A
:100BE000FAFFE5CFF4FFE5CFF3FFE5CFF5FFE5CF63
:100BF000F7FFE5CFF6FFE5CFEAFFE5CFE9FFE5CF69
:040C0000DAFF110006
:0C0C0400500EE66E0C0EE66EDD0EE66E85
:100C1000CC0EE66EBB0EE66EAA0EE66EFCEC02F0A3
:100C20000B6E060EE15E0B5012000F010A050CE17F
:100C30000B510C1105E180740A0E0B6F0C6B03D085
:100C40000B07000E0C5B03D080940B6B0C6B120037
:100C5000D9CFE6FFE1CFD9FF030EE126FD0EDBCFB2
:100C6000E9FFFE0EDBCFEAFF010EEFCFDBFF020E46
:100C7000DB6A010EDB50A10A0FE0010A01E017D088
:100C80000F01010E0A6FFB0EDBCFE9FFFC0EDBCF7D
:100C9000EAFFA00EEF6E0BD00F010A6BFB0EDBCF4D
:100CA000E9FFFC0EDBCFEAFFA10EEF6E00D0020ED3
:100CB000DB500B6E030EE15C03E200D0E16AE5520B
:0C0CC000E16E0B50E552E7CFD9FF1200A7
:040CCC00D9CFE6FF97
:100CD000E1CFD9FF9F0EE66E08EC08F0E552FD0E5D
:100CE000DBCF00FEFE0EDBCF01FEFB0EDBCF02FEF4
:100CF000FC0EDBCF03FEF194FD0EDBCFE6FFFE0E14
:100D0000DBCFE6FFECEC07F0E552E552E552E7CF2A
:100D1000D9FF1200D9CFE6FFE1CFD9FF040EE126BB
:100D2000F29A14CEDFFF010E15CEDBFF020E16CEB7
:100D3000DBFF030E17CEDBFFF28ADECF04F0DECF3F
:100D400005F0DECF06F0DDCF07F0DD52DD52040EF8
:100D5000E15C03E200D0E16AE552E16EE552E7CFE3
:100D6000D9FF1200F29E0E01146B156B166B176BF8
:040D7000F28E1200ED
:0C0D74002C0EF66E000EF76E000EF86EEE
:100D80000F010900F550056F0900F550066F03E1EA
:100D9000056701D03DD00900F550006F0900F550FE
:100DA000016F0900F550026F09000900F550E96E66
:100DB0000900F550EA6E090009000900F550036FBB
:100DC0000900F550046F09000900F6CF07FFF7CFBF
:100DD00008FFF8CF09FF00CFF6FF01CFF7FF02CFE2
:100DE000F8FF0F01035302E1045307E00900F55037
:100DF000EE6E0307F8E20407F9D707CFF6FF08CF36
:100E0000F7FF09CFF8FF0F010507000E065BBFD7FC
:020E10001200CE
:0E0E1200D9CFE6FFDACFE6FFE1CFD9FFE2CF7E
:100E2000DAFF726A716AFD0EDBB07288DBA202D053
:100E3000728C718CDBB4728EDBA602D0718801D00B
:100E4000718ADBA802D0728401D07294DBBA7186F9
:100E5000DBAC02D0A38A01D0A39ADBAE02D0A38878
:100E600001D0A398FB0EDB50756EFC0EDBCF0CF0AF
:100E70000CC00BF00C6A0B50766E728A718EE552C4
:0A0E8000E5CFDAFFE7CFD9FF12003B
:060E8A00D9CFE6FFDACF2C
:100E9000E6FFE1CFD9FFE2CFDAFFAC6AAB6AFD0E25
:100EA000DBB0AC88DBA202D0AC8CAB8CDBB4AC8EFC
:100EB000DBA602D0AB8801D0AB8ADBB8AC84DBBA4E
:100EC000AB86DBAC02D09D8A01D09D9ADBAE02D00E
:100ED0009D8801D09D98FB0EDB50AF6EFC0EDBCFE2
:100EE0000CF00CC00BF00C6A0B50B06EAC8AAB8EE1
:0C0EF000E552E5CFDAFFE7CFD9FF120092
:040EFC0024EC08F0EA
:100F000063EC08F0000EE66EE66AE00EE66EB10EE7
:100F1000E66E66EC06F0E552E552E552E55202EC6B
:100F200006F011EC00F03FEC03F00E01640E0C5DD6
:100F3000000E0D5905E30E010C6B0D6B66EC08F00D
:100F40000E010A0E105D000E115905E30E01106B23
:0C0F5000116B15EC06F00400E6D712004F
:040F5C00D9CFE6FF04
:100F6000DACFE6FFE1CFD9FFE2CFDAFFE652F20EA9
:100F70000F010F1771AC03D00F9171B00F8171B4D5
:100F80000F8571B20F877450DF6EDF50E552E55266
:0A0F9000E5CFDAFFE7CFD9FF12002A
:060F9A00D9CFE6FFDACF1B
:100FA000E6FFE1CFD9FFE2CFDAFFE652F20E0F0102
:100FB0001017ABAC03D01091ABB01081ABB410855F
:100FC000ABB21087AE50DF6EDF50E552E552E5CF91
:080FD000DAFFE7CFD9FF1200A0
:080FD800D9CFE6FFDACFE6FFF6
:100FE000E1CFD9FFE2CFDAFFE652E652FC0EDBCFCB
:100FF000DEFFDBCFDDFF010EDB50D76EDF50D66E9C
:10100000E552E552E552E5CFDAFFE7CFD9FF12000E
:10101000D9CFE6FFDACFE6FFE1CFD9FFE2CFDAFFA3
:10102000FD0EDB507F0BD56ED76AD66AF294FD0EAB
:10103000DBAE02D0F28A01D0F29AD58EE552E5CF2E
:08104000DAFFE7CFD9FF12002F
:08104800C26A0F01386B396B1D
:101050003A6B3B6B3C6B700ED36E96908D90949078
:0A106000949C948E929480941200E8
:06106A00FF0EE3500D6EC5
:10107000480E01D04C0EE76EE72EFED7E76AE72E4A
:0A108000FED70D2EF7D70000120076
:06108A00380EF36E00EECB
:1010900000F00F0E01D81200EA6002D0EE6AFCD711
:0A10A000F350E9601200EE6AFCD77D
:0610AA0010EE60F020EEE4
:1010B00060F0F86A0A9CBAEC06F003EC00F07EECF3
:0610C00007F0FBD712004F
:0A10C6000F01126B12000F0112055A
:1010D00003E1126B8D9003D0010E126F8D80120010
:1010E000FF0EE350E84E1200000000D000D000D008
:0610F000E82EFAD7120001
:0A10F60000000000000000000000F0
:1011000000000000000000000000000000000000DF
:1011100000000000000000000000000000000000CF
:1011200000000000000000000000000000000000BF
:1011300000000000000000000000000000000000AF
:10114000000000000000000000000000000000009F
:10115000000000000000000000000000000000008F
:10116000000000000000000000000000000000007F
:0C11700000000000000000000000000073
:04117C00000000006F
:101180000000000000000000000000000000C80097
:04119000000000005B
:0C1194000000000000000000000000004F
:1011A000000000000000000000000000000000003F
:1011B000000000000000000000000000000000002F
:1011C000000000000000000000000000000000001F
:1011D000000000000000000000000000000000000F
:1011E00000000000000000000000000000000000FF
:1011F00000000000000000000000000000000000EF
:1012000000000000000000000000000000000000DE
:1012100000000000000000000000000000000000CE
:081220000000000000000000C6
:020000040030CA
:0100010008F6
:0100020001FC
:0100030024D8
:01000500BD3D
:010006008079
:010008000FE8
:01000900C036
:01000A000FE6
:01000B00E014
:01000C000FE4
:01000D0040B2
:00000001FF
