:020000040000FA
:06000000EEEF29F01200F2
:020006002C01CB
:080008009EAA02D01EEF25F0B4
:020010001200DC
:06001200A6B2FED71200A9
:08001800F2A402D093EF24F0E2
:0C0020001200D08E9F8AF28EF28C12002B
:04002C000C00F55D72
:100030000000D30D00001C000000F35D0000FB0D6C
:100040000000020000001F540000000F000001002B
:100050000000F15D0000F90D000002000000D4591D
:100060000000000100001D04000040590000000BCA
:10007000000094000000F75800008A0D00004900BD
:100080000000D55800001E0E000022000000505550
:100090000000000600008503000032550000000E3D
:1000A00000001E000000AC5400008509000086001E
:0E00B000000022540000000D00008A00000035
:0200BE00D9CF98
:1000C000E6FFE1CFD9FF0A0EE126050EDB6A060E38
:1000D000DB6A070EDB6A080EDB6A090EDB6A0101C8
:1000E000036B046B056B066B0101076B086B096BF7
:1000F0000A6B0601046BDE6ADD6ADECF14F0DDCF29
:1001000015F0200E145C000E155801E39ED0DECFD2
:1001100014F0DDCF15F0050ED89014361536E8062C
:10012000FBE1170E1426010E1522030E14C0DBFF8F
:10013000040E15C0DBFF020EDB6A200EF36E020E0A
:10014000DBCFF4FFF350F45C35E209EC00F004007F
:10015000020EDB50166E176A200E086E096ADECF9B
:100160000DF0DDCF0EF069EC29F006501624146E68
:1001700007501720156E14C0E6FF15C0E6FFB3EC5C
:1001800028F0E552E552E66E020EDB50E76E030EF4
:10019000DBCFE9FF040EDBCFEAFFE750E926000ED4
:1001A000EA22E552E750EF6E09EC00F00400020E7F
:1001B000DB2AC3D7DECFE9FFDDCFEAFF050ED890FB
:1001C000E936EA36E806FBE1170EE926010EEA22D7
:1001D0001E0EE926000EEA22EF0402E10101012BC6
:1001E000DECFE9FFDDCFEAFF050ED890E936EA362B
:1001F000E806FBE1170EE926010EEA221E0EE926AB
:10020000000EEA22EF50030802E10101022BDECFCB
:10021000E9FFDDCFEAFF050ED890E936EA36E806B9
:10022000FBE1170EE926010EEA221F0EE926000E59
:10023000EA22EF0405E1010EF36E050EF3CFDBFFBA
:10024000DF2A010E01E3DB2A58D701010251000821
:1002500006E2010EF36E080EF3CFDBFF0FD00101B3
:100260000151000806E2010EF36E070EF3CFDBFF2B
:1002700005D0010EF36E060EF3CFDBFF050EDB0497
:1002800005E1010EF36E090EF3CFDBFF0101310E24
:100290000D6F0101300E0E6F0101300E0F6F010165
:1002A000330E106F0101116B0501060E196F09EC79
:1002B00000F00400E66AE66AE66AE66AB2EC12F06A
:1002C000E552E552E552E55231D80501010E176FAE
:1002D000090EDBCFE6FF080EDBCFE6FF070EDBCF14
:1002E000E6FF060EDBCFE6FFB2EC12F0E552E55278
:1002F000E552E552C20EE66E2A0EE66EDD0EE66EA1
:10030000CC0EE66EBB0EE66EAA0EE66E1DEC1EF07F
:10031000146E060EE15E14500A0EE15C02E2E16A20
:10032000E552E16EE552E7CFD9FF1200D9CFE6FFE3
:10033000E1CFD9FF050EE126DF6A010EDB6A020E6E
:10034000DB6A030EDB6A01010251000809E20101C8
:10035000030E006F010EF36E020EF3CFDBFF11D020
:1003600001010151000807E20101010E006FDE5298
:10037000010EDD6E06D00101006B010EDF6E030E73
:10038000DB6A040EDB6A200EF36E040EDBCFF4FF93
:10039000F350F45C1AE2040EDB50200DF3CFE9FFBA
:1003A000F4CFEAFF170EE926010EEA221F0EE92616
:1003B000000EEA22EF0406E1010EF36E030EF3CF06
:1003C000DBFF03D0040EDB2ADED7030EDBCFE6FF14
:1003D000020EDBCFE6FF010EDBCFE6FFDFCFE6FF4D
:1003E000B2EC12F0E552E552E552E552050EE15C41
:1003F00002E2E16AE552E16EE552E7CFD9FF120071
:10040000D9CFE6FFE1CFD9FF050EE126DF6A010E65
:10041000DB6A020EDB6A030EDB6A0101025100088F
:1004200009E20101030E006F010EF36E020EF3CF1D
:10043000DBFF11D001010151000807E20101010EAB
:10044000006FDE52010EDD6E06D00101006B010E61
:10045000DF6E030EDB6A030EDBCFE6FF020EDBCF9F
:10046000E6FF010EDBCFE6FFDFCFE6FFB2EC12F0D6
:10047000E552E552E552E5520501010E176F010EF6
:1004800000D0146E050EE15C02E2E16AE552E16E15
:100490001450E552E7CFD9FF1200D9CFE6FFE1CFE4
:1004A000D9FF050EE126DF6A010EDB6A020EDB6A68
:1004B000030EDB6AFD0EDBCFE6FFFE0EDBCFE6FFB1
:1004C000120EE66E010EE66E40EC26F0E552E552A5
:1004D000E552E552000902E0000E1FD0030EDBCF0B
:1004E000E6FF020EDBCFE6FF010EDBCFE6FFDFCF3C
:1004F000E6FFB2EC12F0E552E552E552E552FB0E92
:10050000DBCFE6FFFC0EDBCFE6FF60EC12F0E5523E
:10051000E5520501176B010E00D0146E050EE15C6B
:1005200002E2E16AE552E16E1450E552E7CFD9FFED
:100530001200D9CFE6FFE1CFD9FF090EE126010E67
:10054000F36E080EF3CFDBFF83EC27F006C007F154
:1005500007C008F108C009F109C00AF1030EE96EED
:10056000010EEA6EEE50010107190CE1EE50010197
:10057000081908E1EE500101091904E1EE500101EA
:100580000A1900E101E1C3D007C103F108C104F178
:1005900009C105F10AC106F1DF6A200EDF5C01E343
:1005A000A4D0DF50200DF3CFE9FFF4CFEAFF170E00
:1005B000E926010EEA221E0EE926000EEA22EF04C9
:1005C00001E091D0DF50200DF3CFE9FFF4CFEAFF37
:1005D000170EE926010EEA221C0EE926000EEA2279
:1005E000EE06000EED5ADF50200DF3CFE9FFF4CFF9
:1005F000EAFF170EE926010EEA221C0EE926000E7C
:10060000EA22E9CF14F0EACF15F0010E14C0DBFFA7
:10061000020E15C0DBFF010EDBCFE9FF020EDBCFC0
:10062000EAFF030EEFCFDBFF200EDF02F3501C0FBB
:10063000146E040E14C0DBFF050EDB6A060EDB6AC7
:10064000070EDB6A010EDBCFE9FF020EDBCFEAFF0C
:10065000EF50E66E200EDF02F3501C0FE66EE66AE6
:1006600002EC28F0E552E552E55209EC00F00400F6
:10067000010EE76E010EDBCFE9FF020EDBCFEAFFD2
:10068000E750E926000EEA22030EEFCFDBFF200E33
:10069000DF02F3501C0F010F146E040E14C0DBFFB9
:1006A000050EDB6A060EDB6A070EDB6A010EE76EDB
:1006B000010EDBCFE9FF020EDBCFEAFFE750E926B0
:1006C000000EEA22EF50E66E200EDF02F3501C0F00
:1006D000010FE66EE66A02EC28F0E552E552E552BB
:1006E00009EC00F00400DF2A58D7B9EC13F0010838
:1006F00006E180840101015102E180928090050EA3
:1007000005011C5D04E305011C6B14EC16F00501EA
:100710001C2B090EE15C02E2E16AE552E16EE55252
:10072000E7CFD9FF1200D9CFE6FFE1CFD9FF050E01
:10073000E126FD0EDBCFE9FFFE0EDBCFEAFF200E48
:10074000E926000EEA22EF28DF6E010EDB6A020EB8
:10075000F36E020EF3CFDBFF200EDF5C01E3DF6AF6
:10076000FD0EDBCFE9FFFE0EDBCFEAFF200EE92610
:10077000000EEA22EF68030EDB6A200EF36E030E12
:10078000DBCFF4FFF350F45C01E354D3DF501F0BD5
:10079000DF6EDF50200DF3CFE9FFF4CFEAFF170E35
:1007A000E926010EEA221E0EE926000EEA22EF508B
:1007B00010E0DF50200DF3CFE9FFF4CFEAFF170E72
:1007C000E926010EEA221F0EE926000EEA22EF506A
:1007D00001E12CD3DF50200DF3CFE9FFF4CFEAFF86
:1007E000170EE926010EEA22E9CF14F0EACF15F040
:1007F000020EDB500F011424E96E000E1520EA6E84
:10080000EF502A0A01E1EED2130A01E19DD2010A5A
:1008100001E14CD20F0A01E1FBD1010A01E1AAD1A9
:10082000030A01E159D1010A01E1F2D0070A01E10D
:10083000A1D0010A51E0030A01E0D5D2D5CD14F0D0
:10084000D6CD15F0166A14C0E6FF15C0E6FF16C037
:10085000E6FFFD0EDBCFE9FFFE0EDBCFEAFFE9CFBF
:1008600019F0EACF1AF0010EDB5000011924176EBF
:10087000000E1A20186E17C0E6FF18C0E6FF81ECC4
:1008800026F01B6E050EE15E1B50FD0EDBCFE9FF6F
:10089000FE0EDBCFEAFFE9CF16F0EACF17F0010E2C
:1008A000DB5000011624146E000E1720156E14C0C4
:1008B000E6FF15C0E6FF9AEC26F0E552E552040E7D
:1008C000F3CFDBFF010EDBCFE7FF040EDB50E726A3
:1008D000010EE7CFDBFF88D2D7CD14F0D8CD15F0CD
:1008E000166A14C0E6FF15C0E6FF16C0E6FFFD0E4F
:1008F000DBCFE9FFFE0EDBCFEAFFE9CF19F0EACF4D
:100900001AF0010EDB5000011924176E000E1A2098
:10091000186E17C0E6FF18C0E6FF81EC26F01B6ECC
:10092000050EE15E1B50FD0EDBCFE9FFFE0EDBCFB7
:10093000EAFFE9CF16F0EACF17F0010EDB50000115
:100940001624146E000E1720156E14C0E6FF15C095
:10095000E6FF9AEC26F0E552E552040EF3CFDBFFFA
:10096000010EDBCFE7FF040EDB50E726010EE7CFD9
:10097000DBFF3AD2D9CD14F0DACD15F0166A14C0E7
:10098000E6FF15C0E6FF16C0E6FFFD0EDBCFE9FF70
:10099000FE0EDBCFEAFFE9CF19F0EACF1AF0010E25
:1009A000DB5000011924176E000E1A20186E17C0B4
:1009B000E6FF18C0E6FF81EC26F01B6E050EE15E37
:1009C0001B50FD0EDBCFE9FFFE0EDBCFEAFFE9CFC8
:1009D00016F0EACF17F0010EDB5000011624146E5A
:1009E000000E1720156E14C0E6FF15C0E6FF9AEC46
:1009F00026F0E552E552040EF3CFDBFF010EDBCF0C
:100A0000E7FF040EDB50E726010EE7CFDBFFECD15A
:100A1000FD0EDBCFE9FFFE0EDBCFEAFFE9CF14F0DE
:100A2000EACF15F0010EDBCFF3FFDB2AF3500F0105
:100A30001424E96E000E1520EA6E230EEF6E020EEE
:100A4000DB2ADF50200DF3CFE9FFF4CFEAFF170ECA
:100A5000E926010EEA22E9CF14F0EACF15F0020EE2
:100A6000DB500F011424E96E000E1520EA6EEF50E2
:100A700032E0DF50200DF3CFE9FFF4CFEAFF170E8D
:100A8000E926010EEA22E9CF16F0EACF17F0020EAE
:100A9000DB500F011624E96E000E1720EA6EEF50AE
:100AA000E66EFD0EDBCFE9FFFE0EDBCFEAFFE9CFFE
:100AB00014F0EACF15F0010EDB500F011424E96E9B
:100AC000000E1520EA6EE552E750EF6E010EDB2AAC
:100AD000020EDB2AB6D788D1DDCD14F0DECD15F0BD
:100AE000166A14C0E6FF15C0E6FF16C0E6FFFD0E4D
:100AF000DBCFE9FFFE0EDBCFEAFFE9CF19F0EACF4B
:100B00001AF0010EDB5000011924176E000E1A2096
:100B1000186E17C0E6FF18C0E6FF81EC26F01B6ECA
:100B2000050EE15E1B50FD0EDBCFE9FFFE0EDBCFB5
:100B3000EAFFE9CF16F0EACF17F0010EDB50000113
:100B40001624146E000E1720156E14C0E6FF15C093
:100B5000E6FF9AEC26F0E552E552040EF3CFDBFFF8
:100B6000010EDBCFE7FF040EDB50E726010EE7CFD7
:100B7000DBFF3AD1DFCD14F0E0CD15F0166A14C0DA
:100B8000E6FF15C0E6FF16C0E6FFFD0EDBCFE9FF6E
:100B9000FE0EDBCFEAFFE9CF19F0EACF1AF0010E23
:100BA000DB5000011924176E000E1A20186E17C0B2
:100BB000E6FF18C0E6FF81EC26F01B6E050EE15E35
:100BC0001B50FD0EDBCFE9FFFE0EDBCFEAFFE9CFC6
:100BD00016F0EACF17F0010EDB5000011624146E58
:100BE000000E1720156E14C0E6FF15C0E6FF9AEC44
:100BF00026F0E552E552040EF3CFDBFF010EDBCF0A
:100C0000E7FF040EDB50E726010EE7CFDBFFECD059
:100C1000E1CD14F0E2CD15F0166A14C0E6FF15C060
:100C2000E6FF16C0E6FFFD0EDBCFE9FFFE0EDBCFD1
:100C3000EAFFE9CF19F0EACF1AF0010EDB5000010C
:100C40001924176E000E1A20186E17C0E6FF18C080
:100C5000E6FF81EC26F01B6E050EE15E1B50FD0EDB
:100C6000DBCFE9FFFE0EDBCFEAFFE9CF16F0EACFDC
:100C700017F0010EDB5000011624146E000E172031
:100C8000156E14C0E6FF15C0E6FF9AEC26F0E5529B
:100C9000E552040EF3CFDBFF010EDBCFE7FF040EBE
:100CA000DB50E726010EE7CFDBFF9ED0E3CD14F04B
:100CB000E4CD15F0166A14C0E6FF15C0E6FF16C0B5
:100CC000E6FFFD0EDBCFE9FFFE0EDBCFEAFFE9CF4B
:100CD00019F0EACF1AF0010EDB5000011924176E4B
:100CE000000E1A20186E17C0E6FF18C0E6FF81EC50
:100CF00026F01B6E050EE15E1B50FD0EDBCFE9FFFB
:100D0000FE0EDBCFEAFFE9CF16F0EACF17F0010EB7
:100D1000DB5000011624146E000E1720156E14C04F
:100D2000E6FF15C0E6FF9AEC26F0E552E552040E08
:100D3000F3CFDBFF010EDBCFE7FF040EDB50E7262E
:100D4000010EE7CFDBFF50D0E5CD14F0E6CD15F076
:100D5000166A14C0E6FF15C0E6FF16C0E6FFFD0EDA
:100D6000DBCFE9FFFE0EDBCFEAFFE9CF19F0EACFD8
:100D70001AF0010EDB5000011924176E000E1A2024
:100D8000186E17C0E6FF18C0E6FF81EC26F01B6E58
:100D9000050EE15E1B50FD0EDBCFE9FFFE0EDBCF43
:100DA000EAFFE9CF16F0EACF17F0010EDB500001A1
:100DB0001624146E000E1720156E14C0E6FF15C021
:100DC000E6FF9AEC26F0E552E552040EF3CFDBFF86
:100DD000010EDBCFE7FF040EDB50E726010EE7CF65
:100DE000DBFF02D023D000D0FD0EDBCFE9FFFE0EEB
:100DF000DBCFEAFFE9CF14F0EACF15F0010EDB50AC
:100E00000F011424E96E000E1520EA6EEF6ADFCFA1
:100E100018F5FD0EDBCFE9FFFE0EDBCFEAFF200E5B
:100E2000E926000EEA2218C5EFFF04D0030EDB2AE4
:100E3000DF2AA3D4050EE15C02E2E16AE552E16E2D
:100E4000E552E7CFD9FF1200D9CFE6FFE1CFD9FFB6
:100E5000050EE126FD0EDBCFE9FFFE0EDBCFEAFF3C
:100E6000200EE926000EEA22EF28DF6E010EDB6A73
:100E7000020EF36E020EF3CFDBFF200EDF5C01E308
:100E8000DF6AFD0EDBCFE9FFFE0EDBCFEAFF200EAF
:100E9000E926000EEA22EF68030EDB6A200EF36EED
:100EA000030EDBCFF4FFF350F45C01E354D3DF50C7
:100EB0001F0BDF6EDF50200DF3CFE9FFF4CFEAFF09
:100EC000170EE926010EEA221E0EE926000EEA227E
:100ED000EF5010E0DF50200DF3CFE9FFF4CFEAFF31
:100EE000170EE926010EEA221F0EE926000EEA225D
:100EF000EF0401E12CD3DF50200DF3CFE9FFF4CF55
:100F0000EAFF170EE926010EEA22E9CF14F0EACF34
:100F100015F0020EDB500F011424E96E000E1520AF
:100F2000EA6EEF502A0A01E1EED2130A01E19DD2E6
:100F3000010A01E14CD20F0A01E1FBD1010A01E1F2
:100F4000AAD1030A01E159D1010A01E1F2D0070A4D
:100F500001E1A1D0010A51E0030A01E0D5D2D5CDCB
:100F600014F0D6CD15F0166A14C0E6FF15C0E6FFE2
:100F700016C0E6FFFD0EDBCFE9FFFE0EDBCFEAFF7A
:100F8000E9CF19F0EACF1AF0010EDB500001192465
:100F9000176E000E1A20186E17C0E6FF18C0E6FF85
:100FA00081EC26F01B6E050EE15E1B50FD0EDBCFC3
:100FB000E9FFFE0EDBCFEAFFE9CF16F0EACF17F02C
:100FC000010EDB5000011624146E000E1720156E62
:100FD00014C0E6FF15C0E6FF9AEC26F0E552E55294
:100FE000040EF3CFDBFF010EDBCFE7FF040EDB5077
:100FF000E726010EE7CFDBFF88D2D7CD14F0D8CD9E
:1010000015F0166A14C0E6FF15C0E6FF16C0E6FF2D
:10101000FD0EDBCFE9FFFE0EDBCFEAFFE9CF19F0D3
:10102000EACF1AF0010EDB5000011924176E000EF2
:101030001A20186E17C0E6FF18C0E6FF81EC26F0F4
:101040001B6E050EE15E1B50FD0EDBCFE9FFFE0EB1
:10105000DBCFEAFFE9CF16F0EACF17F0010EDB5045
:1010600000011624146E000E1720156E14C0E6FF42
:1010700015C0E6FF9AEC26F0E552E552040EF3CFD8
:10108000DBFF010EDBCFE7FF040EDB50E726010E8E
:10109000E7CFDBFF3AD2D9CD14F0DACD15F0166ADE
:1010A00014C0E6FF15C0E6FF16C0E6FFFD0EDBCF5D
:1010B000E9FFFE0EDBCFEAFFE9CF19F0EACF1AF025
:1010C000010EDB5000011924176E000E1A20186E55
:1010D00017C0E6FF18C0E6FF81EC26F01B6E050E78
:1010E000E15E1B50FD0EDBCFE9FFFE0EDBCFEAFF1A
:1010F000E9CF16F0EACF17F0010EDB5000011624FD
:10110000146E000E1720156E14C0E6FF15C0E6FF22
:101110009AEC26F0E552E552040EF3CFDBFF010E08
:10112000DBCFE7FF040EDB50E726010EE7CFDBFF46
:10113000ECD1FD0EDBCFE9FFFE0EDBCFEAFFE9CFFE
:1011400014F0EACF15F0010EDBCFF3FFDB2AF350EA
:101150000F011424E96E000E1520EA6E230EEF6EC7
:10116000020EDB2ADF50200DF3CFE9FFF4CFEAFFB8
:10117000170EE926010EEA22E9CF14F0EACF15F0A6
:10118000020EDB500F011424E96E000E1520EA6EEA
:10119000EF5032E0DF50200DF3CFE9FFF4CFEAFF4C
:1011A000170EE926010EEA22E9CF16F0EACF17F072
:1011B000020EDB500F011624E96E000E1720EA6EB6
:1011C000EF50E66EFD0EDBCFE9FFFE0EDBCFEAFF50
:1011D000E9CF14F0EACF15F0010EDB500F01142413
:1011E000E96E000E1520EA6EE552E750EF6E010E33
:1011F000DB2A020EDB2AB6D788D1DDCD14F0DECD96
:1012000015F0166A14C0E6FF15C0E6FF16C0E6FF2B
:10121000FD0EDBCFE9FFFE0EDBCFEAFFE9CF19F0D1
:10122000EACF1AF0010EDB5000011924176E000EF0
:101230001A20186E17C0E6FF18C0E6FF81EC26F0F2
:101240001B6E050EE15E1B50FD0EDBCFE9FFFE0EAF
:10125000DBCFEAFFE9CF16F0EACF17F0010EDB5043
:1012600000011624146E000E1720156E14C0E6FF40
:1012700015C0E6FF9AEC26F0E552E552040EF3CFD6
:10128000DBFF010EDBCFE7FF040EDB50E726010E8C
:10129000E7CFDBFF3AD1DFCD14F0E0CD15F0166AD1
:1012A00014C0E6FF15C0E6FF16C0E6FFFD0EDBCF5B
:1012B000E9FFFE0EDBCFEAFFE9CF19F0EACF1AF023
:1012C000010EDB5000011924176E000E1A20186E53
:1012D00017C0E6FF18C0E6FF81EC26F01B6E050E76
:1012E000E15E1B50FD0EDBCFE9FFFE0EDBCFEAFF18
:1012F000E9CF16F0EACF17F0010EDB5000011624FB
:10130000146E000E1720156E14C0E6FF15C0E6FF20
:101310009AEC26F0E552E552040EF3CFDBFF010E06
:10132000DBCFE7FF040EDB50E726010EE7CFDBFF44
:10133000ECD0E1CD14F0E2CD15F0166A14C0E6FF52
:1013400015C0E6FF16C0E6FFFD0EDBCFE9FFFE0E7F
:10135000DBCFEAFFE9CF19F0EACF1AF0010EDB503C
:1013600000011924176E000E1A20186E17C0E6FF30
:1013700018C0E6FF81EC26F01B6E050EE15E1B50E7
:10138000FD0EDBCFE9FFFE0EDBCFEAFFE9CF16F063
:10139000EACF17F0010EDB5000011624146E000E88
:1013A0001720156E14C0E6FF15C0E6FF9AEC26F074
:1013B000E552E552040EF3CFDBFF010EDBCFE7FF72
:1013C000040EDB50E726010EE7CFDBFF9ED0E3CD16
:1013D00014F0E4CD15F0166A14C0E6FF15C0E6FF60
:1013E00016C0E6FFFD0EDBCFE9FFFE0EDBCFEAFF06
:1013F000E9CF19F0EACF1AF0010EDB5000011924F1
:10140000176E000E1A20186E17C0E6FF18C0E6FF10
:1014100081EC26F01B6E050EE15E1B50FD0EDBCF4E
:10142000E9FFFE0EDBCFEAFFE9CF16F0EACF17F0B7
:10143000010EDB5000011624146E000E1720156EED
:1014400014C0E6FF15C0E6FF9AEC26F0E552E5521F
:10145000040EF3CFDBFF010EDBCFE7FF040EDB5002
:10146000E726010EE7CFDBFF50D0E5CD14F0E6CD47
:1014700015F0166A14C0E6FF15C0E6FF16C0E6FFB9
:10148000FD0EDBCFE9FFFE0EDBCFEAFFE9CF19F05F
:10149000EACF1AF0010EDB5000011924176E000E7E
:1014A0001A20186E17C0E6FF18C0E6FF81EC26F080
:1014B0001B6E050EE15E1B50FD0EDBCFE9FFFE0E3D
:1014C000DBCFEAFFE9CF16F0EACF17F0010EDB50D1
:1014D00000011624146E000E1720156E14C0E6FFCE
:1014E00015C0E6FF9AEC26F0E552E552040EF3CF64
:1014F000DBFF010EDBCFE7FF040EDB50E726010E1A
:10150000E7CFDBFF02D023D000D0FD0EDBCFE9FF19
:10151000FE0EDBCFEAFFE9CF14F0EACF15F0010EA3
:10152000DB500F011424E96E000E1520EA6EEF6AFD
:10153000DFCF18F5FD0EDBCFE9FFFE0EDBCFEAFFB4
:10154000200EE926000EEA2218C5EFFF04D0030E94
:10155000DB2ADF2AA3D4050EE15C02E2E16AE55250
:10156000E16EE552E7CFD9FF1200D9CFE6FFE1CF18
:10157000D9FF070EE126FE0EDB50200DF3CFE9FF69
:10158000F4CFEAFF170EE926010EEA221E0EE92625
:10159000000EEA22EF5033E0FE0EDB50200DF3CFB9
:1015A000E9FFF4CFEAFF170EE926010EEA22E9CFA0
:1015B00014F0EACF15F014C0E6FF15C0E6FF050EE3
:1015C000DBCFE6FF060EDBCFE6FF40EC26F0E55270
:1015D000E552E552E552000912E1FE0EDB50200D06
:1015E000F3CFE9FFF4CFEAFF170EE926010EEA2256
:1015F0001F0EE926000EEA22EF0401E167D1FE0E7C
:10160000DB50200DF3CFE9FFF4CFEAFF170EE926F8
:10161000010EEA22E9CF14F0EACF15F0050E14C04E
:10162000DBFF060E15C0DBFF01010051030A01E1DB
:1016300088D0020A01E032D1050EDBCFE6FF060EAC
:10164000DBCFE6FF07EC13F0E552E552E76E020E42
:10165000E7CFDBFF020EDB50FF0872E0050EDBCFA9
:10166000E6FF060EDBCFE6FF60EC12F0E552E55236
:101670001C0EE66EE66AE66A020EDB50200DF3CF22
:10168000E9FFF4CFEAFF170EE926010EEA22E9CFBF
:1016900014F0EACF15F014C0E6FF15C0E6FF26EC03
:1016A00026F0166E050EE15E16500400020EDB50A9
:1016B000200DF3CF14F0F4CF15F0170E1426010E01
:1016C0001522030E14C0DBFF040E15C0DBFF010E54
:1016D000DB6A200EF36E010EDBCFF4FFF350F45CF7
:1016E00025E2010EDB50E76E030EDBCFE9FF040EAF
:1016F000DBCFEAFFE750E926000EEA22EF50E66E64
:10170000010EDBCFE6FF020EDB50200DF350E55259
:10171000E724E66EE66A02EC28F0E552E552E5526F
:1017200009EC00F00400010EDB2AD3D701010151BE
:1017300006E10101006BE66AD0EC12F0E552C6D07A
:10174000AED0050EDBCFE6FF060EDBCFE6FF07ECE3
:1017500013F0E552E552E76E020EE7CFDBFF020E13
:10176000DB50FF0801E199D0050EDBCFE6FF060E46
:10177000DBCFE6FF60EC12F0E552E5521C0EE66EA0
:10178000E66AE66A020EDB50200DF3CFE9FFF4CFE4
:10179000EAFF170EE926010EEA22E9CF14F0EACF9C
:1017A00015F014C0E6FF15C0E6FF26EC26F0166E15
:1017B000050EE15E16500400020EDB50200DF3CF43
:1017C00014F0F4CF15F0170E1426010E1522030E97
:1017D00014C0DBFF040E15C0DBFF010EDB6A200E18
:1017E000F36E010EDBCFF4FFF350F45C25E2010E43
:1017F000DB50E76E030EDBCFE9FF040EDBCFEAFF21
:10180000E750E926000EEA22EF50E66E010EDBCF2C
:10181000E6FF020EDB50200DF350E552E724E66EA2
:10182000E66A02EC28F0E552E552E55209EC00F0D8
:101830000400010EDB2AD3D70101025112E101019C
:10184000015107E10101006BE66AD0EC12F0E552AC
:1018500007D00101010E006FE66AD0EC12F0E552EC
:101860001BD0010101510CE1E66A010EE66EE66A49
:10187000E66AB2EC12F0E552E552E552E5520CD0C0
:10188000E66A010EE66E010EE66EE66AB2EC12F052
:10189000E552E552E552E55219D001D000D0DF6A99
:1018A000200EDF5C13E2DF50200DF3CFE9FFF4CF11
:1018B000EAFF170EE926010EEA221F0EE926000EA6
:1018C000EA22EF0401E102D0DF2AEAD7070EE15C49
:1018D00002E2E16AE552E16EE552E7CFD9FF12007C
:1018E000D9CFE6FFE1CFD9FF070EE126FE0EDB5090
:1018F000200DF3CFE9FFF4CFEAFF170EE926010E22
:10190000EA221E0EE926000EEA22EF5033E0FE0E18
:10191000DB50200DF3CFE9FFF4CFEAFF170EE926E5
:10192000010EEA22E9CF14F0EACF15F014C0E6FF69
:1019300015C0E6FF050EDBCFE6FF060EDBCFE6FFA8
:1019400040EC26F0E552E552E552E552000912E17D
:10195000FE0EDB50200DF3CFE9FFF4CFEAFF170EA8
:10196000E926010EEA221F0EE926000EEA22EF0404
:1019700001E1B9D1FE0EDB50200DF3CFE9FFF4CF2A
:10198000EAFF170EE926010EEA22E9CF14F0EACFAA
:1019900015F0050E14C0DBFF060E15C0DBFF0101BC
:1019A0000051030A01E19ED0020A01E084D1050E34
:1019B000DBCFE6FF060EDBCFE6FF07EC13F0E552C8
:1019C000E552E76E020EE7CFDBFF020EDB50FF08A9
:1019D00001E187D0050EDBCFE6FF060EDBCFE6FF89
:1019E00060EC12F0E552E5521C0EE66EE66AE66A1D
:1019F000020EDB50200DF3CFE9FFF4CFEAFF170E04
:101A0000E926010EEA22E9CF14F0EACF15F014C05E
:101A1000E6FF15C0E6FF26EC26F0166E050EE15E29
:101A200016500400020EDB50200DF3CF14F0F4CF5B
:101A300015F0170E1426010E1522030E14C0DBFF3D
:101A4000040E15C0DBFF010EDB6A200EF36E010EE3
:101A5000DBCFF4FFF350F45C25E2010EDB50E76EC0
:101A6000030EDBCFE9FF040EDBCFEAFFE750E926E8
:101A7000000EEA22EF50E66E010EDBCFE6FF020E0B
:101A8000DB50200DF350E552E724E66EE66A02ECE7
:101A900028F0E552E552E55209EC00F00400010E91
:101AA000DB2AD3D7010101511BE10101006B0501C4
:101AB0001A050BE1E66AE66AE66AE668B2EC12F03D
:101AC000E552E552E552E5520BD0E66AE66AE66A6F
:101AD000010EE66EB2EC12F0E552E552E552E55227
:101AE00002D1EAD0050EDBCFE6FF060EDBCFE6FF24
:101AF00007EC13F0E552E552E76E020EE7CFDBFF8D
:101B0000020EDB50FF0801E1D5D0050EDBCFE6FF6A
:101B1000060EDBCFE6FF60EC12F0E552E5521C0E3C
:101B2000E66EE66AE66A020EDB50200DF3CFE9FFAF
:101B3000F4CFEAFF170EE926010EEA22E9CF14F0EE
:101B4000EACF15F014C0E6FF15C0E6FF26EC26F03C
:101B5000166E050EE15E16500400020EDB50200DDD
:101B6000F3CF14F0F4CF15F0170E1426010E152242
:101B7000030E14C0DBFF040E15C0DBFF010EDB6A91
:101B8000200EF36E010EDBCFF4FFF350F45C25E280
:101B9000010EDB50E76E030EDBCFE9FF040EDBCF57
:101BA000EAFFE750E926000EEA22EF50E66E010E4A
:101BB000DBCFE6FF020EDB50200DF350E552E724A9
:101BC000E66EE66A02EC28F0E552E552E55209ECD1
:101BD00000F00400010EDB2AD3D7010102512FE1EE
:101BE000010101510EE10101006BE66AE66AE66A55
:101BF000010EE66EB2EC12F0E552E552E552E55206
:101C00001DD00101010E006F05011A050CE1E66A05
:101C1000E66A010EE66EE668B2EC12F0E552E552B5
:101C2000E552E5520BD0E66AE66A010EE66EE66A18
:101C3000B2EC12F0E552E552E552E5523AD001011C
:101C400001511BE105011A050CE1E66A010EE66E81
:101C5000E66AE668B2EC12F0E552E552E552E5526A
:101C60000BD0E66A010EE66EE66AE66AB2EC12F0A6
:101C7000E552E552E552E5521CD005011A050DE189
:101C8000E66A010EE66E010EE66EE668B2EC12F050
:101C9000E552E552E552E5520CD0E66A010EE66ED9
:101CA000010EE66EE66AB2EC12F0E552E552E5523C
:101CB000E55219D001D000D0DF6A200EDF5C13E2BC
:101CC000DF50200DF3CFE9FFF4CFEAFF170EE9262E
:101CD000010EEA221F0EE926000EEA22EF0401E1BE
:101CE00002D0DF2AEAD7070EE15C02E2E16AE552A0
:101CF000E16EE552E7CFD9FF1200D9CFE6FFE1CF81
:101D0000D9FF05011A0507E1E66AD0EC12F0E552A9
:101D100005011A6B08D0010EE66ED0EC12F0E55208
:101D20000501010E1A6FE552E7CFD9FF1200D9CF96
:101D3000E6FFE1CFD9FF050EE126DF6A200EDF5C6A
:101D400033E2DF50200DF3CFE9FFF4CFEAFF170EA7
:101D5000E926010EEA221E0EE926000EEA22EF50C5
:101D600021E0DF50200DF3CFE9FFF4CFEAFF170E9B
:101D7000E926010EEA22E9CF14F0EACF15F014C0EB
:101D8000E6FF15C0E6FFFD0EDBCFE6FFFE0EDBCF64
:101D9000E6FF40EC26F0E552E552E552E552000937
:101DA00001E1FAD0DF2ACAD7DF6A200EDF5C01E347
:101DB000EDD0DF50200DF3CFE9FFF4CFEAFF170E8F
:101DC000E926010EEA221E0EE926000EEA22EF5055
:101DD00001E0DAD0DF50200DF3CFE9FFF4CFEAFFC6
:101DE000170EE926010EEA221E0EE926000EEA224F
:101DF000010EEF6E060EF66E000EF76E0900F5CFBF
:101E000014F00800F5CF15F0DF50200DF3CFE9FFF7
:101E1000F4CFEAFF170EE926010EEA221C0EE9268E
:101E2000000EEA2214C0EEFF15C0EDFFDF50200DBA
:101E3000F3CFE9FFF4CFEAFF170EE926010EEA22FD
:101E40001F0EE926000EEA22010EEF6EFD0EDBCF1B
:101E5000E6FFFE0EDBCFE6FFDF50200DF3CFE9FFFC
:101E6000F4CFEAFF170EE926010EEA22E9CF14F0BB
:101E7000EACF15F014C0E6FF15C0E6FF60EC26F0CF
:101E8000E552E552E552E552DF50200DF3CF14F054
:101E9000F4CF15F0170E1426010E1522030E14C0F0
:101EA000DBFF040E15C0DBFF010EDB6A200EF36EB4
:101EB000010EDBCFF4FFF350F45C24E2010EDB50A3
:101EC000E76E030EDBCFE9FF040EDBCFEAFFE7503E
:101ED000E926000EEA22EF50E66E010EDBCFE6FFA8
:101EE000200EDF02F350E552E724E66EE66A02ECCC
:101EF00028F0E552E552E55209EC00F00400010E2D
:101F0000DB2AD4D70101012B0101025119E105019E
:101F10001A050BE1E66AE66A010EE66EE66822DB68
:101F2000E552E552E552E5520AD0E66AE66A010E4C
:101F3000E66EE66A17DBE552E552E552E5521AD045
:101F400005011A050CE1E66A010EE66E010EE66E69
:101F5000E66808DBE552E552E552E5520BD0E66A49
:101F6000010EE66E010EE66EE66AFCDAE552E55217
:101F7000E552E552FD0EDBCFE6FFFE0EDBCFE6FFBE
:101F80009FDAE552E55202D0DF2A0FD70101025154
:101F900003E10101010E006F050EE15C02E2E16A5E
:101FA000E552E16EE552E7CFD9FF1200D9CFE6FF47
:101FB000E1CFD9FF050EE126020EE76EFD0EDBCF65
:101FC000E9FFFE0EDBCFEAFFE750E926000EEA222A
:101FD000EF5030080AE1FD0EDBCFE6FFFE0EDBCF4F
:101FE000E6FF6EDAE552E5528AD1DF6A200EDF5C49
:101FF00043E2DF50200DF3CFE9FFF4CFEAFF170EE5
:10200000E926010EEA221E0EE926000EEA22EF5012
:1020100031E0DF50200DF3CFE9FFF4CFEAFF170ED8
:10202000E926010EEA22E9CF14F0EACF15F014C038
:10203000E6FF15C0E6FFFD0EDBCFE6FFFE0EDBCFB1
:10204000E6FF40EC26F0E552E552E552E552000984
:1020500011E1DF50200DF3CFE9FFF4CFEAFF170EB7
:10206000E926010EEA221F0EE926000EEA22EF04FD
:1020700001E145D1DF2ABAD701010051030A01E18C
:102080008AD0020A01E03AD1DF6A200EDF5C01E368
:1020900081D0FD0EDBCFE6FFFE0EDBCFE6FFB7DA29
:1020A000E552E552E76E020EE7CFDBFF020EDB5092
:1020B000FF086EE01C0EE66EE66AE66A020EDB5072
:1020C000200DF3CFE9FFF4CFEAFF170EE926010E4A
:1020D000EA22E9CF14F0EACF15F014C0E6FF15C0EC
:1020E000E6FF26EC26F0166E050EE15E16500400A3
:1020F000020EDB50200DF3CF14F0F4CF15F0170EC5
:102100001426010E1522030E14C0DBFF040E15C0A9
:10211000DBFF010EDB6A200EF36E010EDBCFF4FF56
:10212000F350F45C25E2010EDB50E76E030EDBCFCB
:10213000E9FF040EDBCFEAFFE750E926000EEA22B2
:10214000EF50E66E010EDBCFE6FF020EDB50200DF6
:10215000F350E552E724E66EE66A02EC28F0E55219
:10216000E552E55209EC00F00400010EDB2AD3D75A
:10217000010101510CE10101006BE66AE66AE66AC1
:10218000010EE66EEFD9E552E552E552E552B7D0C1
:10219000DF2A7BD7B4D0DF6A200EDF5C01E3ADD04D
:1021A000FD0EDBCFE6FFFE0EDBCFE6FF30DAE552B9
:1021B000E552E76E020EE7CFDBFF020EDB50FF08B1
:1021C00001E199D01C0EE66EE66AE66A020EDB506B
:1021D000200DF3CFE9FFF4CFEAFF170EE926010E39
:1021E000EA22E9CF14F0EACF15F014C0E6FF15C0DB
:1021F000E6FF26EC26F0166E050EE15E1650040092
:10220000020EDB50200DF3CF14F0F4CF15F0170EB3
:102210001426010E1522030E14C0DBFF040E15C098
:10222000DBFF010EDB6A200EF36E010EDBCFF4FF45
:10223000F350F45C25E2010EDB50E76E030EDBCFBA
:10224000E9FF040EDBCFEAFFE750E926000EEA22A1
:10225000EF50E66E010EDBCFE6FF020EDB50200DE5
:10226000F350E552E724E66EE66A02EC28F0E55208
:10227000E552E55209EC00F00400010EDB2AD3D749
:10228000010102511EE1010101510DE10101006B4B
:10229000E66AE66AE66A010EE66E64D9E552E55240
:1022A000E552E5520DD00101010E006FE66AE66AC3
:1022B000010EE66EE66A56D9E552E552E552E55260
:1022C00019D0010101510BE1E66A010EE66EE66AE2
:1022D000E66A48D9E552E552E552E5520BD0E66A86
:1022E000010EE66E010EE66EE66A3CD9E552E55255
:1022F000E552E55204D0DF2A4FD701D000D0050EB9
:10230000E15C02E2E16AE552E16EE552E7CFD9FF16
:102310001200D9CFE6FFE1CFD9FF020EE126060178
:1023200004510601035D0BE1FD0EDBCFE9FFFE0E5C
:10233000DBCFEAFFEE6AED6A010EDB6A33D00601FD
:1023400003511C0DF3CF14F0F4CF15F0050E142635
:10235000060E1522FD0EDBCFE9FFFE0EDBCFEAFFF6
:1023600014C0EEFF15C0EDFF060103511C0DF3CFA5
:1023700014F0F4CF15F0050E1426060E152214C025
:10238000E6FF15C0E6FF9AEC26F0E552E552010E95
:10239000F3CFDBFF0601032B200E0601035D02E3F2
:1023A0000601036B010EDB5000D0146E020EE15CDF
:1023B00002E2E16AE552E16E1450E552E7CFD9FF3F
:1023C0001200D9CFE6FFE1CFD9FF0601000502E1F7
:1023D000000E0BD00601010E006FFE0EDBCF02F6E1
:1023E000FD0EDBCF01F6010E00D0E552E7CFD9FF9D
:1023F0001200D9CFE6FFE1CFD9FFE652FE0EDB5047
:10240000200DF3CFE9FFF4CFEAFF170EE926010E06
:10241000EA221F0EE926000EEA22EF6AFE0EDB50CA
:10242000200DF3CFE9FFF4CFEAFF170EE926010EE6
:10243000EA22E9CF14F0EACF15F014C0E6FF15C088
:10244000E6FF3ED8E552E552FE0EDB50200DF3CFFD
:10245000E9FFF4CFEAFF170EE926010EEA221F0E6C
:10246000E926000EEA22EF50E66EFE0EDB50200D4C
:10247000F3501F0FE66EE66A02EC28F0E552E552D3
:10248000E55209EC00F00400DF6A200EDF5C13E285
:10249000DF50200DF3CFE9FFF4CFEAFF170EE92656
:1024A000010EEA221F0EE926000EEA22EF0401E1E6
:1024B00002D0DF2AEAD7E552E552E7CFD9FF120072
:1024C000D9CFE6FFE1CFD9FFE652DF6AFD0EDBCFC1
:1024D000E9FFFE0EDBCFEAFFEF5024E0FD0EDBCF7D
:1024E000E9FFFE0EDBCFEAFFEF50E66E0601045176
:1024F0001C0DF3CF14F0F4CF15F0050E1426060EC4
:102500001522DF500F011424E96E000E1520EA6E2B
:10251000E552E750EF6EDF2AFD0EDB2AFE0E01E3E7
:10252000DB2AD4D7060104511C0DF3CF14F0F4CFED
:1025300015F0050E1426060E1522DF500F01142487
:10254000E96E000E1520EA6EEF6A0601042B200EDC
:102550000601045D02E30601046BE552E552E7CF94
:10256000D9FF1200D9CFE6FFE1CFD9FFFE0EDB5035
:10257000FF0806E0FE0EDB50E8B08080E8A0809007
:10258000FD0EDB50E8B08082E8A08092FC0EDB50AC
:10259000E8B08084E8A08094E552E7CFD9FF12002C
:1025A000D9CFE6FFE1CFD9FFE652FE0EDB0406E10C
:1025B0000501010E1B6F8080808624D0FE0EDB504B
:1025C00021E10E010C6B0D6BFE0EDB50E8B0808636
:1025D000E8A080968080DF6A200EDF5C13E2DF5087
:1025E000200DF3CFE9FFF4CFEAFF170EE926010E25
:1025F000EA221E0EE926000EEA22EF5001E080904A
:10260000DF2AEAD7E552E552E7CFD9FF1200D9CF4A
:10261000E6FFE1CFD9FF040EE126DF6A200EDF5C82
:1026200001E399D0DF50200DF3CFE9FFF4CFEAFFAB
:10263000170EE926010EEA221E0EE926000EEA22F6
:10264000EF5001E186D0DF50200DF3CFE9FFF4CF4A
:10265000EAFF170EE926010EEA221F0EE926000EF8
:10266000EA22EF0476E0DF50200DF3CFE9FFF4CF4C
:10267000EAFF170EE926010EEA22E9CF14F0EACFAD
:1026800015F014C0E6FF15C0E6FFFD0EDBCFE6FF38
:10269000FE0EDBCFE6FF40EC26F0E552E552E552B8
:1026A000E552000956E1DF50200DF3CFE9FFF4CFEA
:1026B000EAFF170EE926010EEA221E0EE926000E99
:1026C000EA22EF0403E10101010713D0DF50200DDE
:1026D000F3CFE9FFF4CFEAFF170EE926010EEA2255
:1026E0001E0EE926000EEA22EF50030802E1010166
:1026F0000207DF50200DF3CFE9FFF4CFEAFF170EFA
:10270000E926010EEA221E0EE926000EEA22EF6AF1
:10271000DF50200DF3CFE9FFF4CFEAFF170EE926D3
:10272000010EEA221C0EE926000EEA22EE6AED6A8C
:10273000DF50200DF3CFE9FFF4CFEAFF170EE926B3
:10274000010EEA221F0EE926000EEA22EF6ADF5090
:1027500004D0DF2A63D7FF0E00D0146E040EE15CB4
:1027600002E2E16AE552E16E1450E552E7CFD9FF8B
:102770001200D9CFE6FFE1CFD9FF020EE126010E0C
:10278000DB6ADF6A200EDF5C5BE2DF50200DF3CFF7
:10279000E9FFF4CFEAFF170EE926010EEA221E0E2A
:1027A000E926000EEA22EF0449E1DF50200DF3CFC5
:1027B000E9FFF4CFEAFF170EE926010EEA221C0E0C
:1027C000E926000EEA22EE50ED1038E10101022B5D
:1027D00001010107DF50200DF3CFE9FFF4CFEAFF3D
:1027E000170EE926010EEA221E0EE926000EEA2245
:1027F000030EEF6EDF50200DF3CFE9FFF4CFEAFFB9
:10280000170EE926010EEA221E0EE926000EEA2224
:10281000EF50E66E200EDF02F3501E0FE66EE66A02
:1028200002EC28F0E552E552E55209EC00F0040014
:102830000101030E006FDE52010EDD6EDF2AA2D70A
:10284000010EDB5000D0146E020EE15C02E2E16A80
:10285000E552E16E1450E552E7CFD9FF1200D9CF0F
:10286000E6FFE1CFD9FFE652DF6A200EDF5C41E2EE
:10287000DF50200DF3CFE9FFF4CFEAFF170EE92672
:10288000010EEA221E0EE926000EEA22EF502FE08A
:10289000DF50200DF3CFE9FFF4CFEAFF170EE92652
:1028A000010EEA22E9CF14F0EACF15F014C0E6FFDA
:1028B00015C0E6FFFD0EDBCFE6FFFE0EDBCFE6FF29
:1028C00040EC26F0E552E552E552E55200090FE1F1
:1028D000DF50200DF3CFE9FFF4CFEAFF170EE92612
:1028E000010EEA221F0EE926000EEA22EF6ADF2A15
:1028F000BCD7E552E552E7CFD9FF1200D9CFE6FFAA
:10290000E1CFD9FFFD0EDBCFE6FFFE0EDBCFE6FF0A
:102910000D0EE66E010EE66E40EC26F0E552E55235
:10292000E552E552000902E0000E02D0010E00D08F
:10293000E552E7CFD9FF1200D9CFE6FFE1CFD9FFAB
:10294000020EE1260101006B0101016B0101026B26
:102950000101036B046B056B066B0101076B086BD0
:10296000096B0A6B0501186B0601046B0601036B0A
:10297000DE6ADD6ADECF14F0DDCF15F0200E145CC8
:10298000000E155860E2DECFE9FFDDCFEAFF050E4D
:10299000D890E936EA36E806FBE1170EE926010E83
:1029A000EA221E0EE926000EEA22EF6ADECFE9FFD8
:1029B000DDCFEAFF050ED890E936EA36E806FBE1FE
:1029C000170EE926010EEA221C0EE926000EEA2265
:1029D000EE6AED6ADECFE9FFDDCFEAFF050ED890A3
:1029E000E936EA36E806FBE1170EE926010EEA228F
:1029F0001F0EE926000EEA22EF6A1C0EE66EE66A5A
:102A0000E66ADECFE9FFDDCFEAFF050ED890E936B2
:102A1000EA36E806FBE1170EE926010EEA22E9CFC5
:102A200014F0EACF15F014C0E6FF15C0E6FF26EC5F
:102A300026F0166E050EE15E16500400DF2A010E28
:102A400001E3DB2A97D7DE6ADD6ADECF14F0DDCF43
:102A500015F0000E145C000E155812E2E66ADECF87
:102A6000E6FFDDCFE6FF02EC28F0E552E552E55245
:102A700009EC00F00400DF2A010E01E3DB2AE5D7B0
:102A8000050117050BE1E66AE66AE66A010EE66EE5
:102A900069DDE552E552E552E55209D0E66AE66A9B
:102AA000E66AE66A5FDDE552E552E552E552020E5E
:102AB000E15C02E2E16AE552E16EE552E7CFD9FF5F
:102AC0001200D9CFE6FFE1CFD9FF030EE126FD0EBC
:102AD000DBCFE9FFFE0EDBCFEAFF010EEFCFDBFF1E
:102AE000020EDB6A010EDB50950A01E177D0010A84
:102AF00069E0340A5CE0010A4EE0030A1AE0220AA7
:102B000001E078D0F90EDBCFE6FFFA0EDBCFE6FF6F
:102B100089EC11F0E552E552E76E020EE7CFDBFFDC
:102B2000FB0EDBCFE9FFFC0EDBCFEAFF800EEF6E82
:102B30006CD0010EE76EFD0EDBCF14F0FE0EDBCF86
:102B400015F0E7501426000E152214C0E6FF15C03C
:102B5000E6FF85DEE552E552010EE76EFD0EDBCFA6
:102B600014F0FE0EDBCF15F0E7501426000E1522F0
:102B700014C0E6FF15C0E6FFD6EC0FF0E552E552B3
:102B8000FB0EDBCFE9FFFC0EDBCFEAFFA20EEF6E00
:102B9000020EDB6A3AD0D0DEFB0EDBCFE9FFFC0E83
:102BA000DBCFEAFFA10EEF6E020EDB6A2ED0020E23
:102BB000DB6AFB0EDBCFE9FFFC0EDBCFEAFFA00EEA
:102BC000EF6E23D08086FB0EDBCFE9FFFC0EDBCF60
:102BD000EAFF940EEF6E020EDB6A17D08096FB0EB2
:102BE000DBCFE9FFFC0EDBCFEAFF950EEF6E020EA6
:102BF000DB6A0BD0020EDB6AFB0EDBCFE9FFFC0EBB
:102C0000DBCFEAFF920EEF6E00D0020EDB5000D059
:102C1000146E030EE15C02E2E16AE552E16E1450CB
:102C2000E552E7CFD9FF120005011A050EE10501B3
:102C30001B0505E105011B6B8090809605D0050101
:0E2C4000010E1B6F8080808601D000D0120034
:022C4E00080E6E
:102C5000E66EDAEC21F0E552E66AB1EC1AF0E552E4
:102C60005DEC1AF072EC1AF01200D9CFE6FFE1CF5A
:102C7000D9FF060EE126DF68D950020FE66E000E7E
:102C8000DA20E66ED950030FE66E000EDA20E66E0B
:102C900001EC23F0E552E552E552E552000901E16D
:102CA00044D2020EDBCFE6FF030EDBCFE6FF47DAAE
:102CB000E552E552DF6EFF0EDF5C01E136D20D0119
:102CC0000051050A01E118D2010A01E1CBD1070A3E
:102CD00001E1B1D1040A01E17AD1050A01E143D150
:102CE000040A01E129D1070A01E189D0010A01E0C2
:102CF0001BD2340EDF5C16E170DB0D014751EA6A2E
:102D0000260FE96E0D0EEA22DFCFEFFF0D01472BF4
:102D10000A0EE66EB1EC1AF0E552CFDB0D01010EA2
:102D2000006F6CD0130EDF5C0AE10B0EE66EB1ECA7
:102D30001AF0E552C2DB0D01040E006F5FD00C0EDD
:102D4000DF5C19E1690EE66E0D0EE66E24EC07F00D
:102D5000E552E552FF0E0D01895D0CE0690EE66E4D
:102D60000D0EE66ED0DBE552E552A7DBBBDB0D01B5
:102D7000070E006F43D00B0EDF5C19E1480EE66EC4
:102D80000D0EE66E93EC03F0E552E552FF0E0D01D9
:102D9000685D0CE0480EE66E0D0EE66EB4DBE552A3
:102DA000E5528BDB9FDB0D01020E006F27D015DB98
:102DB0000D014751472BEA6A260FE96E0D0EEA22F4
:102DC000DFCFEFFF45DB2A0EDF5C09E1260EE66E62
:102DD0000D0EE66E7DEC0EF0E552E55208D0260EA3
:102DE000E66E0D0EE66E97EC0EF0E552E552E66AE1
:102DF000B8DBE55262DB76DB0D01006B96D1080E85
:102E0000DF5C18E10D012351000808E2DFCFE6FF87
:102E1000ECEC21F0E5520D01230707D0E66AA1DBB7
:102E2000E5524BDB5FDB0D01006B0D0124690D01E9
:102E3000256B81D00A0EDF5C19E10D0123510008DA
:102E400010E206DB260EE66E0D0EE66E97EC0EF037
:102E5000E552E552E66A85DBE5522FDB43DB0D01E7
:102E6000006B0D0124690D01256B65D0030EDB504D
:102E70000D01245D43E1320EF36E020EDBCFF4FF51
:102E8000F350F45C1FE20D0123070D012351EA6AA0
:102E9000020FE96E0D0EEA22DFCFEFFF080EE66E9D
:102EA000ECEC21F0E5520D012351EA6A020FE96EC4
:102EB0000D0EEA22EF50E66EECEC21F0E5520D012A
:102EC000232B1BD00D012351EA6A020FE96E0D0E70
:102ED000EA22DFCFEFFF0D012351EA6A020FE96E0C
:102EE0000D0EEA22EF50E66EECEC21F0E5520D01FA
:102EF000232B0D0124690D01256B1AD00D012351DF
:102F0000EA6A020FE96E0D0EEA22DFCFEFFF0D0134
:102F10002351EA6A020FE96E0D0EEA22EF50E66EC7
:102F2000ECEC21F0E5520D01232B030EDBCF24FD49
:102F3000030EDBCF24FDF9D0080EDF5C08E1E66A62
:102F400010DBE552BADACEDA0D01006B0BD00A0EB7
:102F5000DF5C08E10A0EE66E04DBE552AEDA0D0135
:102F6000010E006FE2D0080EDF5C08E1E66AF9DAD4
:102F7000E552A3DAB7DA0D01006B28D00B0EDF5C47
:102F800014E1480EE66E0D0EE66E93EC03F0E5528A
:102F9000E552FF0E0D01685D07E0480EE66E0D0E6E
:102FA000E66EB1DAE552E55211D00A0EDF5C0EE1B1
:102FB00068CDE6FFF9EC11F0E5520D016869E66AAB
:102FC000D0DAE5527ADA8EDA0D01006BAED0080E57
:102FD000DF5C08E1E66AC5DAE5526FDA83DA0D01F3
:102FE000006B28D00C0EDF5C14E1690EE66E0D0E4E
:102FF000E66E24EC07F0E552E552FF0E0D01895D07
:1030000007E0690EE66E0D0EE66E7DDAE552E552DA
:1030100011D00A0EDF5C0EE189CDE6FF70EC0CF0FA
:10302000E5520D018969E66A9CDAE55246DA5ADA18
:103030000D01006B7AD0080EDF5C07E1E66A91DAD9
:10304000E5523BDA0D01006B0CD00A0EDF5C09E1A2
:103050009CEC14F032DA46DAE66A83DAE5520D01C6
:10306000006B63D0080EDF5C08E1E66A7ADAE552AD
:1030700024DA38DA0D01006B3ED00A0EDF5C2BE15A
:10308000050EDB6A0D012351EA6A020FE96E0D0E8F
:10309000EA22EF6A020EE66E0D0EE66E7EEC14F08A
:1030A000E552E552E76E050EE7CFDBFF050EDB04C8
:1030B0000AE10C0EE66E55DAE552FFD913DA0D017E
:1030C000050E006F07D0E66A4CDAE552F6D90ADA47
:1030D0000D01006B10D00D012351EA6A020FE96E59
:1030E0000D0EEA22DFCFEFFF2A0EE66EECEC21F0A8
:1030F000E5520D01232B19D0080EDF5C08E1E66ACA
:1031000030DAE552DAD9EED90D01006B0CD0300E71
:10311000DF5C09E10D0EE66E24DAE552CED9E2D984
:103120000D01030E006F01D000D0060EE15C02E23B
:10313000E16AE552E16EE552E7CFD9FF1200D9CF3F
:10314000E6FFE1CFD9FFE652DF680D010051050A25
:1031500001E100D1060A01E1E7D0070A01E1C8D088
:10316000030A01E1ACD0050A01E190D0030A46E070
:10317000070A2EE0060A01E006D1FE0EDB50050D1F
:10318000F3CFF6FFF4CFF7FFC20EF626510EF7226B
:103190000800F550DF6E0D01235100080EE20D010D
:1031A00023510BE00B0EDF5C06E00C0EDF5C03E04E
:1031B000130EDF5C01E1DF680AD0300EDF5C06E051
:1031C0000A0EDF5C03E0080EDF5C01E1DF68DCD0A3
:1031D000FE0EDB50050DF3CFF6FFF4CFF7FFC20E66
:1031E000F626510EF7220800F550DF6E0A0EDF5C5E
:1031F00004E0080EDF5C01E0DF68C6D0FE0EDB50A5
:103200000D01245D14E1320EF36EFD0EDBCFF4FFF1
:10321000F350F45C09E20D01252B050E0D01255D2F
:1032200002E30D01256B02D00D01256B02D00D01CB
:10323000256BFE0EDB50050DF3CF14F0F4CF15F027
:10324000C20E1426510E15220D0125510F01142412
:10325000F66E000E1520F76E0800F550DF6E180EA2
:103260000D01235D0BE20C0EDF5C06E00B0EDF5C54
:1032700003E0130EDF5C01E1DF6807D00A0EDF5CBC
:1032800004E0080EDF5C01E0DF687ED0FE0EDB505C
:10329000050DF3CFF6FFF4CFF7FFC20EF626510E61
:1032A000F7220800F550DF6E0A0EDF5C07E0080E1B
:1032B000DF5C04E00B0EDF5C01E0DF6865D0FE0E32
:1032C000DB50050DF3CFF6FFF4CFF7FFC20EF62665
:1032D000510EF7220800F550DF6E0A0EDF5C07E0A2
:1032E000080EDF5C04E00C0EDF5C01E0DF684CD010
:1032F000FE0EDB50050DF3CFF6FFF4CFF7FFC20E45
:10330000F626510EF7220800F550DF6E0B0EDF5C3B
:1033100009E00C0EDF5C06E0130EDF5C03E02A0E12
:10332000DF5C01E1DF6830D0FE0EDB50050DF3CF2E
:10333000F6FFF4CFF7FFC20EF626510EF722080073
:10334000F550DF6E0A0EDF5C04E0080EDF5C01E082
:10335000DF681AD0FE0EDB50050DF3CFF6FFF4CF79
:10336000F7FFC20EF626510EF7220800F550DF6E69
:10337000300EDF5C07E0080EDF5C04E00A0EDF5C65
:1033800001E0DF6801D000D0DF5000D0E552E55207
:10339000E7CFD9FF1200D9CFE6FFE1CFD9FFFE0E6C
:1033A000DB50010A0BE0010A01E012D0E66AD9D82D
:1033B000E55283D897D80D01006B0BD00A0EE66E4C
:1033C000D0D8E5527AD88ED80D01010E006F01D009
:1033D00000D0E552E7CFD9FF1200D9CFE6FFE1CF09
:1033E000D9FF020EE126010EDB6A0D014751EA6AA0
:1033F000260FE96E0D0EEA22300EEF6E0D01472BFF
:103400000D014751EA6A260FE96E0D0EEA22350ECC
:10341000EF6E0D01472B300E0D01275D146E300E3F
:103420000D01265D0A0DF3501424E76E010EE7CF5F
:10343000DBFF010EDB5000D0146E020EE15C02E2F5
:10344000E16AE552E16E1450E552E7CFD9FF120070
:10345000D9CFE6FFE1CFD9FFE652DF6A0D01235154
:10346000DF5C16E2DF50EA6A020FE96E0D0EEA2217
:10347000EF50E66E0D014751EA6A260FE96E0D0E18
:10348000EA22E552E750EF6E0D01472BDF2AE6D71F
:103490000D014751EA6A260FE96E0D0EEA22EF6A26
:1034A0000D01472B200E0D01475D02E30D01476B17
:1034B000E552E552E7CFD9FF1200200EE66EE66A2C
:1034C000E66A020EE66E0D0EE66E26EC26F0146E2F
:1034D000050EE15E14500D01236B0D01256B0D01EE
:1034E00024691200200EE66EE66AE66A260EE66E93
:1034F0000D0EE66E26EC26F0146E050EE15E1450FD
:103500000D01476B1200D9CFE6FFE1CFD9FFE6529C
:10351000E5EC21F0DF6ADF50E76EFD0EDBCFE9FF5F
:10352000FE0EDBCFEAFFE750E926000EEA22EF505D
:1035300013E0DF50E76EFD0EDBCFE9FFFE0EDBCFC1
:10354000EAFFE750E926000EEA22EF50E66EECECC7
:1035500021F0E552DF2ADFD7E552E552E7CFD9FF68
:103560001200D9CFE6FFE1CFD9FF030EE126FE0E10
:10357000EA6ADB34FE0BEA36E96ED30EE9260D0E5D
:10358000EA22010EEECFDBFF020EEDCFDBFFE5EC12
:1035900021F0DF6ADF50E76E010EDBCFF6FF020E8F
:1035A000DBCFF7FFE750F626000EF7220800F550B4
:1035B00014E0DF50E76E010EDBCFF6FF020EDBCF2B
:1035C000F7FFE750F626000EF7220800F550E66EEA
:1035D000ECEC21F0E552DF2ADDD7030EE15C02E2DC
:1035E000E16AE552E16EE552E7CFD9FF1200D9CF8B
:1035F000E6FFE1CFD9FF030EE126FE0EEA6ADB34D7
:10360000FE0BEA36E96ED30EE9260D0EEA22010E14
:10361000EECFDBFF020EEDCFDBFFDF6ADF50E76EA0
:10362000010EDBCFF6FF020EDBCFF7FFE750F626E9
:10363000000EF7220800F55014E0DF50E76E010E8F
:10364000DBCFF6FF020EDBCFF7FFE750F626000ECA
:10365000F7220800F550E66EECEC21F0E552DF2A87
:10366000DDD7030EE15C02E2E16AE552E16EE5526C
:06367000E7CFD9FF1200B4
:0A367600DACFE4FFE2CFDAFFE9CF7C
:10368000E4FFEACFE4FFF6CFE4FFF7CFE4FFF5CFA6
:10369000E4FFF3CFE4FFF4CFE4FFFACFE4FF00EE62
:1036A00000F0140EE80403E3EECFE4FFFBD700EED6
:1036B00014F0080EE80403E3EECFE4FFFBD7E65274
:1036C000D9CFE6FFE1CFD9FFE6522BEC29F0DF6E30
:1036D0000A014E514E2BEA6A510FE96E0A0EEA2298
:1036E000DFCFEFFF400E0A014E5D02E30A014E6B91
:1036F0000A01502BA49AE552E552E7CFD9FFE552D3
:1037000000EE1BF0080EE80403E3E5CFEDFFFBD766
:1037100000EE13F0140EE80403E3E5CFEDFFFBD752
:10372000E5CFFAFFE5CFF4FFE5CFF3FFE5CFF5FFF7
:10373000E5CFF7FFE5CFF6FFE5CFEAFFE5CFE9FFFD
:10374000E5CFDAFF1100DACFE4FFE2CFDAFFE9CF0D
:10375000E4FFEACFE4FFE652D9CFE6FFE1CFD9FF9D
:10376000E6520901875104E1ACA2FED7AC9A21D000
:1037700009018651EA6A880FE96E090EEA22EFCF45
:10378000DFFFDF50AD6E0901862B400E0901865D1B
:1037900002E30901866B000E0901E76E8719E8AEA6
:1037A00002D0873503D0E750D880875502E209015F
:1037B0008707E552E552E7CFD9FFE552E5CFEAFFAB
:1037C000E5CFE9FFE5CFDAFF1100DACFE4FFE2CF82
:1037D000DAFFE9CFE4FFEACFE4FFE652D9CFE6FF14
:1037E000E1CFD9FFE6520A010D5104E172A2FED7E2
:1037F000729A21D00A010C51EA6A0E0FE96E0A0E84
:10380000EA22EFCFDFFFDF50736E0A010C2B400E70
:103810000A010C5D02E30A010C6B000E0A01E76E5F
:103820000D19E8AE02D00D3503D0E750D8800D5504
:1038300002E20A010D07E552E552E7CFD9FFE55252
:10384000E5CFEAFFE5CFE9FFE5CFDAFF1100D9CFF9
:10385000E6FFE1CFD9FFE6527C0EDF6E0F0EE66E7B
:10386000E66ADFCFE6FF7AEC28F0E552E552E55252
:10387000AC8AAC9E9D8A9F88E552E552E7CFD9FF7E
:103880001200D9CFE6FFE1CFD9FFE6527C0EDF6E02
:10389000670EE66EE66ADFCFE6FF3EEC28F0E55203
:1038A000E552E552D08E718E728A729EA38AA58AE5
:1038B000E552E552E7CFD9FF1200D9CFE6FFE1CFBD
:1038C000D9FFACA2FED709018551852BEA6A880F82
:1038D000E96E090EEA22FE0EDBCFEFFF0901872B0E
:1038E000400E0901855D02E30901856B010E00D0E0
:1038F000E552E7CFD9FF1200D9CFE6FFE1CFD9FFDC
:1039000072A2FED70A010B510B2BEA6A0E0FE96E69
:103910000A0EEA22FE0EDBCFEFFF0A010D2B400E4E
:103920000A010B5D02E30A010B6B010E00D0E552A8
:10393000E7CFD9FF1200D9CFE6FFE1CFD9FF060EBE
:10394000E126010EF36E020EF3CFDBFF030EDB6AFE
:10395000020EDBCF14F0DB06030EDBCF15F001E225
:10396000DB061450151006E0040EE66EBFEC29F0DD
:10397000E552EED7000E0901E76E8719E8AE02D0D6
:10398000873503D0E750D880875528E20901865152
:10399000EA6A880FE96E090EEA22010EEFCFDBFF1B
:1039A000ACA2FED7010EDB50AD6EACA2FED7090172
:1039B000862B400E0901865D02E30901866B000E2D
:1039C0000901E76E8719E8AE02D0873503D0E750CA
:1039D000D880875502E209018707CCD7010EF36E24
:1039E000040EF3CFDBFF050EDB6A040EDBCF14F011
:1039F000DB06050EDBCF15F001E2DB0614501510D7
:103A000006E0040EE66EBFEC29F0E552EED7146E28
:103A1000060EE15C02E2E16AE552E16E1450E55205
:103A2000E7CFD9FF1200D9CFE6FFE1CFD9FF060ECD
:103A3000E126010EF36E020EF3CFDBFF030EDB6A0D
:103A4000020EDBCF14F0DB06030EDBCF15F001E234
:103A5000DB061450151006E0040EE66EBFEC29F0EC
:103A6000E552EED7000E0A01E76E0D19E8AE02D05E
:103A70000D3503D0E750D8800D5528E20A010C51CE
:103A8000EA6A0E0FE96E0A0EEA22010EEFCFDBFFA3
:103A900072A2FED7010EDB50736E72A2FED70A012E
:103AA0000C2B400E0A010C5D02E30A010C6B000EA8
:103AB0000A01E76E0D19E8AE02D00D3503D0E750CC
:103AC000D8800D5502E20A010D07CCD7010EF36E26
:103AD000040EF3CFDBFF050EDB6A040EDBCF14F020
:103AE000DB06050EDBCF15F001E2DB0614501510E6
:103AF00006E0040EE66EBFEC29F0E552EED7146E38
:103B0000060EE15C02E2E16AE552E16E1450E55214
:103B1000E7CFD9FF1200D9CFE6FFE1CFD9FFE652B8
:103B2000DF6AA39A000E0A01E76E5019E8AE02D0D0
:103B3000503503D0E750D880505502E2010EDF6EB9
:103B4000A38ADF5000D0E552E552E7CFD9FF12003B
:103B5000D9CFE6FFE1CFD9FFE652DF6A9D9A000E8A
:103B60000901E76ECA19E8AE02D0CA3503D0E750A2
:103B7000D880CA5502E2010EDF6E9D8ADF5000D068
:103B8000E552E552E7CFD9FF1200D9CFE6FFE1CFEA
:103B9000D9FFE6529D9A0901C951C92BEA6ACB0F98
:103BA000E96E090EEA22EFCFDFFF400E0901C95D81
:103BB00002E30901C96B000E0901E76ECA19E8AEFC
:103BC00002D0CA3503D0E750D880CA5502E20901B5
:103BD000CA079D8ADF5000D0E552E552E7CFD9FFF2
:103BE0001200D9CFE6FFE1CFD9FFE652A39A0A012E
:103BF0004F514F2BEA6A510FE96E0A0EEA22EFCFBE
:103C0000DFFF400E0A014F5D02E30A014F6B000E19
:103C10000A01E76E5019E8AE02D0503503D0E750E4
:103C2000D880505502E20A0150079D8ADF5000D02B
:0A3C3000E552E552E7CFD9FF12007C
:063C3A00D9CFE6FFE1CF47
:103C4000D9FFFE0EDBCF01FBFD0EDBCF02FBFC0E2E
:103C5000DBCF03FBFB0EDBCF04FBF90EDBCF89FBD5
:103C6000FA0EDBCF8AFB04D8E552E7CFD9FF12006A
:103C700027EC1CF00B01856B0B01866B0B01010E11
:103C8000006F0B01876B0B01050E886F8FCB8BFBD1
:103C900090CB8CFB91CB8DFB92CB8EFB00CB93FB1F
:103CA00012000B01856B0B01866B0B01010E006F7F
:103CB0000B01876B0B01050E886F8FCB8BFB90CBB5
:103CC0008CFB91CB8DFB92CB8EFB00CB93FB120038
:103CD000D9CFE6FFE1CFD9FF060EE126DF6A83ECFC
:103CE00027F006C08FFB07C090FB08C091FB09C0FE
:103CF00092FBABA207D0AB98040EE66EFCEC29F069
:103D0000E552AB888B0EE96E0B0EEA6EEE500B019E
:103D10008F190CE1EE500B01901908E1EE500B01E8
:103D2000911904E1EE500B01921900E118E00B012A
:103D300000510B01935D0BE1020E0B01005D07E1E9
:103D40000B0188070B01885102E192DFD3D08FCBA2
:103D50008BFB90CB8CFB91CB8DFB92CB8EFB0B0125
:103D60000051030A01E1BFD0010A18E0030A01E093
:103D7000BDD0A8EC1DF0000901E1BCD0C5EC1DF0E0
:103D8000DF6E0B010151DF5C08E10B01856B0B015C
:103D9000020E006F0B01050E886FAAD0A8EC1DF073
:103DA000000901E1A7D0C5EC1DF0DF6E0B01025147
:103DB000DF5C01E07CD0020EDB6A030EDB68D950C9
:103DC000030FE66E000EDA20E66E9ED8E552E5524D
:103DD000E76E020EE7CFDBFF020EDB50020A58E06F
:103DE000030A05E0010A01E05DD05BDF83D00B012F
:103DF00089518A114BE0D950040FE66E000EDA208B
:103E0000E66E870EE66E0B0EE66E070EE66E0B0E86
:103E1000E66E05D08ACBFAFF0B018951F96EFADF05
:103E2000146E060EE15E14500B01866F0B01FA0E44
:103E3000456F0B01862B87CB46FB0B01862BDE5291
:103E4000020EDD6E0B018651F36E010EDBCFF4FF27
:103E5000F350F45C1AE2040EDBCFE9FF050EDBCF72
:103E6000EAFFEF50E66E010EDB50EA6A450FE96E9D
:103E70000B0EEA22E552E750EF6E040EDB2A050E28
:103E800001E3DB2A010EDB2ADDD701D00ADF0BD0EC
:103E90000B01050E456F0B01862B87CB46FB0B01F3
:103EA000862B01D000D00B01030E006F1BD00B013D
:103EB0008551852BEA6A050FE96E0B0EEA22DFCFEA
:103EC000EFFF400E0B01855D0DE30B01050E456F05
:103ED0000B01862B0B01900E466F0B01862B0B01FD
:103EE000030E006F05D061D8DCDE02D0DADE00D030
:103EF00000CB93FB060EE15C02E2E16AE552E16E63
:103F0000E552E7CFD9FF1200D9CFE6FFE1CFD9FFC5
:103F1000020EE1260B018505EA6A050FE96E0B0E1C
:103F2000EA22EFCFDFFF010EDB6A050E0B01055D14
:103F300006E0FA0E0B01055D02E0000E2AD00B012F
:103F40008505E66E050EE66E0B0EE66E9CD8E55214
:103F5000E552E552E76E010EE7CFDBFF010EDB50C5
:103F6000DF5C0DE10B0185070B018551EA6A050F46
:103F7000E96E0B0EEA22EF6A010E0BD00AD0FD0E9D
:103F8000DBCFE9FFFE0EDBCFEAFF910EEF6E000EF6
:103F900000D0146E020EE15C02E2E16AE552E16ECD
:103FA0001450E552E7CFD9FF1200D9CFE6FFE1CF99
:103FB000D9FF020EE126DF6A010EDB6A86CBE6FF3F
:103FC000450EE66E0B0EE66E5ED8E552E552E55202
:103FD000DF6E03CBE6FF5DEC1CF0E552010EDB6A01
:103FE0000B018651F36E010EDBCFF4FFF350F45C4E
:103FF0000FE2010EDB50EA6A450FE96E0B0EEA2272
:10400000EF50E66E5DEC1CF0E552010EDB2AE8D7BE
:10401000DFCFE6FF5DEC1CF0E55204CBE6FF5DEC84
:104020001CF0E5529BEC1CF0020EE15C02E2E16A3E
:10403000E552E16EE552E7CFD9FF1200D9CFE6FF96
:10404000E1CFD9FFFD0EDBCFF6FFFE0EDBCFF7FF92
:104050000800F55012E0FD0EDBCFF6FFFE0EDBCFC1
:10406000F7FF0800F550E66E5DEC1CF0E552FD0E22
:10407000DB2AFE0E01E3DB2AE5D79BEC1CF0E552C0
:10408000E7CFD9FF1200D9CFE6FFE1CFD9FF030E6A
:10409000E126DF6A010EDB6AFC0EDB50F36E010ED7
:1040A000DBCFF4FFF350F45C12E2010EDB50E76E5D
:1040B000FD0EDBCFE9FFFE0EDBCFEAFFE750E9267E
:1040C000000EEA22EF50DF1A010EDB2AE5D7DF509F
:1040D00000D0146E030EE15C02E2E16AE552E16E8B
:0A40E0001450E552E7CFD9FF12009B
:0640EA00D9CFE6FFE1CF93
:1040F000D9FF030EE126300EF36E010EF3CFDBFF86
:10410000750EF36E020EF3CFDBFF010EDF6EDF04E0
:1041100025E10ADA00000000839283840000000099
:104120008386000000008350800B01E0010EDF6EEB
:1041300083968386000000008396010EDB06020E44
:1041400001E2DB06D950010FE96EDACFEAFFEE504B
:10415000ED1003E1F1D9FF0E04D0D9D7EDD9000E4F
:1041600000D0146E030EE15C02E2E16AE552E16EFA
:104170001450E552E7CFD9FF1200D9CFE6FFE1CFC7
:10418000D9FF839283940000FE0EDB50F00B146E77
:104190000F0E8C1414108C6E00008386000000003B
:1041A0008396E552E7CFD9FF1200D9CFE6FFE1CFE2
:1041B000D9FF9BDF839283940000FE0EDB50F00B4F
:1041C000146E0F0E8C1414108C6E00008386000089
:1041D00000008396FE0EDB38F00BF00B146E0F0E12
:1041E0008C1414108C6E00008386000000008396EF
:1041F000E552E7CFD9FF1200D9CFE6FFE1CFD9FFD3
:1042000074DF838283940000FE0EDB50F00B146E8B
:104210000F0E8C1414108C6E0000838600000000BA
:104220008396FE0EDB38F00BF00B146E0F0E8C1421
:1042300014108C6E00008386000000008396E55207
:10424000E7CFD9FF1200D9CFE6FFE1CFD9FF0B0EA0
:10425000E12672D9280EF36E010EF3CFDBFF020EBA
:10426000DB6A010EDBCF14F0DB06020EDBCF15F0AC
:1042700001E2DB061450151006E0040EE66EBFECFA
:1042800029F0E552EED7300EE66E77DFE5520A0EE2
:10429000F36E030EF3CFDBFF040EDB6A030EDBCFFE
:1042A00014F0DB06040EDBCF15F001E2DB06145040
:1042B000151006E0040EE66EBFEC29F0E552EED7CD
:1042C000300EE66E5ADFE5520A0EF36E050EF3CF9E
:1042D000DBFF060EDB6A050EDBCF14F0DB06060EF5
:1042E000DBCF15F001E2DB061450151006E0040EDA
:1042F000E66EBFEC29F0E552EED7300EE66E3DDFFC
:10430000E5520A0EF36E070EF3CFDBFF080EDB6AF1
:10431000070EDBCF14F0DB06080EDBCF15F001E251
:10432000DB061450151006E0040EE66EBFEC29F013
:10433000E552EED7200EE66E20DFE5520A0EF36E50
:10434000090EF3CFDBFF0A0EDB6A090EDBCF14F098
:10435000DB060A0EDBCF15F001E2DB061450151068
:1043600006E0040EE66EBFEC29F0E552EED7280E0B
:10437000E66E1BDFE552B9DEDF6EDF5010E10F0E97
:10438000E66E13DFE552010EE66E0FDFE552040E16
:10439000E66E0BDFE552060EE66E07DFE55200D053
:1043A0000B0EE15C02E2E16AE552E16EE552E7CF15
:1043B000D9FF1200D9CFE6FFE1CFD9FFFE0EDBCF48
:1043C0001FFEE552E7CFD9FF1200010EE66EEDDECB
:1043D000E5520E011E6B1200D9CFE6FFE1CFD9FFE7
:1043E000E652FE0EDB500E011F5D25E10E011E514F
:1043F00001E13BD0100E0E011E5D0EE1800EE66E57
:10440000D4DEE552DF6A100EDF5C06E2140EE66EC3
:10441000CCDEE552DF2AF7D7100EE66EC6DEE55297
:10442000200EE66EE9DEE552100EE66EBEDEE552C7
:104430000E011E071AD0100E0E011E5D05E1C00E02
:10444000E66EB3DEE5520AD0200E0E011E5D06E3D5
:104450000E011E6B020EE66EA8DEE552FE0EDBCFED
:10446000E6FFCADEE5520E011E2BE552E552E7CF0C
:10447000D9FF1200E8DE010EE66E97DEE5520E016E
:104480001E6B1200D9CFE6FFE1CFD9FFE652010E35
:10449000E66E8BDEE552DF6A100EDF5C1CE2FD0E7D
:1044A000DBCFE9FFFE0EDBCFEAFFEF50E66EDF5019
:1044B000EA6A200FE96E0E0EEA22E552E750EF6E2F
:1044C000FD0EDBCFE9FFDB2AFE0EDBCFEAFF01E3C7
:1044D000DB2ADF2AE1D7C00EE66E67DEE552DF6A2F
:1044E000100EDF5C1CE2FD0EDBCFE9FFFE0EDBCF22
:1044F000EAFFEF50E66EDF50EA6A200FE96E0E0E1B
:10450000EA22E552E750EF6EFD0EDBCFE9FFDB2A32
:10451000FE0EDBCFEAFF01E3DB2ADF2AE1D7E5521B
:10452000E552E7CFD9FF1200958E958C958A958834
:104530009596959495921200959E959C959A95982E
:084540009596959495921200E6
:084548000D01CD6B0D01CE6BDE
:104550000D019E6B0D019F6B0D01A06B0D01A169FB
:104560000D01A26B1200D9CFE6FFE1CFD9FF020EF9
:10457000E1260D01D02B000ED123D9CFE6FFDACFF3
:10458000E6FF2DD9E552E552000901E130D00D01D9
:10459000CD510D01CE5D04E10D01CE6B0D01CD6B52
:1045A0000D01CE51E96EEA6AD890E936EA36A30EDB
:1045B000E9260D0EEA22DFCFEFFF0D01CE51E96EA5
:1045C000EA6AD890E936EA36A30EE9260D0EEA2209
:1045D000010EE926000EEA22D0CDEFFF140E0D01E8
:1045E000CE5D02E20D01CE2B0D01D06BD16B020E20
:1045F000E15C02E2E16AE552E16EE552E7CFD9FF04
:104600001200D9CFE6FFE1CFD9FF020EE126240E3A
:104610000D01F95D04E3000EC9D00D01F96B0D0128
:10462000F951040DF3CFF6FFF4CFF7FF0C0EF62689
:104630004B0EF7220900F5CF14F00800F5CF15F066
:10464000FF0E141801E115504DE00D01F951040D54
:10465000F3CFF6FFF4CFF7FF0C0EF6264B0EF72242
:104660000900F5CF16F00800F5CF17F0180E161850
:1046700001E1175037E00D01F951040DF3CFF6FFBA
:10468000F4CFF7FF0C0EF6264B0EF7220800F5507C
:10469000E66EFD0EDBCFE9FFFE0EDBCFEAFFE55253
:1046A000E750EF6E0D01F951040DF3CFF6FFF4CF93
:1046B000F7FF0C0EF6264B0EF722020EF626000E22
:1046C000F7220800F550E66EFB0EDBCFE9FFFC0E8B
:1046D000DBCFEAFFE552E750EF6E0D01F92B010E3B
:1046E00065D060D00D01F951040DF3CFF6FFF4CF82
:1046F000F7FF0C0EF6264B0EF7220900F5CF14F04B
:104700000800F5CF15F0180E141801E115504AE114
:10471000640EDE6EDD6ADFCF14F0DF06010EDBCF44
:1047200015F001E2DB061450151006E0040EE66EEB
:10473000BFEC29F0E552EFD70D01F951040DF3CF8D
:10474000F6FFF4CFF7FF0C0EF6264B0EF72208000B
:10475000F550E66EFD0EDBCFE9FFFE0EDBCFEAFF84
:10476000E552E750EF6E0D01F951040DF3CFF6FF5E
:10477000F4CFF7FF0C0EF6264B0EF722020EF626AC
:10478000000EF7220800F550E66EFB0EDBCFE9FFC6
:10479000FC0EDBCFEAFFE552E750EF6E0D01F92B7F
:1047A000010E04D00D01F92B000E00D0146E020E84
:1047B000E15C02E2E16AE552E16E1450E552E7CFB6
:1047C000D9FF12000D01CE6B0D01CD6B0D019E6B5B
:1047D0000D019F6B0D01A06B0D01A1691200D9CFD6
:1047E000E6FFE1CFD9FFE652DF68010E146E81507B
:1047F000800B01E0010E145C70E18150200B01E0A0
:10480000010E166E8150040B01E0010EE824156EB6
:104810008150100B01E0010E040DF3CF14F0815014
:10482000080B01E0010E080DF350141015101610BE
:104830000F0BDF6EDF500F0A4BE0010A46E0030A60
:1048400041E0010A3CE0070A37E0010A32E0030ACE
:104850002EE0010A29E00F0A24E0010A1FE0030A02
:104860001AE0010A15E0070A10E0010A0BE0030A4A
:1048700006E0010A01E02FD0050EDF6E2ED0060EF5
:10488000DF6E2BD0090EDF6E28D00A0EDF6E25D02A
:10489000020EDF6E22D0010EDF6E1FD0030EDF6E20
:1048A0001CD0070EDF6E19D0040EDF6E16D0DF6A43
:1048B00014D00B0EDF6E11D00F0EDF6E0ED00C0E6B
:1048C000DF6E0BD0080EDF6E08D00E0EDF6E05D047
:1048D0000D0EDF6E02D0DF6800D0FF0EDF5C06E158
:1048E0000D01D2690D01CF69000E18D00D01D25112
:1048F000DF5C10E10D01CF51DF5C0CE0FD0EDBCF82
:10490000E9FFFE0EDBCFEAFFDFCFEFFFDFCFCFFD0A
:10491000010E04D0DFCFD2FD000E00D0E552E552EB
:06492000E7CFD9FF1200F1
:0A492600DACFE4FFE2CFDAFFE9CFB9
:10493000E4FFEACFE4FFF6CFE4FFF7CFE4FFF5CFE3
:10494000E4FFF3CFE4FFF4CFE4FFFACFE4FF00EE9F
:1049500000F0140EE80403E3EECFE4FFFBD700EE13
:1049600014F0080EE80403E3EECFE4FFFBD7E652B1
:10497000F2940E010E2B000E0F230E01102B000ED1
:1049800011230E01122B000E13230E01142B000E07
:1049900015230E01162B000E17230E010C2B000EF3
:1049A0000D230E011807000E195B0E01193504E2E4
:1049B00018510008000E19550AE30E011A2B000EBB
:1049C0001B231C231D23C80E0E01186F196B0E012B
:1049D0000251031107E005D003CEFAFF0E01025188
:1049E000F96EFADF00CEE6FF01CEE6FF87EC29F094
:1049F000E552E552E55200EE1BF0080EE80403E331
:104A0000E5CFEDFFFBD700EE13F0140EE80403E34F
:104A1000E5CFEDFFFBD7E5CFFAFFE5CFF4FFE5CF1C
:104A2000F3FFE5CFF5FFE5CFF7FFE5CFF6FFE5CFE5
:104A3000EAFFE5CFE9FFE5CFDAFF1100DACFE4FFC7
:104A4000E2CFDAFFE9CFE4FFEACFE4FFF6CFE4FFFD
:104A5000F7CFE4FFF5CFE4FFF3CFE4FFF4CFE4FFBB
:104A6000FACFE4FF00EE00F0140EE80403E3EECF0B
:104A7000E4FFFBD700EE14F0080EE80403E3EECFEA
:104A8000E4FFFBD7E652D9CFE6FFE1CFD9FFE652EC
:104A90004AEC29F0DF6E0901C851C82BEA6ACB0F36
:104AA000E96E090EEA22DFCFEFFF400E0901C85D73
:104AB00002E30901C86B0901CA2B9E9AE552E5522F
:104AC000E7CFD9FFE55200EE1BF0080EE80403E340
:104AD000E5CFEDFFFBD700EE13F0140EE80403E37F
:104AE000E5CFEDFFFBD7E5CFFAFFE5CFF4FFE5CF4C
:104AF000F3FFE5CFF5FFE5CFF7FFE5CFF6FFE5CF15
:0C4B0000EAFFE5CFE9FFE5CFDAFF110086
:044B0C000000320073
:104B1000030032000F003200070032000F003200A5
:104B20000C003200020028000500280003002800C5
:104B30000F001E00070028000F001E000C002800B8
:104B4000030028000F001E00070032000C00320096
:104B5000010028000C001E00010032000C00320091
:104B6000050032000C003200010028000C001E007D
:104B7000010032000C003200060032000C0032004E
:104B8000010032000C003200020032000C0028004C
:104B900002001E000B00320008003200010032004B
:104BA0000C0032000C0032000B0028000C001E002C
:104BB0000500320006003200030032000C00320013
:104BC000010032000C003200090032000C003200FB
:104BD00001003200020032000C00320001003200FD
:104BE0000C00320003003200010032000C003200E1
:104BF0000B003200020032000C00320002003200D2
:104C00000C003200010032000C00320003003200C0
:104C100001003200020032000300320001003200C5
:104C200002003200030032000100320002003200B4
:104C300003003200010032000200320003003200A3
:0C4C4000010032000200320018002D00BC
:044C4C00FE0EE3CFA6
:104C5000E9FFFF0EE3CFEAFFE9CFF3FFEACFF4FF6E
:104C6000FB0EE35003E1FC0EE35009E0FB0EE3060C
:104C700002E2FC0EE306FD0EE350EE6EF1D71200E9
:104C8000D9CFE6FFDACFE6FFFA0EE3CFD9FFFB0E6E
:104C9000E3CFDAFFFC0EE3CFE9FFFD0EE3CFEAFF3F
:104CA000DE50EF5C02E1EE66FBD7F36EFF0EE3CF62
:104CB000DAFFE552FF0EE3CFD9FFE552F3501200C1
:104CC000D9CFE6FFDACFE6FFFA0EE3CFD9FFFB0E2E
:104CD000E3CFDAFFFC0EE3CFE9FFFD0EE3CFEAFFFF
:104CE000E9CFF3FFEACFF4FFDECFEFFFEE66FCD7AC
:104CF000FF0EE3CFDAFFE552FF0EE3CFD9FFE55217
:104D00001200FB0EE3CFF6FFFC0EE3CFF7FFFD0E24
:104D1000E3CFF8FFFE0EE3CFE9FFFF0EE3CFEAFF9C
:104D2000E9CFF3FFEACFF4FF0900F5CFEFFFEE661E
:104D3000FBD71200FE0EE3CFE9FFFF0EE3CFEAFF41
:104D4000F36AF46AEE5203E0F34AF42AFBD7120046
:104D5000D9CFE6FFE1CFD9FFE65209EC29F0000EEA
:104D6000E66EE66A600EE66EF00EE66E5FEC27F029
:104D7000E552E552E552E5523AEC22F0A4EC22F07D
:104D800027EC16F05FEC00F011EC00F00E01F40ED1
:104D90000E5D010E0F5905E3E2EC29F00E010E6BDA
:104DA0000F6B0E01080E105D000E115905E3B3ECF8
:104DB00022F00E01106B116B0E01020E125D000E3F
:104DC000135905E368EC1EF00E01126B136B0E0114
:104DD000640E145D000E155905E399EC02F00E0106
:104DE000146B156B0E01C80E165D000E175905E306
:104DF00035EC16F00E01166B176B0400C7D7E552A1
:084E0000E552E7CFD9FF1200D3
:084E0800434C4541522049537F
:104E1000535545530041444D494E20414354495652
:104E20004954593A0050415353574F52443A005055
:104E3000415254204E4F3A00464143494C4954593F
:104E400000504C4154464F524D20454E47494E4527
:104E50004552494E470050524F4345535320454E0B
:104E600047494E454552494E47004D464720544517
:104E700043484E4F4C4F4759005445535420454EDC
:104E800047494E454552494E4700574154455220E7
:104E90005350494445520050524F44554354494F92
:104EA0004E005155414C49545900534146455459BF
:0D4EB000004445504152544D454E543A00C7
:024EBE00D9CF4A
:104EC000E6FFE1CFD9FF9F0EE66EA3EC29F0E55295
:104ED000FD0EDBCF00FEFE0EDBCF01FEFB0EDBCFB7
:104EE00002FEFC0EDBCF03FEF194FD0EDBCFE6FFEE
:104EF000FE0EDBCFE6FF87EC29F0E552E552E552E6
:104F0000E7CFD9FF1200D9CFE6FFE1CFD9FF040EDA
:104F1000E126F29A1ACEDFFF010E1BCEDBFF020E56
:104F20001CCEDBFF030E1DCEDBFFF28ADECF06F0C8
:104F3000DECF07F0DECF08F0DDCF09F0DD52DD5225
:104F400000D0040EE15C02E2E16AE552E16EE55256
:104F5000E7CFD9FF1200F29E0E011A6B1B6B1C6B80
:064F60001D6BF28E120031
:0A4F66002C0EF66E000EF76E000E22
:104F7000F86E0D010900F550F46F0900F550F56F5A
:104F800003E1F46701D03DD00900F550EF6F09004F
:104F9000F550F06F0900F550F16F09000900F55068
:104FA000E96E0900F550EA6E090009000900F550A4
:104FB000F26F0900F550F36F09000900F6CFF6FD16
:104FC000F7CFF7FDF8CFF8FDEFCDF6FFF0CDF7FF07
:104FD000F1CDF8FF0D01F25302E1F35307E00900B0
:104FE000F550EE6EF207F8E2F307F9D7F6CDF6FFCB
:104FF000F7CDF7FFF8CDF8FF0D01F407000EF55BD4
:04500000BFD7120004
:0C500400D9CFE6FFDACFE6FFE1CFD9FFFD
:10501000E2CFDAFFE652DF6AFD0EDBCF15F015C0F6
:1050200014F0030E1514AA6EFF0EE76EFC0EDBCF14
:1050300014F0E7501416156A1450A96EFB0EDB50DD
:10504000A86EA69EA69CA684F250800B01E0010EDD
:10505000DF6EF29E550EA76EAA0EA76EA682A6B2AE
:10506000FED7DF50E8B0F28EE8A0F29EA694E5529B
:0C507000E552E5CFDAFFE7CFD9FF1200D0
:04507C00D9CFE6FFA3
:10508000DACFE6FFE1CFD9FFE2CFDAFF726A716AC9
:10509000FD0EDBB07288DBA202D0728C718CDBB4A7
:1050A000728EDBA602D0718801D0718ADBA802D093
:1050B000728401D07294DBBA7186DBAC02D0A38A11
:1050C00001D0A39ADBAE02D0A38801D0A398FB0E37
:1050D000DB50756EFC0EDBCF15F015C014F0156AB1
:1050E0001450766E728A718EE552E5CFDAFFE7CF03
:0450F000D9FF1200D2
:0C50F400D9CFE6FFDACFE6FFE1CFD9FF0D
:10510000E2CFDAFFAC6AAB6AFD0EDBB0AC88DBA2A3
:1051100002D0AC8CAB8CDBB4AC8EDBA602D0AB88FF
:1051200001D0AB8ADBB8AC84DBBAAB86DBAC02D097
:105130009D8A01D09D9ADBAE02D09D8801D09D98BA
:10514000FB0EDB50AF6EFC0EDBCF15F015C014F07C
:10515000156A1450B06EAC8AAB8EE552E5CFDAFF1B
:06516000E7CFD9FF1200A9
:0A516600D9CFE6FFDACFE6FFE1CF74
:10517000D9FFE2CFDAFFFC0EDBCF14F0FD0EDBCF60
:1051800015F015C014F0156A030E1414AA6EFF0E64
:10519000E76EFC0EDBCF14F0FD0EDBCF15F0E75011
:1051A0001416156A1450A96EA69CA69EA68000002F
:1051B0000000A85000D0E552E5CFDAFFE7CFD9FFD5
:0251C0001200DB
:0E51C200312D312D31324142433233444546C6
:1051D000330B0B0B0B0B3447484934354A4B4C35DA
:1051E000364D4E4F360C0C0C0C0C37505152533878
:1051F00054555638395758595A08080808082A2A61
:105200002A2A2A302030203013131313130A0A0AD3
:025210000A0A88
:0E521200C26A0F01386B0F01396B0F013A6B46
:105220000F013B6B0F013C6B700ED36E9690849018
:10523000949C948E959E959C959A95989596959408
:1052400095928168929680969290809092948094A4
:0652500092928092120010
:0A525600D9CFE6FFDACFE6FFE1CF83
:10526000D9FFE2CFDAFFE652F20E0D01FD1771AC65
:1052700003D0FD9171B0FD8171B4FD8571B2FD87E0
:105280007450DF6EDF50E552E552E5CFDAFFE7CF2D
:04529000D9FF120030
:0C529400D9CFE6FFDACFE6FFE1CFD9FF6B
:1052A000E2CFDAFFE652F20E0D01FE17ABAC03D0EF
:1052B000FE91ABB0FE81ABB4FE85ABB2FE87AE50C3
:1052C000DF6EDF50E552E552E5CFDAFFE7CFD9FFD9
:0252D0001200CA
:0E52D20008C012F008500D02F4CF07F0F3CF21
:1052E00006F009500E02F4CF09F0F3CF08F00D02DA
:1052F000F3500726F4500822E86A092212500E02E1
:0E530000F3500726F4500822E86A0922000C38
:02530E00D9CFF5
:10531000E6FFDACFE6FFE1CFD9FFE2CFDAFFE652D0
:10532000E652FC0EDBCFDEFFDBCFDDFF010EDB50F4
:10533000D76EDF50D66EE552E552E552E5CFDAFF83
:06534000E7CFD9FF1200C7
:0A534600D9CFE6FFDACFE6FFE1CF92
:10535000D9FFE2CFDAFFFD0EDB507F0BD56ED76AA7
:10536000D66AF294FD0EDBAE02D0F28A01D0F29A38
:0E537000D58EE552E5CFDAFFE7CFD9FF120068
:02537E00FF0E20
:10538000E3501C6E480E01D04C0EE76EE72EFED7A0
:0E539000E76AE72EFED71C2EF7D700001200AA
:02539E00380EC7
:1053A000F36E00EE00F00F0E01D81200EA6002D09A
:0E53B000EE6AFCD7F350E9601200EE6AFCD7FB
:0253BE000F01DD
:1053C000006B12000F01000504E10F01006B8490D7
:0C53D00004D00F01010E006F8480120059
:0453DC0010EE60F07F
:1053E00020EE60F0F86A019CB3EC27F010EC2AF094
:0853F000A8EC26F0FBD7120027
:0853F800FF0EE350E84E120025
:0E540000000000D000D000D0E82EFAD7120035
:02540E0020205C
:0F541000202020202020202020202020202000CD
:01541F00008C
:02542000120078
:0E54220000000000000000000000000000007C
:10543000000000000000000000000000000000006C
:10544000000000000000FF0000000000000000005D
:10545000000000000000000000000000000000004C
:10546000000000000000000000000000000000003C
:10547000000000000000000000000000000000002C
:1054800000000000000000000000FF00000000001D
:10549000000000000000000000000000000000000C
:0C54A0000000000000000000000000FF01
:0454AC0000000000FC
:1054B00000000000000000000000000000000000EC
:1054C00000000000000000000000000000000000DC
:1054D00000000000000000000000000000000000CC
:1054E00000000000000000000000000000000000BC
:1054F00000000000000000000000000000000000AC
:10550000000000000000000000000000000000009B
:10551000000000000000000000000000000000008B
:10552000000000000000000000000000000000007B
:02553000000079
:0E55320000000000000000000000000000006B
:1055400000000000000000000000C8000000000093
:10555000000000000000000000000000000000004B
:10556000000000000000000000000000000000003B
:10557000000000000000000000000000000000002B
:10558000000000000000000000000000000000001B
:0558D0000000000000D3
:0B58D5000000000000000000000000C8
:1058E00000000000000000000000000000000000B8
:0758F00000000000000000B1
:0958F700000000000000000000A8
:105900000000000000000000000000000000000097
:105910000000000000000000000000000000000087
:105920000000000000000000000000000000000077
:10593000000000000000000000000000FF0000FF69
:105940000000000000000000000000000000000057
:105950000000000000000000000000000000000047
:105960000000000000000000000000000000000037
:105970000000000000000000000000000000000027
:105980000000000000000000000000000000000017
:105990000000000000000000000000000000000007
:1059A00000000000000000000000000000000000F7
:1059B00000000000000000000000000000000000E7
:1059C00000000000000000000000000000000000D7
:0459D00000000000D3
:0C59D400000000000000000000000000C7
:1059E00000000000000000000000000000000000B7
:1059F00000000000000000000000000000000000A7
:105A00000000000000000000000000000000000096
:015DF00000B2
:025DF1000005AB
:025DF300FFFFB0
:0B5DF500B14EAA4EA24E974E8A4E7986
:105E00004E6A4E564E414E384E2F4E254E154E0878
:015E10004E43
:020000040030CA
:0100010008F6
:0100020001FC
:0100030024D8
:01000500BD3D
:010006008079
:010008000FE8
:01000900C036
:01000A000FE6
:01000B00E014
:01000C000FE4
:01000D0040B2
:00000001FF
